:400000000080002011000000493200004932000008B5044B1A6803F53F5302331A6003F033F900BFFA46004010B5054C237833B9044B13B10448AFF300800123237010BD52
:400040009081FF1F0000000098870000084B10B51BB108490848AFF300800848036803B910BD074B002BFBD0BDE81040184700BF000000009481FF1F98870000C880FF1F34
:400080000000000008B562B605F014FEFF2005F095FCFF2005F056FA00F09EF805F0C0F9374800F011F900F09DFA00F0D5F803F0C9FA002000F0A8FC642003F091FB0120DC
:4000C00000F0A2FC642003F08BFB022000F09CFC642003F085FB032000F096FC642003F07FFB042000F090FC642003F079FB002005F08EFC642003F05DFB002005F070FCC4
:40010000642003F057FB002005F076FC642003F051FB042141F6380001F086F9002005F049F8002005F066FB002005F047FC002005F008FA022001F043FB012001F056FABA
:40014000002001F079F900F041FB03F0A3FE88B10C4803F0ABFE0C4B188001280AD90B4800F0B2F8FF2005F0EDF901F035FF002005F0E8F94FF4FA7003F032FBE3E700BFC0
:40018000A08700004882FF1F8882FF1FC0870000064A136801331360054A934204D1034B01221A7100221A60704700BFAC81FF1FE093040008B505F007FB4042054B986008
:4001C0009A68DB689A4204DD024A012111744833D36008BDAC81FF1F08B504F0A7FF114B188804F05DFF05F0DBFB022005F092FB05F0CAFA40F6C41005F080FAC82003F02D
:40020000D9FA002005F07AFAC82003F0D3FA40F6C41005F073FAC82003F0CCFA002005F06DFA08BDD080FF1F10B50024034B5C6105F0D4F9204605F0CDFB10BDAC81FF1F0D
:4002400010B50124034B5C6105F0C8F9204605F0C1FB10BDAC81FF1F10B5094B00249C619C60DC611C6205F0F5F905F0FFFA04F0DDFF2046FFF7E4FF2046FFF7D5FF10BDD6
:40028000AC81FF1F10B50F4B5B6933B905F090F940420C4B18625A6ADA610A4B5B69012B06D1084CA36A236205F082F94042E06104F06AFF4042034CA06105F085FA4042FA
:4002C000A06010BDAC81FF1F08B5054B93F82C3023B105F0BFF8012003F082FA08BD00BFAC81FF1F08B540F6C41005F007FAC82003F060FA002005F001FA0248FFF7E4FFEE
:40030000002008BDD487000038B50446FFF7BAFF54B9AF4B1A68AF4B1A70120A5A7000229A70FA22DA70DBE0013C202C00F2D880DFE804F011171D23292F353B41474D5371
:40034000595F656B71777D83898F959BA1A7ADB3B9BFC5CBD1009F4B01229A70FA22DA70BEE09C4B02229A70FA22DA70B8E0994B17229A70FA22DA70B2E0964B07229A70E3
:40038000FA22DA70ACE0934B11229A70FA22DA70A6E0904B1D229A70FA22DA70A0E08D4B25229A70FA22DA709AE08A4B03229A70FA22DA7094E0874B04229A70FA22DA70EB
:4003C0008EE0844B18229A70FA22DA7088E0814B08229A70FA22DA7082E07E4B12229A70FA22DA707CE07B4B1E229A70FA22DA7076E0784B26229A70FA22DA7070E0754BC6
:4004000005229A70FA22DA706AE0724B06229A70FA22DA7064E06F4B19229A70FA22DA705EE06C4B09229A70FA22DA7058E0694B13229A70FA22DA7052E0664B1F229A708E
:40044000FA22DA704CE0634B27229A70FA22DA7046E0604B2B229A70FA22DA7040E05D4B2C229A70FA22DA703AE05A4B2D229A70FA22DA7034E0574B2E229A70FA22DA707B
:400480002EE0544B2A229A70FA22DA7028E0514B2F229A70FA22DA7022E04E4B28229A70FA22DA701CE04B4B22229A70FA22DA7016E0484B23229A70FA22DA7010E0454B15
:4004C00024229A70FA22DA700AE0424B29229A70FA22DA7004E03F4B30229A70FA22DA703D4D286A06F0E8FE37A3D3E9002306F049FF07F0F7F92862AB69364C2371AB6946
:400500001B126371AB691B14A371AB691B16E371AB682372AB681B126372AB681B14A372AB681B16E372EB692373EB691B126373EB691B14A373EB691B16E3732B6A23743C
:400540002B6A1B1263742B6A1B14A3742B6A1B16E374224A136823751B1263750023A375E37523766376A376E37651682177090A61779168A177090AE177D26884F8202041
:40058000120A84F8212084F8223084F8233084F8243084F8253084F826304C2284F8272084F8283084F8293084F82A3084F82B3084F82C3084F82D300948FFF785FE2E2101
:4005C000204603F03FFC38BD9A99999999990940BC82FF1F8C82FF1FAC81FF1FD080FF1F0888000008B50121002003F06FFA05E00848FFF769FE012003F0F2F803F0AAFA3F
:400600000028F5D003F0D2FB0348FFF75DFE03F05DFB08BD2C880000508800000A4B93F82C307BB100B587B00246084901A807F08FFC01A804F00EFF012003F0D1F807B07F
:400640005DF804FB704700BFAC81FF1F6488000010B5154BD8789B7803EB0020134C206306F02AFE0EA3D3E9002306F08BFE00220F4B06F0B1FF07F05DF980B205F04AF9FB
:400680000C48FFF721FE206BFFF7C8FF0A48FFF71BFE0A48FFF718FE002010BDAFF30080333333333333E33F4882FF1FAC81FF1F000024406C880000C48900008C8800007B
:4006C00010B5154BD8789B7803EB0020134C206006F0F2FD0EA3D3E9002306F053FE00220F4B06F079FF07F025F980B204F0D8FC0C48FFF7E9FD2068FFF790FF0A48FFF74B
:40070000E3FD0A48FFF7E0FD002010BDAFF30080333333333333E33F4882FF1FD080FF1F00002440B4880000C4890000CC88000008B50548FFF7C8FD0448FFF7C5FD0448A5
:40074000FFF7C2FD08BD00BFC4890000EC880000D087000010B5184B1C7C5CB9174B5B6B43B90C22154B5A631548FFF7ADFDFFF7DFFF1EE0104B5C7C5CB9104B5B6B43B9B0
:4007800006220E4B5A630F48FFF79EFDFFF7D0FF0FE0094B9C7C64B9084B5B6B43B91222064B5A630848FFF78FFDFFF7C1FF00E00124204610BD00BFD080FF1FAC81FF1F47
:4007C000208900004C8900007489000008B503F0C7F9B0B1FFF786FD03F0BCF988B1094B93F838304BB10848FFF76EFDFFF7A0FF012002F0DFFF02F0D5FF0122014B83F829
:40080000382008BDAC81FF1F9C89000008B502F017FE0A2002F0E4FF012008BD10B54B1EDBB2FD2B3DD90C46042836D8DFE800F0030D17212B000A2002F0D2FF204602F08E
:400840007DFD0A2002F0CCFF10BD0A2002F0C8FF204602F07FFD0A2002F0C2FF10BD0A2002F0BEFF204602F081FD0A2002F0B8FF10BD0A2002F0B4FF204604F07BFE0A20CE
:4008800002F0AEFF10BD0A2002F0AAFF204604F065FE0A2002F0A4FF10BD0448FFF714FD10BD0348FFF710FD10BD00BFC8890000088A0000F8B506460D46174600212846A9
:4008C000FFF7ACFF06F07F063046FFF79FFF0020FFF79CFF0020FFF799FF0020FFF796FF0020FFF793FFFF212846FFF797FF012002F060FF00212846FFF790FF3046FFF714
:4009000085FF02F007FE38700020FFF77FFF02F001FE04060020FFF779FF02F0FBFD44EA00440020FFF772FF02F0F4FD44EA00240020FFF76BFF02F0EDFD0443FF2128462E
:40094000FFF76CFF012002F035FF00212846FFF765FF3046FFF75AFF02F0DCFD38700020FFF754FF02F0D6FD44EA00640020FFF74DFF02F0CFFD44EA00440020FFF746FF01
:4009800002F0C8FD44EA00240020FFF73FFF02F0C1FD0443FF212846FFF740FF2046F8BD70B506460C46154600211046FFF736FF46F08000FFF72AFF200EFFF727FFC4F36F
:4009C0000740FFF723FFC4F30720FFF71FFFE0B2FFF71CFFFF212846FFF720FF70BD00BF38B505460C460A4600212020FFF7D8FF224629460520FFF7D3FF224629462D2084
:400A0000FFF7CEFF38BD00BF10B50446024605210120FFF7C5FF224608210020FFF7C0FF224600210320FFF7BBFF224600210520FFF7B6FF224600210620FFF7B1FF22460F
:400A40000F210820FFF7ACFF224682490920FFF7A7FF224680490A20FFF7A2FF022C0AD1224600210B20FFF79BFF22467B491020FFF796FF2FE054B9224600210B20FFF799
:400A80008FFF224676491020FFF78AFF23E0012C0AD122467F210B20FFF782FF224671491020FFF77DFF16E0042C0AD12246D2210B20FFF775FF22466B491020FFF770FFB7
:400AC00009E0224600210B20FFF76AFF224667491020FFF765FF22460A211120FFF760FF224600211320FFF75BFF224600211420FFF756FF224600211520FFF751FF2246BF
:400B000000212120FFF74CFF224600212320FFF747FF224600212C20FFF742FF224600213320FFF73DFF224640F2AF213420FFF737FF224600213820FFF732FF2246002175
:400B40003920FFF72DFF22464FF480313A20FFF727FF224600213D20FFF722FF224644496020FFF71DFF224642496120FFF718FF224641496220FFF713FF22460821632093
:400B8000FFF70EFF22466FF080616420FFF708FF22463A496520FFF703FF224638496620FFF7FEFE224637496720FFF7F9FE224635496820FFF7F4FE22464FF477016920E2
:400BC000FFF7EEFE224631496C20FFF7E9FE224600216D20FFF7E4FE224600216E20FFF7DFFE22462A497020FFF7DAFE224600212120FFF7D5FE22464FF6FF712420FFF7CD
:400C0000CFFE22464FF6FF712520FFF7C9FE22464FF6FF712620FFF7C3FE224600212720FFF7BEFE22464FF6FF712820FFF7B8FE22464FF6FF712A20FFF7B2FE2246652120
:400C40002B20FFF7ADFE224600212020FFF7A8FE10BD00BF0606010000040800030307000504070005010700000107000105070054B5AAAAAA54954A292949247D77BBB5E2
:400C800056552949224240005680FFFF530141001E000CC430B583B0044602AD002305F8013D4FF4FA7002F09BFD2A4621460420FFF700FE642002F093FD2A462146042086
:400CC000FFF7F8FD08E00DF1070221462120FFF7F1FD642002F084FD9DF8073013F0200FF1D0002003B030BDF8B5074606F0E4FA37A3D3E9002306F06FFC06F0F3FD0646FE
:400D000000252AE0FFF7BEFA334B9C69341BB4F5FA6F02DB02205863F8BD204606F0CCFA2BA3D3E9002306F02DFB06F0DBFD002CB8BF6442052C0EDD00213844FFF750FE82
:400D40000020FFF7A7FF322002F04AFD002239462120FFF725FE0135EDB2052DD2D9FFF791FA1D4B9B69F61A052D2DD986EAE673A3EBE673072B0FDD06F2CF7640F69E72F9
:400D8000964209D81548FFF79FFAFF2004F016FE0122114B5A6317E0B3F5FA6F06DD1048FFF792FA02220C4B5A630DE00D48FFF78BFA0022084B5A6339462120FFF7F0FD9C
:400DC0004FF4FA7002F00CFD034B586BF8BD00BF9A99999999990940AC81FF1F608A00007C8A0000AC8A000070B50446FFF7B2FC60B31A4D012229461020FFF7D1FD02223E
:400E000029461020FFF7CCFD002215491020FFF7C7FD144E00257563FFF734FA1248FFF753FA29462046FFF7DBFD2846FFF732FF322002F0D5FC2046FFF7F0FB0B48FFF7ED
:400E400043FA2046FFF750FF706B70BD0848FFF73BFA2020034B586370BD00BF0301070005040700AC81FF1FC08A000048880000DC8A000000000000F8B5074606F01CFAE6
:400E800033A3D3E9002306F0A7FB06F02BFD064600252BE0FFF7F6F92F4B9C68341B204606F00AFA2AA3D3E9002306F06BFA06F019FDB4F57A6F03DB0922274B5A6317E065
:400EC000002CB8BF6442052C0EDD01213844FFF787FD0120FFF7DEFE322002F081FC012239462120FFF75CFD0135EDB2032DD1D9FFF7C8F9184B9868301A032D25D980EAE4
:400F0000E073A3EBE073062B0FDD00F69F7041F63E72904209D81148FFF7D6F9FF2004F04DFD08220C4B5A630FE0B3F57A6F06DD0B48FFF7C9F90922074B5A6305E009482A
:400F4000FFF7C2F90022044B5A63034B586BF8BD9A99999999990940AC81FF1FEC8A0000088B0000388B000038B50446FFF7F2FB60B31A4D002229461020FFF711FD022258
:400F800029461020FFF70CFD012215491020FFF707FD144D00236B63FFF774F91248FFF793F901212046FFF71BFD0120FFF772FE322002F015FC2046FFF730FB0B48FFF715
:400FC00083F92046FFF758FF686B38BD0848FFF77BF92020034B586338BD00BF0301070005020700AC81FF1FC08A000048880000DC8A000000000000F8B5074606F05CF91A
:4010000033A3D3E9002306F0E7FA06F06BFC064600252BE0FFF736F92F4BDC69341B204606F04AF92AA3D3E9002306F0ABF906F059FCB4F57A6F03DB1022274B5A6317E020
:40104000002CB8BF6442042C0EDD02213844FFF7C7FC0220FFF71EFE322002F0C1FB022239462120FFF79CFC0135EDB2052DD1D9FFF708F9184BD869301A032D25D980EAE0
:40108000E073A3EBE073072B0FDD00F69F7041F63E72904209D81148FFF716F9FF2004F051FA0F220C4B5A630FE0B3F57A6F06DD0B48FFF709F91022074B5A6305E0094819
:4010C000FFF702F90022044B5A63034B586BF8BD9A99999999990940AC81FF1F4C8B0000688B0000988B000038B505461F4C012221461020FFF754FC002221461020FFF7A1
:401100004FFC02221A491020FFF74AFC194B586A4042FFF795F8FFF71DFB00B3154C00236363FFF7AFF81448FFF7CEF802212846FFF756FC0220FFF7ADFD322002F050FB5C
:401140002846FFF76BFA0D48FFF7BEF82846FFF753FFFFF797F8E3696362606B38BD0848FFF7B2F82020034B586338BD0301070002020700AC81FF1FAC8B00004888000003
:40118000DC8A000000000000F8B5074606F094F833A3D3E9002306F01FFA06F0A3FB064600252BE0FFF76EF82F4B1C6A341B204606F082F82AA3D3E9002306F0E3F806F085
:4011C00091FBB4F57A6F03DB1722274B5A6317E0002CB8BF6442042C0EDD03213844FFF7FFFB0320FFF756FD322002F0F9FA032239462120FFF7D4FB0135EDB2032DD1D9A4
:40120000FFF740F8184B186A301A032D22D980EAE073A3EBE073042B0CDD00F69F7041F63E72904206D81148FFF74EF816220E4B5A630FE0B3F57A6F06DD0D48FFF744F807
:401240001722094B5A6305E00A48FFF73DF80022054B5A63044B586BF8BD00BFAFF300809A99999999990940AC81FF1FC88B0000E48B0000148C000038B50546314C012286
:4012800021461020FFF78CFB642002F0A9FA022221461020FFF784FB642002F0A1FA002221461020FFF77CFB642002F099FA032225491020FFF774FB0A2002F07BFA0020B8
:4012C00004F0B2FB642002F08BFA204B986A4042FEF7AAFFFFF73EFA30B31C4C00236363FEF7D0FF1A48FEF7EFFF03212846FFF777FB0320FFF7CEFC322002F071FA284660
:40130000FFF78CF91348FEF7DFFF2846FFF73CFFFEF7B8FF236AA362FF2004F085FB642002F05EFA606B38BD0B48FEF7CDFF074C20236363FF2004F077FB642002F050FA51
:40134000606B38BD0101070001050700AC81FF1F288C000048880000DC8A0000F8B506460D461446FEF78EFF2B4F012239461020FFF716FB002239461020FFF711FB0222F0
:4013800026491020FFF70CFBC82002F029FA2448FEF79AFF002E03DB00213046FFF720FB002D03DB01212846FFF71AFB002C08DB1C4B586A4042FEF743FF02212046FFF7D0
:4013C0000FFB002E02DB0020FFF764FC002D02DB0120FFF75FFC002C02DB0220FFF75AFC002E02DB3046FFF77FFC002D02DB2846FFF742FD002C07DB2046FFF7FDFDFEF777
:4014000041FF084BDA695A62FEF73CFF322002F0E7F90020F8BD00BF0203070002020700C08A0000AC81FF1F08B50A4601462720FFF7B6FA002008BD2DE9F843044601467E
:401440004FF49620FFF7F0FF224602212020FFF7A7FAC82002F0C4F95D4D2A4621460420FFF728FA4FF4FA7002F0BAF92A4621460420FFF71FFA2AE004F050FC554804F0A1
:4014800079FC534A21460420FFF714FA642002F0A7F9514B1B79D3B14F4D01206863FEF733FF04F0E1FB224600212020FFF778FA224600212120FFF773FA224600212D200E
:4014C000FFF76EFA00232B716B63BDE8F883404B1B7813F0400FCFD004F0C6FB3E4F00253D71224629462120FFF75AFA0A2002F077F9224629462120FFF752FA284603F014
:4015000059FE364E4FF0010886F8118086F8108086F8128086F81380642002F061F94FF44840FFF761FC97F83930737497F83A30337497F83B30B37497F83C30F3746420D6
:4015400002F04EF9224629462120FFF729FA224629462D20FFF724FA21462148FFF764FF224696210B20FFF71BFADFF87C90224649461020FFF714FA284603F01BFEBD61A5
:4015800086F8118087F839801648FEF79DFE2A4649461020FFF704FA424649461020FFF7FFF9022249461020FFF7FAF93D644FF4FA7002F015F9284604F01EFA4FF4FA705D
:4015C00002F00EF9284604F023FABDE8F88300BFCF80FF1F91010000AC81FF1FD080FF1FFAD00500448C0000010107002DE9F8430446FF2004F00CFA4FF4FA7002F0F0F8F9
:40160000FF2004F0EDF94FF4FA7002F0E9F8002004F0F2F94FF4FA7002F0E2F821464FF49620FFF701FF224602212020FFF7B8F9322002F0D5F85B4D2A4621460420FFF747
:4016400039F94FF4FA7002F0CBF82A4621460420FFF730F92AE004F061FB534804F08AFB504A21460420FFF725F9504B1B79D3B14E4D08206863FEF747FE04F0F5FA22464F
:4016800000212020FFF78CF9224600212120FFF787F9224600212D20FFF782F900232B716B63BDE8F883642002F09AF83D4B1B7813F0400FCFD004F0D7FADFF8F0800025D5
:4016C00088F80450224629462120FFF769F90A2002F086F8224629462120FFF761F9284604F088F8324E012777743774B774F774642002F075F84FF49640FFF735FC98F83B
:401700003930737498F83A30337498F83B30B37498F83C30F374642002F062F8224629462120FFF73DF9224629462D20FFF738F921462048FFF778FE224629460B20FFF7A1
:401740002FF9DFF87890224649461020FFF728F9284604F04FF8C8F81850377488F83A701548FEF7B1FD2A4649461020FFF718F93A4649461020FFF713F902224946102024
:40178000FFF70EF94FF4FA7002F02AF8284604F027F94FF4FA7002F023F8284604F038F9BDE8F883CE80FF1F91010000AC81FF1FD080FF1FFAD00500588C00000101070009
:4017C0002DE9F0410446FF2004F00AF94FF4FA7002F006F8FF2004F00FF94FF4FA7001F0FFFF002004F014F94FF4FA7001F0F8FF21466148FFF718FE604B586A4042FEF738
:401800001FFD224602212020FFF7CAF8322001F0E7FF5B4D2A4621460420FFF74BF84FF4FA7001F0DDFF2A4621460420FFF742F829E004F073FA534804F09CFA504A2146CF
:401840000420FFF737F84D4B1B79CBB14B4D0F206863FEF759FD04F007FA224600212020FFF79EF8224600212120FFF799F8224600212D20FFF794F800232B71BDE8F081D2
:40188000642001F0ADFF3E4B1B7813F0400FD0D004F0EAF9394E00253571224629462120FFF77EF82846FEF7CBFC75620A2001F097FF224629462120FFF772F82846FEF7BF
:4018C000BFFC7562304F4FF0010887F8118087F8108087F8128087F81380642001F080FF4FF44840FFF700FC96F839307B7496F83A303B7496F83B30BB7496F83C30FB747E
:40190000642001F06DFF224629462120FFF748F8224629462D20FFF743F821461648FFF783FD2846FEF78CFC756287F8128086F83B801648FEF7C8FC154C2A46214610205D
:40194000FFF72EF8424621461020FFF729F8022221461020FFF724F84FF4FA7001F040FF284604F049F84FF4FA7001F039FF284604F036F8BDE8F0816EA30100AC81FF1FEF
:40198000CD80FF1F91010000D080FF1F6C8C0000010107002DE9F0410446FF2004F020F84FF4FA7001F01CFFFF2004F025F84FF4FA7001F015FFFF2004F02AF84FF4FA7082
:4019C00001F00EFF764D012229461020FEF7E8FF022229461020FEF7E3FF002229461020FEF7DEFF03226F491020FEF7D9FF642001F0F6FE002004F017F80A2001F0DAFE02
:401A000021464FF44850FFF70FFD674B986A4042FEF70AFC224602212020FEF7C1FF322001F0DEFE614D2A4621460420FEF742FF4FF4FA7001F0D4FE2A4621460420FEF753
:401A400039FF2AE004F06AF9594804F093F9574A21460420FEF72EFF534B1B79D3B1524D16206863FEF750FC04F0FEF8224600212020FEF795FF224600212120FEF790FF3D
:401A8000224600212D20FEF78BFF00232B716B63BDE8F081642001F0A3FE444B1B7813F0400FCFD004F0E0F83F4F00253D71224629462120FEF774FF0A2001F091FE224646
:401AC00029462120FEF76CFF2846FEF7ADFBBD62384E4FF0010886F8118086F8108086F8128086F81380642001F07AFE40F6D860FFF7C2FB97F83930737497F83A30337413
:401B000097F83B30B37497F83C30F374642001F067FE224629462120FEF742FF224629462D20FEF73DFF21464FF44850FFF77CFC2846FEF779FBBD6286F8138087F83C80B3
:401B40001D48FEF7C1FBFF2003F06EFF144C2A4621461020FEF724FF424621461020FEF71FFF022221461020FEF71AFF4FF4FA7001F036FE284603F03FFF4FF4FA7001F047
:401B80002FFE284603F02CFF4FF4FA7001F028FE284603F03DFF642001F022FEBDE8F0810101070001050700AC81FF1FCD80FF1F91010000D080FF1F808C000038B5054650
:401BC0000C46042200212020FEF7EAFE042200212120FEF7E5FE04211B48FFF725FC002003F02EFF0F2001F0E5FD012C03D8012001F0E0FD00E00024012C0FD83CB90421C5
:401C00002846FEF7EDFE0420FFF744F806E004216842FEF7E5FE0420FFF73CF804210020FFF702FC042200212120FEF7B9FE042200212020FEF7B4FE052001F0BBFDFF209D
:401C400003F0FEFE002038BD6EA3010070B506460D461446042200212020FEF7A1FE042200212120FEF79CFE04212846FFF7DCFB002003F0E5FE0F2001F09CFD012C0FD8DB
:401C80003CB904213046FEF7ABFE0420FFF702F806E004217042FEF7A3FE0420FEF7FAFF04210020FFF7C0FB042200212120FEF777FE042201212020FEF772FE052001F092
:401CC00079FDFF2003F0BCFE002070BD00000000F8B506460C4617461D464FF0FF31FFF73DFB00210698FFF79FFB02210798FFF79BFB304605F0E0FA21A3D3E9002305F033
:401D00006BFC0022204B05F08BF905F0EBFD1F4BD86004F003F81E4804F02CF800212046FEF75EFE02212846FEF75AFE2E461DE0164B1B7C5BB10024144B1C74FF2004F0F9
:401D40003FF8462001F04CFD204604F039F804F02FF858B9AE4202D0BE4203D101E03E4600E02E4602213046FEF73AFE04F010F80028DDD103F078FF0022044B1A74F8BDD0
:401D80009A9999999999094000005240AC81FF1FB5010000000000002DE9F04FC1B083460F46039114461E46DDF82CA1FF2003F005FE78252A46002122A806F0C0F82A46AD
:401DC000002104A806F0BBF804EBD474641004EB0A05C4EB0A0259464FF0FF30FFF7BEFA01213046FFF720FB02214A98FFF71CFB584605F061FACDE900016FA3D3E90023FD
:401E000005F0EAFB00226E4B05F00AF905F06AFD6C4BD86003F082FF6B4803F0ABFF01213846FEF7DDFD02212846FEF7D9FD002501268EE0634B1B7C5BB10027614B1F74AA
:401E4000FF2003F0BDFF462001F0CAFC384603F0B7FF03F0ADFF00287BD14C9805F094FE0746504605F090FE0146384605F0D6FD0746039805F088FE8046584605F084FEA1
:401E80000146404605F0CAFD0146384605F084FF074603F099FC40424A4B9860986805F00BFA45A3D3E9002305F06CFADDE9002305F0B4F880468946384605F00FFA424639
:401EC0004B4605F05FFA80468946504605F0F4F942464B4605F0A4F805F04CFD0746304605F0EAF902460B460020384903F0B8FF80468946204605F0DFF942464B4605F0B9
:401F000041FA80468946384605F0E8F942464B4605F086F805F0E6FC07460221FEF760FD1D2D12D8274B986805F0C6F922A3D3E9002305F027FA05F0D5FC40AB03EB85031D
:401F400043F8F00C43F8787C00E0002501360135ADB203F025FF00287FF46CAF03F084FE184D00242C74FF2003F028FD012385F82C3016E0164D2846FEF7A6F940AB03EB57
:401F8000840656F8F00CFEF749FB1248FEF79CF956F8780CFEF742FB2846FEF795F90134E4B21C2CE6D90022064B83F82C2041B0BDE8F08FAFF300809A9999999999094018
:401FC00000005240AC81FF1FB50100000000F0BFD0870000948C00002DE9F04784B00022DB4B5A63DB4A5178137803EB0123DA4A13607A2B5BD1D94C00212046FFF714FAFF
:40200000D748FEF761F90022D6491020FEF7C8FCFF2003F0FDFC4FF4FA7001F0E1FBFF2003F0EAFC4FF4FA7001F0DAFB002003F0D7FC4FF4FA7001F0D3FB00212046FFF749
:40204000F3F9012001F0B6FB0020FEF7CDFEC64C012221461020FEF7A3FC022221461020FEF79EFC0022C1491020FEF799FC0020FFF7E2F90022BE491020FEF791FC322023
:4020800001F098FB002003F0C3FC322001F092FB002003F0B1FCAE4C002323644FF4FA7001F09EFB606BFEF72FF900F051BF7B2B55D1AA4C01212046FFF7B6F9AD48FEF79E
:4020C00003F9FF2003F0A4FC4FF4FA7001F088FBFF2003F085FC4FF4FA7001F081FB002003F08AFC4FF4FA7001F07AFB01212046FFF79AF9012001F05DFB0020FEF734FFF5
:4021000001229D491020FEF74BFC022296491020FEF746FC964C002221461020FEF740FC0120FFF763FA012221461020FEF738FC322001F03FFB002003F06AFC322001F064
:4021400039FB002003F04CFC322001F033FB804B00225A64586BFEF7D7F800F0F9BE7C2B47D18648FEF7B0F8FF2003F045FC4FF4FA7001F035FBFF2003F032FC4FF4FA704E
:4021800001F02EFB002003F043FC4FF4FA7001F027FB02217A48FFF747F9012001F00AFB0020FEF7A1FF01226F491020FEF7F8FB022274491020FEF7F3FB00226C4910201E
:4021C000FEF7EEFB0220FFF7FBFA322001F0F2FA002003F011FC322001F0ECFA002003F0FFFB5B4B00229A64586BFEF78DF800F0AFBE7D2B4FD1FF2003F00AFC4FF4FA7082
:4022000001F0EEFAFF2003F0F7FB4FF4FA7001F0E7FAFF2003F0E4FB4FF4FA7001F0E0FA032259491020FEF7BBFB4FF4FA7001F0D7FA002003F0F8FB0A2001F0BBFA0020D2
:40224000FFF71AF80320FFF7A5FB4FF47A7001F0C7FAFF2003F0E8FB4FF47A7001F0C0FA002003F0D5FB4FF47A7001F0B9FA002003F0C2FB4FF47A7001F0B2FA002003F090
:40228000AFFB4FF47A7001F0ABFA314B586BFEF73BF800F05DBEB3F5F46F7FD100212F48FFF7C2F83948FEF70FF82A4A517913791B0403EB0163D17803EB01239278134428
:4022C000234CE3643248FDF7FFFFE06CFEF7A6F93048FDF7F9FF226CE36C9A422BD023641846002B00DAD81C194C801004F0E4FF15A3D3E9002305F045F805F0F3FAE0642B
:40230000FEF772FD60630A2001F054FA224C012221461020FEF744FB022221461020FEF73FFB002221461020FEF73AFB032221461020FEF735FB064B586BFDF7E5FF00F027
:4023400007BE00BFAFF300809A99999999992940AC81FF1F4882FF1FBC82FF1FFAD00500A08C000007040700010107000703070001030700B88C000003020700D08C00004A
:402380006EA301000303070001050700E88C0000008D0000D087000002010700B3F5F66F52D10121AC48FFF73FF8AC48FDF78CFFAB4A517913791B0403EB0163D17803EBB6
:4023C000012392781344A74C2365A748FDF77CFF206DFEF723F9A548FDF776FF626C236D9A422BD063641846002B00DAD81C9D4C801004F061FF94A3D3E9002304F0C2FFA0
:4024000005F070FA2065FEF7AFFD60630A2001F0D1F9974C012221461020FEF7C1FA022221461020FEF7BCFA002221461020FEF7B7FA032221461020FEF7B2FA894B586B69
:40244000FDF762FF00F084BDB3F5FA6F3ED18948FDF73AFF02218848FEF7E6FFC82001F0BFF97F4A517913791B0403EB0163D17803EB0123927813447A4C63657A48FDF7CA
:4024800023FF606DFEF7CAF87848FDF71DFFA26C636D9A4214D0A3641846002B01DA03F10F00704C001104F007FF69A3D3E9002304F068FF05F016FA6065FEF715FE6063F8
:4024C000684B586BFDF720FF00F042BDB3F5FC6F5BD16A48FDF7F8FEFF2003F099FA4FF4FA7001F07DF9FF2003F086FA4FF4FA7001F076F9FF2003F073FA4FF4FA7001F014
:402500006FF903225E491020FEF74AFA4FF4FA7001F066F9002003F087FA0A2001F04AF94F4A517913791B0403EB0163D07803EB0023907818444B4CA065FEF79DFE606303
:402540004FF47A7001F04CF9FF2003F06DFA4FF47A7001F045F9002003F05AFA4FF47A7001F03EF9002003F047FA4FF47A7001F037F9002003F034FA4FF47A7001F030F93D
:40258000606BFDF7C1FE00F0E3BCB3F5FC6F1DD103223C491020FEF703FA314A517913791B0403EB0163D07803EB0023907818442C4CA065FEF760FE6063FDF7A5FE0322F3
:4025C00031491020FEF7ECF900F0C2BC7E2B65D12E48FDF779FE2E48FDF776FE204C627923791B0403EB0263E27803EB0223A5781D442846FEF712F82648FDF765FEA079C0
:40260000FEF70CF81948FDF75FFEA379012B03D80A2001F0E5F802E00022114B9A71104B9C791D48FDF750FE2046FDF7F7FF21462846FFF7C3FA0B4B586BFDF765FE00F01A
:4026400087BC00BFAFF300809A999999999929409A99999999994940FAD00500188D00004882FF1FAC81FF1F008D0000D087000002010700308D00006EA30100488D0000DD
:40268000010507000305070003030700608D0000848D00008C8D0000A48D0000B3F5F86F40F0AC800221A448FEF7BEFEA34C00212046FEF7B9FE01212046FEF7B5FEA04844
:4026C000FDF702FE9F4B59791A79120402EB0162D97802EB0122987810449B4CE064597A1A7A120402EB0162D97902EB01229979114421655D7B1A7B120402EB0562DD7AF7
:4027000002EB05229B7A13446365226C904202D14FF0FF30E0648C4A526C914203D14FF0FF31894A1165884A926C934203D14FF0FF32854B5A65844BDB6C002B10DB824A09
:402740001364184600DAD81C801004F0B5FD76A3D3E9002304F016FE05F0C4F87A4BD864794B1B6D002B10DB774A5364184600DAD81C801004F0A0FD6BA3D3E9002304F0C6
:4027800001FE05F0AFF8704B18656F4B5B6D002B11DB6D4A9364184601DA03F10F00001104F08AFD62A3D3E9002304F0EBFD05F099F8654B5865644C626D216DE06CFEF736
:4027C000CDFD60630A2000F0F5FF604D012229461020FEF7E5F8022229461020FEF7E0F8002229461020FEF7DBF8032229461020FEF7D6F8606BFDF787FDA9E3B3F5F44FA3
:4028000009D1FDF75DFF642000F0D4FF4E4B586BFDF77AFD9CE3B3F5FE4F09D1FDF718FF642000F0C7FF484B586BFDF76DFD8FE3B3F5FC4F11D1434B9C7834B1012C03D04B
:402840004348FDF741FD00E0FF24204602F06EFE3D4B586BFDF758FD7AE3FF2B13D13D48FDF732FD3C48FDF72FFD4FF4FA7000F0A1FF0020FDF748FD4FF4FA7000F09AFFBD
:4028800000F090FF64E3B3F5F64F6FD12D4B59791A79120402EB0162D97802EB012299780A442E4C6260597A1A7A120402EB0162D97902EB012299790A44A260597B1A7BEC
:4028C000120402EB0162D97A02EB01229B7A1A44E2602348FDF7F8FC00216068FEF7A4FD0121A068FEF7A0FD0221E068FEF79CFD1C48FDF7E9FC6068FDF790FE1A4D284677
:40290000FDF7E2FCA068FDF789FE2846FDF7DCFCE068FDF783FE2846FDF7D6FC0A4B586BFDF7F2FC14E300BF9A999999999929409A999999999949406EA30100FAD0050066
:40294000B88D00004882FF1FAC81FF1F03010700D48D0000FC8D0000C4890000D080FF1F1C8E0000448E00006C8E000040F2D172934240F0A880BA4C00232360012384F8CB
:402980002C30B848FDF7A0FCB748FDF79DFCB74B59791A79120402EB0162D97802EB012299780A446265597A1A7A120402EB0162D87902EB002298791044AD4BD860022166
:4029C000FEF732FD626DA36CD31A002BB8BF5B42B3F5FA7F18DBA2641046002A01DA02F10F009F4C001104F067FC99A3D3E9002304F0C8FC04F076FF60659B48FDF764FCA7
:402A0000606DFEF771FB52E0954B9A641046002A01DA02F10F00924C001104F04DFC8CA3D3E9002304F0AEFC04F05CFF6065914D012229461020FDF7B3FF00222946102008
:402A4000FDF7AEFF02228C491020FDF7A9FF606A4042FDF7F5FB00236363FDF713FC206804F02AFC0022854B04F08CFC04F03AFFFDF7D4FD7C4D2846FDF726FC0221606D95
:402A8000FDF7AEFF0220FEF705F9206804F014FC00227A4B04F076FC04F024FFFDF7BEFD2846FDF711FCFDF7EDFBE36963626E48FDF70AFC6A4C00252560606BFDF724FC76
:402AC00084F82C5044E240F2D272934220D1674B59791A79120402EB0162D97802EB0122987810445E4CE065597A1A7A120402EB0162D97902EB01229979114421669A7A1A
:402B00006266FFF7A3F800206063FDF7FDFB1FE240F2C172934240F09480544B59791A79120402EB0162D97802EB012299780A444B4DEA64597A1A7A120402EB0162D979BF
:402B400002EB012299790A442A65597B1A7B120402EB0162D97A02EB0122997A0A446A65597C1A7C120402EB0162D97B02EB0122997B0A443E4C6260597D1A7D120402EBA1
:402B80000162D97C02EB0122997C0A44A260597E1A7E120402EB0162D97D02EB01229B7D1A44E2600A2000F01BFE00216068FEF73BFC0121A068FEF737FC0221E068FEF7FB
:402BC00033FCE86C002800DA0330254C801004F073FB21A3D3E9002304F0D4FB04F082FEE064206D002800DA03301D4C801004F063FB19A3D3E9002304F0C4FB04F072FEDD
:402C00002065606D002800DA0F30154C001104F053FB0FA3D3E9002304F0B4FB04F062FE6065642000F0DCFD626D216DE06CFEF795FB6063642000F0BDFD606BFDF764FB76
:402C400086E1B3F5F84F1BD10020FDF75DFB7FE19A999999999949409A99999999992940AC81FF1F708E00005C8D00004882FF1FD080FF1F01010700020207000000044046
:402C8000FE2B0FD1FF2002F099FEB748FDF71CFB0A2000F08FFD0020FDF736FB002002F08DFE55E147F28332934240F09280AF4B59791A79120402EB0162D97802EB012270
:402CC00099781144587A1A7A120402EB0062DC7902EB04229C791444587B1A7B120402EB0062DD7A02EB05229D7A1544587C1A7C120402EB0062D87B02EB002293F80E80DC
:402D000090440846002900DAC81C801004F0D4FA91A3D3E9002304F035FB04F0E3FD06462046002C00DAE01C801004F0C5FA8AA3D3E9002304F026FB04F0D4FD0446284698
:402D4000002D01DA05F10F00001104F0B5FA84A3D3E9002304F016FB04F0C4FD07464046B8F1000F01DA08F10F00001104F0A4FA7BA3D3E9002304F005FB04F0B3FD0546E1
:402D80007A4B597D1A7D120402EB0162D97C02EB0122997C11447648416093F819E01A7E120402EB0E6293F817E002EB0E229B7D1A44C260019200912B463A462146304695
:402DC000FEF786FF6B4B9D641C640020FDF79CFABEE048F28332934240F0AF80634B59791A79120402EB0162D97802EB012299781144587A1A7A120402EB0062DE7902EB68
:402E000006229E791644587B1A7B120402EB0062DD7A02EB05229D7A1544587C1A7C120402EB0062DC7B02EB04229C7B1444504B5C600846002900DAC81C801004F03CFA63
:402E400045A3D3E9002304F09DFA04F04BFD80463046002E00DAF01C801004F02DFA3EA3D3E9002304F08EFA04F03CFD0646284604F08AFE4FF0765104F0DAFE04F02EFA3C
:402E800037A3D3E9002304F07DFA04F02BFD0746364B597D1A7D120402EB0162DD7C02EB05229D7C1544324AD560597E1A7E120402EB0162D97D02EB0122997D1144587F24
:402EC0001A7F120402EB0062D87E02EB002293F81A9091440846002901DA01F10F00001104F0EAF91EA3D3E9002304F04BFA04F0F9FC82464846B9F1000F01DA09F10F0075
:402F0000001104F0D9F916A3D3E9002304F03AFA04F0E8FC81460290CDF804A0009523463A4631464046FEF737FF4F44114B9F641E640020FDF7E8F90AE013240D4B5C6319
:402F40000D48FDF7C1F9FDF7F3FB2046FDF7DCF904B0BDE8F08700BF9A999999999929409A99999999994940748E00004882FF1FD080FF1FAC81FF1F948E0000FEE700BF25
:402F8000F0B40022174611E050F82760F3B226F0FF0608E001EB420511F812406D78A5550132013BDBB2002BF4D10137282FEBD9F0BC7047064B1B78DBB203F00701054ABC
:402FC00011701B09013213704422034B1A707047CF0100496E5800407658004008B50A46002104F0ACFF08BD08B504F09DFF08BD08B504F099FF08BD38B501222C4B1A8081
:4030000018232C490B7002310A8002310B7002310A80294A137017210232118002321370332102321180023213700622234B1A705222A3F580731A70214B1B78DBB2214A23
:4030400013704FF4E262204B1A8041F25122023B1A80002419250CE01C4B1B7803F0010343EA440404F003044FF4F07002F0B4FE013D0DB1032CEFD115B90320FFF77EFF7F
:40308000134A4FF48073138007231370002311490B7048200231087013700532137002220D4B1A700D4A137843F01F03137038BD80400040824000408A40004000430040B1
:4030C0000F010049A14600402242004025420040044000400640004001400040A243004038B572B6444A137843F00403137000240CE0424D630019194A0011462A440846D9
:4031000091882858FFF76AFF0134E4B2052CF0D93A4800F1240100F66C70FFF731FF384A384B1A6002F1804203F548631A60364A03F518631A60354A137843F002031370BF
:403140001032137843F002031370314D2B7843F040032B70A2F58632513A137843F0100313702C4C0A22A4F1E8012B48FFF73CFF0A22A4F1DC012948FFF736FF0A22A4F1A6
:40318000D0012748FFF730FF0A22A4F1C4012548FFF72AFF0A22A4F1B8012348FFF724FF0A22A4F1AC012148FFF71EFF0822A4F1A0011F48FFF718FF0A22A4F198011D481D
:4031C000FFF712FF0822A4F18C011B48FFF70CFF1A4A137843F008031370194C61232370FFF70AFFC1232370FFF7E4FE0E2229461448FFF7FDFE38BDE8460040BC8E000005
:403200000404004458020140040404C403500140A0430040B49F000000510040C0510040F0510040105100402051004030510040425100405051004062510040224300400B
:4032400000480040B043004008B504F041FE03680C2B00D1FEE7FEE708B5094B1A681044084BC31A802B02DC054B186005E004F02FFE0C2303604FF0FF32104608BD00BF1C
:40328000F880FF1F0084FF1F08B5104E104D16E029686B68AC68002204E051F8040B43F8040B0432A242F8D1E868002203E0002143F8041B04328242F9D11035013E002E1F
:4032C000E6D104F00BFEFCF7DDFEFEE701000000D4A1000008B5104A104B1A60104A136843F40073136000230AE0032B03D80D4A52F8231000E00C490C4A42F823100133FD
:403300002F2BF2D90A4B1A780A4B1A70074A0A4B1A60FFF7E5FE08BD0004FA050CED00E014ED00E000000000493200000080FF1FBC760040C080FF1F08ED00E0044A137890
:4033400003F0FE0300F0010018431070704700BF20510040044A137803F0FD03400000F0020018431070704720510040044A137803F0FB03800000F0040018431070704755
:40338000205100401022014B1A60704700E100E00822014B1A60704700E100E008B502F023FD0C4A137843F020031370013A137843F010031370023A137843F010031370DC
:4033C00002F016FD01F0C0FEFFF7DCFFFFF7E0FF08BD00BF9D6400401022014B1A60704780E100E00822014B1A60704780E100E010B5FFF7F1FF064B1C78064A137803F078
:4034000009031C4300231370FFF7BCFF204610BD6C640040C982FF1F10B5FFF7E3FF064B1B78064A147804F040041C4300231370FFF7AEFF204610BD6A640040D782FF1F29
:4034400010B504462B4B1A7802F0FF0312B1013BDBB200E00423284A1278D2B29342F1D0FFF7BAFF254B1978254A137803F009030B4313701F4B1A78D2B21F4B1B78DBB214
:403480009A4207D11E4B1B7813F0040F02D01D4B1C702CE0184A13780133DBB213701378DBB2042B02D90022134B1A70124B1A78D2B2104B1B78DBB29A420ED10D4A13788C
:4034C0000133DBB213701378DBB2042B02D90022084B1A7001220C4B1A70074B1B78DBB20A4AD4540A4A137843F004031370FFF749FF10BDD382FF1FD582FF1F6C640040D6
:40350000C982FF1F44650040D282FF1FC482FF1F8C64004010B5FFF765FF134B1A78D2B2124B1B78DBB29A4214D0114B1B7813F0FF0F0CD10C4A13780133DBB213701378D6
:40354000DBB2052B06D90022074B1A7002E00022074B1A70044B1B78DBB2064AD45CE4B2FFF716FF204610BDD682FF1FD482FF1FC082FF1FCC82FF1F08B501E00A4B1B78D2
:403580000A4B1B7813F0200FF8D102F02DFC084B1A7842F001021A701A7802F0FE021A7002F026FC08BD00BF546500406A6400409465004010B50F22174B1A70174C10230B
:4035C00023600621042000F029F91549042000F011F9082323600721032000F01FF91149032000F007F9FFF7C7FF00240E4B1C700E4B1C700E4B1C700E4B1C700E4B1C70A8
:403600000E4B1C70FFF7F4FEFFF706FF0C4B1C702022023B1A7010BD8D64004080E100E06136000001370000C082FF1FD682FF1FD482FF1FD282FF1FD382FF1FD582FF1F24
:403640008C64004008B5054B1B7823B9FFF7B2FF0122024B1A70FFF7A1FE08BD1482FF1F28E01F4B19781F4A137803F009030B431370137813F0040F24D01B4B1B7813F097
:40368000FF0F0CD1194A13780133DBB213701378DBB2042B06D90022144B1A7002E00022114B1A70114B1B78DBB2114AD35CDBB2104A13700D4B1A78D2B20F4B1B78DBB27A
:4036C0009A42CED1094B1A78D2B20B4B1B78DBB29A4204D1094A137803F0FB03137070476C640040C982FF1FD282FF1FD382FF1FC482FF1F44650040D582FF1F8C64004065
:40370000204B1A7820490B7803F0400313430B7032E01E4B1A78D2B21D490B780133DBB20B700B78DBB2052B02D90021184B1970174B1978C9B2174B1B78DBB299420ED111
:4037400014490B780133DBB20B700B78DBB2052B02D900210F4B197001210F4B19700C4B1B78DBB20D49CA54064B1A7806490B7803F0400313430B70034B1B7813F0200F4F
:40378000C7D170476A640040D782FF1F54650040D482FF1FD682FF1FC082FF1FCC82FF1F01BE7047024A137843F0010313707047F646004010B5044605E0084B186802F093
:4037C0000BFBA4F50044B4F5004FF6D8034B586800FB04F002F000FB10BD00BFFC80FF1F08B5034B1B7A00FB03F002F0F5FA08BDFC80FF1F70B504460E46074B1D681F2861
:4038000002D90020FFF7CCFF04F01F04103455F8240045F8246070BD08ED00E038B504460D46072902D90020FFF7BAFF1F2C02D90020FFF7B5FF04F01F0000F1604000F550
:4038400064406D01EDB2057038BD00BF134B1B78DBB20360124A127843EA02230360114A127843EA024303600F4A127843EA026303600E4B1B78DBB243600D4A127843EA36
:40388000022343600B4A127843EA024343600A4A127843EA02634360704700BF0301004904010049EC4600400201004901010049000100490501004906010049F8B502F097
:4038C00093FA0546404A137843F0010313701032137843F00103137001273C4B1F700226943B1E7002F5E2521B32137803F07F0313700020FFF774FF354C237803F0F90348
:403900002370344A137803F0DF03137023783B4323703846FFF764FF2820FFF761FF2E4B1A7802F07F021A701A7802F0BF021A702378334323703046FFF752FF237843F06C
:40394000040323700023254A137001321370284602F04EFA07211720FFF760FF20491720FFF748FF07211820FFF758FF1D491820FFF740FF07211520FFF750FF1A491520EF
:40398000FFF738FF07210620FFF748FF17490620FFF730FF07210846FFF740FF14490720FFF728FF07210820FFF738FF11490820FFF720FF07210C20FFF730FF0E490C2048
:4039C000FFF718FFF8BD00BFA54300409D6000409443004012600040F851004084600040454400002D42000041440000A1430000D143000005440000E146000010B500239E
:403A000004E00124244AD4542344DBB2012BF8D9224B18700023224A1370224A1370224A1370224A1370224A1370224A1370224A1370224B4FF400021A604FF080721A607E
:403A40004FF400121A6040221A6080221A604FF480721A6011B1012906D00BE0184A137803F0FE0313700AE0154A137843F00103137004E0124A137843F001031370032287
:403A8000104B1A708022203B1A70012002F0A4F904220D4B1A7010BD8883FF1FFB82FF1FF082FF1F0283FF1F0883FF1FF182FF1FFC82FF1F1983FF1FF282FF1F00E100E03B
:403AC00009600040286000401260004038B504460D46064B1B7823B9FFF7F0FE0122034B1A7029462046FFF789FF38BD1582FF1F002304E001210E4AD1540B44DBB2012BCF
:403B0000F8D900230B4A13700B4A13700B4A13700B4A13700B4A13700B4A13700B4A137003220B4B1A708022203B1A70704700BF8883FF1FF082FF1F0283FF1F0883FF1FA2
:403B4000F182FF1FFC82FF1F1983FF1FF282FF1F28600040014B1878704700BF0883FF1F064B1B7813F0FF0F05D0044B1878C0B200221A7070470020704700BF0283FF1F52
:403B800000EB40008300024A13445878704700BF1C83FF1F431EDBB2072B0BD8064B00011A18185C00F00F00537843EA0020023880B2704700207047FC5F0040431EDBB21C
:403BC000072B3CD8F0B4074600EB4004A3001C4C2344DB889BB2C3F500739A4208D900EB400293002344DA8892B2C2F5007292B200EB4004A300124C2344DB7843EA1223CF
:403C0000104D04012E192B55D3B2737039B909E0CE5C3D010C4C665501339BB200E000239A42F5D8420002449300054A134400225A705A79D2B20001044B1A54F0BC70474B
:403C40001C83FF1FFC5F004078600040FE5F0040431EDBB2072B0BD8420002449300054A134400225A705A79D2B20001024B1A54704700BF1C83FF1FFE5F004070B5D9B1F5
:403C8000054614460E46C8B1082819D8FFF782FFA04203D22846FFF77DFF0446002305E02901094A525CF25401339BB2A342F7D32846FFF7CDFF04E0002402E0002400E052
:403CC0000024204670BD00BF786000404FF40012014B1A60704700BF00E100E010B4FF2400230EE0094AD25C02EB42029100084A11448A7AD2B2824201D11C460223013329
:403D0000DBB2012BEED9204610BC7047DC82FF1F1C83FF1F10B5204C2079FFF7DFFF237813F0800F0ED06378DBB2212B2FD11B4B07221A80C0EBC000194A1044586000F091
:403D4000E3FA10BD144B5B78DBB2202B02D0222B10D01EE0114A07231380C0EBC00310490B4453600F4A135C43F00103135400F0F3FA10BD084B9B780B4A22F81030094A39
:403D8000135C43F00203135400F07CF910BD002010BD002010BD00BF006000400C83FF1F0C81FF1FEC82FF1FD882FF1F10B500241F4B1C701F4B1C705C700AE01E4B185DC5
:403DC000C0B2431EDBB2072B01D8FFF741FF0134E4B2012CF2D9194B1B7813F0FF0F1AD0154B1B7813F0FF0F17D0154B1B7813F0FF0F14D0114B1B78DBB2082B11D80E4BA9
:403E00001B78DBB2082B0ED80D4B1B78DBB2082B0BD8002010BD012010BD012010BD012010BD012010BD012010BD012010BD00BF1682FF1FEC82FF1FE482FF1FE882FF1F2D
:403E4000DC82FF1F70B506460D460F4B1B780F4AD45CE4B204EB440293000D4A13441B899BB28B4209D204EB44029300084A13441D89ADB20020FFF793FC2A46314620467F
:403E8000FFF79CFE70BD00BF1682FF1FE882FF1F1C83FF1F08B5034B1B78034AD05CFFF76FFE08BD1682FF1FE482FF1F08B5084B1B78084AD35CDBB203EB43018A00064956
:403EC0000A44128992B201461846FFF7D7FE08BD1682FF1FE482FF1F1C83FF1FC37803F0030390F9020000280FDA032B06D002F001030B48C15442F001020EE0C2F38003DC
:403F00000848C15442F0040207E0032B05D0C2F340030548C15442F002021046704700BFE882FF1FDC82FF1FE482FF1F1D4B19781D4A13889BB20B449BB2138000220FE08E
:403F40001A494B681B78DBB2194883544B6801334B600132D2B20B889BB2013B9BB20B80124B1B889BB20BB1072AE9D90D4B1B78DBB2082B00D05AB10E490B7883F0800344
:403F80000B700F210C4B197002210C4B197004E0022309490B7009490B70094B1A70014B1A707047F282FF1F0683FF1F0C83FF1F00600040FD82FF1FFA82FF1FF082FF1F18
:403FC0001883FF1F0222074B1A708022064B1A700F22064B1A700023054A1370054A137001207047F082FF1FFD82FF1FFA82FF1FF282FF1F1883FF1F08B5FFF797FF08BDC0
:4040000010B4194B197801F00F010239C9B2174A13889BB20B449BB21380002011E0144A5468144B1B5CDBB223705368013353600130C0B20139C9B213889BB2013B9BB20C
:4040400013800B4B1B889BB20BB10029E7D10A4B19700A4A137883F0800313700B22084B1A7010BC704700BF296000400683FF1F0C83FF1F006000401883FF1FFD82FF1F35
:40408000FA82FF1F0623064A1370064A13708022054B1A700022054B1A700120704700BFF082FF1FFA82FF1FFD82FF1F1883FF1F064B9B6843B1054B9A6810709A6804499F
:4040C0000988518000229A60704700BF0C83FF1F0683FF1F08B5134B1A78D2B21A701B78DBB213F0800F02D00F4A137008BD0220FFF7DEFF0D4B1B7803F06003202B05D042
:40410000402B06D043B900F0DDFD06E001F074FE03E000F085FF00E0002010B90322024B1A7008BD28600040FA82FF1F0060004008B5094B1978094A13889BB20B449BB2D3
:4041400013800022064B1A700120FFF7B1FF0322044B1A7008BD00BFF282FF1F0683FF1FF082FF1FFA82FF1F08B50B4B1B78DBB2042B06D0062B07D0022B0BD1FFF7D8FFED
:4041800008BDFFF73DFF08BD0320FFF791FF0322024B1A7008BD00BFF082FF1FFA82FF1F08B50022044B1A700120FFF781FF0322024B1A7008BD00BFF082FF1FFA82FF1FF7
:4041C00008B50B4B1B7813F0FF0F07D0084A137843F0800307490B70002313700022064B1A700120FFF764FF0322044B1A7008BDFC82FF1F08600040F082FF1FFA82FF1F85
:4042000008B5094B1B78DBB2042B06D0062B07D0022B07D1FFF7F0FE08BDFFF7C1FF08BDFFF7CEFF08BD00BFF082FF1F08B5284B1B78DBB213F0100F48D013F0800F0CD048
:4042400003F00F03012B16D1FFF744FF214B1B7813F0800F11D1012312E013F0400F03D0FFF7CEFF01230BE013F0200F07D0FFF77BFF012304E0002302E0002300E00023C1
:4042800023B3134B1B7813F0800F1FD1124B1B78124A12781343124A13701278D2B2934214D10C4B1B78DBB2094A127812F0800F07D1084B1B78DBB2054A1370137803F062
:4042C0000F03044A1278D2B29342EAD108BD00BF28600040FA82FF1FFD82FF1F1883FF1F296000400022064B1A80064B9B682BB1044A916800230B7092685380704700BF56
:404300000683FF1F0C83FF1F08B50F4B1B889BB213B9FFF757FE15E002220C4B1A7000220B4B1A70FFF7DEFF0A4AD179937943EA0123054A128892B2934201D2024A13808D
:40434000FFF7F4FD012008BD0C83FF1FF082FF1FFD82FF1F0060004008B504220B4B1A7080220B4B1A70FFF7BDFF0A4AD179937943EA0123084A128892B2934201D2064ADC
:4043800013800B22054B1A70012008BDF082FF1FFD82FF1F006000400C83FF1FFA82FF1F0122094B1A700F3B9B7C084B1B7B03F00303934204D0054AD37B83F08003D373A3
:4043C0000122024B5A7370470B6000401C83FF1F02220A4B1A700F3B93F82230084B1B7E03F00303012B04D0054AD37E83F08003D3760122024B5A76704700BF0B60004012
:404400001C83FF1F04220C4B1A700F3B93F832300A4B93F8243003F00303012B06D0074A92F8273083F0800382F827300122034B83F82520704700BF0B6000401C83FF1F4A
:40444000704700BF08B5FFF753FB08BD08B50C4B18780138C0B200F0CFF90A4B1B79DBB29A1C00EBC20042680749CB5C02EBC3035B68596A0B78054A1380516008BD00BF2C
:404480000883FF1F00600040F882FF1F0C83FF1F08B50E4B18780138C0B200F0ADF90C4B1B79DBB29A1C00EBC20042680949CB5C02EBC3035B68DB69597813F8022B42EA9A
:4044C000012205490A804B6008BD00BF0883FF1F00600040F882FF1F0C83FF1F10B500221A4B1A801A4B18780138C0B200F084F91849CB78DAB20B79DBB2991C00EBC1006F
:404500004168012B20D81448C35C01EBC3014968531EDBB2022B17D802F10053013B01EBC3000C4A9278D2B211F833309A420BD8406802EB4202910042185468034B5C60EE
:40454000415A198092689A6010BD00BF0C83FF1F0883FF1F00600040F882FF1F08B55B4B1A79D2B21B7813F0800F4DD0574B5B78013B052B00F28E80DFE803F0212B3B8C8F
:404580008C03524BDB78DBB2212B09D1FFF75EFF4F4B1B889BB2002B7ED0FFF7B5FE08BD4A4BDB78DBB2222B78D1FFF771FF484B1B889BB2002B73D0FFF7A6FE08BDFFF74E
:4045C0008DFF434B1B889BB2002B6BD0FFF79CFE08BD012A68D83D4B9B7813F0FF0F65D13B4901230B803B4B1A444A60FFF78CFE08BD012A5CD8364901230B80364B1A4437
:404600004A60FFF781FE08BD304B5B78DBB20A2B0DD00B2B2FD0092B4CD1FFF75FFF2C4B1B889BB2002B47D0FFF796FE08BD012A44D8264B9B7813F0FF0F41D1234BDB7828
:40464000DBB224498B54895CC9B2244B9B5CDBB2994203D20021214B995409E01F4B9B5CDBB2012B04D91B4B9B5CDBB21B498B54FFF708FD08BD012A24D8144B9B78DBB2F1
:40468000012B21D8114B9B78DBB213498B54FFF7F9FC08BD002008BD002008BD002008BD002008BD002008BD002008BD002008BD002008BD002008BD002008BD002008BD17
:4046C000002008BD002008BD002008BD006000400C83FF1F8C83FF1F8883FF1F9083FF1F08B500F0BBFC08BD70B588B0054603AC174E0FCE0FC43368237035B322232B70AC
:4047000003236B7001A8FFF7A1F8002402231AE008AA224412F81C2C08A901EB121111F8141CE954581C00212954981C02F00F0208AE324412F8142C2A54DA1CA954013478
:40474000E4B20433DBB2212BE2D908B070BD00BF309F000010B401233EE019461A010C242148845403EB4300820020480244527912F0FF0F13D003EB430082001B480244F9
:40478000127912F0800F04D01801194A024494700AE01801164A02440820907004E01801134A0244802090704800084482000F480244D488E4B208010B4901448C71D08896
:4047C000C0F30720C871D088C0B20871D288C2F307224A710133DBB2082BBED9FF22054B1A7010BC704700BF706000401C83FF1FFC5F00400A600040074B1A78074B03EB72
:40480000C2035B681A7C824204D9C000103018444068704700207047FB82FF1F809F0000F8B5404B1B7813F0FF0F79D03D4B18780138C0B2FFF7E0FF047AC2683A4B1878F3
:40484000C0B200236AE01178884264D13749095CC9B25578A9425ED1917801F07F01D67806F00306DFF8C8E04D000D44AF000EEB07054FF0000C85F803C092F802C085F89E
:4048800004C092F803C00EF807C097882F8192F90250002D0DDA012E01D1072700E00D274E000E44B500224E35446F7101266E700CE0012E01D1052700E009274E000E442B
:4048C000B5001B4E35446F7100266E70DFF868E00F010EEB07060125B57001FA05F529448D00134929440D89C5F307250EF807500D89EDB27570CE88F6B20E4D3D44AE711B
:40490000CE88C6F30726EE71CE88F6B22E71C988C1F30721697108320133DBB2A34292D3F8BD00BF0883FF1FF182FF1FF882FF1F1C83FF1F70600040FC5F0040034B1A7865
:40494000034B03EBC2035868704700BFFB82FF1F809F000008B5084B18780138C0B2FFF74BFF30B142681279023200EBC203586808BD002008BD00BF0883FF1F2DE9F047A2
:40498000002310E0724D5900CA189600AC190022AA55A270E2702281A272627034462C4462710133DBB2082BECD940B90AE000226849CA546849CA540133DBB200E00023A4
:4049C000012BF4D9654B1B7813F0FF0F00F0BD80624B18780138C0B2FFF70EFF80464368DB7913F0400F05D05D4A137843F00103137004E05A4A137803F0FE03137098F860
:404A000008704FF0000A01266FE0D8F80C50002467E0AB7803F07F039E425FD1314606EB460083004A4803441B899BB2A888834206D206EB460E4FEA8E03454A13441881AA
:404A40002B784448C35CDBB26878834246D195F802C0DFF8FCE04B000B4498000EEB000383F804C0EB780EF80030EB7803F0030395F90200002813DA012B02D14FF0070948
:404A800001E04FF00D09DFF8C8E04B0003EB010C4FEA8C00704480F805900121417012E0012B02D14FF0050901E04FF00909DFF8A0E04B0003EB010C4FEA8C00704480F8A4
:404AC000059000214170AB790A2B01D0022B05D1524631462846FFF701FA824608350134E4B2BC4295D30136F6B2082E8DD9D8F80C0000220CE0837803F07F0310F8084B4E
:404B000003EB43039900124B19448C720132D2B2BA42F0D3FFF71EFF124B1860002301210FE00B4D4A00501884002C44E380228992B213449BB203F0010213449BB201319E
:404B4000C9B20829EDD9FFF705FEBDE8F08700BF1C83FF1FF882FF1F0083FF1F0883FF1F1983FF1FF482FF1F08B5154B1B7903F07F035A1ED2B2072A20D8590019448A0077
:404B800010490A44917841F0010191700021D170517841F002015170127912F0800F05D01B01094A1A448D23937004E01B01064A1A4489239370FFF765FA08BD002008BD24
:404BC000006000401C83FF1FFC5F0040274B1B7903F07F035A1ED2B2072A44D810B5590019448A0022490A44917801F0FE0191700021D1701F4C1801215C01F07F012154F8
:404C0000517801F0FD015170127912F0800F13D003EB43018A0016490A445278D2B2012A04D1224602440C23937019E01B01114A1A440D23937013E003EB43018A000C4960
:404C40000A445278D2B2012A05D11B01094A1A440823937004E01B01064A1A4409239370FFF710FA10BD0020704700BF006000401C83FF1FFC5F004010B50E4B1C79E4B21B
:404C80000D4B18780138C0B2FFF7B6FD43681B799C4201D9022C0AD8084A135DDBB208490B55044B9B78DBB21355012010BD002010BD00BF006000400883FF1FF882FF1FDF
:404CC0000083FF1F10B5964B1B78DBB20021954A118013F0800F00F0B380914A5278D2B20A2A00F27981DFE812F06F00770177017701770177010B00770198007701A000FB
:404D0000874BDB78DBB2012B09D1FFF717FE4268844B5A6012221A80FFF7F6FA10BD804BDB78DBB2022B13D17D4B9878FFF764FD002800F0538142687A4B5A605A68D178F1
:404D40005A68927842EA01221A80FFF7DDFA10BD734BDB78DBB2032B05D032E00A7811440133DBB201E000236F496D4A9278D2B2934203D20A7812F0FF0FEFD1684B9B78D6
:404D8000DBB2EE2B00D16949654B9B7813F0FF0F0BD0634B9B78DBB2654A127C934204D1644C2046FFF7A0FC21460B7813F0FF0F00F016810B785B4A13805160FFF7A4FABC
:404DC00010BD01F019F810BD13F0030317D0022B40F0088153490B80514B1B7903F07F0303EB43039A00544B1A449278D2B2534B1A7000225A704B60FFF786FA10BD494988
:404E000002230B804E4B1A78D2B24C4B1A7000225A704B60FFF778FA10BD424B01221A80484A5A60FFF770FA10BD3E4A012313803B4B1B7944490B445360FFF765FA10BD59
:404E4000374A5278013A0A2A00F2CE80DFE812F04C00CC009700CC000B00CC00CC00CC001300CC0030002E4B9B78DBB2374A1370FFF708F910BD2A4B9B7803F0FF041BB14B
:404E8000601EC0B2FFF7B8FC04B110B9002C40F0AD802C4B1B78DBB29C4206D0294B1C7001202B4B1870FFF769FDFFF7EBF810BDFFF7E2FE002800F09B80194A1379DBB260
:404EC0001279D2B223490A70234AD25CD2B21E49CB5CDBB29A4204D001221D4B1A70FFF79FFCFFF7CFF810BD03F00303012B35D04BB1022B7ED10A4B9B7813F0FF0F7BD13C
:404F0000FFF764FE10BD064B9B78DBB2012B75D10B4A137803F0FD031370FFF7B3F810BD006000400C83FF1F20A000006C9F00004CA10000D483FF1F1C83FF1F1882FF1F36
:404F40001983FF1F0883FF1FF882FF1FFC82FF1F0283FF1FF182FF1F0083FF1F2D4B1B79DBB2012B4CD82B4B98781B79DBB22A49CA5C22EA0002CA54FFF784F810BD03F03E
:404F80000303012B17D04BB1022B3BD1214B9B7813F0FF0F38D1FFF7E7FD10BD1D4B9B78DBB2012B32D11D4A137843F002031370FFF768F810BD174B1B79DBB2012B27D8AE
:404FC000144B98781B79DBB21349CA5C22EA0002CA54FFF757F810BD002010BD002010BD002010BD002010BD002010BD002010BD002010BD002010BD002010BD002010BD1F
:40500000002010BD002010BD002010BD002010BD002010BD006000400483FF1F1983FF1F08B50B4B1B7813F0800F0CD0084B5B78DBB2012B09D1074B074A5A6012781A8082
:40504000FFF762F908BD002008BD002008BD00BF006000400C83FF1F449F0000024B1878C0F38010704700BF8F450040084A137843F0040313701032137843F00403137093
:4050800002F66532137843F001031370704700BFA3430040014B1880704700BF1C4F0040014B1880704700BF1E4F0040014B1870704700BF1B4F004008B5194A137843F0A2
:4050C000020313700232137803F08F0343F010031370144B1A7802F0CF021A701A7842F030021A701A7802F0F0021A701A7842F00F021A707820FFF7CDFF0120FFF7D0FFBE
:405100000020FFF7D3FF084A137843F00403137002F67632137843F00103137008BD00BF184F0040234F0040A343004008B5054B1B7823B9FFF7C0FF0122024B1A70FFF7E4
:4051400095FF08BD1A82FF1F054A137843F0080313701032137843F008031370704700BFA243004008B50222054B1A6005490120FEF740FB07210120FEF750FB08BD00BF01
:4051800080E100E06152000010B50224064B1C6000F0A0F8A0F5004000B2044B1B68044A1460184410BD00BF80E100E01C82FF1F00E100E038B505460224054B1C604FF48D
:4051C000004000F081F8034B1D60034B1C6038BD80E100E01C82FF1F00E100E0024B187800F00F00704700BF6665004040F00700014B1870704700BF8665004008B50F20C9
:40520000FFF7F4FFFFF7EAFF00F0EEFD054A137843F01003137000F0EBFD0222024B1A6008BD00BF9665004000E100E008B500F0A3F84FF4004000F047F80022064B1A60FE
:40524000064B1B7823B9FFF78DFF0122034B1A70FFF7D4FF08BD00BF1C82FF1F1B82FF1F0D4B1B78DBB213F0010F06D00B490A6802F5FF427F320A6007E013F0020F04D0E4
:4052800006490A68A2F500420A6013F0040F02D00022024B1A607047666500401C82FF1F024A137843F080031370704772640040014B1870704700BF82640040014B187872
:4052C000704700BF62640040014B1880704700BF08680040024B1B78024B188880B270470464004088680040014B188880B2704788680040014B1880704700BF486800404B
:40530000014B1880704700BF6868004008B501E0FFF7EAFFFFF7D2FF10F0400FF8D108BD08B5134B1A7802F0F8021A701A7802F0FC021A70FFF7EAFF4FF40040FFF7DAFF82
:405340004FF40040FFF7C0FF0020FFF7B1FFFFF7B5FF4FF40040FFF7D3FF00F045FD054A137843F01003137000F042FD08BD00BF726400409264004008B5054B1B7823B9EA
:40538000FFF7CEFF0122024B1A70FFF789FF08BD2082FF1F08B50D490520FEF72BFA07210520FEF73BFA0023094A13707221094A11702021A2F2071211700621563A11705D
:4053C0004721103211704F32137008BD795400002182FF1F8765004010B500F005FD04460C4A137843F020031370A2F20712137843F0100313702022074B1A60074A137859
:4054000043F01003137000F083F8204600F0F0FC10BD00BF9765004000E100E09964004008B5054B5B7823B9FFF7B4FF0122024B5A70FFF7D1FF08BD2182FF1F034B1B7864
:4054400013F0040FFAD1024B18707047696400404964004038B5074B5B782BB938BDFFF7EDFF0134A4B201E005460024285D0028F5D138BD2182FF1F1D4B1B78DBB213F069
:405480001E0F05D01B4803F01E0201780A43027003F0200303F0FF0233B3174B1978C9B2164B1B78DBB21648C154164B1B7813F0FF0F02D00121144B197010490B780133F9
:4054C000DBB20B700B78DBB23F2B02D900210B4B19700A4B1978C9B20C4B1B78DBB2994202D10121074B1970002AC5D1704700BF606400402182FF1F436400402482FF1F26
:405500009483FF1F2582FF1F2682FF1F2382FF1F054A137843F0100313701032137843F010031370704700BFA2430040044A137803F0FB03800000F0040018431070704744
:40554000F0510040044A137803F0BF03800100F0400018431070704720510040044A137803F0EF03000100F0100018431070704720510040044A137803F0F703C00000F0B0
:4055800008001843107070472051004008B50122054B1A6005490020FEF72CF902210020FEF73CF908BD00BF80E100E08956000010B50124064B1C6000F068FAA0F500407F
:4055C00000B2044B1B68044A1460184410BD00BF80E100E02C82FF1F00E100E038B505460124054B1C604FF4004000F049FA034B1D60034B1C6038BD80E100E02C82FF1F39
:4056000000E100E0024B187800F00F00704700BF6864004040F00700014B1870704700BF8864004008B50F20FFF7F4FFFFF7EAFF00F0DAFB054A137843F01003137000F092
:40564000D7FB0122024B1A6008BD00BF9864004000E100E008B500F06BFA4FF4004000F00FFA0022064B1A60064B1B7823B9FFF78DFF0122034B1A70FFF7D4FF08BD00BFE8
:405680002C82FF1F2882FF1F0D4B1B78DBB213F0010F06D00B490A6802F5FF427F320A6007E013F0020F04D006490A68A2F500420A6013F0040F02D00022024B1A60704781
:4056C000686400402C82FF1F084A137843F0020313701032137843F00203137002F65932137843F001031370704700BFA3430040014B1880704700BF104F0040014B188071
:40570000704700BF124F0040014B1870704700BF0F4F004008B5194A137843F0020313700232137803F08F0343F010031370144B1A7802F0CF021A701A7842F030021A7039
:405740001A7802F0F0021A701A7842F00F021A7046F2A810FFF7CCFF0120FFF7CFFF0020FFF7D2FF074A137843F00203137002F66A32137843F00103137008BD0C4F00407D
:40578000174F0040A343004008B5054B1B7823B9FFF7C0FF0122024B1A70FFF795FF08BD3082FF1F08B50422054B1A6005490220FEF720F807210220FEF730F808BD00BFBE
:4057C00080E100E0A158000010B50424064B1C6000F0D6F9A0F5004000B2044B1B68044A1460184410BD00BF80E100E03482FF1F00E100E038B505460424054B1C604FF4AE
:40580000004000F0B7F9034B1D60034B1C6038BD80E100E03482FF1F00E100E0024B187800F00F00704700BF6B64004040F00700014B1870704700BF8B64004008B50F202B
:40584000FFF7F4FFFFF7EAFF00F0CEFA054A137843F01003137000F0CBFA0422024B1A6008BD00BF9B64004000E100E008B500F0D9F94FF4004000F07DF90022064B1A608A
:40588000064B1B7823B9FFF78DFF0122034B1A70FFF7D4FF08BD00BF3482FF1F3182FF1F0D4B1B78DBB213F0010F06D00B490A6802F5FF427F320A6007E013F0020F04D070
:4058C00006490A68A2F500420A6013F0040F02D00022024B1A6070476B6400403482FF1F084A137843F0010313701032137843F00103137002F64D32137843F0010313705F
:40590000704700BFA3430040014B1880704700BF044F0040014B1880704700BF064F0040014B1870704700BF034F004008B5194A137843F0020313700232137803F08F0369
:4059400043F010031370144B1A7802F0CF021A701A7842F030021A701A7802F0F0021A701A7842F00F021A707820FFF7CDFF0120FFF7D0FF0020FFF7D3FF084A137843F009
:405980000103137002F65E32137843F00103137008BD00BF004F00400B4F0040A343004008B5054B1B7823B9FFF7C0FF0122024B1A70FFF795FF08BD3882FF1F044A137895
:4059C00003F07F03C001C0B218431070704700BF20510040014B1870704700BF76640040044A137803F0FB03800000F0040018431070704750510040044A137803F0F70322
:405A0000C00000F0080018431070704750510040044A137803F0EF03000100F0100018431070704750510040044A137803F0DF03400100F020001843107070475051004097
:405A4000044A137803F0BF03800100F0400018431070704750510040024A137843F080031370704777640040014B1870704700BF88650040014B1878704700BF68650040BC
:405A8000014B1880704700BF0E6A0040024B1B78024B188880B27047076500408E6A0040014B188880B270478E6A0040014B1880704700BF4E6A0040014B1880704700BF81
:405AC0006E6A004008B501E0FFF7EAFFFFF7D2FF10F0400FF8D108BD08B5134B1A7802F0F8021A701A7802F0FC021A70FFF7EAFF4FF40040FFF7DAFF4FF40040FFF7C0FFD5
:405B00000020FFF7B1FFFFF7B5FF4FF40040FFF7D3FF00F069F9054A137843F01003137000F066F908BD00BF776400409865004008B5054B1B7823B9FFF7CEFF0122024BDB
:405B40001A70FFF789FF08BD3982FF1F024A137843F08003137070477B640040014B1870704700BF8F640040014B1878704700BF6F640040014B1880704700BF00680040B5
:405B8000024B1B78024B188880B270470064004080680040014B188880B2704780680040014B1880704700BF40680040014B1880704700BF6068004008B501E0FFF7EAFF45
:405BC000FFF7D2FF10F0400FF8D108BD08B5134B1A7802F0F8021A701A7802F0FC021A70FFF7EAFF4FF40040FFF7DAFF4FF40040FFF7C0FF0020FFF7B1FFFFF7B5FF4FF4B6
:405C00000040FFF7D3FF00F0EFF8054A137843F01003137000F0ECF808BD00BF7B6400409F64004008B5054B1B7823B9FFF7CEFF0122024B1A70FFF789FF08BD3A82FF1FD2
:405C4000084A137843F0080313701032137843F00803137002F67132137843F001031370704700BFA3430040084A137803F0FE031370A2F68132137803F0F70313701032A0
:405C8000137803F0F7031370704700BF244F0040014B1870704700BF274F0040014B1880704700BF284F0040014B1880704700BF2A4F004008B5164A137803F0010313707A
:405CC0000232137803F0FC031370124B1A7802F0CF021A701A7842F030021A701A7802F0F0021A701A7842F00F021A700A4A137843F00103137040F65F10FFF7CFFF40F61D
:405D00005F10FFF7D1FF0820FFF7C2FF08BD00BF244F00402F4F0040254F004008B5054B1B7823B9FFF7C6FF0122024B1A70FFF787FF08BD3B82FF1F014B1B685866704715
:405D400008ED00E04001C0B2014B1870704700BF09E400E04FF40072014B1A60704700BF00E100E04FF40072014B1A60704700BF80E100E010B50446FFF7F4FF2046FFF74C
:405D8000DBFF0720FFF7DEFFFFF7E4FF10BD00BF024B1878C0F3C000704700BF61510040024B1878C0F38000704700BF61510040024B1878C0F34000704700BF6151004042
:405DC000044A137803F0F703C00000F00800184310707047C05100400230800803D000BF01380046FCD17047EFF3108072B6704780F31088704700BF08B5164B1B7803F07D
:405E00000303012B02D0022B04D00FE0114B1B79DBB20CE00F4B1B7903F07F0303EB43039A000D4B1A44937ADBB200E00023022B0CD80A4A1268D35C022B04D0032B07D16C
:405E4000FEF78CFB08BDFDF765FF08BD002008BD002008BD006000401C83FF1FF482FF1F2DE9F04F8DB006460F4614461D4600F08FF9DFF81093CDE9000199F90080B8F1B5
:405E8000FF3F46D022462B462046294601F014FD834600283DD132463B463046394601F00BFD8246002874D1304639460022002301F0D0FC002833D0002200232046294687
:405EC00001F0C8FC8346B8B1A94A012300200021CDF828A0CDE90467CDE90645CDE9080103920293B8F1000F6CD0A24B0022104619460DB0BDE8F08F2046294600F072FFFC
:405F000038B1002200232046294601F0ADFC00286AD1DDE90023104619460DB0BDE8F08FDDE9000100F05EFF804600287DD0DDE900014FF0000A4FF0000B52465B4601F00F
:405F400089FC0028E5D03046394600F04BFF0028DFD02046294600F045FF0028D9D099F90030834804210022022BCDE90467CDE90645CDE908AB039002910A9204D002A813
:405F800000F036FF002847D101F0A2FF2223036042E0002200232046294601F05BFC0028B7D0744B724800220121B8F1020FCDF828B0CDE90467CDE90645CDE90823039065
:405FC0000291A8D002A800F013FF00287ED00A9B43B301F07DFFDDE908230A990160104619460DB0BDE8F08F614999F900300122CDF828B0CDE90467CDE90645039102926B
:40600000002B68D05C490020022BCDE9080166D101F05EFF212303600A9B1BB101F058FF0A9B0360DDE9082375E73046394600F0D9FE00283FF47BAF2046294600F0D2FE3C
:4060400000283FF474AFDDE900231046194601F033FC00286FD1464B99F90080039303230A90CDE90467CDE906450293B8F1000F3BD1DFF814B14FF0604A002200233046C8
:406080003946CDE908AB01F0EFFB00283FF477AF00223A4B2046294601F074F904460D4600F0AEFE02460B462046294601F0D2FB00283DD1324B4FF06042CDE9082399F956
:4060C0000080B8F1020F7FF45AAF5DE701F000FF212303607BE700230024CDE9083402A800F086FE002897D192E7DFF8A0B04FF0000A0022002330463946CDE908AB01F049
:40610000B3FB0028DDD000221C4B2046294601F039F904460D4600F073FE02460B462046294601F097FB18B9134B0022CDE9082399F90080C5E70E4A99F900900123CDF819
:406140002880CDE90467CDE9064503920293B9F1000FC0D0002200231046194601F03CFAB9F1020FCDE908013FF452AFB7E700BF60A100000000F03F0000F0FF0000E03F78
:40618000FFFFEFC72681FF1FFFFFEF470000F07F2DE9F04F23F0004858EA020993B03CD0714C21F00046A64283460D460CDD06F1404606F5801656EA0B0038D183466B4997
:4061C000584613B0BDE8F08F9A4696462BD0A045EDDC654CA04578D0002D0F468146CDE9002376DB0024BEF1000F27D15E4B984500F08B805D4B984552D0BAF1804F00F0F8
:40620000C9835B4B9A4519D1002D17DB4846394613B0BDE8F04F00F01DBDCB465846534913B0BDE8F08F0028C1D1B045D1DD514813B0BDE8F04F00F0DDBD0024484639467C
:4062400000F0CCFDBBF1000F1CD0ED0F013D54EA050370D0484B984540F3948003F10473984540F30D84454B9E4270DDBAF1000F70DD3BA3D3E900231046194601F082F89A
:4062800083469DE726B1394B25F040429A42DCD1BAF1000FC0F2B783002D08DB83468FE7BAF1000FC0F25E84CB46394688E706F1404606F5801656EA040300F08384012C5B
:4062C000ECD101F1004183467AE7BEF1000F83D06DE72B4B98452CDCA3F15473984581DD4FEA2853A3F2FF33142B40F35384C3F134032EFA03F202FA03F39E457FF472AFF9
:4063000002F00102C2F102046DE706F1404303F5801353EA0B0300F03A83184B9E4240F36783BAF1000F15DBDDE900349B46214646E7022457E74A4648463B46394600F073
:406340006DFE02460B4601F047F9834638E7BAF1000F8EDB4FF0000B594631E7AFF300809C7500883CE4377E0000F07F0000F03F0000E03F4C8800000000E041FFFFEF3F6E
:40638000FFFF3F43B6F5801F4FF0000205DAD04B00F0F8FF0E466FF03402DFF844E33315C6F31306A3F2FF3346F07F57764503EB020A47F4401740F3C983C64B00229E4244
:4063C00040F304840023CDE90823CDE90C23C24B0022CDE906230AF1010AA7F5801700263946DDE90623CDE90A0100F017FEDDE9062380468946DDE90A0100F011FE0246BC
:406400000B460020B44901F0E7F80A4601461346CDE90E1202464946404600F0B3FF8C4683467B1043F0005303F5002399190020CDE904BC06460F464FF0000B614658461A
:4064400032463B46CDE910BCCDE9020100F09AFF02460B464046494600F0E0FDDDE90623804689463046394600F0D8FD02460B46DDE90A0100F0D2FDDDE9022300F082FF21
:4064800002460B464046494600F0C8FDDDE90E2300F078FFDDE90478CDE906013A4643463846414600F06EFF77A3D3E9002306460F4600F067FF76A3D3E9002300F0B0FD2C
:4064C00032463B4600F05EFF73A3D3E9002300F0A7FD32463B4600F055FF71A3D3E9002300F09EFD32463B4600F04CFF6EA3D3E9002300F095FD32463B4600F043FF6CA332
:40650000D3E9002300F08CFD3246804689463B463046394600F036FF02460B464046494600F030FFDDE9022306460F46DDE9040100F076FDDDE9062300F024FF32463B46D9
:4065400000F06EFDDDE902678046894632463B463046394600F016FF0022604BCDE90A0100F05EFD42464B4600F05AFDDDE910BC0F46DDE902015A463B46CDE90EBC5E46DB
:4065800000F000FF0022CDE90201544B3046394600F044FDDDE90A2300F040FD02460B464046494600F03AFDDDE9042300F0EAFE324680468946DDE906013B4600F0E2FE67
:4065C00002460B464046494600F02AFD8046894602460B46DDE9020100F022FDDDE90EBC35A3D3E900235846CDE906BC5E460F4600F0C8FEDDE90223CDE904013046394629
:4066000000F00CFD02460B464046494600F006FD2BA3D3E9002300F0B5FE2BA3D3E90023804689463046394600F0ACFE02460B464046494600F0F4FCDDE90C2300F0F0FC40
:4066400080465046894600F037FE06460F46DDE9040142464B4600F0E3FCDDE9082300F0DFFC32463B4600F0DBFCDDE906BC324658463B46DA468B4600F0D0FCDDE908233D
:4066800030E000BFAFF30080EF4E454A287ECA3F65DBC9934A86CD3F01411DA96074D13F4D268F515555D53FFFAB6FDBB66DDB3F033333333333E33F000000E009C7EE3FC7
:4066C000FD033ADC09C7EE3FF5015B14E02F3EBE0000404379B60B000000F03F000008408E98030000F09AFCDDE9042300F096FC02460B464046494600F090FC8046894606
:40670000DDE90012013C54EA050314BFD64CD74C0023CDE904340B461446CDE9023400230293DDE9024508462B461146224600F075FC52465B4600F025FEDDE90023064619
:406740000F464046494600F01DFE02460B463046394600F065FC06460F4622462B4650465946CDE9006700F00DFE0B460246804689463046394600F053FCBD4B064699426D
:406780000D460C4640F30E8101F13F4303F5E003034340F0F081A0A3D3E90023DDE9000100F03EFC424682468B464B463046294600F034FC02460B465046594601F072F849
:4067C000002840F0D8812F463B154FF48012A3F2FE3342FA03F32344C3F30A52A54EA2F2FF321641C3F3130B0020C2F1140523EA06014BF4801B02460B46002C4BFA05FB16
:4068000040464946B8BFCBF1000B00F007FC02460B4680468946DDE9000100F001FC4FEA0B5A00247EA3D3E9002320460D4600F0A9FD424606460F464B462046294600F0A0
:40684000EDFB02460B46DDE9000100F0E7FB76A3D3E9002300F096FD75A3D3E90023804689462046294600F08DFD02460B464046494600F0D5FB8046894602460B46304696
:40688000394600F0CDFB32463B4604460D4600F0C5FB02460B464046494600F0BFFB2246804689462B462046294600F06BFD62A3D3E9002306460F4600F064FD60A3D3E9D3
:4068C000002300F0ABFB32463B4600F05BFD5EA3D3E9002300F0A4FB32463B4600F052FD5BA3D3E9002300F099FB32463B4600F049FD59A3D3E9002300F092FB32463B4616
:4069000000F040FD02460B462046294600F086FB06460F4602460B462046294600F032FD0022CDE900014FF080433046394600F075FB02460B46DDE9000100F04DFE4246CA
:4069400006460F464B462046294600F01BFD42464B4600F065FB02460B463046394600F05DFB22462B4600F059FB02460B4600203D4900F053FB8A44BAF5801FC0F23781A9
:406980005146DDE9042300F0FDFC834618E4F346354915E44A4648463B46394600F0F2FC83460DE4344B21F000479F4240F30181324B0B4403430CD142464B4600F02EFBB1
:4069C00002460B46DDE9000100F058FF00283FF4FBAE23A3D3E90023DDE9040100F0D2FC1FA3D3E9002300F0CDFC8346FFF7E8BBBAF1000FBFF6AEACDDE900349B4604F169
:406A00000041FFF7DDBB02460B460020164900F0E3FD41E4AFF30080FE822B654715973C00000000432EE63FEF39FAFE422EE63F396CA80C615C20BED0A4BE726937663EF2
:406A4000F16BD2C541BDBB3E2CDE25AF6A56113F93BDBE166CC1663F3E5555555555C53F59F3F8C21F6EA5010000F03F0000F0BFFFFF8F40FFFF0F00FFCB904000346F3FF0
:406A80006F4B9E427FF763AC6E4B9E423FF7EEAB00226C4B00F0C2FA5BA3D3E9002306460F4600F06FFC5AA3D3E90023804689463046394600F066FC002282468B46624BD1
:406AC0003046394600F05EFC02460B4652A1D1E9000100F0A3FA32463B4600F053FC02460B460020594900F099FA3246CDE902013B463046394600F045FC02460B46DDE936
:406B0000020100F03FFC46A3D3E9002300F03AFC02460B465046594600F080FA02460B4606460F464046494600F07AFA42464B46002082468B4600F071FA02460B46304612
:406B4000394600F06BFA80468946D9E500220023CDE90823CDE90C233A4B00220026CDE906233DE44A463B460020364900F034FD8346FFF725BB2CA3D3E90023DDE904012D
:406B800000F000FC28A3D3E9002300F0FBFB8346FFF716BBBEF1000F7FF44FABC3F1140348FA03F202FA03F3984524D07446FFF721BB264B9F423FF707AEDDE902349A4634
:406BC0009B462EE602460B46FFF7B9BB204B4FF48026CDE9062316A3D3E90023CDE9082315A3D3E90023CDE90C23FFF7F9BB5A4600F096F9C5E602F00102C2F10204FFF75D
:406C0000F9BA00BFAFF30080000000604715F73F44DF5DF80BAE543E555555555555D53FFE822B654715F73F9C7500883CE4377E0000004003B8E23F06D0CF43EBFD4C3E73
:406C4000FEFFEF3F0000F03F0000D03F0000E03F0000F83F2DE9F0415F4E0C46B6460E407645054600F0988000290B46024674DD5FEA215E7FD0AEF2FF3EC3F313031EF0D6
:406C8000010F43F4801363D100273E4603EBD2710B444FEA6E0E520016204FF4001174189C424FEAD2754FEA420202DC1B1B66180F44013805EB43034FEA5101EFD184463A
:406CC00020244FF0004109E020D003EBD275013C4FEA51012B444FEA420220D09E4201EB0C05F1DA002D05EB010C09DBB0469542A3EB060300D9013B4646521B0844E4E7DF
:406D0000BCF1000FF2DB06F10108F0E7954217D8002D05EB010C49DB98460023ECE7134310D140087B1003F17F5303F50013FA0703EB0E57394648BF40F00040BDE8F081D0
:406D40003346C2E7411C35D000F001031844E8E75B0003EBD273520096E721F000460643ECD079BB8E46D30AAEF1150E5205002BF9D0DD0221D4002100E001465B00DC0270
:406D800001F10100F9D5C0F1200422FA04F42343C1EB0E0E82406EE702460B4600F0F2FA2A46234600F03CF9BDE8F081BCF1000FA9DAB1E701372046B4E720244FF0FF3198
:406DC0000020E2E702460B4600F028F902460B4600F002FCB2E700BF0000F07F21F00041704700BF41F0004101F58010C00F70470020704700200149704700BF0000F87F3E
:406E0000F0B5C1F30A5EAEF2FF36132E83B002460B460C464FEAD17507462EDC002E49DB3D49314103EA010010432BD049080B4053EA02070CD04FF48023132E24EA01010C
:406E400043FA06F444EA01040CBF4FF000470027324B214603EBC505D5E90045384622462B4600F0DDF8CDE90001DDE9000122462B4600F0D3F803B0F0BD332E06DDB6F514
:406E8000806F45D01046194603B0F0BDAEF2134E4FF0FF3121FA0EF10842F3D049080842D6D04FF0804320EA010143FA0EFE4EEA0107CDE721F0004101431946E4D0C3F337
:406EC000130343EA000CCCF1000343EA0C0C134B640C4FEA1C3C0CF4002C03EBC5036404D3E900674CEA040132463B4600F098F8CDE90001DDE9000132463B4600F08EF8D1
:406F0000024621F0004141EAC57310461946BBE700F086F8B8E700BFFFFF0F0068A10000F8B5C1F30A5604460D460B46174606BB21F00043034325D000222F4B00F022FA17
:406F40002E4A044697420D460B462ADBC1F30A56363E40F2FE723E44964228DC002E12DD23F0FF4323F4E00343EA065520462946F8BD40F2FF729642EBD102460B4600F007
:406F80004FF8F8BDF8BD16F1350F1DDA4CF250339F420CDC14A1D1E9000122462B4600F031F811A3D3E9002300F0ECF9F8BD22460FA1D1E900012B4600F024F80CA3D3E91A
:406FC000002300F0DFF9F8BD23F0FF4323F4E003363643EA0655204629460022084B00F0D1F9F8BDAFF3008059F3F8C21F6EA5019C7500883CE4377E00005043B03CFFFFAF
:407000000000903C03F0004321F0004242EA0301704700BF81F0004102E000BF83F0004330B54FEA41044FEA430594EA050F08BF90EA020F1FBF54EA000C55EA020C7FEAA6
:40704000645C7FEA655C00F0E2804FEA5454D4EB5555B8BF6D420CDD2C4480EA020281EA030382EA000083EA010180EA020281EA0303362D88BF30BD11F0004F4FEA013120
:407080004FF4801C4CEA113102D0404261EB410113F0004F4FEA03334CEA133302D0524263EB430394EA050F00F0A780A4F10104D5F1200E0DDB02FA0EFC22FA05F2801890
:4070C00041F1000103FA0EF2801843FA05F359410EE0A5F120050EF1200E012A03FA0EFC28BF4CF0020C43FA05F3C01851EBE37101F0004507D54FF0000EDCF1000C7EEB82
:4071000000006EEB0101B1F5801F1BD3B1F5001F0CD349085FEA30004FEA3C0C04F101044FEA445212F5800F80F09A80BCF1004F08BF5FEA500C50F1000041EB045141EA94
:40714000050130BD5FEA4C0C404141EB010111F4801FA4F10104E9D191F0000F04BF01460020B1FA81F308BF2033A3F10B03B3F120020CDA0C3208DD02F1140CC2F10C029C
:4071800001FA0CF021FA02F10CE002F11402D8BFC2F1200C01FA02F120FA0CFCDCBF41EA0C019040E41AA2BF01EB0451294330BD6FEA04041F3C1CDA0C340EDC04F11404CA
:4071C000C4F1200220FA04F001FA02F340EA030021FA04F345EA030130BDC4F10C04C4F1200220FA02F001FA04F340EA0300294630BD21FA04F0294630BD94F0000F83F4C3
:40720000801306BF81F480110134013D4EE77FEA645C18BF7FEA655C29D094EA050F08BF90EA020F05D054EA000C04BF1946104630BD91EA030F1EBF0021002030BD5FEADC
