:400000000080002011000000192C0000192C000080B500AF024A034B1B68136002F02EFEBC760040FA46004010B5054C237833B9044B13B10448AFF300800123237010BD5F
:400040009881FF1F000000007C840000084B10B51BB108490848AFF300800848036803B910BD074B002BFBD0BDE81040184700BF000000009C81FF1F7C840000C880FF1F62
:400080000000000080B500AF62B601F071F806F071F806F087F801F013F806F059FC104801F07AFC01F006FC02F0A2FF01F074FE01F020FC04F076F80346002B0CD0094817
:4000C00004F082F803461A46074B1A80064B1B88012B01D901F0C4F8044801F05DFCE7E7808400004082FF1F8482FF1FA084000080B582B000AF814801F04EFC804B0022BF
:400100001A6001F071FE7F4B00221A607E4B00221A607D4B1B687B607C4B00221A607C4B1B78002B00F0B4804821582001F0BEFF0346002B40F0A480002001F037F8002031
:4001400006F036F80346182B3BDC7249012002F02FF90BE0002006F02BF80346192B05DD642003F0EFFAB82002F0FAF802F02CFE0346002BEED0642003F0E4FA01F03EF849
:40018000002006F015F80346182B1ADC5E4B1B687A68D31A002BB8BF5B42B3F57A6F08DD574B03221A605C4801F0F6FB01F034FC07E0534B01221A60584801F0EDFB01F076
:4001C0002BFCC82003F0BEFA4F4B1B687B60002005F0EEFF0346192B62DD514802F094F803461946072002F0CDF84FF4FA41002002F0DEF818E0002005F0DAFF0346182B0A
:4002000012DC404B00221A603F4B00221A6006F09DFC06F07FFC002006F0DCFC3B4B00221A60B82002F09CF802F0CEFD0346002BE1D0642003F086FA00F0E0FF002005F058
:40024000B7FF0346192B2BDD2F4B1B687A68D31A002BB8BF5B42B3F57A6F08DD284B03221A60304801F098FB01F0D6FB18E0244B01221A602C4801F08FFB01F0CDFB0FE047
:400280004821582001F012FF02461D4B1A6007E01B4B0C221A60254801F07EFB01F0BCFB174B1B68002B12D1164B00221A60002006F090FC154B00221A60134B00221A6035
:4002C0001B4B01221A701B4801F066FB07E0184B00221A70184801F05FFB01F09DFB01F03DFF06F053FC03465B42084A1360044B1B6818460837BD4680BD00BFC484000039
:40030000B481FF1FB881FF1FDC81FF1FFC81FF1FF581FF1F00350C00E08400000885000000004842308500005885000080850000F481FF1FAC850000C085000080B582B0A6
:4003400000AF7A4801F028FB794B00221A6001F0C1FD784B00221A60774B00221A60764B1B687B60754B00221A604821592001F09DFE0346002B40F0A480002000F02AFF42
:40038000012005F015FF0346182B3BDC6C49002002F00EF80BE0012005F00AFF0346192B05DD642003F0CEF9B82001F0D9FF02F047FD0346002BEED0642003F0C3F900F0C0
:4003C0001DFF012005F0F4FE0346182B1ADC5A4B1B687A68D31A002BB8BF5B42B3F57A6F08DD534B09221A60564801F0D5FA01F013FB07E04E4B07221A60534801F0CCFA96
:4004000001F00AFBC82003F09DF94B4B1B687B60012005F0CDFE0346192B59DD4B4801F073FF03461946072001F0ACFF4FF4FA41012001F0BDFF18E0012005F0B9FE034602
:40044000182B12DC3B4B00221A603B4B00221A6006F07CFB06F05EFB002006F0BBFB374B00221A60B82001F07BFF02F0E9FC0346002BE1D0642003F065F900F0BFFE01207F
:4004800005F096FE0346192B22DD2B4B1B687A68D31A002BB8BF5B42B3F57A6F08DD244B09221A602A4801F077FA01F0B5FA0FE01F4B07221A60274801F06EFA01F0ACFAC7
:4004C00006E04821592001F0F1FD0246184B1A60174B1B68002B12D1164B00221A60002006F078FB154B00221A60134B00221A60194B01221A70194801F04EFA07E0164BCE
:4005000000221A70164801F047FA01F085FA01F025FE06F03BFB03465B42084A1360044B1B6818460837BD4680BD00BFE0850000B481FF1FBC81FF1FE081FF1F0082FF1F84
:4005400000530700FC85000024860000000048424C86000074860000F581FF1F9C860000B086000080B582B000AF754801F014FA744B00221A6001F023FD06F03FF806F053
:4005800021F8714B00221A60704B00221A606F4B1B683B6000237B6048215A2001F086FD0346002B40F0A080022005F001FE0346182B42DC6649002001F0FAFE10E00220F8
:4005C00005F0F6FD0346192B0ADD7B68002B07D1642003F0B7F8B82001F0C2FE01237B6002F06CFC0346002BE9D0642003F0AAF800F004FE022005F0DBFD0346182B1ADC08
:40060000524B1B683A68D31A002BB8BF5B42B3F57A6F08DD4B4B0F221A604E4801F0BCF901F0FAF907E0474B0D221A604A4801F0B3F901F0F1F900237B60C82003F082F876
:40064000424B1B683B60022005F0B2FD0346192B51DD424801F058FE03461946072001F091FE4FF47A41012001F0A2FE10E0022005F09EFD0346182B0ADC7B68002B07D184
:40068000002005F0FFFFB82001F06AFE01237B6002F014FC0346002BE9D0642003F052F800F0ACFD022005F083FD0346192B22DD264B1B683A68D31A002BB8BF5B42B3F5E1
:4006C0007A6F08DD1F4B0F221A60254801F064F901F0A2F90FE01B4B0D221A60214801F05BF901F099F906E048215A2001F0DEFC0246144B1A60134B1B68002B0FD1124BA3
:4007000000221A60002005F0BDFF104B00221A60154B01221A70154801F03EF907E0124B00221A70124801F037F901F075F901F015FD044B1B6818460837BD4680BD00BF88
:40074000D0860000B481FF1FC081FF1FE481FF1F00A60E00EC860000148700000000C8423C87000064870000F681FF1F8C870000A087000080B582B000AF7860644B1B6886
:400780005B42184600F012FD624B00221A60624801F002F9786801F021F9604801F0FCF87B685F4A934200F39E8001F01DFB4721582001F07BFC0346002B40F08C8000F085
:4007C0002DFC0346002B00F09680564B00221A6068E000F013FD544B1B687A68D31A534A1360504B1B68184600F096FA0346002B5FD04E4B1B68002B05DD4C4B1B6819468F
:40080000002001F0D5FD494B1B68002B17DA474B1B685B421946012001F0CAFD0FE04721582001F043FC00F0E9FC3F4B1B68404A934204DD01F0B0FA3E4801F0ADF802F0EE
:40084000C3FA0346002BEAD000F0D8FC364B1B68184601F0C3F8344B1B687A68D31A002BB8BF5B42B3F57A6F07DD2A4B02221A6001F0D2F8304801F08FF8304A7B681360A8
:40088000294B1B687A68D31A002BB8BF5B42092B10DD204B1B68002B0CD1224B1B680133204A13601F4B1A68254B1B689A4290DB00E000BF234801F06FF8234801F06CF8D3
:4008C000194B1B687A68D31A184601F087F81D4801F062F80FE047215A2001F0E7FB02460C4B1A6007E00B4B05221A60174801F053F801F091F80C4B1B68054A136001F087
:400900002DFC044B1B6818460837BD4680BD00BFFC81FF1FB481FF1FC0870000DC87000010EB0900E881FF1FDC81FF1FD081FF1F74EB0900E48700000C880000B881FF1F55
:40094000DC80FF1F488800004C8800005888000080B582B000AF7860694B1B685B42184600F038FC674B00221A60674801F014F8786801F033F8654801F00EF87B68644A0A
:40098000934200F3A88001F0A5FA4721592001F08DFB0346002B40F0968000F03FFB0346002B00F0A0805B4B00221A6072E000F025FC594B1B687A68D31A584A1360554BA5
:4009C0001B68184600F036FA0346002B69D0534B1B68002B05DD514B1B681946012001F0E7FC4E4B1B68002B17DA4C4B1B685B421946002001F0DCFC0FE04721592001F0B0
:400A000055FB00F0FBFB444B1B68454A934204DD01F0C2F9434800F0BFFF02F011FA0346002BEAD000F0EAFB3B4B1B68184600F0D5FF394B1B687A68D31A002BB8BF5B4204
:400A4000B3F57A6F07DD2F4B08221A60364800F0A3FF00F0E1FF354A7B6813602E4B1B687A68D31A002BB8BF5B42092B1ADD254B1B68002B16D1284B1B687A68D31A002B04
:400A8000B8BF5B42B3F57A6F0CDC224B1B680133204A13601F4B1A68254B1B689A4286DB00E000BF234800F077FF234800F074FF194B1B687A68D31A184600F08FFF1D4857
:400AC00000F06AFF0FE04721592001F0EFFA02460C4B1A6007E00B4B0B221A60174800F05BFF00F099FF01F039FB0B4B1B68044A1360044B1B6818460837BD4680BD00BF98
:400B00000082FF1FB481FF1F90880000DC870000A0680600EC81FF1FE081FF1FD481FF1F04690600AC880000D4880000BC81FF1FE080FF1F48880000108900001C890000D2
:400B400080B582B000AF7860664B00221A60664800F022FF786800F041FF644800F01CFF00F04CFB7B684DF6C022934200F3A98001F026FA47215A2001F098FA0346002B9A
:400B800040F0978000F04AFA0346002B00F0A180574B00221A6073E000F030FB554B1B687A68D31A544A1360514B1B68184600F0CBF90346002B6AD04F4B1B68002B05DD7D
:400BC0004D4B1B681946012001F0F2FB4A4B1B68002B18DA484B1B685B421946002001F0E7FB10E047215A2001F060FA00F006FB404B1B684DF62432934204DD01F0CCF822
:400C00003E4800F0C9FE02F059F90346002BE9D000F0F4FA374B1B68184600F0DFFE354B1B687A68D31A002BB8BF5B42B3F57A6F07DD2C4B0E221A60314800F0ADFE00F04D
:400C4000EBFE304A7B6813602A4B1B687A68D31A002BB8BF5B42042B1ADD224B1B68002B16D1244B1B687A68D31A002BB8BF5B42B3F57A6F0CDC1E4B1B6801331C4A13601B
:400C80001B4B1A68204B1B689A4285DB00E000BF1E4800F081FE1E4800F07EFE154B1B687A68D31A184600F099FE184800F074FE0FE047215A2001F0F9F90246094B1A60B9
:400CC00007E0084B11221A60124800F065FE00F0A3FE01F043FA034B1B6818460837BD4680BD00BFB481FF1F54890000DC870000F081FF1FE481FF1FD881FF1F708900001F
:400D000098890000C081FF1FE480FF1F48880000D4890000E089000080B582B000AF786000F06CFA364B1B6813F5FA6F5ADD354B1B68B3F57A6F02DB7B68002B5CD1304B04
:400D40001A68314B1B68D31A002BB8BF5B42B3F57A6F03DD2C4B1B68002B4DD12B4B1B682B4A934234DC294B1B68002B30DB294B1B6844F61F62934201DC01233CE0204B83
:400D80001B68254A934209DD204B1B68224A934204DD1E4B1B68214A93420DDD184B1B681F4A93420ADC194B1B68002B06DB174B1B681B4A934201DC01231DE0194B0522BB
:400DC0001A60194800F0E8FD00F026FE002313E0144B05221A60154800F0DEFD00F01CFE002309E00F4B02221A60114800F0D4FD00F012FE0023FFE718460837BD4680BDE3
:400E0000DC81FF1FD081FF1FB881FF1FC481FF1F0FEB0900E081FF1F90B2080010EB0900EF490200B481FF1F188A00004C8A0000808A000080B582B000AF786000F0DEF97A
:400E4000324B1B6813F5FA6F52DD314B1B68B3F57A6F02DB7B68002B40D12C4B1A682D4B1B68D31A184606F0B7F94FF000022A4B06F094FC0346002B03D1264B1B68002BBE
:400E80002CD1264B1B68264A934208DC254B1B68254A934203DC234B1B68002B12DA1F4B1B68224A93420FDC1C4B1B68204A93420ADD1C4B1B681F4A934205DC194B1B68E1
:400EC000002B01DB01231CE01B4B0B221A601B4800F062FD00F0A0FD002312E0164B08221A60174800F058FD00F096FD002308E0114B08221A60134800F04EFD00F08CFD24
:400F0000002318460837BD4680BD00BFE081FF1FD481FF1FBC81FF1F0040AF40DC81FF1FEF490200C881FF1F3F7E05000FEB090090B208009F680600B481FF1FAC8A0000B5
:400F4000E08A0000088B000080B582B000AF786000F054F9294B1B6813F5FA6F41DD284B1B684DF6BF22934231DC254B1B68002B2DDB224B1B6813F57A7F28DD1F4B1B68BE
:400F80004DF6BF22934222DC1E4B1B68B3F57A6F02DB7B68002B10D1184B1A681A4B1B68D31A002BB8BF5B42B3F57A6F03DD164B1B68002B01D101231CE0144B11221A607A
:400FC000134800F0E9FC00F027FD002312E00F4B11221A600F4800F0DFFC00F01DFD002308E00A4B0E221A600B4800F0D5FC00F013FD002318460837BD4680BDE481FF1FC4
:40100000CC81FF1FD881FF1FC081FF1FB481FF1F348B0000688B00009C8B000080B500AF204B1B7883F00103DBB2002B0DD01E4B1B68002B09D11C4B0C221A601B4800F002
:40104000ABFC00F0E9FC00232AE0194B1B7883F00103DBB2002B0DD0134B1B68002B09D1114B06221A60134800F096FC00F0D4FC002315E0104B1B7883F00103DBB2002B0E
:401080000DD0094B1B68002B09D1074B12221A600A4800F081FC00F0BFFC002300E00123184680BDF581FF1FB481FF1FC88B0000F481FF1FF48B0000F681FF1F1C8C0000C2
:4010C00080B500AF04F0B8FE022004F059FF00BF80BD00BF0000000098B500AF1E4BDB781B021D4A927813441A461C4B1A601B4B1B68184606F070F815A3D3E9002306F029
:40110000D1F803460C46184621464FF00002144B06F0F2F903460C461846214606F084FB03469BB2184604F02BFF0E4800F034FC0A4B1B68184600F051FC0B4800F02CFCCA
:401140000A4800F029FC0023184698BDAFF30080333333333333E33F4082FF1F0482FF1F00002440448C0000488800005C8C000080B500AF0A4B00221A600A4B00221A6086
:40118000094B00221A6005F0C5FC05F01BFA002000F00CF8002000F01DF800BF80BD00BFDC81FF1FE081FF1FE481FF1F80B582B000AF7860064B00221A60786805F00AFD57
:4011C000002005F05FFC00BF0837BD4680BD00BFF881FF1F80B582B000AF7860786805F0F9FC012005F04EFC034B01221A6000BF0837BD4680BD00BFF881FF1F80B500AF70
:40120000114B1B68002B09D105F0C0FC03465B420E4A13600E4B1B680E4A13600A4B1B68012B09D10C4B1B68084A136005F0AEFC03465B42074A136005F000FA03465B4226
:40124000064A136000BF80BDF881FF1FDC81FF1F0082FF1FE081FF1FFC81FF1FE481FF1F80B500AF012005F05BF9804B00221A607F4B5B781B027E4A127813447D4A13600E
:401280007C4B1B687A2B0AD1FEF732FF0246774B1A60764B1B68184600F0FCF8E1E0754B1B687B2B0AD1FFF749F802466F4B1A606E4B1B68184600F0EDF8D2E06D4B1B68A0
:4012C0007C2B0AD1FFF74EF90246684B1A60674B1B68184600F0DEF8C3E0664B1B68B3F5F46F1DD1624B5B791A06614B1B791B041A445F4BDB781B0213445D4A92781344BA
:401300005D4A13605C4B1B681846FFF733FA0246564B1A60554B1B68184600F0BBF8A0E0544B1B68B3F5F66F1DD1514B5B791A064F4B1B791B041A444D4BDB781B0213442A
:401340004B4A927813444D4A13604C4B1B681846FFF7FEFA0246454B1A60444B1B68184600F098F87DE0434B1B68B3F5FA6F1DD13F4B5B791A063E4B1B791B041A443C4BB9
:40138000DB781B0213443A4A927813443C4A13603B4B1B681846FFF7D3FB0246334B1A60324B1B68184600F075F85AE0314B1B68B3F5F44F0AD1FFF78FFE642002F0C2F9AF
:4013C0002A4B1B68184600F065F84AE0294B1B68FF2B13D12B4800F0DFFA2B4800F0DCFA4FF4FA7002F0AEF9002000F053F84FF4FA7002F0A7F902F095F932E01D4B1B6849
:40140000B3F5F64F07D100F0FDFE184B1B68184600F040F825E0174B1B68B3F5F84F07D100F0A4FE114B1B68184600F033F818E0104B1B68FE2B09D1144800F0ADFA0A20FF
:4014400002F080F9002000F025F80AE0074B13221A600F4800F0A0FA00F0DEFA132000F019F8002005F05CF800BF80BDB481FF1F4082FF1FC482FF1FC481FF1FC881FF1F46
:40148000CC81FF1F7C8C0000488800009C8C0000BC8C000080B582B000AF78606D4B00221A706C4B00225A706A4B00229A70694B0022DA70FFF7A2FE7B68002B06D1654B58
:4014C00000229A70634B0022DA70CCE0614B0F221A70604B0F225A707B68013B142B00F2C28001A252F823F03D1500004B150000591500006715000075150000831500009D
:40150000911500009F150000AD150000BB150000C9150000D7150000E5150000F3150000011600000F1600001D1600002B160000391600004716000059160000454B012275
:401540009A70444BFA22DA708DE0424B02229A70404BFA22DA7086E03E4B17229A703D4BFA22DA707FE03B4B07229A70394BFA22DA7078E0374B11229A70364BFA22DA7033
:4015800071E0344B1D229A70324BFA22DA706AE0304B03229A702F4BFA22DA7063E02D4B04229A702B4BFA22DA705CE0294B18229A70284BFA22DA7055E0264B08229A70ED
:4015C000244BFA22DA704EE0224B12229A70214BFA22DA7047E01F4B1E229A701D4BFA22DA7040E01B4B05229A701A4BFA22DA7039E0184B06229A70164BFA22DA7032E0B9
:40160000144B19229A70134BFA22DA702BE0114B09229A700F4BFA22DA7024E00D4B13229A700C4BFA22DA701DE00A4B1F229A70084BFA22DA7016E0064B22229A70054B53
:40164000FA22DA700FE0034B23229A70014BFA22DA7008E08882FF1F8A4B24229A70894BFA22DA7000BF884B1B685AB2854B1A71854B1B681B125AB2824B5A71824B1B6867
:401680001B145AB27F4B9A717F4B1B681B165AB27C4BDA717D4B1B685AB27A4B1A727B4B1B681B125AB2774B5A72784B1B681B145AB2744B9A72754B1B681B165AB2714B3E
:4016C000DA72734B1B685AB26E4B1A73704B1B681B125AB26B4B5A736D4B1B681B145AB2684B9A736A4B1B681B165AB2654BDA73644B00221A74634B00225A74614B00229E
:401700009A74604B0022DA745E4B00221A755D4B00225A755B4B00229A755A4B0022DA75584B00221A76574B00225A76554B00229A76544B0022DA76564B1B685AB2514B08
:401740001A77544B1B681B125AB24E4B5A774D4B00229A774B4B0022DA774A4B002283F82020484B002283F82120464B002283F82220444B002283F82320474B1B685AB25C
:40178000404B83F82420444B1B681B0A5AB23D4B83F82520414B1B685AB23A4B83F826203E4B1B681B0A5AB2364B83F827203C4B1B685AB2334B83F82820394B1B681B0AF0
:4017C0005AB2304B83F829202E4B002283F82A202C4B002283F82B202A4B002283F82C20304B1B685AB2274B83F82D202E4B1B685AB2244B83F82E202C4B1B685AB2214B8B
:4018000083F82F201F4B002283F830201D4B002283F831201B4B002283F83220194B002283F83320174B002283F83420154B002283F83520134B002283F83620114B002214
:4018400083F837200F4B192283F838200D4B002283F83920134B00221A60134B00221A60124B00221A60124800F096F800F066F800F07EF83A21034802F060FC00BF083775
:40188000BD4680BD8882FF1FDC81FF1FE081FF1FE481FF1F0482FF1FD080FF1FD480FF1FD880FF1FE881FF1FEC81FF1FF081FF1FE48C000080B500AF0121002002F016F812
:4018C00005E00A4800F068F8012001F05DFF02F0D1F90346002BF4D002F0DCFB044800F05BF802F029FB00BF80BD00BF088D00002C8D000080B500AF02F0C8F90346002B7D
:4019000015D002F0B7F90346002B10D0094B1B78002B09D0084800F03FF800F07DF8012001F010FF01F0FEFE024B01221A7000BF80BD00BF0882FF1F408D000080B483B066
:4019400000AF00237B6000237B6007E0074A7B68134400221A707B6801337B607B68402BF4DD00BF0C37BD4680BC70474082FF1F80B592B000AF00237B6406E03B1D1846F1
:4019800002F022FC7B6C01337B647B6C042BF5DD00BF4837BD4680BD80B582B000AF786004F0C6FF0346002B12D10A2279680A4806F03CF90346002B0AD0786805F026F8EE
:4019C000012001F0E1FE0A227968034806F043F900BF0837BD4680BDE880FF1F80B588B000AF786004F0A4FF0346002B0ED107F10C037A680749184606F0F4F807F10C034A
:401A0000184605F003F8012001F0BEFE00BF2037BD4680BD6C8D000080B500AFA348FFF7BBFFA348FFF7B8FFA248FFF7B5FFA248FFF7B2FFA14B1B681846FFF7CFFF9D4889
:401A4000FFF7AAFF9E48FFF7A7FF9E4B1B681846FFF7C4FF9748FFF79FFF9B48FFF79CFF9A4B1B681846FFF7B9FF9248FFF794FF9748FFF791FF974B1B681846FFF7AEFF39
:401A80008C48FFF789FF9448FFF786FF934B1B681846FFF7A3FF8748FFF77EFF9048FFF77BFF904B1B681846FFF798FF8148FFF773FF8D48FFF770FF8C4B1B681846FFF73A
:401AC0008DFF7C48FFF768FF8948FFF765FF894B1B681846FFF782FF7648FFF75DFF8648FFF75AFF854B1B681846FFF777FF7148FFF752FF8248FFF74FFF824B1B681846DC
:401B0000FFF76CFF6B48FFF747FF7F48FFF744FF7E4B1B681846FFF761FF6648FFF73CFF7B48FFF739FF7B4B1B681846FFF756FF6048FFF731FF7848FFF72EFF774B1B689D
:401B40001846FFF74BFF5B48FFF726FF7448FFF723FF744B1B681846FFF740FF5548FFF71BFF7148FFF718FF704B1B681846FFF735FF5048FFF710FF6D48FFF70DFF6D4B1B
:401B80001B681846FFF72AFF4A48FFF705FF6A48FFF702FF694B1B681846FFF71FFF4548FFF7FAFE6648FFF7F7FE664B1B681846FFF714FF3F48FFF7EFFE6348FFF7ECFEA3
:401BC000624B1B681846FFF709FF3A48FFF7E4FE5F48FFF7E1FE5F4B1B681846FFF7FEFE3448FFF7D9FE5C48FFF7D6FE5B4B1B681846FFF7F3FE2F48FFF7CEFE5848FFF712
:401C0000CBFE584B1B681846FFF7E8FE2948FFF7C3FE5548FFF7C0FE544B1B781846FFF7DDFE2448FFF7B8FE5148FFF7B5FE514B1B781846FFF7D2FE1E48FFF7ADFE4E4857
:401C4000FFF7AAFE4D4B1B781846FFF7C7FE1948FFF7A2FE4A48FFF79FFE4A4B1B681846FFF7BCFE1348FFF797FE4748FFF794FE464B1B681846FFF7B1FE0E48FFF78CFE56
:401C80004348FFF789FE434B1B681846FFF7A6FE0848FFF781FE0648FFF77EFE0348FFF77BFE0248FFF778FE00BF80BD48880000748D0000A88D0000AC8D0000B881FF1F8C
:401CC000C08D0000BC81FF1FD48D0000C081FF1FE88D0000C481FF1F008E0000C881FF1F188E0000CC81FF1F308E0000D081FF1F448E0000D481FF1F588E0000D881FF1FCF
:401D00006C8E0000DC81FF1F808E0000E081FF1F948E0000E481FF1FA88E0000E881FF1FBC8E0000EC81FF1FD08E0000F081FF1FE48E00000482FF1F008F0000D080FF1F6A
:401D4000148F0000D480FF1F288F0000D880FF1F3C8F0000DC80FF1F588F0000E080FF1F748F0000E480FF1F908F0000F481FF1FA88F0000F581FF1FC08F0000F681FF1F91
:401D8000D88F0000F881FF1FEC8F0000FC81FF1F089000000082FF1F80B500AF012001F021F8012001F05CF8012001F097F8012001F0C8FC002001F015F8002001F050F874
:401DC000002001F08BF8012001F0BCFC012001F009F8012001F044F8012001F07FF8012001F0B0FC00BF80BD80B500AF002004F087FB1721162000F0C5FA344B1B681846EA
:401E000005F038FE0346184600F07EFA03461946072000F0B7FA2E4800F03EFA03461946152000F0AFFA40F2FF71052000F0AAFA40F2FF71062000F0A5FA0F21132000F0DF
:401E4000A1FA4FF4E051182000F09CFA3C21092000F098FA7F210A2000F094FA7F210B2000F090FA7F210C2000F08CFA05210E2000F088FA41F26B410D2000F083FAD3218B
:401E80000F2000F07FFAD321102000F07BFA00F0D5FA0E4B1B68184605F0ECFD0346184600F032FA03461946072000F06BFA012001F06AFCB02000F053FA00BF00F084FF8C
:401EC0000346002BFAD000BF80BD00BFD080FF1F00007A4480B500AF012004F011FB1721162000F04FFA344B1B68184605F0C2FD0346184600F008FA03461946072000F0A5
:401F000041FA2E4800F0C8F903461946152000F039FA40F2FF71052000F034FA40F2FF71062000F02FFA0F21132000F02BFA4FF4E051182000F026FA3C21092000F022FAB3
:401F40007F210A2000F01EFA7F210B2000F01AFA7F210C2000F016FA05210E2000F012FA41F26B410D2000F00DFAD3210F2000F009FAD321102000F005FA00F05FFA0E4BD6
:401F80001B68184605F076FD0346184600F0BCF903461946072000F0F5F9012001F0F4FBB02000F0DDF900BF00F04AFF0346002BFAD000BF80BD00BFD480FF1F00007A4427
:401FC00080B500AF022004F09BFA1721162000F0D9F9344B1B68184605F04CFD0346184600F092F903461946072000F0CBF92E4800F052F903461946152000F0C3F940F273
:40200000FF71052000F0BEF940F2FF71062000F0B9F90F21132000F0B5F94FF4E051182000F0B0F90F21092000F0ACF97F210A2000F0A8F97F210B2000F0A4F97F210C2047
:4020400000F0A0F905210E2000F09CF941F26B410D2000F097F9D3210F2000F093F9D321102000F08FF900F0E9F90E4B1B68184605F000FD0346184600F046F903461946BB
:40208000072000F07FF9012001F07EFBB02000F067F900BF00F012FF0346002BFAD000BF80BD00BFD880FF1F00007A4480B582B000AF03460A46FB711346BB71264B0022C6
:4020C0001A60FFF717FC00F06FFE0346002B05D1FB79582B02D1204B04221A6000F0A0FE0346002B05D1FB79592B02D11A4B0A221A6000F0D3FE0346002B05D1FB795A2B2F
:4021000002D1154B10221A6000F04EFE0346002B05D1FB79412B02D10F4B04221A6000F07FFE0346002B05D1FB79412B02D10A4B0A221A6000F0B2FE0346002B05D1FB79CA
:40214000412B02D1044B10221A60034B1B6818460837BD4680BD00BFB481FF1F80B500AF032004F0CDF900BF80BD00BF80B500AF1D48FFF711FC1D4BDB781B021B4A927856
:4021800013441A461A4B1A60184B5B791B02174A127913441A46174B1A60144BDB791B02124A927913441A46134B1A601348FFF7F3FB0F4B1B681846FFF710FC1048FFF726
:4021C000EBFB0C4B1B681846FFF708FC0C48FFF7E3FB094B1B681846FFF700FC0848FFF7DBFB00BF80BD00BF249000004082FF1FDC80FF1FE080FF1FE480FF1F4C900000B7
:402200007490000080B500AF1B48FFF7C5FB1B4BDB781B02194A92781344194A1360174B5B791B02154A12791344164A1360134BDB791B02114A92791344134A136013480F
:40224000FFF7AAFB0E4B1B681846FFF7C7FB1048FFF7A2FB0B4B1B681846FFF7BFFB0C48FFF79AFB084B1B681846FFF7B7FB0848FFF792FB00BF80BD249000004082FF1FE1
:40228000D080FF1FD480FF1FD880FF1F4C900000749000000000000090B585B000AF7860786804F0ABFF14A3D3E9002304F0FAFF03460C46184621464FF00002104B04F0F6
:4022C0003DFE03460C461846214605F0CDFA0346FB60F86805F026FC0346B3F5806F02D340F2FF3303E0F86805F01CFC034618461437BD4690BD00BF8DEDB5A0F7C6B03F87
:402300000000E03F0000000090B585B000AF7860786804F073FF10A3D3E9002304F0C2FF03460C461846214605F09EFA0346FB60F86805F0F7FB0346B3F5806F02D340F231
:40234000FF3303E0F86805F0EDFB034618461437BD4690BDAFF300808DEDB5A0F7C6B03F80B582B000AF0346FB71FB79184600F09BFE0A2001F008FA012318460837BD4625
:4023800080BD00BF80B582B000AF03463960FB71FB791846FFF7E4FFFB793968184600F069F800BF0837BD4680BD00BF0000000090B583B000AF03463960FB71012001F0CA
:4023C000E3F9386804F0F8FE19A3D3E9002304F069FF03460C461846214605F0FDF903463B60FB7943F04003DBB21846FFF7B8FF3B68B3F5800F01D30F4B3B603B681B0C62
:40240000DBB21846FFF7ACFF3B681B0ADBB21846FFF7A6FF3B68DBB21846FFF7A1FF012001F0B2F900BF0C37BD4690BDAFF300809A9999999999F93FFFFF3F0080B582B0FA
:4024400000AF00237B60D020FFF78AFF0020FFF787FF03461B027B600020FFF781FF03461A467B6813437B607B6818460837BD4680BD00BF80B584B000AF03463960FB712B
:402480000023FB60FB79013B182B00F2EC8001A252F823F0F924000005250000112500001D2500002925000035250000412500004D25000065250000752500008525000040
:4024C00095250000A5250000B1250000C1250000D1250000E1250000F72500000326000019260000592500002F2600003F2600004F2600005B2600001621386800F0C0F86F
:40250000F860B8E00921386800F0BAF8F860B2E01621386800F0B4F8F860ACE01421002000F0AEF8F860A6E00C21386800F0A8F8F860A0E00C21386800F0A2F8F8609AE0D7
:402540000A21386800F09CF8F86094E00C21386800F096F8F8608EE00A21386800F090F8F86088E03B68DBB21846FFF7F9FE0346FB6080E03B68DBB21846FFF7F1FE0346F1
:40258000FB6078E03B68DBB21846FFF7E9FE0346FB6070E03B68DBB21846FFF7E1FE0346FB6068E00E21386800F06AF8F86062E03B68DBB21846FFF7D3FE0346FB605AE0CC
:4025C0003B68DBB21846FFF7CBFE0346FB6052E03B68DBB21846FFF7C3FE0346FB604AE03B68DBB203F00F03DBB21846FFF7B8FE0346FB603FE00020FFF7B2FE0346FB60AC
:4026000039E03B68DBB203F00F03DBB21846FFF7A7FE0346FB602EE03B68DBB203F07F03DBB21846FFF79CFE0346FB6023E03B68DBB21846FFF794FE0346FB601BE03B68F5
:40264000DBB21846FFF78CFE0346FB6013E01021386800F015F8F8600DE01021002000F00FF8F86007E03B68DBB21846FFF778FE0346FB6000BFFB6818461037BD4680BD19
:4026800080B586B000AF78600B46FB7000237B61FB78DB08FB74FB7803F00703DBB2002B02D0FB7C0133FB74FB78C3F120034FF0FF3222FA03F3FB607A68FB689A4201D972
:4026C000FB687B60FB7C032B0BD17B681B0CDBB21846FFF745FE03461B041A467B6913437B61FB7C012B0BD97B681B0ADBB21846FFF736FE03461B021A467B6913437B618F
:40270000FB7C002B09D07B68DBB21846FFF728FE03461A467B6913437B617A69FB68134018461837BD4680BD80B582B000AF786039603A680021786805F04BFA00BF08378D
:40274000BD4680BD80B584B000AFF860B9607A607A68B968F86805F031FA00BF1037BD4680BD00BF80B584B000AFF860B9607A607A68B968F86805F021FA00BF1037BD464F
:4027800080BD00BF80B483B000AF0346FB71FEE780B487B000AF7860396000233B6100237B6127E07B699B007A6813441B68BB60BB68FB73BB6823F0FF03BB6014E03B694B
:4027C0005B003A6813441B781A46BB68134419463B695B003A6813445B780B703B6901333B61FB7B013BFB73FB7B002BE7D17B6901337B617B692B2BD4D900BF1C37BD4696
:4028000080BC704780B582B000AF3C4B01221A803B4B18221A703B4B01221A803A4B18221A703A4B17221A80394B18221A70394B19221A80384B18221A70384B2F221A80C7
:40284000374B18221A70374B06221A70364B52221A70364B364A1278D2B21A70354B4FF4E2621A80344B41F251221A800023FB7019237B6014E0FB785B00DAB22F4B1B7866
:40288000DBB203F00103DBB21343DBB203F00303FB704FF4F07004F0F3FA7B68013B7B607B68002B02D0FB78032BE4D17B68002B02D10320FFF766FF214B4FF480721A8072
:4028C0001F4B07221A701F4B00221A701E4B48221A701B4B00221A701C4B00221A701C4B02221A701B4A1B4B1B78DBB243F01F03DBB2137000BF0837BD4680BD8040004080
:40290000824000408440004086400040884000408A4000408C4000408E40004090400040924000400043004000420040A14600400F010049224200402042004025420040CB
:402940000440004006400040084000400940004001400040A243004080B582B000AF224B1B78FB71214B1B78BB71214B1B787B71204AFB7903F00703DBB213701E4AFB7937
:402980001B09DBB21370194ABB7943F00303DBB21370174A7B7943F00303DBB21370174BD0221A70164B40221A70164B40221A70154B04221A70154B20221A70144B0D2223
:4029C0001A70144B04221A700A2000F0DDFE084A7B791370054ABB7913700F4B44221A7000BF0837BD4680BDCF010049F8460040F94600406E5800406F5800401D51004021
:402A00000159004003590040205B0040235B0040285B0040585B00407658004080B586B000AF72B65B4A5B4B1B78DBB243F00403DBB213700023FB7513E0FA7D13465B007B
:402A400013445B00544A13443B613B691A683B699B889BB219461046FFF766FEFB7D0133FB75FB7D072BE8D90023FB751CE0FA7D13469B0013445B00484A1344FB60FB68F0
:402A80001B68BB60FB685B687B60FB681A7A5B7A1B0213437B807B881A467968B868FFF761FEFB7D0133FB75FB7D012BDFD93C493C48FFF76DFE04213B48FFF735FE0422AB
:402AC0003A493B48FFF74EFE3A4B3B4A1A603B4A3A4B1B78DBB243F00203DBB21370384A374B1B78DBB243F00203DBB21370354A344B1B78DBB243F04003DBB21370324A0C
:402B0000314B1B78DBB243F01003DBB213700A222E492F48FFF726FE0A222E492E48FFF721FE0A222D492E48FFF71CFE08222D492D48FFF717FE0A222C492D48FFF712FEDD
:402B40000A222C492C48FFF70DFE08222B492C48FFF708FE0A222B492B48FFF703FE2B4A2A4B1B78DBB243F00803DBB21370284B61221A70FFF746FE254BC1221A70FFF742
:402B8000EBFE0E220F492348FFF7DCFD00BF1837BD4680BDE846004078900000A89000006C910000BC90000000760040809F000008760040580C0140040404C40350014089
:402BC00013500140A0430040C2430040849F000000510040909F0000C05100409C9F0000F0510040A89F000012510040B09F000020510040BC9F000030510040C89F00006C
:402C000042510040D09F0000605100402243004000480040B043004080B500AF04F0A2FF03461B680C2B00D1FEE7FEE780B584B000AF78600F4B1A687B6813441A460E4B2B
:402C4000D31A802B09DC0B4B1B68FB60094B1A687B681344074A136007E004F083FF02460C2313604FF0FF33FB60FB6818461037BD4680BDF880FF1FD083FF1F80B586B002
:402C800000AF224B7B61224B3B61204B7B6135E03B691B68FB603B695B68BB603B699B683B6000237B600CE0FB681A68BB681A60BB680433BB60FB680433FB607B68043381
:402CC0007B607A683B689A42EED13B69DB683B6000237B6008E0BB6800221A60BB680433BB607B6804337B607A683B689A42F2D13B6910333B617B69013B7B617B69002B96
:402D0000C6D104F035FFFDF7BDF9FEE701000000F8A2000080B582B000AF194B194A1A60194A194B1B6843F40073136000237B600FE07B68032B04D8144A7B6852F8233034
:402D400000E0134B13497A6841F822307B6801337B607B682F2BECD90F4B1B78DAB20F4B1A700F4B0B4A1A60FFF758FE00F0BEFA0C4B00221A6000BF0837BD4680BD00BFEE
:402D80000CED00E00004FA0514ED00E000000000192C00000080FF1FBC760040C480FF1F08ED00E0C080FF1F80B400AF054B1B78DBB203F002035B08DBB21846BD4680BC94
:402DC000704700BFF151004080B400AF044B1B78DBB203F00103DBB21846BD4680BC70473151004080B485B000AF0346FB710B4B1B78DBB223F00203FB730849FB795B0006
:402E0000DBB203F00203DAB2FB7B1343DBB20B7000BF1437BD4680BC704700BF3051004080B400AF054B1B78DBB203F00803DB08DBB21846BD4680BC704700BF3151004097
:402E400080B400AF054B1B78DBB203F010031B09DBB21846BD4680BC704700BF3151004080B485B000AF0346FB710B4B1B78DBB223F02003FB730849FB795B01DBB203F0EB
:402E80002003DAB2FB7B1343DBB20B7000BF1437BD4680BC704700BF3051004080B400AF054B1B78DBB203F004039B08DBB21846BD4680BC704700BFC151004080B400AF4A
:402EC000054B1B78DBB203F00803DB08DBB21846BD4680BC704700BFC151004080B485B000AF0346FB710B4B1B78DBB223F00203FB730849FB795B00DBB203F00203DAB295
:402F0000FB7B1343DBB20B7000BF1437BD4680BC704700BF0051004080B500AF124B0F221A70124B08221A600621032000F064FC0F49032000F03CFC00F03EF90D4B002292
:402F40001A700D4B00221A700C4B00221A7000F07FF800F09BF80A4B00221A70094B00221A7000BF80BD00BF8B65004080E100E019320000D382FF1FD482FF1FD582FF1F02
:402F8000846500408864004080B582B000AF03F07FFF0346FB71134A124B1B78DBB243F02003DBB21370104A0F4B1B78DBB243F01003DBB213700D4A0C4B1B78DBB243F015
:402FC0001003DBB21370FB79184603F065FF02F0F7FF00F01FF800F029F800BF0837BD4680BD00BF9B650040946500409864004080B500AF064B1B78002B04D1FFF78CFF8A
:40300000034B01221A70FFF7BFFF00BF80BD00BF0982FF1F80B400AF034B08221A6000BFBD4680BC704700BF00E100E080B400AF00BFBD4680BC704780B400AF034B082280
:403040001A6000BFBD4680BC704700BF80E100E080B582B000AFFFF7EFFF0A4B1B78DAB2094B1B78DBB203F00903DBB21343FB71054B00221A70FFF7CDFFFB791846083722
:40308000BD4680BD64650040D282FF1F80B483B000AF044B1B78FB71FB7918460C37BD4680BC70476864004080B584B000AF0346FB71394B1B78FB73FB7B002B02D10923E8
:4030C000FB7302E0FB7B013BFB73344B1B78DBB2FA7B9A42EDD0FFF7AFFF314B1B78DAB2304B1B78DBB203F00903DBB21343BB732C4ABB7B1370284B1B78DAB2274B1B7803
:40310000DBB29A420AD1274B1B78DBB203F00403002B03D0244AFB79137037E01F4B1B78DBB20133DAB21D4B1A701C4B1B78DBB2092B02D9194B00221A70184B1B78DAB2E1
:40314000154B1B78DBB29A4211D1134B1B78DBB20133DAB2104B1A700F4B1B78DBB2092B02D90D4B00221A70104B01221A700B4B1B78DBB219460E4AFB7953540D4A0D4B62
:403180001B78DBB243F00403DBB21370FFF742FF00BF1037BD4680BDD482FF1FD582FF1F64650040D282FF1F4B650040D382FF1FC882FF1F8465004080B582B000AF01E0D9
:4031C000124B1B78124B1B78DBB203F02003002BF6D103F05DFE0346FB710E4A0D4B1B78DBB243F00103DBB213700A4A094B1B78DBB223F00103DBB21370FB79184603F08C
:403200004BFE00BF0837BD4680BD00BF5B650040686400409B65004080B483B000AF35E02A4B1B78DAB22A4B1B78DBB203F00903DBB21343FB71264AFB791370244B1B78F1
:40324000DBB203F00403002B29D0224B1B78DBB2002B0FD1204B1B78DBB20133DAB21E4B1A701D4B1B78DBB2092B06D91A4B00221A7002E0174B00221A70184B164A1278E4
:40328000D2B21146164A525CD2B21A70124B1B78DAB2144B1B78DBB29A42C1D100E000BF0D4B1B78DAB20F4B1B78DBB29A4207D10D4A0D4B1B78DBB223F00403DBB2137071
:4032C00000BF0C37BD4680BC704700BF64650040D282FF1FD382FF1FD482FF1F4B650040C882FF1FD582FF1F8465004080B483B000AF134B7F221A70124B80221A707F23F5
:40330000FB710CE0FB79DB0003F1804303F5F043FA79013AD2B21A70FB79013BFB71FB79002BEFD1FB79DB0003F1804303F5F04300221A7000BF0C37BD4680BC704700BF39
:40334000FD80FF1FFC80FF1F80B485B000AF03460A46FB711346BB710123FB60FB79172B2FD8BB79002B0ED0FB791A01184B1344FA791101164A0A441278D2B242F020021F
:40338000D2B21A700DE0FB791A01114B1344FA7911010F4A0A441278D2B222F02002D2B21A70FB791A010A4B1344FA791101084A0A441278D2B242F00102D2B21A70002380
:4033C000FB60FB6818461437BD4680BC704700BF1070004080B485B000AF0346FB710123FB60FB79172B1DD8FB791A01104B1344FA7911010E4A0A441279D2B242F0040247
:40340000D2B21A71FB791A01094B1344FA791101074A0A441278D2B242F00102D2B21A700023FB60FB6818461437BD4680BC70471070004080B485B000AF03460A46FB7171
:403440001346BB710123FB60FB79172B1BD8FB791A01104B13441B78DBB223F00E03FB72FB791A010B4B1344BA795200D2B252B202F00E0251B297F90B200A4352B2D2B2CF
:403480001A700023FB60FB6818461437BD4680BC704700BF1070004080B485B000AF0346FB710B46BB8013467B800123FB60BB8841F6FF72934202D14FF40053BB807B88F0
:4034C00041F6FF72934202D14FF400537B80FB79172B17D8FB79DB0003F1804303F5EC430433BB60BB68BA881A80FB79DB0003F1804303F5EC430633BB60BB687A881A8088
:403500000023FB60FB6818461437BD4680BC704780B485B000AF03460A46FB711346BB710123FB60FB79172B07D8FB791A01064B1344BA795A720023FB60FB681846143795
:40354000BD4680BC704700BF1070004090B484B000AF0446084611461A462346FB710346BB710B467B7113463B710123FB60FB79172B34D8FB79DB0003F1804303F5EC4366
:40358000BA7902F07F02D1B27A79D201D2B20A43D2B21A70FB79DB0003F1804303F5EC433A7E1201D1B23A7902F00F02D2B20A43D2B25A70FB79DB0003F1804303F5EC43C0
:4035C0003A7F02F00F02D2B29A70FB79DB0003F1804303F5EC430022DA700023FB60FB6818461037BD4690BC704700BF80B582B000AFFF23FB7103F04BFC0346BB71104BEF
:403600001B78182B12D90F4B1B78FB710C4B1B78013BDAB20A4B1A70FB79DB0003F1804303F5F0431B78DAB2064B1A70BB79184603F032FCFB7918460837BD4680BD00BFF1
:40364000FC80FF1FFD80FF1F90B484B000AF0446084611461A462346FB710346BB800B46BB711346FB700123FB6097F90730002B23DBBB8823F47F6323F00F039BB2002BBD
:403680001BD1FB79DB0003F1804303F5F043BB60BB68BA881A80FB79DB0003F1804303F5F043BA799A70FB79DB0003F1804303F5F043FA78DA700023FB60FB6818461037F2
:4036C000BD4690BC704700BF80B485B000AF0346FB710B46BB8013467B800123FB6097F90730002B17DBFB79DB0003F1804303F5F0430433BB60BB68BA881A80FB79DB0024
:4037000003F1804303F5F0430633BB60BB687A881A800023FB60FB6818461437BD4680BC704700BF80B400AF054A054B1B78DBB243F00103DBB2137000BFBD4680BC7047B7
:40374000F646004080B582B000AF786008E00C4B1B68184603F094FB7B68A3F500437B607B68B3F5004FF2D8064B1B687A6802FB03F3184603F084FB00BF0837BD4680BD49
:403780001081FF1F0881FF1F80B582B000AF0346FB80FB88054A127802FB03F3184603F06FFB00BF0837BD4680BD00BF0C81FF1F80B485B000AF03463960FB710D4B1B68E6
:4037C000FB60FB7903F01F0310339B00FA6813441B68BB60FB7903F01F0310339B00FA6813443A681A60BB6818461437BD4680BC704700BF08ED00E080B483B000AF0346BF
:403800000A46FB711346BB71FB7903F01F0303F1604303F56443BA795201D2B21A7000BF0C37BD4680BC704780B483B000AF7860264B1B78DBB21A467B681A60244B1B78BE
:40384000DBB21B027A6812681A437B681A60214B1B78DBB21B047A6812681A437B681A601D4B1B78DBB21B067A6812681A437B681A607B680433194A1278D2B21A60184BA0
:403880001B78DBB21A027B6804337968043109680A431A60134B1B78DBB21A047B6804337968043109680A431A600F4B1B78DBB21A067B6804337968043109680A431A605E
:4038C00000BF0C37BD4680BC704700BF0301004904010049EC460040020100490101004900010049050100490601004980B582B000AF03460A46FB711346BB71094B1B78FD
:40390000002B04D100F010F8064B01221A70BA79FB791146184600F0D9F800BF0837BD4680BD00BF0A82FF1F80B582B000AF03F0AFFA0346FB71544A534B1B78DBB243F0D7
:403940000103DBB21370514A504B1B78DBB243F00103DBB213704E4B01221A704D4B02221A704D4A4C4B1B78DBB203F07F03DBB213700020FFF708FF484A484B1B78DBB2D5
:4039800023F00603DBB21370454A454B1B78DBB223F02003DBB21370404A404B1B78DBB243F00103DBB213700120FFF7EDFE2820FFF7EAFE3B4A3B4B1B78DBB203F07F0312
:4039C000DBB21370374A374B1B78DBB223F04003DBB21370314A314B1B78DBB243F00203DBB213700220FFF7CFFE2C4A2B4B1B78DBB243F00403DBB213702B4B00221A7072
:403A00002A4B00221A70FB79184603F045FA07211720FFF7F1FE26491720FFF7C9FE07211820FFF7E9FE23491820FFF7C1FE07211520FFF7E1FE20491520FFF7B9FE07217F
:403A40000420FFF7D9FE1D490420FFF7B1FE07210520FFF7D1FE1A490520FFF7A9FE07210620FFF7C9FE17490620FFF7A1FE07210C20FFF7C1FE14490C20FFF799FE00BFEB
:403A80000837BD4680BD00BFA5430040B54300409D60004009600040106000409443004012600040F85100408460004085600040BD490000A5420000B1490000C94800003F
:403AC000114900005D490000854D000080B584B000AF03460A46FB711346BB710023FB7306E0FB7B334A0121D154FB7B0133FB73FB7B012BF5D9304AFB7913702F4B00220C
:403B00001A702F4B00221A702E4B00221A702E4B00221A702D4B00221A702D4B00221A702C4B00221A702C4B4FF400021A602A4B4FF080721A60284B4FF400121A60264B17
:403B400010221A60244B20221A60234B40221A60BB79002B02D0012B09D011E01F4A1F4B1B78DBB223F00103DBB2137011E01B4A1A4B1B78DBB243F00103DBB2137008E0D9
:403B8000164A164B1B78DBB243F00103DBB2137000BF134B03221A70124B80221A70012003F06EF9104B04221A7000BF1037BD4680BD00BF8883FF1FFB82FF1FF082FF1FA9
:403BC0000283FF1F0883FF1FF182FF1FFC82FF1F1983FF1FF282FF1F00E100E00960004028600040086000401260004080B483B000AF0023FB7106E0FB79144A0121D154D0
:403C0000FB790133FB71FB79012BF5D9104B00221A70104B00221A700F4B00221A700F4B00221A700E4B00221A700E4B00221A700D4B00221A700D4B03221A700C4B8022DA
:403C40001A7000BF0C37BD4680BC70478883FF1FF082FF1F0283FF1F0883FF1FF182FF1FFC82FF1F1983FF1FF282FF1F286000400860004080B400AF034B1B78DBB2184625
:403C8000BD4680BC704700BF0883FF1F80B483B000AF0023FB71084B1B78DBB2002B05D0054B1B78FB71044B00221A70FB7918460C37BD4680BC70470283FF1F80B483B02F
:403CC00000AF0346FB71FA79064913465B0013449B000B4401331B78DBB218460C37BD4680BC70471C83FF1F80B485B000AF0346FB710023FB81FB79002B1CD0FB79082B63
:403D000019D8104AFB791B0113441B78DBB29BB203F00F03FB81FB891B029AB20949FB791B010B4401331B78DBB29BB21343FB81FB89023BFB81FB8918461437BD4680BC29
:403D4000704700BFFC5F0040B0B485B000AF03463960FB711346BB80FB79002B6DD0FB79082B6AD8B988FA79364813465B0013449B00034406331B889BB2C3F500739942F5
:403D80000CD9FA792F4913465B0013449B000B4406331B889BB2C3F50073BB802A4CF979BB881B0A9BB2D8B2FA79264D13465B0013449B002B4403331B78DBB20343DAB265
:403DC0000B0123441A70204AFB79B988C9B21B01134401330A461A703B68002B13D00023FB810CE01948FB79FA8939680A4412781B01034408331A70FB890133FB81FA89BF
:403E0000BB889A42EED3FA790E4913465B0013449B000B44013300221A700B48F979FA79084C13465B0013449B00234405331B78DAB20B01034402331A7000BF1437BD46F4
:403E4000B0BC70471C83FF1FFC5F00407060004080B584B000AF03463960FB711346BB803B68002B30D0FB79002B2DD0FB79082B2AD8FB791846FFF737FF03461A46BB88C0
:403E8000934205D9FB791846FFF72EFF034600E0BB88BB800023FB810DE0FB893A6813440D49FA7912010A4408321278D2B21A70FB890133FB81FA89BB889A42EDD3FB79A4
:403EC000184600F00BF801E00023BB80BB8818461037BD4680BD00BF7060004090B482B000AF0346FB71FB79002B1CD0FB79082B19D8FA790E4913465B0013449B000B447F
:403F0000013300221A700B48F979FA79084C13465B0013449B00234405331B78DAB20B01034402331A7000BF0837BD4690BC70471C83FF1FFC5F004080B400AF034B4FF4CF
:403F400000121A6000BFBD4680BC704700E100E080B582B000AF0023FB71314B1B79DBB2184600F067F80346BB712D4B1B78DBB25BB2002B15DA2A4B5B78DBB2212B00D02B
:403F800048E0284B07221A80BA791346DB009B1A254A1344234A536000F0FEFA0346FB7138E01F4B5B78DBB2202B02D0222B1AD030E01C4B07221A80BA791346DB009B1A78
:403FC000194A1344174A5360BB79BA7917498A5CD2B242F00102D1B2144AD15400F05AFB0346FB7116E0BB790D4A9278D2B291B20F4A22F81310BB79BA790C498A5CD2B27F
:4040000042F00202D1B2094AD15400F0E1FB0346FB7100BFFB7918460837BD4680BD00BF006000400C83FF1F1481FF1FEC82FF1FD882FF1F80B485B000AF0346FB7100230B
:40404000FB73FF23BB7317E0FB7B104AD35C7B737A7B0F4913465B0013449B000B440A331B78DBB2FA799A4203D1FB7BBB730223FB73FB7B0133FB73FB7B012BE4D9BB7BF8
:4040800018461437BD4680BC704700BFDC82FF1F1C83FF1F80B582B000AF0023BB71224B00221A70214B00221A70204B00225A700023FB7110E0FB791D4AD35C7B717B7913
:4040C000002B06D07B79082B03D87B791846FFF705FFFB790133FB71FB79012BEBD9154B1B78DBB2002B18D0114B1B78DBB2002B13D0114B1B78DBB2002B0ED00D4B1B786C
:40410000DBB2082B09D80A4B1B78DBB2082B04D8094B1B78DBB2082B01D90123BB71BB7918460837BD4680BD0B82FF1FEC82FF1FE482FF1FE882FF1FDC82FF1F80B584B050
:4041400000AF78600B467B80134B1B781A46134B9B5CFB73FA7B124913465B0013449B000B4408331B889BB27A889A4209D9FA7B0B4913465B0013449B000B4408331B880C
:404180007B807A88FB7B79681846FFF7DDFD00BF1037BD4680BD00BF0B82FF1FE882FF1F1C83FF1F80B500AF054B1B781A46054B9B5CDBB21846FFF781FD0346184680BDD7
:4041C0000B82FF1FE482FF1F80B584B000AF78600D4B1B781A460D4B9B5CFB73FA7B0C4913465B0013449B000B4408331B889AB2FB7B79681846FFF72BFE0346BB81BB8912
:4042000018461037BD4680BD0B82FF1FE482FF1F1C83FF1F80B485B000AF78600B46FB701346BB707B68DB7803F00303FB737B689B785BB2002B1ADAFB7B032B0AD0BB780D
:4042400003F001031449FA78CA54BB7843F00103BB701BE0BB789B08DBB203F001030F49FA78CA54BB7843F00403BB700EE0FB7B032B0BD0BB785B08DBB203F00103084918
:40428000FA78CA54BB7843F00203BB70BB7818461437BD4680BC7047E882FF1FDC82FF1FE482FF1F80B582B000AF374B1B78BB71BB7903F01003002B62D00123FB7197F970
:4042C0000630002B12DABB7903F00F03012B02D00023FB711CE000F061F82C4B1B78DBB25BB2002B14DA0023FB7111E0BB7903F04003002B02D000F095F809E0BB7903F035
:404300002003002B02D000F0B3F801E00023FB71FB79002B34D01C4B1B78BB7197F90630002B2DDB1A4B1B78DAB21A4B1B78DBB21343BB71184ABB791370174B1B78DBB26A
:40434000BA799A421CD1114B1B78FB710E4B1B78DBB223F07F03BB71BB79002B0AD10A4B0A4A1278D2B21A70074B1B78DBB203F00F03FB71054B1B78DBB2FA799A42E2D1DC
:4043800000BF0837BD4680BD28600040FA82FF1FFD82FF1F1883FF1F2960004080B582B000AF1D4B1B78FB711B4AFB7913701A4B1B78FB7197F90730002B03DA174AFB795D
:4043C000137025E0022000F045FA154B1B78DBB203F06003202B08D0402B0BD0002B0ED100F0D6FC0346FB710CE002F059FD0346FB7107E001F0E6FC0346FB7102E00023C7
:40440000FB7100BFFB79002B02D1044B03221A7000BF0837BD4680BD28600040FA82FF1F0060004080B500AF104B1B78DBB2062B19D801A252F823F06744000067440000CA
:4044400055440000674400005B440000674400006144000000F0F8F806E000F0A7F903E000F0D2F900E000BF00BF80BDF082FF1F80B500AF124B1B78DBB2062B1DD801A2C0
:4044800052F823F0BB440000BB440000A1440000BB440000A7440000BB440000AD44000000F0D8F80AE000F027F907E0032000F0D1F9044B03221A7000E000BF00BF80BDCB
:4044C000F082FF1FFA82FF1F80B483B000AF0023FB71294B1B78DBB29AB2284B1B889BB213449AB2254B1A8015E02549FB79254A52681278D2B2CA54224B5B680133214A02
:404500005360FB790133FB711E4B1B889BB2013B9AB21C4B1A801B4B1B889BB2002B02D0FB79072BE1D9144B1B78DBB2082B02D0FB79002B0FD0144B1B78DBB283F07F03A9
:40454000DB43DAB2104B1A70104B0F221A70104B02221A7005E00D4B02221A700C4B02221A700C4AFB791370034AFB79137000BF0C37BD4680BC7047F282FF1F0683FF1FDB
:40458000006000400C83FF1FFD82FF1FFA82FF1FF082FF1F1883FF1F80B582B000AF164B1B889BB2002B02D100F02EF81EE0134B02221A70124B00221A7000F06BF9114BF0
:4045C000DB79DBB29BB21B029AB20E4B9B79DBB29BB21343FB80084B1B889BB2FA889A4202D2054AFB881380FFF76EFF012318460837BD4680BD00BF0C83FF1FF082FF1FD2
:40460000FD82FF1F0060004080B400AF094B02221A70094B80221A70084B0F221A70084B00221A70074B00221A7001231846BD4680BC7047F082FF1FFD82FF1FFA82FF1F8E
:40464000F282FF1F1883FF1F80B500AFFFF73CFF00BF80BD80B500AF0A4B1B78DBB29AB2094B1B889BB213449AB2074B1A80074B00221A70012000F0EDF8054B03221A7073
:4046800000BF80BDF282FF1F0683FF1FF082FF1FFA82FF1F80B582B000AF124B04221A70114B80221A7000F0F5F8104BDB79DBB29BB21B029AB20D4B9B79DBB29BB2134385
:4046C000FB800B4B1B889BB2FA889A4202D2084AFB881380074B0B221A70012318460837BD4680BDF082FF1FFD82FF1F006000400C83FF1FFA82FF1F80B483B000AF002308
:40470000BB71234B1B78DBB203F00F03DBB2023BFB71FB799AB21F4B1B889BB213449AB21C4B1A8018E01C4B5B681C49BA798A5CD2B21A70184B5B680133174A5360BB7976
:404740000133BB71FB79013BFB71134B1B889BB2013B9AB2104B1A800F4B1B889BB2002B02D0FB79002BDED10D4AFB7913700D4B1B78DBB283F07F03DB43DAB2094B1A701A
:40478000094B0B221A7000BF0C37BD4680BC7047296000400683FF1F0C83FF1F006000401883FF1FFD82FF1FFA82FF1F80B500AF054B00221A70012000F04CF8034B0322A1
:4047C0001A7000BF80BD00BFF082FF1FFA82FF1F80B400AF084B06221A70084B06221A70074B80221A70074B00221A7001231846BD4680BC704700BFF082FF1FFA82FF1F80
:40480000FD82FF1F1883FF1F80B500AF0D4B1B78DBB2002B0AD00C4A0A4B1B78DBB263F07F03DBB21370074B00221A70074B00221A70012000F00EF8054B03221A7000BF40
:4048400080BD00BFFC82FF1F08600040F082FF1FFA82FF1F80B483B000AF0346FB710B4B9B68002B0CD0094B9B68FA791A70074B9B68074A128892B25A80044B00229A6086
:4048800000BF0C37BD4680BC704700BF0C83FF1F0683FF1F80B400AF094B00221A80094B9B68002B07D0074B9B6800221A70054B9B6800225A8000BFBD4680BC704700BFDD
:4048C0000683FF1F0C83FF1F80B400AF0D4B01221A700D4B9B7C0D4B1B7BDBB203F00303012B08D0094BDB7BDBB283F07F03DB43DAB2064BDA73054B01225A7300BFBD461F
:4049000080BC70470B600040FC5F00401C83FF1F80B400AF0E4B02221A700E4B93F822300D4B1B7EDBB203F00303012B08D00A4BDB7EDBB283F07F03DB43DAB2064BDA766B
:40494000054B01225A7600BFBD4680BC704700BF0B600040FC5F00401C83FF1F80B400AF104B04221A70104B93F832300F4B93F82430DBB203F00303012B0AD00B4B93F8A1
:404980002730DBB283F07F03DB43DAB2074B83F82720064B012283F8252000BFBD4680BC704700BF0B600040FC5F00401C83FF1F80B400AF00BFBD4680BC704780B500AF39
:4049C000FFF714F900BF80BD80B582B000AF0023FB71714B1B79BB716F4B1B78DBB25BB2002B6CDA6C4B5B78DBB2013B052B00F2BE8001A252F823F05B4A0000754A000028
:404A00009F4A00006F4B00006F4B0000114A0000614BDB78DBB2212B0CD100F0C7F85F4B1B889BB2002B00F0A480FFF7B5FD0346FB719EE0584BDB78DBB2222B40F099808D
:404A400000F0F2F8554B1B889BB2002B00F09180FFF7A2FD0346FB718BE000F02DF94F4B1B889BB2002B00F08680FFF795FD0346FB7180E0BB79012B7FD8474B9B78DBB2A4
:404A8000002B7AD1454B01221A80BB79444A1344424A5360FFF780FD0346FB716DE0BB79012B6CD83D4B01221A80BB793D4A13443A4A5360FFF770FD0346FB715FE0364B5C
:404AC0005B78DBB20A2B10D00B2B3DD0092B00D05CE000F0F1F8314B1B889BB2002B50D0FFF7D8FD0346FB714BE0BB79012B4AD8294B9B78DBB2002B45D1BB79264AD278BE
:404B0000D1B2274AD154BB79254AD35CDAB2BB792549CB5CDBB29A4204D2BB79224A0021D1540CE0BB79204AD35CDBB2012B06D9BB79BA791A498A5CD1B21B4AD154FFF70C
:404B400047FE0346FB711EE0BB79012B1DD8124B9B78DBB2012B18D8BB790F4A9278D1B2104AD154FFF734FE0346FB710DE000BF0CE000BF0AE000BF08E000BF06E000BF0D
:404B800004E000BF02E000BF00E000BFFB7918460837BD4680BD00BF006000400C83FF1F8C83FF1F8883FF1F9083FF1F80B584B000AF194B1B78DBB2013BDBB2184600F07B
:404BC00049FFF860154B1B79FB72FB7A0233DB00FA681344FB60FB685B68FB60FB7A104AD35CDBB2DB00FA681344FB60FB685B68FB60FB682033FB60FB685B687B607B68AA
:404C00001B78DBB29AB2074B1A80064A7B68536000BF1037BD4680BD0883FF1F00600040F882FF1F0C83FF1F80B584B000AF1E4B1B78DBB2013BDBB2184600F00BFFF86048
:404C40001A4B1B79FB72FB7A0233DB00FA681344FB60FB685B68FB60FB7A154AD35CDBB2DB00FA681344FB60FB685B68FB60FB681833FB60FB685B687B607B6801331B7800
:404C8000DBB29BB21B029AB27B681B78DBB29BB213439AB2074B1A807B680233054A536000BF1037BD4680BD0883FF1F00600040F882FF1F0C83FF1F80B584B000AF2D4B55
:404CC00000221A802C4B1B78DBB2013BDBB2184600F0C0FEF860294BDB78FB72274B1B79BB72BB7A0233DB00FA681344FB60FB685B68FB60BB7A012B38D8BB7A204AD35CB4
:404D0000DBB2DB00FA681344FB60FB685B68FB60FB7A002B2AD0FB7A032B27D8FB7A03F10053013BDB00FA681344FB60134B9B78FB72FB681B78FA7A9A4217D8FB685B681A
:404D40007B60FA7A13465B0013449B001A467B6813447B607B685B68064A53607B681A88044B1A807B689B68024A936000BF1037BD4680BD0C83FF1F0883FF1F0060004051
:404D8000F882FF1F80B500AF01F046F800BF80BD80B586B000AF0023FB759D4B1B78FB7100233B619B4B00221A8097F90730002B80F20481964B5B78DBB20A2B00F21B8269
:404DC00001A252F823F000BF134F0000F7510000F7510000F7510000F7510000F7510000F54D0000F7510000874F0000F75100009D4F0000864BDB78DBB2012B0ED100F0EA
:404E000051FEB860BB685B68824A5360814B12221A80FFF7C1FB0346FB75EEE17C4BDB78DBB2022B25D17A4B9B78DBB2184600F011FEB860BB68002B00F0DF81BB685B68AA
:404E4000744A5360734B5B6803331B78DBB29BB21B029AB26F4B5B6802331B78DBB29BB213439AB26B4B1A80FFF796FB0346FB75C3E1674BDB78DBB2032B45D10023FB73D8
:404E8000654B3B6109E03B691B78BB71BB793A6913443B61FB7B0133FB735D4B9B78DBB2FA7B9A4204D23B691B78DBB2002BEAD1574B9B78DBB2EE2B01D1584B3B61544B54
:404EC0009B78DBB2002B0BD0514B9B78DAB2544B1B7C9A4204D1534800F0ACF9514B3B613B691B78DBB2002B00F087813B691B78DBB29AB2474B1A80464A3B695360FFF782
:404F00004BFB0346FB7578E101F0CAFF0346FB7573E1FB7903F00303002B20D0022B00D030E03C4B02221A80394B1B79DBB203F07F023D4913465B0013449B000B440233AF
:404F40001B78DAB2394B1A70384B00225A70314B364A5A60FFF720FB0346FB7512E02D4B02221A80324B1B78DAB2304B1A702F4B00225A70274B2D4A5A60FFF70DFB0346FC
:404F8000FB7500BF40E1234B01221A80214B294A5A60FFF701FB0346FB7535E11D4B01221A801B4B1B79DBB21A46234B1344194A5360FFF7F1FA0346FB7525E1144B5B7863
:404FC000DBB2013B0A2B00F21A8101A252F823F0DB500000FF51000069510000FF510000FD4F0000FF510000FF510000FF51000041500000FF51000097500000044B9B783B
:40500000DAB20E4B1A70FFF7E3FB0346FB75FBE0006000400C83FF1FD8A0000060A2000080A00000A883FF1F1C83FF1F0C82FF1F1983FF1F0883FF1FF882FF1FFC82FF1F69
:40504000744B9B787B717B79002B06D07B79013BDBB2184600F0FEFCB8607B79002B02D0BB68002B03D17B79002B40F0CA806A4B1B78DBB27A799A4208D0674A7B79137010
:40508000664B01221A70012000F0DCF9FFF7A0FB0346FB75B5E000F05DFE0346002B00F0B2805C4B1B793B715A4B1B79DAB25C4B1A703B795B4AD35CDAB23B795A49CB5C7D
:4050C000DBB29A4204D0554B01221A7000F094FBFFF77EFB0346FB7595E0FB7903F00303012B20D0012B0CD3022B00D03BE0494B9B78DBB2002B31D100F080FD0346FB75D7
:405100002CE0444B9B78DBB2012B29D1474B1B78DBB223F00203DAB2444B1A70FFF758FB0346FB751CE03B4B1B79DBB2012B19D8384B9B78DBB2DB43DBB2364A1279D2B280
:40514000114610463A4A125CD2B21340DAB2384B5A54FFF73DFB0346FB7503E000BF53E000BF51E000BF4FE0FB7903F00303012B20D0012B0CD3022B00D03BE0254B9B7833
:40518000DBB2002B31D100F0C5FC0346FB752CE0204B9B78DBB2012B29D1244B1B78DBB243F00203DAB2214B1A70FFF711FB0346FB751CE0174B1B79DBB2012B19D8154B8E
:4051C0009B78DBB2DB43DBB2124A1279D2B211461046174A125CD2B21340DAB2144B5A54FFF7F6FA0346FB7503E000BF0CE000BF0AE000BF08E000BF06E000BF04E000BF89
:4052000002E000BF00E000BFFB7D18461837BD4680BD00BF006000400883FF1F0283FF1FF182FF1F0083FF1FF882FF1F1983FF1F0483FF1FB0B58AB000AF7860324B07F15A
:4052400014041D460FCD0FC42B682370002387F826307B68002B52D07B6822221A707B68013303221A7007F10C031846FEF7DCFA022387F827303EE097F827307A681344D7
:4052800097F8262007F128010A4412F81C2C1209D2B207F128010A4412F8142C1A7097F8273001337A68134400221A7097F8273002337A68134497F8262007F128010A44DF
:4052C00012F81C2C02F00F0207F128010A4412F8142C1A7097F8273003337A68134400221A7097F82630013387F8263097F82730043387F8273097F82730212BBCD900BFAE
:405300002837BD46B0BD00BF6CA0000090B482B000AF0123FB7180E0464AFB791B0113440C221A70FA79444913465B0013449B000B4405331B78DBB2002B1CD0FA793E4931
:4053400013465B0013449B000B4404331B78DBB25BB2002B07DA394AFB791B01134402330C221A700EE0354AFB791B011344023308221A7006E0314AFB791B0113440233B7
:4053800080221A702B48F979FA792B4C13465B0013449B00234406331B889BB2DAB20B01034406331A702348F979FA79224C13465B0013449B00234406331B889BB21B0A01
:4053C0009BB2DAB20B01034407331A701948F979FA79194C13465B0013449B00234406331B889BB2DAB20B01034404331A701148F979FA79104C13465B0013449B00234495
:4054000006331B889BB21B0A9BB2DAB20B01034405331A70FB790133FB71FB79082B7FF67BAF074BFF221A7000BF0837BD4690BC704700BF706000401C83FF1FFC5F0040AE
:405440000A60004080B58AB000AF0346FB7100237B84002387F8273050E097F82720B34913465B0013449B000B4400221A7097F82720AE4913465B0013449B000B440233FA
:4054800000221A7097F82720A84913465B0013449B000B44033300221A7097F82720A34913465B0013449B000B44083300221A8097F827209D4913465B0013449B000B4443
:4054C0000A3300221A7097F82720984913465B0013449B000B44013300221A7097F82720924913465B0013449B000B44053300221A7097F82730013387F8273097F82730D7
:40550000082BAAD9FB79002B16D0002387F825300EE097F82530864A0021D15497F82530844A0021D15497F82530013387F8253097F82530012BECD97F4B1B78DBB2002B83
:4055400000F051810023FB767B4B1B78DBB2013BDBB2184600F07EFA78617B695B683B613B6907331B7803F04003002B08D0734B1B78DBB243F00103DAB2704B1A7007E0CD
:405580006E4B1B78DBB223F00103DAB26B4B1A707B6908337B617B691B7887F82730012387F82530B6E07B695B68FB61002387F82630A3E097F82520FB699B7803F07F031B
:4055C0009A4240F0938097F82520584913465B0013449B000B4408331B889AB2FB699B889A420CD297F82520FB6998884F4913465B0013449B000B44083302461A80FB6951
:405600001B781A464A4B9B5CDAB2FB695B789A426CD197F82520FB699878444913465B0013449B000B44043302461A7097F82520FB69D8783D4913465B0013449B000B4439
:4056400002461A70FB69DB7803F00303FB73FB699B785BB2002B1CDA97F82520FB7B012B01D1072000E00D20304913465B0013449B000B44053302461A7097F825202B4959
:4056800013465B0013449B000B44013301221A701BE097F82520FB7B012B01D1052000E00920224913465B0013449B000B44053302461A7097F825201C4913465B001344F5
:4056C0009B000B44013300221A70FB699B790A2B03D0FB699B79022B08D1FA7E97F825301946F869FEF796FD0346FB76FB690833FB6197F82630013387F8263097F82620C6
:4057000097F827309A42FFF455AF97F82530013387F8253097F82530082B7FF644AF7B695B68FB61002387F8253020E01C83FF1FF882FF1F0083FF1F0883FF1F1983FF1FF2
:40574000FB699B7803F07F02FB691878284913465B0013449B000B440A3302461A70FB690833FB6197F82530013387F8253097F8252097F827309A42E2D300F0A5F90246CD
:405780001C4B1A6000237B84012387F8273024E097F82720164913465B0013449B000B4406337A8C1A8097F82720114913465B0013449B000B4408331B889AB27B8C134438
:4057C0007B847B8C03F001039AB27B8C13447B8497F82730013387F8273097F82730082BD6D9FFF793FD00BF2837BD4680BD00BF1C83FF1FF482FF1F90B585B000AF8F4B54
:405800001B78DBB2002B00F015818C4B1B78DBB2013BDBB2184600F01DF978607B6808337B607B681B78FB707B685B68BB60844B1B78BB700023FB73F7E0BB681B78BA7823
:405840009A4240F0EC80BB787E4AD35CDAB2BB685B789A4240F0E380BB689B7803F07F037B70BB68DB7803F003033B707A78764913465B0013449B000B44033300221A705D
:405880007A78BB689878704913465B0013449B000B44043302461A707A78BB68D8786A4913465B0013449B000B4402461A707A78BB689888644913465B0013449B000B4456
:4058C000083302461A80BB689B785BB2002B1ADA7A783B78012B01D1072000E00D205A4913465B0013449B000B44053302461A707A78554913465B0013449B000B440133F7
:4059000001221A7019E07A783B78012B01D1052000E009204C4913465B0013449B000B44053302461A707A78474913465B0013449B000B44013300221A70444A7B781B0168
:405940001344023301221A70404879787A783E4C13465B0013449B00234408331B889BB21B0A9BB2DAB20B0103441A70374879787A78354C13465B0013449B0023440833BB
:405980001B889BB2DAB20B01034401331A70304879787A782C4C13465B0013449B00234406331B889BB2DAB20B01034406331A70274879787A78244C13465B0013449B0047
:4059C000234406331B889BB21B0A9BB2DAB20B01034407331A701E4879787A781A4C13465B0013449B00234406331B889BB2DAB20B01034404331A70154879787A78124CDF
:405A000013465B0013449B00234406331B889BB21B0A9BB2DAB20B01034405331A70BB680833BB60FB7B0133FB73FA7BFB789A42FFF403AF00BF1437BD4690BD0883FF1F20
:405A4000F182FF1FF882FF1F1C83FF1FFC5F00407060004080B485B000AF0346FB710F4B1B78DBB20E4ADB0013445B68FB60FB681033FB60FB681B78FA799A4202D3002368
:405A8000FB6005E0FB79DB00FA6813445B68FB60FB6818461437BD4680BC7047FB82FF1F58A2000080B400AF054B1B78DBB2054ADB0013445B681846BD4680BC704700BF3F
:405AC000FB82FF1F58A2000080B584B000AF104B1B78DBB2013BDBB21846FFF7BBFFB860BB68002B0DD0BB685B681B79FB71FB790233DB00BA681344BB60BB685B68FB6025
:405B000001E00023FB60FB6818461037BD4680BD0883FF1F80B582B000AF0023FB71344B1B79DBB203F07F03BB71BB79002B5AD0BB79082B57D8BA79B9792E480B465B0089
:405B40000B449B00034402331B78DBB243F00103D8B2284913465B0013449B000B44023302461A70BA79234913465B0013449B000B44033300221A70BA79B9791D480B46E0
:405B80005B000B449B00034401331B78DBB243F00203D8B2174913465B0013449B000B44013302461A70BA79124913465B0013449B000B4404331B78DBB25BB2002B07DAF5
:405BC0000D4ABB791B01134402338D221A7006E0094ABB791B011344023389221A70FEF7F7FD0346FB71FB7918460837BD4680BD006000401C83FF1FFC5F004080B582B0A1
:405C000000AF0023FB71504B1B79DBB203F07F03BB71BB79002B00F09280BB79082B00F28E80BA79B97949480B465B000B449B00034402331B78DBB223F00103D8B24349AC
:405C400013465B0013449B000B44023302461A70BA793E4913465B0013449B000B44033300221A703A49BB793948BA79120102441278D2B202F07F02D2B21B010B441A70D9
:405C8000BA79B97931480B465B000B449B00034401331B78DBB223F00203D8B22B4913465B0013449B000B44013302461A70BA79264913465B0013449B000B4404331B7863
:405CC000DBB25BB2002B1BDABA79204913465B0013449B000B4401331B78DBB2012B07D11B4ABB791B01134402330C221A7022E0174ABB791B01134402330D221A701AE016
:405D0000BA79124913465B0013449B000B4401331B78DBB2012B07D10D4ABB791B011344023308221A7006E0094ABB791B011344023309221A70FEF74BFD0346FB71FB7971
:405D400018460837BD4680BD006000401C83FF1FFC5F004080B584B000AF0023FB73154B1B79BB73144B1B78DBB2013BDBB21846FFF770FEB860BB685B681B79FB71BA7B46
:405D8000FB799A4202D9BB7B022B0ED8BB7BBA7B0A498A5CD1B20A4AD154BB7B054A9278D1B2064AD1540123FB73FB7B18461037BD4680BD006000400883FF1FF882FF1F7A
:405DC0000083FF1F80B582B000AF0023FB710F4B1B78DBB25BB2002B12DA0C4B5B78DBB2012B00D00CE00A4B0A4A5A60094B1B789AB2074B1A80FEF7CFFB0346FB7100BF6B
:405E0000FB7918460837BD4680BD00BF006000400C83FF1F74A2000080B400AF054B1B78DBB203F040039B09DBB21846BD4680BC704700BF8F45004080B500AF064B1B7846
:405E4000002B04D100F00AF8034B01221A7000F063F800BF80BD00BF0E82FF1F80B582B000AF284A274B1B78DBB243F00203DBB21370254B1B78DBB223F07003FB71224A31
:405E8000FB7943F01003DBB21370204A1F4B1B78DBB223F03003DBB213701C4A1B4B1B78DBB243F03003DBB21370184A174B1B78DBB223F00F03DBB21370144A134B1B7804
:405EC000DBB243F00F03DBB21370782000F048F8012000F055F8002000F062F80C4A0C4B1B78DBB243F00103DBB21370094A094B1B78DBB243F00103DBB2137000BF083710
:405F0000BD4680BD004F0040024F00400B4F0040A3430040014F004080B400AF0D4A0D4B1B78DBB243F00103DBB213700A4A0A4B1B78DBB243F00103DBB21370074A074B05
:405F40001B78DBB243F00103DBB2137000BFBD4680BC7047A3430040B3430040004F004080B483B000AF0346FB80044AFB88138000BF0C37BD4680BC704700BF044F004092
:405F800080B483B000AF0346FB80044AFB88138000BF0C37BD4680BC704700BF064F004080B483B000AF0346FB71044AFB79137000BF0C37BD4680BC704700BF034F0040FE
:405FC00080B400AF094A094B1B78DBB243F00403DBB21370064A064B1B78DBB243F00403DBB2137000BFBD4680BC7047A2430040B243004080B500AF41F6FF734FF4804201
:406000000121022000F0F4F903461A460A4B1A7041F6FF7341F6FF720121062000F01AFA03461A46054B1A70054800F045FA002000F054FA00BF80BD1482FF1F1582FF1F58
:40604000E961000080B582B000AF414B1B781846FDF7C0F93F4B1B781846FDF7BBF93E4B1B78FF2B05D1FDF7C1FA03461A463A4B1A70394B1878384B1A7806230621FDF783
:40608000E3FA354B1B78354A92B245F6A0311846FDF71AFB2E4B1A782F4B1B7819461046FDF736FA2E4B1B78FF2B05D1FDF79EFA03461A462A4B1A70294B1878284B1A7880
:4060C00007230621FDF7C0FA254B1B78234A91B2244A92B21846FDF7F7FA1E4B1A78204B1B7819461046FDF713FA194B1B7801211846FDF729F9174B1B7801211846FDF754
:4061000023F900F0C5FE0346FB71174A164B1B78DBB243F02003DBB21370FB79184600F0BBFE124A114B1B78DBB243F00103DBB213700E4A0D4B1B78DBB243F00203DBB264
:4061400013700B4B01221A6000BF0837BD4680BD1482FF1F1582FF1F2E81FF1F1882FF1F2F81FF1F9483FF1F986500407A64004080E200E080B500AF084B1B68002B04D123
:40618000FFF738FF054B01221A6000F033F8FFF759FF034B1B7800BF80BD00BF1082FF1F6B64004080B500AF00F0D4F800BF80BD80B483B000AF0346FB80FB88C3F102034F
:4061C000074A32F913309AB2064B1B881BB29BB2D31A9BB21BB218460C37BD4680BC70479483FF1FA483FF1F80B400AF00BFBD4680BC704780B500AF064B1B78002B04D10E
:4062000000F00AF8034B01221A7000F01BF800BF80BD00BF1E82FF1F80B500AF074A074B1B78DBB243F00603DBB21370082000F06BF8034B00221A8000BF80BD01590040E7
:406240009C83FF1F80B582B000AF00F021FE0346FB71254A244B1B78DBB243F00103DBB21370224A214B1B78DBB243F00103DBB213701F4B1B78BB71BB7943F00203BB71C2
:40628000BB7943F00103BB71194ABB791370194B18221A70184A184B1B78DBB243F04003DBB21370144A144B1B78DBB223F00303DBB21370114BC8221A70114B02221A70BA
:4062C000104A104B1B78DBB243F00803DBB213700A20FDF759FAFB79184600F0DDFD00BF0837BD4680BD00BFAB430040BB4300400359004006590040055900400059004093
:4063000014460040275B004080B584B000AF0346FB71FB790A2B07D00C2B02D0082B06D008E0C223FB7308E08223FB7305E04223FB7302E0C223FB7300BF054AFB7B137078
:40634000FB79184600F016F800BF1037BD4680BD0259004080B400AF054A054B1B78DBB243F00103DBB2137000BFBD4680BC70470059004080B485B000AF0346FB71FB79F4
:406380000A2B08D00C2B02D0082B08D00BE04FF48053FB600AE04FF48063FB6006E04FF48073FB6002E00023FB6000BF0C4B00221A80FB6842F2107202FB03F303F6C41370
:4063C000084A82FB0312D212DB17D31A064A1360064B00221A8000BF1437BD4680BC70479E83FF1FAD8BDB68A083FF1FA483FF1F90B585B002AF0446084611461A46234603
:40640000FB710346BB710B46BB8013467B80104B01221A700E4B1878BA79F97900230193002300930123FDF791F8094B1B787A88B9881846FDF730F8054B1B7802211846EF
:40644000FCF7F8FF024B1B7818460C37BD4690BD3081FF1F90B585B002AF0446084611461A462346FB710346BB710B46BB8013467B80104B00221A700E4B1878BA79F97959
:4064800000230193002300930023FDF75FF8094B1B787A88B9881846FCF7FEFF054B1B7802211846FCF7C6FF024B1B7818460C37BD4690BD3181FF1F80B485B000AF7860DC
:4064C000054B1B68FB60FB6840337A681A6000BF1437BD4680BC704708ED00E080B483B000AF0346FB71054AFB795B01DBB2137000BF0C37BD4680BC704700BF00E400E0F2
:4065000080B483B000AF0346FB71044AFB79137000BF0C37BD4680BC704700BF7465004080B485B000AF0346FB71094B1B78DBB203F07F03FB730649FB79DB01DAB2FB7BB6
:406540001343DBB20B7000BF1437BD4680BC7047C051004080B500AF064B04221A6006490220FDF725F900210220FDF745F900BF80BD00BF80E100E00167000080B582B0D4
:4065800000AF0F2000F0A8F800F098F800F080FC0346FB71094A094B1B78DBB243F01003DBB21370FB79184600F076FC044B04221A6000BF0837BD4680BD00BF9364004058
:4065C00000E100E080B500AF00F01AF94FF4004000F054F9074B00221A60074B1B78002B04D1FFF7B7FF044B01221A70FFF7C6FF00BF80BD2082FF1F1F82FF1F80B582B01B
:4066000000AF00F00FF900F043FC0346FB71094A084B1B78DBB223F01003DBB21370FB79184600F039FC044B04221A6000BF0837BD4680BD9364004080E100E080B582B0D0
:4066400000AF0D4B04221A6000F028F90346FB80FB88A3F500439BB2BB80B7F90420074B1B6813443B60064B04221A603B6818460837BD4680BD00BF80E100E02082FF1FEC
:4066800000E100E080B582B000AF7860084B04221A604FF4004000F0F1F8064A7B681360054B04221A6000BF0837BD4680BD00BF80E100E02082FF1F00E100E080B400AFA4
:4066C000044B1B78DBB203F00F03DBB21846BD4680BC70476364004080B483B000AF0346FB71FB7943F00703FB71044AFB79137000BF0C37BD4680BC704700BF8364004033
:4067000080B483B000AF144B1B78FB71FB7903F00103002B07D0114B1B6803F5FF437F330E4A13600AE0FB7903F00203002B05D00A4B1B68A3F50043084A1360FB7903F0AD
:406740000403002B02D0054B00221A6000BF0C37BD4680BC704700BF636400402082FF1F80B582B000AF1C4B1B78DBB223F00703FB71194AFB791370174B1B78DBB223F096
:406780000303FB71144AFB79137000F0C3F84FF4004000F09FF84FF4004000F06FF8002000F050F800F05EF84FF4004000F0A2F800F06EFB0346BB71084A084B1B78DBB245
:4067C00043F01003DBB21370BB79184600F064FB00BF0837BD4680BD766400409C64004080B400AF054A054B1B78DBB263F07F03DBB2137000BFBD4680BC70477664004074
:4068000080B500AF064B1B78002B04D1FFF7A8FF034B01221A70FFF7E3FF00BF80BD00BF2482FF1F80B400AF054A054B1B78DBB203F07F03DBB2137000BFBD4680BC7047C5
:406840007664004080B483B000AF0346FB71044AFB79137000BF0C37BD4680BC704700BF8C64004080B400AF034B1B78DBB21846BD4680BC704700BF6C64004080B483B02C
:4068800000AF0346FB80044AFB88138000BF0C37BD4680BC704700BF0868004080B400AF044B1B78044B1B889BB21846BD4680BC704700BF046400408868004080B400AFC8
:4068C000034B1B889BB21846BD4680BC704700BF8868004080B483B000AF0346FB80044AFB88138000BF0C37BD4680BC704700BF4868004080B483B000AF0346FB80044A0A
:40690000FB88138000BF0C37BD4680BC704700BF6868004080B500AF01E0FFF7CFFFFFF7A1FF034603F04003002BF6D100BF80BD80B400AF054B1B78DBB203F020035B0921
:40694000DBB21846BD4680BC704700BF2151004080B500AF064B1B78002B04D100F00AF8034B01221A7000F01BF800BF80BD00BF2582FF1F80B400AF064B06221A70064B56
:4069800047221A70054B00221A7000BFBD4680BC704700BF2C6400403C6400408765004080B582B000AF00F073FA0346FB71094A084B1B78DBB243F01003DBB2137000F064
:4069C00047F8FB79184600F067FA00BF0837BD4680BD00BF9765004080B483B000AF0346FB7100BF074B1B78DBB203F00403002BF8D1054AFB79137000BF0C37BD4680BC8B
:406A0000704700BF676500404B64004080B584B000AF78600023FB810C4B1B78002B10D009E0FB897A6813441B781846FFF7D4FFFB890133FB81FB897A6813441B78002B52
:406A4000EFD100BF1037BD4680BD00BF2582FF1F80B400AF094A094B1B78DBB243F00803DBB21370064A064B1B78DBB243F00803DBB2137000BFBD4680BC7047A2430040AB
:406A8000B243004080B483B000AF0346FB71044AFB79137000BF0C37BD4680BC704700BF7E64004080B500AF064B02221A6006490120FCF77DFE02210120FCF79DFE00BF76
:406AC00080BD00BF80E100E0516C000080B582B000AF0F2000F0A8F800F098F800F0D8F90346FB71094A094B1B78DBB243F01003DBB21370FB79184600F0CEF9044B0222B8
:406B00001A6000BF0837BD4680BD00BF9164004000E100E080B500AF00F01AF94FF4004000F054F9074B00221A60074B1B78002B04D1FFF7B7FF044B01221A70FFF7C6FF0B
:406B400000BF80BD2882FF1F2782FF1F80B582B000AF00F00FF900F09BF90346FB71094A084B1B78DBB223F01003DBB21370FB79184600F091F9044B02221A6000BF083710
:406B8000BD4680BD9164004080E100E080B582B000AF0D4B02221A6000F028F90346FB80FB88A3F500439BB2BB80B7F90420074B1B6813443B60064B02221A603B681846CD
:406BC0000837BD4680BD00BF80E100E02882FF1F00E100E080B582B000AF7860084B02221A604FF4004000F0F1F8064A7B681360054B02221A6000BF0837BD4680BD00BFC1
:406C000080E100E02882FF1F00E100E080B400AF044B1B78DBB203F00F03DBB21846BD4680BC70476164004080B483B000AF0346FB71FB7943F00703FB71044AFB79137020
:406C400000BF0C37BD4680BC704700BF8164004080B483B000AF144B1B78FB71FB7903F00103002B07D0114B1B6803F5FF437F330E4A13600AE0FB7903F00203002B05D06B
:406C80000A4B1B68A3F50043084A1360FB7903F00403002B02D0054B00221A6000BF0C37BD4680BC704700BF616400402882FF1F80B582B000AF1C4B1B78DBB223F00703C7
:406CC000FB71194AFB791370174B1B78DBB223F00303FB71144AFB79137000F0C3F84FF4004000F09FF84FF4004000F06FF8002000F050F800F05EF84FF4004000F0A2F838
:406D000000F0C6F80346BB71084A084B1B78DBB243F01003DBB21370BB79184600F0BCF800BF0837BD4680BD756400409764004080B400AF054A054B1B78DBB263F07F03D6
:406D4000DBB2137000BFBD4680BC70477564004080B500AF064B1B78002B04D1FFF7A8FF034B01221A70FFF7E3FF00BF80BD00BF2C82FF1F80B400AF054A054B1B78DBB2D4
:406D800003F07F03DBB2137000BFBD4680BC70477564004080B483B000AF0346FB71044AFB79137000BF0C37BD4680BC704700BF8764004080B400AF034B1B78DBB21846DF
:406DC000BD4680BC704700BF6764004080B483B000AF0346FB80044AFB88138000BF0C37BD4680BC704700BF0468004080B400AF044B1B78044B1B889BB21846BD4680BC91
:406E0000704700BF026400408468004080B400AF034B1B889BB21846BD4680BC704700BF8468004080B483B000AF0346FB80044AFB88138000BF0C37BD4680BC704700BFB5
:406E40004468004080B483B000AF0346FB80044AFB88138000BF0C37BD4680BC704700BF6468004080B500AF01E0FFF7CFFFFFF7A1FF034603F04003002BF6D100BF80BD99
:406E80000230800803D000BF01380046FCD17047EFF3108072B6704780F31088704700BF80B582B000AF0023BB711F4B1B78DBB203F00303012B02D0022B04D012E01A4B73
:406EC0001B79FB7111E0184B1B79DBB203F07F02164913465B0013449B000B440A331B78FB7102E00023FB7100BFFB79022B15D80F4B1A68FB7913441B78022B06D0032BF0
:406F000009D1FDF761FD0346BB7107E0FDF720F80346BB7102E00023BB7100BFBB7918460837BD4680BD00BF006000401C83FF1FF482FF1F81F0004102E000BF83F000438E
:406F400030B54FEA41044FEA430594EA050F08BF90EA020F1FBF54EA000C55EA020C7FEA645C7FEA655C00F0E2804FEA5454D4EB5555B8BF6D420CDD2C4480EA020281EA8D
:406F8000030382EA000083EA010180EA020281EA0303362D88BF30BD11F0004F4FEA01314FF4801C4CEA113102D0404261EB410113F0004F4FEA03334CEA133302D05242E3
:406FC00063EB430394EA050F00F0A780A4F10104D5F1200E0DDB02FA0EFC22FA05F2801841F1000103FA0EF2801843FA05F359410EE0A5F120050EF1200E012A03FA0EFC8E
:4070000028BF4CF0020C43FA05F3C01851EBE37101F0004507D54FF0000EDCF1000C7EEB00006EEB0101B1F5801F1BD3B1F5001F0CD349085FEA30004FEA3C0C04F101046A
:407040004FEA445212F5800F80F09A80BCF1004F08BF5FEA500C50F1000041EB045141EA050130BD5FEA4C0C404141EB010111F4801FA4F10104E9D191F0000F04BF0146F7
:407080000020B1FA81F308BF2033A3F10B03B3F120020CDA0C3208DD02F1140CC2F10C0201FA0CF021FA02F10CE002F11402D8BFC2F1200C01FA02F120FA0CFCDCBF41EAEC
:4070C0000C019040E41AA2BF01EB0451294330BD6FEA04041F3C1CDA0C340EDC04F11404C4F1200220FA04F001FA02F340EA030021FA04F345EA030130BDC4F10C04C4F123
:40710000200220FA02F001FA04F340EA0300294630BD21FA04F0294630BD94F0000F83F4801306BF81F480110134013D4EE77FEA645C18BF7FEA655C29D094EA050F08BFAF
:4071400090EA020F05D054EA000C04BF1946104630BD91EA030F1EBF0021002030BD5FEA545C05D14000494128BF41F0004130BD14F580043CBF01F5801130BD01F0004557
:4071800045F0FE4141F470014FF0000030BD7FEA645C1ABF194610467FEA655C1CBF0B46024650EA013406BF52EA033591EA030F41F4002130BD00BF90F0000F04BF00218A
:4071C000704730B54FF4806404F132044FF000054FF0000150E700BF90F0000F04BF0021704730B54FF4806404F1320410F0004548BF40424FF000013EE700BF42004FEA59
:40720000E2014FEA31014FEA02701FBF12F07F4393F07F4F81F06051704792F0000F14BF93F07F4F704730B54FF4607401F0004521F0004120E700BF50EA010208BF704718
