:400000000080002011000000D1260000D126000008B5044B1A6803F53F5302331A6002F077FB00BFFA46004010B5054C237833B9044B13B10448AFF300800123237010BD15
:40004000A081FF1F00000000DC630000084B10B51BB108490848AFF300800848036803B910BD074B002BFBD0BDE81040184700BF00000000A481FF1FDC630000C880FF1FD4
:400080000000000008B562B605F056F8FF2004F0D7FEFF2004F098FC00F082F804F002FC324800F0F5F800F089FA00F0B9F802F00DFD002000F08EFC642002F0D5FD0120D3
:4000C00000F088FC642002F0CFFD022000F082FC642002F0C9FD032000F07CFC642002F0C3FD042000F076FC642002F0BDFD002004F0D0FE642002F0A1FD002004F0B2FE4D
:40010000642002F09BFD002004F0B8FE642002F095FD042141F6380001F036F9002004F08DFA002004F0A8FD002004F089FE002004F04AFC00F030FB03F0F0F888B10C485F
:4001400003F0F8F80B4B188001280AD90A4800F09FF8FF2004F038FC01F09EFD002004F033FC642002F080FDE4E700BFE06300003C82FF1F7C82FF1F00640000074A1388AB
:4001800001339BB2138042F6F822934204D1034B01229A7000221A80704700BFBC81FF1F08B504F007FA114B188804F0BDF904F039FE022004F0F0FD04F028FD40F6C4107E
:4001C00004F0DEFCC82002F039FD002004F0D8FCC82002F033FD40F6C41004F0D1FCC82002F02CFD002004F0CBFC08BDD080FF1F10B50024034B5C6004F032FC204604F0E4
:400200002BFE10BDBC81FF1F10B50124034B5C6004F026FC204604F01FFE10BDBC81FF1F10B5094B00249C60DC601C615C6104F053FC04F05DFD04F03DFA2046FFF7E4FF1A
:400240002046FFF7D5FF10BDBC81FF1F10B50F4B5B6833B904F0EEFB40420C4B58619A691A610A4B5B68012B06D1084CE369636104F0E0FB4042206104F0CAF94042034C92
:40028000A06004F0E3FC4042E06010BDBC81FF1F10B504460A220146074805F077FC50B1204604F019FB012002F0DEFC0A222146014805F080FC10BDD480FF1F08B540F66D
:4002C000C41004F05DFCC82002F0B8FC002004F057FC0248FFF7DCFF002008BD1464000038B50446FFF7B2FF54B9AF4B1A68AF4B1A70120A5A7000229A70FA22DA70DBE052
:40030000013C202C00F2D880DFE804F011171D23292F353B41474D53595F656B71777D83898F959BA1A7ADB3B9BFC5CBD1009F4B01229A70FA22DA70BEE09C4B02229A706E
:40034000FA22DA70B8E0994B17229A70FA22DA70B2E0964B07229A70FA22DA70ACE0934B11229A70FA22DA70A6E0904B1D229A70FA22DA70A0E08D4B25229A70FA22DA70BA
:400380009AE08A4B03229A70FA22DA7094E0874B04229A70FA22DA708EE0844B18229A70FA22DA7088E0814B08229A70FA22DA7082E07E4B12229A70FA22DA707CE07B4BD7
:4003C0001E229A70FA22DA7076E0784B26229A70FA22DA7070E0754B05229A70FA22DA706AE0724B06229A70FA22DA7064E06F4B19229A70FA22DA705EE06C4B09229A7063
:40040000FA22DA7058E0694B13229A70FA22DA7052E0664B1F229A70FA22DA704CE0634B27229A70FA22DA7046E0604B2B229A70FA22DA7040E05D4B2C229A70FA22DA708A
:400440003AE05A4B2D229A70FA22DA7034E0574B2E229A70FA22DA702EE0544B2A229A70FA22DA7028E0514B2F229A70FA22DA7022E04E4B28229A70FA22DA701CE04B4BD3
:4004800022229A70FA22DA7016E0484B23229A70FA22DA7010E0454B24229A70FA22DA700AE0424B29229A70FA22DA7004E03F4B30229A70FA22DA703D4D686905F042F828
:4004C00037A3D3E9002305F0A3F805F0B3FA6861AB68364C2371AB681B126371AB681B14A371AB681B16E371EB682372EB681B126372EB681B14A372EB681B16E3722B69DC
:4005000023732B691B1263732B691B14A3732B691B16E3736B6923746B691B1263746B691B14A3746B691B16E374224A136823751B1263750023A375E37523766376A3763F
:40054000E37651692177090A61779169A177090AE177D26984F82020120A84F8212084F8223084F8233084F8243084F8253084F826304C2284F8272084F8283084F82930AE
:4005800084F82A3084F82B3084F82C3084F82D300948FFF77DFE2E21204602F097FE38BD9A99999999990940BC82FF1F8082FF1FBC81FF1FD080FF1F4864000008B501213A
:4005C000002002F0C7FC05E00848FFF761FE012002F04AFB02F002FD0028F5D002F02AFE0348FFF755FE02F0B5FD08BD6C6400009064000000B587B00246064901A805F06A
:40060000A1FA01A804F068F9012002F02DFB07B05DF804FBA464000010B5154BD8789B7803EB0020134C206204F08CFF0EA3D3E9002304F0EDFF00220F4B05F013F905F0FB
:4006400021FA80B204F0A8FB0C48FFF721FE206AFFF7D0FF0A48FFF71BFE0A48FFF718FE002010BDAFF30080333333333333E33F3C82FF1FBC81FF1F00002440AC64000011
:4006800004660000CC64000010B5154BD8789B7803EB0020134C206004F054FF0EA3D3E9002304F0B5FF00220F4B05F0DBF805F0E9F980B203F038FF0C48FFF7E9FD20687D
:4006C000FFF798FF0A48FFF7E3FD0A48FFF7E0FD002010BDAFF30080333333333333E33F3C82FF1FD080FF1F00002440F4640000046600000C65000008B50548FFF7C8FD17
:400700000448FFF7C5FD0448FFF7C2FD08BD00BF046600002C6500001064000010B5194B93F820405CB9184B5B6A43B90C22164B5A621648FFF7ACFDFFF7DEFF20E0114BFD
:4007400093F821405CB9104B5B6A43B906220E4B5A620F48FFF79CFDFFF7CEFF10E0094B93F8224064B9084B5B6A43B91222064B5A620848FFF78CFDFFF7BEFF00E001244C
:40078000204610BDD080FF1FBC81FF1F606500008C650000B465000008B502F025FCB0B1FFF78CFD02F01AFC88B1094B93F828304BB10848FFF76CFDFFF79EFF012002F0F5
:4007C0003DFA02F033FA0122014B83F8282008BDBC81FF1FDC65000008B502F075F80A2002F042FA012008BD10B54B1EDBB2FD2B3DD90C46042836D8DFE800F0030D172132
:400800002B000A2002F030FA204601F0DBFF0A2002F02AFA10BD0A2002F026FA204601F0DDFF0A2002F020FA10BD0A2002F01CFA204601F0DFFF0A2002F016FA10BD0A200D
:4008400002F012FA204604F0D7F80A2002F00CFA10BD0A2002F008FA204604F0C1F80A2002F002FA10BD0448FFF712FD10BD0348FFF70EFD10BD00BF08660000486600003A
:40088000F8B506460D46174600212846FFF7ACFF06F07F063046FFF79FFF0020FFF79CFF0020FFF799FF0020FFF796FF0020FFF793FFFF212846FFF797FF012002F0BEF944
:4008C00000212846FFF790FF3046FFF785FF02F065F838700020FFF77FFF02F05FF804060020FFF779FF02F059F844EA00440020FFF772FF02F052F844EA00240020FFF7A8
:400900006BFF02F04BF80443FF212846FFF76CFF012002F093F900212846FFF765FF3046FFF75AFF02F03AF838700020FFF754FF02F034F844EA00640020FFF74DFF02F05C
:400940002DF844EA00440020FFF746FF02F026F844EA00240020FFF73FFF02F01FF80443FF212846FFF740FF2046F8BD70B506460C46154600211046FFF736FF46F080002B
:40098000FFF72AFF200EFFF727FFC4F30740FFF723FFC4F30720FFF71FFFE0B2FFF71CFFFF212846FFF720FF70BD00BF38B505460C460A4600212020FFF7D8FF22462946B5
:4009C0000520FFF7D3FF224629462D20FFF7CEFF38BD00BF10B50446024605210120FFF7C5FF224608210020FFF7C0FF224600210320FFF7BBFF224600210520FFF7B6FFFC
:400A0000224600210620FFF7B1FF22460F210820FFF7ACFF224682490920FFF7A7FF224680490A20FFF7A2FF022C0AD1224600210B20FFF79BFF22467B491020FFF796FFE2
:400A40002FE054B922465A210B20FFF78FFF224676491020FFF78AFF23E0012C0AD122467F210B20FFF782FF224671491020FFF77DFF16E0042C0AD12246D2210B20FFF7FC
:400A800075FF22466B491020FFF770FF09E0224600210B20FFF76AFF224667491020FFF765FF22460A211120FFF760FF224600211320FFF75BFF224600211420FFF756FF46
:400AC000224600211520FFF751FF224600212120FFF74CFF224600212320FFF747FF224600212C20FFF742FF224600213320FFF73DFF224640F2AF213420FFF737FF224673
:400B000000213820FFF732FF224600213920FFF72DFF22464FF480313A20FFF727FF224600213D20FFF722FF224644496020FFF71DFF224642496120FFF718FF2246414948
:400B40006220FFF713FF224608216320FFF70EFF22466FF080616420FFF708FF22463A496520FFF703FF224638496620FFF7FEFE224637496720FFF7F9FE22463549682018
:400B8000FFF7F4FE22464FF477016920FFF7EEFE224631496C20FFF7E9FE224600216D20FFF7E4FE224600216E20FFF7DFFE22462A497020FFF7DAFE224600212120FFF7A3
:400BC000D5FE22464FF6FF712420FFF7CFFE22464FF6FF712520FFF7C9FE22464FF6FF712620FFF7C3FE224600212720FFF7BEFE22464FF6FF712820FFF7B8FE22464FF685
:400C0000FF712A20FFF7B2FE224665212B20FFF7ADFE224600212020FFF7A8FE10BD00BF0606010000040800010307000303070003010700000107000105070054B5AAAADB
:400C4000AA54954A292949247D77BBB556552949224240005680FFFF530141001E000CC430B583B0044602AD002305F8013D4FF4FA7001F0F9FF2A4621460420FFF700FE68
:400C8000642001F0F1FF2A4621460420FFF7F8FD08E00DF1070221462120FFF7F1FD642001F0E2FF9DF8073013F0200FF1D0002003B030BD00000000F8B5074604F042FC6D
:400CC00037A3D3E9002304F0CDFD04F0B3FE064600252AE0FFF7BAFA334B9C68341BB4F5FA6F02DB02205862F8BD204604F02AFC2BA3D3E9002304F08BFC04F09BFE002C01
:400D0000B8BF6442022C0EDD00213844FFF74EFE0020FFF7A5FF322001F0A6FF002239462120FFF723FE0135EDB2052DD2D9FFF78DFA1D4B9B68F61A052D2DD986EAE67358
:400D4000A3EBE673022B0FDD06F2CF7640F69E72964209D81548FFF79BFAFF2004F070F80122114B5A6217E0B3F5FA6F06DD1048FFF78EFA02220C4B5A620DE00D48FFF769
:400D800087FA0022084B5A6239462120FFF7EEFD4FF4FA7001F068FF034B586AF8BD00BF9A99999999990940BC81FF1FA0660000BC660000EC66000070B50446FFF7AEFC93
:400DC00060B31A4D012229461020FFF7CFFD022229461020FFF7CAFD002215491020FFF7C5FD144E00257562FFF730FA1248FFF74FFA29462046FFF7D9FD2846FFF730FFC2
:400E0000322001F031FF2046FFF7F4FB0B48FFF73FFA2046FFF750FF706A70BD0848FFF737FA2020034B586270BD00BF030107000A030700BC81FF1F006700008864000048
:400E40001C67000000000000F8B5074604F07AFB33A3D3E9002304F005FD04F0EBFD064600252BE0FFF7F2F92F4BDC68341B204604F068FB2AA3D3E9002304F0C9FB04F086
:400E8000D9FDB4F57A6F03DB0922274B5A6217E0002CB8BF6442022C0EDD01213844FFF785FD0120FFF7DCFE322001F0DDFE012239462120FFF75AFD0135EDB2032DD1D936
:400EC000FFF7C4F9184BD868301A032D25D980EAE073A3EBE073022B0FDD00F69F7041F63E72904209D81148FFF7D2F9FF2003F0A7FF08220C4B5A620FE0B3F57A6F06DD5C
:400F00000B48FFF7C5F90922074B5A6205E00948FFF7BEF90022044B5A62034B586AF8BD9A99999999990940BC81FF1F2C670000486700007867000038B50446FFF7EEFB2A
:400F400060B31A4D002229461020FFF70FFD022229461020FFF70AFD012215491020FFF705FD144D00236B62FFF770F91248FFF78FF901212046FFF719FD0120FFF770FE2A
:400F8000322001F071FE2046FFF734FB0B48FFF77FF92046FFF758FF686A38BD0848FFF777F92020034B586238BD00BF030107000A010700BC81FF1F00670000886400003C
:400FC0001C67000000000000F8B5074604F0BAFA33A3D3E9002304F045FC04F02BFD064600252BE0FFF732F92F4B1C69341B204604F0A8FA2AA3D3E9002304F009FB04F047
:4010000019FDB4F57A6F03DB1022274B5A6217E0002CB8BF6442022C0EDD02213844FFF7C5FC0220FFF71CFE322001F01DFE022239462120FFF79AFC0135EDB2052DD1D96A
:40104000FFF704F9184B1869301A032D25D980EAE073A3EBE073042B0FDD00F69F7041F63E72904209D81148FFF712F9FF2003F0ABFC0F220C4B5A620FE0B3F57A6F06DD0F
:401080000B48FFF705F91022074B5A6205E00948FFF7FEF80022044B5A62034B586AF8BD9A99999999990940BC81FF1F8C670000A8670000D867000038B505461F4C012253
:4010C00021461020FFF752FC002221461020FFF74DFC02221A491020FFF748FC194B98694042FFF791F8FFF719FB00B3154C00236362FFF7ABF81448FFF7CAF80221284682
:40110000FFF754FC0220FFF7ABFD322001F0ACFD2846FFF76FFA0D48FFF7BAF82846FFF753FFFFF793F82369A361606A38BD0848FFF7AEF82020034B586238BD0301070039
:4011400002010700BC81FF1FEC670000886400001C67000000000000F8B5074604F0F2F933A3D3E9002304F07DFB04F063FC064600252BE0FFF76AF82F4B5C69341B204633
:4011800004F0E0F92AA3D3E9002304F041FA04F051FCB4F57A6F03DB1722274B5A6217E0002CB8BF6442042C0EDD03213844FFF7FDFB0320FFF754FD322001F055FD032262
:4011C00039462120FFF7D2FB0135EDB2032DD1D9FFF73CF8184B5869301A032D22D980EAE073A3EBE073042B0CDD00F69F7041F63E72904206D81148FFF74AF816220E4B86
:401200005A620FE0B3F57A6F06DD0D48FFF740F81722094B5A6205E00A48FFF739F80022054B5A62044B586AF8BD00BFAFF300809A99999999990940BC81FF1F08680000E5
:40124000246800005468000038B50446002003F02DFE642001F008FD1E4BD8694042FEF7C7FFFFF75BFA30B31A4D00236B62FEF7EDFF1948FFF70CF803212046FFF796FB7E
:401280000320FFF7EDFC322001F0EEFC2046FFF7B1F91248FEF7FCFF2046FFF75DFFFEF7D5FF6B69EB61FF2003F000FE642001F0DBFC686A38BD0A48FEF7EAFF054C202327
:4012C0006362FF2003F0F2FD642001F0CDFC606A38BD00BFBC81FF1F68680000886400001C67000070B506460D461446FEF7AEFF2348FEF7CDFF002E03DB00213046FFF74D
:4013000055FB002D03DB01212846FFF74FFB002C08DB1C4B98694042FEF776FF02212046FFF744FB002E02DB0020FFF799FC002D02DB0120FFF794FC002C02DB0220FFF7D9
:401340008FFC002E02DB3046FFF7B6FC002D02DB2846FFF779FD002C07DB2046FFF734FEFEF774FF074B1A699A61FEF76FFF054B586AFEF7B5FF322001F076FC002070BDE1
:4013800000670000BC81FF1F08B50A4601462720FFF7ECFA002008BD2DE9F8430446002265491020FFF7E2FA21464FF49620FFF7EBFF224602212020FFF7D8FAC82001F0F6
:4013C00053FC5E4D2A4621460420FFF759FA4FF4FA7001F049FC2A4621460420FFF750FA2AE003F0DDFE564803F006FF534A21460420FFF745FA642001F036FC514B9B7870
:40140000D3B1504D01206862FEF76AFF03F06EFE224600212020FFF7A9FA224600212120FFF7A4FA224600212D20FFF79FFA0023AB706B62BDE8F883404B1B7813F0400F23
:40144000CFD003F053FEDFF8FC80002588F80250224629462120FFF789FA0A2001F004FC224629462120FFF781FA284603F0E6F8354E012786F8217086F8207086F82270F3
:4014800086F82370642001F0EFFB4FF44840FFF793FC98F8293086F8213098F82A3086F8203098F82B3086F8223098F82C3086F82330642001F0D8FB224629462120FFF72E
:4014C00055FA224629462D20FFF750FA21461F48FFF75AFF224696210B20FFF747FADFF87890224649461020FFF740FA284603F0A5F8C8F8085086F8217088F829701448CB
:40150000FEF7C6FE134C3A4621461020FFF72EFA022249461020FFF729FA2A4621461020FFF724FA032221461020FFF71FFA052001F084FBBDE8F88303050700CF80FF1F4B
:401540007D010000BC81FF1FD080FF1FFAD005008468000003010700010107002DE9F8430446012265491020FFF700FA21464FF49620FFF709FF224602212020FFF7F6F9BB
:40158000322001F071FB5E4D2A4621460420FFF777F94FF4FA7001F067FB2A4621460420FFF76EF92AE003F0FBFD564803F024FE534A21460420FFF763F9534B9B78D3B1C1
:4015C000514D08206862FEF78BFE03F08FFD224600212020FFF7CAF9224600212120FFF7C5F9224600212D20FFF7C0F90023AB706B62BDE8F883642001F036FB404B1B78EA
:4016000013F0400FCFD003F071FDDFF8FC80002588F80250224629462120FFF7A7F90A2001F022FB224629462120FFF79FF9284603F022FB354E012786F8217086F820703C
:4016400086F8227086F82370642001F00DFB4FF44840FFF771FC98F8293086F8213098F82A3086F8203098F82B3086F8223098F82C3086F82330642001F0F6FA224629467A
:401680002120FFF773F9224629462D20FFF76EF921461F48FFF778FE224629460B20FFF765F9DFF87890224649461020FFF75EF9284603F0E1FAC8F8085086F8207088F841
:4016C0002A701448FEF7E4FD134C3A4621461020FFF74CF9022249461020FFF747F92A4621461020FFF742F9032221461020FFF73DF9052001F0A2FABDE8F8830302070056
:40170000CE80FF1F7D010000BC81FF1FD080FF1FFAD005009868000003010700010107002DE9F0410446022262491020FFF71EF921466148FFF728FE604B98694042FEF727
:4017400063FD224602212020FFF710F9322001F08BFA5B4D2A4621460420FFF791F84FF4FA7001F081FA2A4621460420FFF788F829E003F015FD534803F03EFD504A2146F3
:401780000420FFF77DF84D4B9B78CBB14B4D0F206862FEF7A5FD03F0A9FC224600212020FFF7E4F8224600212120FFF7DFF8224600212D20FFF7DAF80023AB70BDE8F0818F
:4017C000642001F051FA3E4B1B7813F0400FD0D003F08CFC394E0025B570224629462120FFF7C4F82846FEF70FFDB5610A2001F03BFA224629462120FFF7B8F82846FEF70F
:4018000003FDB561304F4FF0010887F8218087F8208087F8228087F82380642001F024FA4FF44840FFF748FC96F8293087F8213096F82A3087F8203096F82B3087F8223089
:4018400096F82C3087F82330642001F00DFA224629462120FFF78AF8224629462D20FFF785F821461448FFF78FFD2846FEF7CCFCB56187F8228086F82B801448FEF708FDE3
:40188000134C424621461020FFF770F8022211491020FFF76BF82A4621461020FFF766F8032221461020FFF761F8052001F0C6F9BDE8F081030207006EA30100BC81FF1F7B
:4018C000CD80FF1F7D010000D080FF1FAC68000003010700010107002DE9F0410446002003F0E4FA642001F0BFF921464FF44850FFF74AFD544BD8694042FEF779FC224607
:4019000002212020FFF732F8322001F0ADF94F4D2A4621460420FEF7B3FF4FF4FA7001F0A3F92A4621460420FEF7AAFF2AE003F037FC474803F060FC444A21460420FEF70E
:401940009FFF414B9B78D3B13F4D16206862FEF7C7FC03F0CBFB224600212020FFF706F8224600212120FFF701F8224600212D20FEF7FCFF0023AB706B62BDE8F0816420C8
:4019800001F072F9314B1B7813F0400FCFD003F0ADFB2D4F0026BE70224631462120FEF7E5FF0A2001F060F9224631462120FEF7DDFF3046FEF71CFCFE61264D4FF0010865
:4019C00085F8218085F8208085F8228085F82380642001F049F940F6D860FFF735FC97F8293085F8213097F82A3085F8203097F82B3085F8223097F82C3085F823306420BD
:401A000001F032F9224631462120FEF7AFFF224631462D20FEF7AAFF21464FF44850FFF7B3FC3046FEF7E4FBFE6185F8238087F82C800948FEF72CFCFF2003F037FA6420ED
:401A400001F012F9BDE8F081BC81FF1FCD80FF1F7D010000D080FF1FC068000038B505460C46042200212020FEF780FF042200212120FEF77BFF04216248FFF785FC002098
:401A800003F020FA0F2001F0D9F8012C03D8012001F0D4F800E00024012C00F29D80002C4DD104212846FEF781FF574C224604210846FEF7E5FE4FF4FA7001F0D5F8224687
:401AC00004210846FEF7DCFE2EE003F069FB4F4803F092FB4C4A04210846FEF7D1FE4C4B9B78F3B14FF61D20FEF7FAFB03F0FEFA042200212020FEF739FF0422002121207A
:401B0000FEF734FF042200212D20FEF72FFF404C0023A37021236362FF2003F0D3F9606A38BD642001F0A0F8374B1B7813F0200FCBD003F0DBFA0022354B9A704CE00421AA
:401B40006842FEF733FF304C224604210846FEF797FE4FF4FA7001F087F8224604210846FEF78EFE2EE003F01BFB284803F044FB254A04210846FEF783FE254B9B78F3B102
:401B80004FF61D20FEF7ACFB03F0B0FA042200212020FEF7EBFE042200212120FEF7E6FE042200212D20FEF7E1FE194C0023A37021236362FF2003F085F9606A38BD6420C5
:401BC00001F052F8104B1B7813F0200FCBD003F08DFA00220E4B9A7004210020FFF7D4FB042200212120FEF7C1FE042200212020FEF7BCFE052001F021F8FF2003F062F9D8
:401C0000002038BD6EA30100CF80FF1F7D010000BC81FF1F70B506460D461446042200212020FEF7A3FE042200212120FEF79EFE04212846FFF7A8FB002003F043F90F2039
:401C400000F0FCFF012C0FD83CB904213046FEF7ADFE0420FFF704F806E004217042FEF7A5FE0420FEF7FCFF04210020FFF78CFB042200212120FEF779FE04220121202078
:401C8000FEF774FE052000F0D9FFFF2003F01AF9002070BD0000000038B50022A24B5A62A24A5178137803EB0123A14A13607A2B0ED100219F48FFF767FB0020FFF77CF888
:401CC0000020FFF769FB984B586AFEF709FB38BD7B2B0ED101219748FFF756FB0020FFF72BF90120FFF73AFC8F4B586AFEF7F8FA38BD7C2B11D102218F48FFF745FB6420CE
:401D000000F0B2FF0020FFF7D7F90220FFF708FD854B586AFEF7E4FA38BD7D2B12D1032286491020FEF722FE0A2000F087FF0020FFF78AFA0320FFF7CFFD7B4B586AFEF745
:401D4000CFFA38BDB3F5F46F3ED1784A517913791B0403EB0163D17803EB0123927813441846002B00DAD81C6F4C801003F0EAFB69A3D3E9002303F04BFC03F05BFE2063D8
:401D8000FFF71AF8606200226D491020FEF7EEFD0A2000F053FF6B4D012229461020FEF7E5FD022268491020FEF7E0FD002229461020FEF7DBFD032229461020FEF7D6FDC3
:401DC000606AFEF78DFA38BDB3F5F66F3ED1574A517913791B0403EB0163D17803EB0123927813441846002B00DAD81C4E4D801003F0A8FB48A3D3E9002303F009FC03F09B
:401E000019FE6863FFF798F8686201224C491020FEF7ACFD0A2000F011FF4A4C012221461020FEF7A3FD022221461020FEF79EFD002221461020FEF799FD03222146102090
:401E4000FEF794FD686AFEF74BFA38BDB3F5FA6F21D1364A517913791B0403EB0163D17803EB0123927813441846002B01DA03F10F002D4C001103F065FB29A3D3E90023E6
:401E800003F0C6FB03F0D6FDA063FFF715F96062FEF726FA38BDB3F5FC6F1CD1032227491020FEF763FD214A517913791B0403EB0163D07803EB0023907818441A4CE06323
:401EC000FFF7C2F96062FEF70BFA03221F491020FEF74CFD38BD7E2B3AD1144A517913791B0403EB0163D17803EB012394781C449379012B03D80A2000F0B6FE02E0002200
:401F00000A4B9A71094B99792046FFF7A7FD064B586AFEF7E5F938BD9A999999999929409A99999999994940BC81FF1F3C82FF1FBC82FF1FFAD005006EA30100030507005D
:401F40000A010700030107000201070003030700B3F5F86F79D1BA4B59791A79120402EB0162D97802EB012299781144B54801635C7A1A7A120402EB0462DC7902EB0422A1
:401F80009D79154445635C7B1A7B120402EB0462DC7A02EB04229C7A1444846300290EDB084600DAC81C801003F0CCFAA0A3D3E9002303F02DFB03F03DFDA24B1863002D11
:401FC0000EDB284600DAE81C801003F0BBFA98A3D3E9002303F01CFB03F02CFD994B5863002C0FDB204601DA04F10F00001103F0A9FA91A3D3E9002303F00AFB03F01AFD7E
:40200000904B98638F4CA26B616B206BFFF76AF960620A2000F012FE8B4D012229461020FEF7A4FC022289491020FEF79FFC002229461020FEF79AFC032229461020FEF75C
:4020400095FC606AFEF74CF938BDB3F5F44F09D1FEF71AFB642000F0F1FD7A4B586AFEF73FF938BDB3F5FE4F09D1FEF7D5FA642000F0E4FD734B586AFEF732F938BDB3F5D7
:40208000FC4F11D16E4B9C7834B1012C03D07048FEF7FEF800E0FF24204602F089FC694B586AFEF71DF938BDFF2B13D16948FEF7EFF86948FEF7ECF84FF4FA7000F0BEFDCB
:4020C0000020FEF70DF94FF4FA7000F0B7FD00F0ADFD38BDB3F5F64F4CD1594B59791A79120402EB0162D97802EB012299780A445A4C6261597A1A7A120402EB0162D97924
:4021000002EB012299790A44A261597B1A7B120402EB0162D97A02EB01229B7A1A44E2614F48FEF7B5F800216069FFF72DF90121A069FFF729F90221E069FFF725F94948B1
:40214000FEF7A6F86069FEF755FA474D2846FEF79FF8A069FEF74EFA2846FEF799F8E069FEF748FA2846FEF793F8364B586AFEF7B7F838BD40F2D172934231D1304B597914
:402180001A79120402EB0162D97802EB012299780A442C4CA263597A1A7A120402EB0162D97902EB0122987910442C4BD8610221FFF7EAF8A06B002800DA0F30214C0011E0
:4021C00003F0C0F91CA3D3E9002303F021FA03F031FCA063FEF770FF606AFEF781F838BD40F2D272934241D1154B59791A79120402EB0162D97802EB012298781044114C29
:402200002064597A1A7A120402EB0162D97902EB01229979114461649A7AA264FFF7FAFC00206062FEF75CF838BD00BFAFF300809A999999999929409A9999999999494098
:402240003C82FF1FBC81FF1F0301070002010700D4680000FC68000004660000D080FF1F1C690000446900006C69000040F2C172934240F09480604B59791A79120402EB02
:402280000162D97802EB012299780A445B4D2A63597A1A7A120402EB0162D97902EB012299790A446A63597B1A7B120402EB0162D97A02EB0122997A0A44AA63597C1A7C5F
:4022C000120402EB0162D97B02EB0122997B0A444B4C6261597D1A7D120402EB0162D97C02EB0122997C0A44A261597E1A7E120402EB0162D97D02EB01229B7D1A44E261C6
:402300000A2000F0B1FC00216069FFF73DF80121A069FFF739F80221E069FFF735F8286B002800DA0330354C801003F00BF92EA3D3E9002303F06CF903F07CFB2063606B50
:40234000002800DA03302D4C801003F0FBF826A3D3E9002303F05CF903F06CFB6063A06B002800DA0F30254C001103F0EBF820A3D3E9002303F04CF903F05CFBA0636420DD
:4023800000F072FCA26B616B206BFEF7ABFF6062642000F053FC606AFDF7A2FF38BDB3F5F84F03D10020FDF79BFF38BDFE2B0FD1FF2002F045FD1348FDF76AFF0A2000F04F
:4023C0003DFC0020FDF78CFF002002F039FD38BD13240A4B5C620C48FDF75AFFFEF78CF92046FDF77DFF38BD9A999999999929409A999999999949403C82FF1FBC81FF1F41
:40240000D080FF1F7069000090690000FEE700BFF0B40022174611E050F82760F3B226F0FF0608E001EB420511F812406D78A5550132013BDBB2002BF4D10137252FEBD984
:40244000F0BC7047064B1B78DBB203F00701054A11701B09013213704422034B1A707047CF0100496E5800407658004008B50A46002103F05EFB08BD08B503F04FFB08BDC3
:4024800008B503F04BFB08BD38B501222C4B1A8018232C490B7002310A8002310B7002310A80294A137017210232118002321370332102321180023213700622234B1A7053
:4024C0005222A3F580731A70214B1B78DBB2214A13704FF4E262204B1A8041F25122023B1A80002419250CE01C4B1B7803F0010343EA440404F003044FF4F07002F08CFE02
:40250000013D0DB1032CEFD115B90320FFF77EFF134A4FF48073138007231370002311490B7048200231087013700532137002220D4B1A700D4A137843F01F03137038BD7C
:4025400080400040824000408A400040004300400F010049A14600402242004025420040044000400640004001400040A243004038B572B6464A137843F004031370002440
:402580000CE0444D630019194A0011462A44084691882858FFF76AFF0134E4B2082CF0D900240BE03B49A3001819420088188022C16B806BFFF760FF0134E4B2002CF1D0DD
:4025C000344C04F1440104F6C460FFF721FF324A324B1A60A2F5802203F500631A6002F1004203F520731A602D4A137843F0020313701032137843F002031370294D2B78D4
:4026000043F040032B70A2F58632513A137843F0100313700A2204F65C712348FFF72CFF0A2204F668712148FFF726FF082204F674711F48FFF720FF0A2204F67C711D485C
:40264000FFF71AFF0A2204F688711B48FFF714FF082204F694711948FFF70EFF0A2204F69C711748FFF708FF164A137843F008031370154C61232370FFF706FFC12323700E
:40268000FFF7E0FE0E2229461048FFF7F9FE38BDE8460040B869000004040444580C014003500140A043004000510040F05100401251004020510040305100404251004038
:4026C000505100402243004000480040B043004008B503F0F7F903680C2B00D1FEE7FEE708B5094B1A681044084BC31A802B02DC054B186005E003F0E5F90C2303604FF0CD
:40270000FF32104608BD00BF0881FF1F0084FF1F08B5104E104D16E029686B68AC68002204E051F8040B43F8040B0432A242F8D1E868002203E0002143F8041B043282420A
:40274000F9D11035013E002EE6D103F0C1F9FDF799FCFEE701000000687C000008B5104A104B1A60104A136843F40073136000230AE0032B03D80D4A52F8231000E00C4929
:402780000C4A42F8231001332F2BF2D90A4B1A780A4B1A70074A0A4B1A60FFF7E9FE08BD0004FA050CED00E014ED00E000000000D12600000080FF1FBC760040C080FF1F53
:4027C00008ED00E0044A137803F0FE0300F0010018431070704700BF20510040044A137803F0FD03400000F0020018431070704720510040044A137803F0FB03800000F0C9
:402800000400184310707047205100401022014B1A60704700E100E00822014B1A60704700E100E008B502F0FFFC0C4A137843F0200313700332137843F010031370013259
:40284000137843F01003137002F0F2FC01F0C0FEFFF7DCFFFFF7E0FF08BD00BF906400401022014B1A60704780E100E00822014B1A60704780E100E010B5FFF7F1FF064B43
:402880001C78064A137803F009031C4300231370FFF7BCFF204610BD63640040C982FF1F10B5FFF7E3FF064B1B78064A147804F040041C4300231370FFF7AEFF204610BDE1
:4028C00064640040D782FF1F10B504462B4B1A7802F0FF0312B1013BDBB200E00423284A1278D2B29342F1D0FFF7BAFF254B1978254A137803F009030B4313701F4B1A782F
:40290000D2B21F4B1B78DBB29A4207D11E4B1B7813F0040F02D01D4B1C702CE0184A13780133DBB213701378DBB2042B02D90022134B1A70124B1A78D2B2104B1B78DBB2A6
:402940009A420ED10D4A13780133DBB213701378DBB2042B02D90022084B1A7001220C4B1A70074B1B78DBB20A4AD4540A4A137843F004031370FFF749FF10BDD382FF1F49
:40298000D582FF1F63640040C982FF1F43640040D282FF1FC482FF1F8364004010B5FFF765FF134B1A78D2B2124B1B78DBB29A4214D0114B1B7813F0FF0F0CD10C4A1378C0
:4029C0000133DBB213701378DBB2052B06D90022074B1A7002E00022074B1A70044B1B78DBB2064AD45CE4B2FFF716FF204610BDD682FF1FD482FF1FC082FF1FCC82FF1F15
:402A000008B501E00A4B1B780A4B1B7813F0200FF8D102F009FC084B1A7842F001021A701A7802F0FE021A7002F002FC08BD00BF53640040646400409364004010B50F22E4
:402A4000174B1A70174C102323600621042000F029F91549042000F011F9082323600721032000F01FF91149032000F007F9FFF7C7FF00240E4B1C700E4B1C700E4B1C707B
:402A80000E4B1C700E4B1C700E4B1C70FFF7F4FEFFF706FF0C4B1C70202201331A7010BD8064004080E100E0E92A0000892B0000C082FF1FD682FF1FD482FF1FD282FF1FEC
:402AC000D382FF1FD582FF1F8364004008B5054B1B7823B9FFF7B2FF0122024B1A70FFF7A1FE08BD0882FF1F28E01F4B19781F4A137803F009030B431370137813F0040F40
:402B000024D01B4B1B7813F0FF0F0CD1194A13780133DBB213701378DBB2042B06D90022144B1A7002E00022114B1A70114B1B78DBB2114AD35CDBB2104A13700D4B1A7813
:402B4000D2B20F4B1B78DBB29A42CED1094B1A78D2B20B4B1B78DBB29A4204D1094A137803F0FB031370704763640040C982FF1FD282FF1FD382FF1FC482FF1F43640040A2
:402B8000D582FF1F83640040204B1A7820490B7803F0400313430B7032E01E4B1A78D2B21D490B780133DBB20B700B78DBB2052B02D90021184B1970174B1978C9B2174BDB
:402BC0001B78DBB299420ED114490B780133DBB20B700B78DBB2052B02D900210F4B197001210F4B19700C4B1B78DBB20D49CA54064B1A7806490B7803F0400313430B7014
:402C0000034B1B7813F0200FC7D1704764640040D782FF1F53640040D482FF1FD682FF1FC082FF1FCC82FF1F01BE7047024A137843F0010313707047F646004010B50446BD
:402C400005E0084B186802F0E7FAA4F50044B4F5004FF6D8034B586800FB04F002F0DCFA10BD00BF0C81FF1F08B5034B1B7A00FB03F002F0D1FA08BD0C81FF1F70B5044600
:402C80000E46074B1D681F2802D90020FFF7CCFF04F01F04103455F8240045F8246070BD08ED00E038B504460D46072902D90020FFF7BAFF1F2C02D90020FFF7B5FF04F00F
:402CC0001F0000F1604000F564406D01EDB2057038BD00BF134B1B78DBB20360124A127843EA02230360114A127843EA024303600F4A127843EA026303600E4B1B78DBB2CE
:402D000043600D4A127843EA022343600B4A127843EA024343600A4A127843EA02634360704700BF0301004904010049EC4600400201004901010049000100490501004960
:402D400006010049F8B502F06FFA0546404A137843F0010313701032137843F00103137001273C4B1F700226943B1E7002F5E2521B32137803F07F0313700020FFF774FF13
:402D8000354C237803F0F9032370344A137803F0DF03137023783B4323703846FFF764FF2820FFF761FF2E4B1A7802F07F021A701A7802F0BF021A70237833432370304602
:402DC000FFF752FF237843F0040323700023254A137001321370284602F02AFA07211720FFF760FF20491720FFF748FF07211820FFF758FF1D491820FFF740FF0721152067
:402E0000FFF750FF1A491520FFF738FF07210620FFF748FF17490620FFF730FF07210846FFF740FF14490720FFF728FF07210820FFF738FF11490820FFF720FF07210C209E
:402E4000FFF730FF0E490C20FFF718FFF8BD00BFA54300409D6000409443004012600040F851004084600040CD380000B5360000C938000029380000593800008D380000A6
:402E8000693B000010B5002304E00124244AD4542344DBB2012BF8D9224B18700023224A1370224A1370224A1370224A1370224A1370224A1370224A1370224B4FF40002A3
:402EC0001A604FF080721A604FF400121A6040221A6080221A604FF480721A6011B1012906D00BE0184A137803F0FE0313700AE0154A137843F00103137004E0124A1378CD
:402F000043F0010313700322104B1A708022203B1A70012002F080F904220D4B1A7010BD8883FF1FFB82FF1FF082FF1F0283FF1F0883FF1FF182FF1FFC82FF1F1983FF1F5E
:402F4000F282FF1F00E100E009600040286000401260004038B504460D46064B1B7823B9FFF7F0FE0122034B1A7029462046FFF789FF38BD0982FF1F002304E001210E4A40
:402F8000D1540B44DBB2012BF8D900230B4A13700B4A13700B4A13700B4A13700B4A13700B4A13700B4A137003220B4B1A708022203B1A70704700BF8883FF1FF082FF1F4D
:402FC0000283FF1F0883FF1FF182FF1FFC82FF1F1983FF1FF282FF1F28600040014B1878704700BF0883FF1F064B1B7813F0FF0F05D0044B1878C0B200221A7070470020AB
:40300000704700BF0283FF1F00EB40008300024A13445878704700BF1C83FF1F431EDBB2072B0BD8064B00011A18185C00F00F00537843EA0020023880B270470020704717
:40304000FC5F0040431EDBB2072B3CD8F0B4074600EB4004A3001C4C2344DB889BB2C3F500739A4208D900EB400293002344DA8892B2C2F5007292B200EB4004A300124CED
:403080002344DB7843EA1223104D04012E192B55D3B2737039B909E0CE5C3D010C4C665501339BB200E000239A42F5D8420002449300054A134400225A705A79D2B20001DB
:4030C000044B1A54F0BC70471C83FF1FFC5F004078600040FE5F0040431EDBB2072B0BD8420002449300054A134400225A705A79D2B20001024B1A54704700BF1C83FF1FAD
:40310000FE5F004070B5D9B1054614460E46C8B1082819D8FFF782FFA04203D22846FFF77DFF0446002305E02901094A525CF25401339BB2A342F7D32846FFF7CDFF04E09B
:40314000002402E0002400E00024204670BD00BF786000404FF40012014B1A60704700BF00E100E010B4FF2400230EE0094AD25C02EB42029100084A11448A7AD2B2824237
:4031800001D11C4602230133DBB2012BEED9204610BC7047DC82FF1F1C83FF1F10B5204C2079FFF7DFFF237813F0800F0ED06378DBB2212B2FD11B4B07221A80C0EBC000EF
:4031C000194A1044586000F0E3FA10BD144B5B78DBB2202B02D0222B10D01EE0114A07231380C0EBC00310490B4453600F4A135C43F00103135400F0F3FA10BD084B9B7868
:403200000B4A22F81030094A135C43F00203135400F07CF910BD002010BD002010BD00BF006000400C83FF1F1C81FF1FEC82FF1FD882FF1F10B500241F4B1C701F4B1C70D2
:403240005C700AE01E4B185DC0B2431EDBB2072B01D8FFF741FF0134E4B2012CF2D9194B1B7813F0FF0F1AD0154B1B7813F0FF0F17D0154B1B7813F0FF0F14D0114B1B78A2
:40328000DBB2082B11D80E4B1B78DBB2082B0ED80D4B1B78DBB2082B0BD8002010BD012010BD012010BD012010BD012010BD012010BD012010BD00BF0A82FF1FEC82FF1FCF
:4032C000E482FF1FE882FF1FDC82FF1F70B506460D460F4B1B780F4AD45CE4B204EB440293000D4A13441B899BB28B4209D204EB44029300084A13441D89ADB20020FFF7DB
:4033000093FC2A4631462046FFF79CFE70BD00BF0A82FF1FE882FF1F1C83FF1F08B5034B1B78034AD05CFFF76FFE08BD0A82FF1FE482FF1F08B5084B1B78084AD35CDBB228
:4033400003EB43018A0006490A44128992B201461846FFF7D7FE08BD0A82FF1FE482FF1F1C83FF1FC37803F0030390F9020000280FDA032B06D002F001030B48C15442F091
:4033800001020EE0C2F380030848C15442F0040207E0032B05D0C2F340030548C15442F002021046704700BFE882FF1FDC82FF1FE482FF1F1D4B19781D4A13889BB20B44E2
:4033C0009BB2138000220FE01A494B681B78DBB2194883544B6801334B600132D2B20B889BB2013B9BB20B80124B1B889BB20BB1072AE9D90D4B1B78DBB2082B00D05AB1AF
:403400000E490B7883F080030B700F210C4B197002210C4B197004E0022309490B7009490B70094B1A70014B1A707047F282FF1F0683FF1F0C83FF1F00600040FD82FF1FFD
:40344000FA82FF1FF082FF1F1883FF1F0222074B1A708022064B1A700F22064B1A700023054A1370054A137001207047F082FF1FFD82FF1FFA82FF1FF282FF1F1883FF1F2F
:4034800008B5FFF797FF08BD10B4194B197801F00F010239C9B2174A13889BB20B449BB21380002011E0144A5468144B1B5CDBB223705368013353600130C0B20139C9B2FB
:4034C00013889BB2013B9BB213800B4B1B889BB20BB10029E7D10A4B19700A4A137883F0800313700B22084B1A7010BC704700BF296000400683FF1F0C83FF1F00600040A6
:403500001883FF1FFD82FF1FFA82FF1F0623064A1370064A13708022054B1A700022054B1A700120704700BFF082FF1FFA82FF1FFD82FF1F1883FF1F064B9B6843B1054BA5
:403540009A6810709A6804490988518000229A60704700BF0C83FF1F0683FF1F08B5134B1A78D2B21A701B78DBB213F0800F02D00F4A137008BD0220FFF7DEFF0D4B1B7872
:4035800003F06003202B05D0402B06D043B900F0DDFD06E001F050FE03E000F085FF00E0002010B90322024B1A7008BD28600040FA82FF1F0060004008B5094B1978094A91
:4035C00013889BB20B449BB213800022064B1A700120FFF7B1FF0322044B1A7008BD00BFF282FF1F0683FF1FF082FF1FFA82FF1F08B50B4B1B78DBB2042B06D0062B07D0CB
:40360000022B0BD1FFF7D8FF08BDFFF73DFF08BD0320FFF791FF0322024B1A7008BD00BFF082FF1FFA82FF1F08B50022044B1A700120FFF781FF0322024B1A7008BD00BFD6
:40364000F082FF1FFA82FF1F08B50B4B1B7813F0FF0F07D0084A137843F0800307490B70002313700022064B1A700120FFF764FF0322044B1A7008BDFC82FF1F0860004010
:40368000F082FF1FFA82FF1F08B5094B1B78DBB2042B06D0062B07D0022B07D1FFF7F0FE08BDFFF7C1FF08BDFFF7CEFF08BD00BFF082FF1F08B5284B1B78DBB213F0100F30
:4036C00048D013F0800F0CD003F00F03012B16D1FFF744FF214B1B7813F0800F11D1012312E013F0400F03D0FFF7CEFF01230BE013F0200F07D0FFF77BFF012304E00023CF
:4037000002E0002300E0002323B3134B1B7813F0800F1FD1124B1B78124A12781343124A13701278D2B2934214D10C4B1B78DBB2094A127812F0800F07D1084B1B78DBB235
:40374000054A1370137803F00F03044A1278D2B29342EAD108BD00BF28600040FA82FF1FFD82FF1F1883FF1F296000400022064B1A80064B9B682BB1044A916800230B70D4
:4037800092685380704700BF0683FF1F0C83FF1F08B50F4B1B889BB213B9FFF757FE15E002220C4B1A7000220B4B1A70FFF7DEFF0A4AD179937943EA0123054A128892B25D
:4037C000934201D2024A1380FFF7F4FD012008BD0C83FF1FF082FF1FFD82FF1F0060004008B504220B4B1A7080220B4B1A70FFF7BDFF0A4AD179937943EA0123084A12881D
:4038000092B2934201D2064A13800B22054B1A70012008BDF082FF1FFD82FF1F006000400C83FF1FFA82FF1F0122094B1A700F3B9B7C084B1B7B03F00303934204D0054A7C
:40384000D37B83F08003D3730122024B5A7370470B6000401C83FF1F02220A4B1A700F3B93F82230084B1B7E03F00303012B04D0054AD37E83F08003D3760122024B5A7634
:40388000704700BF0B6000401C83FF1F04220C4B1A700F3B93F832300A4B93F8243003F00303012B06D0074A92F8273083F0800382F827300122034B83F82520704700BF1D
:4038C0000B6000401C83FF1F704700BF08B5FFF753FB08BD08B50C4B18780138C0B200F0CFF90A4B1B79DBB29A1C00EBC20042680749CB5C02EBC3035B68596A0B78054A18
:403900001380516008BD00BF0883FF1F00600040F882FF1F0C83FF1F08B50E4B18780138C0B200F0ADF90C4B1B79DBB29A1C00EBC20042680949CB5C02EBC3035B68DB6992
:40394000597813F8022B42EA012205490A804B6008BD00BF0883FF1F00600040F882FF1F0C83FF1F10B500221A4B1A801A4B18780138C0B200F084F91849CB78DAB20B79B3
:40398000DBB2991C00EBC1004168012B20D81448C35C01EBC3014968531EDBB2022B17D802F10053013B01EBC3000C4A9278D2B211F833309A420BD8406802EB42029100AC
:4039C00042185468034B5C60415A198092689A6010BD00BF0C83FF1F0883FF1F00600040F882FF1F08B55B4B1A79D2B21B7813F0800F4DD0574B5B78013B052B00F28E80C8
:403A0000DFE803F0212B3B8C8C03524BDB78DBB2212B09D1FFF75EFF4F4B1B889BB2002B7ED0FFF7B5FE08BD4A4BDB78DBB2222B78D1FFF771FF484B1B889BB2002B73D061
:403A4000FFF7A6FE08BDFFF78DFF434B1B889BB2002B6BD0FFF79CFE08BD012A68D83D4B9B7813F0FF0F65D13B4901230B803B4B1A444A60FFF78CFE08BD012A5CD83649FB
:403A800001230B80364B1A444A60FFF781FE08BD304B5B78DBB20A2B0DD00B2B2FD0092B4CD1FFF75FFF2C4B1B889BB2002B47D0FFF796FE08BD012A44D8264B9B7813F007
:403AC000FF0F41D1234BDB78DBB224498B54895CC9B2244B9B5CDBB2994203D20021214B995409E01F4B9B5CDBB2012B04D91B4B9B5CDBB21B498B54FFF708FD08BD012A97
:403B000024D8144B9B78DBB2012B21D8114B9B78DBB213498B54FFF7F9FC08BD002008BD002008BD002008BD002008BD002008BD002008BD002008BD002008BD002008BD71
:403B4000002008BD002008BD002008BD002008BD002008BD006000400C83FF1F8C83FF1F8883FF1F9083FF1F08B500F0BBFC08BD70B588B0054603AC174E0FCE0FC43368C8
:403B8000237035B322232B7003236B7001A8FFF7A1F8002402231AE008AA224412F81C2C08A901EB121111F8141CE954581C00212954981C02F00F0208AE324412F8142C4F
:403BC0002A54DA1CA9540134E4B20433DBB2212BE2D908B070BD00BFE079000010B401233EE019461A010C242148845403EB4300820020480244527912F0FF0F13D003EBC3
:403C0000430082001B480244127912F0800F04D01801194A024494700AE01801164A02440820907004E01801134A0244802090704800084482000F480244D488E4B20801A1
:403C40000B4901448C71D088C0F30720C871D088C0B20871D288C2F307224A710133DBB2082BBED9FF22054B1A7010BC704700BF706000401C83FF1FFC5F00400A60004033
:403C8000074B1A78074B03EBC2035B681A7C824204D9C000103018444068704700207047FB82FF1F307A0000F8B5404B1B7813F0FF0F79D03D4B18780138C0B2FFF7E0FF8D
:403CC000047AC2683A4B1878C0B200236AE01178884264D13749095CC9B25578A9425ED1917801F07F01D67806F00306DFF8C8E04D000D44AF000EEB07054FF0000C85F8F9
:403D000003C092F802C085F804C092F803C00EF807C097882F8192F90250002D0DDA012E01D1072700E00D274E000E44B500224E35446F7101266E700CE0012E01D10527DA
:403D400000E009274E000E44B5001B4E35446F7100266E70DFF868E00F010EEB07060125B57001FA05F529448D00134929440D89C5F307250EF807500D89EDB27570CE8899
:403D8000F6B20E4D3D44AE71CE88C6F30726EE71CE88F6B22E71C988C1F30721697108320133DBB2A34292D3F8BD00BF0883FF1FF182FF1FF882FF1F1C83FF1F70600040C9
:403DC000FC5F0040034B1A78034B03EBC2035868704700BFFB82FF1F307A000008B5084B18780138C0B2FFF74BFF30B142681279023200EBC203586808BD002008BD00BF1E
:403E00000883FF1F2DE9F047002310E0724D5900CA189600AC190022AA55A270E2702281A272627034462C4462710133DBB2082BECD940B90AE000226849CA546849CA54FD
:403E40000133DBB200E00023012BF4D9654B1B7813F0FF0F00F0BD80624B18780138C0B2FFF70EFF80464368DB7913F0400F05D05D4A137843F00103137004E05A4A13782E
:403E800003F0FE03137098F808704FF0000A01266FE0D8F80C50002467E0AB7803F07F039E425FD1314606EB460083004A4803441B899BB2A888834206D206EB460E4FEA3F
:403EC0008E03454A134418812B784448C35CDBB26878834246D195F802C0DFF8FCE04B000B4498000EEB000383F804C0EB780EF80030EB7803F0030395F90200002813DA12
:403F0000012B02D14FF0070901E04FF00D09DFF8C8E04B0003EB010C4FEA8C00704480F805900121417012E0012B02D14FF0050901E04FF00909DFF8A0E04B0003EB010CD2
:403F40004FEA8C00704480F8059000214170AB790A2B01D0022B05D1524631462846FFF701FA824608350134E4B2BC4295D30136F6B2082E8DD9D8F80C0000220CE08378B8
:403F800003F07F0310F8084B03EB43039900124B19448C720132D2B2BA42F0D3FFF71EFF124B1860002301210FE00B4D4A00501884002C44E380228992B213449BB203F033
:403FC000010213449BB20131C9B20829EDD9FFF705FEBDE8F08700BF1C83FF1FF882FF1F0083FF1F0883FF1F1983FF1FF482FF1F08B5154B1B7903F07F035A1ED2B2072A62
:4040000020D8590019448A0010490A44917841F0010191700021D170517841F002015170127912F0800F05D01B01094A1A448D23937004E01B01064A1A4489239370FFF780
:4040400065FA08BD002008BD006000401C83FF1FFC5F0040274B1B7903F07F035A1ED2B2072A44D810B5590019448A0022490A44917801F0FE0191700021D1701F4C1801DD
:40408000215C01F07F012154517801F0FD015170127912F0800F13D003EB43018A0016490A445278D2B2012A04D1224602440C23937019E01B01114A1A440D23937013E09A
:4040C00003EB43018A000C490A445278D2B2012A05D11B01094A1A440823937004E01B01064A1A4409239370FFF710FA10BD0020704700BF006000401C83FF1FFC5F0040DF
:4041000010B50E4B1C79E4B20D4B18780138C0B2FFF7B6FD43681B799C4201D9022C0AD8084A135DDBB208490B55044B9B78DBB21355012010BD002010BD00BF0060004062
:404140000883FF1FF882FF1F0083FF1F10B5964B1B78DBB20021954A118013F0800F00F0B380914A5278D2B20A2A00F27981DFE812F06F00770177017701770177010B006D
:40418000770198007701A000874BDB78DBB2012B09D1FFF717FE4268844B5A6012221A80FFF7F6FA10BD804BDB78DBB2022B13D17D4B9878FFF764FD002800F053814268DF
:4041C0007A4B5A605A68D1785A68927842EA01221A80FFF7DDFA10BD734BDB78DBB2032B05D032E00A7811440133DBB201E000236F496D4A9278D2B2934203D20A7812F06C
:40420000FF0FEFD1684B9B78DBB2EE2B00D16949654B9B7813F0FF0F0BD0634B9B78DBB2654A127C934204D1644C2046FFF7A0FC21460B7813F0FF0F00F016810B785B4A8B
:4042400013805160FFF7A4FA10BD00F0F5FF10BD13F0030317D0022B40F0088153490B80514B1B7903F07F0303EB43039A00544B1A449278D2B2534B1A7000225A704B602E
:40428000FFF786FA10BD494902230B804E4B1A78D2B24C4B1A7000225A704B60FFF778FA10BD424B01221A80484A5A60FFF770FA10BD3E4A012313803B4B1B7944490B44E5
:4042C0005360FFF765FA10BD374A5278013A0A2A00F2CE80DFE812F04C00CC009700CC000B00CC00CC00CC001300CC0030002E4B9B78DBB2374A1370FFF708F910BD2A4BD7
:404300009B7803F0FF041BB1601EC0B2FFF7B8FC04B110B9002C40F0AD802C4B1B78DBB29C4206D0294B1C7001202B4B1870FFF769FDFFF7EBF810BDFFF7E2FE002800F0AD
:404340009B80194A1379DBB21279D2B223490A70234AD25CD2B21E49CB5CDBB29A4204D001221D4B1A70FFF79FFCFFF7CFF810BD03F00303012B35D04BB1022B7ED10A4BA0
:404380009B7813F0FF0F7BD1FFF764FE10BD064B9B78DBB2012B75D10B4A137803F0FD031370FFF7B3F810BD006000400C83FF1FD07A00001C7A0000FC7B0000D483FF1F28
:4043C0001C83FF1F0C82FF1F1983FF1F0883FF1FF882FF1FFC82FF1F0283FF1FF182FF1F0083FF1F2D4B1B79DBB2012B4CD82B4B98781B79DBB22A49CA5C22EA0002CA5493
:40440000FFF784F810BD03F00303012B17D04BB1022B3BD1214B9B7813F0FF0F38D1FFF7E7FD10BD1D4B9B78DBB2012B32D11D4A137843F002031370FFF768F810BD174B53
:404440001B79DBB2012B27D8144B98781B79DBB21349CA5C22EA0002CA54FFF757F810BD002010BD002010BD002010BD002010BD002010BD002010BD002010BD002010BD38
:40448000002010BD002010BD002010BD002010BD002010BD002010BD002010BD006000400483FF1F1983FF1F08B50B4B1B7813F0800F0CD0084B5B78DBB2012B09D1074B63
:4044C000074A5A6012781A80FFF762F908BD002008BD002008BD00BF006000400C83FF1FF4790000024B1878C0F38010704700BF8F450040084A137843F0040313701032AE
:40450000137843F00403137002F66532137843F001031370704700BFA3430040014B1880704700BF1C4F0040014B1880704700BF1E4F0040014B1870704700BF1B4F0040C3
:4045400008B5194A137843F0020313700232137803F08F0343F010031370144B1A7802F0CF021A701A7842F030021A701A7802F0F0021A701A7842F00F021A707820FFF71D
:40458000CDFF0120FFF7D0FF0020FFF7D3FF084A137843F00403137002F67632137843F00103137008BD00BF184F0040234F0040A343004008B5054B1B7823B9FFF7C0FFAE
:4045C0000122024B1A70FFF795FF08BD0E82FF1F054A137843F0080313701032137843F008031370704700BFA243004008B50222054B1A6005490120FEF740FB072101206D
:40460000FEF750FB08BD00BF80E100E0E946000010B50224064B1C6000F0A0F8A0F5004000B2044B1B68044A1460184410BD00BF80E100E01082FF1F00E100E038B5054619
:404640000224054B1C604FF4004000F081F8034B1D60034B1C6038BD80E100E01082FF1F00E100E0024B187800F00F00704700BF6964004040F00700014B1870704700BF40
:404680008964004008B50F20FFF7F4FFFFF7EAFF00F0CAFD054A137843F01003137000F0C7FD0222024B1A6008BD00BF9964004000E100E008B500F0A3F84FF4004000F0E3
:4046C00047F80022064B1A60064B1B7823B9FFF78DFF0122034B1A70FFF7D4FF08BD00BF1082FF1F0F82FF1F0D4B1B78DBB213F0010F06D00B490A6802F5FF427F320A602B
:4047000007E013F0020F04D006490A68A2F500420A6013F0040F02D00022024B1A607047696400401082FF1F024A137843F080031370704779650040014B1870704700BF32
:4047400087650040014B1878704700BF67650040014B1880704700BF0A6A0040024B1B78024B188880B27047056500408A6A0040014B188880B270478A6A0040014B188020
:40478000704700BF4A6A0040014B1880704700BF6A6A004008B501E0FFF7EAFFFFF7D2FF10F0400FF8D108BD08B5134B1A7802F0F8021A701A7802F0FC021A70FFF7EAFFF2
:4047C0004FF40040FFF7DAFF4FF40040FFF7C0FF0020FFF7B1FFFFF7B5FF4FF40040FFF7D3FF00F021FD054A137843F01003137000F01EFD08BD00BF7965004097650040DA
:4048000008B5054B1B7823B9FFF7CEFF0122024B1A70FFF789FF08BD1482FF1F08B50D490520FEF72BFA07210520FEF73BFA0023094A13707221094A11702021013A117022
:404840000621593A117047211032117002F5A872137008BDFD4800001582FF1F8264004010B500F0E1FC04460B4A137843F020031370013A137843F0100313702022074BA1
:404880001A60074A137843F01003137000F082F8204600F0CDFC10BD9264004000E100E09865004008B5054B5B7823B9FFF7B6FF0122024B5A70FFF7D3FF08BD1582FF1F6C
:4048C000034B1B7813F0040FFAD1024B18707047686500404865004038B5074B5B782BB938BDFFF7EDFF0134A4B201E005460024285D0028F5D138BD1582FF1F1D4B1B78B0
:40490000DBB213F01E0F05D01B4803F01E0201780A43027003F0200303F0FF0233B3174B1978C9B2164B1B78DBB21648C154164B1B7813F0FF0F02D00121144B19701049AB
:404940000B780133DBB20B700B78DBB23F2B02D900210B4B19700A4B1978C9B20C4B1B78DBB2994202D10121074B1970002AC5D1704700BF616400401582FF1F45640040C7
:404980001882FF1F9483FF1F1982FF1F1A82FF1F1782FF1F054A137843F0100313701032137843F010031370704700BFA2430040044A137803F0FB03800000F00400184373
:4049C00010707047F0510040044A137803F0BF03800100F0400018431070704720510040044A137803F0EF03000100F0100018431070704720510040044A137803F0F703B5
:404A0000C00000F008001843107070472051004008B50122054B1A6005490020FEF72EF902210020FEF73EF908BD00BF80E100E00D4B000010B50124064B1C6000F068FAB2
:404A4000A0F5004000B2044B1B68044A1460184410BD00BF80E100E02082FF1F00E100E038B505460124054B1C604FF4004000F049FA034B1D60034B1C6038BD80E100E0C7
:404A80002082FF1F00E100E0024B187800F00F00704700BF6664004040F00700014B1870704700BF8664004008B50F20FFF7F4FFFFF7EAFF00F0B8FB054A137843F01003F7
:404AC000137000F0B5FB0122024B1A6008BD00BF9664004000E100E008B500F06BFA4FF4004000F00FFA0022064B1A60064B1B7823B9FFF78DFF0122034B1A70FFF7D4FFA9
:404B000008BD00BF2082FF1F1C82FF1F0D4B1B78DBB213F0010F06D00B490A6802F5FF427F320A6007E013F0020F04D006490A68A2F500420A6013F0040F02D00022024BD1
:404B40001A607047666400402082FF1F084A137843F0020313701032137843F00203137002F65932137843F001031370704700BFA3430040014B1880704700BF104F0040BD
:404B8000014B1880704700BF124F0040014B1870704700BF0F4F004008B5194A137843F0020313700232137803F08F0343F010031370144B1A7802F0CF021A701A7842F09D
:404BC00030021A701A7802F0F0021A701A7842F00F021A7046F2A810FFF7CCFF0120FFF7CFFF0020FFF7D2FF074A137843F00203137002F66A32137843F00103137008BDE8
:404C00000C4F0040174F0040A343004008B5054B1B7823B9FFF7C0FF0122024B1A70FFF795FF08BD2482FF1F08B50422054B1A6005490220FEF722F807210220FEF732F83A
:404C400008BD00BF80E100E0254D000010B50424064B1C6000F0D6F9A0F5004000B2044B1B68044A1460184410BD00BF80E100E02882FF1F00E100E038B505460424054B07
:404C80001C604FF4004000F0B7F9034B1D60034B1C6038BD80E100E02882FF1F00E100E0024B187800F00F00704700BF6E64004040F00700014B1870704700BF8E640040EA
:404CC00008B50F20FFF7F4FFFFF7EAFF00F0ACFA054A137843F01003137000F0A9FA0422024B1A6008BD00BF9E64004000E100E008B500F0D9F94FF4004000F07DF9002236
:404D0000064B1A60064B1B7823B9FFF78DFF0122034B1A70FFF7D4FF08BD00BF2882FF1F2582FF1F0D4B1B78DBB213F0010F06D00B490A6802F5FF427F320A6007E013F02D
:404D4000020F04D006490A68A2F500420A6013F0040F02D00022024B1A6070476E6400402882FF1F084A137843F0010313701032137843F00103137002F64D32137843F095
:404D800001031370704700BFA3430040014B1880704700BF044F0040014B1880704700BF064F0040014B1870704700BF034F004008B5194A137843F00203137002321378F3
:404DC00003F08F0343F010031370144B1A7802F0CF021A701A7842F030021A701A7802F0F0021A701A7842F00F021A707820FFF7CDFF0120FFF7D0FF0020FFF7D3FF084ACE
:404E0000137843F00103137002F65E32137843F00103137008BD00BF004F00400B4F0040A343004008B5054B1B7823B9FFF7C0FF0122024B1A70FFF795FF08BD2C82FF1F47
:404E4000044A137803F07F03C001C0B218431070704700BF20510040014B1870704700BF75650040044A137803F0FB03800000F0040018431070704750510040044A1378C1
:404E800003F0F703C00000F0080018431070704750510040044A137803F0EF03000100F0100018431070704750510040044A137803F0DF03400100F0200018431070704717
:404EC00050510040044A137803F0BF03800100F0400018431070704750510040024A137843F080031370704776640040014B1870704700BF84650040014B1878704700BF79
:404F000064650040014B1880704700BF0C680040024B1B78024B188880B27047066400408C680040014B188880B270478C680040014B1880704700BF4C680040014B18808B
:404F4000704700BF6C68004008B501E0FFF7EAFFFFF7D2FF10F0400FF8D108BD08B5134B1A7802F0F8021A701A7802F0FC021A70FFF7EAFF4FF40040FFF7DAFF4FF40040A3
:404F8000FFF7C0FF0020FFF7B1FFFFF7B5FF4FF40040FFF7D3FF00F047F9054A137843F01003137000F044F908BD00BF766400409465004008B5054B1B7823B9FFF7CEFF6B
:404FC0000122024B1A70FFF789FF08BD2D82FF1F024A137843F08003137070477F640040014B1870704700BF8C640040014B1878704700BF6C640040014B1880704700BF87
:4050000016680040024B1B78024B188880B270470B64004096680040014B188880B2704796680040014B1880704700BF56680040014B1880704700BF7668004008B501E08E
:40504000FFF7EAFFFFF7D2FF10F0400FF8D108BD08B5134B1A7802F0F8021A701A7802F0FC021A70FFF7EAFF4FF40040FFF7DAFF4FF40040FFF7C0FF0020FFF7B1FFFFF759
:40508000B5FF4FF40040FFF7D3FF00F0CDF8054A137843F01003137000F0CAF808BD00BF7F6400409C64004008B5054B1B7823B9FFF7CEFF0122024B1A70FFF789FF08BD84
:4050C0002E82FF1F084A137843F0080313701032137843F00803137002F67132137843F001031370704700BFA3430040084A137803F0FE031370A2F68132137803F0F70323
:4051000013701032137803F0F7031370704700BF244F0040014B1870704700BF274F0040014B1880704700BF284F0040014B1880704700BF2A4F004008B5164A137803F0C7
:40514000010313700232137803F0FC031370124B1A7802F0CF021A701A7842F030021A701A7802F0F0021A701A7842F00F021A700A4A137843F0010313704EF65F20FFF707
:40518000CFFF4EF65F20FFF7D1FF0820FFF7C2FF08BD00BF244F00402F4F0040254F004008B5054B1B7823B9FFF7C6FF0122024B1A70FFF787FF08BD2F82FF1F014B1B6800
:4051C0005866704708ED00E04001C0B2014B1870704700BF09E400E04FF40072014B1A60704700BF00E100E04FF40072014B1A60704700BF80E100E010B50446FFF7F4FFBF
:405200002046FFF7DBFF0720FFF7DEFFFFF7E4FF10BD00BF000000000230800803D000BF01380046FCD17047EFF3108072B6704780F31088704700BF08B5164B1B7803F014
:405240000303012B02D0022B04D00FE0114B1B79DBB20CE00F4B1B7903F07F0303EB43039A000D4B1A44937ADBB200E00023022B0CD80A4A1268D35C022B04D0032B07D138
:40528000FEF7B0FB08BDFDF789FF08BD002008BD002008BD006000401C83FF1FF482FF1F81F0004102E000BF83F0004330B54FEA41044FEA430594EA050F08BF90EA020FBC
:4052C0001FBF54EA000C55EA020C7FEA645C7FEA655C00F0E2804FEA5454D4EB5555B8BF6D420CDD2C4480EA020281EA030382EA000083EA010180EA020281EA0303362DCF
:4053000088BF30BD11F0004F4FEA01314FF4801C4CEA113102D0404261EB410113F0004F4FEA03334CEA133302D0524263EB430394EA050F00F0A780A4F10104D5F1200ED7
:405340000DDB02FA0EFC22FA05F2801841F1000103FA0EF2801843FA05F359410EE0A5F120050EF1200E012A03FA0EFC28BF4CF0020C43FA05F3C01851EBE37101F00045F1
:4053800007D54FF0000EDCF1000C7EEB00006EEB0101B1F5801F1BD3B1F5001F0CD349085FEA30004FEA3C0C04F101044FEA445212F5800F80F09A80BCF1004F08BF5FEA10
:4053C000500C50F1000041EB045141EA050130BD5FEA4C0C404141EB010111F4801FA4F10104E9D191F0000F04BF01460020B1FA81F308BF2033A3F10B03B3F120020CDAE8
:405400000C3208DD02F1140CC2F10C0201FA0CF021FA02F10CE002F11402D8BFC2F1200C01FA02F120FA0CFCDCBF41EA0C019040E41AA2BF01EB0451294330BD6FEA0404F8
:405440001F3C1CDA0C340EDC04F11404C4F1200220FA04F001FA02F340EA030021FA04F345EA030130BDC4F10C04C4F1200220FA02F001FA04F340EA0300294630BD21FA32
:4054800004F0294630BD94F0000F83F4801306BF81F480110134013D4EE77FEA645C18BF7FEA655C29D094EA050F08BF90EA020F05D054EA000C04BF1946104630BD91EA86
:4054C000030F1EBF0021002030BD5FEA545C05D14000494128BF41F0004130BD14F580043CBF01F5801130BD01F0004545F0FE4141F470014FF0000030BD7FEA645C1ABF36
:40550000194610467FEA655C1CBF0B46024650EA013406BF52EA033591EA030F41F4002130BD00BF90F0000F04BF0021704730B54FF4806404F132044FF000054FF00001FC
:4055400050E700BF90F0000F04BF0021704730B54FF4806404F1320410F0004548BF40424FF000013EE700BF42004FEAE2014FEA31014FEA02701FBF12F07F4393F07F4F7B
:4055800081F06051704792F0000F14BF93F07F4F704730B54FF4607401F0004521F0004120E700BF50EA010208BF704730B54FF000050AE050EA010208BF704730B511F0ED
:4055C000004502D5404261EB41014FF4806404F132045FEA915C3FF4DCAE4FF003025FEADC0C18BF03325FEADC0C18BF033202EBDC02C2F1200300FA03FC20FA02F001FADB
:4056000003FE40EA0E0021FA02F11444C1E600BF70B54FF0FF0C4CF4E06C1CEA11541DBF1CEA135594EA0C0F95EA0C0F00F0DEF82C4481EA030621EA4C5123EA4C5350EA4A
:40564000013518BF52EA033541F4801143F4801338D0A0FB02CE4FF00005E1FB02E506F00042E0FB03E54FF00006E1FB03569CF0000F18BF4EF0010EA4F1FF04B6F5007FA9
:4056800064F5407404D25FEA4E0E6D4146EB060642EAC62141EA55514FEAC52040EA5E504FEACE2EB4F1FD0C88BFBCF5E06F1ED8BEF1004F08BF5FEA500E50F1000041EBA4
:4056C000045170BD06F0004646EA010140EA020081EA0301B4EB5C04C2BFD4EB0C0541EA045170BD41F480114FF0000E013C00F3AB8014F1360FDEBF002001F0004170BD4E
:40570000C4F10004203C35DA0C341BDC04F11404C4F1200500FA05F320FA04F001FA05F240EA020001F0004221F0004110EBD37021FA04F642EB06015EEA430E08BF20EA93
:40574000D37070BDC4F10C04C4F1200500FA04F320FA05F001FA04F240EA020001F0004110EBD37041F100015EEA430E08BF20EAD37070BDC4F1200500FA05F24EEA020E6D
:4057800020FA04F301FA05F243EA020321FA04F001F0004121FA04F220EA020000EBD3705EEA430E08BF20EAD37070BD94F0000F0FD101F00046400041EB010111F4801F92
:4057C00008BF013CF7D041EA060195F0000F18BF704703F00046520043EB030313F4801F08BF013DF7D043EA0603704794EA0C0F0CEA135518BF95EA0C0F0CD050EA4106A7
:4058000018BF52EA4306D1D181EA030101F000414FF0000070BD50EA410606BF1046194652EA430619D094EA0C0F02D150EA013613D195EA0C0F05D152EA03361CBF10461D
:4058400019460AD181EA030101F0004141F0FE4141F470014FF0000070BD41F0FE4141F4780170BD70B54FF0FF0C4CF4E06C1CEA11541DBF1CEA135594EA0C0F95EA0C0F9D
:4058800000F0A7F8A4EB050481EA030E52EA03354FEA013100F088804FEA03334FF0805545EA131343EA12634FEA022245EA111545EA10654FEA00260EF000419D4208BF5A
:4058C000964244F1FD0404F5407402D25B084FEA3202B61A65EB03055B084FEA32024FF480104FF4002CB6EB020E75EB030E22BFB61A754640EA0C005B084FEA3202B6EBDA
:40590000020E75EB030E22BFB61A754640EA5C005B084FEA3202B6EB020E75EB030E22BFB61A754640EA9C005B084FEA3202B6EB020E75EB030E22BFB61A754640EADC006C
:4059400055EA060E18D04FEA051545EA16754FEA06164FEAC30343EA52734FEAC2025FEA1C1CC0D111F4801F0BD141EA00014FF000004FF0004CB6E711F4801F04BF0143CC
:405980000020B4F1FD0C88BFBCF5E06F3FF6AFAEB5EB030C04BFB6EB020C5FEA500C50F1000041EB045170BD0EF0004E4EEA113114EB5C04C2BFD4EB0C0541EA045170BD68
:4059C00041F480114FF0000E013C90E645EA060E8DE60CEA135594EA0C0F08BF95EA0C0F3FF43BAF94EA0C0F0AD150EA01347FF434AF95EA0C0F7FF425AF104619462CE7D4
:405A000095EA0C0F06D152EA03353FF4FDAE1046194622E750EA410618BF52EA43067FF4C5AE50EA41047FF40DAF52EA43057FF4EBAE12E74FEA410212F5001215D211D589
:405A40006FF47873B3EB625212D94FEAC12343F0004343EA505311F0004F23FA02F018BF404270474FF00000704750EA013005D111F0004008BF6FF0004070474FF00000F5
:405A8000704700BF4A0011D212F5001211D20DD56FF47873B3EB62520ED44FEAC12343F0004343EA505323FA02F070474FF00000704750EA013002D14FF0FF3070474FF022
:405AC00000007047014B1868704700BF9881FF1F0E4B70B51E460E4C0025E41AA410A54204D056F8253098470135F8E702F0AAF8084B094C1E46E41AA4100025A54204D0DF
:405B000056F8253098470135F8E770BD507C0000507C0000507C0000587C000010B5431E0A44914204D011F8014B03F8014FF8E710BD03460244934202D003F8011BFAE7D4
:405B4000704700000EB400B54FF402719CB0ADF814106FF00041049107914FF6FF711DAB02900690084853F8042BADF81610006802A9019300F08CF8029B00221A701CB0F5
:405B80005DF804EB03B070479881FF1F30B582B1451E013915F8013F11F8014FA34206D1EC431444E04201D0002BF3D11C46181B30BD104630BD034610B542B111F8014B65
:405BC000013A03F8014B002CF7D11A4400E010BD934202D003F8014BFAE710BD2DE9F0478E6882469E420C46914698463ED88A8912F4906F3AD02568096902236F1A6569E3
:405C000005EB450595FBF3F57B1C43449D4238BF1D4653050FD5294600F040FB064698B13A462169FFF77AFFA38923F4906343F08003A38113E02A4600F08EFB064670B916
:405C40002169504600F0DEFA0C23CAF80030A3894FF0FF3043F04003A381BDE8F08726613E44266046466561ED1BA560464528BF464649463246206800F0A8FAA368002093
:405C80009B1BA36023681E442660BDE8F08700002DE9F04F9DB003938B8980461C060D4616460DD50B695BB9402100F0F7FA2860286118B90C23C8F80030CDE040236B6130
:405CC0000023099320238DF82930DFF89CB130238DF82A3037463C4614F8013B1BB9B7EB060910D003E0252BF9D02746F3E74B46324629464046FFF771FF013000F0A780D3
:405D0000099B4B4409933B78002B00F0A08000234FF0FF3204930793059206938DF853301A930126052221784E4800F041FA671C049B38B14B4A3C46801A06FA00F018434E
:405D40000490EFE7D90644BF20228DF853201A0744BF2B228DF8532022782A2A03D0079A00210A200BE0039A111D12680391002A10DA524243F00200079204900BE0274661
:405D80003B780134303B092B03D800FB02320121F5E701B107923B782E2B1ED17B782A2B0AD1039B02371A1D1B680392002BB8BF4FF0FF33059310E0002319460593781C7C
:405DC0000A2407463A780130303A092A03D804FB01210123F5E703B1059103223978224800F0E6F940B14023CBEB000003FA00F0049B013718430490397806221B487E1CC0
:405E00008DF8281000F0D4F988B1194B33B9039B073323F007030833039314E003AB00932A46144B04A94046AFF3008007E003AB00932A460F4B04A9404600F093F8B0F1FF
:405E4000FF3F824603D0099B5344099342E7AB895B0601D4099801E04FF0FF301DB0BDE8F08F00BF107C0000167C00001A7C000000000000DD5B00002DE9F04791461F46CA
:405E80000A698B6806469342B8BF1346C9F8003091F843200C46DDF8208012B10133C9F800302368990642BFD9F800300233C9F80030256815F0060510D104F1190A07E030
:405EC0000123524639463046C04701301AD00135E368D9F800209B1A9D42F1DB94F843302268003318BF012392060FD5E118302081F843005A1C94F845102244023382F859
:405F0000431003E04FF0FF30BDE8F08704F1430239463046C0470130F4D02268D9F80050E36802F00602042A08BF5D1B2269A3680CBF25EAE57500259342C4BF9B1AED1818
:405F40004FF000091A344D4509D00123224639463046C0470130D5D009F10109F3E70020BDE8F0872DE9F04317460A7E85B06E2A984606460C460C9B01F1430E00F0AE8029
:405F800011D8632A22D009D8002A00F0BB80582A40F0CA8081F84520834955E0642A1ED0692A1CD0C0E0732A00F0B08009D86F2A2ED0702A40F0B8800A6842F020020A6066
:405FC0003EE0752A24D0782A3AD0ADE01A6801F14205111D1960136884F84230A8E021681A6811F0800F02D0111D196008E011F0400F02F10401196002D0B2F9003000E01A
:406000001368002B3CDA2D225B4284F8432037E021681A6811F0800F02D0111D196007E011F0400F02F10401196001D0138800E01368227E5C496F2A14BF0A2208221BE03D
:4060400078225A4984F845202268186812F0800F00F104051D6003D1550601D5038800E00368D00744BF42F0200222601BB9226822F0200222601022002084F8430001E05F
:4060800049490A226568002DA56008DB206820F0040020602BB9002D7DD175460CE0002B79D07546B3FBF2F002FB1033CB5C05F8013D03460028F5D1082A0BD12368DA070C
:4060C00008D5236962689A42DEBF302305F8013C05F1FF35C5EB0E0323612EE008681A6810F0800F496903D0101D1860136808E010F0400F02F104001860136801D0198039
:4061000000E0196000232361754616E01A68111D1960156800216268284600F049F808B1401B6060636804E004F1420584F8422001232361002384F84330CDF800803B4661
:4061400003AA21463046FFF797FE013002D14FF0FF3026E023692A4639463046C0470130F5D023689B0710D5002504F1190907E001234A4639463046C0470130E7D00135A1
:40618000E368039A9B1A9D42F2DBE068039B9842B8BF184605E00B7804F1420584F842308AE705B0BDE8F083217C0000327C000010B5C9B202449042034605D01C780130AB
:4061C0008C42F8D1184610BD002010BD884210B501EB020301D8421E0BE09842FBD28118D21AD34204D013F8014D01F8014DF8E710BD994204D011F8014B02F8014FF8E7BE
:4062000010BD000038B50546002944D051F8043C0C1F002BB8BFE41800F0D4F81E4A1368114613B96360146030E0A3420DD92268A018834201BF18685B681218226063607D
:406240000C6023E0A24203D813465A68002AF9D118681918A1420BD12168014458188242196013D110685268014419605A600DE002D90C232B6009E021686018824201BF78
:40628000106852680918216062605C602846BDE8384000F098B838BD3482FF1F70B5CD1C25F0030508350C2D38BF0C25002D064601DBA94202D90C23336046E000F082F8C2
:4062C000234B1C681A462146A1B10B685B1B0ED40B2B03D90B60CC18CD501EE08C420BBF63684B681360636018BF0C4615E00C464968E9E7174C23681BB9304600F052F89D
:4063000020602946304600F04DF8431C18D0C41C24F00304A0420DD12560304600F053F804F10B00231D20F00700C31A0ED05A42E25070BD211A304600F034F80130EBD1C4
:406340000C233360304600F03EF8002070BD00BF3482FF1F3082FF1FF8B5074615460E4621B91146BDE8F840FFF798BF1AB9FFF749FF2846F8BD00F027F885420ED92946AB
:406380003846FFF78BFF044650B131462A46FFF7C5FB31463846FFF735FF01E03046F8BD2046F8BD38B5064C0023054608462360FCF796F9431C02D1236803B12B6038BDC0
:4063C000F883FF1F7047704751F8040C0028BEBF091851F8043CC0180438704700000000504342204F6E2F5043422052455345542A2A2A2A2A2A2A2A2A2A20200D0A0000CF
:406400004441544120524543454956454420200D0A000000426565706564204F6E636520200D0A0042656570656420547769636520200D0A00000000426565706564204CDA
:406440006F6E6720200D0A00466565646261636B2053656E7420746F204D6F74686572626F61726420200D0A00000000555342206E6F7420436F6E6E65637465642A2A2A45
:406480002A2A2A2A2A2A2A2A20200D0A0000000055534220436F6E6E656374656420200D0A00000025642C20000000004C454420426172636F64652056616C7565205265D3
:4064C00063697665642D2D2D3E00000053657420426172636F6465204C454420436F6D6D616E6420457865637574656420200D0A00000000204C45442056616C75652052CA
:406500006563697665642D2D2D3E0000536574204C454420436F6D6D616E6420457865637574656420200D0A000000002D2D2D2D2D2D2D2D2D2D2D2D2D2D2D2D2D2D2D2DF4
:406540002D2D2D2D2D2D2D2D2D2D2D2D2D2D2D2D2D2D2D2D2D2D2D2D2D2D2D2D2D2D0000595F486F6D696E675F4E6F745F446F6E655F5965742A2A2A2A2A2A2A2A2A2A2AE7
:406580005B7831325D20200D0A000000585F486F6D696E675F4E6F745F446F6E655F5965742A2A2A2A2A2A2A2A2A2A2A20200D0A000000005A5F486F6D696E675F4E6F7402
:4065C0005F446F6E655F5965742A2A2A2A2A2A2A2A2A2A2A20200D0A0000000055534220556E706C756765642050434220726573657474696E67202A2A2A2A2A2A2A2A2A2E
:406600002A2A20200D0A00004E6F2056616C696420447269766572206E43532061737365727465642F64652D617373657274656420666F722053504920526561642F577230
:4066400069746520200D0A00496E76616C6964204750494F204C6576656C2056616C75652C20556E61626C6520746F206173736572742F64652D617373657274206E435303
:406680004E2050696E20666F722053504920526561642F577269746520200D0A000000004661696C20746F207265616368205820706F736974696F6E200D0A005820456E94
:4066C000636F646572206F722058204D6F746F72204D69676874204E6F7420626520576F726B696E67200D0A000000005820706F736974696F6E20526561636865640000A1
:40670000476F746F5820436F6D6D616E6420526563697665642D2D2D3E000000486F6D696E67204E6F7420446F6E65004661696C20746F207265616368205920706F736993
:4067400074696F6E200D0A005920456E636F646572206F722059204D6F746F72204D69676874204E6F7420626520576F726B696E67200D0A000000005920706F73697469AA
:406780006F6E205265616368656400004661696C20746F207265616368205A20706F736974696F6E200D0A005A20456E636F646572206F72205A204D6F746F72204D696725
:4067C0006874204E6F7420626520576F726B696E67200D0A000000005A20706F736974696F6E20526561636865640000476F746F5A20436F6D6D616E642052656369766542
:40680000642D2D2D3E0000004661696C20746F207265616368205420706F736974696F6E200D0A005420456E636F646572206F722054204D6F746F72204D69676874204EEC
:406840006F7420626520576F726B696E67200D0A000000005420706F736974696F6E20526561636865640000476F746F5420436F6D6D616E6420526563697665642D2D2D2C
:406880003E000000486F6D655820657865637574656420200D0A0000486F6D655920657865637574656420200D0A0000486F6D655A20657865637574656420200D0A00008A
:4068C000486F6D655420657865637574656420200D0A00004261636B6C69676874204C45442077726F6E662056616C75652050726F766964656420200D0A0000504342205D
:40690000526573657420436F6D6D616E64205265636976656420200D0A0000005365744E6F4F66457865637574696F6E20436F6D6D616E64205265636976656420200D0AD2
:406940000000000056616C756520726563656976656420666F7220782C7920616E64207A206973202D2D2D3E000000002C0000004765742053746174757320436F6D6D6144
:406980006E64205265636976656420200D0A000057726F6E6720436F6D6D616E642052656365697665642A2A2A2A2A2A2A2A2A2A2A200D0A00000000004F00403000605124
:4069C00000401000C0510040100000000140800A000B0140000500140140000800400140000A004C014000020050014020000000800A014060790000800000007E020110ED
:406A00000A1B0D10161B191022272E2700430142782879087C40800F81388272860F890F8C6F8E0F846F876F880F0058014904220504061C0752080809410B080C0E0D490F
:406A40000E311108120413411603181D19491A221C58210E23602458250E2730285029082A082C082E502F0130403102320733013418357C3620370439223E413F4456022C
:406A80005724580459045B045C335D305F01850287018A028D028F01910399039E01AA01B201B301B402B702B908BE04BF40D418D604D804D904DB04DC42DD40DF010008BA
:406AC00001810201030806080A150B800F0210261110172019021A141BA01D101F04200C210222082301264027202A012B2A302233C03611388439113D885F02630464808E
:406B0000670A682269116A0270407201804084408D02C04FC28FC447CA0FCCA5CE5FD680D8B4E220E6100120053807030B0B0D300F0B110315101601190B1B301D021F04AC
:406B4000250129302A012D3B30013338350437033B023E0156025710580459045B045C405D405F0189028B01950197069D019E019F02A501A70AB201B308B503B704BB20CD
:406B8000C061C102C240C405C50EC6FBC7DCC83DC9FFCAFFCBFFCC22CEF0CF0CD004D409D604D804D904DA04DB04DC22DD33DF01E2C0E440E501E610E711E8C0E901EB11F1
:406BC000EC40ED01EE40EF010008021008400F20171019081F012110224425122601271229082EA4324435413610370439203C203D883E024201432144084510480449042B
:406C00004B405220534E581059065B415E80604063016D54762A77048580860188108B0890A09212930194409786984499029B409D809F02A024A248A320A544A611A70BB2
:406C4000A892AE08B510C221C440CA72CCFACEF4D00DD20CD61FD809E880EC080020010202D00411062207030C2E0D200E81113814D8150C160118081A041B401CD920D9A1
:406C8000213824242649272028D129342A082CD930F03101331C3560360F370239083AC23F4054405604580459045B045C235D305F01800182268701897F8C148E499596B3
:406CC0009768980A99FE9A519B019DC59F3AA10EA3F0A49FA89FAC80ADA3AF5CB007B280B418B5FFB660BE40BF10C063C104C202C401C5E0C6C0C80AC9FFCAFFCBFFCC6204
:406D0000CDA0CEF0CF41D00CD804D904DA04DC04DD04DF01E640E702E910EA30EB10ED10EE10EF120182032005410A020B280E04100512101301155419821A011C201D8962
:406D40001E0420082111220423122520288029142F42312032043302348035143644382839023BA03C083F10458A468047104D204F0257105D205E20626863408421874080
:406D800090A091549202930896059704980C9A7A9B109D419E80A020A102A228A320A410A544A610A711AA10AE40AF42B110C09DC247C4EFCA97CC77CE6BD0F0D220D80F16
:406DC000EE01010302010401051C091C1102131D15101B031C041D041F082104220C23082A032B202F10300431013201330234023608373C3E053F054031410549FF4AFFAB
:406E00004BFF4DA04F0150185280540F5604580459045A045B045C225D225F016040628064406540668068406A806C406D206E80820385038901910894029D039F0CB002D4
:406E4000B104B201B308B502B701B9A0BE01BF44C031C104C53EC6C4C702C81FC9FFCAFFCBFFCDAFCE07CF01D018D608D804D904DA04DB04DC22DD92DF01E040E280E440C7
:406E8000E540E680E840EA80EC40ED20EE800280040407400A200E01152016401AA01C041D081E4121822224244227212F4A30803102320433043664370138083B103C081A
:406EC0003E013F10418843014588488449144C054D2050045120524058405C405D0A5F20614063026508660167107740820184088E048F0190A091209206931094089784C6
:406F0000984C99819ABA9B029D50A030A320A544A654A702A840AB01B040C038C284C450CAB0CCF9CEE6D05BD210D6F8D888E203E609EE40003101100206032005060608CA
:406F4000083109030A0E0D200E0C0F10102C120319101B601E132105251027282D06300F3140330734303508373038A039083A023B803E504002464049FF4A074BFF4C4084
:406F80004D204EF04F055008580459045A045C245D045F01604061A862406320803082C98344849E8521866087108873893890CF92309501960F970899449D199F20A0FDA7
:406FC000A202A339A702A894A904AA60AB40AD21AF08B103B304B4FFB539B740BE10BF44D40FD604D804D904DB04DC20DD20DF01001A010204200541062008090A600E804D
:407000000F0110081121128014041608172019201D201E82200C211422422412254126202720280929062C202D012E403008311032803620381439023C183D8240204104EB
:4070400045204F015620572058245A805B015D405E806201820186028C0192409410952099049B019C109E01A001A110A280A404A602B010B601C0FEC29CC40ACADFCC2ECF
:40708000CEF7D020D60FD801E241E608EA80EE4000960268030204C5051C063A087F09290B140D3D0E0110A3110D125C13301531170C19141B2920FE22012540280E2AF002
:4070C000313C32FF334037033E043F04580459045C205F01001A02020490058807400A400D100E60112012801580170919041D201E601F4020A0214023412480251026801D
:40710000272928102E602F4030013108331035803709380A3B603C1A3D4045224F1084018508900A91409330970198019A209B509F20A001A10AA440A520B001B210C0FFB6
:40714000C278C4BACAB2CCD7CEFFD0A0D220EC20EE01030104080510070209D80B040C040DB60F08131E1401196E1E03220425D826082702300431013202331E340835E062
:40718000360139203E5140244106454C4630472E483B49FF4AFF4BFF4DAF4E074F015018540F580459045A045B045C225D225F056040628064406540668068406A806C40F9
:4071C0006D206E80840E850186F0870688A38A5C8CFE8D018E018F0A94C59501963A9702987F9D029F01A201A496A668B304B508B6FFB703BB80BE40D804D904DC20DF015E
:40720000009002100480072009100B200E100F02110813011501162018021C401E1A200622442498251826102F10324434013610380439803C903D0945224D014F145420E9
