:400000000080002011000000E52A0000E52A000008B5044B1A6803F53F5302331A6002F081FD00BFFA46004010B5054C237833B9044B13B10448AFF300800123237010BDD9
:40004000A081FF1F00000000F46C0000084B10B51BB108490848AFF300800848036803B910BD074B002BFBD0BDE81040184700BF00000000A481FF1FF46C0000C880FF1F92
:400080000000000008B562B605F060FAFF2005F0E1F8FF2004F0A2FE00F070F804F00CFE294800F0E3F800F093FA00F0A7F802F017FF002000F09AFC642002F0DFFF0120BB
:4000C00000F094FC642002F0D9FF022000F08EFC642002F0D3FF032000F088FC642002F0CDFF042000F082FC642002F0C7FF042141F6380001F0F8F9002004F0A9FC002058
:4001000004F0C4FF002005F0A5F8002004F066FE00F04EFB03F00CFB88B10C4803F014FB0B4B188001280AD90A4800F09FF8FF2004F054FE01F0A8FE002004F04FFE642068
:4001400002F09CFFE4E700BFF86C00003C82FF1F7C82FF1F186D0000074A138801339BB2138042F6F822934204D1034B01229A7000221A80704700BFBC81FF1F08B504F0D2
:4001800023FC114B188804F0D9FB05F055F8022005F00CF804F044FF40F6C41004F0FAFEC82002F055FF002004F0F4FEC82002F04FFF40F6C41004F0EDFEC82002F048FF6C
:4001C000002004F0E7FE08BDD080FF1F10B50024034B5C6004F04EFE204605F047F810BDBC81FF1F10B50124034B5C6004F042FE204605F03BF810BDBC81FF1F10B5094BE7
:4002000000249C60DC601C615C6104F06FFE04F079FF04F059FC2046FFF7E4FF2046FFF7D5FF10BDBC81FF1F10B50F4B5B6833B904F00AFE40420C4B58619A691A610A4B4C
:400240005B68012B06D1084CE369636104F0FCFD4042206104F0E6FB4042034CA06004F0FFFE4042E06010BDBC81FF1F10B504460A220146074806F015F950B1204604F0B3
:4002800035FD012002F0FAFE0A222146014806F01EF910BDD480FF1F08B540F6C41004F079FEC82002F0D4FE002004F073FEC82002F0CEFE40F6C41004F06CFEC82002F08E
:4002C000C7FE002004F066FE0248FFF7CFFF002008BD00BF3C6D000038B50446FFF7A4FF54B9714B1A68714B1A70120A5A7000229A70FA22DA70E0E0013C202C00F2DD80F5
:40030000DFE804F011171D23292F353B41474D53595F656B71777D83898F959BA1A7ADB3B9BFC5CBD600614B01229A70FA22DA70C3E05E4B02229A70FA22DA70BDE05B4B0A
:4003400017229A70FA22DA70B7E0584B07229A70FA22DA70B1E0554B11229A70FA22DA70ABE0524B1D229A70FA22DA70A5E04F4B25229A70FA22DA709FE04C4B03229A703B
:40038000FA22DA7099E0494B04229A70FA22DA7093E0464B18229A70FA22DA708DE0434B08229A70FA22DA7087E0404B12229A70FA22DA7081E03D4B1E229A70FA22DA70C2
:4003C0007BE03A4B26229A70FA22DA7075E0374B05229A70FA22DA706FE0344B06229A70FA22DA7069E0314B19229A70FA22DA7063E02E4B09229A70FA22DA705DE02B4B17
:4004000013229A70FA22DA7057E0284B1F229A70FA22DA7051E0254B27229A70FA22DA704BE0224B2B229A70FA22DA7045E01F4B2C229A70FA22DA703FE01C4B2D229A70E1
:40044000FA22DA7039E0194B2E229A70FA22DA7033E0164B2A229A70FA22DA702DE0134B2F229A70FA22DA7027E0104B28229A70FA22DA7021E00D4B22229A70FA22DA7054
:400480001BE00A4B23229A70FA22DA7015E0074B24229A70FA22DA700FE0044B29229A70FA22DA7009E000BFBC82FF1F8082FF1F434B30229A70FA22DA70424DAB689B0090
:4004C000AB60EB689B00EB602B699B002B61686905F040FA38A3D3E9002305F0A1FA05F0B1FC6861AB68364C2371AB681B126371AB681B14A371AB681B16E371EB68237235
:40050000EB681B126372EB681B14A372EB681B16E3722B6923732B691B1263732B691B14A3732B691B16E3736B6923746B691B1263746B691B14A3746B691B16E374224A1C
:40054000136823751B1263750023A375E37523766376A376E37651692177090A61779169A177090AE177D26984F82020120A84F8212084F8223084F8233084F8243084F879
:40058000253084F826304C2284F8272084F8283084F8293084F82A3084F82B3084F82C3084F82D300948FFF761FE2E21204603F097F838BDAFF300809A9999999999094008
:4005C0008082FF1FBC81FF1FD080FF1F606D000008B50121002002F0C7FE05E00848FFF745FE012002F04AFD02F002FF0028F5D003F02AF80348FFF739FE02F0B5FF08BDEF
:40060000846D0000A86D000000B587B00246064901A805F023FF01A804F068FB012002F02DFD07B05DF804FBBC6D00000000000010B5154BD8789B7803EB0020134C206289
:4006400005F088F90EA3D3E9002305F0E9F900220F4B05F00FFB05F01DFC80B204F0A6FD0C48FFF703FE206AFFF7CEFF0A48FFF7FDFD0A48FFF7FAFD002010BDAFF3008023
:40068000333333333333E33F3C82FF1FBC81FF1F00002440C46D00001C6F0000E46D000010B5154BD8789B7803EB0020134C206005F050F90EA3D3E9002305F0B1F900223A
:4006C0000F4B05F0D7FA05F0E5FB80B204F036F90C48FFF7CBFD2068FFF796FF0A48FFF7C5FD0A48FFF7C2FD002010BDAFF30080333333333333E33F3C82FF1FD080FF1FCD
:40070000000024400C6E00001C6F0000246E000008B50548FFF7AAFD0448FFF7A7FD0448FFF7A4FD08BD00BF1C6F0000446E0000286D000010B5194B93F820405CB9184B6C
:400740005B6A43B90C22164B5A621648FFF78EFDFFF7DEFF20E0114B93F821405CB9104B5B6A43B906220E4B5A620F48FFF77EFDFFF7CEFF10E0094B93F8224064B9084BD9
:400780005B6A43B91222064B5A620848FFF76EFDFFF7BEFF00E00124204610BDD080FF1FBC81FF1F786E0000A46E0000CC6E000008B502F023FEB0B1FFF76EFD02F018FE06
:4007C00088B1094B93F828304BB10848FFF74EFDFFF79EFF012002F03BFC02F031FC0122014B83F8282008BDBC81FF1FF46E000008B502F073FA0A2002F040FC012008BDF2
:4008000010B54B1EDBB2FD2B3DD90C46042836D8DFE800F0030D17212B000A2002F02EFC204602F0D9F90A2002F028FC10BD0A2002F024FC204602F0DBF90A2002F01EFCEE
:4008400010BD0A2002F01AFC204602F0DDF90A2002F014FC10BD0A2002F010FC204604F0D5FA0A2002F00AFC10BD0A2002F006FC204604F0BFFA0A2002F000FC10BD0448B0
:40088000FFF7F4FC10BD0348FFF7F0FC10BD00BF206F0000606F0000F8B506460D46174600212846FFF7ACFF06F07F063046FFF79FFF0020FFF79CFF0020FFF799FF002091
:4008C000FFF796FF0020FFF793FFFF212846FFF797FF012002F0BCFB00212846FFF790FF3046FFF785FF02F063FA38700020FFF77FFF02F05DFA04060020FFF779FF02F07F
:4009000057FA44EA00440020FFF772FF02F050FA44EA00240020FFF76BFF02F049FA0443FF212846FFF76CFF012002F091FB00212846FFF765FF3046FFF75AFF02F038FA83
:4009400038700020FFF754FF02F032FA44EA00640020FFF74DFF02F02BFA44EA00440020FFF746FF02F024FA44EA00240020FFF73FFF02F01DFA0443FF212846FFF740FFA7
:400980002046F8BD70B506460C46154600211046FFF736FF46F08000FFF72AFF200EFFF727FFC4F30740FFF723FFC4F30720FFF71FFFE0B2FFF71CFFFF212846FFF720FFEF
:4009C00070BD00BF38B505460C460A4600212020FFF7D8FF224629460520FFF7D3FF224629462D20FFF7CEFF38BD00BF10B50446024605210120FFF7C5FF2246082100209B
:400A0000FFF7C0FF224600210320FFF7BBFF224600210520FFF7B6FF224600210620FFF7B1FF22460F210820FFF7ACFF224682490920FFF7A7FF224680490A20FFF7A2FFAC
:400A4000022C0AD1224600210B20FFF79BFF22467B491020FFF796FF2FE054B922465A210B20FFF78FFF224676491020FFF78AFF23E0012C0AD122467F210B20FFF782FF09
:400A8000224670491020FFF77DFF16E0042C0AD12246D2210B20FFF775FF22466A491020FFF770FF09E0224600210B20FFF76AFF224666491020FFF765FF22460A21112071
:400AC000FFF760FF224600211320FFF75BFF224600211420FFF756FF224600211520FFF751FF224600212120FFF74CFF224600212320FFF747FF224600212C20FFF742FF6A
:400B0000224600213320FFF73DFF224640F2AF213420FFF737FF224600213820FFF732FF224600213920FFF72DFF22464FF480313A20FFF727FF224600213D20FFF722FFE2
:400B4000224643496020FFF71DFF224641496120FFF718FF224640496220FFF713FF224608216320FFF70EFF22466FF080616420FFF708FF224639496520FFF703FF2246E5
:400B800037496620FFF7FEFE224636496720FFF7F9FE224634496820FFF7F4FE22464FF477016920FFF7EEFE224630496C20FFF7E9FE224600216D20FFF7E4FE224600213E
:400BC0006E20FFF7DFFE224629497020FFF7DAFE224600212120FFF7D5FE22464FF6FF712420FFF7CFFE22464FF6FF712520FFF7C9FE22464FF6FF712620FFF7C3FE224604
:400C000000212720FFF7BEFE22464FF6FF712820FFF7B8FE22464FF6FF712A20FFF7B2FE224665212B20FFF7ADFE224600212020FFF7A8FE10BD00BF060601000004080098
:400C40000103070001010700000107000105070054B5AAAAAA54954A292949247D77BBB556552949224240005680FFFF530141001E000CC430B583B004461648FFF7F6FA30
:400C800002AD002305F8013D4FF4FA7002F0F6F92A4621460420FFF7FFFD642002F0EEF92A4621460420FFF7F7FD08E00DF1070221462120FFF7F0FDC82002F0DFF99DF8A9
:400CC000073013F0200FF1D00348FFF7CFFA002003B030BDB86F0000E06F00002DE9F041074605F0B1F94E4B596A05F0B5FA05F04FFB0646FFF798FA4A48FFF7B7FA4A4B76
:400D00009868FFF781FC4948FFF7B0FA00243FE04748FFF7ABFA2046FFF776FC4348FFF7A5FAFFF781FA404B9D68751BB5F5FA6F03DB02205862BDE8F081284605F084F960
:400D4000374B596A05F0D4F905F022FB804685EAE573A3EBE573092B18DD3648FFF786FA2846FFF751FC3148FFF780FA002107EB0800FFF727FE0020FFF77CFF322002F025
:400D80007DF9002239462120FFF7FCFD0134E4B2052CBDD9FFF748FA234B9B68F61A052C39D986EAE673A3EBE6730B2B1BDD06F2CF7140F69E72914215D81F48FFF756FA95
:400DC0003046FFF721FC1D48FFF750FA164CA068FFF71AFC1548FFF749FAFF2004F03AFA0123636217E0B3F5FA6F06DD1448FFF73DFA02220C4B5A620DE01248FFF736FA71
:400E00000022094B5A6239462120FFF7BBFD4FF4FA7002F033F9044B586ABDE8F08100BFD080FF1FF86F0000BC81FF1F286D000018700000287000004470000074700000E4
:400E400088700000B870000070B50446FFF772FC28B3012215491020FFF794FD022214491020FFF78FFD002212491020FFF78AFD114E00257562FFF7D7F929462046FFF723
:400E8000A1FD2846FFF7F6FE322002F0F7F80B48FFF7ECF92046FFF721FF706A70BD0848FFF7E4F92020044B586270BD030107000201070005030700BC81FF1FA06D000033
:400EC000CC700000000000002DE9F041074604F041FD4BA3D3E9002304F0CCFE04F0B2FF0646FFF7A1F94848FFF7C0F9474BD868FFF78AFB4648FFF7B9F9002440E0454851
:400F0000FFF7B4F92046FFF77FFB4348FFF7AEF9FFF78AF93D4BDD68751B284604F01AFD37A3D3E9002304F07BFD04F08BFF8046B5F57A6F03DB0922344B5A6222E085EA10
:400F4000E573A3EBE573092B18DD3448FFF78EF92846FFF759FB3048FFF788F9012107EB0800FFF72FFD0120FFF784FE322002F085F8012239462120FFF704FD0134E4B22D
:400F8000052CBCD9FFF750F9204BDB68F61A032C31D986EAE673A3EBE6730C2B1BDD06F2CF7140F69E72914215D81D48FFF75EF93046FFF729FB1B48FFF758F9134CE06885
:400FC000FFF722FB1448FFF751F9FF2004F042F9082363620FE0B3F5FA6F06DD1248FFF745F90922094B5A6205E01048FFF73EF90022064B5A62054B586ABDE8F08100BFD8
:401000009A99999999992940DC700000BC81FF1FFC70000000710000286D0000107100002C710000747000005C7100008C71000038B50446FFF77EFB10B3002214491020B3
:40104000FFF7A0FC022213491020FFF79BFC012211491020FFF796FC104D00236B62FFF7E3F801212046FFF7ADFC0120FFF702FE322002F003F82046FFF726FF686A38BD89
:401080000748FFF7F3F82020044B586238BD00BF030107000201070005020700BC81FF1FCC700000000000002DE9F041074604F051FC4BA3D3E9002304F0DCFD04F0C2FE26
:4010C0000646FFF7B1F84848FFF7D0F8474B1869FFF79AFA4648FFF7C9F8002440E04548FFF7C4F82046FFF78FFA4148FFF7BEF8FFF79AF83D4B1D69751B284604F02AFC8A
:4011000037A3D3E9002304F08BFC04F09BFE8046B5F57A6F03DB1022344B5A6222E085EAE573A3EBE573032B18DD3348FFF79EF82846FFF769FA2E48FFF798F8022107EB99
:401140000800FFF73FFC0220FFF794FD322001F095FF022239462120FFF714FC0134E4B2052CBCD9FFF760F8204B1B69F61A032C31D986EAE673A3EBE673072B1BDD06F6DF
:401180009F7141F63E72914215D81C48FFF76EF83046FFF739FA1A48FFF768F8134C2069FFF732FA1248FFF761F8FF2003F016FE0F2363620FE0B3F57A6F06DD1148FFF7DF
:4011C00055F81022094B5A6205E00F48FFF74EF80022064B5A62054B586ABDE8F08100BF9A99999999992940A0710000BC81FF1F286D0000C071000010710000D0710000DE
:4012000074700000007200003072000038B505461B4C012221461020FFF7B4FB002221461020FFF7AFFB022216491020FFF7AAFB154B98694042FEF7D5FFFFF77BFAB8B191
:40124000114C00236362FEF7EFFF02212846FFF7B9FB0220FFF70EFD322001F00FFF2846FFF722FFFEF7E0FF2369A361606A38BD0648FEF7FBFF2020034B586238BD00BFB6
:401280000301070002020700BC81FF1FCC700000F8B5074604F05EFB33A3D3E9002304F0E9FC04F0CFFD064600252BE0FEF7BCFF2F4B5C69341B204604F04CFB2AA3D3E908
:4012C000002304F0ADFB04F0BDFDB4F57A6F03DB1722274B5A6217E0002CB8BF6442042C0EDD03213844FFF76DFB0320FFF7C2FC322001F0C3FE032239462120FFF742FB5E
:401300000135EDB2032DD1D9FEF78EFF184B5869301A032D22D980EAE073A3EBE073042B0CDD00F69F7041F63E72904206D81148FEF79CFF16220E4B5A620FE0B3F57A6FDB
:4013400006DD0D48FEF792FF1722094B5A6205E00A48FEF78BFF0022054B5A62044B586AF8BD00BFAFF300809A99999999990940BC81FF1F44720000607200009072000016
:4013800038B50446002003F09BFF642001F076FE1E4BD8694042FEF719FFFFF7CBF930B31A4D00236B62FEF73FFF1948FEF75EFF03212046FFF706FB0320FFF75BFC32200A
:4013C00001F05CFE2046FFF71FF91248FEF74EFF2046FFF75DFFFEF727FF6B69EB61FF2003F06EFF642001F049FE686A38BD0A48FEF73CFF054C20236362FF2003F060FF51
:40140000642001F03BFE606A38BD00BFBC81FF1FA4720000A06D0000CC70000070B506460D461446FEF700FF01222A491020FFF7A9FA002228491020FFF7A4FA022227496A
:401440001020FFF79FFAC82001F018FE2448FEF70DFF002E03DB00213046FFF7B3FA002D03DB01212846FFF7ADFA002C08DB1D4B98694042FEF7B6FE02212046FFF7A2FA15
:40148000002E02DB0020FFF7F5FB002D02DB0120FFF7F0FB002C02DB0220FFF7EBFB002E02DB3046FFF71AFC002D02DB2846FFF70BFD002C07DB2046FFF7F6FDFEF7B4FE01
:4014C000084B1A699A61FEF7AFFE322001F0D6FD002070BD010207000103070002020700C0720000BC81FF1F08B50A4601462720FFF748FA002008BD2DE9F84304460022F4
:401500006C491020FFF73EFA21464FF49620FFF7EBFF224602212020FFF734FAC82001F0ADFD654D2A4621460420FFF7B5F94FF4FA7001F0A3FD2A4621460420FFF7ACF9C1
:401540005E48FEF793FE2DE004F034F85C4804F05DF8594A21460420FFF79EF9642001F08DFD584B9B78EBB1564D04206862FEF7B3FE03F0C5FF224600212020FFF702FA70
:40158000224600212120FFF7FDF9224600212D20FFF7F8F90023AB706B624B48FEF766FEBDE8F883444B1B7813F0400FCCD003F0A7FF444F0025BD704448FEF757FE2246D5
:4015C00029462120FFF7DEF90A2001F057FD224629462120FFF7D6F9284603F039FA3C4E4FF0010886F8218086F8208086F8228086F82880642001F041FD4FF44840FFF7C5
:4016000023FC3448FEF732FE786AFEF7FDFF3248FEF72CFE97F8293086F8213097F82A3086F8203097F82B3086F8223097F82C3086F82830642001F021FD224629462120EA
:40164000FFF7A0F9224629462D20FFF79BF921462248FFF749FF224696210B20FFF792F9DFF88490224649461020FFF78BF9284603F0EEF9BD6086F8218087F829801848BB
:40168000FEF7F4FD174C424621461020FFF77AF9022249461020FFF775F92A4621461020FFF770F9032221461020FFF76BF9BDE8F88300BF03050700CF80FF1FDC720000ED
:4016C00059010000BC81FF1FFC72000034730000D080FF1F50730000286D0000FAD005007873000003010700010107002DE9F843044601226C491020FFF744F921464FF40C
:401700009620FFF7F1FE224602212020FFF73AF9322001F0B3FC654D2A4621460420FFF7BBF84FF4FA7001F0A9FC2A4621460420FFF7B2F85E48FEF799FD2DE003F03AFF8A
:401740005C4803F063FF594A21460420FFF7A4F8594B9B78EBB1584D0B206862FEF7BCFD03F0CEFE224600212020FFF70BF9224600212120FFF706F9224600212D20FFF708
:4017800001F90023AB706B624C48FEF76FFDBDE8F883642001F072FC444B1B7813F0400FCCD003F0ADFE444F0025BD704448FEF75DFD224629462120FFF7E4F80A2001F0B9
:4017C0005DFC224629462120FFF7DCF8284603F05DFC3C4E4FF0010886F8218086F8208086F8228086F82880642001F047FC4FF49640FFF71DFC3448FEF738FD786AFEF742
:4018000003FF3248FEF732FD97F8293086F8213097F82A3086F8203097F82B3086F8223097F82C3086F82830642001F027FC224629462120FFF7A6F8224629462D20FFF7C1
:40184000A1F821462248FFF74FFE224629460B20FFF798F8DFF88490224649461020FFF791F8284603F012FCBD6086F8208087F82A801848FEF7FAFC174C42462146102002
:40188000FFF780F8022249461020FFF77BF82A4621461020FFF776F8032221461020FFF771F8BDE8F88300BF03020700CE80FF1F8C73000059010000BC81FF1FAC730000BE
:4018C000E4730000D080FF1F00740000286D0000FAD005002874000003010700010107002DE9F041044602226A491020FFF74AF821466948FFF7F8FD684B98694042FEF79D
:4019000071FC224602212020FFF73CF8322001F0B5FB634D2A4621460420FEF7BDFF4FF4FA7001F0ABFB2A4621460420FEF7B4FF5C48FEF79BFC2CE003F03CFE5A4803F011
:4019400065FE574A21460420FEF7A6FF534B9B78E3B1524D12206862FEF7BEFC03F0D0FD224600212020FFF70DF8224600212120FFF708F8224600212D20FFF703F8002381
:40198000AB704A48FEF772FCBDE8F081642001F075FB434B1B7813F0400FCDD003F0B0FD3E4E0025B5704248FEF760FC224629462120FEF7E7FF2846FEF714FCB5610A2015
:4019C00001F05CFB224629462120FEF7DBFF2846FEF708FCB561374F4FF0010887F8218087F8208087F8228087F82880642001F045FB4FF44840FFF709FC2F48FEF736FCCD
:401A0000706AFEF701FE2D48FEF730FC756296F8293087F8213096F82A3087F8203096F82B3087F8223096F82C3087F82830642001F024FB224629462120FEF7A3FF2246D7
:401A400029462D20FEF79EFF21461348FFF74CFD2846FEF7C7FBB56187F8228086F82B801748FEF703FC174C424621461020FEF789FF022214491020FEF784FF2A46214640
:401A80001020FEF77FFF032221461020FEF77AFFBDE8F081030207006EA30100BC81FF1FCD80FF1F3C740000590100005C74000094740000D080FF1FB0740000286D000056
:401AC000D874000003010700010107002DE9F0410446002003F0F4FB642001F0CFFA21464FF44850FFF700FD544BD8694042FEF76DFB224602212020FEF744FF322001F07B
:401B0000BDFA4F4D2A4621460420FEF7C5FE4FF4FA7001F0B3FA2A4621460420FEF7BCFE2AE003F047FD474803F070FD444A21460420FEF7B1FE414B9B78D3B13F4D1620D8
:401B40006862FEF7C9FB03F0DBFC224600212020FEF718FF224600212120FEF713FF224600212D20FEF70EFF0023AB706B62BDE8F081642001F082FA314B1B7813F0400F27
:401B8000CFD003F0BDFC2D4F0026BE70224631462120FEF7F7FE0A2001F070FA224631462120FEF7EFFE3046FEF710FBFE61264D4FF0010885F8218085F8208085F822808F
:401BC00085F82880642001F059FA40F6D860FFF7D7FB97F8293085F8213097F82A3085F8203097F82B3085F8223097F82C3085F82830642001F042FA224631462120FEF717
:401C0000C1FE224631462D20FEF7BCFE21464FF44850FFF769FC3046FEF7D8FAFE6185F8288087F82C800948FEF720FBFF2003F047FB642001F022FABDE8F081BC81FF1FCA
:401C4000CD80FF1F59010000D080FF1FEC74000038B505460C46042200212020FEF792FE042200212120FEF78DFE04216248FFF73BFC002003F030FB0F2001F0E9F9012CCA
:401C800003D8012001F0E4F900E00024012C00F29D80002C4DD104212846FEF793FE574C224604210846FEF7F7FD4FF4FA7001F0E5F9224604210846FEF7EEFD2EE003F018
:401CC00079FC4F4803F0A2FC4C4A04210846FEF7E3FD4C4B9B78F3B14FF61D20FEF7FCFA03F00EFC042200212020FEF74BFE042200212120FEF746FE042200212D20FEF7A2
:401D000041FE404C0023A37021236362FF2003F0E3FA606A38BD642001F0B0F9374B1B7813F0200FCBD003F0EBFB0022354B9A704CE004216842FEF745FE304C224604212A
:401D40000846FEF7A9FD4FF4FA7001F097F9224604210846FEF7A0FD2EE003F02BFC284803F054FC254A04210846FEF795FD254B9B78F3B14FF61D20FEF7AEFA03F0C0FBA7
:401D8000042200212020FEF7FDFD042200212120FEF7F8FD042200212D20FEF7F3FD194C0023A37021236362FF2003F095FA606A38BD642001F062F9104B1B7813F0200FCE
:401DC000CBD003F09DFB00220E4B9A7004210020FFF78AFB042200212120FEF7D3FD042200212020FEF7CEFD052001F031F9FF2003F072FA002038BD6EA30100CF80FF1F92
:401E000059010000BC81FF1F70B506460D461446042200212020FEF7B5FD042200212120FEF7B0FD04212846FFF75EFB002003F053FA0A2001F00CF9012C0FD83CB90421E7
:401E40003046FEF7BFFD0420FEF714FF06E004217042FEF7B7FD0420FEF70CFF04210020FFF742FB042200212120FEF78BFD042201212020FEF786FD052001F0E9F8FF20F2
:401E800003F02AFA002070BD38B50022D04B5A62D04A5178137803EB0123CF4A13607A2B4ED1CE48FEF7E2F9FF2003F0FDF94FF4FA7001F0E3F8FF2003F0EAF94FF4FA70FF
:401EC00001F0DCF8002003F0D7F94FF4FA7001F0D5F80021C248FFF707FB012001F0B8F80020FEF7B1FFBF4C012221461020FEF749FD022221461020FEF744FD0022BA490F
:401F00001020FEF73FFD0020FFF7F6FA0022B7491020FEF737FD322001F09AF8002003F0C3F9322001F094F8002003F0B1F94FF4FA7001F0A3F8A64B586AFEF7CDF938BDF3
:401F40007B2B4DD1AA48FEF791F9FF2003F0ACF94FF4FA7001F092F8FF2003F08DF94FF4FA7001F08BF8002003F092F94FF4FA7001F084F801219A48FFF7B6FA012001F020
:401F800067F80020FFF754F801229A491020FEF7F9FC022293491020FEF7F4FC934C002221461020FEF7EEFC0120FFF79FFB012221461020FEF7E6FC322001F049F80020CE
:401FC00003F072F9322001F043F8002003F054F9322001F03DF87E4B586AFEF77DF938BD7C2B44D18448FEF741F9FF2003F050F94FF4FA7001F042F8FF2003F03DF94FF4CD
:40200000FA7001F03BF8002003F04EF94FF4FA7001F034F802217948FFF766FA012001F017F80020FFF7F2F801226E491020FEF7A9FC022272491020FEF7A4FC00226B4975
:402040001020FEF79FFC0220FFF74AFC322000F0FFFF002003F01CF9322000F0F9FF002003F00AF95A4B586AFEF736F938BD7D2B12D1032263491020FEF784FC0A2000F0EF
:40208000E7FF0020FFF77CF90320FFF71FFD504B586AFEF721F938BDB3F5F46F47D15A48FEF7E4F84B4A517913791B0403EB0163D17803EB012392781344454C23635348B9
:4020C000FEF7D4F8206BFEF79FFA5148FEF7CEF8206B002800DA03303D4D801003F03AFC39A3D3E9002303F09BFC03F0ABFE2863FEF7AAFE68620A2000F0AAFF454C012265
:4021000021461020FEF73EFC022221461020FEF739FC002221461020FEF734FC032221461020FEF72FFC686AFEF7D6F838BDB3F5F66F73D13848FEF799F8264A5179137993
:402140001B0403EB0163D17803EB0123927813441F4C63632D48FEF789F8606BFEF754FA2B48FEF783F8606B002800DA0330184D801003F0EFFB14A3D3E9002303F050FC7E
:4021800003F060FE6863FEF753FF68620A2000F05FFF204C012221461020FEF7F3FB022221461020FEF7EEFB002221461020FEF7E9FB032221461020FEF7E4FB686AFEF7EF
:4021C0008BF838BDAFF300809A99999999992940BC81FF1F3C82FF1FBC82FF1F00750000FAD005000101070007040700010307001875000003020700307500006EA30100F8
:4022000003030700030507004875000060750000286D00000201070078750000B3F5FA6F32D1AB48FEF722F80221AA48FFF75CF9A94A517913791B0403EB0163D17803EBFD
:40224000012392781344A54CA363A548FEF70EF8A06BFEF7D9F9A348FEF708F8A06B002800DA0F309D4C001103F074FB94A3D3E9002303F0D5FB03F0E5FDA063FEF7C6FF35
:402280006062FEF729F838BDB3F5FC6F1FD19648FDF7ECFF032295491020FEF773FB8E4A517913791B0403EB0163D07803EB002390781844894CE063FFF762F86062FEF780
:4022C0000BF803228A491020FEF75CFB38BD7E2B21D18848FDF7CAFF7F4A517913791B0403EB0163D17803EB012394781C449379012B03D80A2000F0C1FE02E00022764B42
:402300009A71754B99792046FFF7A2FC734B586AFDF7E2FF38BDB3F5F86F40F0818002216C48FFF7E1F87448FDF7A0FF6A4B59791A79120402EB0162D97802EB0122997855
:402340001144664801635C7A1A7A120402EB0462DC7902EB04229D79154445635C7B1A7B120402EB0462DC7A02EB04229C7A1444846300290EDB084600DAC81C801003F070
:40238000E9FA51A3D3E9002303F04AFB03F05AFD524B1863002D0EDB284600DAE81C801003F0D8FA48A3D3E9002303F039FB03F049FD4A4B5863002C0FDB204601DA04F150
:4023C0000F00001103F0C6FA3DA3D3E9002303F027FB03F037FD414B9863404CA26B616B206BFFF71BF860620A2000F031FE434D012229461020FEF7C5FA022229461020BB
:40240000FEF7C0FA002229461020FEF7BBFA032229461020FEF7B6FA606AFDF75DFF38BDB3F5F44F0CD13648FDF720FFFEF738F9642000F00DFE294B586AFDF74DFF38BDA1
:40244000B3F5FE4F0CD12F48FDF710FFFEF7F0F8642000F0FDFD214B586AFDF73DFF38BDB3F5FC4F14D12848FDF700FF1A4B9C7834B1012C03D02548FDF7F8FE00E0FF247F
:40248000204602F09FFC154B586AFDF725FF38BDFF2B41D11E48FDF7E9FE1E48FDF7E6FE4FF4FA7000F0D4FD0020FDF715FF4FF4FA7000F0CDFD00F0C3FD38BDAFF300807B
:4024C0009A999999999949409A99999999992940907500006EA301003C82FF1FBC81FF1F60750000286D0000A87500000305070003030700C0750000DC750000030107003A
:40250000F8750000187600003876000058760000807600001C6F0000B3F5F64F4CD1B84A517913791B0403EB0163D17803EB012391780B44B34C6361517A137A1B0403EBF5
:402540000163D17903EB012391790B44A361517B137B1B0403EB0163D17A03EB0123927A1344E361A848FDF781FE00216069FEF7BBFF0121A069FEF7B7FF0221E069FEF73C
:40258000B3FFA248FDF772FE6069FEF73DF8A04D2846FDF76BFEA069FEF736F82846FDF765FEE069FEF730F82846FDF75FFE994B586AFDF791FE38BD40F2D172934234D1ED
:4025C0008F4B59791A79120402EB0162D97802EB012299780A448F4CA263597A1A7A120402EB0162D87902EB002298791044854BD8610221FEF778FFC82000F03FFDA06B4D
:40260000002800DA0F30834C001103F0A3F978A3D3E9002303F004FA03F014FCA063FEF7F5FD606AFDF758FE38BD40F2D272934220D1734B59791A79120402EB0162D878F4
:4026400002EB002298781044724C2064597A1A7A120402EB0162D97902EB01229979114461649A7AA264FFF7CFFB00206062FDF733FE38BD40F2C172934240F09480604B4B
:4026800059791A79120402EB0162D97802EB012299780A445F4D2A63597A1A7A120402EB0162D97902EB012299790A446A63597B1A7B120402EB0162D97A02EB0122997AB5
:4026C0000A44AA63597C1A7C120402EB0162D97B02EB0122997B0A444A4C6261597D1A7D120402EB0162D97C02EB0122997C0A44A261597E1A7E120402EB0162D97D02EBD9
:4027000001229B7D1A44E2610A2000F0B7FC00216069FEF7E9FE0121A069FEF7E5FE0221E069FEF7E1FE286B002800DA0330394C801003F00FF930A3D3E9002303F070F901
:4027400003F080FB2063606B002800DA0330314C801003F0FFF828A3D3E9002303F060F903F070FB6063A06B002800DA0F30294C001103F0EFF81EA3D3E9002303F050F9D2
:4027800003F060FBA063642000F078FCA26B616B206BFEF743FE6062642000F059FC606AFDF79AFD38BDB3F5F84F03D10020FDF793FD38BDFE2B0FD1FF2002F04BFD164855
:4027C000FDF754FD0A2000F043FC0020FDF784FD002002F03FFD38BD13240E4B5C620F48FDF744FDFDF794FF2046FDF775FD38BD9A999999999949409A9999999999294021
:402800003C82FF1FD080FF1FA0760000C8760000F0760000BC81FF1FF476000014770000FEE700BFF0B40022174611E050F82760F3B226F0FF0608E001EB420511F8124087
:402840006D78A5550132013BDBB2002BF4D10137252FEBD9F0BC7047064B1B78DBB203F00701054A11701B09013213704422034B1A707047CF0100496E58004076580040A2
:4028800008B50A46002103F0E0FD08BD08B503F0D1FD08BD08B503F0CDFD08BD38B501222C4B1A8018232C490B7002310A8002310B7002310A80294A13701721023211806C
:4028C00002321370332102321180023213700622234B1A705222A3F580731A70214B1B78DBB2214A13704FF4E262204B1A8041F25122023B1A80002419250CE01C4B1B78DD
:4029000003F0010343EA440404F003044FF4F07002F08AFE013D0DB1032CEFD115B90320FFF77EFF134A4FF48073138007231370002311490B70482002310870137005322C
:40294000137002220D4B1A700D4A137843F01F03137038BD80400040824000408A400040004300400F010049A146004022420040254200400440004006400040014000403A
:40298000A243004038B572B6464A137843F00403137000240CE0444D630019194A0011462A44084691882858FFF76AFF0134E4B2082CF0D900240BE03B49A3001819420009
:4029C00088188022C16B806BFFF760FF0134E4B2002CF1D0344C04F1440104F6C460FFF721FF324A324B1A60A2F5802203F500631A6002F1004203F520731A602D4A1378C6
:402A000043F0020313701032137843F002031370294D2B7843F040032B70A2F58632513A137843F0100313700A2204F65C712348FFF72CFF0A2204F668712148FFF726FFF9
:402A4000082204F674711F48FFF720FF0A2204F67C711D48FFF71AFF0A2204F688711B48FFF714FF082204F694711948FFF70EFF0A2204F69C711748FFF708FF164A1378B8
:402A800043F008031370154C61232370FFF706FFC1232370FFF7E0FE0E2229461048FFF7F9FE38BDE84600403C77000004040444580C014003500140A04300400051004060
:402AC000F051004012510040205100403051004042510040505100402243004000480040B043004008B503F079FC03680C2B00D1FEE7FEE708B5094B1A681044084BC31AB3
:402B0000802B02DC054B186005E003F067FC0C2303604FF0FF32104608BD00BF0C81FF1F0084FF1F08B5104E104D16E029686B68AC68002204E051F8040B43F8040B04321C
:402B4000A242F8D1E868002203E0002143F8041B04328242F9D11035013E002EE6D103F043FCFDF78FFAFEE701000000EC89000008B5104A104B1A60104A136843F4007336
:402B8000136000230AE0032B03D80D4A52F8231000E00C490C4A42F8231001332F2BF2D90A4B1A780A4B1A70074A0A4B1A60FFF7E9FE08BD0004FA050CED00E014ED00E022
:402BC00000000000E52A00000080FF1FBC760040C080FF1F08ED00E0044A137803F0FE0300F0010018431070704700BF20510040044A137803F0FD03400000F0020018436A
:402C00001070704720510040044A137803F0FB03800000F00400184310707047205100401022014B1A60704700E100E00822014B1A60704700E100E008B502F0FDFC0C4A55
:402C4000137843F0200313700332137843F0100313700132137843F01003137002F0F0FC01F0C0FEFFF7DCFFFFF7E0FF08BD00BF906400401022014B1A60704780E100E005
:402C80000822014B1A60704780E100E010B5FFF7F1FF064B1C78064A137803F009031C4300231370FFF7BCFF204610BD63640040C982FF1F10B5FFF7E3FF064B1B78064A98
:402CC000147804F040041C4300231370FFF7AEFF204610BD64640040D782FF1F10B504462B4B1A7802F0FF0312B1013BDBB200E00423284A1278D2B29342F1D0FFF7BAFF53
:402D0000254B1978254A137803F009030B4313701F4B1A78D2B21F4B1B78DBB29A4207D11E4B1B7813F0040F02D01D4B1C702CE0184A13780133DBB213701378DBB2042BAE
:402D400002D90022134B1A70124B1A78D2B2104B1B78DBB29A420ED10D4A13780133DBB213701378DBB2042B02D90022084B1A7001220C4B1A70074B1B78DBB20A4AD4548C
:402D80000A4A137843F004031370FFF749FF10BDD382FF1FD582FF1F63640040C982FF1F43640040D282FF1FC482FF1F8364004010B5FFF765FF134B1A78D2B2124B1B78AD
:402DC000DBB29A4214D0114B1B7813F0FF0F0CD10C4A13780133DBB213701378DBB2052B06D90022074B1A7002E00022074B1A70044B1B78DBB2064AD45CE4B2FFF716FFEF
:402E0000204610BDD682FF1FD482FF1FC082FF1FCC82FF1F08B501E00A4B1B780A4B1B7813F0200FF8D102F007FC084B1A7842F001021A701A7802F0FE021A7002F000FCAB
:402E400008BD00BF53640040646400409364004010B50F22174B1A70174C102323600621042000F029F91549042000F011F9082323600721032000F01FF91149032000F056
:402E800007F9FFF7C7FF00240E4B1C700E4B1C700E4B1C700E4B1C700E4B1C700E4B1C70FFF7F4FEFFF706FF0C4B1C70202201331A7010BD8064004080E100E0FD2E0000B1
:402EC0009D2F0000C082FF1FD682FF1FD482FF1FD282FF1FD382FF1FD582FF1F8364004008B5054B1B7823B9FFF7B2FF0122024B1A70FFF7A1FE08BD0882FF1F28E01F4BAA
:402F000019781F4A137803F009030B431370137813F0040F24D01B4B1B7813F0FF0F0CD1194A13780133DBB213701378DBB2042B06D90022144B1A7002E00022114B1A7073
:402F4000114B1B78DBB2114AD35CDBB2104A13700D4B1A78D2B20F4B1B78DBB29A42CED1094B1A78D2B20B4B1B78DBB29A4204D1094A137803F0FB031370704763640040DD
:402F8000C982FF1FD282FF1FD382FF1FC482FF1F43640040D582FF1F83640040204B1A7820490B7803F0400313430B7032E01E4B1A78D2B21D490B780133DBB20B700B78B3
:402FC000DBB2052B02D90021184B1970174B1978C9B2174B1B78DBB299420ED114490B780133DBB20B700B78DBB2052B02D900210F4B197001210F4B19700C4B1B78DBB2CB
:403000000D49CA54064B1A7806490B7803F0400313430B70034B1B7813F0200FC7D1704764640040D782FF1F53640040D482FF1FD682FF1FC082FF1FCC82FF1F01BE70475C
:40304000024A137843F0010313707047F646004010B5044605E0084B186802F0E5FAA4F50044B4F5004FF6D8034B586800FB04F002F0DAFA10BD00BF1081FF1F08B5034B48
:403080001B7A00FB03F002F0CFFA08BD1081FF1F70B504460E46074B1D681F2802D90020FFF7CCFF04F01F04103455F8240045F8246070BD08ED00E038B504460D46072978
:4030C00002D90020FFF7BAFF1F2C02D90020FFF7B5FF04F01F0000F1604000F564406D01EDB2057038BD00BF134B1B78DBB20360124A127843EA02230360114A127843EA35
:40310000024303600F4A127843EA026303600E4B1B78DBB243600D4A127843EA022343600B4A127843EA024343600A4A127843EA02634360704700BF030100490401004905
:40314000EC4600400201004901010049000100490501004906010049F8B502F06DFA0546404A137843F0010313701032137843F00103137001273C4B1F700226943B1E70F3
:4031800002F5E2521B32137803F07F0313700020FFF774FF354C237803F0F9032370344A137803F0DF03137023783B4323703846FFF764FF2820FFF761FF2E4B1A7802F06E
:4031C0007F021A701A7802F0BF021A702378334323703046FFF752FF237843F0040323700023254A137001321370284602F028FA07211720FFF760FF20491720FFF748FF4E
:4032000007211820FFF758FF1D491820FFF740FF07211520FFF750FF1A491520FFF738FF07210620FFF748FF17490620FFF730FF07210846FFF740FF14490720FFF728FF25
:4032400007210820FFF738FF11490820FFF720FF07210C20FFF730FF0E490C20FFF718FFF8BD00BFA54300409D6000409443004012600040F851004084600040E13C0000C5
:40328000C93A0000DD3C00003D3C00006D3C0000A13C00007D3F000010B5002304E00124244AD4542344DBB2012BF8D9224B18700023224A1370224A1370224A1370224A6E
:4032C0001370224A1370224A1370224A1370224B4FF400021A604FF080721A604FF400121A6040221A6080221A604FF480721A6011B1012906D00BE0184A137803F0FE03A3
:4033000013700AE0154A137843F00103137004E0124A137843F0010313700322104B1A708022203B1A70012002F07EF904220D4B1A7010BD8883FF1FFB82FF1FF082FF1FB3
:403340000283FF1F0883FF1FF182FF1FFC82FF1F1983FF1FF282FF1F00E100E009600040286000401260004038B504460D46064B1B7823B9FFF7F0FE0122034B1A7029460C
:403380002046FFF789FF38BD0982FF1F002304E001210E4AD1540B44DBB2012BF8D900230B4A13700B4A13700B4A13700B4A13700B4A13700B4A13700B4A137003220B4B86
:4033C0001A708022203B1A70704700BF8883FF1FF082FF1F0283FF1F0883FF1FF182FF1FFC82FF1F1983FF1FF282FF1F28600040014B1878704700BF0883FF1F064B1B7821
:4034000013F0FF0F05D0044B1878C0B200221A7070470020704700BF0283FF1F00EB40008300024A13445878704700BF1C83FF1F431EDBB2072B0BD8064B00011A18185C6A
:4034400000F00F00537843EA0020023880B2704700207047FC5F0040431EDBB2072B3CD8F0B4074600EB4004A3001C4C2344DB889BB2C3F500739A4208D900EB4002930082
:403480002344DA8892B2C2F5007292B200EB4004A300124C2344DB7843EA1223104D04012E192B55D3B2737039B909E0CE5C3D010C4C665501339BB200E000239A42F5D832
:4034C000420002449300054A134400225A705A79D2B20001044B1A54F0BC70471C83FF1FFC5F004078600040FE5F0040431EDBB2072B0BD8420002449300054A13440022B4
:403500005A705A79D2B20001024B1A54704700BF1C83FF1FFE5F004070B5D9B1054614460E46C8B1082819D8FFF782FFA04203D22846FFF77DFF0446002305E02901094ABF
:40354000525CF25401339BB2A342F7D32846FFF7CDFF04E0002402E0002400E00024204670BD00BF786000404FF40012014B1A60704700BF00E100E010B4FF2400230EE031
:40358000094AD25C02EB42029100084A11448A7AD2B2824201D11C4602230133DBB2012BEED9204610BC7047DC82FF1F1C83FF1F10B5204C2079FFF7DFFF237813F0800FDB
:4035C0000ED06378DBB2212B2FD11B4B07221A80C0EBC000194A1044586000F0E3FA10BD144B5B78DBB2202B02D0222B10D01EE0114A07231380C0EBC00310490B445360B4
:403600000F4A135C43F00103135400F0F3FA10BD084B9B780B4A22F81030094A135C43F00203135400F07CF910BD002010BD002010BD00BF006000400C83FF1F2081FF1F2D
:40364000EC82FF1FD882FF1F10B500241F4B1C701F4B1C705C700AE01E4B185DC0B2431EDBB2072B01D8FFF741FF0134E4B2012CF2D9194B1B7813F0FF0F1AD0154B1B7894
:4036800013F0FF0F17D0154B1B7813F0FF0F14D0114B1B78DBB2082B11D80E4B1B78DBB2082B0ED80D4B1B78DBB2082B0BD8002010BD012010BD012010BD012010BD01209A
:4036C00010BD012010BD012010BD00BF0A82FF1FEC82FF1FE482FF1FE882FF1FDC82FF1F70B506460D460F4B1B780F4AD45CE4B204EB440293000D4A13441B899BB28B42A0
:4037000009D204EB44029300084A13441D89ADB20020FFF793FC2A4631462046FFF79CFE70BD00BF0A82FF1FE882FF1F1C83FF1F08B5034B1B78034AD05CFFF76FFE08BD9C
:403740000A82FF1FE482FF1F08B5084B1B78084AD35CDBB203EB43018A0006490A44128992B201461846FFF7D7FE08BD0A82FF1FE482FF1F1C83FF1FC37803F0030390F955
:40378000020000280FDA032B06D002F001030B48C15442F001020EE0C2F380030848C15442F0040207E0032B05D0C2F340030548C15442F002021046704700BFE882FF1FCE
:4037C000DC82FF1FE482FF1F1D4B19781D4A13889BB20B449BB2138000220FE01A494B681B78DBB2194883544B6801334B600132D2B20B889BB2013B9BB20B80124B1B8896
:403800009BB20BB1072AE9D90D4B1B78DBB2082B00D05AB10E490B7883F080030B700F210C4B197002210C4B197004E0022309490B7009490B70094B1A70014B1A7070479A
:40384000F282FF1F0683FF1F0C83FF1F00600040FD82FF1FFA82FF1FF082FF1F1883FF1F0222074B1A708022064B1A700F22064B1A700023054A1370054A1370012070471A
:40388000F082FF1FFD82FF1FFA82FF1FF282FF1F1883FF1F08B5FFF797FF08BD10B4194B197801F00F010239C9B2174A13889BB20B449BB21380002011E0144A5468144B76
:4038C0001B5CDBB223705368013353600130C0B20139C9B213889BB2013B9BB213800B4B1B889BB20BB10029E7D10A4B19700A4A137883F0800313700B22084B1A7010BC44
:40390000704700BF296000400683FF1F0C83FF1F006000401883FF1FFD82FF1FFA82FF1F0623064A1370064A13708022054B1A700022054B1A700120704700BFF082FF1FF6
:40394000FA82FF1FFD82FF1F1883FF1F064B9B6843B1054B9A6810709A6804490988518000229A60704700BF0C83FF1F0683FF1F08B5134B1A78D2B21A701B78DBB213F0C8
:40398000800F02D00F4A137008BD0220FFF7DEFF0D4B1B7803F06003202B05D0402B06D043B900F0DDFD06E001F04EFE03E000F085FF00E0002010B90322024B1A7008BDA4
:4039C00028600040FA82FF1F0060004008B5094B1978094A13889BB20B449BB213800022064B1A700120FFF7B1FF0322044B1A7008BD00BFF282FF1F0683FF1FF082FF1FAA
:403A0000FA82FF1F08B50B4B1B78DBB2042B06D0062B07D0022B0BD1FFF7D8FF08BDFFF73DFF08BD0320FFF791FF0322024B1A7008BD00BFF082FF1FFA82FF1F08B50022E8
:403A4000044B1A700120FFF781FF0322024B1A7008BD00BFF082FF1FFA82FF1F08B50B4B1B7813F0FF0F07D0084A137843F0800307490B70002313700022064B1A7001207C
:403A8000FFF764FF0322044B1A7008BDFC82FF1F08600040F082FF1FFA82FF1F08B5094B1B78DBB2042B06D0062B07D0022B07D1FFF7F0FE08BDFFF7C1FF08BDFFF7CEFF52
:403AC00008BD00BFF082FF1F08B5284B1B78DBB213F0100F48D013F0800F0CD003F00F03012B16D1FFF744FF214B1B7813F0800F11D1012312E013F0400F03D0FFF7CEFFF8
:403B000001230BE013F0200F07D0FFF77BFF012304E0002302E0002300E0002323B3134B1B7813F0800F1FD1124B1B78124A12781343124A13701278D2B2934214D10C4B57
:403B40001B78DBB2094A127812F0800F07D1084B1B78DBB2054A1370137803F00F03044A1278D2B29342EAD108BD00BF28600040FA82FF1FFD82FF1F1883FF1F2960004019
:403B80000022064B1A80064B9B682BB1044A916800230B7092685380704700BF0683FF1F0C83FF1F08B50F4B1B889BB213B9FFF757FE15E002220C4B1A7000220B4B1A7032
:403BC000FFF7DEFF0A4AD179937943EA0123054A128892B2934201D2024A1380FFF7F4FD012008BD0C83FF1FF082FF1FFD82FF1F0060004008B504220B4B1A7080220B4B41
:403C00001A70FFF7BDFF0A4AD179937943EA0123084A128892B2934201D2064A13800B22054B1A70012008BDF082FF1FFD82FF1F006000400C83FF1FFA82FF1F0122094B1A
:403C40001A700F3B9B7C084B1B7B03F00303934204D0054AD37B83F08003D3730122024B5A7370470B6000401C83FF1F02220A4B1A700F3B93F82230084B1B7E03F003038A
:403C8000012B04D0054AD37E83F08003D3760122024B5A76704700BF0B6000401C83FF1F04220C4B1A700F3B93F832300A4B93F8243003F00303012B06D0074A92F8273068
:403CC00083F0800382F827300122034B83F82520704700BF0B6000401C83FF1F704700BF08B5FFF753FB08BD08B50C4B18780138C0B200F0CFF90A4B1B79DBB29A1C00EB94
:403D0000C20042680749CB5C02EBC3035B68596A0B78054A1380516008BD00BF0883FF1F00600040F882FF1F0C83FF1F08B50E4B18780138C0B200F0ADF90C4B1B79DBB2E0
:403D40009A1C00EBC20042680949CB5C02EBC3035B68DB69597813F8022B42EA012205490A804B6008BD00BF0883FF1F00600040F882FF1F0C83FF1F10B500221A4B1A8030
:403D80001A4B18780138C0B200F084F91849CB78DAB20B79DBB2991C00EBC1004168012B20D81448C35C01EBC3014968531EDBB2022B17D802F10053013B01EBC3000C4A0A
:403DC0009278D2B211F833309A420BD8406802EB4202910042185468034B5C60415A198092689A6010BD00BF0C83FF1F0883FF1F00600040F882FF1F08B55B4B1A79D2B2C4
:403E00001B7813F0800F4DD0574B5B78013B052B00F28E80DFE803F0212B3B8C8C03524BDB78DBB2212B09D1FFF75EFF4F4B1B889BB2002B7ED0FFF7B5FE08BD4A4BDB78B4
:403E4000DBB2222B78D1FFF771FF484B1B889BB2002B73D0FFF7A6FE08BDFFF78DFF434B1B889BB2002B6BD0FFF79CFE08BD012A68D83D4B9B7813F0FF0F65D13B490123B9
:403E80000B803B4B1A444A60FFF78CFE08BD012A5CD8364901230B80364B1A444A60FFF781FE08BD304B5B78DBB20A2B0DD00B2B2FD0092B4CD1FFF75FFF2C4B1B889BB226
:403EC000002B47D0FFF796FE08BD012A44D8264B9B7813F0FF0F41D1234BDB78DBB224498B54895CC9B2244B9B5CDBB2994203D20021214B995409E01F4B9B5CDBB2012B29
:403F000004D91B4B9B5CDBB21B498B54FFF708FD08BD012A24D8144B9B78DBB2012B21D8114B9B78DBB213498B54FFF7F9FC08BD002008BD002008BD002008BD002008BDF1
:403F4000002008BD002008BD002008BD002008BD002008BD002008BD002008BD002008BD002008BD002008BD006000400C83FF1F8C83FF1F8883FF1F9083FF1F08B500F0CE
:403F8000BBFC08BD70B588B0054603AC174E0FCE0FC43368237035B322232B7003236B7001A8FFF7A1F8002402231AE008AA224412F81C2C08A901EB121111F8141CE95407
:403FC000581C00212954981C02F00F0208AE324412F8142C2A54DA1CA9540134E4B20433DBB2212BE2D908B070BD00BF6487000010B401233EE019461A010C2421488454FB
:4040000003EB4300820020480244527912F0FF0F13D003EB430082001B480244127912F0800F04D01801194A024494700AE01801164A02440820907004E01801134A0244DE
:40404000802090704800084482000F480244D488E4B208010B4901448C71D088C0F30720C871D088C0B20871D288C2F307224A710133DBB2082BBED9FF22054B1A7010BC69
:40408000704700BF706000401C83FF1FFC5F00400A600040074B1A78074B03EBC2035B681A7C824204D9C000103018444068704700207047FB82FF1FB4870000F8B5404BF5
:4040C0001B7813F0FF0F79D03D4B18780138C0B2FFF7E0FF047AC2683A4B1878C0B200236AE01178884264D13749095CC9B25578A9425ED1917801F07F01D67806F0030609
:40410000DFF8C8E04D000D44AF000EEB07054FF0000C85F803C092F802C085F804C092F803C00EF807C097882F8192F90250002D0DDA012E01D1072700E00D274E000E44D9
:40414000B500224E35446F7101266E700CE0012E01D1052700E009274E000E44B5001B4E35446F7100266E70DFF868E00F010EEB07060125B57001FA05F529448D001349AD
:4041800029440D89C5F307250EF807500D89EDB27570CE88F6B20E4D3D44AE71CE88C6F30726EE71CE88F6B22E71C988C1F30721697108320133DBB2A34292D3F8BD00BFB0
:4041C0000883FF1FF182FF1FF882FF1F1C83FF1F70600040FC5F0040034B1A78034B03EBC2035868704700BFFB82FF1FB487000008B5084B18780138C0B2FFF74BFF30B12C
:4042000042681279023200EBC203586808BD002008BD00BF0883FF1F2DE9F047002310E0724D5900CA189600AC190022AA55A270E2702281A272627034462C4462710133DF
:40424000DBB2082BECD940B90AE000226849CA546849CA540133DBB200E00023012BF4D9654B1B7813F0FF0F00F0BD80624B18780138C0B2FFF70EFF80464368DB7913F025
:40428000400F05D05D4A137843F00103137004E05A4A137803F0FE03137098F808704FF0000A01266FE0D8F80C50002467E0AB7803F07F039E425FD1314606EB460083002D
:4042C0004A4803441B899BB2A888834206D206EB460E4FEA8E03454A134418812B784448C35CDBB26878834246D195F802C0DFF8FCE04B000B4498000EEB000383F804C093
:40430000EB780EF80030EB7803F0030395F90200002813DA012B02D14FF0070901E04FF00D09DFF8C8E04B0003EB010C4FEA8C00704480F805900121417012E0012B02D150
:404340004FF0050901E04FF00909DFF8A0E04B0003EB010C4FEA8C00704480F8059000214170AB790A2B01D0022B05D1524631462846FFF701FA824608350134E4B2BC4260
:4043800095D30136F6B2082E8DD9D8F80C0000220CE0837803F07F0310F8084B03EB43039900124B19448C720132D2B2BA42F0D3FFF71EFF124B1860002301210FE00B4DF6
:4043C0004A00501884002C44E380228992B213449BB203F0010213449BB20131C9B20829EDD9FFF705FEBDE8F08700BF1C83FF1FF882FF1F0083FF1F0883FF1F1983FF1FB6
:40440000F482FF1F08B5154B1B7903F07F035A1ED2B2072A20D8590019448A0010490A44917841F0010191700021D170517841F002015170127912F0800F05D01B01094AF9
:404440001A448D23937004E01B01064A1A4489239370FFF765FA08BD002008BD006000401C83FF1FFC5F0040274B1B7903F07F035A1ED2B2072A44D810B5590019448A000E
:4044800022490A44917801F0FE0191700021D1701F4C1801215C01F07F012154517801F0FD015170127912F0800F13D003EB43018A0016490A445278D2B2012A04D1224669
:4044C00002440C23937019E01B01114A1A440D23937013E003EB43018A000C490A445278D2B2012A05D11B01094A1A440823937004E01B01064A1A4409239370FFF710FACA
:4045000010BD0020704700BF006000401C83FF1FFC5F004010B50E4B1C79E4B20D4B18780138C0B2FFF7B6FD43681B799C4201D9022C0AD8084A135DDBB208490B55044B45
:404540009B78DBB21355012010BD002010BD00BF006000400883FF1FF882FF1F0083FF1F10B5964B1B78DBB20021954A118013F0800F00F0B380914A5278D2B20A2A00F2BC
:404580007981DFE812F06F00770177017701770177010B00770198007701A000874BDB78DBB2012B09D1FFF717FE4268844B5A6012221A80FFF7F6FA10BD804BDB78DBB21C
:4045C000022B13D17D4B9878FFF764FD002800F0538142687A4B5A605A68D1785A68927842EA01221A80FFF7DDFA10BD734BDB78DBB2032B05D032E00A7811440133DBB2C1
:4046000001E000236F496D4A9278D2B2934203D20A7812F0FF0FEFD1684B9B78DBB2EE2B00D16949654B9B7813F0FF0F0BD0634B9B78DBB2654A127C934204D1644C204694
:40464000FFF7A0FC21460B7813F0FF0F00F016810B785B4A13805160FFF7A4FA10BD00F0F3FF10BD13F0030317D0022B40F0088153490B80514B1B7903F07F0303EB4303D4
:404680009A00544B1A449278D2B2534B1A7000225A704B60FFF786FA10BD494902230B804E4B1A78D2B24C4B1A7000225A704B60FFF778FA10BD424B01221A80484A5A605F
:4046C000FFF770FA10BD3E4A012313803B4B1B7944490B445360FFF765FA10BD374A5278013A0A2A00F2CE80DFE812F04C00CC009700CC000B00CC00CC00CC001300CC00F7
:4047000030002E4B9B78DBB2374A1370FFF708F910BD2A4B9B7803F0FF041BB1601EC0B2FFF7B8FC04B110B9002C40F0AD802C4B1B78DBB29C4206D0294B1C7001202B4B9B
:404740001870FFF769FDFFF7EBF810BDFFF7E2FE002800F09B80194A1379DBB21279D2B223490A70234AD25CD2B21E49CB5CDBB29A4204D001221D4B1A70FFF79FFCFFF7AF
:40478000CFF810BD03F00303012B35D04BB1022B7ED10A4B9B7813F0FF0F7BD1FFF764FE10BD064B9B78DBB2012B75D10B4A137803F0FD031370FFF7B3F810BD0060004012
:4047C0000C83FF1F54880000A087000080890000D483FF1F1C83FF1F0C82FF1F1983FF1F0883FF1FF882FF1FFC82FF1F0283FF1FF182FF1F0083FF1F2D4B1B79DBB2012BF1
:404800004CD82B4B98781B79DBB22A49CA5C22EA0002CA54FFF784F810BD03F00303012B17D04BB1022B3BD1214B9B7813F0FF0F38D1FFF7E7FD10BD1D4B9B78DBB2012BF4
:4048400032D11D4A137843F002031370FFF768F810BD174B1B79DBB2012B27D8144B98781B79DBB21349CA5C22EA0002CA54FFF757F810BD002010BD002010BD002010BDA0
:40488000002010BD002010BD002010BD002010BD002010BD002010BD002010BD002010BD002010BD002010BD002010BD002010BD006000400483FF1F1983FF1F08B50B4BCA
:4048C0001B7813F0800F0CD0084B5B78DBB2012B09D1074B074A5A6012781A80FFF762F908BD002008BD002008BD00BF006000400C83FF1F78870000024B1878C0F3801072
:40490000704700BF8F450040084A137843F0040313701032137843F00403137002F66532137843F001031370704700BFA3430040014B1880704700BF1C4F0040014B188070
:40494000704700BF1E4F0040014B1870704700BF1B4F004008B5194A137843F0020313700232137803F08F0343F010031370144B1A7802F0CF021A701A7842F030021A70EF
:404980001A7802F0F0021A701A7842F00F021A707820FFF7CDFF0120FFF7D0FF0020FFF7D3FF084A137843F00403137002F67632137843F00103137008BD00BF184F0040C6
:4049C000234F0040A343004008B5054B1B7823B9FFF7C0FF0122024B1A70FFF795FF08BD0E82FF1F054A137843F0080313701032137843F008031370704700BFA2430040F3
:404A000008B50222054B1A6005490120FEF740FB07210120FEF750FB08BD00BF80E100E0FD4A000010B50224064B1C6000F0A0F8A0F5004000B2044B1B68044A14601844E0
:404A400010BD00BF80E100E01082FF1F00E100E038B505460224054B1C604FF4004000F081F8034B1D60034B1C6038BD80E100E01082FF1F00E100E0024B187800F00F00CA
:404A8000704700BF6964004040F00700014B1870704700BF8964004008B50F20FFF7F4FFFFF7EAFF00F0C8FD054A137843F01003137000F0C5FD0222024B1A6008BD00BF98
:404AC0009964004000E100E008B500F0A3F84FF4004000F047F80022064B1A60064B1B7823B9FFF78DFF0122034B1A70FFF7D4FF08BD00BF1082FF1F0F82FF1F0D4B1B78FD
:404B0000DBB213F0010F06D00B490A6802F5FF427F320A6007E013F0020F04D006490A68A2F500420A6013F0040F02D00022024B1A607047696400401082FF1F024A1378F7
:404B400043F080031370704779650040014B1870704700BF87650040014B1878704700BF67650040014B1880704700BF0A6A0040024B1B78024B188880B2704705650040E5
:404B80008A6A0040014B188880B270478A6A0040014B1880704700BF4A6A0040014B1880704700BF6A6A004008B501E0FFF7EAFFFFF7D2FF10F0400FF8D108BD08B5134BC0
:404BC0001A7802F0F8021A701A7802F0FC021A70FFF7EAFF4FF40040FFF7DAFF4FF40040FFF7C0FF0020FFF7B1FFFFF7B5FF4FF40040FFF7D3FF00F01FFD054A137843F064
:404C00001003137000F01CFD08BD00BF796500409765004008B5054B1B7823B9FFF7CEFF0122024B1A70FFF789FF08BD1482FF1F08B50D490520FEF72BFA07210520FEF733
:404C40003BFA0023094A13707221094A11702021013A11700621593A117047211032117002F5A872137008BD114D00001582FF1F8264004010B500F0DFFC04460B4A1378F0
:404C800043F020031370013A137843F0100313702022074B1A60074A137843F01003137000F082F8204600F0CBFC10BD9264004000E100E09865004008B5054B5B7823B995
:404CC000FFF7B6FF0122024B5A70FFF7D3FF08BD1582FF1F034B1B7813F0040FFAD1024B18707047686500404865004038B5074B5B782BB938BDFFF7EDFF0134A4B201E00C
:404D000005460024285D0028F5D138BD1582FF1F1D4B1B78DBB213F01E0F05D01B4803F01E0201780A43027003F0200303F0FF0233B3174B1978C9B2164B1B78DBB216486F
:404D4000C154164B1B7813F0FF0F02D00121144B197010490B780133DBB20B700B78DBB23F2B02D900210B4B19700A4B1978C9B20C4B1B78DBB2994202D10121074B19704D
:404D8000002AC5D1704700BF616400401582FF1F456400401882FF1F9483FF1F1982FF1F1A82FF1F1782FF1F054A137843F0100313701032137843F010031370704700BF54
:404DC000A2430040044A137803F0FB03800000F00400184310707047F0510040044A137803F0BF03800100F0400018431070704720510040044A137803F0EF03000100F00C
:404E0000100018431070704720510040044A137803F0F703C00000F008001843107070472051004008B50122054B1A6005490020FEF72EF902210020FEF73EF908BD00BF37
:404E400080E100E0214F000010B50124064B1C6000F068FAA0F5004000B2044B1B68044A1460184410BD00BF80E100E02082FF1F00E100E038B505460124054B1C604FF447
:404E8000004000F049FA034B1D60034B1C6038BD80E100E02082FF1F00E100E0024B187800F00F00704700BF6664004040F00700014B1870704700BF8664004008B50F2040
:404EC000FFF7F4FFFFF7EAFF00F0B6FB054A137843F01003137000F0B3FB0122024B1A6008BD00BF9664004000E100E008B500F06BFA4FF4004000F00FFA0022064B1A6024
:404F0000064B1B7823B9FFF78DFF0122034B1A70FFF7D4FF08BD00BF2082FF1F1C82FF1F0D4B1B78DBB213F0010F06D00B490A6802F5FF427F320A6007E013F0020F04D022
:404F400006490A68A2F500420A6013F0040F02D00022024B1A607047666400402082FF1F084A137843F0020313701032137843F00203137002F65932137843F001031370F3
:404F8000704700BFA3430040014B1880704700BF104F0040014B1880704700BF124F0040014B1870704700BF0F4F004008B5194A137843F0020313700232137803F08F03CF
:404FC00043F010031370144B1A7802F0CF021A701A7842F030021A701A7802F0F0021A701A7842F00F021A7046F2A810FFF7CCFF0120FFF7CFFF0020FFF7D2FF074A137872
:4050000043F00203137002F66A32137843F00103137008BD0C4F0040174F0040A343004008B5054B1B7823B9FFF7C0FF0122024B1A70FFF795FF08BD2482FF1F08B504228F
:40504000054B1A6005490220FEF722F807210220FEF732F808BD00BF80E100E03951000010B50424064B1C6000F0D6F9A0F5004000B2044B1B68044A1460184410BD00BFB3
:4050800080E100E02882FF1F00E100E038B505460424054B1C604FF4004000F0B7F9034B1D60034B1C6038BD80E100E02882FF1F00E100E0024B187800F00F00704700BF31
:4050C0006E64004040F00700014B1870704700BF8E64004008B50F20FFF7F4FFFFF7EAFF00F0AAFA054A137843F01003137000F0A7FA0422024B1A6008BD00BF9E640040BC
:4051000000E100E008B500F0D9F94FF4004000F07DF90022064B1A60064B1B7823B9FFF78DFF0122034B1A70FFF7D4FF08BD00BF2882FF1F2582FF1F0D4B1B78DBB213F0C7
:40514000010F06D00B490A6802F5FF427F320A6007E013F0020F04D006490A68A2F500420A6013F0040F02D00022024B1A6070476E6400402882FF1F084A137843F00103E7
:4051800013701032137843F00103137002F64D32137843F001031370704700BFA3430040014B1880704700BF044F0040014B1880704700BF064F0040014B1870704700BF67
:4051C000034F004008B5194A137843F0020313700232137803F08F0343F010031370144B1A7802F0CF021A701A7842F030021A701A7802F0F0021A701A7842F00F021A708D
:405200007820FFF7CDFF0120FFF7D0FF0020FFF7D3FF084A137843F00103137002F65E32137843F00103137008BD00BF004F00400B4F0040A343004008B5054B1B7823B993
:40524000FFF7C0FF0122024B1A70FFF795FF08BD2C82FF1F044A137803F07F03C001C0B218431070704700BF20510040014B1870704700BF75650040044A137803F0FB03B3
:40528000800000F0040018431070704750510040044A137803F0F703C00000F0080018431070704750510040044A137803F0EF03000100F0100018431070704750510040E4
:4052C000044A137803F0DF03400100F0200018431070704750510040044A137803F0BF03800100F0400018431070704750510040024A137843F080031370704776640040A9
:40530000014B1870704700BF84650040014B1878704700BF64650040014B1880704700BF0C680040024B1B78024B188880B27047066400408C680040014B188880B2704728
:405340008C680040014B1880704700BF4C680040014B1880704700BF6C68004008B501E0FFF7EAFFFFF7D2FF10F0400FF8D108BD08B5134B1A7802F0F8021A701A7802F075
:40538000FC021A70FFF7EAFF4FF40040FFF7DAFF4FF40040FFF7C0FF0020FFF7B1FFFFF7B5FF4FF40040FFF7D3FF00F045F9054A137843F01003137000F042F908BD00BFC1
:4053C000766400409465004008B5054B1B7823B9FFF7CEFF0122024B1A70FFF789FF08BD2D82FF1F024A137843F08003137070477F640040014B1870704700BF8C640040AD
:40540000014B1878704700BF6C640040014B1880704700BF16680040024B1B78024B188880B270470B64004096680040014B188880B2704796680040014B1880704700BFE2
:4054400056680040014B1880704700BF7668004008B501E0FFF7EAFFFFF7D2FF10F0400FF8D108BD08B5134B1A7802F0F8021A701A7802F0FC021A70FFF7EAFF4FF4004004
:40548000FFF7DAFF4FF40040FFF7C0FF0020FFF7B1FFFFF7B5FF4FF40040FFF7D3FF00F0CBF8054A137843F01003137000F0C8F808BD00BF7F6400409C64004008B5054B30
:4054C0001B7823B9FFF7CEFF0122024B1A70FFF789FF08BD2E82FF1F084A137843F0080313701032137843F00803137002F67132137843F001031370704700BFA3430040C7
:40550000084A137803F0FE031370A2F68132137803F0F70313701032137803F0F7031370704700BF244F0040014B1870704700BF274F0040014B1880704700BF284F00405A
:40554000014B1880704700BF2A4F004008B5164A137803F0010313700232137803F0FC031370124B1A7802F0CF021A701A7842F030021A701A7802F0F0021A701A7842F042
:405580000F021A700A4A137843F0010313704EF65F20FFF7CFFF4EF65F20FFF7D1FF0820FFF7C2FF08BD00BF244F00402F4F0040254F004008B5054B1B7823B9FFF7C6FFE8
:4055C0000122024B1A70FFF787FF08BD2F82FF1F014B1B685866704708ED00E04001C0B2014B1870704700BF09E400E04FF40072014B1A60704700BF00E100E04FF4007257
:40560000014B1A60704700BF80E100E010B50446FFF7F4FF2046FFF7DBFF0720FFF7DEFFFFF7E4FF10BD00BF0230800803D000BF01380046FCD17047EFF3108072B67047C0
:4056400080F31088704700BF08B5164B1B7803F00303012B02D0022B04D00FE0114B1B79DBB20CE00F4B1B7903F07F0303EB43039A000D4B1A44937ADBB200E00023022BF7
:405680000CD80A4A1268D35C022B04D0032B07D1FEF7B2FB08BDFDF78BFF08BD002008BD002008BD006000401C83FF1FF482FF1F81F0004102E000BF83F0004330B54FEA76
:4056C00041044FEA430594EA050F08BF90EA020F1FBF54EA000C55EA020C7FEA645C7FEA655C00F0E2804FEA5454D4EB5555B8BF6D420CDD2C4480EA020281EA030382EAD2
:40570000000083EA010180EA020281EA0303362D88BF30BD11F0004F4FEA01314FF4801C4CEA113102D0404261EB410113F0004F4FEA03334CEA133302D0524263EB430359
:4057400094EA050F00F0A780A4F10104D5F1200E0DDB02FA0EFC22FA05F2801841F1000103FA0EF2801843FA05F359410EE0A5F120050EF1200E012A03FA0EFC28BF4CF097
:40578000020C43FA05F3C01851EBE37101F0004507D54FF0000EDCF1000C7EEB00006EEB0101B1F5801F1BD3B1F5001F0CD349085FEA30004FEA3C0C04F101044FEA445257
:4057C00012F5800F80F09A80BCF1004F08BF5FEA500C50F1000041EB045141EA050130BD5FEA4C0C404141EB010111F4801FA4F10104E9D191F0000F04BF01460020B1FA94
:4058000081F308BF2033A3F10B03B3F120020CDA0C3208DD02F1140CC2F10C0201FA0CF021FA02F10CE002F11402D8BFC2F1200C01FA02F120FA0CFCDCBF41EA0C01904072
:40584000E41AA2BF01EB0451294330BD6FEA04041F3C1CDA0C340EDC04F11404C4F1200220FA04F001FA02F340EA030021FA04F345EA030130BDC4F10C04C4F1200220FA5C
:4058800002F001FA04F340EA0300294630BD21FA04F0294630BD94F0000F83F4801306BF81F480110134013D4EE77FEA645C18BF7FEA655C29D094EA050F08BF90EA020FF9
:4058C00005D054EA000C04BF1946104630BD91EA030F1EBF0021002030BD5FEA545C05D14000494128BF41F0004130BD14F580043CBF01F5801130BD01F0004545F0FE4107
:4059000041F470014FF0000030BD7FEA645C1ABF194610467FEA655C1CBF0B46024650EA013406BF52EA033591EA030F41F4002130BD00BF90F0000F04BF0021704730B5FA
:405940004FF4806404F132044FF000054FF0000150E700BF90F0000F04BF0021704730B54FF4806404F1320410F0004548BF40424FF000013EE700BF42004FEAE2014FEA71
:4059800031014FEA02701FBF12F07F4393F07F4F81F06051704792F0000F14BF93F07F4F704730B54FF4607401F0004521F0004120E700BF50EA010208BF704730B54FF0A9
:4059C00000050AE050EA010208BF704730B511F0004502D5404261EB41014FF4806404F132045FEA915C3FF4DCAE4FF003025FEADC0C18BF03325FEADC0C18BF033202EBFB
:405A0000DC02C2F1200300FA03FC20FA02F001FA03FE40EA0E0021FA02F11444C1E600BF70B54FF0FF0C4CF4E06C1CEA11541DBF1CEA135594EA0C0F95EA0C0F00F0DEF804
:405A40002C4481EA030621EA4C5123EA4C5350EA013518BF52EA033541F4801143F4801338D0A0FB02CE4FF00005E1FB02E506F00042E0FB03E54FF00006E1FB03569CF028
:405A8000000F18BF4EF0010EA4F1FF04B6F5007F64F5407404D25FEA4E0E6D4146EB060642EAC62141EA55514FEAC52040EA5E504FEACE2EB4F1FD0C88BFBCF5E06F1ED884
:405AC000BEF1004F08BF5FEA500E50F1000041EB045170BD06F0004646EA010140EA020081EA0301B4EB5C04C2BFD4EB0C0541EA045170BD41F480114FF0000E013C00F302
:405B0000AB8014F1360FDEBF002001F0004170BDC4F10004203C35DA0C341BDC04F11404C4F1200500FA05F320FA04F001FA05F240EA020001F0004221F0004110EBD370B1
:405B400021FA04F642EB06015EEA430E08BF20EAD37070BDC4F10C04C4F1200500FA04F320FA05F001FA04F240EA020001F0004110EBD37041F100015EEA430E08BF20EA39
:405B8000D37070BDC4F1200500FA05F24EEA020E20FA04F301FA05F243EA020321FA04F001F0004121FA04F220EA020000EBD3705EEA430E08BF20EAD37070BD94F0000F34
:405BC0000FD101F00046400041EB010111F4801F08BF013CF7D041EA060195F0000F18BF704703F00046520043EB030313F4801F08BF013DF7D043EA0603704794EA0C0FA6
:405C00000CEA135518BF95EA0C0F0CD050EA410618BF52EA4306D1D181EA030101F000414FF0000070BD50EA410606BF1046194652EA430619D094EA0C0F02D150EA0136E7
:405C400013D195EA0C0F05D152EA03361CBF104619460AD181EA030101F0004141F0FE4141F470014FF0000070BD41F0FE4141F4780170BD70B54FF0FF0C4CF4E06C1CEA81
:405C800011541DBF1CEA135594EA0C0F95EA0C0F00F0A7F8A4EB050481EA030E52EA03354FEA013100F088804FEA03334FF0805545EA131343EA12634FEA022245EA11155C
:405CC00045EA10654FEA00260EF000419D4208BF964244F1FD0404F5407402D25B084FEA3202B61A65EB03055B084FEA32024FF480104FF4002CB6EB020E75EB030E22BF20
:405D0000B61A754640EA0C005B084FEA3202B6EB020E75EB030E22BFB61A754640EA5C005B084FEA3202B6EB020E75EB030E22BFB61A754640EA9C005B084FEA3202B6EB29
:405D4000020E75EB030E22BFB61A754640EADC0055EA060E18D04FEA051545EA16754FEA06164FEAC30343EA52734FEAC2025FEA1C1CC0D111F4801F0BD141EA00014FF0A8
:405D800000004FF0004CB6E711F4801F04BF01430020B4F1FD0C88BFBCF5E06F3FF6AFAEB5EB030C04BFB6EB020C5FEA500C50F1000041EB045170BD0EF0004E4EEA1131EE
:405DC00014EB5C04C2BFD4EB0C0541EA045170BD41F480114FF0000E013C90E645EA060E8DE60CEA135594EA0C0F08BF95EA0C0F3FF43BAF94EA0C0F0AD150EA01347FF4FF
:405E000034AF95EA0C0F7FF425AF104619462CE795EA0C0F06D152EA03353FF4FDAE1046194622E750EA410618BF52EA43067FF4C5AE50EA41047FF40DAF52EA43057FF4ED
:405E4000EBAE12E74FEA410212F5001215D211D56FF47873B3EB625212D94FEAC12343F0004343EA505311F0004F23FA02F018BF404270474FF00000704750EA013005D19A
:405E800011F0004008BF6FF0004070474FF00000704700BF4A0011D212F5001211D20DD56FF47873B3EB62520ED44FEAC12343F0004343EA505323FA02F070474FF00000DA
:405EC000704750EA013002D14FF0FF3070474FF00000704780F0004002E000BF81F0004142001FBF5FEA410392EA030F7FEA226C7FEA236C6AD04FEA1262D2EB1363C1BFCB
:405F0000D218414048404140B8BF5B42192B88BF704710F0004F40F4000020F07F4018BF404211F0004F41F4000121F07F4118BF494292EA030F3FD0A2F1010241FA03FCC6
:405F400010EB0C00C3F1200301FA03F100F0004302D5494260EB4000B0F5000F13D3B0F1807F06D340084FEA310102F10102FE2A51D2B1F1004F40EBC25008BF20F0010027
:405F800040EA03007047490040EB000010F4000FA2F10102EDD1B0FA80FCACF1080CB2EB0C0200FA0CF0AABF00EBC25052421843BCBFD0401843704792F0000F81F40001B1
:405FC00006BF80F400000132013BB5E74FEA41037FEA226C18BF7FEA236C21D092EA030F04D092F0000F08BF0846704790EA010F1CBF0020704712F07F4F04D1400028BF62
:4060000040F00040704712F100723CBF00F50000704700F0004343F0FE4040F4000070477FEA226216BF08467FEA23630146420206BF5FEA412390EA010F40F4800070479D
:406040004FF0000304E000BF10F0004348BF40425FEA000C08BF704743F0964301464FF000001CE050EA010208BF70474FF000030AE000BF50EA010208BF704711F0004369
:4060800002D5404261EB41015FEA010C02BF84460146002043F0B64308BFA3F18053A3F50003BCFA8CF2083AA3EBC25310DB01FA02FC634400FA02FCC2F12002BCF1004F4F
:4060C00020FA02F243EB020008BF20F00100704702F1200201FA02FCC2F1200250EA4C0021FA02F243EB020008BF20EADC7070474FF0FF0C1CEAD0521EBF1CEAD15392EA62
:406100000C0F93EA0C0F6FD01A4480EA010C400218BF5FEA41211ED04FF0006343EA501043EA5111A0FB01310CF00040B1F5000F3EBF490041EAD3715B0040EA010062F1DC
:406140007F02FD2A1DD8B3F1004F40EBC25008BF20F00100704790F0000F0CF0004C08BF49024CEA502040EA51207F3AC2BFD2F1FF0340EAC250704740F400004FF0000331
:40618000013A5DDC12F1190FDCBF00F000407047C2F10002410021FA02F1C2F1200200FA02FC5FEA310040F1000053EA4C0308BF20EADC70704792F0000F00F0004C02BF54
:4061C000400010F4000F013AF9D040EA0C0093F0000F01F0004C02BF490011F4000F013BF9D041EA0C018FE70CEAD15392EA0C0F18BF93EA0C0F0AD030F0004C18BF31F014
:40620000004CD8D180EA010000F00040704790F0000F17BF90F0004F084691F0000F91F0004F14D092EA0C0F01D142020FD193EA0C0F03D14B0218BF084608D180EA0100A2
:4062400000F0004040F0FE4040F40000704740F0FE4040F4400070474FF0FF0C1CEAD0521EBF1CEAD15392EA0C0F93EA0C0F69D0A2EB030280EA010C49024FEA402037D027
:406280004FF0805343EA111143EA10130CF000408B4238BF5B0042F17D024FF4000C8B4224BF5B1A40EA0C00B3EB510F24BFA3EB510340EA5C00B3EB910F24BFA3EB9103EA
:4062C00040EA9C00B3EBD10F24BFA3EBD10340EADC001B0118BF5FEA1C1CE0D1FD2A3FF650AF8B4240EBC25008BF20F0010070470CF0004C4CEA50207F32C2BFD2F1FF0311
:4063000040EAC250704740F400004FF00003013A37E792F0000F00F0004C02BF400010F4000F013AF9D040EA0C0093F0000F01F0004C02BF490011F4000F013BF9D041EA63
:406340000C0195E70CEAD15392EA0C0F08D142027FF47DAF93EA0C0F7FF470AF084676E793EA0C0F04D14B023FF44CAF08466EE730F0004C18BF31F0004CCAD130F000421A
:406380007FF45CAF31F000437FF43CAF5FE700BF4FEA4002B2F1FE4F0FD34FF09E03B3EB12620DD94FEA002343F0004310F0004F23FA02F018BF404270474FF0000070473D
:4063C00012F1610F01D1420205D110F0004008BF6FF0004070474FF000007047014B1868704700BF9C81FF1F0E4B70B51E460E4C0025E41AA410A54204D056F8253098471E
:406400000135F8E702F0E0FA084B094C1E46E41AA4100025A54204D056F8253098470135F8E770BDD4890000D4890000D4890000DC89000010B5431E0A44914204D011F879
:40644000014B03F8014FF8E710BD03460244934202D003F8011BFAE7704700000EB400B54FF402719CB0ADF814106FF00041049107914FF6FF711DAB02900690084853F8A5
:40648000042BADF81610006802A9019300F08CF8029B00221A701CB05DF804EB03B070479C81FF1F30B582B1451E013915F8013F11F8014FA34206D1EC431444E04201D038
:4064C000002BF3D11C46181B30BD104630BD034610B542B111F8014B013A03F8014B002CF7D11A4400E010BD934202D003F8014BFAE710BD2DE9F0478E6882469E420C4638
:40650000914698463ED88A8912F4906F3AD02568096902236F1A656905EB450595FBF3F57B1C43449D4238BF1D4653050FD5294600F040FB064698B13A462169FFF77AFF06
:40654000A38923F4906343F08003A38113E02A4600F08EFB064670B92169504600F0DEFA0C23CAF80030A3894FF0FF3043F04003A381BDE8F08726613E4426604646656180
:40658000ED1BA560464528BF464649463246206800F0A8FAA36800209B1BA36023681E442660BDE8F08700002DE9F04F9DB003938B8980461C060D4616460DD50B695BB9EF
:4065C000402100F0F7FA2860286118B90C23C8F80030CDE040236B610023099320238DF82930DFF89CB130238DF82A3037463C4614F8013B1BB9B7EB060910D003E0252B67
:40660000F9D02746F3E74B46324629464046FFF771FF013000F0A780099B4B4409933B78002B00F0A08000234FF0FF3204930793059206938DF853301A9301260522217851
:406640004E4800F041FA671C049B38B14B4A3C46801A06FA00F018430490EFE7D90644BF20228DF853201A0744BF2B228DF8532022782A2A03D0079A00210A200BE0039A2E
:40668000111D12680391002A10DA524243F00200079204900BE027463B780134303B092B03D800FB02320121F5E701B107923B782E2B1ED17B782A2B0AD1039B02371A1D36
:4066C0001B680392002BB8BF4FF0FF33059310E0002319460593781C0A2407463A780130303A092A03D804FB01210123F5E703B1059103223978224800F0E6F940B1402395
:40670000CBEB000003FA00F0049B013718430490397806221B487E1C8DF8281000F0D4F988B1194B33B9039B073323F007030833039314E003AB00932A46144B04A940461A
:40674000AFF3008007E003AB00932A460F4B04A9404600F093F8B0F1FF3F824603D0099B5344099342E7AB895B0601D4099801E04FF0FF301DB0BDE8F08F00BF94890000B6
:406780009A8900009E89000000000000F56400002DE9F04791461F460A698B6806469342B8BF1346C9F8003091F843200C46DDF8208012B10133C9F800302368990642BF9F
:4067C000D9F800300233C9F80030256815F0060510D104F1190A07E00123524639463046C04701301AD00135E368D9F800209B1A9D42F1DB94F843302268003318BF012399
:4068000092060FD5E118302081F843005A1C94F845102244023382F8431003E04FF0FF30BDE8F08704F1430239463046C0470130F4D02268D9F80050E36802F00602042A62
:4068400008BF5D1B2269A3680CBF25EAE57500259342C4BF9B1AED184FF000091A344D4509D00123224639463046C0470130D5D009F10109F3E70020BDE8F0872DE9F04316
:4068800017460A7E85B06E2A984606460C460C9B01F1430E00F0AE8011D8632A22D009D8002A00F0BB80582A40F0CA8081F84520834955E0642A1ED0692A1CD0C0E0732AF1
:4068C00000F0B08009D86F2A2ED0702A40F0B8800A6842F020020A603EE0752A24D0782A3AD0ADE01A6801F14205111D1960136884F84230A8E021681A6811F0800F02D024
:40690000111D196008E011F0400F02F10401196002D0B2F9003000E01368002B3CDA2D225B4284F8432037E021681A6811F0800F02D0111D196007E011F0400F02F1040199
:40694000196001D0138800E01368227E5C496F2A14BF0A2208221BE078225A4984F845202268186812F0800F00F104051D6003D1550601D5038800E00368D00744BF42F0BE
:40698000200222601BB9226822F0200222601022002084F8430001E049490A226568002DA56008DB206820F0040020602BB9002D7DD175460CE0002B79D07546B3FBF2F0AC
:4069C00002FB1033CB5C05F8013D03460028F5D1082A0BD12368DA0708D5236962689A42DEBF302305F8013C05F1FF35C5EB0E0323612EE008681A6810F0800F496903D088
:406A0000101D1860136808E010F0400F02F104001860136801D0198000E0196000232361754616E01A68111D1960156800216268284600F049F808B1401B6060636804E047
:406A400004F1420584F8422001232361002384F84330CDF800803B4603AA21463046FFF797FE013002D14FF0FF3026E023692A4639463046C0470130F5D023689B0710D5EF
:406A8000002504F1190907E001234A4639463046C0470130E7D00135E368039A9B1A9D42F2DBE068039B9842B8BF184605E00B7804F1420584F842308AE705B0BDE8F08337
:406AC000A5890000B689000010B5C9B202449042034605D01C7801308C42F8D1184610BD002010BD884210B501EB020301D8421E0BE09842FBD28118D21AD34204D013F87B
:406B0000014D01F8014DF8E710BD994204D011F8014B02F8014FF8E710BD000038B50546002944D051F8043C0C1F002BB8BFE41800F0D4F81E4A1368114613B9636014605A
:406B400030E0A3420DD92268A018834201BF18685B681218226063600C6023E0A24203D813465A68002AF9D118681918A1420BD12168014458188242196013D11068526883
:406B8000014419605A600DE002D90C232B6009E021686018824201BF106852680918216062605C602846BDE8384000F098B838BD3482FF1F70B5CD1C25F0030508350C2DE6
:406BC00038BF0C25002D064601DBA94202D90C23336046E000F082F8234B1C681A462146A1B10B685B1B0ED40B2B03D90B60CC18CD501EE08C420BBF63684B681360636062
:406C000018BF0C4615E00C464968E9E7174C23681BB9304600F052F820602946304600F04DF8431C18D0C41C24F00304A0420DD12560304600F053F804F10B00231D20F0CF
:406C40000700C31A0ED05A42E25070BD211A304600F034F80130EBD10C233360304600F03EF8002070BD00BF3482FF1F3082FF1FF8B5074615460E4621B91146BDE8F840D8
:406C8000FFF798BF1AB9FFF749FF2846F8BD00F027F885420ED929463846FFF78BFF044650B131462A46FFF7C5FB31463846FFF735FF01E03046F8BD2046F8BD38B5064CBC
:406CC0000023054608462360FBF714FF431C02D1236803B12B6038BDF883FF1F7047704751F8040C0028BEBF091851F8043CC0180438704700000000504342204F6E2F50B4
:406D000043422052455345542A2A2A2A2A2A2A2A2A2A20200D0A00004441544120524543454956454420200D0A000000426565706564204F6E636520200D0A00426565709B
:406D4000656420547769636520200D0A00000000426565706564204C6F6E6720200D0A00466565646261636B2053656E7420746F204D6F74686572626F61726420200D0ADB
:406D800000000000555342206E6F7420436F6E6E65637465642A2A2A2A2A2A2A2A2A2A2A20200D0A0000000055534220436F6E6E656374656420200D0A00000025642C20D7
:406DC000000000004C454420426172636F64652056616C756520526563697665642D2D2D3E00000053657420426172636F6465204C454420436F6D6D616E642045786563B5
:406E00007574656420200D0A00000000204C45442056616C756520526563697665642D2D2D3E0000536574204C454420436F6D6D616E6420457865637574656420200D0AE2
:406E4000000000002D2D2D2D2D2D2D2D2D2D2D2D2D2D2D2D2D2D2D2D2D2D2D2D2D2D2D2D2D2D2D2D2D2D2D2D2D2D2D2D2D2D2D2D2D2D2D2D2D2D0000595F486F6D696E672E
:406E80005F4E6F745F446F6E655F5965742A2A2A2A2A2A2A2A2A2A2A5B7831325D20200D0A000000585F486F6D696E675F4E6F745F446F6E655F5965742A2A2A2A2A2A2ACF
:406EC0002A2A2A2A20200D0A000000005A5F486F6D696E675F4E6F745F446F6E655F5965742A2A2A2A2A2A2A2A2A2A2A20200D0A0000000055534220556E706C75676564FF
:406F00002050434220726573657474696E67202A2A2A2A2A2A2A2A2A2A2A20200D0A00004E6F2056616C696420447269766572206E43532061737365727465642F64652D05
:406F4000617373657274656420666F722053504920526561642F577269746520200D0A00496E76616C6964204750494F204C6576656C2056616C75652C20556E61626C6528
:406F800020746F206173736572742F64652D617373657274206E43534E2050696E20666F722053504920526561642F577269746520200D0A0000000057616974696E672019
:406FC000666F722074617267657420706F736974696F6E20746F2072656163680A00000057616974696E67204C6F6F7020436F6D706C657465640A00496E697469616C20A0
:407000004572726F7220582051756164706F736974696F6E3A20000058204C6F6F7020436F756E743A20000058204C6F6F70204572726F7220646966666572656E63653A1E
:40704000200000004661696C20746F207265616368205820706F736974696F6E2C204572726F7220646966666572656E63653A20000000000A2051756164706F7369746919
:407080006F6E203A202000005820456E636F646572206F722058204D6F746F72204D69676874204E6F7420626520576F726B696E67200D0A000000005820706F73697469DE
:4070C0006F6E20526561636865640000486F6D696E67204E6F7420446F6E6500496E697469616C204572726F7220592051756164706F736974696F6E3A2000002F6E00000A
:4071000059204C6F6F7020436F756E743A20000059204C6F6F70204572726F7220646966666572656E63653A200000004661696C20746F207265616368205920706F736901
:4071400074696F6E2C204572726F7220646966666572656E63653A20000000005920456E636F646572206F722059204D6F746F72204D69676874204E6F7420626520576F5F
:40718000726B696E67200D0A000000005920706F736974696F6E20526561636865640000496E697469616C204572726F72205A2051756164706F736974696F6E3A200000DB
:4071C0005A204C6F6F7020436F756E743A2000004661696C20746F207265616368205A20706F736974696F6E2C204572726F7220646966666572656E63653A20000000006C
:407200005A20456E636F646572206F72205A204D6F746F72204D69676874204E6F7420626520576F726B696E67200D0A000000005A20706F736974696F6E205265616368ED
