:4000000000800020110000001D3000001D30000008B5044B1A6803F53F5302331A6003F01DF800BFFA46004010B5054C237833B9044B13B10448AFF300800123237010BDC5
:400040009881FF1F000000005C720000084B10B51BB108490848AFF300800848036803B910BD074B002BFBD0BDE81040184700BF000000009C81FF1F5C720000C880FF1FC6
:400080000000000000B583B062B605F0FBFCFF2005F07CFBFF2005F03DF900F089F805F0A7F8364800F0FCF800F0AEFA00F0C0F803F0B2F9002000F0B1FC642003F07AFA92
:4000C000012000F0ABFC642003F074FA022000F0A5FC642003F06EFA032000F09FFC642003F068FA042000F099FC642003F062FA642003F049FA642003F046FA642003F0E6
:4001000043FA002005F078FB642003F03DFAFF2005F072FB042141F6380001F0EBF9002004F032FF002005F04DFA002005F02EFB002005F0EFF80323009300231A46FF212B
:40014000184602F067FC00F04BFB03F08DFD88B10B4803F095FD0B4B188001280AD90A4800F09EF8FF2005F0D5F801F07DFE002005F0D0F8642003F01DFAE4E760720000E1
:400180004882FF1F8882FF1F80720000074A138801339BB2138042F6F822934204D1034B01229A7000221A80704700BFB481FF1F08B504F0A5FE114B188804F05BFE05F0AF
:4001C000D7FA022005F08EFA05F0C6F940F6C41005F07CF9C82003F0D7F9002005F076F9C82003F0D1F940F6C41005F06FF9C82003F0CAF9002005F069F908BDD080FF1FE4
:4002000010B50024034B5C6005F0D0F8204605F0C9FA10BDB481FF1F10B50124034B5C6005F0C4F8204605F0BDFA10BDB481FF1F10B5094B00249C60DC601C615C6105F055
:40024000F1F805F0FBF904F0DBFE2046FFF7E4FF2046FFF7D5FF10BDB481FF1F10B50F4B5B6833B905F08CF840420C4B58619A691A610A4B5B68012B06D1084CE36963617A
:4002800005F07EF84042206104F068FE4042034CA06005F081F94042E06010BDB481FF1F10B504460A220146074806F0AFFB50B1204604F0B7FF012003F07CF90A222146B6
:4002C000014806F0B8FB10BDD480FF1F08B540F6C41005F0FBF8C82003F056F9002005F0F5F8C82003F050F940F6C41005F0EEF8C82003F049F9002005F0E8F80248FFF797
:40030000CFFF002008BD00BFA47200000000000038B50446FFF7A2FF54B9714B1A68714B1A70120A5A7000229A70FA22DA70E0E0013C202C00F2DD80DFE804F011171D23A3
:40034000292F353B41474D53595F656B71777D83898F959BA1A7ADB3B9BFC5CBD600614B01229A70FA22DA70C3E05E4B02229A70FA22DA70BDE05B4B17229A70FA22DA7044
:40038000B7E0584B07229A70FA22DA70B1E0554B11229A70FA22DA70ABE0524B1D229A70FA22DA70A5E04F4B25229A70FA22DA709FE04C4B03229A70FA22DA7099E0494B31
:4003C00004229A70FA22DA7093E0464B18229A70FA22DA708DE0434B08229A70FA22DA7087E0404B12229A70FA22DA7081E03D4B1E229A70FA22DA707BE03A4B26229A70C3
:40040000FA22DA7075E0374B05229A70FA22DA706FE0344B06229A70FA22DA7069E0314B19229A70FA22DA7063E02E4B09229A70FA22DA705DE02B4B13229A70FA22DA7063
:4004400057E0284B1F229A70FA22DA7051E0254B27229A70FA22DA704BE0224B2B229A70FA22DA7045E01F4B2C229A70FA22DA703FE01C4B2D229A70FA22DA7039E0194B63
:400480002E229A70FA22DA7033E0164B2A229A70FA22DA702DE0134B2F229A70FA22DA7027E0104B28229A70FA22DA7021E00D4B22229A70FA22DA701BE00A4B23229A7058
:4004C000FA22DA7015E0074B24229A70FA22DA700FE0044B29229A70FA22DA7009E000BFC882FF1F8C82FF1F434B30229A70FA22DA70424DAB689B00AB60EB689B00EB6093
:400500002B699B002B61686905F0D8FC38A3D3E9002305F039FD05F049FF6861AB68364C2371AB681B126371AB681B14A371AB681B16E371EB682372EB681B126372EB68C0
:400540001B14A372EB681B16E3722B6923732B691B1263732B691B14A3732B691B16E3736B6923746B691B1263746B691B14A3746B691B16E374224A136823751B1263756C
:400580000023A375E37523766376A376E37651692177090A61779169A177090AE177D26984F82020120A84F8212084F8223084F8233084F8243084F8253084F826304C22BC
:4005C00084F8272084F8283084F8293084F82A3084F82B3084F82C3084F82D300948FFF75FFE2E21204603F017FB38BDAFF300809A999999999909408C82FF1FB481FF1F5D
:40060000D080FF1FC872000008B50121002003F047F905E00848FFF743FE012002F0CAFF03F082F90028F5D003F0AAFA0348FFF737FE03F035FA08BDEC7200001073000068
:4006400000B587B00246064901A806F0BBF901A804F0E8FD012002F0ADFF07B05DF804FB247300000000000010B5154BD8789B7803EB0020134C206205F020FC0EA3D3E9CC
:40068000002305F081FC00220F4B05F0A7FD05F0B5FE80B205F026F80C48FFF701FE206AFFF7CEFF0A48FFF7FBFD0A48FFF7F8FD002010BDAFF30080333333333333E33F2D
:4006C0004882FF1FB481FF1F000024402C730000847400004C73000010B5154BD8789B7803EB0020134C206005F0E8FB0EA3D3E9002305F049FC00220F4B05F06FFD05F01C
:400700007DFE80B204F0B6FB0C48FFF7C9FD2068FFF796FF0A48FFF7C3FD0A48FFF7C0FD002010BDAFF30080333333333333E33F4882FF1FD080FF1F000024407473000033
:40074000847400008C73000008B50548FFF7A8FD0448FFF7A5FD0448FFF7A2FD08BD00BF84740000AC7300009072000010B5184B93F8244054B99B6A43B90C22144B9A62CD
:400780001448FFF78DFDFFF7DFFF1EE0104B93F82C4054B99B6A43B906220D4B9A620E48FFF77EFDFFF7D0FF0FE0094B93F82D405CB99B6A43B91222054B9A620748FFF70D
:4007C0006FFDFFF7C1FF00E00124204610BD00BFB481FF1FE07300000C7400003474000008B503F0A7F8B0B1FFF770FD03F09CF888B1094B93F82E304BB10848FFF750FD73
:40080000FFF7A2FF012002F0BFFE02F0B5FE0122014B83F82E2008BDB481FF1F5C74000008B502F0F7FC0A2002F0C4FE012008BD10B54B1EDBB2FD2B3DD90C46042836D8A1
:40084000DFE800F0030D17212B000A2002F0B2FE204602F05DFC0A2002F0ACFE10BD0A2002F0A8FE204602F05FFC0A2002F0A2FE10BD0A2002F09EFE204602F061FC0A20A9
:4008800002F098FE10BD0A2002F094FE204604F059FD0A2002F08EFE10BD0A2002F08AFE204604F043FD0A2002F084FE10BD0448FFF7F6FC10BD0348FFF7F2FC10BD00BFAB
:4008C00088740000C8740000F8B506460D46174600212846FFF7ACFF06F07F063046FFF79FFF0020FFF79CFF0020FFF799FF0020FFF796FF0020FFF793FFFF212846FFF72C
:4009000097FF012002F040FE00212846FFF790FF3046FFF785FF02F0E7FC38700020FFF77FFF02F0E1FC04060020FFF779FF02F0DBFC44EA00440020FFF772FF02F0D4FCD0
:4009400044EA00240020FFF76BFF02F0CDFC0443FF212846FFF76CFF012002F015FE00212846FFF765FF3046FFF75AFF02F0BCFC38700020FFF754FF02F0B6FC44EA0064EF
:400980000020FFF74DFF02F0AFFC44EA00440020FFF746FF02F0A8FC44EA00240020FFF73FFF02F0A1FC0443FF212846FFF740FF2046F8BD70B506460C46154600211046E6
:4009C000FFF736FF46F08000FFF72AFF200EFFF727FFC4F30740FFF723FFC4F30720FFF71FFFE0B2FFF71CFFFF212846FFF720FF70BD00BF38B505460C460A460021202038
:400A0000FFF7D8FF224629460520FFF7D3FF224629462D20FFF7CEFF38BD00BF10B50446024605210120FFF7C5FF224608210020FFF7C0FF224600210320FFF7BBFF224608
:400A400000210520FFF7B6FF224600210620FFF7B1FF22460F210820FFF7ACFF224682490920FFF7A7FF224680490A20FFF7A2FF022C0AD1224600210B20FFF79BFF224630
:400A80007B491020FFF796FF2FE054B922465A210B20FFF78FFF224676491020FFF78AFF23E0012C0AD122467F210B20FFF782FF224670491020FFF77DFF16E0042C0AD1BA
:400AC0002246D2210B20FFF775FF22466A491020FFF770FF09E0224600210B20FFF76AFF224666491020FFF765FF22460A211120FFF760FF224600211320FFF75BFF22462C
:400B000000211420FFF756FF224600211520FFF751FF224600212120FFF74CFF224600212320FFF747FF224600212C20FFF742FF224600213320FFF73DFF224640F2AF217A
:400B40003420FFF737FF224600213820FFF732FF224600213920FFF72DFF22464FF480313A20FFF727FF224600213D20FFF722FF224643496020FFF71DFF22464149612021
:400B8000FFF718FF224640496220FFF713FF224608216320FFF70EFF22466FF080616420FFF708FF224639496520FFF703FF224637496620FFF7FEFE224636496720FFF742
:400BC000F9FE224634496820FFF7F4FE22464FF477016920FFF7EEFE224630496C20FFF7E9FE224600216D20FFF7E4FE224600216E20FFF7DFFE224629497020FFF7DAFEC1
:400C0000224600212120FFF7D5FE22464FF6FF712420FFF7CFFE22464FF6FF712520FFF7C9FE22464FF6FF712620FFF7C3FE224600212720FFF7BEFE22464FF6FF712820DD
:400C4000FFF7B8FE22464FF6FF712A20FFF7B2FE224665212B20FFF7ADFE224600212020FFF7A8FE10BD00BF060601000004080001030700010107000001070001050700AE
:400C800054B5AAAAAA54954A292949247D77BBB556552949224240005680FFFF530141001E000CC430B583B004461648FFF7F8FA02AD002305F8013D4FF4FA7002F07AFCF5
:400CC0002A4621460420FFF7FFFD642002F072FC2A4621460420FFF7F7FD08E00DF1070221462120FFF7F0FDC82002F063FC9DF8073013F0200FF1D00348FFF7D1FA0020A0
:400D000003B030BD20750000487500002DE9F041074605F04DFC4E4B196A05F051FD05F0EBFD0646FFF79AFA4A48FFF7B9FA4A4B9868FFF785FC4948FFF7B2FA00243FE020
:400D40004748FFF7ADFA2046FFF77AFC4348FFF7A7FAFFF783FA404B9D68751BB5F5FA6F03DB02209862BDE8F081284605F020FC374B196A05F070FC05F0BEFD804685EAD3
:400D8000E573A3EBE573042B18DD3648FFF788FA2846FFF755FC3148FFF782FA002107EB0800FFF727FE0020FFF77CFF322002F001FC002239462120FFF7FCFD0134E4B297
:400DC000052CBDD9FFF74AFA234B9B68F61A052C39D986EAE673A3EBE673072B1BDD06F2CF7140F69E72914215D81F48FFF758FA3046FFF725FC1D48FFF752FA164CA068C9
:400E0000FFF71EFC1548FFF74BFAFF2004F0BEFC0123A36217E0B3F5FA6F06DD1448FFF73FFA02220C4B9A620DE01248FFF738FA0022094B9A6239462120FFF7BBFD4FF495
:400E4000FA7002F0B7FB044B986ABDE8F08100BFD080FF1F60750000B481FF1F907200008075000090750000AC750000DC750000F07500002076000070B582B00446FFF7A8
:400E800075FC28B301221A491020FFF793FD022218491020FFF78EFD002217491020FFF789FD164E0025B562FFF7D8F929462046FFF7A0FD2846FFF7F5FE322002F07AFB67
:400EC0000F48FFF7EDF92046FFF720FFB06A0DE01023009300231A46FF21012001F09AFD0848FFF7DDF92020044B986202B070BD030107000201070005030700B481FF1F30
:400F000008730000347600002DE9F041074604F0D5FF4BA3D3E9002305F060F905F046FA0646FFF79BF94848FFF7BAF9474BD868FFF786FB4648FFF7B3F9002440E0454887
:400F4000FFF7AEF92046FFF77BFB4348FFF7A8F9FFF784F93D4BDD68751B284604F0AEFF37A3D3E9002305F00FF805F01FFA8046B5F57A6F03DB0922344B9A6222E085EAF0
:400F8000E573A3EBE573042B18DD3448FFF788F92846FFF755FB3048FFF782F9012107EB0800FFF727FD0120FFF77CFE322002F001FB012239462120FFF7FCFC0134E4B29C
:400FC000052CBCD9FFF74AF9204BDB68F61A032C31D986EAE673A3EBE673072B1BDD06F2CF7140F69E72914215D81D48FFF758F93046FFF725FB1B48FFF752F9134CE06860
:40100000FFF71EFB1448FFF74BF9FF2004F0BEFB0823A3620FE0B3F5FA6F06DD1248FFF73FF90922094B9A6205E01048FFF738F90022064B9A62054B986ABDE8F08100BF2F
:401040009A9999999999294044760000B481FF1F6476000068760000907200007876000094760000DC750000C4760000F476000038B50446FFF77AFB10B3002214491020A8
:40108000FFF798FC022213491020FFF793FC012211491020FFF78EFC104D0023AB62FFF7DDF801212046FFF7A5FC0120FFF7FAFD322002F07FFA2046FFF726FFA86A38BD7A
:4010C0000748FFF7EDF82020044B986238BD00BF030107000201070005020700B481FF1F34760000000000002DE9F041074604F0E5FE4BA3D3E9002305F070F805F056F990
:401100000646FFF7ABF84A48FFF7CAF8494B1869FFF796FA4848FFF7C3F8002440E04748FFF7BEF82046FFF78BFA4348FFF7B8F8FFF794F83F4B1D69751B284604F0BEFED3
:4011400039A3D3E9002304F01FFF05F02FF98046B5F57A6F03DB1022364B9A6222E085EAE573A3EBE573032B18DD3548FFF798F82846FFF765FA3048FFF792F8022107EBFA
:401180000800FFF737FC0220FFF78CFD322002F011FA022239462120FFF70CFC0134E4B2052CBCD9FFF75AF8224B1B69F61A032C31D986EAE673A3EBE673072B1BDD06F643
:4011C0009F7141F63E72914215D81E48FFF768F83046FFF735FA1C48FFF762F8154C2069FFF72EFA1448FFF75BF8FF2004F092F80F23A3620FE0B3F57A6F06DD1348FFF7F8
:401200004FF810220B4B9A6205E01148FFF748F80022084B9A62074B986ABDE8F08100BF9A999999999929409A9999999999094008770000B481FF1F907200002877000082
:401240007876000038770000DC750000687700009877000038B505461B4C012221461020FFF7A8FB002221461020FFF7A3FB022216491020FFF79EFB154B98694042FEF739
:40128000CBFFFFF773FAB8B1114C0023A362FEF7E5FF02212846FFF7ADFB0220FFF702FD322002F087F92846FFF71EFFFEF7D6FF2369A361A06A38BD0648FEF7F1FF2020E3
:4012C000034B986238BD00BF0301070002020700B481FF1F34760000F8B5074604F0EEFD33A3D3E9002304F079FF05F05FF8064600252BE0FEF7B2FF2F4B5C69341B204683
:4013000004F0DCFD2AA3D3E9002304F03DFE05F04DF8B4F57A6F03DB1722274B9A6217E0002CB8BF6442042C0EDD03213844FFF761FB0320FFF7B6FC322002F03BF90322FF
:4013400039462120FFF736FB0135EDB2032DD1D9FEF784FF184B5869301A032D22D980EAE073A3EBE073092B0CDD00F69F7041F63E72904206D81148FEF792FF16220E4BFF
:401380009A620FE0B3F57A6F06DD0D48FEF788FF1722094B9A6205E00A48FEF781FF0022054B9A62044B986AF8BD00BFAFF300809A99999999990940B481FF1FAC7700001D
:4013C000C8770000F877000038B50446002004F013FA4FF47A7002F0EDF81B4BD8694042FEF70EFFFFF7C2F918B3174D0023AB62FEF734FF1548FEF753FF03212046FFF75C
:40140000F9FA0320FFF74EFC322002F0D3F82046FFF716F90E48FEF743FF2046FFF75CFFFEF71CFF6B69EB61642002F0C3F8A86A38BD0848FEF734FF034C2023A36264209D
:4014400002F0B8F8A06A38BDB481FF1F0C780000087300003476000070B506460D461446FEF7FCFE2148FEF71BFF002E03DB00213046FFF7BFFA002D03DB01212846FFF767
:40148000B9FA002C08DB1A4B98694042FEF7C4FE02212046FFF7AEFA002E02DB0020FFF701FC002D02DB0120FFF7FCFB002C02DB0220FFF7F7FB002D02DB2846FFF724FDCC
:4014C000002C07DB2046FFF70FFEFEF7C7FE084B1A699A61FEF7C2FE054B986AFEF718FF322002F067F8002070BD00BF28780000B481FF1F08B50A4601462720FFF75AFA50
:40150000002008BD2DE9F041044600226A491020FFF750FA21464FF49620FFF7EBFF224602212020FFF746FAC82002F043F8634D2A4621460420FFF7C7F94FF4FA7002F09A
:4015400039F82A4621460420FFF7BEF95C48FEF7A7FE2DE004F0CAFA5A4804F0F3FA574A21460420FFF7B0F9642002F023F8564B9B78EBB1544D0420A862FEF7C9FE04F0E1
:401580005BFA224600212020FFF714FA224600212120FFF70FFA224600212D20FFF70AFA0023AB70AB624948FEF77AFEBDE8F081424B1B7813F0400FCCD004F03DFA424D49
:4015C0000026AE704248FEF76BFE224631462120FFF7F0F90A2001F0EDFF224631462120FFF7E8F9304603F0CFFC012785F82C7085F8247085F82D7085F82F70642001F091
:40160000D9FF4FF44840FFF737FC3248FEF748FEA86AFFF715F83048FEF742FE95F8303085F82C3095F8313085F8243095F8323085F82D3095F8333085F82F30642001F0D8
:40164000B9FF224631462120FFF7B4F9224631462D20FFF7AFF921462048FFF74BFF224696210B20FFF7A6F9DFF87C80224641461020FFF79FF9304603F086FC85F82C70B3
:4016800085F830701648FEF70BFE164C3A4621461020FFF78FF9022241461020FFF78AF9324621461020FFF785F9032221461020FFF780F9BDE8F08103050700CF80FF1F26
:4016C000447800008D010000B481FF1F647800009C780000B878000090720000FAD00500E078000003010700010107002DE9F041044601226B491020FFF75CF921464FF463
:401700009620FFF7F7FE224602212020FFF752F9322001F04FFF644D2A4621460420FFF7D3F84FF4FA7001F045FF2A4621460420FFF7CAF85D48FEF7B3FD2DE004F0D6F94F
:401740005B4804F0FFF9584A21460420FFF7BCF8584B9B78EBB1574D0B20A862FEF7D8FD04F06AF9224600212020FFF723F9224600212120FFF71EF9224600212D20FFF739
:4017800019F90023AB70AB624B48FEF789FDBDE8F081642001F00EFF434B1B7813F0400FCCD004F049F9434D0026AE704348FEF777FD224631462120FFF7FCF80A2001F0F4
:4017C000F9FE224631462120FFF7F4F8304603F0F9FE012785F82C7085F8247085F82D7085F82F70642001F0E5FE4FF49640FFF73FFC3348FEF754FDA86AFEF721FF314805
:40180000FEF74EFD95F8303085F82C3095F8313085F8243095F8323085F82D3095F8333085F82F30642001F0C5FE224631462120FFF7C0F8224631462D20FFF7BBF821460C
:401840002148FFF757FE224631460B20FFF7B2F8DFF88080224641461020FFF7ABF8304603F0B0FEAE6085F8247085F831701748FEF716FD164C3A4621461020FFF79AF8BF
:40188000022241461020FFF795F8324621461020FFF790F8032221461020FFF78BF8BDE8F08100BF03020700CE80FF1FF47800008D010000B481FF1F147900004C7900001C
:4018C0006879000090720000FAD00500907900000301070001010700F8B50446022269491020FFF767F821466748FFF703FE674B98694042FEF790FC224602212020FFF743
:4019000059F8322001F056FE614D2A4621460420FEF7DAFF4FF4FA7001F04CFE2A4621460420FEF7D1FF5B48FEF7BAFC2BE004F0DDF8594804F006F9554A21460420FEF7CB
:40194000C3FF524B9B78DBB1504D1220A862FEF7DFFC04F071F8224600212020FFF72AF8224600212120FFF725F8224600212D20FFF720F80023AB704848FEF791FCF8BDBC
:40198000642001F017FE424B1B7813F0400FCED004F052F83D4D0026AE704148FEF780FC224631462120FFF705F83046FEF734FCAE610A2001F0FEFD224631462120FEF79F
:4019C000F9FF3046FEF728FCAE61012785F82C7085F8247085F82D7085F82F70642001F0E9FD4FF44840FFF735FC2E48FEF758FCA86AFEF725FE2C48FEF752FCAE6295F83F
:401A0000303085F82C3095F8313085F8243095F8323085F82D3095F8333085F82F30642001F0C8FD224631462120FEF7C3FF224631462D20FEF7BEFF21461348FFF75AFD1B
:401A40003046FEF7E9FBAE6185F82D7085F832701648FEF725FC164C3A4621461020FEF7A9FF022213491020FEF7A4FF324621461020FEF79FFF032221461020FEF79AFF11
:401A8000F8BD00BF030207006EA30100B481FF1FCD80FF1FA47900008D010000C4790000FC790000187A000090720000407A00000301070001010700F8B50446002003F00D
:401AC0009BFE4FF47A7001F075FD21464FF44850FFF710FD514BD8694042FEF791FB224602212020FEF766FF322001F063FD4C4D2A4621460420FEF7E7FE4FF4FA7001F0C4
:401B000059FD2A4621460420FEF7DEFE29E003F0EDFF444804F016F8414A21460420FEF7D3FE3E4B9B78CBB13C4D1620A862FEF7EFFB03F081FF224600212020FEF73AFF07
:401B4000224600212120FEF735FF224600212D20FEF730FF0023AB70AB62F8BD642001F029FD2F4B1B7813F0400FD0D003F064FF2A4D0026AE70224631462120FEF71AFF9F
:401B80000A2001F017FD224631462120FEF712FF3046FEF735FBEE61012785F82C7085F8247085F82D7085F82F70642001F002FD40F6D860FFF708FC95F8303085F82C30BC
:401BC00095F8313085F8243095F8323085F82D3095F8333085F82F30642001F0EBFC224631462120FEF7E6FE224631462D20FEF7E1FE21464FF44850FFF77CFC3046FEF721
:401C0000FFFAEE6185F82F7085F833700648FEF747FB642001F0CEFCF8BD00BFB481FF1FCD80FF1F8D010000547A000038B505460C46042200212020FEF7BCFE04220021C7
:401C40002120FEF7B7FE04216248FFF753FC002003F0DEFD0F2001F097FC012C03D8012001F092FC00E00024012C00F29D80002C4DD104212846FEF7BDFE574C224604211F
:401C80000846FEF721FE4FF4FA7001F093FC224604210846FEF718FE2EE003F027FF4F4803F050FF4C4A04210846FEF70DFE4C4B9B78F3B14FF61D20FEF72AFB03F0BCFE0F
:401CC000042200212020FEF775FE042200212120FEF770FE042200212D20FEF76BFE404C0023A3702123A362FF2003F091FDA06A38BD642001F05EFC374B1B7813F0200F58
:401D0000CBD003F099FE0022354B9A704CE004216842FEF76FFE304C224604210846FEF7D3FD4FF4FA7001F045FC224604210846FEF7CAFD2EE003F0D9FE284803F002FFA7
:401D4000254A04210846FEF7BFFD254B9B78F3B14FF61D20FEF7DCFA03F06EFE042200212020FEF727FE042200212120FEF722FE042200212D20FEF71DFE194C0023A37080
:401D80002123A362FF2003F043FDA06A38BD642001F010FC104B1B7813F0200FCBD003F04BFE00220E4B9A7004210020FFF7A2FB042200212120FEF7FDFD042200212020B6
:401DC000FEF7F8FD052001F0DFFBFF2003F020FD002038BD6EA30100CF80FF1F8D010000B481FF1F70B506460D461446042200212020FEF7DFFD042200212120FEF7DAFD9B
:401E000004212846FFF776FB002003F001FD0A2001F0BAFB012C0FD83CB904213046FEF7E9FD0420FEF73EFF06E004217042FEF7E1FD0420FEF736FF04210020FFF75AFB84
:401E4000042200212120FEF7B5FD042201212020FEF7B0FD052001F097FBFF2003F0D8FC002070BD0000000070B582B00022CC4B9A62CC4A5178137803EB0123CA4A13609F
:401E80007A2B51D1C948FEF70BFAFF2003F0A8FC4FF4FA7001F08EFBFF2003F095FC4FF4FA7001F087FB002003F082FC4FF4FA7001F080FB0021BE48FFF71CFB012001F0C0
:401EC00063FBB74D00246C632046FEF7D5FFB94E012231461020FEF76DFD022231461020FEF768FD2246B4491020FEF763FD2046FFF708FB2246B1491020FEF75BFD32208F
:401F000001F042FB204603F06BFC322001F03CFB204603F059FC4FF4FA7001F04BFBA86AFEF7F6F900F00BBD7B2B4ED1A448FEF7B7F9FF2003F054FC4FF4FA7001F03AFB6E
:401F4000FF2003F035FC4FF4FA7001F033FB002003F03AFC4FF4FA7001F02CFB01219448FFF7C8FA012001F00FFB0020FFF780F8012294491020FEF71DFD02228D4910207B
:401F8000FEF718FD8D4C002221461020FEF712FD0120FFF7ABFB012221461020FEF70AFD322001F0F1FA002003F01AFC322001F0EBFA002003F0FCFB322001F0E5FA784BA0
:401FC000986AFEF7A5F900F0BABC7C2B45D17E48FEF766F9FF2003F0F7FB4FF4FA7001F0E9FAFF2003F0E4FB4FF4FA7001F0E2FA002003F0F5FB4FF4FA7001F0DBFA022186
:402000007248FFF777FA012001F0BEFA0020FFF721F9012267491020FEF7CCFC02226C491020FEF7C7FC002264491020FEF7C2FC0220FFF751FC322001F0A6FA002003F0F7
:40204000C3FB322001F0A0FA002003F0B1FB544B986AFEF75DF900F072BC7D2B4FD1FF2003F0BEFB4FF4FA7001F0A4FAFF2003F0ABFB4FF4FA7001F09DFAFF2003F098FB9B
:402080004FF4FA7001F096FA032252491020FEF791FC4FF4FA7001F08DFA002003F0ACFB0A2001F071FA0020FFF78EF90320FFF703FD4FF47A7001F07DFAFF2003F09CFB27
:4020C0004FF47A7001F076FA002003F089FB4FF47A7001F06FFA002003F076FB4FF47A7001F068FA002003F063FB4FF47A7001F061FA2B4B986AFEF70BF900F020BCB3F561
:40210000F46F71D13448FEF7CBF8264A517913791B0403EB0163D17803EB0123927813441F4CA3632D48FEF7BBF8A06BFEF788FA2B48FEF7B5F8A06B002800DA0330184D09
:40214000801003F0BBFE14A3D3E9002303F01CFF04F02CF9A863FEF78FFEA8620A2001F013FA204C012221461020FEF723FC022221461020FEF71EFC002221461020FEF7F5
:4021800019FC032221461020FEF714FCA86AFEF7BFF8D4E3AFF300809A99999999992940B481FF1F4882FF1FC882FF1F687A0000FAD0050001010700070407000103070038
:4021C000807A000003020700987A00006EA301000303070001050700B07A0000C87A00009072000002010700B3F5F66F47D1C448FEF756F8C34A517913791B0403EB0163DB
:40220000D17803EB012392781344BF4CE363BF48FEF746F8E06BFEF713FABD48FEF740F8E06B002800DA0330B74D801003F046FEAFA3D3E9002303F0A7FE04F0B7F8E863D6
:40224000FEF716FFA8620A2001F09EF9B14C012221461020FEF7AEFB022221461020FEF7A9FB002221461020FEF7A4FB032221461020FEF79FFBA86AFEF74AF85FE3B3F524
:40228000FA6F32D1A448FEF70BF80221A348FFF731F99C4A517913791B0403EB0163D17803EB012392781344974C23649748FDF7F7FF206CFEF7C4F99548FDF7F1FF206C79
:4022C000002800DA0F30904C001103F0F7FD8AA3D3E9002303F058FE04F068F82064FEF7B9FFA062FEF714F829E3B3F5FC6F5AD18B48FDF7D5FFFF2003F072FA4FF4FA70DC
:4023000001F058F9FF2003F05FFA4FF4FA7001F051F9FF2003F04CFA4FF4FA7001F04AF9032280491020FEF745FB4FF4FA7001F041F9002003F060FA0A2001F025F9714A43
:40234000517913791B0403EB0163D07803EB0023907818446C4C6064FFF736F8A0624FF47A7001F027F9FF2003F046FA4FF47A7001F020F9002003F033FA4FF47A7001F012
:4023800019F9002003F020FA4FF47A7001F012F9002003F00DFA4FF47A7001F00BF9A06AFDF7B6FFCBE27E2B21D15F48FDF778FF544A517913791B0403EB0163D17803EBD0
:4023C000012394781C449379012B03D80A2001F0F1F802E000224B4B9A714A4B99792046FFF724FC484B986AFDF792FFA7E2B3F5F86F40F09F804D48FDF752FF414B597935
:402400001A79120402EB0162D97802EB0122997811443D4881635C7A1A7A120402EB0462DC7902EB04229D791544C5635C7B1A7B120402EB0462DC7A02EB04229C7A1444F5
:40244000046400290EDB084600DAC81C801003F035FD27A3D3E9002303F096FD03F0A6FF294B9863002D0EDB284600DAE81C801003F024FD1EA3D3E9002303F085FD03F0DD
:4024800095FF214BD863002C0FDB204601DA04F10F00001103F012FD17A3D3E9002303F073FD03F083FF184B1864174C226CE16BA06BFEF7D1FFA0620A2001F065F81C4D33
:4024C000012229461020FEF775FA022229461020FEF770FA002229461020FEF76BFA032229461020FEF766FAA06AFDF711FF26E29A999999999929409A999999999949402A
:40250000E07A00004882FF1FB481FF1FC87A00009072000002010700F87A00006EA30100107B000001050700287B0000447B000003010700B3F5F44F0CD18948FDF7B0FEF4
:40254000FEF7CAF8642001F01FF8864B986AFDF7DFFEF4E1B3F5FE4F0CD18348FDF7A0FEFEF782F8642001F00FF87E4B986AFDF7CFFEE4E1B3F5FC4F14D17C48FDF790FE16
:402580007B4B9C7834B1012C03D07A48FDF788FE00E0FF24204602F0B1FE724B986AFDF7B7FECCE1FF2B13D17348FDF779FE7348FDF776FE4FF4FA7000F0E6FF0020FDF714
:4025C000A7FE4FF4FA7000F0DFFF00F0D5FFB6E1B3F5F64F4CD1664A517913791B0403EB0163D17803EB012391780B44644C6361517A137A1B0403EB0163D17903EB012393
:4026000091790B44A361517B137B1B0403EB0163D17A03EB0123927A1344E3615948FDF73FFE00216069FEF765FF0121A069FEF761FF0221E069FEF75DFF5348FDF730FE5F
:402640006069FDF7FDFF514D2846FDF729FEA069FDF7F6FF2846FDF723FEE069FDF7F0FF2846FDF71DFE3F4B986AFDF751FE66E140F2D172934248D14548FDF711FE3C4CCB
:40268000627923791B0403EB0263E27803EB0223A2781344334D2B643E48FDF701FE286CFDF7CEFF3C4E3046FDF7FAFD627A237A1B0403EB0263E27903EB0223A2791344C0
:4026C0002F4CE3613548FDF7EBFDE069FDF7B8FF3046FDF7E5FD0221E069FEF70BFF286C002800DA0F301F4C001103F0E7FB1AA3D3E9002303F048FC03F058FE2064FEF75C
:40270000A9FDA06AFDF704FE19E140F2D272934246D1174B59791A79120402EB0162D87802EB0022987810440E4CA064597A1A7A120402EB0162D97902EB012299791144B3
:40274000E1649A7A2265FFF74DFB0020A062FDF7DFFDF4E0AFF300809A99999999994940607B0000B481FF1F807B0000A07B00004882FF1FC07B0000E87B00008474000071
:40278000D080FF1F087C0000307C0000587C00005C7C0000C87A000090720000787C000040F2C172934240F095806B4B59791A79120402EB0162D97802EB012299781144D0
:4027C000664DA963587A1A7A120402EB0062D87902EB002298790244EA63587B1A7B120402EB0062D87A02EB0022987A02442A646963597C1A7C120402EB0162D97B02EB59
:402800000122997B0A44564C6261597D1A7D120402EB0162D97C02EB0122997C0A44A261597E1A7E120402EB0162D97D02EB01229B7D1A44E2610A2000F0BCFE002160695E
:40284000FEF758FE0121A069FEF754FE0221E069FEF750FEA86B002800DA03303F4C801003F02CFB38A3D3E9002303F08DFB03F09DFDA063E06B002800DA0330374C801017
:4028800003F01CFB30A3D3E9002303F07DFB03F08DFDE063206C002800DA0F302F4C001103F00CFB2AA3D3E9002303F06DFB03F07DFD2064642000F07DFE226CE16BA06B12
:4028C000FEF7CAFDA062642000F05EFEA06AFDF71FFD34E0B3F5F84F03D10020FDF718FD2DE0FE2B0FD1FF2002F050FF1D48FDF7D7FC0A2000F048FE0020FDF709FD0020F4
:4029000002F044FF1BE043F2733293420CD1124CA0782179A279237AA47A009400F07AF80020FDF7F5FC0AE013240C4B9C620E48FDF7B6FCFDF708FF2046FDF7E9FC02B09C
:4029400070BD00BFAFF300809A999999999929409A999999999949404882FF1FB481FF1FD080FF1F8C7C0000AC7C000010B440F0E000044C43EA0023238041EA0222628008
:4029800010BC70470882FF1F38B50546082313E05C1E45FA04F000F0010003F0E1F8002003F0EAF8012000F005FE012003F0E4F8012000F0FFFDE3B2002BE9D138BD00BFF8
:4029C00038B505469DF81000FFF7D0FF01220F4B1A7012E00E4C2088000AFFF7D5FF2078FFF7D2FF6088000AFFF7CEFFA078FFF7CBFF064A137801331370044B1B78AB4219
:402A0000E8D90022014B1A7038BD00BFD082FF1F0882FF1F2DE9F04182B004460D4616461F469DF820800020FFF7AEFF0020FFF7ABFF0020FFF7A8FF0020FFF7A5FF0122E8
:402A4000BC4B1A700FE0E020FFF79EFF0020FFF79BFF0020FFF798FF0020FFF795FFB54A137801331370B34B1B78342BEBD9FF20FFF78AFFFF20FFF787FFFF20FFF784FF76
:402A8000FF20FFF781FF072C00F25181DFE814F0080031005A008300AC00D500FE0027010020FFF771FF0020FFF76EFF0020FFF76BFF0020FFF768FF002400942346224673
:402AC00021462D20FFF77CFFE02300932346224621462046FFF774FFFF20FFF755FFFF20FFF752FFFF20FFF74FFFFF20FFF74CFF1DE10020FFF748FF0020FFF745FF0020AD
:402B0000FFF742FF0020FFF73FFFCDF800803B46324629462D20FFF753FFE023009300231A4619461846FFF74BFFFF20FFF72CFFFF20FFF729FFFF20FFF726FFFF20FFF7E6
:402B400023FFF4E00020FFF71FFF0020FFF71CFF0020FFF719FF0020FFF716FFCDF800803B46324629460720FFF72AFFE023009300231A4619461846FFF722FFFF20FFF7AC
:402B800003FFFF20FFF700FFFF20FFF7FDFEFF20FFF7FAFECBE00020FFF7F6FE0020FFF7F3FE0020FFF7F0FE0020FFF7EDFECDF800803B46324629460F20FFF701FFE0234C
:402BC000009300231A4619461846FFF7F9FEFF20FFF7DAFEFF20FFF7D7FEFF20FFF7D4FEFF20FFF7D1FEA2E00020FFF7CDFE0020FFF7CAFE0020FFF7C7FE0020FFF7C4FE7F
:402C0000CDF800803B46324629461720FFF7D8FEE023009300231A4619461846FFF7D0FEFF20FFF7B1FEFF20FFF7AEFEFF20FFF7ABFEFF20FFF7A8FE79E00020FFF7A4FE3B
:402C40000020FFF7A1FE0020FFF79EFE0020FFF79BFECDF800803B46324629461E20FFF7AFFEE023009300231A4619461846FFF7A7FEFF20FFF788FEFF20FFF785FEFF20ED
:402C8000FFF782FEFF20FFF77FFE50E00020FFF77BFE0020FFF778FE0020FFF775FE0020FFF772FECDF800803B46324629462620FFF786FEE023009300231A46194618466F
:402CC000FFF77EFEFF20FFF75FFEFF20FFF75CFEFF20FFF759FEFF20FFF756FE27E00020FFF752FE0020FFF74FFE0020FFF74CFE0020FFF749FECDF800803B463246294672
:402D00002D20FFF75DFEE023009300231A4619461846FFF755FEFF20FFF736FEFF20FFF733FEFF20FFF730FEFF20FFF72DFE02B0BDE8F081D082FF1FFEE700BFF0B4002222
:402D4000174611E050F82760F3B226F0FF0608E001EB420511F812406D78A5550132013BDBB2002BF4D10137252FEBD9F0BC7047064B1B78DBB203F00701054A11701B0922
:402D8000013213704422034B1A707047CF0100496E5800407658004008B50A46002103F008FE08BD08B503F0F9FD08BD08B503F0F5FD08BD38B501222C4B1A8018232C49AC
:402DC0000B7002310A8002310B7002310A80294A137017210232118002321370332102321180023213700622234B1A705222A3F580731A70214B1B78DBB2214A13704FF450
:402E0000E262204B1A8041F25122023B1A80002419250CE01C4B1B7803F0010343EA440404F003044FF4F07002F0B2FE013D0DB1032CEFD115B90320FFF77EFF134A4FF4E9
:402E40008073138007231370002311490B7048200231087013700532137002220D4B1A700D4A137843F01F03137038BD80400040824000408A400040004300400F0100493A
:402E8000A14600402242004025420040044000400640004001400040A243004038B572B64C4A137843F00403137000240CE04A4D630019194A0011462A44084691882858CB
:402EC000FFF76AFF0134E4B2062CF0D900240BE04149A3001819420088188022016BC06AFFF760FF0134E4B2002CF1D03A4C04F1380104F6B860FFF721FF384A384B1A60BE
:402F0000A2F5802203F500631A6002F1004203F520731A60334A137843F0020313701032137843F0020313702F4D2B7843F040032B70A2F58632513A137843F010031370A0
:402F40000A2204F575612948FFF72CFF082204F65C712748FFF726FF0A2204F664712548FFF720FF082204F577612348FFF71AFF0A2204F678712148FFF714FF0A2204F6B0
:402F800084711F48FFF70EFF082204F579611D48FFF708FF0A2204F698711B48FFF702FF082204F6A4711948FFF7FCFE184A137843F008031370174C61232370FFF7FAFE2A
:402FC000C1232370FFF7D4FE0E2229461248FFF7EDFE38BDE8460040D47C000004040444580C014003500140A043004000510040C2510040F05100401251004020510040A0
:40300000305100404251004050510040625100402243004000480040B043004008B503F091FC03680C2B00D1FEE7FEE708B5094B1A681044084BC31A802B02DC054B1860E6
:4030400005E003F07FFC0C2303604FF0FF32104608BD00BF0481FF1F1084FF1F08B5104E104D16E029686B68AC68002204E051F8040B43F8040B0432A242F8D1E8680022E9
:4030800003E0002143F8041B04328242F9D11035013E002EE6D103F05BFCFCF7F3FFFEE701000000888F000008B5104A104B1A60104A136843F40073136000230AE0032B40
:4030C00003D80D4A52F8231000E00C490C4A42F8231001332F2BF2D90A4B1A780A4B1A70074A0A4B1A60FFF7D9FE08BD0004FA050CED00E014ED00E0000000001D3000004E
:403100000080FF1FBC760040C080FF1F08ED00E0044A137803F0FE0300F0010018431070704700BF20510040044A137803F0FD03400000F00200184310707047205100404B
:40314000044A137803F0FB03800000F00400184310707047205100401022014B1A60704700E100E00822014B1A60704700E100E008B502F015FD0C4A137843F0200313707B
:403180000332137843F0100313700132137843F01003137002F008FD01F0C0FEFFF7DCFFFFF7E0FF08BD00BF906400401022014B1A60704780E100E00822014B1A60704764
:4031C00080E100E010B5FFF7F1FF064B1C78064A137803F009031C4300231370FFF7BCFF204610BD63640040DD82FF1F10B5FFF7E3FF064B1B78064A147804F040041C43C3
:4032000000231370FFF7AEFF204610BD64640040EB82FF1F10B504462B4B1A7802F0FF0312B1013BDBB200E00423284A1278D2B29342F1D0FFF7BAFF254B1978254A137821
:4032400003F009030B4313701F4B1A78D2B21F4B1B78DBB29A4207D11E4B1B7813F0040F02D01D4B1C702CE0184A13780133DBB213701378DBB2042B02D90022134B1A707F
:40328000124B1A78D2B2104B1B78DBB29A420ED10D4A13780133DBB213701378DBB2042B02D90022084B1A7001220C4B1A70074B1B78DBB20A4AD4540A4A137843F0040313
:4032C0001370FFF749FF10BDE782FF1FE982FF1F63640040DD82FF1F43640040E682FF1FD882FF1F8364004010B5FFF765FF134B1A78D2B2124B1B78DBB29A4214D0114B74
:403300001B7813F0FF0F0CD10C4A13780133DBB213701378DBB2052B06D90022074B1A7002E00022074B1A70044B1B78DBB2064AD45CE4B2FFF716FF204610BDEA82FF1F95
:40334000E882FF1FD482FF1FE082FF1F08B501E00A4B1B780A4B1B7813F0200FF8D102F01FFC084B1A7842F001021A701A7802F0FE021A7002F018FC08BD00BF5364004028
:40338000646400409364004010B50F22174B1A70174C102323600621042000F029F91549042000F011F9082323600721032000F01FF91149032000F007F9FFF7C7FF0024AC
:4033C0000E4B1C700E4B1C700E4B1C700E4B1C700E4B1C700E4B1C70FFF7F4FEFFF706FF0C4B1C70202201331A7010BD8064004080E100E035340000D5340000D482FF1F91
:40340000EA82FF1FE882FF1FE682FF1FE782FF1FE982FF1F8364004008B5054B1B7823B9FFF7B2FF0122024B1A70FFF7A1FE08BD1482FF1F28E01F4B19781F4A137803F0A8
:4034400009030B431370137813F0040F24D01B4B1B7813F0FF0F0CD1194A13780133DBB213701378DBB2042B06D90022144B1A7002E00022114B1A70114B1B78DBB2114ACF
:40348000D35CDBB2104A13700D4B1A78D2B20F4B1B78DBB29A42CED1094B1A78D2B20B4B1B78DBB29A4204D1094A137803F0FB031370704763640040DD82FF1FE682FF1F6C
:4034C000E782FF1FD882FF1F43640040E982FF1F83640040204B1A7820490B7803F0400313430B7032E01E4B1A78D2B21D490B780133DBB20B700B78DBB2052B02D9002154
:40350000184B1970174B1978C9B2174B1B78DBB299420ED114490B780133DBB20B700B78DBB2052B02D900210F4B197001210F4B19700C4B1B78DBB20D49CA54064B1A78E7
:4035400006490B7803F0400313430B70034B1B7813F0200FC7D1704764640040EB82FF1F53640040E882FF1FEA82FF1FD482FF1FE082FF1F01BE7047024A137843F00103FC
:4035800013707047F646004010B5044605E0084B186802F0FDFAA4F50044B4F5004FF6D8034B586800FB04F002F0F2FA10BD00BF0881FF1F08B5034B1B7A00FB03F002F074
:4035C000E7FA08BD0881FF1F70B504460E46074B1D681F2802D90020FFF7CCFF04F01F04103455F8240045F8246070BD08ED00E038B504460D46072902D90020FFF7BAFFEE
:403600001F2C02D90020FFF7B5FF04F01F0000F1604000F564406D01EDB2057038BD00BF134B1B78DBB20360124A127843EA02230360114A127843EA024303600F4A12780E
:4036400043EA026303600E4B1B78DBB243600D4A127843EA022343600B4A127843EA024343600A4A127843EA02634360704700BF0301004904010049EC460040020100498D
:4036800001010049000100490501004906010049F8B502F085FA0546404A137843F0010313701032137843F00103137001273C4B1F700226943B1E7002F5E2521B32137851
:4036C00003F07F0313700020FFF774FF354C237803F0F9032370344A137803F0DF03137023783B4323703846FFF764FF2820FFF761FF2E4B1A7802F07F021A701A7802F09D
:40370000BF021A702378334323703046FFF752FF237843F0040323700023254A137001321370284602F040FA07211720FFF760FF20491720FFF748FF07211820FFF758FFD2
:403740001D491820FFF740FF07211520FFF750FF1A491520FFF738FF07210620FFF748FF17490620FFF730FF07210846FFF740FF14490720FFF728FF07210820FFF738FF10
:4037800011490820FFF720FF07210C20FFF730FF0E490C20FFF718FFF8BD00BFA54300409D6000409443004012600040F85100408460004019420000014000001542000027
:4037C00075410000A5410000D9410000B544000010B5002304E00124244AD4542344DBB2012BF8D9224B18700023224A1370224A1370224A1370224A1370224A1370224A73
:403800001370224A1370224B4FF400021A604FF080721A604FF400121A6040221A6080221A604FF480721A6011B1012906D00BE0184A137803F0FE0313700AE0154A1378E4
:4038400043F00103137004E0124A137843F0010313700322104B1A708022203B1A70012002F096F904220D4B1A7010BD9C83FF1F0F83FF1F0483FF1F1683FF1F1C83FF1FFB
:403880000583FF1F1083FF1F2D83FF1F0683FF1F00E100E009600040286000401260004038B504460D46064B1B7823B9FFF7F0FE0122034B1A7029462046FFF789FF38BDE7
:4038C0001582FF1F002304E001210E4AD1540B44DBB2012BF8D900230B4A13700B4A13700B4A13700B4A13700B4A13700B4A13700B4A137003220B4B1A708022203B1A70FD
:40390000704700BF9C83FF1F0483FF1F1683FF1F1C83FF1F0583FF1F1083FF1F2D83FF1F0683FF1F28600040014B1878704700BF1C83FF1F064B1B7813F0FF0F05D0044BFF
:403940001878C0B200221A7070470020704700BF1683FF1F00EB40008300024A13445878704700BF3083FF1F431EDBB2072B0BD8064B00011A18185C00F00F00537843EA3B
:403980000020023880B2704700207047FC5F0040431EDBB2072B3CD8F0B4074600EB4004A3001C4C2344DB889BB2C3F500739A4208D900EB400293002344DA8892B2C2F570
:4039C000007292B200EB4004A300124C2344DB7843EA1223104D04012E192B55D3B2737039B909E0CE5C3D010C4C665501339BB200E000239A42F5D8420002449300054A47
:403A0000134400225A705A79D2B20001044B1A54F0BC70473083FF1FFC5F004078600040FE5F0040431EDBB2072B0BD8420002449300054A134400225A705A79D2B20001A2
:403A4000024B1A54704700BF3083FF1FFE5F004070B5D9B1054614460E46C8B1082819D8FFF782FFA04203D22846FFF77DFF0446002305E02901094A525CF25401339BB213
:403A8000A342F7D32846FFF7CDFF04E0002402E0002400E00024204670BD00BF786000404FF40012014B1A60704700BF00E100E010B4FF2400230EE0094AD25C02EB4202AF
:403AC0009100084A11448A7AD2B2824201D11C4602230133DBB2012BEED9204610BC7047F082FF1F3083FF1F10B5204C2079FFF7DFFF237813F0800F0ED06378DBB2212B8E
:403B00002FD11B4B07221A80C0EBC000194A1044586000F0E3FA10BD144B5B78DBB2202B02D0222B10D01EE0114A07231380C0EBC00310490B4453600F4A135C43F0010301
:403B4000135400F0F3FA10BD084B9B780B4A22F81030094A135C43F00203135400F07CF910BD002010BD002010BD00BF006000402083FF1F1881FF1F0083FF1FEC82FF1FAE
:403B800010B500241F4B1C701F4B1C705C700AE01E4B185DC0B2431EDBB2072B01D8FFF741FF0134E4B2012CF2D9194B1B7813F0FF0F1AD0154B1B7813F0FF0F17D0154BFB
:403BC0001B7813F0FF0F14D0114B1B78DBB2082B11D80E4B1B78DBB2082B0ED80D4B1B78DBB2082B0BD8002010BD012010BD012010BD012010BD012010BD012010BD0120D1
:403C000010BD00BF1682FF1F0083FF1FF882FF1FFC82FF1FF082FF1F70B506460D460F4B1B780F4AD45CE4B204EB440293000D4A13441B899BB28B4209D204EB4402930036
:403C4000084A13441D89ADB20020FFF793FC2A4631462046FFF79CFE70BD00BF1682FF1FFC82FF1F3083FF1F08B5034B1B78034AD05CFFF76FFE08BD1682FF1FF882FF1F78
:403C800008B5084B1B78084AD35CDBB203EB43018A0006490A44128992B201461846FFF7D7FE08BD1682FF1FF882FF1F3083FF1FC37803F0030390F9020000280FDA032BC9
:403CC00006D002F001030B48C15442F001020EE0C2F380030848C15442F0040207E0032B05D0C2F340030548C15442F002021046704700BFFC82FF1FF082FF1FF882FF1F8E
:403D00001D4B19781D4A13889BB20B449BB2138000220FE01A494B681B78DBB2194883544B6801334B600132D2B20B889BB2013B9BB20B80124B1B889BB20BB1072AE9D954
:403D40000D4B1B78DBB2082B00D05AB10E490B7883F080030B700F210C4B197002210C4B197004E0022309490B7009490B70094B1A70014B1A7070470683FF1F1A83FF1FEF
:403D80002083FF1F006000401183FF1F0E83FF1F0483FF1F2C83FF1F0222074B1A708022064B1A700F22064B1A700023054A1370054A1370012070470483FF1F1183FF1F50
:403DC0000E83FF1F0683FF1F2C83FF1F08B5FFF797FF08BD10B4194B197801F00F010239C9B2174A13889BB20B449BB21380002011E0144A5468144B1B5CDBB223705368CE
:403E0000013353600130C0B20139C9B213889BB2013B9BB213800B4B1B889BB20BB10029E7D10A4B19700A4A137883F0800313700B22084B1A7010BC704700BF2960004011
:403E40001A83FF1F2083FF1F006000402C83FF1F1183FF1F0E83FF1F0623064A1370064A13708022054B1A700022054B1A700120704700BF0483FF1F0E83FF1F1183FF1F14
:403E80002C83FF1F064B9B6843B1054B9A6810709A6804490988518000229A60704700BF2083FF1F1A83FF1F08B5134B1A78D2B21A701B78DBB213F0800F02D00F4A137041
:403EC00008BD0220FFF7DEFF0D4B1B7803F06003202B05D0402B06D043B900F0DDFD06E001F066FE03E000F085FF00E0002010B90322024B1A7008BD286000400E83FF1F0D
:403F00000060004008B5094B1978094A13889BB20B449BB213800022064B1A700120FFF7B1FF0322044B1A7008BD00BF0683FF1F1A83FF1F0483FF1F0E83FF1F08B50B4BC6
:403F40001B78DBB2042B06D0062B07D0022B0BD1FFF7D8FF08BDFFF73DFF08BD0320FFF791FF0322024B1A7008BD00BF0483FF1F0E83FF1F08B50022044B1A700120FFF736
:403F800081FF0322024B1A7008BD00BF0483FF1F0E83FF1F08B50B4B1B7813F0FF0F07D0084A137843F0800307490B70002313700022064B1A700120FFF764FF0322044B30
:403FC0001A7008BD1083FF1F086000400483FF1F0E83FF1F08B5094B1B78DBB2042B06D0062B07D0022B07D1FFF7F0FE08BDFFF7C1FF08BDFFF7CEFF08BD00BF0483FF1F72
:4040000008B5284B1B78DBB213F0100F48D013F0800F0CD003F00F03012B16D1FFF744FF214B1B7813F0800F11D1012312E013F0400F03D0FFF7CEFF01230BE013F0200F85
:4040400007D0FFF77BFF012304E0002302E0002300E0002323B3134B1B7813F0800F1FD1124B1B78124A12781343124A13701278D2B2934214D10C4B1B78DBB2094A127856
:4040800012F0800F07D1084B1B78DBB2054A1370137803F00F03044A1278D2B29342EAD108BD00BF286000400E83FF1F1183FF1F2C83FF1F296000400022064B1A80064B35
:4040C0009B682BB1044A916800230B7092685380704700BF1A83FF1F2083FF1F08B50F4B1B889BB213B9FFF757FE15E002220C4B1A7000220B4B1A70FFF7DEFF0A4AD179B2
:40410000937943EA0123054A128892B2934201D2024A1380FFF7F4FD012008BD2083FF1F0483FF1F1183FF1F0060004008B504220B4B1A7080220B4B1A70FFF7BDFF0A4A9E
:40414000D179937943EA0123084A128892B2934201D2064A13800B22054B1A70012008BD0483FF1F1183FF1F006000402083FF1F0E83FF1F0122094B1A700F3B9B7C084BD4
:404180001B7B03F00303934204D0054AD37B83F08003D3730122024B5A7370470B6000403083FF1F02220A4B1A700F3B93F82230084B1B7E03F00303012B04D0054AD37ECF
:4041C00083F08003D3760122024B5A76704700BF0B6000403083FF1F04220C4B1A700F3B93F832300A4B93F8243003F00303012B06D0074A92F8273083F0800382F82730E8
:404200000122034B83F82520704700BF0B6000403083FF1F704700BF08B5FFF753FB08BD08B50C4B18780138C0B200F0CFF90A4B1B79DBB29A1C00EBC20042680749CB5C1E
:4042400002EBC3035B68596A0B78054A1380516008BD00BF1C83FF1F006000400C83FF1F2083FF1F08B50E4B18780138C0B200F0ADF90C4B1B79DBB29A1C00EBC200426834
:404280000949CB5C02EBC3035B68DB69597813F8022B42EA012205490A804B6008BD00BF1C83FF1F006000400C83FF1F2083FF1F10B500221A4B1A801A4B18780138C0B21B
:4042C00000F084F91849CB78DAB20B79DBB2991C00EBC1004168012B20D81448C35C01EBC3014968531EDBB2022B17D802F10053013B01EBC3000C4A9278D2B211F833306B
:404300009A420BD8406802EB4202910042185468034B5C60415A198092689A6010BD00BF2083FF1F1C83FF1F006000400C83FF1F08B55B4B1A79D2B21B7813F0800F4DD0F9
:40434000574B5B78013B052B00F28E80DFE803F0212B3B8C8C03524BDB78DBB2212B09D1FFF75EFF4F4B1B889BB2002B7ED0FFF7B5FE08BD4A4BDB78DBB2222B78D1FFF798
:4043800071FF484B1B889BB2002B73D0FFF7A6FE08BDFFF78DFF434B1B889BB2002B6BD0FFF79CFE08BD012A68D83D4B9B7813F0FF0F65D13B4901230B803B4B1A444A6074
:4043C000FFF78CFE08BD012A5CD8364901230B80364B1A444A60FFF781FE08BD304B5B78DBB20A2B0DD00B2B2FD0092B4CD1FFF75FFF2C4B1B889BB2002B47D0FFF796FE2E
:4044000008BD012A44D8264B9B7813F0FF0F41D1234BDB78DBB224498B54895CC9B2244B9B5CDBB2994203D20021214B995409E01F4B9B5CDBB2012B04D91B4B9B5CDBB2E8
:404440001B498B54FFF708FD08BD012A24D8144B9B78DBB2012B21D8114B9B78DBB213498B54FFF7F9FC08BD002008BD002008BD002008BD002008BD002008BD002008BDA9
:40448000002008BD002008BD002008BD002008BD002008BD002008BD002008BD002008BD006000402083FF1FA083FF1F9C83FF1FA483FF1F08B500F0BBFC08BD70B588B02A
:4044C000054603AC174E0FCE0FC43368237035B322232B7003236B7001A8FFF7A1F8002402231AE008AA224412F81C2C08A901EB121111F8141CE954581C00212954981CD5
:4045000002F00F0208AE324412F8142C2A54DA1CA9540134E4B20433DBB2212BE2D908B070BD00BF008D000010B401233EE019461A010C242148845403EB430082002048BE
:404540000244527912F0FF0F13D003EB430082001B480244127912F0800F04D01801194A024494700AE01801164A02440820907004E01801134A0244802090704800084480
:4045800082000F480244D488E4B208010B4901448C71D088C0F30720C871D088C0B20871D288C2F307224A710133DBB2082BBED9FF22054B1A7010BC704700BF70600040D2
:4045C0003083FF1FFC5F00400A600040074B1A78074B03EBC2035B681A7C824204D9C0001030184440687047002070470F83FF1F508D0000F8B5404B1B7813F0FF0F79D07E
:404600003D4B18780138C0B2FFF7E0FF047AC2683A4B1878C0B200236AE01178884264D13749095CC9B25578A9425ED1917801F07F01D67806F00306DFF8C8E04D000D4493
:40464000AF000EEB07054FF0000C85F803C092F802C085F804C092F803C00EF807C097882F8192F90250002D0DDA012E01D1072700E00D274E000E44B500224E35446F7133
:4046800001266E700CE0012E01D1052700E009274E000E44B5001B4E35446F7100266E70DFF868E00F010EEB07060125B57001FA05F529448D00134929440D89C5F30725FF
:4046C0000EF807500D89EDB27570CE88F6B20E4D3D44AE71CE88C6F30726EE71CE88F6B22E71C988C1F30721697108320133DBB2A34292D3F8BD00BF1C83FF1F0583FF1FEF
:404700000C83FF1F3083FF1F70600040FC5F0040034B1A78034B03EBC2035868704700BF0F83FF1F508D000008B5084B18780138C0B2FFF74BFF30B142681279023200EBEC
:40474000C203586808BD002008BD00BF1C83FF1F2DE9F047002310E0724D5900CA189600AC190022AA55A270E2702281A272627034462C4462710133DBB2082BECD940B95C
:404780000AE000226849CA546849CA540133DBB200E00023012BF4D9654B1B7813F0FF0F00F0BD80624B18780138C0B2FFF70EFF80464368DB7913F0400F05D05D4A137808
:4047C00043F00103137004E05A4A137803F0FE03137098F808704FF0000A01266FE0D8F80C50002467E0AB7803F07F039E425FD1314606EB460083004A4803441B899BB274
:40480000A888834206D206EB460E4FEA8E03454A134418812B784448C35CDBB26878834246D195F802C0DFF8FCE04B000B4498000EEB000383F804C0EB780EF80030EB781B
:4048400003F0030395F90200002813DA012B02D14FF0070901E04FF00D09DFF8C8E04B0003EB010C4FEA8C00704480F805900121417012E0012B02D14FF0050901E04FF09A
:404880000909DFF8A0E04B0003EB010C4FEA8C00704480F8059000214170AB790A2B01D0022B05D1524631462846FFF701FA824608350134E4B2BC4295D30136F6B2082E0B
:4048C0008DD9D8F80C0000220CE0837803F07F0310F8084B03EB43039900124B19448C720132D2B2BA42F0D3FFF71EFF124B1860002301210FE00B4D4A00501884002C4488
:40490000E380228992B213449BB203F0010213449BB20131C9B20829EDD9FFF705FEBDE8F08700BF3083FF1F0C83FF1F1483FF1F1C83FF1F2D83FF1F0883FF1F08B5154BEB
:404940001B7903F07F035A1ED2B2072A20D8590019448A0010490A44917841F0010191700021D170517841F002015170127912F0800F05D01B01094A1A448D23937004E070
:404980001B01064A1A4489239370FFF765FA08BD002008BD006000403083FF1FFC5F0040274B1B7903F07F035A1ED2B2072A44D810B5590019448A0022490A44917801F0F7
:4049C000FE0191700021D1701F4C1801215C01F07F012154517801F0FD015170127912F0800F13D003EB43018A0016490A445278D2B2012A04D1224602440C23937019E066
:404A00001B01114A1A440D23937013E003EB43018A000C490A445278D2B2012A05D11B01094A1A440823937004E01B01064A1A4409239370FFF710FA10BD0020704700BF92
:404A4000006000403083FF1FFC5F004010B50E4B1C79E4B20D4B18780138C0B2FFF7B6FD43681B799C4201D9022C0AD8084A135DDBB208490B55044B9B78DBB21355012026
:404A800010BD002010BD00BF006000401C83FF1F0C83FF1F1483FF1F10B5964B1B78DBB20021954A118013F0800F00F0B380914A5278D2B20A2A00F27981DFE812F06F0031
:404AC000770177017701770177010B00770198007701A000874BDB78DBB2012B09D1FFF717FE4268844B5A6012221A80FFF7F6FA10BD804BDB78DBB2022B13D17D4B987820
:404B0000FFF764FD002800F0538142687A4B5A605A68D1785A68927842EA01221A80FFF7DDFA10BD734BDB78DBB2032B05D032E00A7811440133DBB201E000236F496D4AF1
:404B40009278D2B2934203D20A7812F0FF0FEFD1684B9B78DBB2EE2B00D16949654B9B7813F0FF0F0BD0634B9B78DBB2654A127C934204D1644C2046FFF7A0FC21460B7846
:404B800013F0FF0F00F016810B785B4A13805160FFF7A4FA10BD01F00BF810BD13F0030317D0022B40F0088153490B80514B1B7903F07F0303EB43039A00544B1A44927858
:404BC000D2B2534B1A7000225A704B60FFF786FA10BD494902230B804E4B1A78D2B24C4B1A7000225A704B60FFF778FA10BD424B01221A80484A5A60FFF770FA10BD3E4A06
:404C0000012313803B4B1B7944490B445360FFF765FA10BD374A5278013A0A2A00F2CE80DFE812F04C00CC009700CC000B00CC00CC00CC001300CC0030002E4B9B78DBB21D
:404C4000374A1370FFF708F910BD2A4B9B7803F0FF041BB1601EC0B2FFF7B8FC04B110B9002C40F0AD802C4B1B78DBB29C4206D0294B1C7001202B4B1870FFF769FDFFF7C5
:404C8000EBF810BDFFF7E2FE002800F09B80194A1379DBB21279D2B223490A70234AD25CD2B21E49CB5CDBB29A4204D001221D4B1A70FFF79FFCFFF7CFF810BD03F00303B7
:404CC000012B35D04BB1022B7ED10A4B9B7813F0FF0F7BD1FFF764FE10BD064B9B78DBB2012B75D10B4A137803F0FD031370FFF7B3F810BD006000402083FF1FF08D00001C
:404D00003C8D00001C8F0000E883FF1F3083FF1F1882FF1F2D83FF1F1C83FF1F0C83FF1F1083FF1F1683FF1F0583FF1F1483FF1F2D4B1B79DBB2012B4CD82B4B98781B79EF
:404D4000DBB22A49CA5C22EA0002CA54FFF784F810BD03F00303012B17D04BB1022B3BD1214B9B7813F0FF0F38D1FFF7E7FD10BD1D4B9B78DBB2012B32D11D4A137843F0C5
:404D800002031370FFF768F810BD174B1B79DBB2012B27D8144B98781B79DBB21349CA5C22EA0002CA54FFF757F810BD002010BD002010BD002010BD002010BD002010BDA9
:404DC000002010BD002010BD002010BD002010BD002010BD002010BD002010BD002010BD002010BD002010BD006000401883FF1F2D83FF1F08B50B4B1B7813F0800F0CD036
:404E0000084B5B78DBB2012B09D1074B074A5A6012781A80FFF762F908BD002008BD002008BD00BF006000402083FF1F148D0000024B1878C0F38010704700BF8F450040ED
:404E4000084A137843F0040313701032137843F00403137002F66532137843F001031370704700BFA3430040014B1880704700BF1C4F0040014B1880704700BF1E4F004092
:404E8000014B1870704700BF1B4F004008B5194A137843F0020313700232137803F08F0343F010031370144B1A7802F0CF021A701A7842F030021A701A7802F0F0021A70CD
:404EC0001A7842F00F021A707820FFF7CDFF0120FFF7D0FF0020FFF7D3FF084A137843F00403137002F67632137843F00103137008BD00BF184F0040234F0040A3430040A9
:404F000008B5054B1B7823B9FFF7C0FF0122024B1A70FFF795FF08BD1A82FF1F054A137843F0080313701032137843F008031370704700BFA243004008B50222054B1A60CE
:404F400005490120FEF740FB07210120FEF750FB08BD00BF80E100E03550000010B50224064B1C6000F0A0F8A0F5004000B2044B1B68044A1460184410BD00BF80E100E03B
:404F80001C82FF1F00E100E038B505460224054B1C604FF4004000F081F8034B1D60034B1C6038BD80E100E01C82FF1F00E100E0024B187800F00F00704700BF69640040B7
:404FC00040F00700014B1870704700BF8964004008B50F20FFF7F4FFFFF7EAFF00F0E0FD054A137843F01003137000F0DDFD0222024B1A6008BD00BF9964004000E100E0A8
:4050000008B500F0A3F84FF4004000F047F80022064B1A60064B1B7823B9FFF78DFF0122034B1A70FFF7D4FF08BD00BF1C82FF1F1B82FF1F0D4B1B78DBB213F0010F06D027
:405040000B490A6802F5FF427F320A6007E013F0020F04D006490A68A2F500420A6013F0040F02D00022024B1A607047696400401C82FF1F024A137843F08003137070472C
:4050800079650040014B1870704700BF87650040014B1878704700BF67650040014B1880704700BF0A6A0040024B1B78024B188880B27047056500408A6A0040014B188870
:4050C00080B270478A6A0040014B1880704700BF4A6A0040014B1880704700BF6A6A004008B501E0FFF7EAFFFFF7D2FF10F0400FF8D108BD08B5134B1A7802F0F8021A7093
:405100001A7802F0FC021A70FFF7EAFF4FF40040FFF7DAFF4FF40040FFF7C0FF0020FFF7B1FFFFF7B5FF4FF40040FFF7D3FF00F037FD054A137843F01003137000F034FD57
:4051400008BD00BF796500409765004008B5054B1B7823B9FFF7CEFF0122024B1A70FFF789FF08BD2082FF1F08B50D490520FEF72BFA07210520FEF73BFA0023094A137053
:405180007221094A11702021013A11700621593A117047211032117002F5A872137008BD495200002182FF1F8264004010B500F0F7FC04460B4A137843F020031370013A64
:4051C000137843F0100313702022074B1A60074A137843F01003137000F082F8204600F0E3FC10BD9264004000E100E09865004008B5054B5B7823B9FFF7B6FF0122024B31
:405200005A70FFF7D3FF08BD2182FF1F034B1B7813F0040FFAD1024B18707047686500404865004038B5074B5B782BB938BDFFF7EDFF0134A4B201E005460024285D0028B9
:40524000F5D138BD2182FF1F1D4B1B78DBB213F01E0F05D01B4803F01E0201780A43027003F0200303F0FF0233B3174B1978C9B2164B1B78DBB21648C154164B1B7813F02E
:40528000FF0F02D00121144B197010490B780133DBB20B700B78DBB23F2B02D900210B4B19700A4B1978C9B20C4B1B78DBB2994202D10121074B1970002AC5D1704700BFDE
:4052C000616400402182FF1F456400402482FF1FA883FF1F2582FF1F2682FF1F2382FF1F054A137843F0100313701032137843F010031370704700BFA2430040044A1378F7
:4053000003F0FB03800000F00400184310707047F0510040044A137803F0BF03800100F0400018431070704720510040044A137803F0EF03000100F0100018431070704722
:4053400020510040044A137803F0F703C00000F008001843107070472051004008B50122054B1A6005490020FEF72EF902210020FEF73EF908BD00BF80E100E059540000A6
:4053800010B50124064B1C6000F068FAA0F5004000B2044B1B68044A1460184410BD00BF80E100E02C82FF1F00E100E038B505460124054B1C604FF4004000F049FA034BE6
:4053C0001D60034B1C6038BD80E100E02C82FF1F00E100E0024B187800F00F00704700BF6664004040F00700014B1870704700BF8664004008B50F20FFF7F4FFFFF7EAFFE8
:4054000000F0CEFB054A137843F01003137000F0CBFB0122024B1A6008BD00BF9664004000E100E008B500F06BFA4FF4004000F00FFA0022064B1A60064B1B7823B9FFF7C0
:405440008DFF0122034B1A70FFF7D4FF08BD00BF2C82FF1F2882FF1F0D4B1B78DBB213F0010F06D00B490A6802F5FF427F320A6007E013F0020F04D006490A68A2F50042E1
:405480000A6013F0040F02D00022024B1A607047666400402C82FF1F084A137843F0020313701032137843F00203137002F65932137843F001031370704700BFA3430040A0
:4054C000014B1880704700BF104F0040014B1880704700BF124F0040014B1870704700BF0F4F004008B5194A137843F0020313700232137803F08F0343F010031370144BFE
:405500001A7802F0CF021A701A7842F030021A701A7802F0F0021A701A7842F00F021A7046F2A810FFF7CCFF0120FFF7CFFF0020FFF7D2FF074A137843F00203137002F6A1
:405540006A32137843F00103137008BD0C4F0040174F0040A343004008B5054B1B7823B9FFF7C0FF0122024B1A70FFF795FF08BD3082FF1F08B50422054B1A6005490220B7
:40558000FEF722F807210220FEF732F808BD00BF80E100E07156000010B50424064B1C6000F0D6F9A0F5004000B2044B1B68044A1460184410BD00BF80E100E03482FF1F56
:4055C00000E100E038B505460424054B1C604FF4004000F0B7F9034B1D60034B1C6038BD80E100E03482FF1F00E100E0024B187800F00F00704700BF6E64004040F00700A0
:40560000014B1870704700BF8E64004008B50F20FFF7F4FFFFF7EAFF00F0C2FA054A137843F01003137000F0BFFA0422024B1A6008BD00BF9E64004000E100E008B500F021
:40564000D9F94FF4004000F07DF90022064B1A60064B1B7823B9FFF78DFF0122034B1A70FFF7D4FF08BD00BF3482FF1F3182FF1F0D4B1B78DBB213F0010F06D00B490A682C
:4056800002F5FF427F320A6007E013F0020F04D006490A68A2F500420A6013F0040F02D00022024B1A6070476E6400403482FF1F084A137843F0010313701032137843F0BF
:4056C0000103137002F64D32137843F001031370704700BFA3430040014B1880704700BF044F0040014B1880704700BF064F0040014B1870704700BF034F004008B5194AF3
:40570000137843F0020313700232137803F08F0343F010031370144B1A7802F0CF021A701A7842F030021A701A7802F0F0021A701A7842F00F021A707820FFF7CDFF01207E
:40574000FFF7D0FF0020FFF7D3FF084A137843F00103137002F65E32137843F00103137008BD00BF004F00400B4F0040A343004008B5054B1B7823B9FFF7C0FF0122024BA4
:405780001A70FFF795FF08BD3882FF1F044A137803F07F03C001C0B218431070704700BF20510040014B1870704700BF75650040044A137803F0FB03800000F004001843B8
:4057C0001070704750510040044A137803F0F703C00000F0080018431070704750510040044A137803F0EF03000100F0100018431070704750510040044A137803F0DF03C0
:40580000400100F0200018431070704750510040044A137803F0BF03800100F0400018431070704750510040024A137843F080031370704776640040014B1870704700BFC7
:4058400084650040014B1878704700BF64650040014B1880704700BF0C680040024B1B78024B188880B27047066400408C680040014B188880B270478C680040014B188015
:40588000704700BF4C680040014B1880704700BF6C68004008B501E0FFF7EAFFFFF7D2FF10F0400FF8D108BD08B5134B1A7802F0F8021A701A7802F0FC021A70FFF7EAFFE1
:4058C0004FF40040FFF7DAFF4FF40040FFF7C0FF0020FFF7B1FFFFF7B5FF4FF40040FFF7D3FF00F05DF9054A137843F01003137000F05AF908BD00BF766400409465004060
:4059000008B5054B1B7823B9FFF7CEFF0122024B1A70FFF789FF08BD3982FF1F024A137843F08003137070477F640040014B1870704700BF8C640040014B1878704700BF5C
:405940006C640040014B1880704700BF16680040024B1B78024B188880B270470B64004096680040014B188880B2704796680040014B1880704700BF56680040014B18800D
:40598000704700BF7668004008B501E0FFF7EAFFFFF7D2FF10F0400FF8D108BD08B5134B1A7802F0F8021A701A7802F0FC021A70FFF7EAFF4FF40040FFF7DAFF4FF400404F
:4059C000FFF7C0FF0020FFF7B1FFFFF7B5FF4FF40040FFF7D3FF00F0E3F8054A137843F01003137000F0E0F808BD00BF7F6400409C64004008B5054B1B7823B9FFF7CEFFDB
:405A00000122024B1A70FFF789FF08BD3A82FF1F084A137843F0080313701032137843F00803137002F67132137843F001031370704700BFA3430040084A137803F0FE03D6
:405A40001370A2F68132137803F0F70313701032137803F0F7031370704700BF244F0040014B1870704700BF274F0040014B1880704700BF284F0040014B1880704700BF8C
:405A80002A4F004008B5164A137803F0010313700232137803F0FC031370124B1A7802F0CF021A701A7842F030021A701A7802F0F0021A701A7842F00F021A700A4A1378DD
:405AC00043F0010313704EF65F20FFF7CFFF4EF65F20FFF7D1FF0820FFF7C2FF08BD00BF244F00402F4F0040254F004008B5054B1B7823B9FFF7C6FF0122024B1A70FFF72D
:405B000087FF08BD3B82FF1F014B1B685866704708ED00E04001C0B2014B1870704700BF09E400E04FF40072014B1A60704700BF00E100E04FF40072014B1A60704700BFB9
:405B400080E100E010B50446FFF7F4FF2046FFF7DBFF0720FFF7DEFFFFF7E4FF10BD00BF044A137803F0F703C00000F00800184310707047C0510040044A137803F0DF0348
:405B8000400100F02000184310707047605100400230800803D000BF01380046FCD17047EFF3108072B6704780F31088704700BF08B5164B1B7803F00303012B02D0022B1B
:405BC00004D00FE0114B1B79DBB20CE00F4B1B7903F07F0303EB43039A000D4B1A44937ADBB200E00023022B0CD80A4A1268D35C022B04D0032B07D1FEF79AFB08BDFDF79D
:405C000073FF08BD002008BD002008BD006000403083FF1F0883FF1F81F0004102E000BF83F0004330B54FEA41044FEA430594EA050F08BF90EA020F1FBF54EA000C55EA11
:405C4000020C7FEA645C7FEA655C00F0E2804FEA5454D4EB5555B8BF6D420CDD2C4480EA020281EA030382EA000083EA010180EA020281EA0303362D88BF30BD11F0004F28
:405C80004FEA01314FF4801C4CEA113102D0404261EB410113F0004F4FEA03334CEA133302D0524263EB430394EA050F00F0A780A4F10104D5F1200E0DDB02FA0EFC22FAC8
:405CC00005F2801841F1000103FA0EF2801843FA05F359410EE0A5F120050EF1200E012A03FA0EFC28BF4CF0020C43FA05F3C01851EBE37101F0004507D54FF0000EDCF17C
:405D0000000C7EEB00006EEB0101B1F5801F1BD3B1F5001F0CD349085FEA30004FEA3C0C04F101044FEA445212F5800F80F09A80BCF1004F08BF5FEA500C50F1000041EBB3
:405D4000045141EA050130BD5FEA4C0C404141EB010111F4801FA4F10104E9D191F0000F04BF01460020B1FA81F308BF2033A3F10B03B3F120020CDA0C3208DD02F1140CF1
:405D8000C2F10C0201FA0CF021FA02F10CE002F11402D8BFC2F1200C01FA02F120FA0CFCDCBF41EA0C019040E41AA2BF01EB0451294330BD6FEA04041F3C1CDA0C340EDC2A
:405DC00004F11404C4F1200220FA04F001FA02F340EA030021FA04F345EA030130BDC4F10C04C4F1200220FA02F001FA04F340EA0300294630BD21FA04F0294630BD94F050
:405E0000000F83F4801306BF81F480110134013D4EE77FEA645C18BF7FEA655C29D094EA050F08BF90EA020F05D054EA000C04BF1946104630BD91EA030F1EBF00210020A0
:405E400030BD5FEA545C05D14000494128BF41F0004130BD14F580043CBF01F5801130BD01F0004545F0FE4141F470014FF0000030BD7FEA645C1ABF194610467FEA655CFD
:405E80001CBF0B46024650EA013406BF52EA033591EA030F41F4002130BD00BF90F0000F04BF0021704730B54FF4806404F132044FF000054FF0000150E700BF90F0000FCD
:405EC00004BF0021704730B54FF4806404F1320410F0004548BF40424FF000013EE700BF42004FEAE2014FEA31014FEA02701FBF12F07F4393F07F4F81F06051704792F01C
:405F0000000F14BF93F07F4F704730B54FF4607401F0004521F0004120E700BF50EA010208BF704730B54FF000050AE050EA010208BF704730B511F0004502D5404261EBD4
:405F400041014FF4806404F132045FEA915C3FF4DCAE4FF003025FEADC0C18BF03325FEADC0C18BF033202EBDC02C2F1200300FA03FC20FA02F001FA03FE40EA0E0021FAE7
:405F800002F11444C1E600BF70B54FF0FF0C4CF4E06C1CEA11541DBF1CEA135594EA0C0F95EA0C0F00F0DEF82C4481EA030621EA4C5123EA4C5350EA013518BF52EA033594
:405FC00041F4801143F4801338D0A0FB02CE4FF00005E1FB02E506F00042E0FB03E54FF00006E1FB03569CF0000F18BF4EF0010EA4F1FF04B6F5007F64F5407404D25FEA75
:406000004E0E6D4146EB060642EAC62141EA55514FEAC52040EA5E504FEACE2EB4F1FD0C88BFBCF5E06F1ED8BEF1004F08BF5FEA500E50F1000041EB045170BD06F0004688
:4060400046EA010140EA020081EA0301B4EB5C04C2BFD4EB0C0541EA045170BD41F480114FF0000E013C00F3AB8014F1360FDEBF002001F0004170BDC4F10004203C35DA5E
:406080000C341BDC04F11404C4F1200500FA05F320FA04F001FA05F240EA020001F0004221F0004110EBD37021FA04F642EB06015EEA430E08BF20EAD37070BDC4F10C04F9
:4060C000C4F1200500FA04F320FA05F001FA04F240EA020001F0004110EBD37041F100015EEA430E08BF20EAD37070BDC4F1200500FA05F24EEA020E20FA04F301FA05F216
:4061000043EA020321FA04F001F0004121FA04F220EA020000EBD3705EEA430E08BF20EAD37070BD94F0000F0FD101F00046400041EB010111F4801F08BF013CF7D041EA15
:40614000060195F0000F18BF704703F00046520043EB030313F4801F08BF013DF7D043EA0603704794EA0C0F0CEA135518BF95EA0C0F0CD050EA410618BF52EA4306D1D115
:4061800081EA030101F000414FF0000070BD50EA410606BF1046194652EA430619D094EA0C0F02D150EA013613D195EA0C0F05D152EA03361CBF104619460AD181EA0301E9
:4061C00001F0004141F0FE4141F470014FF0000070BD41F0FE4141F4780170BD70B54FF0FF0C4CF4E06C1CEA11541DBF1CEA135594EA0C0F95EA0C0F00F0A7F8A4EB050496
:4062000081EA030E52EA03354FEA013100F088804FEA03334FF0805545EA131343EA12634FEA022245EA111545EA10654FEA00260EF000419D4208BF964244F1FD0404F5F0
:40624000407402D25B084FEA3202B61A65EB03055B084FEA32024FF480104FF4002CB6EB020E75EB030E22BFB61A754640EA0C005B084FEA3202B6EB020E75EB030E22BFF5
:40628000B61A754640EA5C005B084FEA3202B6EB020E75EB030E22BFB61A754640EA9C005B084FEA3202B6EB020E75EB030E22BFB61A754640EADC0055EA060E18D04FEAD1
:4062C000051545EA16754FEA06164FEAC30343EA52734FEAC2025FEA1C1CC0D111F4801F0BD141EA00014FF000004FF0004CB6E711F4801F04BF01430020B4F1FD0C88BFA2
:40630000BCF5E06F3FF6AFAEB5EB030C04BFB6EB020C5FEA500C50F1000041EB045170BD0EF0004E4EEA113114EB5C04C2BFD4EB0C0541EA045170BD41F480114FF0000EE0
:40634000013C90E645EA060E8DE60CEA135594EA0C0F08BF95EA0C0F3FF43BAF94EA0C0F0AD150EA01347FF434AF95EA0C0F7FF425AF104619462CE795EA0C0F06D152EAB0
:4063800003353FF4FDAE1046194622E750EA410618BF52EA43067FF4C5AE50EA41047FF40DAF52EA43057FF4EBAE12E74FEA410212F5001215D211D56FF47873B3EB62520D
:4063C00012D94FEAC12343F0004343EA505311F0004F23FA02F018BF404270474FF00000704750EA013005D111F0004008BF6FF0004070474FF00000704700BF4A0011D269
:4064000012F5001211D20DD56FF47873B3EB62520ED44FEAC12343F0004343EA505323FA02F070474FF00000704750EA013002D14FF0FF3070474FF00000704780F00040D4
:4064400002E000BF81F0004142001FBF5FEA410392EA030F7FEA226C7FEA236C6AD04FEA1262D2EB1363C1BFD218414048404140B8BF5B42192B88BF704710F0004F40F4B8
:40648000000020F07F4018BF404211F0004F41F4000121F07F4118BF494292EA030F3FD0A2F1010241FA03FC10EB0C00C3F1200301FA03F100F0004302D5494260EB4000A1
:4064C000B0F5000F13D3B0F1807F06D340084FEA310102F10102FE2A51D2B1F1004F40EBC25008BF20F0010040EA03007047490040EB000010F4000FA2F10102EDD1B0FA26
:4065000080FCACF1080CB2EB0C0200FA0CF0AABF00EBC25052421843BCBFD0401843704792F0000F81F4000106BF80F400000132013BB5E74FEA41037FEA226C18BF7FEA9C
:40654000236C21D092EA030F04D092F0000F08BF0846704790EA010F1CBF0020704712F07F4F04D1400028BF40F00040704712F100723CBF00F50000704700F0004343F02B
:40658000FE4040F4000070477FEA226216BF08467FEA23630146420206BF5FEA412390EA010F40F4800070474FF0000304E000BF10F0004348BF40425FEA000C08BF70473D
:4065C00043F0964301464FF000001CE050EA010208BF70474FF000030AE000BF50EA010208BF704711F0004302D5404261EB41015FEA010C02BF84460146002043F0B6430D
:4066000008BFA3F18053A3F50003BCFA8CF2083AA3EBC25310DB01FA02FC634400FA02FCC2F12002BCF1004F20FA02F243EB020008BF20F00100704702F1200201FA02FC49
:40664000C2F1200250EA4C0021FA02F243EB020008BF20EADC7070474FF0FF0C1CEAD0521EBF1CEAD15392EA0C0F93EA0C0F6FD01A4480EA010C400218BF5FEA41211ED03E
:406680004FF0006343EA501043EA5111A0FB01310CF00040B1F5000F3EBF490041EAD3715B0040EA010062F17F02FD2A1DD8B3F1004F40EBC25008BF20F00100704790F0F4
:4066C000000F0CF0004C08BF49024CEA502040EA51207F3AC2BFD2F1FF0340EAC250704740F400004FF00003013A5DDC12F1190FDCBF00F000407047C2F10002410021FA56
:4067000002F1C2F1200200FA02FC5FEA310040F1000053EA4C0308BF20EADC70704792F0000F00F0004C02BF400010F4000F013AF9D040EA0C0093F0000F01F0004C02BFE3
:40674000490011F4000F013BF9D041EA0C018FE70CEAD15392EA0C0F18BF93EA0C0F0AD030F0004C18BF31F0004CD8D180EA010000F00040704790F0000F17BF90F0004F30
:40678000084691F0000F91F0004F14D092EA0C0F01D142020FD193EA0C0F03D14B0218BF084608D180EA010000F0004040F0FE4040F40000704740F0FE4040F44000704776
:4067C0004FF0FF0C1CEAD0521EBF1CEAD15392EA0C0F93EA0C0F69D0A2EB030280EA010C49024FEA402037D04FF0805343EA111143EA10130CF000408B4238BF5B0042F185
:406800007D024FF4000C8B4224BF5B1A40EA0C00B3EB510F24BFA3EB510340EA5C00B3EB910F24BFA3EB910340EA9C00B3EBD10F24BFA3EBD10340EADC001B0118BF5FEAD8
:406840001C1CE0D1FD2A3FF650AF8B4240EBC25008BF20F0010070470CF0004C4CEA50207F32C2BFD2F1FF0340EAC250704740F400004FF00003013A37E792F0000F00F013
:40688000004C02BF400010F4000F013AF9D040EA0C0093F0000F01F0004C02BF490011F4000F013BF9D041EA0C0195E70CEAD15392EA0C0F08D142027FF47DAF93EA0C0F93
:4068C0007FF470AF084676E793EA0C0F04D14B023FF44CAF08466EE730F0004C18BF31F0004CCAD130F000427FF45CAF31F000437FF43CAF5FE700BF4FEA4002B2F1FE4F73
:406900000FD34FF09E03B3EB12620DD94FEA002343F0004310F0004F23FA02F018BF404270474FF00000704712F1610F01D1420205D110F0004008BF6FF0004070474FF06C
:4069400000007047014B1868704700BF9481FF1F0E4B70B51E460E4C0025E41AA410A54204D056F8253098470135F8E702F0FAFA084B094C1E46E41AA4100025A54204D002
:4069800056F8253098470135F8E770BD708F0000708F0000708F0000788F000010B5431E0A44914204D011F8014B03F8014FF8E710BD03460244934202D003F8011BFAE77A
:4069C000704700000EB400B54FF402719CB0ADF814106FF00041049107914FF6FF711DAB02900690084853F8042BADF81610006802A9019300F08CF8029B00221A701CB067
:406A00005DF804EB03B070479481FF1F30B582B1451E013915F8013F11F8014FA34206D1EC431444E04201D0002BF3D11C46181B30BD104630BD034610B542B111F8014BDA
:406A4000013A03F8014B002CF7D11A4400E010BD934202D003F8014BFAE710BD2DE9F0478E6882469E420C46914698463ED88A8912F4906F3AD02568096902236F1A656954
:406A800005EB450595FBF3F57B1C43449D4238BF1D4653050FD5294600F040FB064698B13A462169FFF77AFFA38923F4906343F08003A38113E02A4600F08EFB064670B988
:406AC0002169504600F0DEFA0C23CAF80030A3894FF0FF3043F04003A381BDE8F08726613E44266046466561ED1BA560464528BF464649463246206800F0A8FAA368002005
:406B00009B1BA36023681E442660BDE8F08700002DE9F04F9DB003938B8980461C060D4616460DD50B695BB9402100F0F7FA2860286118B90C23C8F80030CDE040236B61A1
:406B40000023099320238DF82930DFF89CB130238DF82A3037463C4614F8013B1BB9B7EB060910D003E0252BF9D02746F3E74B46324629464046FFF771FF013000F0A78044
:406B8000099B4B4409933B78002B00F0A08000234FF0FF3204930793059206938DF853301A930126052221784E4800F041FA671C049B38B14B4A3C46801A06FA00F01843C0
:406BC0000490EFE7D90644BF20228DF853201A0744BF2B228DF8532022782A2A03D0079A00210A200BE0039A111D12680391002A10DA524243F00200079204900BE02746D3
:406C00003B780134303B092B03D800FB02320121F5E701B107923B782E2B1ED17B782A2B0AD1039B02371A1D1B680392002BB8BF4FF0FF33059310E0002319460593781CED
:406C40000A2407463A780130303A092A03D804FB01210123F5E703B1059103223978224800F0E6F940B14023CBEB000003FA00F0049B013718430490397806221B487E1C31
:406C80008DF8281000F0D4F988B1194B33B9039B073323F007030833039314E003AB00932A46144B04A94046AFF3008007E003AB00932A460F4B04A9404600F093F8B0F171
:406CC000FF3F824603D0099B5344099342E7AB895B0601D4099801E04FF0FF301DB0BDE8F08F00BF308F0000368F00003A8F0000000000005D6A00002DE9F04791461F4614
:406D00000A698B6806469342B8BF1346C9F8003091F843200C46DDF8208012B10133C9F800302368990642BFD9F800300233C9F80030256815F0060510D104F1190A07E0A1
:406D40000123524639463046C04701301AD00135E368D9F800209B1A9D42F1DB94F843302268003318BF012392060FD5E118302081F843005A1C94F845102244023382F8CA
:406D8000431003E04FF0FF30BDE8F08704F1430239463046C0470130F4D02268D9F80050E36802F00602042A08BF5D1B2269A3680CBF25EAE57500259342C4BF9B1AED188A
:406DC0004FF000091A344D4509D00123224639463046C0470130D5D009F10109F3E70020BDE8F0872DE9F04317460A7E85B06E2A984606460C460C9B01F1430E00F0AE809B
:406E000011D8632A22D009D8002A00F0BB80582A40F0CA8081F84520834955E0642A1ED0692A1CD0C0E0732A00F0B08009D86F2A2ED0702A40F0B8800A6842F020020A60D7
:406E40003EE0752A24D0782A3AD0ADE01A6801F14205111D1960136884F84230A8E021681A6811F0800F02D0111D196008E011F0400F02F10401196002D0B2F9003000E08B
:406E80001368002B3CDA2D225B4284F8432037E021681A6811F0800F02D0111D196007E011F0400F02F10401196001D0138800E01368227E5C496F2A14BF0A2208221BE0AF
:406EC00078225A4984F845202268186812F0800F00F104051D6003D1550601D5038800E00368D00744BF42F0200222601BB9226822F0200222601022002084F8430001E0D1
:406F000049490A226568002DA56008DB206820F0040020602BB9002D7DD175460CE0002B79D07546B3FBF2F002FB1033CB5C05F8013D03460028F5D1082A0BD12368DA077D
:406F400008D5236962689A42DEBF302305F8013C05F1FF35C5EB0E0323612EE008681A6810F0800F496903D0101D1860136808E010F0400F02F104001860136801D01980AA
:406F800000E0196000232361754616E01A68111D1960156800216268284600F049F808B1401B6060636804E004F1420584F8422001232361002384F84330CDF800803B46D3
:406FC00003AA21463046FFF797FE013002D14FF0FF3026E023692A4639463046C0470130F5D023689B0710D5002504F1190907E001234A4639463046C0470130E7D0013513
:40700000E368039A9B1A9D42F2DBE068039B9842B8BF184605E00B7804F1420584F842308AE705B0BDE8F083418F0000528F000010B5C9B202449042034605D01C780130B6
:407040008C42F8D1184610BD002010BD884210B501EB020301D8421E0BE09842FBD28118D21AD34204D013F8014D01F8014DF8E710BD994204D011F8014B02F8014FF8E72F
:4070800010BD000038B50546002944D051F8043C0C1F002BB8BFE41800F0D4F81E4A1368114613B96360146030E0A3420DD92268A018834201BF18685B68121822606360EF
:4070C0000C6023E0A24203D813465A68002AF9D118681918A1420BD12168014458188242196013D110685268014419605A600DE002D90C232B6009E021686018824201BFEA
:40710000106852680918216062605C602846BDE8384000F098B838BD4082FF1F70B5CD1C25F0030508350C2D38BF0C25002D064601DBA94202D90C23336046E000F082F827
:40714000234B1C681A462146A1B10B685B1B0ED40B2B03D90B60CC18CD501EE08C420BBF63684B681360636018BF0C4615E00C464968E9E7174C23681BB9304600F052F80E
:4071800020602946304600F04DF8431C18D0C41C24F00304A0420DD12560304600F053F804F10B00231D20F00700C31A0ED05A42E25070BD211A304600F034F80130EBD136
:4071C0000C233360304600F03EF8002070BD00BF4082FF1F3C82FF1FF8B5074615460E4621B91146BDE8F840FFF798BF1AB9FFF749FF2846F8BD00F027F885420ED9294605
:407200003846FFF78BFF044650B131462A46FFF7C5FB31463846FFF735FF01E03046F8BD2046F8BD38B5064C0023054608462360FBF7FCFE431C02D1236803B12B6038BDC7
