:400000000080002011000000513200005132000008B5044B1A6803F53F5302331A6003F037F900BFFA46004010B5054C237833B9044B13B10448AFF300800123237010BD3E
:400040009881FF1F0000000094740000084B10B51BB108490848AFF300800848036803B910BD074B002BFBD0BDE81040184700BF000000009C81FF1F94740000C880FF1F52
:400080000000000000B595B062B605F015FEFF2005F096FCFF2005F057FA00F0ABF8002005F002F8002005F037FC002005F040FA05F0B8F9424800F015F900F0D1FA00F009
:4000C000D9F803F0C3FA002000F0DCFC642003F08BFB012000F0D6FC642003F085FB022000F0D0FC642003F07FFB032000F0CAFC642003F079FB042000F0C4FC642003F0E2
:4001000073FB642003F05AFB642003F057FB642003F054FB002005F089FC642003F04EFBFF2005F083FC042141F6380001F03AFA002005F043F8002005F05EFB002005F07D
:400140003FFC002005F000FA0A2003F037FB0A23139300221292FF201190109205210F910E920D920C900B920A920992089207930692802105910490039302900190009294
:400180000246014602F0AAFD00F05EFB03F086FE88B10C4803F08EFE0B4B188001280AD90A4800F09FF8FF2005F0CEF901F0B4FE002005F0C9F9642003F016FBE4E700BF11
:4001C000987400005882FF1F9882FF1FB8740000074A138801339BB2138042F6F822934204D1034B01229A7000221A80704700BFB481FF1F08B504F09DFF114B188804F05E
:4002000053FF05F0CFFB022005F086FB05F0BEFA40F6C41005F074FAC82003F0CFFA002005F06EFAC82003F0C9FA40F6C41005F067FAC82003F0C2FA002005F061FA08BD10
:40024000D080FF1F10B50024034B5C6005F0C8F9204605F0C1FB10BDB481FF1F10B50124034B5C6005F0BCF9204605F0B5FB10BDB481FF1F10B5094B00249C60DC601C6175
:400280005C6105F0E9F905F0F3FA04F0D3FF2046FFF7E4FF2046FFF7D5FF10BDB481FF1F10B50F4B5B6833B905F084F940420C4B58619A691A610A4B5B68012B06D1084CB4
:4002C000E369636105F076F94042206104F060FF4042034CA06005F079FA4042E06010BDB481FF1F0C4B93F820309BB110B504460A220146094806F0A5FC50B1204605F0D5
:40030000ABF8012003F070FA0A222146034806F0AEFC10BD704700BFB481FF1FD480FF1F08B540F6C41005F0EBF9C82003F046FA002005F0E5F9C82003F040FA40F6C41049
:4003400005F0DEF9C82003F039FA002005F0D8F90248FFF7C7FF002008BD00BFDC74000038B50446FFF79CFF54B9744B1A68744B1A70120A5A7000229A70FA22DA70E6E026
:400380006E4B1B686E4A13701B0A5370013C202C00F2DD80DFE804F011171D23292F353B41474D53595F656B71777D83898F959BA1A7ADB3B9BFC5CBD600614B01229A70DC
:4003C000FA22DA70C3E05E4B02229A70FA22DA70BDE05B4B17229A70FA22DA70B7E0584B07229A70FA22DA70B1E0554B11229A70FA22DA70ABE0524B1D229A70FA22DA704D
:40040000A5E04F4B25229A70FA22DA709FE04C4B03229A70FA22DA7099E0494B04229A70FA22DA7093E0464B18229A70FA22DA708DE0434B08229A70FA22DA7087E0404B63
:4004400012229A70FA22DA7081E03D4B1E229A70FA22DA707BE03A4B26229A70FA22DA7075E0374B05229A70FA22DA706FE0344B06229A70FA22DA7069E0314B19229A70C9
:40048000FA22DA7063E02E4B09229A70FA22DA705DE02B4B13229A70FA22DA7057E0284B1F229A70FA22DA7051E0254B27229A70FA22DA704BE0224B2B229A70FA22DA701D
:4004C00045E01F4B2C229A70FA22DA703FE01C4B2D229A70FA22DA7039E0194B2E229A70FA22DA7033E0164B2A229A70FA22DA702DE0134B2F229A70FA22DA7027E0104B6F
:4005000028229A70FA22DA7021E00D4B22229A70FA22DA701BE00A4B23229A70FA22DA7015E0074B24229A70FA22DA700FE0044B29229A70FA22DA7009E000BFD882FF1FD9
:400540009C82FF1F424B30229A70FA22DA70414DAB689B00AB60EB689B00EB602B699B002B61686905F0C6FD37A3D3E9002305F027FE06F037F86861AB68354C2371AB6830
:400580001B126371AB681B14A371AB681B16E371EB682372EB681B126372EB681B14A372EB681B16E3722B6923732B691B1263732B691B14A3732B691B16E3736B6923747F
:4005C0006B691B1263746B691B14A3746B691B16E374214A136823751B1263750023A375E37523766376A376E37651692177090A61779169A177090AE177D26984F8202002
:40060000120A84F8212084F8223084F8233084F8243084F8253084F826304C2284F8272084F8283084F8293084F82A3084F82B3084F82C3084F82D300848FFF753FE2E21B3
:40064000204603F003FC38BD9A999999999909409C82FF1FB481FF1FD080FF1F0075000008B50121002003F035FA05E00848FFF739FE012003F0B8F803F070FA0028F5D04A
:4006800003F098FB0348FFF72DFE03F023FB08BD24750000487500000A4B93F820307BB100B587B00246084901A806F0A7FA01A804F0D2FE012003F097F807B05DF804FBE0
:4006C000704700BFB481FF1F5C7500000000000010B5154BD8789B7803EB0020134C606205F008FD0EA3D3E9002305F069FD00220F4B05F08FFE05F09DFF80B205F00CF909
:400700000C48FFF7EFFD606AFFF7C6FF0A48FFF7E9FD0A48FFF7E6FD002010BDAFF30080333333333333E33F5882FF1FB481FF1F0000244064750000BC760000847500008F
:4007400010B5154BD8789B7803EB0020134C206005F0D0FC0EA3D3E9002305F031FD00220F4B05F057FE05F065FF80B204F09CFC0C48FFF7B7FD2068FFF78EFF0A48FFF762
:40078000B1FD0A48FFF7AEFD002010BDAFF30080333333333333E33F5882FF1FD080FF1F00002440AC750000BC760000C475000008B50548FFF796FD0448FFF793FD04482E
:4007C000FFF790FD08BD00BFBC760000E47500004076000010B5184B93F8284054B9DB6A43B90C22144BDA621448FFF77BFDFFF7DFFF1EE0104B93F8304054B9DB6A43B93F
:4008000006220D4BDA620E48FFF76CFDFFF7D0FF0FE0094B93F831405CB9DB6A43B91222054BDA620748FFF75DFDFFF7C1FF00E00124204610BD00BFB481FF1F1876000000
:40084000447600006C76000008B503F08DF9B0B1FFF766FD03F082F988B1094B93F832304BB10848FFF73EFDFFF7A2FF012002F0A5FF02F09BFF0122014B83F8322008BDAC
:40088000B481FF1F9476000008B502F0DDFD0A2002F0AAFF012008BD10B54B1EDBB2FD2B3DD90C46042836D8DFE800F0030D17212B000A2002F098FF204602F043FD0A2083
:4008C00002F092FF10BD0A2002F08EFF204602F045FD0A2002F088FF10BD0A2002F084FF204602F047FD0A2002F07EFF10BD0A2002F07AFF204604F03FFE0A2002F074FF99
:4009000010BD0A2002F070FF204604F029FE0A2002F06AFF10BD0448FFF7E4FC10BD0348FFF7E0FC10BD00BFC076000000770000F8B506460D46174600212846FFF7ACFF6E
:4009400006F07F063046FFF79FFF0020FFF79CFF0020FFF799FF0020FFF796FF0020FFF793FFFF212846FFF797FF012002F026FF00212846FFF790FF3046FFF785FF02F0F8
:40098000CDFD38700020FFF77FFF02F0C7FD04060020FFF779FF02F0C1FD44EA00440020FFF772FF02F0BAFD44EA00240020FFF76BFF02F0B3FD0443FF212846FFF76CFFE7
:4009C000012002F0FBFE00212846FFF765FF3046FFF75AFF02F0A2FD38700020FFF754FF02F09CFD44EA00640020FFF74DFF02F095FD44EA00440020FFF746FF02F08EFD4E
:400A000044EA00240020FFF73FFF02F087FD0443FF212846FFF740FF2046F8BD70B506460C46154600211046FFF736FF46F08000FFF72AFF200EFFF727FFC4F30740FFF7A2
:400A400023FFC4F30720FFF71FFFE0B2FFF71CFFFF212846FFF720FF70BD00BF38B505460C460A4600212020FFF7D8FF224629460520FFF7D3FF224629462D20FFF7CEFF7D
:400A800038BD00BF10B50446024605210120FFF7C5FF224608210020FFF7C0FF224600210320FFF7BBFF224600210520FFF7B6FF224600210620FFF7B1FF22460F210820FA
:400AC000FFF7ACFF224682490920FFF7A7FF224680490A20FFF7A2FF022C0AD1224600210B20FFF79BFF22467B491020FFF796FF2FE054B922465A210B20FFF78FFF224621
:400B000076491020FFF78AFF23E0012C0AD122467F210B20FFF782FF224670491020FFF77DFF16E0042C0AD12246D2210B20FFF775FF22466A491020FFF770FF09E02246DD
:400B400000210B20FFF76AFF224666491020FFF765FF22460A211120FFF760FF224600211320FFF75BFF224600211420FFF756FF224600211520FFF751FF2246002121202E
:400B8000FFF74CFF224600212320FFF747FF224600212C20FFF742FF224600213320FFF73DFF224640F2AF213420FFF737FF224600213820FFF732FF224600213920FFF708
:400BC0002DFF22464FF480313A20FFF727FF224600213D20FFF722FF224643496020FFF71DFF224641496120FFF718FF224640496220FFF713FF224608216320FFF70EFF62
:400C000022466FF080616420FFF708FF224639496520FFF703FF224637496620FFF7FEFE224636496720FFF7F9FE224634496820FFF7F4FE22464FF477016920FFF7EEFE86
:400C4000224630496C20FFF7E9FE224600216D20FFF7E4FE224600216E20FFF7DFFE224629497020FFF7DAFE224600212120FFF7D5FE22464FF6FF712420FFF7CFFE2246FB
:400C80004FF6FF712520FFF7C9FE22464FF6FF712620FFF7C3FE224600212720FFF7BEFE22464FF6FF712820FFF7B8FE22464FF6FF712A20FFF7B2FE224665212B20FFF794
:400CC000ADFE224600212020FFF7A8FE10BD00BF06060100000408000103070001010700000107000105070054B5AAAAAA54954A292949247D77BBB55655294922424000F8
:400D00005680FFFF530141001E000CC430B583B0044602AD002305F8013D4FF4FA7002F063FD2A4621460420FFF702FE642002F05BFD2A4621460420FFF7FAFD09E00DF160
:400D4000070221462120FFF7F3FD4FF4FA7002F04BFD9DF8073013F0200FF0D0002003B030BD00BF000000002DE9F041074605F03BFD574B196A05F03FFE05F0D9FE064688
:400D8000FFF78EFA5348FFF7ADFA534B9868FFF783FC5248FFF7A6FA00243FE05048FFF7A1FA2046FFF778FC4C48FFF79BFAFFF777FA494B9D68751BB5F5FA6F03DB02203C
:400DC000D862BDE8F081284605F00EFD404B196A05F05EFD05F0ACFE804685EAE573A3EBE573042B18DD3F48FFF77CFA2846FFF753FC3A48FFF776FA002107EB0800FFF702
:400E00002DFE0020FFF782FF322002F0EDFC002239462120FFF702FE0134E4B2052CBDD9FFF73EFA2C4B9B68F61A052C46D986EAE673A3EBE673072B1BDD06F2CF7140F609
:400E40009E72914215D82848FFF74CFA3046FFF723FC2648FFF746FA1F4CA068FFF71CFC1E48FFF73FFAFF2004F0AAFD0123E36224E0B3F5FA6F06DD1D48FFF733FA0222EA
:400E8000154BDA621AE01B48FFF72CFA124D0024EC62FFF705FAA86805F02CF90AA3D3E9002305F08DF905F09DFB224601462120FFF7B4FD4FF4FA7002F096FC064BD86A3E
:400EC000BDE8F081AFF300809A99999999992940D080FF1F58770000B481FF1F407600007877000088770000A4770000D4770000E87700001878000070B50446FFF76AFC66
:400F000028B3012215491020FFF788FD022214491020FFF783FD002212491020FFF77EFD114E0025F562FFF7BBF929462046FFF795FD2846FFF7EAFE322002F055FC0B484F
:400F4000FFF7D0F92046FFF70FFFF06A70BD0848FFF7C8F92020044BD86270BD030107000201070005030700B481FF1F407500002C780000000000002DE9F041074605F06B
:400F8000B9F851A3D3E9002305F044FA05F02AFB0646FFF785F94E48FFF7A4F94D4BD868FFF77AFB4C48FFF79DF9002443E04B48FFF798F92046FFF76FFB4948FFF792F9DB
:400FC000FFF76EF9434BDD68751B284605F092F83DA3D3E9002305F0F3F805F003FB8046B5F57A6F03DB09223A4BDA6225E085EAE573A3EBE573032B1BDD3A48FFF772F9D4
:401000002846FFF749FB3648FFF76CF9012107EB0800FFF723FD0120FFF778FE322002F0E3FB012239462120FFF7F8FCC82002F0DBFB0134E4B2052CB9D9FFF731F9254BB3
:40104000DB68F61A032C39D986EAE673A3EBE673052B1BDD06F2CF7140F69E72914215D82148FFF73FF93046FFF716FB1F48FFF739F9184CE068FFF70FFB1948FFF732F9F5
:40108000FF2004F09DFC0823E36217E0B3F5FA6F06DD1748FFF726F909220E4BDA620DE01448FFF71FF900220A4BDA62012239462120FFF7B3FCC82002F096FB054BD86A66
:4010C000BDE8F081AFF300809A999999999929403C780000B481FF1F5C7800006078000040760000707800008C780000D4770000BC780000EC78000038B50446FFF76AFBEE
:4011000010B3002214491020FFF788FC022213491020FFF783FC012211491020FFF77EFC104D0023EB62FFF7BBF801212046FFF795FC0120FFF7EAFD322002F055FB204604
:40114000FFF71AFFE86A38BD0748FFF7CBF82020044BD86238BD00BF030107000201070005030700B481FF1F2C780000000000002DE9F041074604F0BDFF4BA3D3E9002368
:4011800005F048F905F02EFA0646FFF789F84848FFF7A8F8474B1869FFF77EFA4648FFF7A1F8002440E04548FFF79CF82046FFF773FA4148FFF796F8FFF772F83D4B1D69B6
:4011C000751B284604F096FF37A3D3E9002304F0F7FF05F007FA8046B5F57A6F03DB1022344BDA6222E085EAE573A3EBE573032B18DD3348FFF776F82846FFF74DFA2E48D9
:40120000FFF770F8022107EB0800FFF727FC0220FFF77CFD322002F0E7FA022239462120FFF7FCFB0134E4B2052CBCD9FFF738F8204B1B69F61A032C31D986EAE673A3EB4D
:40124000E673072B1BDD06F69F7141F63E72914215D81C48FFF746F83046FFF71DFA1A48FFF740F8134C2069FFF716FA1248FFF739F8FF2004F068F90F23E3620FE0B3F59C
:401280007A6F06DD1148FFF72DF81022094BDA6205E00F48FFF726F80022064BDA62054BD86ABDE8F08100BF9A9999999999294000790000B481FF1F4076000020790000AB
:4012C0007078000030790000D4770000607900009079000038B505461B4C012221461020FFF79CFB002221461020FFF797FB022216491020FFF792FB154B98694042FEF7FB
:40130000ADFFFFF767FAB8B1114C0023E362FEF7C7FF02212846FFF7A1FB0220FFF7F6FC322002F061FA2846FFF722FFFEF7B8FF2369A361E06A38BD0648FEF7D3FF2020A0
:40134000034BD86238BD00BF0301070002020700B481FF1F2C780000F8B5074604F0CAFE33A3D3E9002305F055F805F03BF9064600252BE0FEF794FF2F4B5C69341B204656
:4013800004F0B8FE2AA3D3E9002304F019FF05F029F9B4F57A6F03DB1722274BDA6217E0002CB8BF6442042C0EDD03213844FFF755FB0320FFF7AAFC322002F015FA0322E5
:4013C00039462120FFF72AFB0135EDB2032DD1D9FEF766FF184B5869301A032D22D980EAE073A3EBE073092B0CDD00F69F7041F63E72904206D81148FEF774FF16220E4BC7
:40140000DA620FE0B3F57A6F06DD0D48FEF76AFF1722094BDA6205E00A48FEF763FF0022054BDA62044BD86AF8BD00BFAFF300809A99999999990940B481FF1FA4790000DE
:40144000C0790000F079000038B50446002004F0EDFA4FF47A7002F0C7F91B4BD8694042FEF7F0FEFFF7B6F918B3174D0023EB62FEF716FF1548FEF735FF03212046FFF759
:40148000EDFA0320FFF742FC322002F0ADF92046FFF702F90E48FEF725FF2046FFF75CFFFEF7FEFE6B69EB61642002F09DF9E86A38BD0848FEF716FF034C2023E36264206E
:4014C00002F092F9E06A38BDB481FF1F047A0000407500002C780000F8B506460D461446FEF7DEFE2B4F012239461020FFF796FA002239461020FFF791FA022226491020A8
:40150000FFF78CFAC82002F06FF92448FEF7EAFE002E03DB00213046FFF7A0FA002D03DB01212846FFF79AFA002C08DB1C4B98694042FEF793FE02212046FFF78FFA002E97
:4015400002DB0020FFF7E2FB002D02DB0120FFF7DDFB002C02DB0220FFF7D8FB002E02DB3046FFF701FC002D02DB2846FFF704FD002C07DB2046FFF7FBFDFEF791FE084B92
:401580001A699A61FEF78CFE322002F02DF90020F8BD00BF0203070002020700207A0000B481FF1F08B50A4601462720FFF736FA002008BD2DE9F041044600226B491020EF
:4015C000FFF72CFA21464FF49620FFF7EBFF224602212020FFF722FAC82002F005F9644D2A4621460420FFF7A3F94FF4FA7002F0FBF82A4621460420FFF79AF95D48FEF7EC
:4016000071FE2DE004F08CFB5B4804F0B5FB584A21460420FFF78CF9642002F0E5F8574B9B78EBB1554D0420E862FEF799FE04F01DFB224600212020FFF7F0F92246002147
:401640002120FFF7EBF9224600212D20FFF7E6F90023AB70EB624A48FEF744FEBDE8F081434B1B7813F0400FCCD004F0FFFA434D0026AE704348FEF735FE22463146212097
:40168000FFF7CCF90A2002F0AFF8224631462120FFF7C4F9304603F091FD012785F8307085F8287085F8317085F83370642002F09BF84FF44840FFF71FFC3348FEF712FEE5
:4016C000E86AFEF7E9FF3148FEF70CFE95F8343085F8303095F8353085F8283095F8363085F8313095F8373085F83330642002F07BF8224631462120FFF790F922463146A2
:401700002D20FFF78BF921462148FFF74BFF224696210B20FFF782F9DFF88080224641461020FFF77BF9EE62304603F047FD85F8307085F834701748FEF7D4FD164C3A4675
:4017400021461020FFF76AF9022241461020FFF765F9324621461020FFF760F9032221461020FFF75BF9BDE8F08100BF03050700CF80FF1F3C7A0000D1010000B481FF1FBA
:401780005C7A0000947A0000B07A000040760000FAD00500D87A000003010700010107002DE9F041044601226B491020FFF736F921464FF49620FFF7F5FE2246022120205F
:4017C000FFF72CF9322002F00FF8644D2A4621460420FFF7ADF84FF4FA7002F005F82A4621460420FFF7A4F85D48FEF77BFD2DE004F096FA5B4804F0BFFA584A21460420F3
:40180000FFF796F8584B9B78EBB1574D0B20E862FEF7A6FD04F02AFA224600212020FFF7FDF8224600212120FFF7F8F8224600212D20FFF7F3F80023AB70EB624B48FEF7DB
:4018400051FDBDE8F081642001F0CEFF434B1B7813F0400FCCD004F009FA434D0026AE704348FEF73FFD224631462120FFF7D6F80A2001F0B9FF224631462120FFF7CEF899
:40188000304603F0B9FF012785F8307085F8287085F8317085F83370642001F0A5FF4FF49640FFF729FC3348FEF71CFDE86AFEF7F3FE3148FEF716FD95F8343085F8303012
:4018C00095F8353085F8283095F8363085F8313095F8373085F83330642001F085FF224631462120FFF79AF8224631462D20FFF795F821462148FFF755FE224631460B2009
:40190000FFF78CF8DFF88080224641461020FFF785F8EE62304603F06FFFAE6085F8287085F835701648FEF7DDFC164C3A4621461020FFF773F8022241461020FFF76EF81B
:40194000324621461020FFF769F8032221461020FFF764F8BDE8F08103020700CE80FF1FEC7A0000D1010000B481FF1F0C7B0000447B0000607B000040760000FAD0050034
:40198000887B00000301070001010700F8B50446022269491020FFF741F821466748FFF701FE674B98694042FEF758FC224602212020FFF733F8322001F016FF614D2A46F9
:4019C00021460420FEF7B4FF4FF4FA7001F00CFF2A4621460420FEF7ABFF5B48FEF782FC2BE004F09DF9594804F0C6F9554A21460420FEF79DFF524B9B78DBB1504D1220AC
:401A0000E862FEF7ADFC04F031F9224600212020FFF704F8224600212120FEF7FFFF224600212D20FEF7FAFF0023AB704848FEF759FCF8BD642001F0D7FE424B1B7813F02A
:401A4000400FCED004F012F93D4D0026AE704148FEF748FC224631462120FEF7DFFF3046FEF7FCFBAE610A2001F0BEFE224631462120FEF7D3FF3046FEF7F0FBAE6101273B
:401A800085F8307085F8287085F8317085F83370642001F0A9FE4FF44840FFF71BFC2E48FEF720FCE86AFEF7F7FD2C48FEF71AFCEE6295F8343085F8303095F8353085F8F4
:401AC000283095F8363085F8313095F8373085F83330642001F088FE224631462120FEF79DFF224631462D20FEF798FF21461348FFF758FD3046FEF7B1FBAE6185F8317034
:401B000085F836701648FEF7EDFB164C3A4621461020FEF783FF022213491020FEF77EFF324621461020FEF779FF032221461020FEF774FFF8BD00BF030207006EA3010003
:401B4000B481FF1FCD80FF1F9C7B0000D1010000BC7B0000F47B0000107C000040760000387C00000301070001010700F8B50446002003F05BFF4FF47A7001F035FE2146F2
:401B80004FF44850FFF70EFD514BD8694042FEF759FB224602212020FEF740FF322001F023FE4C4D2A4621460420FEF7C1FE4FF4FA7001F019FE2A4621460420FEF7B8FE9B
:401BC00029E004F0ADF8444804F0D6F8414A21460420FEF7ADFE3E4B9B78CBB13C4D1620E862FEF7BDFB04F041F8224600212020FEF714FF224600212120FEF70FFF22463E
:401C000000212D20FEF70AFF0023AB70EB62F8BD642001F0E9FD2F4B1B7813F0400FD0D004F024F82A4D0026AE70224631462120FEF7F4FE0A2001F0D7FD224631462120BD
:401C4000FEF7ECFE3046FEF7FDFAEE61012785F8307085F8287085F8317085F83370642001F0C2FD40F6D860FFF7EEFB95F8343085F8303095F8353085F8283095F8363033
:401C800085F8313095F8373085F83330642001F0ABFD224631462120FEF7C0FE224631462D20FEF7BBFE21464FF44850FFF77AFC3046FEF7C7FAEE6185F8337085F837703B
:401CC0000648FEF70FFB642001F08EFDF8BD00BFB481FF1FCD80FF1FD10100004C7C000038B505460C46042200212020FEF796FE042200212120FEF791FE04216248FFF760
:401D000051FC002003F09EFE0F2001F057FD012C03D8012001F052FD00E00024012C00F29D80002C4DD104212846FEF797FE574C224604210846FEF7FBFD4FF4FA7001F01A
:401D400053FD224604210846FEF7F2FD2EE003F0E7FF4F4804F010F84C4A04210846FEF7E7FD4C4B9B78F3B14FF61D20FEF7F8FA03F07CFF042200212020FEF74FFE0422E4
:401D800000212120FEF74AFE042200212D20FEF745FE404C0023A3702123E362FF2003F051FEE06A38BD642001F01EFD374B1B7813F0200FCBD003F059FF0022354B9A7064
:401DC0004CE004216842FEF749FE304C224604210846FEF7ADFD4FF4FA7001F005FD224604210846FEF7A4FD2EE003F099FF284803F0C2FF254A04210846FEF799FD254B0B
:401E00009B78F3B14FF61D20FEF7AAFA03F02EFF042200212020FEF701FE042200212120FEF7FCFD042200212D20FEF7F7FD194C0023A3702123E362FF2003F003FEE06AC1
:401E400038BD642001F0D0FC104B1B7813F0200FCBD003F00BFF00220E4B9A7004210020FFF7A0FB042200212120FEF7D7FD042200212020FEF7D2FD052001F09FFCFF20AD
:401E800003F0E0FD002038BD6EA30100CF80FF1FD1010000B481FF1F70B506460D461446042200212020FEF7B9FD042200212120FEF7B4FD04212846FFF774FB002003F010
:401EC000C1FD0A2001F07AFC012C0FD83CB904213046FEF7C3FD0420FEF718FF06E004217042FEF7BBFD0420FEF710FF04210020FFF758FB042200212120FEF78FFD0422BB
:401F000001212020FEF78AFD052001F057FCFF2003F098FD002070BD2DE9F04F99B00022D34BDA62D34A5178137803EB0123D24A13607A2B52D1D148FEF7D4F9FF2003F085
:401F400069FD4FF4FA7001F04FFCFF2003F056FD4FF4FA7001F048FC002003F043FD4FF4FA7001F041FC0021C548FFF71BFB012001F024FCBE4D0024AC632046FEF7BCFFDD
:401F8000C04E012231461020FEF748FD022231461020FEF743FD2246BB491020FEF73EFD2046FFF707FB2246B8491020FEF736FD322001F003FC204603F02CFD322001F01D
:401FC000FDFB204603F01AFD4FF4FA7001F00CFCEC63E86AFEF7C4F900F017BE7B2B50D1AB48FEF77FF9FF2003F014FD4FF4FA7001F0FAFBFF2003F0F5FC4FF4FA7001F03D
:40200000F3FB002003F0FAFC4FF4FA7001F0ECFB01219B48FFF7C6FA012001F0CFFB0020FFF76AF801229B491020FEF7F7FC022294491020FEF7F2FC944C00222146102049
:40204000FEF7ECFC0120FFF7ABFB012221461020FEF7E4FC322001F0B1FB002003F0DAFC322001F0ABFB002003F0BCFC322001F0A5FB7F4B00221A64D86AFEF771F900F0CD
:40208000C4BD7C2B4AD18448FEF72CF9FF2003F0B5FC4FF4FA7001F0A7FBFF2003F0A2FC4FF4FA7001F0A0FB002003F0B3FC4FF4FA7001F099FB02217848FFF773FA0120B0
:4020C00001F07CFB0020FFF705F901226D491020FEF7A4FC022272491020FEF79FFC00226A491020FEF79AFC0220FFF74FFC322001F064FB002003F081FC322001F05EFB66
:40210000002003F06FFC322001F058FB584B00225A64D86AFEF724F900F077BD7D2B4FD1FF2003F077FC4FF4FA7001F05DFBFF2003F064FC4FF4FA7001F056FBFF2003F0DA
:4021400051FC4FF4FA7001F04FFB032255491020FEF764FC4FF4FA7001F046FB002003F065FC0A2001F02AFB0020FFF76DF90320FFF7FCFC4FF47A7001F036FBFF2003F061
:4021800055FC4FF47A7001F02FFB002003F042FC4FF47A7001F028FB002003F02FFC4FF47A7001F021FB002003F01CFC4FF47A7001F01AFB2E4BD86AFEF7D2F800F025BDD2
:4021C000B3F5F46F78D13848FEF78CF8294A517913791B0403EB0163D17803EB012392781344234CA3643148FEF77CF8A06CFEF753FA2F48FEF776F8E26BA36C9A422BD0E9
:40220000E3631846002B00DAD81C194C801003F071FF15A3D3E9002303F0D2FF04F0E2F9A064FEF769FEE0620A2001F0C7FA214C012221461020FEF7F1FB0222214610203E
:40224000FEF7ECFB002221461020FEF7E7FB032221461020FEF7E2FB054BD86AFEF780F800F0D3BCAFF300809A99999999992940B481FF1F5882FF1FD882FF1F607C000025
:40228000FAD00500010107000704070001030700787C000003020700907C00006EA301000303070001050700A87C0000C07C00004076000002010700B3F5F66F4ED18C48D1
:4022C000FEF710F88B4A517913791B0403EB0163D17803EB012392781344874CE3648748FEF700F8E06CFEF7D7F98548FDF7FAFF226CE36C9A422BD023641846002B00DA4A
:40230000D81C7D4C801003F0F5FE75A3D3E9002303F056FF04F066F9E064FEF7EDFEE0620A2001F04BFA774C012221461020FEF775FB022221461020FEF770FB002221468C
:402340001020FEF76BFB032221461020FEF766FB694BD86AFEF704F800F057BCB3F5FA6F3BD16948FDF7BEFF02216848FFF71AF9604A517913791B0403EB0163D17803EBD3
:402380000123927813445C4C23655C48FDF7AAFF206DFEF781F95A48FDF7A4FF626C236D9A4214D063641846002B01DA03F10F00514C001103F09EFE4BA3D3E9002303F0A9
:4023C000FFFE04F00FF92065FEF784FFE0624A4BD86AFDF7C5FF00F018BCB3F5FC6F5AD14B48FDF77FFFFF2003F014FB4FF4FA7001F0FAF9FF2003F001FB4FF4FA7001F0B1
:40240000F3F9FF2003F0EEFA4FF4FA7001F0ECF9032240491020FEF701FB4FF4FA7001F0E3F9002003F002FB0A2001F0C7F9314A517913791B0403EB0163D07803EB002364
:40244000907818442C4C6065FEF7FEFFE0624FF47A7001F0C9F9FF2003F0E8FA4FF47A7001F0C2F9002003F0D5FA4FF47A7001F0BBF9002003F0C2FA4FF47A7001F0B4F98C
:40248000002003F0AFFA4FF47A7001F0ADF9E06AFDF766FFB9E37E2B40D11F48FDF722FF144A517913791B0403EB0163D17803EB012394781C449379012B03D80A2001F00D
:4024C00093F902E000220B4B9A710A4B99792046FFF706FC084BD86AFDF742FF95E300BF9A999999999929409A99999999994940D87C00005882FF1FB481FF1FC07C00002A
:402500004076000002010700F07C00006EA30100087D000001050700207D0000B3F5F86F40F0A3800221A448FFF73CF8A348FDF7D9FEA34B59791A79120402EB0162D978D3
:4025400002EB0122987810449E4CA064597A1A7A120402EB0162D97902EB012299791144E1645D7B1A7B120402EB0562DD7A02EB05229B7A13442365E26B904202D14FF0B7
:40258000FF30A0648F4A126C914203D14FF0FF318C4AD1648B4A526C934203D14FF0FF32884B1A65874B9B6C002B10DB854AD363184600DAD81C801003F09CFD7AA3D3E95D
:4025C000002303F0FDFD04F00DF87E4B98647D4BDB6C002B10DB7B4A1364184600DAD81C801003F087FD70A3D3E9002303F0E8FD03F0F8FF734BD864724B1B6D002B11DB6F
:40260000704A5364184601DA03F10F00001103F071FD67A3D3E9002303F0D2FD03F0E2FF684B1865674C226DE16CA06CFEF754FFE0620A2001F0C2F8634D01222946102060
:40264000FEF7ECF9022229461020FEF7E7F9002229461020FEF7E2F9032229461020FEF7DDF9E06AFDF77CFECFE2B3F5F44F0CD15648FDF737FEFEF763F8642001F09EF875
:40268000504BD86AFDF76CFEBFE2B3F5FE4F0CD14F48FDF727FEFEF71BF8642001F08EF8484BD86AFDF75CFEAFE2B3F5FC4F14D14848FDF717FE424B9C7834B1012C03D00E
:4026C0004548FDF70FFE00E0FF24204602F030FF3C4BD86AFDF744FE97E2FF2B13D13F48FDF700FE3E48FDF7FDFD4FF4FA7001F065F80020FDF734FE4FF4FA7001F05EF81A
:4027000001F054F881E2B3F5F64F73D12C4B59791A79120402EB0162D97802EB012299780A44304C6261597A1A7A120402EB0162D97902EB012299790A44A261597B1A7B8C
:40274000120402EB0162D97A02EB01229B7A1A44E2612548FDF7C6FD00216069FEF722FF0121A069FEF71EFF0221E069FEF71AFF1E48FDF7B7FD6069FDF78EFF1C4D2846D0
:40278000FDF7B0FDA069FDF787FF2846FDF7AAFDE069FDF781FF2846FDF7A4FD094BD86AFDF7DEFD31E200BF9A999999999929409A999999999949406EA301003C7D00000A
:4027C0005882FF1FB481FF1F03010700587D0000787D0000987D0000B87D0000E07D0000BC760000D080FF1F007E0000287E0000507E000040F2D172934240F0C480764C00
:40280000002323807548FDF76DFD208803F072FC0022734B03F0D4FC03F0E4FEFDF73CFF7048FDF75FFD704B59791A79120402EB0162D97802EB012299780A442265597A5F
:402840001A7A120402EB0162D87902EB002298791044664BD8610221FEF7A4FE226D636CD31A002BB8BF5B42B3F5FA7F23DB62641046002A01DA02F10F00574C001103F082
:4028800039FC53A3D3E9002303F09AFC03F0AAFE2065208803F02EFC0022514B03F090FC03F0A0FEFDF7F8FE4E48FDF71BFD206DFEF710FD52E0484B5A641046002A01DAD9
:4028C00002F10F00444C001103F014FC40A3D3E9002303F075FC03F085FE2065444D012229461020FEF79AF8002229461020FEF795F802223F491020FEF790F8A069404210
:40290000FDF7ACFC0023E362FDF7CAFC208803F0F1FB0022324B03F053FC03F063FEFDF7BBFE304D2846FDF7DDFC0221206DFEF795F80220FEF7EAF9208803F0DBFB0022F9
:40294000274B03F03DFC03F04DFEFDF7A5FE2846FDF7C8FCFDF7A4FC2369A3611E4C208803F0C8FB00221E4B03F02AFC03F03AFEFDF792FE1B48FDF7B5FC00232380E06A67
:40298000FDF7EEFC41E140F2D272934234D1164B59791A79120402EB0162D97802EB0122987810440C4CA065597A1A7A120402EB0162D97902EB012299791144E1659A7A89
:4029C0002266FFF769FA0020E062FDF7C9FC1CE19A99999999994940B481FF1F547E0000000004401C7D00005882FF1FD080FF1F010107000202070040F2C172934240F0D8
:402A00009580874B59791A79120402EB0162D97802EB012299781144824DA964587A1A7A120402EB0062D87902EB002298790244EA64587B1A7B120402EB0062D87A02EB65
:402A40000022987A02442A65A963597C1A7C120402EB0162D97B02EB0122997B0A44724C6261597D1A7D120402EB0162D97C02EB0122997C0A44A261597E1A7E120402EB19
:402A80000162D97D02EB01229B7D1A44E2610A2000F0AAFE00216069FEF784FD0121A069FEF780FD0221E069FEF77CFDA86C002800DA03305B4C801003F01CFB54A3D3E9BE
:402AC000002303F07DFB03F08DFDA064E06C002800DA0330534C801003F00CFB4CA3D3E9002303F06DFB03F07DFDE064206D002800DA0F304B4C001103F0FCFA46A3D3E93F
:402B0000002303F05DFB03F06DFD2065642000F06BFE226DE16CA06CFEF7DEFCE062642000F04CFEE06AFDF71BFC6EE0B3F5F84F03D10020FDF714FC67E0FE2B0FD1FF20B8
:402B400002F03EFF3948FDF7CDFB0A2000F036FE0020FDF705FC002002F032FF55E043F27332934246D12E4BDA781492197915915C7916949D791795DE7900961E7A019642
:402B80005E7A02969E7A0396DE7A04961E7B05965A7B997BD87B1C7C5D7C9E7CDF7C93F814E093F815C093F8168093F8179093F818A093F819B09B7E1393CDF848B0CDF8A2
:402BC00044A0CDF84090CDF83C80CDF838C0CDF834E00C970B960A950994089007910692179B169A1599149800F078F80020FDF7B7FB0AE013240B4BDC620D48FDF772FBB0
:402C0000FDF7D6FD2046FDF7ABFB19B0BDE8F08F9A999999999929409A999999999949405882FF1FB481FF1FD080FF1F587E0000787E000010B440F0E000044C43EA0023C7
:402C4000238041EA0222628010BC70471882FF1F38B50546082313E05C1E45FA04F000F0010003F097F8002003F0A0F8012000F0BBFD012003F09AF8012000F0B5FDE3B25D
:402C8000002BE9D138BD00BF38B505469DF81000FFF7D0FF01220F4B1A7012E00E4C2088000AFFF7D5FF2078FFF7D2FF6088000AFFF7CEFFA078FFF7CBFF064A137801330F
:402CC0001370044B1B78AB42E8D90022014B1A7038BD00BFE082FF1F1882FF1F2DE9F04F93B00290039104921C469DF870509DF874609DF878709DF87C3005939DF88030CE
:402D000006939DF8843007939DF8883008939DF88C3009939DF890300A939DF894300B939DF898300C939DF89C300D939DF8A0300E939DF8A4300F939DF8A83010939DF8A6
:402D4000AC3011939DF8B0809DF8B4909DF8B8A09DF8BCB00020FFF77BFF0020FFF778FF0020FFF775FF0020FFF772FF0122814B1A700FE0E020FFF76BFF0020FFF768FFD4
:402D80000020FFF765FF0020FFF762FF794A137801331370774B1B782D2BEBD9FF20FFF757FFFF20FFF754FFFF20FFF751FFFF20FFF74EFF0020FFF74BFF0020FFF748FF55
:402DC0000020FFF745FF0020FFF742FF049B039A02992046FFF72EFF0122664B1A70AAE0072B0ED8644C2088000AFFF731FF2078FFF72EFF6088000AFFF72AFFA078FFF760
:402E000027FF5C4B1A78A2F10803DBB2072B16D8082A05D13B46324629460598FFF70AFF554C2088000AFFF713FF2078FFF710FF6088000AFFF70CFFA078FFF709FF4D4B43
:402E40001A78A2F11003DBB2072B16D8102A05D1089B079A06990998FFF7ECFE464C2088000AFFF7F5FE2078FFF7F2FE6088000AFFF7EEFEA078FFF7EBFE3E4B1A78A2F1D5
:402E80001803DBB2062B16D8182A05D10C9B0B9A0A990D98FFF7CEFE374C2088000AFFF7D7FE2078FFF7D4FE6088000AFFF7D0FEA078FFF7CDFE2F4B1A78A2F11F03DBB2A0
:402EC000072B16D81F2A05D1109B0F9A0E991198FFF7B0FE284C2088000AFFF7B9FE2078FFF7B6FE6088000AFFF7B2FEA078FFF7AFFE204B1A78A2F12703DBB2062B16D87D
:402F0000272A05D153464A4641465846FFF792FE194C2088000AFFF79BFE2078FFF798FE6088000AFFF794FEA078FFF791FE114A1378013313700F4B1B782D2B7FF650AF5F
:402F400000200C4B1870E0230093034602460146FFF79AFEFF20FFF77BFEFF20FFF778FEFF20FFF775FEFF20FFF772FE13B0BDE8F08F00BFE082FF1F1882FF1FFEE700BFAE
:402F8000F0B40022174611E050F82760F3B226F0FF0608E001EB420511F812406D78A5550132013BDBB2002BF4D10137252FEBD9F0BC7047064B1B78DBB203F00701054ABF
:402FC00011701B09013213704422034B1A707047CF0100496E5800407658004008B50A46002103F002FE08BD08B503F0F3FD08BD08B503F0EFFD08BD38B501222C4B1A8087
:4030000018232C490B7002310A8002310B7002310A80294A137017210232118002321370332102321180023213700622234B1A705222A3F580731A70214B1B78DBB2214A23
:4030400013704FF4E262204B1A8041F25122023B1A80002419250CE01C4B1B7803F0010343EA440404F003044FF4F07002F0ACFE013D0DB1032CEFD115B90320FFF77EFF87
:40308000134A4FF48073138007231370002311490B7048200231087013700532137002220D4B1A700D4A137843F01F03137038BD80400040824000408A40004000430040B1
:4030C0000F010049A14600402242004025420040044000400640004001400040A243004038B572B6494A137843F00403137000240CE0474D630019194A0011462A440846CF
:4031000091882858FFF76AFF0134E4B2072CF0D900240BE03E49A3001819420088188022416B006BFFF760FF0134E4B2002CF1D0374C04F13C0104F6BC60FFF721FF354A5E
:40314000354B1A60A2F5802203F500631A6002F1004203F520731A60304A137843F0020313701032137843F0020313702C4D2B7843F040032B70A2F58632513A137843F000
:40318000100313700A2204F654712648FFF72CFF0A2204F576612448FFF726FF082204F66C712248FFF720FF0A2204F674712048FFF71AFF0A2204F578611E48FFF714FF0D
:4031C000082204F68C711C48FFF70EFF0A2204F694711A48FFF708FF082204F57A611848FFF702FF174A137843F008031370164C61232370FFF700FFC1232370FFF7DAFE08
:403200000E2229461148FFF7F3FE38BDE8460040A07E000004040444580C014003500140A043004000510040F05100401251004020510040305100404251004050510040A7
:40324000625100402243004000480040B043004008B503F093FC03680C2B00D1FEE7FEE708B5094B1A681044084BC31A802B02DC054B186005E003F081FC0C2303604FF0F1
:40328000FF32104608BD00BF0481FF1F2084FF1F08B5104E104D16E029686B68AC68002204E051F8040B43F8040B0432A242F8D1E868002203E0002143F8041B0432824263
:4032C000F9D11035013E002EE6D103F05DFCFCF7D9FEFEE7010000005091000008B5104A104B1A60104A136843F40073136000230AE0032B03D80D4A52F8231000E00C49C1
:403300000C4A42F8231001332F2BF2D90A4B1A780A4B1A70074A0A4B1A60FFF7E1FE08BD0004FA050CED00E014ED00E000000000513200000080FF1FBC760040C080FF1F43
:4033400008ED00E0044A137803F0FE0300F0010018431070704700BF20510040044A137803F0FD03400000F0020018431070704720510040044A137803F0FB03800000F03D
:403380000400184310707047205100401022014B1A60704700E100E00822014B1A60704700E100E008B502F017FD0C4A137843F0200313700332137843F0100313700132B5
:4033C000137843F01003137002F00AFD01F0C0FEFFF7DCFFFFF7E0FF08BD00BF906400401022014B1A60704780E100E00822014B1A60704780E100E010B5FFF7F1FF064B9F
:403400001C78064A137803F009031C4300231370FFF7BCFF204610BD63640040ED82FF1F10B5FFF7E3FF064B1B78064A147804F040041C4300231370FFF7AEFF204610BD31
:4034400064640040FB82FF1F10B504462B4B1A7802F0FF0312B1013BDBB200E00423284A1278D2B29342F1D0FFF7BAFF254B1978254A137803F009030B4313701F4B1A787F
:40348000D2B21F4B1B78DBB29A4207D11E4B1B7813F0040F02D01D4B1C702CE0184A13780133DBB213701378DBB2042B02D90022134B1A70124B1A78D2B2104B1B78DBB21B
:4034C0009A420ED10D4A13780133DBB213701378DBB2042B02D90022084B1A7001220C4B1A70074B1B78DBB20A4AD4540A4A137843F004031370FFF749FF10BDF782FF1F9A
:40350000F982FF1F63640040ED82FF1F43640040F682FF1FE882FF1F8364004010B5FFF765FF134B1A78D2B2124B1B78DBB29A4214D0114B1B7813F0FF0F0CD10C4A1378A4
:403540000133DBB213701378DBB2052B06D90022074B1A7002E00022074B1A70044B1B78DBB2064AD45CE4B2FFF716FF204610BDFA82FF1FF882FF1FE482FF1FF082FF1FF9
:4035800008B501E00A4B1B780A4B1B7813F0200FF8D102F021FC084B1A7842F001021A701A7802F0FE021A7002F01AFC08BD00BF53640040646400409364004010B50F2229
:4035C000174B1A70174C102323600621042000F029F91549042000F011F9082323600721032000F01FF91149032000F007F9FFF7C7FF00240E4B1C700E4B1C700E4B1C70F0
:403600000E4B1C700E4B1C700E4B1C70FFF7F4FEFFF706FF0C4B1C70202201331A7010BD8064004080E100E06936000009370000E482FF1FFA82FF1FF882FF1FF682FF1FB8
:40364000F782FF1FF982FF1F8364004008B5054B1B7823B9FFF7B2FF0122024B1A70FFF7A1FE08BD2482FF1F28E01F4B19781F4A137803F009030B431370137813F0040F50
:4036800024D01B4B1B7813F0FF0F0CD1194A13780133DBB213701378DBB2042B06D90022144B1A7002E00022114B1A70114B1B78DBB2114AD35CDBB2104A13700D4B1A7888
:4036C000D2B20F4B1B78DBB29A42CED1094B1A78D2B20B4B1B78DBB29A4204D1094A137803F0FB031370704763640040ED82FF1FF682FF1FF782FF1FE882FF1F4364004087
:40370000F982FF1F83640040204B1A7820490B7803F0400313430B7032E01E4B1A78D2B21D490B780133DBB20B700B78DBB2052B02D90021184B1970174B1978C9B2174B2B
:403740001B78DBB299420ED114490B780133DBB20B700B78DBB2052B02D900210F4B197001210F4B19700C4B1B78DBB20D49CA54064B1A7806490B7803F0400313430B7088
:40378000034B1B7813F0200FC7D1704764640040FB82FF1F53640040F882FF1FFA82FF1FE482FF1FF082FF1F01BE7047024A137843F0010313707047F646004010B504467E
:4037C00005E0084B186802F0FFFAA4F50044B4F5004FF6D8034B586800FB04F002F0F4FA10BD00BF0881FF1F08B5034B1B7A00FB03F002F0E9FA08BD0881FF1F70B5044635
:403800000E46074B1D681F2802D90020FFF7CCFF04F01F04103455F8240045F8246070BD08ED00E038B504460D46072902D90020FFF7BAFF1F2C02D90020FFF7B5FF04F083
:403840001F0000F1604000F564406D01EDB2057038BD00BF134B1B78DBB20360124A127843EA02230360114A127843EA024303600F4A127843EA026303600E4B1B78DBB242
:4038800043600D4A127843EA022343600B4A127843EA024343600A4A127843EA02634360704700BF0301004904010049EC46004002010049010100490001004905010049D5
:4038C00006010049F8B502F087FA0546404A137843F0010313701032137843F00103137001273C4B1F700226943B1E7002F5E2521B32137803F07F0313700020FFF774FF70
:40390000354C237803F0F9032370344A137803F0DF03137023783B4323703846FFF764FF2820FFF761FF2E4B1A7802F07F021A701A7802F0BF021A70237833432370304676
:40394000FFF752FF237843F0040323700023254A137001321370284602F042FA07211720FFF760FF20491720FFF748FF07211820FFF758FF1D491820FFF740FF07211520C3
:40398000FFF750FF1A491520FFF738FF07210620FFF748FF17490620FFF730FF07210846FFF740FF14490720FFF728FF07210820FFF738FF11490820FFF720FF07210C2013
:4039C000FFF730FF0E490C20FFF718FFF8BD00BFA54300409D6000409443004012600040F8510040846000404D4400003542000049440000A9430000D94300000D440000D5
:403A0000E946000010B5002304E00124244AD4542344DBB2012BF8D9224B18700023224A1370224A1370224A1370224A1370224A1370224A1370224A1370224B4FF400028C
:403A40001A604FF080721A604FF400121A6040221A6080221A604FF480721A6011B1012906D00BE0184A137803F0FE0313700AE0154A137843F00103137004E0124A137841
:403A800043F0010313700322104B1A708022203B1A70012002F098F904220D4B1A7010BDAC83FF1F1F83FF1F1483FF1F2683FF1F2C83FF1F1583FF1F2083FF1F3D83FF1F97
:403AC0001683FF1F00E100E009600040286000401260004038B504460D46064B1B7823B9FFF7F0FE0122034B1A7029462046FFF789FF38BD2582FF1F002304E001210E4A74
:403B0000D1540B44DBB2012BF8D900230B4A13700B4A13700B4A13700B4A13700B4A13700B4A13700B4A137003220B4B1A708022203B1A70704700BFAC83FF1F1483FF1F78
:403B40002683FF1F2C83FF1F1583FF1F2083FF1F3D83FF1F1683FF1F28600040014B1878704700BF2C83FF1F064B1B7813F0FF0F05D0044B1878C0B200221A707047002020
:403B8000704700BF2683FF1F00EB40008300024A13445878704700BF4083FF1F431EDBB2072B0BD8064B00011A18185C00F00F00537843EA0020023880B270470020704744
:403BC000FC5F0040431EDBB2072B3CD8F0B4074600EB4004A3001C4C2344DB889BB2C3F500739A4208D900EB400293002344DA8892B2C2F5007292B200EB4004A300124C62
:403C00002344DB7843EA1223104D04012E192B55D3B2737039B909E0CE5C3D010C4C665501339BB200E000239A42F5D8420002449300054A134400225A705A79D2B200014F
:403C4000044B1A54F0BC70474083FF1FFC5F004078600040FE5F0040431EDBB2072B0BD8420002449300054A134400225A705A79D2B20001024B1A54704700BF4083FF1FD9
:403C8000FE5F004070B5D9B1054614460E46C8B1082819D8FFF782FFA04203D22846FFF77DFF0446002305E02901094A525CF25401339BB2A342F7D32846FFF7CDFF04E010
:403CC000002402E0002400E00024204670BD00BF786000404FF40012014B1A60704700BF00E100E010B4FF2400230EE0094AD25C02EB42029100084A11448A7AD2B28242AC
:403D000001D11C4602230133DBB2012BEED9204610BC70470083FF1F4083FF1F10B5204C2079FFF7DFFF237813F0800F0ED06378DBB2212B2FD11B4B07221A80C0EBC0001A
:403D4000194A1044586000F0E3FA10BD144B5B78DBB2202B02D0222B10D01EE0114A07231380C0EBC00310490B4453600F4A135C43F00103135400F0F3FA10BD084B9B78DC
:403D80000B4A22F81030094A135C43F00203135400F07CF910BD002010BD002010BD00BF006000403083FF1F1881FF1F1083FF1FFC82FF1F10B500241F4B1C701F4B1C70DE
:403DC0005C700AE01E4B185DC0B2431EDBB2072B01D8FFF741FF0134E4B2012CF2D9194B1B7813F0FF0F1AD0154B1B7813F0FF0F17D0154B1B7813F0FF0F14D0114B1B7817
:403E0000DBB2082B11D80E4B1B78DBB2082B0ED80D4B1B78DBB2082B0BD8002010BD012010BD012010BD012010BD012010BD012010BD012010BD00BF2682FF1F1083FF1F02
:403E40000883FF1F0C83FF1F0083FF1F70B506460D460F4B1B780F4AD45CE4B204EB440293000D4A13441B899BB28B4209D204EB44029300084A13441D89ADB20020FFF7E0
:403E800093FC2A4631462046FFF79CFE70BD00BF2682FF1F0C83FF1F4083FF1F08B5034B1B78034AD05CFFF76FFE08BD2682FF1F0883FF1F08B5084B1B78084AD35CDBB2F7
:403EC00003EB43018A0006490A44128992B201461846FFF7D7FE08BD2682FF1F0883FF1F4083FF1FC37803F0030390F9020000280FDA032B06D002F001030B48C15442F0A1
:403F000001020EE0C2F380030848C15442F0040207E0032B05D0C2F340030548C15442F002021046704700BF0C83FF1F0083FF1F0883FF1F1D4B19781D4A13889BB20B44E7
:403F40009BB2138000220FE01A494B681B78DBB2194883544B6801334B600132D2B20B889BB2013B9BB20B80124B1B889BB20BB1072AE9D90D4B1B78DBB2082B00D05AB123
:403F80000E490B7883F080030B700F210C4B197002210C4B197004E0022309490B7009490B70094B1A70014B1A7070471683FF1F2A83FF1F3083FF1F006000402183FF1FE0
:403FC0001E83FF1F1483FF1F3C83FF1F0222074B1A708022064B1A700F22064B1A700023054A1370054A1370012070471483FF1F2183FF1F1E83FF1F1683FF1F3C83FF1F7E
:4040000008B5FFF797FF08BD10B4194B197801F00F010239C9B2174A13889BB20B449BB21380002011E0144A5468144B1B5CDBB223705368013353600130C0B20139C9B26F
:4040400013889BB2013B9BB213800B4B1B889BB20BB10029E7D10A4B19700A4A137883F0800313700B22084B1A7010BC704700BF296000402A83FF1F3083FF1F00600040D2
:404080003C83FF1F2183FF1F1E83FF1F0623064A1370064A13708022054B1A700022054B1A700120704700BF1483FF1F1E83FF1F2183FF1F3C83FF1F064B9B6843B1054B19
:4040C0009A6810709A6804490988518000229A60704700BF3083FF1F2A83FF1F08B5134B1A78D2B21A701B78DBB213F0800F02D00F4A137008BD0220FFF7DEFF0D4B1B789F
:4041000003F06003202B05D0402B06D043B900F0DDFD06E001F068FE03E000F085FF00E0002010B90322024B1A7008BD286000401E83FF1F0060004008B5094B1978094AC8
:4041400013889BB20B449BB213800022064B1A700120FFF7B1FF0322044B1A7008BD00BF1683FF1F2A83FF1F1483FF1F1E83FF1F08B50B4B1B78DBB2042B06D0062B07D0AC
:40418000022B0BD1FFF7D8FF08BDFFF73DFF08BD0320FFF791FF0322024B1A7008BD00BF1483FF1F1E83FF1F08B50022044B1A700120FFF781FF0322024B1A7008BD00BF01
:4041C0001483FF1F1E83FF1F08B50B4B1B7813F0FF0F07D0084A137843F0800307490B70002313700022064B1A700120FFF764FF0322044B1A7008BD2083FF1F0860004016
:404200001483FF1F1E83FF1F08B5094B1B78DBB2042B06D0062B07D0022B07D1FFF7F0FE08BDFFF7C1FF08BDFFF7CEFF08BD00BF1483FF1F08B5284B1B78DBB213F0100F35
:4042400048D013F0800F0CD003F00F03012B16D1FFF744FF214B1B7813F0800F11D1012312E013F0400F03D0FFF7CEFF01230BE013F0200F07D0FFF77BFF012304E0002343
:4042800002E0002300E0002323B3134B1B7813F0800F1FD1124B1B78124A12781343124A13701278D2B2934214D10C4B1B78DBB2094A127812F0800F07D1084B1B78DBB2AA
:4042C000054A1370137803F00F03044A1278D2B29342EAD108BD00BF286000401E83FF1F2183FF1F3C83FF1F296000400022064B1A80064B9B682BB1044A916800230B70DB
:4043000092685380704700BF2A83FF1F3083FF1F08B50F4B1B889BB213B9FFF757FE15E002220C4B1A7000220B4B1A70FFF7DEFF0A4AD179937943EA0123054A128892B289
:40434000934201D2024A1380FFF7F4FD012008BD3083FF1F1483FF1F2183FF1F0060004008B504220B4B1A7080220B4B1A70FFF7BDFF0A4AD179937943EA0123084A128823
:4043800092B2934201D2064A13800B22054B1A70012008BD1483FF1F2183FF1F006000403083FF1F1E83FF1F0122094B1A700F3B9B7C084B1B7B03F00303934204D0054A5E
:4043C000D37B83F08003D3730122024B5A7370470B6000404083FF1F02220A4B1A700F3B93F82230084B1B7E03F00303012B04D0054AD37E83F08003D3760122024B5A7685
:40440000704700BF0B6000404083FF1F04220C4B1A700F3B93F832300A4B93F8243003F00303012B06D0074A92F8273083F0800382F827300122034B83F82520704700BF6D
:404440000B6000404083FF1F704700BF08B5FFF753FB08BD08B50C4B18780138C0B200F0CFF90A4B1B79DBB29A1C00EBC20042680749CB5C02EBC3035B68596A0B78054A68
:404480001380516008BD00BF2C83FF1F006000401C83FF1F3083FF1F08B50E4B18780138C0B200F0ADF90C4B1B79DBB29A1C00EBC20042680949CB5C02EBC3035B68DB699A
:4044C000597813F8022B42EA012205490A804B6008BD00BF2C83FF1F006000401C83FF1F3083FF1F10B500221A4B1A801A4B18780138C0B200F084F91849CB78DAB20B79BB
:40450000DBB2991C00EBC1004168012B20D81448C35C01EBC3014968531EDBB2022B17D802F10053013B01EBC3000C4A9278D2B211F833309A420BD8406802EB4202910020
:4045400042185468034B5C60415A198092689A6010BD00BF3083FF1F2C83FF1F006000401C83FF1F08B55B4B1A79D2B21B7813F0800F4DD0574B5B78013B052B00F28E80CF
:40458000DFE803F0212B3B8C8C03524BDB78DBB2212B09D1FFF75EFF4F4B1B889BB2002B7ED0FFF7B5FE08BD4A4BDB78DBB2222B78D1FFF771FF484B1B889BB2002B73D0D6
:4045C000FFF7A6FE08BDFFF78DFF434B1B889BB2002B6BD0FFF79CFE08BD012A68D83D4B9B7813F0FF0F65D13B4901230B803B4B1A444A60FFF78CFE08BD012A5CD8364970
:4046000001230B80364B1A444A60FFF781FE08BD304B5B78DBB20A2B0DD00B2B2FD0092B4CD1FFF75FFF2C4B1B889BB2002B47D0FFF796FE08BD012A44D8264B9B7813F07B
:40464000FF0F41D1234BDB78DBB224498B54895CC9B2244B9B5CDBB2994203D20021214B995409E01F4B9B5CDBB2012B04D91B4B9B5CDBB21B498B54FFF708FD08BD012A0B
:4046800024D8144B9B78DBB2012B21D8114B9B78DBB213498B54FFF7F9FC08BD002008BD002008BD002008BD002008BD002008BD002008BD002008BD002008BD002008BDE6
:4046C000002008BD002008BD002008BD002008BD002008BD006000403083FF1FB083FF1FAC83FF1FB483FF1F08B500F0BBFC08BD70B588B0054603AC174E0FCE0FC43368AD
:40470000237035B322232B7003236B7001A8FFF7A1F8002402231AE008AA224412F81C2C08A901EB121111F8141CE954581C00212954981C02F00F0208AE324412F8142CC3
:404740002A54DA1CA9540134E4B20433DBB2212BE2D908B070BD00BFC88E000010B401233EE019461A010C242148845403EB4300820020480244527912F0FF0F13D003EB3A
:40478000430082001B480244127912F0800F04D01801194A024494700AE01801164A02440820907004E01801134A0244802090704800084482000F480244D488E4B2080116
:4047C0000B4901448C71D088C0F30720C871D088C0B20871D288C2F307224A710133DBB2082BBED9FF22054B1A7010BC704700BF706000404083FF1FFC5F00400A60004084
:40480000074B1A78074B03EBC2035B681A7C824204D9C0001030184440687047002070471F83FF1F188F0000F8B5404B1B7813F0FF0F79D03D4B18780138C0B2FFF7E0FFDF
:40484000047AC2683A4B1878C0B200236AE01178884264D13749095CC9B25578A9425ED1917801F07F01D67806F00306DFF8C8E04D000D44AF000EEB07054FF0000C85F86D
:4048800003C092F802C085F804C092F803C00EF807C097882F8192F90250002D0DDA012E01D1072700E00D274E000E44B500224E35446F7101266E700CE0012E01D105274F
:4048C00000E009274E000E44B5001B4E35446F7100266E70DFF868E00F010EEB07060125B57001FA05F529448D00134929440D89C5F307250EF807500D89EDB27570CE880E
:40490000F6B20E4D3D44AE71CE88C6F30726EE71CE88F6B22E71C988C1F30721697108320133DBB2A34292D3F8BD00BF2C83FF1F1583FF1F1C83FF1F4083FF1F70600040AB
:40494000FC5F0040034B1A78034B03EBC2035868704700BF1F83FF1F188F000008B5084B18780138C0B2FFF74BFF30B142681279023200EBC203586808BD002008BD00BF70
:404980002C83FF1F2DE9F047002310E0724D5900CA189600AC190022AA55A270E2702281A272627034462C4462710133DBB2082BECD940B90AE000226849CA546849CA544E
:4049C0000133DBB200E00023012BF4D9654B1B7813F0FF0F00F0BD80624B18780138C0B2FFF70EFF80464368DB7913F0400F05D05D4A137843F00103137004E05A4A1378A3
:404A000003F0FE03137098F808704FF0000A01266FE0D8F80C50002467E0AB7803F07F039E425FD1314606EB460083004A4803441B899BB2A888834206D206EB460E4FEAB3
:404A40008E03454A134418812B784448C35CDBB26878834246D195F802C0DFF8FCE04B000B4498000EEB000383F804C0EB780EF80030EB7803F0030395F90200002813DA86
:404A8000012B02D14FF0070901E04FF00D09DFF8C8E04B0003EB010C4FEA8C00704480F805900121417012E0012B02D14FF0050901E04FF00909DFF8A0E04B0003EB010C47
:404AC0004FEA8C00704480F8059000214170AB790A2B01D0022B05D1524631462846FFF701FA824608350134E4B2BC4295D30136F6B2082E8DD9D8F80C0000220CE083782D
:404B000003F07F0310F8084B03EB43039900124B19448C720132D2B2BA42F0D3FFF71EFF124B1860002301210FE00B4D4A00501884002C44E380228992B213449BB203F0A7
:404B4000010213449BB20131C9B20829EDD9FFF705FEBDE8F08700BF4083FF1F1C83FF1F2483FF1F2C83FF1F3D83FF1F1883FF1F08B5154B1B7903F07F035A1ED2B2072AFC
:404B800020D8590019448A0010490A44917841F0010191700021D170517841F002015170127912F0800F05D01B01094A1A448D23937004E01B01064A1A4489239370FFF7F5
:404BC00065FA08BD002008BD006000404083FF1FFC5F0040274B1B7903F07F035A1ED2B2072A44D810B5590019448A0022490A44917801F0FE0191700021D1701F4C18012E
:404C0000215C01F07F012154517801F0FD015170127912F0800F13D003EB43018A0016490A445278D2B2012A04D1224602440C23937019E01B01114A1A440D23937013E00E
:404C400003EB43018A000C490A445278D2B2012A05D11B01094A1A440823937004E01B01064A1A4409239370FFF710FA10BD0020704700BF006000404083FF1FFC5F00402F
:404C800010B50E4B1C79E4B20D4B18780138C0B2FFF7B6FD43681B799C4201D9022C0AD8084A135DDBB208490B55044B9B78DBB21355012010BD002010BD00BF00600040D7
:404CC0002C83FF1F1C83FF1F2483FF1F10B5964B1B78DBB20021954A118013F0800F00F0B380914A5278D2B20A2A00F27981DFE812F06F00770177017701770177010B0075
:404D0000770198007701A000874BDB78DBB2012B09D1FFF717FE4268844B5A6012221A80FFF7F6FA10BD804BDB78DBB2022B13D17D4B9878FFF764FD002800F05381426853
:404D40007A4B5A605A68D1785A68927842EA01221A80FFF7DDFA10BD734BDB78DBB2032B05D032E00A7811440133DBB201E000236F496D4A9278D2B2934203D20A7812F0E0
:404D8000FF0FEFD1684B9B78DBB2EE2B00D16949654B9B7813F0FF0F0BD0634B9B78DBB2654A127C934204D1644C2046FFF7A0FC21460B7813F0FF0F00F016810B785B4A00
:404DC00013805160FFF7A4FA10BD01F00DF810BD13F0030317D0022B40F0088153490B80514B1B7903F07F0303EB43039A00544B1A449278D2B2534B1A7000225A704B6091
:404E0000FFF786FA10BD494902230B804E4B1A78D2B24C4B1A7000225A704B60FFF778FA10BD424B01221A80484A5A60FFF770FA10BD3E4A012313803B4B1B7944490B4459
:404E40005360FFF765FA10BD374A5278013A0A2A00F2CE80DFE812F04C00CC009700CC000B00CC00CC00CC001300CC0030002E4B9B78DBB2374A1370FFF708F910BD2A4B4B
:404E80009B7803F0FF041BB1601EC0B2FFF7B8FC04B110B9002C40F0AD802C4B1B78DBB29C4206D0294B1C7001202B4B1870FFF769FDFFF7EBF810BDFFF7E2FE002800F022
:404EC0009B80194A1379DBB21279D2B223490A70234AD25CD2B21E49CB5CDBB29A4204D001221D4B1A70FFF79FFCFFF7CFF810BD03F00303012B35D04BB1022B7ED10A4B15
:404F00009B7813F0FF0F7BD1FFF764FE10BD064B9B78DBB2012B75D10B4A137803F0FD031370FFF7B3F810BD006000403083FF1FB88F0000048F0000E4900000F883FF1F5D
:404F40004083FF1F2882FF1F3D83FF1F2C83FF1F1C83FF1F2083FF1F2683FF1F1583FF1F2483FF1F2D4B1B79DBB2012B4CD82B4B98781B79DBB22A49CA5C22EA0002CA54C8
:404F8000FFF784F810BD03F00303012B17D04BB1022B3BD1214B9B7813F0FF0F38D1FFF7E7FD10BD1D4B9B78DBB2012B32D11D4A137843F002031370FFF768F810BD174BC8
:404FC0001B79DBB2012B27D8144B98781B79DBB21349CA5C22EA0002CA54FFF757F810BD002010BD002010BD002010BD002010BD002010BD002010BD002010BD002010BDAD
:40500000002010BD002010BD002010BD002010BD002010BD002010BD002010BD006000402883FF1F3D83FF1F08B50B4B1B7813F0800F0CD0084B5B78DBB2012B09D1074B8F
:40504000074A5A6012781A80FFF762F908BD002008BD002008BD00BF006000403083FF1FDC8E0000024B1878C0F38010704700BF8F450040084A137843F004031370103201
:40508000137843F00403137002F66532137843F001031370704700BFA3430040014B1880704700BF1C4F0040014B1880704700BF1E4F0040014B1870704700BF1B4F004038
:4050C00008B5194A137843F0020313700232137803F08F0343F010031370144B1A7802F0CF021A701A7842F030021A701A7802F0F0021A701A7842F00F021A707820FFF792
:40510000CDFF0120FFF7D0FF0020FFF7D3FF084A137843F00403137002F67632137843F00103137008BD00BF184F0040234F0040A343004008B5054B1B7823B9FFF7C0FF22
:405140000122024B1A70FFF795FF08BD2A82FF1F054A137843F0080313701032137843F008031370704700BFA243004008B50222054B1A6005490120FEF740FB07210120C5
:40518000FEF750FB08BD00BF80E100E06952000010B50224064B1C6000F0A0F8A0F5004000B2044B1B68044A1460184410BD00BF80E100E02C82FF1F00E100E038B50546E6
:4051C0000224054B1C604FF4004000F081F8034B1D60034B1C6038BD80E100E02C82FF1F00E100E0024B187800F00F00704700BF6964004040F00700014B1870704700BF99
:405200008964004008B50F20FFF7F4FFFFF7EAFF00F0E2FD054A137843F01003137000F0DFFD0222024B1A6008BD00BF9964004000E100E008B500F0A3F84FF4004000F027
:4052400047F80022064B1A60064B1B7823B9FFF78DFF0122034B1A70FFF7D4FF08BD00BF2C82FF1F2B82FF1F0D4B1B78DBB213F0010F06D00B490A6802F5FF427F320A6067
:4052800007E013F0020F04D006490A68A2F500420A6013F0040F02D00022024B1A607047696400402C82FF1F024A137843F080031370704779650040014B1870704700BF8B
:4052C00087650040014B1878704700BF67650040014B1880704700BF0A6A0040024B1B78024B188880B27047056500408A6A0040014B188880B270478A6A0040014B188095
:40530000704700BF4A6A0040014B1880704700BF6A6A004008B501E0FFF7EAFFFFF7D2FF10F0400FF8D108BD08B5134B1A7802F0F8021A701A7802F0FC021A70FFF7EAFF66
:405340004FF40040FFF7DAFF4FF40040FFF7C0FF0020FFF7B1FFFFF7B5FF4FF40040FFF7D3FF00F039FD054A137843F01003137000F036FD08BD00BF79650040976500401E
:4053800008B5054B1B7823B9FFF7CEFF0122024B1A70FFF789FF08BD3082FF1F08B50D490520FEF72BFA07210520FEF73BFA0023094A13707221094A11702021013A11707B
:4053C0000621593A117047211032117002F5A872137008BD7D5400003182FF1F8264004010B500F0F9FC04460B4A137843F020031370013A137843F0100313702022074B56
:405400001A60074A137843F01003137000F082F8204600F0E5FC10BD9264004000E100E09865004008B5054B5B7823B9FFF7B6FF0122024B5A70FFF7D3FF08BD3182FF1FAC
:40544000034B1B7813F0040FFAD1024B18707047686500404865004038B5074B5B782BB938BDFFF7EDFF0134A4B201E005460024285D0028F5D138BD3182FF1F1D4B1B7808
:40548000DBB213F01E0F05D01B4803F01E0201780A43027003F0200303F0FF0233B3174B1978C9B2164B1B78DBB21648C154164B1B7813F0FF0F02D00121144B1970104920
:4054C0000B780133DBB20B700B78DBB23F2B02D900210B4B19700A4B1978C9B20C4B1B78DBB2994202D10121074B1970002AC5D1704700BF616400403182FF1F4564004020
:405500003482FF1FB883FF1F3582FF1F3682FF1F3382FF1F054A137843F0100313701032137843F010031370704700BFA2430040044A137803F0FB03800000F00400184353
:4055400010707047F0510040044A137803F0BF03800100F0400018431070704720510040044A137803F0EF03000100F0100018431070704720510040044A137803F0F70329
:40558000C00000F008001843107070472051004008B50122054B1A6005490020FEF72EF902210020FEF73EF908BD00BF80E100E08D56000010B50124064B1C6000F068FA9C
:4055C000A0F5004000B2044B1B68044A1460184410BD00BF80E100E03C82FF1F00E100E038B505460124054B1C604FF4004000F049FA034B1D60034B1C6038BD80E100E020
:405600003C82FF1F00E100E0024B187800F00F00704700BF6664004040F00700014B1870704700BF8664004008B50F20FFF7F4FFFFF7EAFF00F0D0FB054A137843F0100337
:40564000137000F0CDFB0122024B1A6008BD00BF9664004000E100E008B500F06BFA4FF4004000F00FFA0022064B1A60064B1B7823B9FFF78DFF0122034B1A70FFF7D4FF05
:4056800008BD00BF3C82FF1F3882FF1F0D4B1B78DBB213F0010F06D00B490A6802F5FF427F320A6007E013F0020F04D006490A68A2F500420A6013F0040F02D00022024B0E
:4056C0001A607047666400403C82FF1F084A137843F0020313701032137843F00203137002F65932137843F001031370704700BFA3430040014B1880704700BF104F004016
:40570000014B1880704700BF124F0040014B1870704700BF0F4F004008B5194A137843F0020313700232137803F08F0343F010031370144B1A7802F0CF021A701A7842F011
:4057400030021A701A7802F0F0021A701A7842F00F021A7046F2A810FFF7CCFF0120FFF7CFFF0020FFF7D2FF074A137843F00203137002F66A32137843F00103137008BD5C
:405780000C4F0040174F0040A343004008B5054B1B7823B9FFF7C0FF0122024B1A70FFF795FF08BD4082FF1F08B50422054B1A6005490220FEF722F807210220FEF732F893
:4057C00008BD00BF80E100E0A558000010B50424064B1C6000F0D6F9A0F5004000B2044B1B68044A1460184410BD00BF80E100E04482FF1F00E100E038B505460424054BD5
:405800001C604FF4004000F0B7F9034B1D60034B1C6038BD80E100E04482FF1F00E100E0024B187800F00F00704700BF6E64004040F00700014B1870704700BF8E64004042
:4058400008B50F20FFF7F4FFFFF7EAFF00F0C4FA054A137843F01003137000F0C1FA0422024B1A6008BD00BF9E64004000E100E008B500F0D9F94FF4004000F07DF900227A
:40588000064B1A60064B1B7823B9FFF78DFF0122034B1A70FFF7D4FF08BD00BF4482FF1F4182FF1F0D4B1B78DBB213F0010F06D00B490A6802F5FF427F320A6007E013F06A
:4058C000020F04D006490A68A2F500420A6013F0040F02D00022024B1A6070476E6400404482FF1F084A137843F0010313701032137843F00103137002F64D32137843F0EE
:4059000001031370704700BFA3430040014B1880704700BF044F0040014B1880704700BF064F0040014B1870704700BF034F004008B5194A137843F0020313700232137867
:4059400003F08F0343F010031370144B1A7802F0CF021A701A7842F030021A701A7802F0F0021A701A7842F00F021A707820FFF7CDFF0120FFF7D0FF0020FFF7D3FF084A42
:40598000137843F00103137002F65E32137843F00103137008BD00BF004F00400B4F0040A343004008B5054B1B7823B9FFF7C0FF0122024B1A70FFF795FF08BD4882FF1FA0
:4059C000044A137803F07F03C001C0B218431070704700BF20510040014B1870704700BF75650040044A137803F0FB03800000F0040018431070704750510040044A137836
:405A000003F0F703C00000F0080018431070704750510040044A137803F0EF03000100F0100018431070704750510040044A137803F0DF03400100F020001843107070478B
:405A400050510040044A137803F0BF03800100F0400018431070704750510040024A137843F080031370704776640040014B1870704700BF84650040014B1878704700BFED
:405A800064650040014B1880704700BF0C680040024B1B78024B188880B27047066400408C680040014B188880B270478C680040014B1880704700BF4C680040014B188000
:405AC000704700BF6C68004008B501E0FFF7EAFFFFF7D2FF10F0400FF8D108BD08B5134B1A7802F0F8021A701A7802F0FC021A70FFF7EAFF4FF40040FFF7DAFF4FF4004018
:405B0000FFF7C0FF0020FFF7B1FFFFF7B5FF4FF40040FFF7D3FF00F05FF9054A137843F01003137000F05CF908BD00BF766400409465004008B5054B1B7823B9FFF7CEFFAF
:405B40000122024B1A70FFF789FF08BD4982FF1F024A137843F08003137070477F640040014B1870704700BF8C640040014B1878704700BF6C640040014B1880704700BFDF
:405B800016680040024B1B78024B188880B270470B64004096680040014B188880B2704796680040014B1880704700BF56680040014B1880704700BF7668004008B501E003
:405BC000FFF7EAFFFFF7D2FF10F0400FF8D108BD08B5134B1A7802F0F8021A701A7802F0FC021A70FFF7EAFF4FF40040FFF7DAFF4FF40040FFF7C0FF0020FFF7B1FFFFF7CE
:405C0000B5FF4FF40040FFF7D3FF00F0E5F8054A137843F01003137000F0E2F808BD00BF7F6400409C64004008B5054B1B7823B9FFF7CEFF0122024B1A70FFF789FF08BDC8
:405C40004A82FF1F084A137843F0080313701032137843F00803137002F67132137843F001031370704700BFA3430040084A137803F0FE031370A2F68132137803F0F7037B
:405C800013701032137803F0F7031370704700BF244F0040014B1870704700BF274F0040014B1880704700BF284F0040014B1880704700BF2A4F004008B5164A137803F03C
:405CC000010313700232137803F0FC031370124B1A7802F0CF021A701A7842F030021A701A7802F0F0021A701A7842F00F021A700A4A137843F0010313704EF65F20FFF77C
:405D0000CFFF4EF65F20FFF7D1FF0820FFF7C2FF08BD00BF244F00402F4F0040254F004008B5054B1B7823B9FFF7C6FF0122024B1A70FFF787FF08BD4B82FF1F014B1B6858
:405D40005866704708ED00E04001C0B2014B1870704700BF09E400E04FF40072014B1A60704700BF00E100E04FF40072014B1A60704700BF80E100E010B50446FFF7F4FF33
:405D80002046FFF7DBFF0720FFF7DEFFFFF7E4FF10BD00BF044A137803F0BF03800100F0400018431070704760510040044A137803F0DF03400100F02000184310707047FB
:405DC00060510040000000000230800803D000BF01380046FCD17047EFF3108072B6704780F31088704700BF08B5164B1B7803F00303012B02D0022B04D00FE0114B1B7909
:405E0000DBB20CE00F4B1B7903F07F0303EB43039A000D4B1A44937ADBB200E00023022B0CD80A4A1268D35C022B04D0032B07D1FEF798FB08BDFDF771FF08BD002008BDF5
:405E4000002008BD006000404083FF1F1883FF1F81F0004102E000BF83F0004330B54FEA41044FEA430594EA050F08BF90EA020F1FBF54EA000C55EA020C7FEA645C7FEA2B
:405E8000655C00F0E2804FEA5454D4EB5555B8BF6D420CDD2C4480EA020281EA030382EA000083EA010180EA020281EA0303362D88BF30BD11F0004F4FEA01314FF4801C3C
:405EC0004CEA113102D0404261EB410113F0004F4FEA03334CEA133302D0524263EB430394EA050F00F0A780A4F10104D5F1200E0DDB02FA0EFC22FA05F2801841F100010E
:405F000003FA0EF2801843FA05F359410EE0A5F120050EF1200E012A03FA0EFC28BF4CF0020C43FA05F3C01851EBE37101F0004507D54FF0000EDCF1000C7EEB00006EEB2D
:405F40000101B1F5801F1BD3B1F5001F0CD349085FEA30004FEA3C0C04F101044FEA445212F5800F80F09A80BCF1004F08BF5FEA500C50F1000041EB045141EA050130BDCC
:405F80005FEA4C0C404141EB010111F4801FA4F10104E9D191F0000F04BF01460020B1FA81F308BF2033A3F10B03B3F120020CDA0C3208DD02F1140CC2F10C0201FA0CF06A
:405FC00021FA02F10CE002F11402D8BFC2F1200C01FA02F120FA0CFCDCBF41EA0C019040E41AA2BF01EB0451294330BD6FEA04041F3C1CDA0C340EDC04F11404C4F12002BC
:4060000020FA04F001FA02F340EA030021FA04F345EA030130BDC4F10C04C4F1200220FA02F001FA04F340EA0300294630BD21FA04F0294630BD94F0000F83F4801306BF13
:4060400081F480110134013D4EE77FEA645C18BF7FEA655C29D094EA050F08BF90EA020F05D054EA000C04BF1946104630BD91EA030F1EBF0021002030BD5FEA545C05D180
:406080004000494128BF41F0004130BD14F580043CBF01F5801130BD01F0004545F0FE4141F470014FF0000030BD7FEA645C1ABF194610467FEA655C1CBF0B46024650EAC9
:4060C000013406BF52EA033591EA030F41F4002130BD00BF90F0000F04BF0021704730B54FF4806404F132044FF000054FF0000150E700BF90F0000F04BF0021704730B5B9
:406100004FF4806404F1320410F0004548BF40424FF000013EE700BF42004FEAE2014FEA31014FEA02701FBF12F07F4393F07F4F81F06051704792F0000F14BF93F07F4F26
:40614000704730B54FF4607401F0004521F0004120E700BF50EA010208BF704730B54FF000050AE050EA010208BF704730B511F0004502D5404261EB41014FF4806404F167
:4061800032045FEA915C3FF4DCAE4FF003025FEADC0C18BF03325FEADC0C18BF033202EBDC02C2F1200300FA03FC20FA02F001FA03FE40EA0E0021FA02F11444C1E600BF52
:4061C00070B54FF0FF0C4CF4E06C1CEA11541DBF1CEA135594EA0C0F95EA0C0F00F0DEF82C4481EA030621EA4C5123EA4C5350EA013518BF52EA033541F4801143F4801373
:4062000038D0A0FB02CE4FF00005E1FB02E506F00042E0FB03E54FF00006E1FB03569CF0000F18BF4EF0010EA4F1FF04B6F5007F64F5407404D25FEA4E0E6D4146EB06067B
:4062400042EAC62141EA55514FEAC52040EA5E504FEACE2EB4F1FD0C88BFBCF5E06F1ED8BEF1004F08BF5FEA500E50F1000041EB045170BD06F0004646EA010140EA02002F
:4062800081EA0301B4EB5C04C2BFD4EB0C0541EA045170BD41F480114FF0000E013C00F3AB8014F1360FDEBF002001F0004170BDC4F10004203C35DA0C341BDC04F1140436
:4062C000C4F1200500FA05F320FA04F001FA05F240EA020001F0004221F0004110EBD37021FA04F642EB06015EEA430E08BF20EAD37070BDC4F10C04C4F1200500FA04F330
:4063000020FA05F001FA04F240EA020001F0004110EBD37041F100015EEA430E08BF20EAD37070BDC4F1200500FA05F24EEA020E20FA04F301FA05F243EA020321FA04F05D
:4063400001F0004121FA04F220EA020000EBD3705EEA430E08BF20EAD37070BD94F0000F0FD101F00046400041EB010111F4801F08BF013CF7D041EA060195F0000F18BFA2
:40638000704703F00046520043EB030313F4801F08BF013DF7D043EA0603704794EA0C0F0CEA135518BF95EA0C0F0CD050EA410618BF52EA4306D1D181EA030101F00041A4
:4063C0004FF0000070BD50EA410606BF1046194652EA430619D094EA0C0F02D150EA013613D195EA0C0F05D152EA03361CBF104619460AD181EA030101F0004141F0FE41A6
:4064000041F470014FF0000070BD41F0FE4141F4780170BD70B54FF0FF0C4CF4E06C1CEA11541DBF1CEA135594EA0C0F95EA0C0F00F0A7F8A4EB050481EA030E52EA033505
:406440004FEA013100F088804FEA03334FF0805545EA131343EA12634FEA022245EA111545EA10654FEA00260EF000419D4208BF964244F1FD0404F5407402D25B084FEA7A
:406480003202B61A65EB03055B084FEA32024FF480104FF4002CB6EB020E75EB030E22BFB61A754640EA0C005B084FEA3202B6EB020E75EB030E22BFB61A754640EA5C00C6
:4064C0005B084FEA3202B6EB020E75EB030E22BFB61A754640EA9C005B084FEA3202B6EB020E75EB030E22BFB61A754640EADC0055EA060E18D04FEA051545EA16754FEA93
:4065000006164FEAC30343EA52734FEAC2025FEA1C1CC0D111F4801F0BD141EA00014FF000004FF0004CB6E711F4801F04BF01430020B4F1FD0C88BFBCF5E06F3FF6AFAEDA
:40654000B5EB030C04BFB6EB020C5FEA500C50F1000041EB045170BD0EF0004E4EEA113114EB5C04C2BFD4EB0C0541EA045170BD41F480114FF0000E013C90E645EA060E3A
:406580008DE60CEA135594EA0C0F08BF95EA0C0F3FF43BAF94EA0C0F0AD150EA01347FF434AF95EA0C0F7FF425AF104619462CE795EA0C0F06D152EA03353FF4FDAE1046F8
:4065C000194622E750EA410618BF52EA43067FF4C5AE50EA41047FF40DAF52EA43057FF4EBAE12E74FEA410212F5001215D211D56FF47873B3EB625212D94FEAC12343F0FC
:40660000004343EA505311F0004F23FA02F018BF404270474FF00000704750EA013005D111F0004008BF6FF0004070474FF00000704700BF4A0011D212F5001211D20DD583
:406640006FF47873B3EB62520ED44FEAC12343F0004343EA505323FA02F070474FF00000704750EA013002D14FF0FF3070474FF00000704780F0004002E000BF81F000411D
:4066800042001FBF5FEA410392EA030F7FEA226C7FEA236C6AD04FEA1262D2EB1363C1BFD218414048404140B8BF5B42192B88BF704710F0004F40F4000020F07F4018BF23
:4066C000404211F0004F41F4000121F07F4118BF494292EA030F3FD0A2F1010241FA03FC10EB0C00C3F1200301FA03F100F0004302D5494260EB4000B0F5000F13D3B0F1CA
:40670000807F06D340084FEA310102F10102FE2A51D2B1F1004F40EBC25008BF20F0010040EA03007047490040EB000010F4000FA2F10102EDD1B0FA80FCACF1080CB2EB54
:406740000C0200FA0CF0AABF00EBC25052421843BCBFD0401843704792F0000F81F4000106BF80F400000132013BB5E74FEA41037FEA226C18BF7FEA236C21D092EA030F16
:4067800004D092F0000F08BF0846704790EA010F1CBF0020704712F07F4F04D1400028BF40F00040704712F100723CBF00F50000704700F0004343F0FE4040F400007047CE
:4067C0007FEA226216BF08467FEA23630146420206BF5FEA412390EA010F40F4800070474FF0000304E000BF10F0004348BF40425FEA000C08BF704743F0964301464FF092
:4068000000001CE050EA010208BF70474FF000030AE000BF50EA010208BF704711F0004302D5404261EB41015FEA010C02BF84460146002043F0B64308BFA3F18053A3F596
:406840000003BCFA8CF2083AA3EBC25310DB01FA02FC634400FA02FCC2F12002BCF1004F20FA02F243EB020008BF20F00100704702F1200201FA02FCC2F1200250EA4C0072
:4068800021FA02F243EB020008BF20EADC7070474FF0FF0C1CEAD0521EBF1CEAD15392EA0C0F93EA0C0F6FD01A4480EA010C400218BF5FEA41211ED04FF0006343EA501028
:4068C00043EA5111A0FB01310CF00040B1F5000F3EBF490041EAD3715B0040EA010062F17F02FD2A1DD8B3F1004F40EBC25008BF20F00100704790F0000F0CF0004C08BFC3
:4069000049024CEA502040EA51207F3AC2BFD2F1FF0340EAC250704740F400004FF00003013A5DDC12F1190FDCBF00F000407047C2F10002410021FA02F1C2F1200200FA6F
:4069400002FC5FEA310040F1000053EA4C0308BF20EADC70704792F0000F00F0004C02BF400010F4000F013AF9D040EA0C0093F0000F01F0004C02BF490011F4000F013BCA
:40698000F9D041EA0C018FE70CEAD15392EA0C0F18BF93EA0C0F0AD030F0004C18BF31F0004CD8D180EA010000F00040704790F0000F17BF90F0004F084691F0000F91F028
:4069C000004F14D092EA0C0F01D142020FD193EA0C0F03D14B0218BF084608D180EA010000F0004040F0FE4040F40000704740F0FE4040F4400070474FF0FF0C1CEAD05221
:406A00001EBF1CEAD15392EA0C0F93EA0C0F69D0A2EB030280EA010C49024FEA402037D04FF0805343EA111143EA10130CF000408B4238BF5B0042F17D024FF4000C8B4219
:406A400024BF5B1A40EA0C00B3EB510F24BFA3EB510340EA5C00B3EB910F24BFA3EB910340EA9C00B3EBD10F24BFA3EBD10340EADC001B0118BF5FEA1C1CE0D1FD2A3FF6EC
:406A800050AF8B4240EBC25008BF20F0010070470CF0004C4CEA50207F32C2BFD2F1FF0340EAC250704740F400004FF00003013A37E792F0000F00F0004C02BF400010F4C5
:406AC000000F013AF9D040EA0C0093F0000F01F0004C02BF490011F4000F013BF9D041EA0C0195E70CEAD15392EA0C0F08D142027FF47DAF93EA0C0F7FF470AF084676E765
:406B000093EA0C0F04D14B023FF44CAF08466EE730F0004C18BF31F0004CCAD130F000427FF45CAF31F000437FF43CAF5FE700BF4FEA4002B2F1FE4F0FD34FF09E03B3EB0D
:406B400012620DD94FEA002343F0004310F0004F23FA02F018BF404270474FF00000704712F1610F01D1420205D110F0004008BF6FF0004070474FF000007047014B186807
:406B8000704700BF9481FF1F0E4B70B51E460E4C0025E41AA410A54204D056F8253098470135F8E702F0C2FA084B094C1E46E41AA4100025A54204D056F8253098470135C3
:406BC000F8E770BD3891000038910000389100004091000010B5431E0A44914204D011F8014B03F8014FF8E710BD03460244934202D003F8011BFAE7704700000EB400B59A
:406C00004FF402719CB0ADF814106FF00041049107914FF6FF711DAB02900690084853F8042BADF81610006802A9019300F08CF8029B00221A701CB05DF804EB03B07047A4
:406C40009481FF1F30B582B1451E013915F8013F11F8014FA34206D1EC431444E04201D0002BF3D11C46181B30BD104630BD034610B542B111F8014B013A03F8014B002C98
:406C8000F7D11A4400E010BD934202D003F8014BFAE710BD2DE9F0478E6882469E420C46914698463ED88A8912F4906F3AD02568096902236F1A656905EB450595FBF3F50E
:406CC0007B1C43449D4238BF1D4653050FD5294600F040FB064698B13A462169FFF77AFFA38923F4906343F08003A38113E02A4600F08EFB064670B92169504600F0DEFA10
:406D00000C23CAF80030A3894FF0FF3043F04003A381BDE8F08726613E44266046466561ED1BA560464528BF464649463246206800F0A8FAA36800209B1BA36023681E4404
:406D40002660BDE8F08700002DE9F04F9DB003938B8980461C060D4616460DD50B695BB9402100F0F7FA2860286118B90C23C8F80030CDE040236B610023099320238DF87E
:406D80002930DFF89CB130238DF82A3037463C4614F8013B1BB9B7EB060910D003E0252BF9D02746F3E74B46324629464046FFF771FF013000F0A780099B4B4409933B7807
:406DC000002B00F0A08000234FF0FF3204930793059206938DF853301A930126052221784E4800F041FA671C049B38B14B4A3C46801A06FA00F018430490EFE7D90644BFB4
:406E000020228DF853201A0744BF2B228DF8532022782A2A03D0079A00210A200BE0039A111D12680391002A10DA524243F00200079204900BE027463B780134303B092B55
:406E400003D800FB02320121F5E701B107923B782E2B1ED17B782A2B0AD1039B02371A1D1B680392002BB8BF4FF0FF33059310E0002319460593781C0A2407463A780130D4
:406E8000303A092A03D804FB01210123F5E703B1059103223978224800F0E6F940B14023CBEB000003FA00F0049B013718430490397806221B487E1C8DF8281000F0D4F9D3
:406EC00088B1194B33B9039B073323F007030833039314E003AB00932A46144B04A94046AFF3008007E003AB00932A460F4B04A9404600F093F8B0F1FF3F824603D0099B2C
:406F00005344099342E7AB895B0601D4099801E04FF0FF301DB0BDE8F08F00BFF8900000FE9000000291000000000000956C00002DE9F04791461F460A698B680646934231
:406F4000B8BF1346C9F8003091F843200C46DDF8208012B10133C9F800302368990642BFD9F800300233C9F80030256815F0060510D104F1190A07E0012352463946304635
:406F8000C04701301AD00135E368D9F800209B1A9D42F1DB94F843302268003318BF012392060FD5E118302081F843005A1C94F845102244023382F8431003E04FF0FF3095
:406FC000BDE8F08704F1430239463046C0470130F4D02268D9F80050E36802F00602042A08BF5D1B2269A3680CBF25EAE57500259342C4BF9B1AED184FF000091A344D45C4
:4070000009D00123224639463046C0470130D5D009F10109F3E70020BDE8F0872DE9F04317460A7E85B06E2A984606460C460C9B01F1430E00F0AE8011D8632A22D009D837
:40704000002A00F0BB80582A40F0CA8081F84520834955E0642A1ED0692A1CD0C0E0732A00F0B08009D86F2A2ED0702A40F0B8800A6842F020020A603EE0752A24D0782A8B
:407080003AD0ADE01A6801F14205111D1960136884F84230A8E021681A6811F0800F02D0111D196008E011F0400F02F10401196002D0B2F9003000E01368002B3CDA2D2291
:4070C0005B4284F8432037E021681A6811F0800F02D0111D196007E011F0400F02F10401196001D0138800E01368227E5C496F2A14BF0A2208221BE078225A4984F845205A
:407100002268186812F0800F00F104051D6003D1550601D5038800E00368D00744BF42F0200222601BB9226822F0200222601022002084F8430001E049490A226568002DF4
:40714000A56008DB206820F0040020602BB9002D7DD175460CE0002B79D07546B3FBF2F002FB1033CB5C05F8013D03460028F5D1082A0BD12368DA0708D5236962689A42E4
:40718000DEBF302305F8013C05F1FF35C5EB0E0323612EE008681A6810F0800F496903D0101D1860136808E010F0400F02F104001860136801D0198000E019600023236177
:4071C000754616E01A68111D1960156800216268284600F049F808B1401B6060636804E004F1420584F8422001232361002384F84330CDF800803B4603AA21463046FFF711
:4072000097FE013002D14FF0FF3026E023692A4639463046C0470130F5D023689B0710D5002504F1190907E001234A4639463046C0470130E7D00135E368039A9B1A9D42D4
