:400000000080002011000000694900006949000008B5044B1A6803F53F5302331A6004F0C3FC00BFFA46004010B5054C237833B9044B13B10448AFF300800123237010BD50
:40004000A081FF1F00000000849F0000084B10B51BB108490848AFF300800848036803B910BD074B002BFBD0BDE81040184700BF00000000A481FF1F849F0000C880FF1F0C
:400080000000000000B583B062B607F0A1F9FF2007F022F8FF2006F0E3FD00F0FDF8002006F08EFB002006F0C3FF002006F0CCFD06F044FD374800F067F900F025FB00F049
:4000C0002BF904F04FFE002000F030FD642004F017FF012000F02AFD642004F011FF022000F024FD642004F00BFF032000F01EFD642004F005FF042000F018FD642004F010
:40010000FFFE642004F0E6FE642004F0E3FE642004F0E0FE002007F015F8642004F0DAFEFF2007F00FF8042141F6380001F096FA002006F0CFFB002006F0EAFE002006F01D
:40014000CBFF002006F08CFD0A2004F0C3FE0A2300930E23C4221E21012003F0B1FF00F0C7FB05F027FA88B10B4805F02FFA0B4B188001280AD90A4800F006F9FF2006F09B
:400180006FFD02F071FC002006F06AFD642004F0B7FEE4E7889F00006482FF1FA482FF1FA89F0000074A138801339BB2138042F6F822934204D1034B01229A7000221A8016
:4001C000704700BFBC81FF1F064A138801339BB21380312B04D913460122DA7000221A80704700BFBC81FF1F08B506F05DFB4042064B58605A689B689A4206DD034901221A
:40020000CA70034A127813448B6008BDBC81FF1FD080FF1F08B506F047FB4042064B58605A689B689A4206DA034A0121D170034909785B1A936008BDBC81FF1FD080FF1F69
:4002400008B506F04FFE4042064BD860DA689B689A4206DD03490122CA70034A127813448B6008BDBC81FF1FD080FF1F08B506F039FE4042064BD860DA689B689A4206DA29
:40028000034A0121D170034909785B1A936008BDBC81FF1FD080FF1F08B506F0D7FA114B988806F08DFA06F009FF022006F0C0FE06F0F8FD40F6C41006F0AEFDC82004F008
:4002C00009FE002006F0A8FDC82004F003FE40F6C41006F0A1FDC82004F0FCFD002006F09BFD08BDD080FF1F10B50024034B1C6106F002FD204606F0FBFE10BDBC81FF1FE5
:4003000010B50124034B1C6106F0F6FC204606F0EFFE10BDBC81FF1F10B5094B00245C60DC605C619C6106F023FD06F02DFE06F00DFB2046FFF7E4FF2046FFF7D5FF10BD4F
:40034000BC81FF1F10B50F4B1B6933B906F0BEFC40420C4B9861DA695A610A4B1B69012B06D1084C236AA36106F0B0FC4042606106F09AFA4042034C606006F0B3FD40422A
:40038000E06010BDBC81FF1F0C4B93F824309BB110B504460A220146094809F0CBF950B1204606F0E5FB012004F0AAFD0A222146034809F0D4F910BD704700BFBC81FF1F88
:4003C000D880FF1F08B540F6C41006F025FDC82004F080FD002006F01FFDC82004F07AFD40F6C41006F018FDC82004F073FD002006F012FD0248FFF7C7FF002008BD00BF9A
:40040000CC9F00000000000038B50446FFF79AFF54B9744B1A68744B1A70120A5A7000229A70FA22DA70E6E06E4B1B686E4A13701B0A5370013C202C00F2DD80DFE804F0C4
:4004400011171D23292F353B41474D53595F656B71777D83898F959BA1A7ADB3B9BFC5CBD600614B01229A70FA22DA70C3E05E4B02229A70FA22DA70BDE05B4B17229A7041
:40048000FA22DA70B7E0584B07229A70FA22DA70B1E0554B11229A70FA22DA70ABE0524B1D229A70FA22DA70A5E04F4B25229A70FA22DA709FE04C4B03229A70FA22DA70D7
:4004C00099E0494B04229A70FA22DA7093E0464B18229A70FA22DA708DE0434B08229A70FA22DA7087E0404B12229A70FA22DA7081E03D4B1E229A70FA22DA707BE03A4B07
:4005000026229A70FA22DA7075E0374B05229A70FA22DA706FE0344B06229A70FA22DA7069E0314B19229A70FA22DA7063E02E4B09229A70FA22DA705DE02B4B13229A7076
:40054000FA22DA7057E0284B1F229A70FA22DA7051E0254B27229A70FA22DA704BE0224B2B229A70FA22DA7045E01F4B2C229A70FA22DA703FE01C4B2D229A70FA22DA7079
:4005800039E0194B2E229A70FA22DA7033E0164B2A229A70FA22DA702DE0134B2F229A70FA22DA7027E0104B28229A70FA22DA7021E00D4B22229A70FA22DA701BE00A4B29
:4005C00023229A70FA22DA7015E0074B24229A70FA22DA700FE0044B29229A70FA22DA7009E000BFE482FF1FA882FF1F424B30229A70FA22DA70414D6B689B006B60EB6873
:400600009B00EB606B699B006B61A86908F0FCF937A3D3E9002308F05DFA08F00BFDA8616B68354C23716B681B1263716B681B14A3716B681B16E371EB682372EB681B12F8
:400640006372EB681B14A372EB681B16E3726B6923736B691B1263736B691B14A3736B691B16E373AB692374AB691B126374AB691B14A374AB691B16E374214A5368237509
:400680001B1263750023A375E37523766376A376E37691692177090A6177D169A177090AE177126A84F82020120A84F8212084F8223084F8233084F8243084F8253084F8B9
:4006C00026304C2284F8272084F8283084F8293084F82A3084F82B3084F82C3084F82D300848FFF751FE2E21204604F03BFF38BD9A99999999990940A882FF1FBC81FF1F7C
:40070000D080FF1FF09F000008B50121002004F06DFD05E00848FFF737FE012004F0F0FB04F0A8FD0028F5D004F0D0FE0348FFF72BFE04F05BFE08BD14A0000038A00000AF
:400740000A4B93F824307BB100B587B00246084901A808F0CBFF01A806F00AFA012004F0CFFB07B05DF804FB704700BFBC81FF1F4CA000000000000010B5154BD8789B7857
:4007800003EB0020134CA06208F03EF90EA3D3E9002308F09FF900220F4B08F0C5FA08F071FC80B206F044FC0C48FFF7EDFDA06AFFF7C6FF0A48FFF7E7FD0A48FFF7E4FD2D
:4007C000002010BDAFF30080333333333333E33F6482FF1FBC81FF1F0000244054A00000ACA1000074A0000010B5154BD8789B7803EB0020134C606008F006F90EA3D3E965
:40080000002308F067F900220F4B08F08DFA08F039FC80B205F0D4FF0C48FFF7B5FD6068FFF78EFF0A48FFF7AFFD0A48FFF7ACFD002010BDAFF30080333333333333E33F8C
:400840006482FF1FD080FF1F000024409CA00000ACA10000B4A0000008B50548FFF794FD0448FFF791FD0448FFF78EFD08BD00BFACA10000D4A0000030A1000010B5184B59
:4008800093F82C4054B91B6B43B90C22144B1A631448FFF779FDFFF7DFFF1EE0104B93F8344054B91B6B43B906220D4B1A630E48FFF76AFDFFF7D0FF0FE0094B93F835406D
:4008C0005CB91B6B43B91222054B1A630748FFF75BFDFFF7C1FF00E00124204610BD00BFBC81FF1F08A1000034A100005CA1000008B504F0C5FCB0B1FFF764FD04F0BAFC6C
:4009000088B1094B93F836304BB10848FFF73CFDFFF7A2FF012004F0DDFA04F0D3FA0122014B83F8362008BDBC81FF1F84A1000008B504F015F90A2004F0E2FA012008BD56
:4009400010B54B1EDBB2FD2B3DD90C46042836D8DFE800F0030D17212B000A2004F0D0FA204604F07BF80A2004F0CAFA10BD0A2004F0C6FA204604F07DF80A2004F0C0FADF
:4009800010BD0A2004F0BCFA204604F07FF80A2004F0B6FA10BD0A2004F0B2FA204606F077F90A2004F0ACFA10BD0A2004F0A8FA204606F061F90A2004F0A2FA10BD0448BA
:4009C000FFF7E2FC10BD0348FFF7DEFC10BD00BFB0A10000F0A10000F8B506460D46174600212846FFF7ACFF06F07F063046FFF79FFF0020FFF79CFF0020FFF799FF0020F0
:400A0000FFF796FF0020FFF793FFFF212846FFF797FF012004F05EFA00212846FFF790FF3046FFF785FF04F005F938700020FFF77FFF04F0FFF804060020FFF779FF04F053
:400A4000F9F844EA00440020FFF772FF04F0F2F844EA00240020FFF76BFF04F0EBF80443FF212846FFF76CFF012004F033FA00212846FFF765FF3046FFF75AFF04F0DAF819
:400A800038700020FFF754FF04F0D4F844EA00640020FFF74DFF04F0CDF844EA00440020FFF746FF04F0C6F844EA00240020FFF73FFF04F0BFF80443FF212846FFF740FFDE
:400AC0002046F8BD70B506460C46154600211046FFF736FF46F08000FFF72AFF200EFFF727FFC4F30740FFF723FFC4F30720FFF71FFFE0B2FFF71CFFFF212846FFF720FFAE
:400B000070BD00BF38B505460C460A4600212020FFF7D8FF224629460520FFF7D3FF224629462D20FFF7CEFF38BD00BF10B50446024605210120FFF7C5FF22460821002059
:400B4000FFF7C0FF224600210320FFF7BBFF224600210520FFF7B6FF224600210620FFF7B1FF22460F210820FFF7ACFF224682490920FFF7A7FF224680490A20FFF7A2FF6B
:400B8000022C0AD1224600210B20FFF79BFF22467B491020FFF796FF2FE054B922465A210B20FFF78FFF224676491020FFF78AFF23E0012C0AD122467F210B20FFF782FFC8
:400BC000224670491020FFF77DFF16E0042C0AD12246D2210B20FFF775FF22466A491020FFF770FF09E0224600210B20FFF76AFF224666491020FFF765FF22460A21112030
:400C0000FFF760FF224600211320FFF75BFF224600211420FFF756FF224600211520FFF751FF224600212120FFF74CFF224600212320FFF747FF224600212C20FFF742FF28
:400C4000224600213320FFF73DFF224640F2AF213420FFF737FF224600213820FFF732FF224600213920FFF72DFF22464FF480313A20FFF727FF224600213D20FFF722FFA1
:400C8000224643496020FFF71DFF224641496120FFF718FF224640496220FFF713FF224608216320FFF70EFF22466FF080616420FFF708FF224639496520FFF703FF2246A4
:400CC00037496620FFF7FEFE224636496720FFF7F9FE224634496820FFF7F4FE22464FF477016920FFF7EEFE224630496C20FFF7E9FE224600216D20FFF7E4FE22460021FD
:400D00006E20FFF7DFFE224629497020FFF7DAFE224600212120FFF7D5FE22464FF6FF712420FFF7CFFE22464FF6FF712520FFF7C9FE22464FF6FF712620FFF7C3FE2246C2
:400D400000212720FFF7BEFE22464FF6FF712820FFF7B8FE22464FF6FF712A20FFF7B2FE224665212B20FFF7ADFE224600212020FFF7A8FE10BD00BF060601000004080057
:400D80000103070001010700000107000105070054B5AAAAAA54954A292949247D77BBB556552949224240005680FFFF530141001E000CC430B583B0044602AD002305F864
:400DC000013D4FF4FA7004F09BF82A4621460420FFF702FE642004F093F82A4621460420FFF7FAFD09E00DF1070221462120FFF7F3FD4FF4FA7004F083F89DF8073013F03C
:400E0000200FF0D0002003B030BD00BF000000002DE9F041074608F05FFA574B596A08F063FB08F0FDFB0646FFF78CFA5348FFF7ABFA534B5868FFF783FC5248FFF7A4FAB5
:400E400000243FE05048FFF79FFA2046FFF778FC4C48FFF799FAFFF775FA494B5D68751BB5F5FA6F03DB02201863BDE8F081284608F032FA404B596A08F082FA08F0D0FB12
:400E8000804685EAE573A3EBE573042B18DD3F48FFF77AFA2846FFF753FC3A48FFF774FA002107EB0800FFF72DFE0020FFF782FF322004F025F8002239462120FFF702FE03
:400EC0000134E4B2052CBDD9FFF73CFA2C4B5B68F61A052C46D986EAE673A3EBE673072B1BDD06F2CF7140F69E72914215D82848FFF74AFA3046FFF723FC2648FFF744FAAB
:400F00001F4C6068FFF71CFC1E48FFF73DFAFF2006F0E2F80123236324E0B3F5FA6F06DD1D48FFF731FA0222154B1A631AE01B48FFF72AFA124D00242C63FFF703FA686879
:400F400007F062FD0AA3D3E9002307F0C3FD08F071F8224601462120FFF7B4FD4FF4FA7003F0CEFF064B186BBDE8F081AFF300809A99999999992940D080FF1F48A200000F
:400F8000BC81FF1F30A1000068A2000078A2000094A20000C4A20000D8A2000008A3000070B50446FFF76AFC28B3012215491020FFF788FD022214491020FFF783FD002205
:400FC00012491020FFF77EFD114E00253563FFF7B9F929462046FFF795FD2846FFF7EAFE322003F08DFF0B48FFF7CEF92046FFF70FFF306B70BD0848FFF7C6F92020044BE1
:40100000186370BD030107000201070005030700BC81FF1F30A000001CA30000000000002DE9F041074607F0EFFC51A3D3E9002307F07AFE07F0FEFF0646FFF783F94E48FA
:40104000FFF7A2F94D4BD868FFF77AFB4C48FFF79BF9002443E04B48FFF796F92046FFF76FFB4948FFF790F9FFF76CF9434BDD68751B284607F0C8FC3DA3D3E9002307F0AC
:4010800029FD07F0D7FF8046B5F57A6F03DB09223A4B1A6325E085EAE573A3EBE573032B1BDD3A48FFF770F92846FFF749FB3648FFF76AF9012107EB0800FFF723FD01204E
:4010C000FFF778FE322003F01BFF012239462120FFF7F8FCC82003F013FF0134E4B2052CB9D9FFF72FF9254BDB68F61A032C39D986EAE673A3EBE673052B1BDD06F2CF71AB
:4011000040F69E72914215D82148FFF73DF93046FFF716FB1F48FFF737F9184CE068FFF70FFB1948FFF730F9FF2005F0D5FF0823236317E0B3F5FA6F06DD1748FFF724F9E8
:4011400009220E4B1A630DE01448FFF71DF900220A4B1A63012239462120FFF7B3FCC82003F0CEFE054B186BBDE8F081AFF300809A999999999929402CA30000BC81FF1FC1
:401180004CA3000050A3000030A1000060A300007CA30000C4A20000ACA30000DCA3000038B50446FFF76AFB10B3002214491020FFF788FC022213491020FFF783FC012260
:4011C00011491020FFF77EFC104D00232B63FFF7B9F801212046FFF795FC0120FFF7EAFD322003F08DFE2046FFF71AFF286B38BD0748FFF7C9F82020044B186338BD00BFA2
:40120000030107000201070005030700BC81FF1F1CA30000000000002DE9F041074607F0F3FB4FA3D3E9002307F07EFD07F002FF0646FFF787F84C48FFF7A6F84B4B58697C
:40124000FFF77EFA4A48FFF79FF8002540E04948FFF79AF82846FFF773FA4548FFF794F8FFF770F8414B5C69341B204607F0CCFB3BA3D3E9002307F02DFC07F0DBFE80460E
:40128000B4F57A6F03DB1022384B1A6322E084EAE473A3EBE473012B18DD3748FFF774F82046FFF74DFA3248FFF76EF8022107EB0800FFF727FC0220FFF77CFD322003F059
:4012C0001FFE022239462120FFF7FCFB0135EDB2052DBCD9FFF736F8244B5B69F61A032D39D986EAE673A3EBE673072B1BDD06F69F7141F63E72914215D82048FFF744F894
:401300003046FFF71DFA1E48FFF73EF8174C6069FFF716FA1648FFF737F8FF2005F0A0FC0F23236317E0B3F57A6F06DD1548FFF72BF810220D4B1A630DE01348FFF724F839
:4013400000220A4B1A63022239462120FFF7BAFBC82003F0D5FD054B186BBDE8F08100BF9A99999999992940F0A30000BC81FF1F30A1000010A4000060A3000020A400005B
:40138000C4A2000050A4000080A4000038B505461B4C012221461020FFF794FB002221461020FFF78FFB022216491020FFF78AFB154BD8694042FEF7A3FFFFF75FFAB8B1F8
:4013C000114C00232363FEF7BDFF02212846FFF799FB0220FFF7EEFC322003F091FD2846FFF71AFFFEF7AEFF6369E361206B38BD0648FEF7C9FF2020034B186338BD00BFCF
:401400000301070002020700BC81FF1F1CA30000F8B5074607F0F8FA33A3D3E9002307F083FC07F007FE064600252BE0FEF78AFF2F4B9C69341B204607F0E6FA2AA3D3E9E4
:40144000002307F047FB07F0F5FDB4F57A6F03DB1722274B1A6317E0002CB8BF6442042C0EDD03213844FFF74DFB0320FFF7A2FC322003F045FD032239462120FFF722FB20
:401480000135EDB2032DD1D9FEF75CFF184B9869301A032D22D980EAE073A3EBE073092B0CDD00F69F7041F63E72904206D81148FEF76AFF16220E4B1A630FE0B3F57A6FB8
:4014C00006DD0D48FEF760FF1722094B1A6305E00A48FEF759FF0022054B1A63044B186BF8BD00BFAFF300809A99999999990940BC81FF1F94A40000B0A40000E0A4000030
:4015000038B50446002005F01DFE4FF47A7003F0F7FC1B4B186A4042FEF7E6FEFFF7AEF918B3174D00232B63FEF70CFF1548FEF72BFF03212046FFF7E5FA0320FFF73AFC47
:40154000322003F0DDFC2046FFF7FAF80E48FEF71BFF2046FFF75CFFFEF7F4FEAB692B62642003F0CDFC286B38BD0848FEF70CFF034C20232363642003F0C2FC206B38BD76
:40158000BC81FF1FF4A4000030A000001CA30000F8B506460D461446FEF7D4FE2B4F012239461020FFF78EFA002239461020FFF789FA022226491020FFF784FAC82003F016
:4015C0009FFC2448FEF7E0FE002E03DB00213046FFF798FA002D03DB01212846FFF792FA002C08DB1C4BD8694042FEF789FE02212046FFF787FA002E02DB0020FFF7DAFB1E
:40160000002D02DB0120FFF7D5FB002C02DB0220FFF7D0FB002E02DB3046FFF7F9FB002D02DB2846FFF7FCFC002C07DB2046FFF7F3FDFEF787FE084B5A69DA61FEF782FE62
:40164000322003F05DFC0020F8BD00BF020307000202070010A50000BC81FF1F08B50A4601462720FFF72EFA002008BD2DE9F041044600226B491020FFF724FA21464FF41E
:401680009620FFF7EBFF224602212020FFF71AFAC82003F035FC644D2A4621460420FFF79BF94FF4FA7003F02BFC2A4621460420FFF792F95D48FEF767FE2DE005F0BCFE7F
:4016C0005B4805F0E5FE584A21460420FFF784F9642003F015FC574B9B78EBB1554D04202863FEF791FE05F04DFE224600212020FFF7E8F9224600212120FFF7E3F922463D
:4017000000212D20FFF7DEF90023AB702B634A48FEF73AFEBDE8F081434B1B7813F0400FCCD005F02FFE434D0026AE704348FEF72BFE224631462120FFF7C4F90A2003F02F
:40174000DFFB224631462120FFF7BCF9304605F0C1F8012785F8347085F82C7085F8357085F83770642003F0CBFB4FF44840FFF717FC3348FEF708FE286BFEF7E1FF314890
:40178000FEF702FE95F8383085F8343095F8393085F82C3095F83A3085F8353095F83B3085F83730642003F0ABFB224631462120FFF788F9224631462D20FFF783F9214621
:4017C0002148FFF74BFF224696210B20FFF77AF9DFF88080224641461020FFF773F92E63304605F077F885F8347085F838701748FEF7CAFD164C3A4621461020FFF762F99F
:40180000022241461020FFF75DF9324621461020FFF758F9032221461020FFF753F9BDE8F08100BF03050700CF80FF1F2CA50000A5010000BC81FF1F4CA5000084A50000F0
:40184000A0A5000030A10000FAD00500C8A5000003010700010107002DE9F041044601226B491020FFF72EF921464FF49620FFF7F5FE224602212020FFF724F9322003F0E1
:401880003FFB644D2A4621460420FFF7A5F84FF4FA7003F035FB2A4621460420FFF79CF85D48FEF771FD2DE005F0C6FD5B4805F0EFFD584A21460420FFF78EF8584B9B78AA
:4018C000EBB1574D0B202863FEF79EFD05F05AFD224600212020FFF7F5F8224600212120FFF7F0F8224600212D20FFF7EBF80023AB702B634B48FEF747FDBDE8F0816420E1
:4019000003F0FEFA434B1B7813F0400FCCD005F039FD434D0026AE704348FEF735FD224631462120FFF7CEF80A2003F0E9FA224631462120FFF7C6F8304605F0E9FA0127D6
:4019400085F8347085F82C7085F8357085F83770642003F0D5FA4FF49640FFF721FC3348FEF712FD286BFEF7EBFE3148FEF70CFD95F8383085F8343095F8393085F82C3069
:4019800095F83A3085F8353095F83B3085F83730642003F0B5FA224631462120FFF792F8224631462D20FFF78DF821462148FFF755FE224631460B20FFF784F8DFF8808099
:4019C000224641461020FFF77DF82E63304605F09FFA6E6085F82C7085F839701648FEF7D3FC164C3A4621461020FFF76BF8022241461020FFF766F8324621461020FFF793
:401A000061F8032221461020FFF75CF8BDE8F08103020700CE80FF1FDCA50000A5010000BC81FF1FFCA5000034A6000050A6000030A10000FAD0050078A6000003010700FD
:401A400001010700F8B50446022269491020FFF739F821466748FFF701FE674BD8694042FEF74EFC224602212020FFF72BF8322003F046FA614D2A4621460420FEF7ACFFC8
:401A80004FF4FA7003F03CFA2A4621460420FEF7A3FF5B48FEF778FC2BE005F0CDFC594805F0F6FC554A21460420FEF795FF524B9B78DBB1504D12202863FEF7A5FC05F08D
:401AC00061FC224600212020FEF7FCFF224600212120FEF7F7FF224600212D20FEF7F2FF0023AB704848FEF74FFCF8BD642003F007FA424B1B7813F0400FCED005F042FCE1
:401B00003D4D0026AE704148FEF73EFC224631462120FEF7D7FF3046FEF7F2FBEE610A2003F0EEF9224631462120FEF7CBFF3046FEF7E6FBEE61012785F8347085F82C70AD
:401B400085F8357085F83770642003F0D9F94FF44840FFF71BFC2E48FEF716FC286BFEF7EFFD2C48FEF710FC2E6395F8383085F8343095F8393085F82C3095F83A3085F8EE
:401B8000353095F83B3085F83730642003F0B8F9224631462120FEF795FF224631462D20FEF790FF21461348FFF758FD3046FEF7A7FBEE6185F8357085F83A701648FEF75E
:401BC000E3FB164C3A4621461020FEF77BFF022213491020FEF776FF324621461020FEF771FF032221461020FEF76CFFF8BD00BF030207006EA30100BC81FF1FCD80FF1F1D
:401C00008CA60000A5010000ACA60000E4A6000000A7000030A1000028A700000301070001010700F8B50446002005F08BFA4FF47A7003F065F921464FF44850FFF70EFD43
:401C4000514B186A4042FEF74FFB224602212020FEF738FF322003F053F94C4D2A4621460420FEF7B9FE4FF4FA7003F049F92A4621460420FEF7B0FE29E005F0DDFB4448DB
:401C800005F006FC414A21460420FEF7A5FE3E4B9B78CBB13C4D16202863FEF7B5FB05F071FB224600212020FEF70CFF224600212120FEF707FF224600212D20FEF702FFBD
:401CC0000023AB702B63F8BD642003F019F92F4B1B7813F0400FD0D005F054FB2A4D0026AE70224631462120FEF7ECFE0A2003F007F9224631462120FEF7E4FE3046FEF75E
:401D0000F3FA2E62012785F8347085F82C7085F8357085F83770642003F0F2F840F6D860FFF7EEFB95F8383085F8343095F8393085F82C3095F83A3085F8353095F83B305A
:401D400085F83730642003F0DBF8224631462120FEF7B8FE224631462D20FEF7B3FE21464FF44850FFF77AFC3046FEF7BDFA2E6285F8377085F83B700648FEF705FB642025
:401D800003F0BEF8F8BD00BFBC81FF1FCD80FF1FA50100003CA7000038B505460C46042200212020FEF78EFE042200212120FEF789FE04214DF2B710FFF750FC002005F09F
:401DC000CDF90F2003F086F8012C03D8012003F081F800E00024012C00F29D80002C4DD104212846FEF78EFE564C224604210846FEF7F2FD4FF4FA7003F082F82246042142
:401E00000846FEF7E9FD2EE005F016FB4E4805F03FFB4C4A04210846FEF7DEFD4B4B9B78F3B14FF61D20FEF7EFFA05F0ABFA042200212020FEF746FE042200212120FEF743
:401E400041FE042200212D20FEF73CFE3F4C0023A37021232363FF2005F080F9206B38BD642003F04DF8374B1B7813F0200FCBD005F088FA0022354B9A704CE0042168420C
:401E8000FEF740FE2F4C224604210846FEF7A4FD4FF4FA7003F034F8224604210846FEF79BFD2EE005F0C8FA274805F0F1FA254A04210846FEF790FD244B9B78F3B14FF6EC
:401EC0001D20FEF7A1FA05F05DFA042200212020FEF7F8FD042200212120FEF7F3FD042200212D20FEF7EEFD184C0023A37021232363FF2005F032F9206B38BD642002F0DE
:401F0000FFFF104B1B7813F0200FCBD005F03AFA00220E4B9A7004210020FFF79FFB042200212120FEF7CEFD042200212020FEF7C9FD052002F0CEFFFF2005F00FF90020BB
:401F400038BD00BFCF80FF1FA5010000BC81FF1F70B506460D461446042200212020FEF7B1FD042200212120FEF7ACFD04212846FFF774FB002005F0F1F80A2002F0AAFF16
:401F8000012C0FD83CB904213046FEF7BBFD0420FEF710FF06E004217042FEF7B3FD0420FEF708FF04210020FFF758FB042200212120FEF787FD042201212020FEF782FD9B
:401FC000052002F087FFFF2005F0C8F8002070BDF8B506460C4617461D464FF0FF31FFF7D7FA00210698FFF739FB02210798FFF735FB304606F008FD21A3D3E9002306F007
:4020000093FE0022204B06F0B3FB07F013F81F4B986005F011FA1E4805F03AFA00212046FEF770FD02212846FEF76CFD2E461DE0164BDB785BB10024144BDC70FF2005F0FF
:4020400065FA462002F05CFF204605F05FFA05F04DFA58B9AE4202D0BE4203D101E03E4600E02E4602213046FEF74CFD05F046FA0028DDD105F086F90022044BDA70F8BD38
:402080009A9999999999294000005240BC81FF1FE9010000000000002DE9F04F83B005460E46144699460D9FFF2005F015F8904BD8694042FEF724F904EBD474641004EBD2
:4020C00007083A1B4FF0FF312846FFF761FA00214846FFF7C3FA02210C98FFF7BFFAB54218DD284606F090FC7FA3D3E9002306F01BFE82468B467F4B187806F085FC0246D8
:402100000B465046594606F031FB06F093FF784B986015E0284606F077FC73A3D3E9002306F002FE82468B46724B187806F06CFC52465B4606F01CFB06F07CFF6C4B986053
:4021400005F07AF9B54203DD6B4805F0A1F902E06A4805F09DF900213046FEF7D3FC02214046FEF7CFFC4FF00109A3E0604BDB7883B10A2002F0C4FE4FF0000A5C4B83F8B4
:4021800003A0FF2005F0C2F93C2002F0B9FE504605F0BCF905F0AAF9002840F08B800E9807F09AF88246384607F096F80146504606F0DCFF8246304607F08EF883462846D3
:4021C00007F08AF80146584606F0D0FF0146504607F08AF9834604F067FB4042DFF810A1CAF80400434B187800EB4000DAF80430184406F009FC3CA3D3E9002306F06AFCB6
:40220000CDE90001284606F0FFFB02460B46DDE9000106F0ABFACDE90001584606F006FCDDE9002306F056FCCDE90001384606F0EBFBDDE9002306F09BFA06F043FF83468A
:4022400004F044FD404206F0DFFB27A3D3E9002306F040FCCDE90001404606F0D5FBDDE9002306F083FA06F0E5FECAF81400484606F0CAFB02460B460020214905F098F9FC
:40228000CDE90001204606F0BFFBDDE9002306F021FCCDE90001584606F0C8FBDDE9002306F066FA06F0C6FE80460221FEF72AFC09F1010905F022F900287FF457AF05F0A0
:4022C00061F80B4C0025E570FF2004F005FF04F0FDFC404260616369E361284604F0FCFE03B0BDE8F08F00BF9A99999999992940BC81FF1FD080FF1F15020000E9010000A1
:402300000000F0BF000000002DE9F04F83B005460F4614469946DDF83480FF2004F0DCFE914BD8694042FDF7EBFF04EBD474641004EB0806C4EB080229464FF0FF30FFF766
:4023400027F901214846FFF789F902210C98FFF785F9BD4218DD284606F056FB80A3D3E9002306F0E1FC82468B46804B187806F04BFB02460B465046594606F0F7F906F082
:4023800059FE794B986015E0284606F03DFB74A3D3E9002306F0C8FC82468B46734B187806F032FB52465B4606F0E2F906F042FE6D4B986005F040F8BD4203DD6C4805F01A
:4023C00067F802E06B4805F063F801213846FEF799FB02213046FEF795FB4FF0010AA5E0614BDB7883B10A2002F08AFD4FF000095D4B83F80390FF2005F088F83C2002F0CD
:402400007FFD484605F082F805F070F8002840F08D800E9806F060FF8146404606F05CFF0146484606F0A2FE8146384606F054FF8346284606F050FF0146584606F096FEE4
:402440000146484607F050F8834604F04BFD4042DFF81491C9F80C00444B1878D9F80C3003EB400006F0D0FA3DA3D3E9002306F031FBCDE90001284606F0C6FA02460B4609
:40248000DDE9000106F072F9CDE90001584606F0CDFADDE9002306F01DFBCDE90001404606F0B2FADDE9002306F062F906F00AFE834604F00BFC404206F0A6FA28A3D3E971
:4024C000002306F007FBCDE90001304606F09CFADDE9002306F04AF906F0ACFDC9F81400504606F091FA02460B460020224905F05FF8CDE90001204606F086FADDE900236F
:4025000006F0E8FACDE90001584606F08FFADDE9002306F02DF906F08DFDD9F81460064402213046FEF7EEFA0AF1010A04F0D6FF00287FF455AF04F025FF0B4C0025E5700E
:40254000FF2004F0C9FD04F0C1FB404260616369E361284604F0C0FD03B0BDE8F08F00BF9A99999999992940BC81FF1FD080FF1F6D020000410200000000F0BF00000000A0
:402580002DE9F04F89B00446884692461D46129E169FFF2004F0A0FDA34BD8694042FDF7AFFE04EB08005044401900D50330801006F092FE0190139BF018149B1844159BCF
:4025C000C01800D50330801006F086FE8346204606F082FE019906F0C9FD8146304606F07BFECDF808B0594606F0C0FD0146484606F0C6FE8346404606F06EFE019906F0AB
:40260000B5FD8046139806F067FE029906F0AEFD0146404606F0B4FE0146584606F0A8FD8346504606F058FE019906F09FFD8246149806F051FE029906F098FD0146CDF829
:402640000CA0504606F09CFE0146584606F090FD8246284606F040FE019906F087FD8346159806F039FE029906F080FD0146CDF810B0584606F084FE0146504606F078FDC7
:4026800005904FF0000A4FF0804B484606F0CEF952465B4604F08CFFCDE90601404606F0C5F952465B4604F083FF02460B46DDE9060106F05DF880468946039806F0B6F903
:4026C00052465B4604F074FF02460B464046494606F04EF880468946049806F0A7F952465B4604F065FF02460B464046494606F03FF806F0E7FC0146059806F0F5FE8346AE
:402700000146019806F03CFE0146029806F02EFD824607EBD7725210B718B21A21464FF0FF30FEF735FF01211798FEF797FF02211898FEF793FF204606F066F938A3D3E981
:40274000002306F0F1FA0022384B06F011F806F071FC354B986004F06FFE354804F098FE01212846FEF7CEF902213846FEF7CAF93DE02D4BDB785BB100242B4BDC70FF20D0
:4027800004F0C4FE462002F0BBFB204604F0BEFE04F0ACFE58BB04F099FA4042224C60616369FF1A04F09EFB4042E060E06806F02BF91BA3D3E9002306F08CF904460D460B
:4027C000584606F033F922462B4606F083F904460D46504606F02AF922462B4605F0C8FF06F028FC074402213846FEF78BF904F075FE0028BDD104F0C5FD0B4C0025E570CA
:40280000FF2004F069FC04F061FA404260616369E361284604F060FC09B0BDE8F08F00BF9A99999999990940BC81FF1F0000524041020000000000002DE9F04F85B006463E
:4028400003908A4614461D46FF2004F045FC824BD8694042FDF754FD04EBD474631002930F9A9F1801212846FEF7F8FE02210E98FEF7F4FE304606F0C7F8CDE9000172A34E
:40288000D3E9002306F050FA06F0D4FB064604F0D3FD724804F0FCFD02213846FEF732F94FF0010BA6E06C4BDB7883B10A2002F027FB4FF00008684B83F80380FF2004F064
:4028C00025FE3C2002F01CFB404604F01FFE04F00DFE002840F08E80109806F0FDFC80460F9806F0F9FC0146404606F03FFC8046504606F0F1FC8146039806F0EDFC0146A0
:40290000484606F033FC0146404606F0EDFD80464FA3D3E900232046294606F005FA04460D46DFF8409199F8000000EB400006F06BF822462B4605F01BFF45A3D3E90023CD
:4029400006F0C8F8DDE9002305F010FF04460D46404606F06BF822462B4606F0BBF804460D460F9806F050F822462B4605F000FF06F0A8FB804604F0A9F9404206F044F8BE
:4029800033A3D3E9002306F0A5F804460D46384606F03AF822462B4605F0E8FE06F04AFB2D4F7861584606F02FF802460B4600202B4904F0FDFD04460D46029806F024F829
:4029C00022462B4606F086F804460D46404606F02DF822462B4605F0CBFE06F02BFB7F69074402213846FEF78DF80BF1010B99F800301E44304606F007F804460D46504682
:402A000006F002F810A3D3E9002306F08DF902460B462046294606F0EDFA00287FF443AF04F0B0FC0C4C0025E570FF2004F054FB04F04CF9404260616369E361284604F0FE
:402A40004BFB05B0BDE8F08F9A999999999909409A99999999992940BC81FF1FC90100000000F0BFD080FF1F2DE9F04F9BB00022D34B1A63D34A5178137803EB0123D24A19
:402A800013607A2B52D1D148FDF77EFCFF2004F04DFB4FF4FA7002F033FAFF2004F03AFB4FF4FA7002F02CFA002004F027FB4FF4FA7002F025FA0021C548FEF7CFFD01201C
:402AC00002F008FABE4D0024EC632046FEF768FAC04E012231461020FDF7F4FF022231461020FDF7EFFF2246BB491020FDF7EAFF2046FEF7BBFD2246B8491020FDF7E2FF41
:402B0000322002F0E7F9204604F010FB322002F0E1F9204604F0FEFA4FF4FA7002F0F0F92C64286BFDF770FC01F063BA7B2B50D1AB48FDF729FCFF2004F0F8FA4FF4FA70FE
:402B400002F0DEF9FF2004F0D9FA4FF4FA7002F0D7F9002004F0DEFA4FF4FA7002F0D0F901219B48FEF77AFD012002F0B3F90020FEF716FB01229B491020FDF7A3FF02229C
:402B800094491020FDF79EFF944C002221461020FDF798FF0120FEF75FFE012221461020FDF790FF322002F095F9002004F0BEFA322002F08FF9002004F0A0FA322002F047
:402BC00089F97F4B00225A64186BFDF71DFC01F010BA7C2B4AD18448FDF7D6FBFF2004F099FA4FF4FA7002F08BF9FF2004F086FA4FF4FA7002F084F9002004F097FA4FF4AB
:402C0000FA7002F07DF902217848FEF727FD012002F060F90020FEF7B9FB01226D491020FDF750FF022272491020FDF74BFF00226A491020FDF746FF0220FEF703FF32204F
:402C400002F048F9002004F065FA322002F042F9002004F053FA322002F03CF9584B00229A64186BFDF7D0FB01F0C3B97D2B4FD1FF2004F05BFA4FF4FA7002F041F9FF20BB
:402C800004F048FA4FF4FA7002F03AF9FF2004F035FA4FF4FA7002F033F9032255491020FDF710FF4FF4FA7002F02AF9002004F049FA0A2002F00EF90020FEF721FC032078
:402CC000FEF7B0FF4FF47A7002F01AF9FF2004F039FA4FF47A7002F013F9002004F026FA4FF47A7002F00CF9002004F013FA4FF47A7002F005F9002004F000FA4FF47A70BC
:402D000002F0FEF82E4B186BFDF77EFB01F071B9B3F5F46F78D13848FDF736FB294A517913791B0403EB0163D17803EB012392781344234CE3643148FDF726FBE06CFDF7B4
:402D4000FFFC2F48FDF720FB226CE36C9A422BD023641846002B00DAD81C194C801005F053FE15A3D3E9002305F0B4FE06F062F9E064FEF715F920630A2002F0ABF8214C80
:402D8000012221461020FDF79DFE022221461020FDF798FE002221461020FDF793FE032221461020FDF78EFE054B186BFDF72CFB01F01FB9AFF300809A9999999999294032
:402DC000BC81FF1F6482FF1FE482FF1F50A70000FAD0050001010700070407000103070068A700000302070080A700006EA30100030307000105070098A70000B0A7000000
:402E000030A1000002010700B3F5F66F4ED18E48FDF7BAFA8D4A517913791B0403EB0163D17803EB012392781344894C23658948FDF7AAFA206DFDF783FC8748FDF7A4FA8C
:402E4000626C236D9A422BD063641846002B00DAD81C7F4C801005F0D7FD77A3D3E9002305F038FE06F0E6F82065FEF799F920630A2002F02FF8794C012221461020FDF79E
:402E800021FE022221461020FDF71CFE002221461020FDF717FE032221461020FDF712FE6B4B186BFDF7B0FA01F0A3B8B3F5FA6F3BD16B48FDF768FA02216A48FEF7CEFBCC
:402EC000624A517913791B0403EB0163D17803EB0123927813445E4C63655E48FDF754FA606DFDF72DFC5C48FDF74EFAA26C636D9A4214D0A3641846002B01DA03F10F0073
:402F0000534C001105F080FD4DA3D3E9002305F0E1FD06F08FF86065FEF738FA20634C4B186BFDF771FA01F064B8B3F5FC6F5BD14D48FDF729FAFF2004F0F8F84FF4FA70C0
:402F400001F0DEFFFF2004F0E5F84FF4FA7001F0D7FFFF2004F0D2F84FF4FA7001F0D0FF032242491020FDF7ADFD4FF4FA7001F0C7FF002004F0E6F80A2001F0ABFF334ABF
:402F8000517913791B0403EB0163D07803EB0023907818442E4CA065FEF7B2FA20634FF47A7001F0ADFFFF2004F0CCF84FF47A7001F0A6FF002004F0B9F84FF47A7001F0A3
:402FC0009FFF002004F0A6F84FF47A7001F098FF002004F093F84FF47A7001F091FF206BFDF712FA01F005B87E2B43D12048FDF7CBF9164A517913791B0403EB0163D178F9
:4030000003EB012394781C449379012B03D80A2001F076FF02E000220C4B9A710B4B99792046FEF7B9FE0A4B186BFDF7EDF900F0E0BF00BFAFF300809A999999999929406D
:403040009A99999999994940C8A700006482FF1FBC81FF1FB0A7000030A1000002010700E0A700006EA30100F8A700000105070010A80000B3F5F86F40F0A4800221A848BD
:40308000FEF7ECFAA748FDF77FF9A74B59791A79120402EB0162D97802EB012298781044A24CE064597A1A7A120402EB0162D97902EB01229979114421655D7B1A7B120487
:4030C00002EB0562DD7A02EB05229B7A13446365226C904202D14FF0FF30E064934A526C914203D14FF0FF31904A11658F4A926C934203D14FF0FF328C4B5A658B4BDB6C54
:40310000002B10DB894A1364184600DAD81C801005F07AFC7EA3D3E9002305F0DBFC05F089FF824BD864814B1B6D002B10DB7F4A5364184600DAD81C801005F065FC74A3A3
:40314000D3E9002305F0C6FC05F074FF774B1865764B5B6D002B11DB744A9364184601DA03F10F00001105F04FFC6BA3D3E9002305F0B0FC05F05EFF6C4B58656B4C626D56
:40318000216DE06CFEF704FA20630A2001F0A2FE674D012229461020FDF794FC022229461020FDF78FFC002229461020FDF78AFC032229461020FDF785FC206BFDF724F9B8
:4031C00000F017BFB3F5F44F0DD15A48FDF7DCF8FDF70AFB642001F07DFE544B186BFDF713F900F006BFB3F5FE4F0DD15248FDF7CBF8FDF7C1FA642001F06CFE4B4B186B4B
:40320000FDF702F900F0F5BEB3F5FC4F15D14B48FDF7BAF8444B9C7834B1012C03D04848FDF7B2F800E0FF24204603F00DFD3F4B186BFDF7E9F800F0DCBEFF2B14D14148CA
:40324000FDF7A2F84048FDF79FF84FF4FA7001F041FE0020FDF7D8F84FF4FA7001F03AFE01F030FE00F0C5BEB3F5F64F76D12E4B59791A79120402EB0162D97802EB0122AB
:4032800099780A44314CA261597A1A7A120402EB0162D97902EB012299790A44E261597B1A7B120402EB0162D97A02EB01229B7A1A4422622648FDF767F80021A069FEF754
:4032C000CDF90121E069FEF7C9F90221206AFEF7C5F92048FDF758F8A069FDF731FA1E4D2846FDF751F8E069FDF72AFA2846FDF74BF8206AFDF724FA2846FDF745F80B4B05
:40330000186BFDF781F800F074BE00BFAFF300809A999999999929409A999999999949406EA301002CA800006482FF1FBC81FF1F0301070048A8000068A8000088A80000FA
:40334000A8A80000D0A80000ACA10000D080FF1FF0A8000018A9000040A9000040F2D172934240F0C580784C002323807748FDF70BF8208805F048FB0022754B05F0AAFB2D
:4033800005F058FEFDF7DCF97248FCF7FDFF724B59791A79120402EB0162D97802EB012299780A446265597A1A7A120402EB0162D87902EB002298791044684B186202215F
:4033C000FEF74CF9626DA36CD31A002BB8BF5B42B3F5FA7F23DBA2641046002A01DA02F10F00594C001105F00FFB55A3D3E9002305F070FB05F01EFE6065208805F004FBA9
:403400000022534B05F066FB05F014FEFDF798F95048FCF7B9FF606DFDF7B8FF52E04A4B9A641046002A01DA02F10F00464C001105F0EAFA42A3D3E9002305F04BFB05F09D
:40344000F9FD6065464D012229461020FDF73AFB002229461020FDF735FB022241491020FDF730FBE0694042FCF74AFF00232363FCF768FF208805F0C7FA0022344B05F033
:4034800029FB05F0D7FDFDF75BF9324D2846FCF77BFF0221606DFDF735FB0220FDF78AFC208805F0B1FA0022294B05F013FB05F0C1FDFDF745F92846FCF766FFFCF742FF0D
:4034C0006369E361204C208805F09EFA0022204B05F000FB05F0AEFDFDF732F91D48FCF753FF00232380206BFCF78EFF00F081BD40F2D272934237D1174B59791A79120406
:4035000002EB0162D97802EB0122987810440E4CE065597A1A7A120402EB0162D97902EB01229979114421669A7A6266FEF710FD00202063FCF768FF00F05BBDAFF30080B5
:403540009A99999999994940BC81FF1F44A90000000004400CA800006482FF1FD080FF1F010107000202070040F2C172934240F09680834B59791A79120402EB0162D978FB
:4035800002EB0122997811447E4DE964587A1A7A120402EB0062D87902EB0022987902442A65587B1A7B120402EB0062D87A02EB0022987A02446A65E963597C1A7C12044A
:4035C00002EB0162D97B02EB0122997B0A446E4CA261597D1A7D120402EB0162D97C02EB0122997C0A44E261597E1A7E120402EB0162D97D02EB01229B7D1A4422620A20BB
:4036000001F07EFC0021A069FEF728F80121E069FEF724F80221206AFEF720F8E86C002800DA0330574C801005F0EEF950A3D3E9002305F04FFA05F0FDFCE064206D00281B
:4036400000DA03304F4C801005F0DEF948A3D3E9002305F03FFA05F0EDFC2065606D002800DA0F30474C001105F0CEF942A3D3E9002305F02FFA05F0DDFC6065642001F093
:403680003FFC626D216DE06CFDF782FF2063642001F020FC206BFCF7B7FE00F0AABCB3F5F84F04D10020FCF7AFFE00F0A2BCFE2B10D1FF2003F010FD3448FCF765FE0A201D
:4036C00001F008FC0020FCF79FFE002003F004FD00F08FBC43F27332934259D1284BDA781592197916915C7917949D791895DE7900961E7A01965E7A02969E7A0396DE7A80
:4037000004961E7B05965A7B997BD87B1C7C5D7C9E7CDF7C93F814E093F815C093F8168093F8179093F818A093F819B09B7E1393CDF848B0CDF844A0CDF84090CDF83C8095
:40374000CDF838C0CDF834E00C970B960A950994089007910692189B179A1699159800F041FE0020FCF750FE00F043BCAFF300809A999999999929409A99999999994940EA
:403780006482FF1FBC81FF1FD080FF1F48A9000047F28332934240F09280A94B59791A79120402EB0162D97802EB012299781144587A1A7A120402EB0062DC7902EB04228D
:4037C0009C791444587B1A7B120402EB0062DD7A02EB05229D7A1544587C1A7C120402EB0062D87B02EB002293F80E8090440846002900DAC81C801005F006F98CA3D3E9F2
:40380000002305F067F905F015FC06462046002C00DAE01C801005F0F7F885A3D3E9002305F058F905F006FC04462846002D01DA05F10F00001105F0E7F87FA3D3E90023F3
:4038400005F048F905F0F6FB07464046B8F1000F01DA08F10F00001105F0D6F876A3D3E9002305F037F905F0E5FB0546744B597D1A7D120402EB0162D97C02EB0122997CA1
:4038800011447048816193F819E01A7E120402EB0E6293F817E002EB0E229B7D1A440262019200912B463A4621463046FEF790FB654B9D641C640020FCF7A6FD99E348F202
:4038C0008332934240F0C2805D4B59791A79120402EB0162D97802EB012299781144587A1A7A120402EB0062DE7902EB06229E791644587B1A7B120402EB0062DD7A02EBD9
:4039000005229D7A1544587C1A7C120402EB0062DC7B02EB04229C7B14444A4B9C610846002900DAC81C801005F06EF840A3D3E9002305F0CFF805F07DFB80463046002E41
:4039400000DAF01C801005F05FF839A3D3E9002305F0C0F805F06EFB0646284605F0BCFC4FF0765105F00CFD05F060F832A3D3E9002305F0AFF805F05DFB0746304B597DCC
:403980001A7D120402EB0162DD7C02EB05229D7C15442C490D62587E1A7E120402EB0062D87D02EB002293F816E09644587F1A7F120402EB0062D87E02EB002293F81A9046
:4039C00091449B7F0B707046BEF1000F01DA0EF10F00001105F018F817A3D3E9002305F079F805F027FB82464846B9F1000F01DA09F10F00001105F007F80FA3D3E900234B
:403A000005F068F805F016FB81460290CDF804A0009523463A4631464046FEF73DFB4F44094B9F641E640020FCF7EEFCE1E200BF9A999999999929409A99999999994940B6
:403A40006482FF1FD080FF1FBC81FF1F47F27332934240F0C3805E4B59791A79120402EB0162D97802EB012299781144587A1A7A120402EB0062DE7902EB06229E79164470
:403A8000587B1A7B120402EB0062DD7A02EB05229D7A1544587C1A7C120402EB0062DC7B02EB04229C7B14444A4B9C610846002900DAC81C801004F0A7FF41A3D3E9002302
:403AC00005F008F805F0B6FA80463046002E00DAF01C801004F098FF39A3D3E9002304F0F9FF05F0A7FA0646284605F0F5FB4FF0765105F045FC04F099FF33A3D3E9002368
:403B000004F0E8FF05F096FA0746314B597D1A7D120402EB0162DD7C02EB05229D7C15442C490D62587E1A7E120402EB0062D87D02EB002293F816E09644587F1A7F1204AE
:403B400002EB0062D87E02EB002293F81A9091449B7F0B707046BEF1000F01DA0EF10F00001104F051FF18A3D3E9002304F0B2FF05F060FA82464846B9F1000F01DA09F1CE
:403B80000F00001104F040FF0FA3D3E9002304F0A1FF05F04FFA81460290CDF804A0009523463A4631464046FEF7AEFB4F440A4B9F641E640020FCF727FC1AE2AFF30080B3
:403BC0009A999999999929409A999999999949406482FF1FD080FF1FBC81FF1F49F29332934240F043819E4B59791A79120402EB0162D97802EB012299781144587A1A7A2E
:403C0000120402EB006293F8079002EB092293F806909144587B1A7B120402EB006293F80B8002EB082293F80A809044587C1A7C120402EB0062DF7B02EB07229F7B174458
:403C4000587D1A7D120402EB0062DE7C02EB06229E7C1644587E1A7E120402EB0062DD7D02EB05229D7D1544587F1A7F120402EB0062DC7E02EB04229C7E144493F821007C
:403C800093F82020120402EB0062D87F02EB0022987F0244159293F8250093F82420120402EB006293F8230002EB002293F822000244169293F8290093F82820120402EBA4
:403CC000006293F827A002EB0A2293F826A092446448C0F818A093F82DE093F82C20120402EB0E6293F82BB002EB0B2293F82AB09344C0F820B00846002900DAC81C8010C9
:403D000004F082FE52A3D3E9002304F0E3FE05F091F917904846B9F1000F01DA09F10300801004F071FE4AA3D3E9002304F0D2FE05F080F918904046B8F1000F01DA08F176
:403D40000300801004F060FE41A3D3E9002304F0C1FE05F06FF919903846002F00DAF81C801004F051FE3AA3D3E9002304F0B2FE05F060F907463046002E01DA06F10F00F4
:403D8000001104F041FE34A3D3E9002304F0A2FE05F050F906462846002D01DA05F10F00001104F031FE2CA3D3E9002304F092FE05F040F905462046002C01DA04F10F0020
:403DC000001104F021FE24A3D3E9002304F082FE05F030F90446159B1846002B00DA0F30001104F011FE1CA3D3E9002304F072FE05F020F98046169805F06EFA4FF07651D0
:403E000005F0BEFA04F012FE13A3D3E9002304F061FE05F00FF98146CDF818B0CDF814A00490CDF80C800294019500963B46199A18991798FEF7A4FB08EB09030A4A936406
:403E400017640020FCF7E0FAD3E000BFAFF300809A999999999929409A999999999949406482FF1FD080FF1FBC81FF1F41F21002934240F0B380644B59791A79120402EBC5
:403E80000162D97802EB012299781144587A1A7A120402EB0062DE7902EB06229E791644587B1A7B120402EB0062DD7A02EB05229D7A1544587C1A7C120402EB0062DC7B62
:403EC00002EB04229C7B1444504B9C610846002900DAC81C801004F097FD47A3D3E9002304F0F8FD05F0A6F880463046002E00DAF01C801004F088FD3FA3D3E9002304F008
:403F0000E9FD05F097F80646284605F0E5F94FF0765105F035FA04F089FD39A3D3E9002304F0D8FD05F086F80746374B597D1A7D120402EB0162DD7C02EB05229D7C15446E
:403F400032490D62587E1A7E120402EB0062D87D02EB002293F816E09644587F1A7F120402EB0062D87E02EB002293F81A9091449B7F0B707046BEF1000F01DA0EF10F008F
:403F8000001104F041FD1EA3D3E9002304F0A2FD05F050F882464846B9F1000F01DA09F10F00001104F030FD15A3D3E9002304F091FD05F03FF881460290CDF804A000958D
:403FC00023463A4631464046FEF736FC4F44104B9F641E640020FCF717FA0AE013240C4B1C630C48FCF7D0F9FCF736FC2046FCF70BFA1BB0BDE8F08F9A99999999992940A4
:404000009A999999999949406482FF1FD080FF1FBC81FF1F68A9000010B440F0E000044C43EA0023238041EA0222628010BC70472482FF1F38B50546082313E05C1E45FAE4
:4040400004F000F0010003F031FA002003F03AFA012000F055FF012003F034FA012000F04FFFE3B2002BE9D138BD00BF38B505469DF81000FFF7D0FF01220F4B1A7012E027
:404080000E4C2088000AFFF7D5FF2078FFF7D2FF6088000AFFF7CEFFA078FFF7CBFF064A137801331370044B1B78AB42E8D90022014B1A7038BD00BFEC82FF1F2482FF1F20
:4040C0002DE9F04182B004460D4616461F469DF820800020FFF7AEFF0020FFF7ABFF0020FFF7A8FF0020FFF7A5FF0122BC4B1A700FE0E020FFF79EFF0020FFF79BFF0020B4
:40410000FFF798FF0020FFF795FFB54A137801331370B34B1B782D2BEBD9FF20FFF78AFFFF20FFF787FFFF20FFF784FFFF20FFF781FF072C00F25181DFE814F008003100F9
:404140005A008300AC00D500FE0027010020FFF771FF0020FFF76EFF0020FFF76BFF0020FFF768FF002400942346224621462D20FFF77CFFE02300932346224621462046D3
:40418000FFF774FFFF20FFF755FFFF20FFF752FFFF20FFF74FFFFF20FFF74CFF1DE10020FFF748FF0020FFF745FF0020FFF742FF0020FFF73FFFCDF800803B4632462946F7
:4041C0002D20FFF753FFE023009300231A4619461846FFF74BFFFF20FFF72CFFFF20FFF729FFFF20FFF726FFFF20FFF723FFF4E00020FFF71FFF0020FFF71CFF0020FFF7D7
:4042000019FF0020FFF716FFCDF800803B46324629460720FFF72AFFE023009300231A4619461846FFF722FFFF20FFF703FFFF20FFF700FFFF20FFF7FDFEFF20FFF7FAFE13
:40424000CBE00020FFF7F6FE0020FFF7F3FE0020FFF7F0FE0020FFF7EDFECDF800803B46324629460F20FFF701FFE023009300231A4619461846FFF7F9FEFF20FFF7DAFEFB
:40428000FF20FFF7D7FEFF20FFF7D4FEFF20FFF7D1FEA2E00020FFF7CDFE0020FFF7CAFE0020FFF7C7FE0020FFF7C4FECDF800803B46324629461720FFF7D8FEE02300930F
:4042C00000231A4619461846FFF7D0FEFF20FFF7B1FEFF20FFF7AEFEFF20FFF7ABFEFF20FFF7A8FE79E00020FFF7A4FE0020FFF7A1FE0020FFF79EFE0020FFF79BFECDF8D0
:4043000000803B46324629461E20FFF7AFFEE023009300231A4619461846FFF7A7FEFF20FFF788FEFF20FFF785FEFF20FFF782FEFF20FFF77FFE50E00020FFF77BFE00200A
:40434000FFF778FE0020FFF775FE0020FFF772FECDF800803B46324629462620FFF786FEE023009300231A4619461846FFF77EFEFF20FFF75FFEFF20FFF75CFEFF20FFF717
:4043800059FEFF20FFF756FE27E00020FFF752FE0020FFF74FFE0020FFF74CFE0020FFF749FECDF800803B46324629462D20FFF75DFEE023009300231A4619461846FFF799
:4043C00055FEFF20FFF736FEFF20FFF733FEFF20FFF730FEFF20FFF72DFE02B0BDE8F081EC82FF1F2DE9F04F93B00290039104921C469DF870509DF874609DF878709DF87E
:404400007C3005939DF8803006939DF8843007939DF8883008939DF88C3009939DF890300A939DF894300B939DF898300C939DF89C300D939DF8A0300E939DF8A4300F93AB
:404440009DF8A83010939DF8AC3011939DF8B0809DF8B4909DF8B8A09DF8BCB00020FFF7E9FD0020FFF7E6FD0020FFF7E3FD0020FFF7E0FD0122814B1A700FE0E020FFF74F
:40448000D9FD0020FFF7D6FD0020FFF7D3FD0020FFF7D0FD794A137801331370774B1B782D2BEBD9FF20FFF7C5FDFF20FFF7C2FDFF20FFF7BFFDFF20FFF7BCFD0020FFF79E
:4044C000B9FD0020FFF7B6FD0020FFF7B3FD0020FFF7B0FD049B039A02992046FFF79CFD0122664B1A70AAE0072B0ED8644C2088000AFFF79FFD2078FFF79CFD6088000ADB
:40450000FFF798FDA078FFF795FD5C4B1A78A2F10803DBB2072B16D8082A05D13B46324629460598FFF778FD554C2088000AFFF781FD2078FFF77EFD6088000AFFF77AFD25
:40454000A078FFF777FD4D4B1A78A2F11003DBB2072B16D8102A05D1089B079A06990998FFF75AFD464C2088000AFFF763FD2078FFF760FD6088000AFFF75CFDA078FFF787
:4045800059FD3E4B1A78A2F11803DBB2062B16D8182A05D10C9B0B9A0A990D98FFF73CFD374C2088000AFFF745FD2078FFF742FD6088000AFFF73EFDA078FFF73BFD2F4B38
:4045C0001A78A2F11F03DBB2072B16D81F2A05D1109B0F9A0E991198FFF71EFD284C2088000AFFF727FD2078FFF724FD6088000AFFF720FDA078FFF71DFD204B1A78A2F147
:404600002703DBB2062B16D8272A05D153464A4641465846FFF700FD194C2088000AFFF709FD2078FFF706FD6088000AFFF702FDA078FFF7FFFC114A1378013313700F4BB1
:404640001B782D2B7FF650AF00200C4B1870E0230093034602460146FFF708FDFF20FFF7E9FCFF20FFF7E6FCFF20FFF7E3FCFF20FFF7E0FC13B0BDE8F08F00BFEC82FF1F6B
:404680002482FF1FFEE700BFF0B40022174611E050F82760F3B226F0FF0608E001EB420511F812406D78A5550132013BDBB2002BF4D10137252FEBD9F0BC7047064B1B7817
:4046C000DBB203F00701054A11701B09013213704422034B1A707047CF0100496E5800407658004008B50A46002104F0F6FF08BD08B504F0E7FF08BD08B504F0E3FF08BDD6
:4047000038B501222C4B1A8018232C490B7002310A8002310B7002310A80294A137017210232118002321370332102321180023213700622234B1A705222A3F580731A70E2
:40474000214B1B78DBB2214A13704FF4E262204B1A8041F25122023B1A80002419250CE01C4B1B7803F0010343EA440404F003044FF4F07002F0D8FE013D0DB1032CEFD1B1
:4047800015B90320FFF77EFF134A4FF48073138007231370002311490B7048200231087013700532137002220D4B1A700D4A137843F01F03137038BD8040004082400040C3
:4047C0008A400040004300400F010049A14600402242004025420040044000400640004001400040A243004038B572B64C4A137843F00403137000240CE04A4D6300191982
:404800004A0011462A44084691882858FFF76AFF0134E4B2062CF0D900240BE04149A3001819420088188022016BC06AFFF760FF0134E4B2002CF1D03A4C04F1380104F61B
:40484000B860FFF721FF384A384B1A60A2F5802203F500631A6002F1004203F520731A60334A137843F0020313701032137843F0020313702F4D2B7843F040032B70A2F531
:404880008632513A137843F0100313700A2204F575612948FFF72CFF0A2204F65C712748FFF726FF0A2204F668712548FFF720FF082204F674712348FFF71AFF0A2204F62D
:4048C0007C712148FFF714FF0A2204F688711F48FFF70EFF082204F694711D48FFF708FF0A2204F69C711B48FFF702FF082204F6A8711948FFF7FCFE184A137843F00803FF
:404900001370174C61232370FFF7FAFEC1232370FFF7D4FE0E2229461248FFF7EDFE38BDE846004090A9000004040444580C014003500140A043004000510040C051004049
:40494000F05100401251004020510040305100404251004050510040625100402243004000480040B043004008B504F07FFE03680C2B00D1FEE7FEE708B5094B1A68104448
:40498000084BC31A802B02DC054B186005E004F06DFE0C2303604FF0FF32104608BD00BF0881FF1F3084FF1F08B5104E104D16E029686B68AC68002204E051F8040B43F85E
:4049C000040B0432A242F8D1E868002203E0002143F8041B04328242F9D11035013E002EE6D104F049FEFBF74DFBFEE70100000064BC000008B5104A104B1A60104A13688C
:404A000043F40073136000230AE0032B03D80D4A52F8231000E00C490C4A42F8231001332F2BF2D90A4B1A780A4B1A70074A0A4B1A60FFF7D9FE08BD0004FA050CED00E0CA
:404A400014ED00E000000000694900000080FF1FBC760040C080FF1F08ED00E0044A137803F0FE0300F0010018431070704700BF20510040044A137803F0FD03400000F0A4
:404A8000020018431070704720510040044A137803F0FB03800000F00400184310707047205100401022014B1A60704700E100E00822014B1A60704700E100E008B502F0A9
:404AC0003BFD0C4A137843F0200313700332137843F0100313700132137843F01003137002F02EFD01F0C0FEFFF7DCFFFFF7E0FF08BD00BF906400401022014B1A607047DB
:404B000080E100E00822014B1A60704780E100E010B5FFF7F1FF064B1C78064A137803F009031C4300231370FFF7BCFF204610BD63640040F982FF1F10B5FFF7E3FF064B6B
:404B40001B78064A147804F040041C4300231370FFF7AEFF204610BD646400400783FF1F10B504462B4B1A7802F0FF0312B1013BDBB200E00423284A1278D2B29342F1D04F
:404B8000FFF7BAFF254B1978254A137803F009030B4313701F4B1A78D2B21F4B1B78DBB29A4207D11E4B1B7813F0040F02D01D4B1C702CE0184A13780133DBB2137013781D
:404BC000DBB2042B02D90022134B1A70124B1A78D2B2104B1B78DBB29A420ED10D4A13780133DBB213701378DBB2042B02D90022084B1A7001220C4B1A70074B1B78DBB2AE
:404C00000A4AD4540A4A137843F004031370FFF749FF10BD0383FF1F0583FF1F63640040F982FF1F436400400283FF1FF482FF1F8364004010B5FFF765FF134B1A78D2B28F
:404C4000124B1B78DBB29A4214D0114B1B7813F0FF0F0CD10C4A13780133DBB213701378DBB2052B06D90022074B1A7002E00022074B1A70044B1B78DBB2064AD45CE4B26B
:404C8000FFF716FF204610BD0683FF1F0483FF1FF082FF1FFC82FF1F08B501E00A4B1B780A4B1B7813F0200FF8D102F045FC084B1A7842F001021A701A7802F0FE021A70F0
:404CC00002F03EFC08BD00BF53640040646400409364004010B50F22174B1A70174C102323600621042000F029F91549042000F011F9082323600721032000F01FF911499F
:404D0000032000F007F9FFF7C7FF00240E4B1C700E4B1C700E4B1C700E4B1C700E4B1C700E4B1C70FFF7F4FEFFF706FF0C4B1C70202201331A7010BD8064004080E100E02A
:404D4000814D0000214E0000F082FF1F0683FF1F0483FF1F0283FF1F0383FF1F0583FF1F8364004008B5054B1B7823B9FFF7B2FF0122024B1A70FFF7A1FE08BD3082FF1FBF
:404D800028E01F4B19781F4A137803F009030B431370137813F0040F24D01B4B1B7813F0FF0F0CD1194A13780133DBB213701378DBB2042B06D90022144B1A7002E0002249
:404DC000114B1A70114B1B78DBB2114AD35CDBB2104A13700D4B1A78D2B20F4B1B78DBB29A42CED1094B1A78D2B20B4B1B78DBB29A4204D1094A137803F0FB031370704760
:404E000063640040F982FF1F0283FF1F0383FF1FF482FF1F436400400583FF1F83640040204B1A7820490B7803F0400313430B7032E01E4B1A78D2B21D490B780133DBB218
:404E40000B700B78DBB2052B02D90021184B1970174B1978C9B2174B1B78DBB299420ED114490B780133DBB20B700B78DBB2052B02D900210F4B197001210F4B19700C4B4E
:404E80001B78DBB20D49CA54064B1A7806490B7803F0400313430B70034B1B7813F0200FC7D17047646400400783FF1F536400400483FF1F0683FF1FF082FF1FFC82FF1F21
:404EC00001BE7047024A137843F0010313707047F646004010B5044605E0084B186802F023FBA4F50044B4F5004FF6D8034B586800FB04F002F018FB10BD00BF0C81FF1FC5
:404F000008B5034B1B7A00FB03F002F00DFB08BD0C81FF1F70B504460E46074B1D681F2802D90020FFF7CCFF04F01F04103455F8240045F8246070BD08ED00E038B5044616
:404F40000D46072902D90020FFF7BAFF1F2C02D90020FFF7B5FF04F01F0000F1604000F564406D01EDB2057038BD00BF134B1B78DBB20360124A127843EA02230360114ACA
:404F8000127843EA024303600F4A127843EA026303600E4B1B78DBB243600D4A127843EA022343600B4A127843EA024343600A4A127843EA02634360704700BF03010049FE
:404FC00004010049EC4600400201004901010049000100490501004906010049F8B502F0ABFA0546404A137843F0010313701032137843F00103137001273C4B1F70022626
:40500000943B1E7002F5E2521B32137803F07F0313700020FFF774FF354C237803F0F9032370344A137803F0DF03137023783B4323703846FFF764FF2820FFF761FF2E4BF6
:405040001A7802F07F021A701A7802F0BF021A702378334323703046FFF752FF237843F0040323700023254A137001321370284602F066FA07211720FFF760FF204917202A
:40508000FFF748FF07211820FFF758FF1D491820FFF740FF07211520FFF750FF1A491520FFF738FF07210620FFF748FF17490620FFF730FF07210846FFF740FF1449072067
:4050C000FFF728FF07210820FFF738FF11490820FFF720FF07210C20FFF730FF0E490C20FFF718FFF8BD00BFA54300409D6000409443004012600040F85100408460004027
:40510000655B00004D590000615B0000C15A0000F15A0000255B0000015E000010B5002304E00124244AD4542344DBB2012BF8D9224B18700023224A1370224A1370224A2E
:405140001370224A1370224A1370224A1370224A1370224B4FF400021A604FF080721A604FF400121A6040221A6080221A604FF480721A6011B1012906D00BE0184A137809
:4051800003F0FE0313700AE0154A137843F00103137004E0124A137843F0010313700322104B1A708022203B1A70012002F0BCF904220D4B1A7010BDB883FF1F2B83FF1F12
:4051C0002083FF1F3283FF1F3883FF1F2183FF1F2C83FF1F4983FF1F2283FF1F00E100E009600040286000401260004038B504460D46064B1B7823B9FFF7F0FE0122034B83
:405200001A7029462046FFF789FF38BD3182FF1F002304E001210E4AD1540B44DBB2012BF8D900230B4A13700B4A13700B4A13700B4A13700B4A13700B4A13700B4A137041
:4052400003220B4B1A708022203B1A70704700BFB883FF1F2083FF1F3283FF1F3883FF1F2183FF1F2C83FF1F4983FF1F2283FF1F28600040014B1878704700BF3883FF1F37
:40528000064B1B7813F0FF0F05D0044B1878C0B200221A7070470020704700BF3283FF1F00EB40008300024A13445878704700BF4C83FF1F431EDBB2072B0BD8064B00012E
:4052C0001A18185C00F00F00537843EA0020023880B2704700207047FC5F0040431EDBB2072B3CD8F0B4074600EB4004A3001C4C2344DB889BB2C3F500739A4208D900EB13
:40530000400293002344DA8892B2C2F5007292B200EB4004A300124C2344DB7843EA1223104D04012E192B55D3B2737039B909E0CE5C3D010C4C665501339BB200E0002367
:405340009A42F5D8420002449300054A134400225A705A79D2B20001044B1A54F0BC70474C83FF1FFC5F004078600040FE5F0040431EDBB2072B0BD8420002449300054AB5
:40538000134400225A705A79D2B20001024B1A54704700BF4C83FF1FFE5F004070B5D9B1054614460E46C8B1082819D8FFF782FFA04203D22846FFF77DFF0446002305E0F5
:4053C0002901094A525CF25401339BB2A342F7D32846FFF7CDFF04E0002402E0002400E00024204670BD00BF786000404FF40012014B1A60704700BF00E100E010B4FF2427
:4054000000230EE0094AD25C02EB42029100084A11448A7AD2B2824201D11C4602230133DBB2012BEED9204610BC70470C83FF1F4C83FF1F10B5204C2079FFF7DFFF23785C
:4054400013F0800F0ED06378DBB2212B2FD11B4B07221A80C0EBC000194A1044586000F0E3FA10BD144B5B78DBB2202B02D0222B10D01EE0114A07231380C0EBC003104985
:405480000B4453600F4A135C43F00103135400F0F3FA10BD084B9B780B4A22F81030094A135C43F00203135400F07CF910BD002010BD002010BD00BF006000403C83FF1F1C
:4054C0001C81FF1F1C83FF1F0883FF1F10B500241F4B1C701F4B1C705C700AE01E4B185DC0B2431EDBB2072B01D8FFF741FF0134E4B2012CF2D9194B1B7813F0FF0F1AD0CC
:40550000154B1B7813F0FF0F17D0154B1B7813F0FF0F14D0114B1B78DBB2082B11D80E4B1B78DBB2082B0ED80D4B1B78DBB2082B0BD8002010BD012010BD012010BD0120F6
:4055400010BD012010BD012010BD012010BD00BF3282FF1F1C83FF1F1483FF1F1883FF1F0C83FF1F70B506460D460F4B1B780F4AD45CE4B204EB440293000D4A13441B8941
:405580009BB28B4209D204EB44029300084A13441D89ADB20020FFF793FC2A4631462046FFF79CFE70BD00BF3282FF1F1883FF1F4C83FF1F08B5034B1B78034AD05CFFF78D
:4055C0006FFE08BD3282FF1F1483FF1F08B5084B1B78084AD35CDBB203EB43018A0006490A44128992B201461846FFF7D7FE08BD3282FF1F1483FF1F4C83FF1FC37803F032
:40560000030390F9020000280FDA032B06D002F001030B48C15442F001020EE0C2F380030848C15442F0040207E0032B05D0C2F340030548C15442F002021046704700BF28
:405640001883FF1F0C83FF1F1483FF1F1D4B19781D4A13889BB20B449BB2138000220FE01A494B681B78DBB2194883544B6801334B600132D2B20B889BB2013B9BB20B80DC
:40568000124B1B889BB20BB1072AE9D90D4B1B78DBB2082B00D05AB10E490B7883F080030B700F210C4B197002210C4B197004E0022309490B7009490B70094B1A70014B3D
:4056C0001A7070472283FF1F3683FF1F3C83FF1F006000402D83FF1F2A83FF1F2083FF1F4883FF1F0222074B1A708022064B1A700F22064B1A700023054A1370054A1370BF
:40570000012070472083FF1F2D83FF1F2A83FF1F2283FF1F4883FF1F08B5FFF797FF08BD10B4194B197801F00F010239C9B2174A13889BB20B449BB21380002011E0144A26
:405740005468144B1B5CDBB223705368013353600130C0B20139C9B213889BB2013B9BB213800B4B1B889BB20BB10029E7D10A4B19700A4A137883F0800313700B22084BE0
:405780001A7010BC704700BF296000403683FF1F3C83FF1F006000404883FF1F2D83FF1F2A83FF1F0623064A1370064A13708022054B1A700022054B1A700120704700BFA0
:4057C0002083FF1F2A83FF1F2D83FF1F4883FF1F064B9B6843B1054B9A6810709A6804490988518000229A60704700BF3C83FF1F3683FF1F08B5134B1A78D2B21A701B7807
:40580000DBB213F0800F02D00F4A137008BD0220FFF7DEFF0D4B1B7803F06003202B05D0402B06D043B900F0DDFD06E001F08CFE03E000F085FF00E0002010B90322024B86
:405840001A7008BD286000402A83FF1F0060004008B5094B1978094A13889BB20B449BB213800022064B1A700120FFF7B1FF0322044B1A7008BD00BF2283FF1F3683FF1FBA
:405880002083FF1F2A83FF1F08B50B4B1B78DBB2042B06D0062B07D0022B0BD1FFF7D8FF08BDFFF73DFF08BD0320FFF791FF0322024B1A7008BD00BF2083FF1F2A83FF1FD5
:4058C00008B50022044B1A700120FFF781FF0322024B1A7008BD00BF2083FF1F2A83FF1F08B50B4B1B7813F0FF0F07D0084A137843F0800307490B70002313700022064B48
:405900001A700120FFF764FF0322044B1A7008BD2C83FF1F086000402083FF1F2A83FF1F08B5094B1B78DBB2042B06D0062B07D0022B07D1FFF7F0FE08BDFFF7C1FF08BD38
:40594000FFF7CEFF08BD00BF2083FF1F08B5284B1B78DBB213F0100F48D013F0800F0CD003F00F03012B16D1FFF744FF214B1B7813F0800F11D1012312E013F0400F03D028
:40598000FFF7CEFF01230BE013F0200F07D0FFF77BFF012304E0002302E0002300E0002323B3134B1B7813F0800F1FD1124B1B78124A12781343124A13701278D2B2934232
:4059C00014D10C4B1B78DBB2094A127812F0800F07D1084B1B78DBB2054A1370137803F00F03044A1278D2B29342EAD108BD00BF286000402A83FF1F2D83FF1F4883FF1F76
:405A0000296000400022064B1A80064B9B682BB1044A916800230B7092685380704700BF3683FF1F3C83FF1F08B50F4B1B889BB213B9FFF757FE15E002220C4B1A7000224A
:405A40000B4B1A70FFF7DEFF0A4AD179937943EA0123054A128892B2934201D2024A1380FFF7F4FD012008BD3C83FF1F2083FF1F2D83FF1F0060004008B504220B4B1A7028
:405A800080220B4B1A70FFF7BDFF0A4AD179937943EA0123084A128892B2934201D2064A13800B22054B1A70012008BD2083FF1F2D83FF1F006000403C83FF1F2A83FF1F38
:405AC0000122094B1A700F3B9B7C084B1B7B03F00303934204D0054AD37B83F08003D3730122024B5A7370470B6000404C83FF1F02220A4B1A700F3B93F82230084B1B7E3E
:405B000003F00303012B04D0054AD37E83F08003D3760122024B5A76704700BF0B6000404C83FF1F04220C4B1A700F3B93F832300A4B93F8243003F00303012B06D0074A81
:405B400092F8273083F0800382F827300122034B83F82520704700BF0B6000404C83FF1F704700BF08B5FFF753FB08BD08B50C4B18780138C0B200F0CFF90A4B1B79DBB285
:405B80009A1C00EBC20042680749CB5C02EBC3035B68596A0B78054A1380516008BD00BF3883FF1F006000402883FF1F3C83FF1F08B50E4B18780138C0B200F0ADF90C4B31
:405BC0001B79DBB29A1C00EBC20042680949CB5C02EBC3035B68DB69597813F8022B42EA012205490A804B6008BD00BF3883FF1F006000402883FF1F3C83FF1F10B50022DF
:405C00001A4B1A801A4B18780138C0B200F084F91849CB78DAB20B79DBB2991C00EBC1004168012B20D81448C35C01EBC3014968531EDBB2022B17D802F10053013B01EB85
:405C4000C3000C4A9278D2B211F833309A420BD8406802EB4202910042185468034B5C60415A198092689A6010BD00BF3C83FF1F3883FF1F006000402883FF1F08B55B4B92
:405C80001A79D2B21B7813F0800F4DD0574B5B78013B052B00F28E80DFE803F0212B3B8C8C03524BDB78DBB2212B09D1FFF75EFF4F4B1B889BB2002B7ED0FFF7B5FE08BDE7
:405CC0004A4BDB78DBB2222B78D1FFF771FF484B1B889BB2002B73D0FFF7A6FE08BDFFF78DFF434B1B889BB2002B6BD0FFF79CFE08BD012A68D83D4B9B7813F0FF0F65D1DB
:405D00003B4901230B803B4B1A444A60FFF78CFE08BD012A5CD8364901230B80364B1A444A60FFF781FE08BD304B5B78DBB20A2B0DD00B2B2FD0092B4CD1FFF75FFF2C4BCF
:405D40001B889BB2002B47D0FFF796FE08BD012A44D8264B9B7813F0FF0F41D1234BDB78DBB224498B54895CC9B2244B9B5CDBB2994203D20021214B995409E01F4B9B5C53
:405D8000DBB2012B04D91B4B9B5CDBB21B498B54FFF708FD08BD012A24D8144B9B78DBB2012B21D8114B9B78DBB213498B54FFF7F9FC08BD002008BD002008BD002008BD7F
:405DC000002008BD002008BD002008BD002008BD002008BD002008BD002008BD002008BD002008BD002008BD002008BD006000403C83FF1FBC83FF1FB883FF1FC083FF1F38
:405E000008B500F0BBFC08BD70B588B0054603AC174E0FCE0FC43368237035B322232B7003236B7001A8FFF7A1F8002402231AE008AA224412F81C2C08A901EB121111F828
:405E4000141CE954581C00212954981C02F00F0208AE324412F8142C2A54DA1CA9540134E4B20433DBB2212BE2D908B070BD00BFC0B9000010B401233EE019461A010C24A2
:405E80002148845403EB4300820020480244527912F0FF0F13D003EB430082001B480244127912F0800F04D01801194A024494700AE01801164A02440820907004E01801A2
:405EC000134A0244802090704800084482000F480244D488E4B208010B4901448C71D088C0F30720C871D088C0B20871D288C2F307224A710133DBB2082BBED9FF22054B7E
:405F00001A7010BC704700BF706000404C83FF1FFC5F00400A600040074B1A78074B03EBC2035B681A7C824204D9C0001030184440687047002070472B83FF1F10BA000048
:405F4000F8B5404B1B7813F0FF0F79D03D4B18780138C0B2FFF7E0FF047AC2683A4B1878C0B200236AE01178884264D13749095CC9B25578A9425ED1917801F07F01D67831
:405F800006F00306DFF8C8E04D000D44AF000EEB07054FF0000C85F803C092F802C085F804C092F803C00EF807C097882F8192F90250002D0DDA012E01D1072700E00D27DC
:405FC0004E000E44B500224E35446F7101266E700CE0012E01D1052700E009274E000E44B5001B4E35446F7100266E70DFF868E00F010EEB07060125B57001FA05F5294458
:406000008D00134929440D89C5F307250EF807500D89EDB27570CE88F6B20E4D3D44AE71CE88C6F30726EE71CE88F6B22E71C988C1F30721697108320133DBB2A34292D39C
:40604000F8BD00BF3883FF1F2183FF1F2883FF1F4C83FF1F70600040FC5F0040034B1A78034B03EBC2035868704700BF2B83FF1F10BA000008B5084B18780138C0B2FFF7C2
:406080004BFF30B142681279023200EBC203586808BD002008BD00BF3883FF1F2DE9F047002310E0724D5900CA189600AC190022AA55A270E2702281A272627034462C44ED
:4060C00062710133DBB2082BECD940B90AE000226849CA546849CA540133DBB200E00023012BF4D9654B1B7813F0FF0F00F0BD80624B18780138C0B2FFF70EFF80464368D7
:40610000DB7913F0400F05D05D4A137843F00103137004E05A4A137803F0FE03137098F808704FF0000A01266FE0D8F80C50002467E0AB7803F07F039E425FD1314606EB00
:40614000460083004A4803441B899BB2A888834206D206EB460E4FEA8E03454A134418812B784448C35CDBB26878834246D195F802C0DFF8FCE04B000B4498000EEB00036A
:4061800083F804C0EB780EF80030EB7803F0030395F90200002813DA012B02D14FF0070901E04FF00D09DFF8C8E04B0003EB010C4FEA8C00704480F805900121417012E072
:4061C000012B02D14FF0050901E04FF00909DFF8A0E04B0003EB010C4FEA8C00704480F8059000214170AB790A2B01D0022B05D1524631462846FFF701FA82460835013457
:40620000E4B2BC4295D30136F6B2082E8DD9D8F80C0000220CE0837803F07F0310F8084B03EB43039900124B19448C720132D2B2BA42F0D3FFF71EFF124B1860002301210A
:406240000FE00B4D4A00501884002C44E380228992B213449BB203F0010213449BB20131C9B20829EDD9FFF705FEBDE8F08700BF4C83FF1F2883FF1F3083FF1F3883FF1FC9
:406280004983FF1F2483FF1F08B5154B1B7903F07F035A1ED2B2072A20D8590019448A0010490A44917841F0010191700021D170517841F002015170127912F0800F05D0AF
:4062C0001B01094A1A448D23937004E01B01064A1A4489239370FFF765FA08BD002008BD006000404C83FF1FFC5F0040274B1B7903F07F035A1ED2B2072A44D810B55900B8
:4063000019448A0022490A44917801F0FE0191700021D1701F4C1801215C01F07F012154517801F0FD015170127912F0800F13D003EB43018A0016490A445278D2B2012A20
:4063400004D1224602440C23937019E01B01114A1A440D23937013E003EB43018A000C490A445278D2B2012A05D11B01094A1A440823937004E01B01064A1A4409239370EE
:40638000FFF710FA10BD0020704700BF006000404C83FF1FFC5F004010B50E4B1C79E4B20D4B18780138C0B2FFF7B6FD43681B799C4201D9022C0AD8084A135DDBB2084926
:4063C0000B55044B9B78DBB21355012010BD002010BD00BF006000403883FF1F2883FF1F3083FF1F10B5964B1B78DBB20021954A118013F0800F00F0B380914A5278D2B204
:406400000A2A00F27981DFE812F06F00770177017701770177010B00770198007701A000874BDB78DBB2012B09D1FFF717FE4268844B5A6012221A80FFF7F6FA10BD804B37
:40644000DB78DBB2022B13D17D4B9878FFF764FD002800F0538142687A4B5A605A68D1785A68927842EA01221A80FFF7DDFA10BD734BDB78DBB2032B05D032E00A78114403
:406480000133DBB201E000236F496D4A9278D2B2934203D20A7812F0FF0FEFD1684B9B78DBB2EE2B00D16949654B9B7813F0FF0F0BD0634B9B78DBB2654A127C934204D14B
:4064C000644C2046FFF7A0FC21460B7813F0FF0F00F016810B785B4A13805160FFF7A4FA10BD01F031F810BD13F0030317D0022B40F0088153490B80514B1B7903F07F031C
:4065000003EB43039A00544B1A449278D2B2534B1A7000225A704B60FFF786FA10BD494902230B804E4B1A78D2B24C4B1A7000225A704B60FFF778FA10BD424B01221A80D8
:40654000484A5A60FFF770FA10BD3E4A012313803B4B1B7944490B445360FFF765FA10BD374A5278013A0A2A00F2CE80DFE812F04C00CC009700CC000B00CC00CC00CC00EB
:406580001300CC0030002E4B9B78DBB2374A1370FFF708F910BD2A4B9B7803F0FF041BB1601EC0B2FFF7B8FC04B110B9002C40F0AD802C4B1B78DBB29C4206D0294B1C70B5
:4065C00001202B4B1870FFF769FDFFF7EBF810BDFFF7E2FE002800F09B80194A1379DBB21279D2B223490A70234AD25CD2B21E49CB5CDBB29A4204D001221D4B1A70FFF70B
:406600009FFCFFF7CFF810BD03F00303012B35D04BB1022B7ED10A4B9B7813F0FF0F7BD1FFF764FE10BD064B9B78DBB2012B75D10B4A137803F0FD031370FFF7B3F810BD82
:40664000006000403C83FF1FB0BA0000FCB90000DCBB00000484FF1F4C83FF1F3482FF1F4983FF1F3883FF1F2883FF1F2C83FF1F3283FF1F2183FF1F3083FF1F2D4B1B79B5
:40668000DBB2012B4CD82B4B98781B79DBB22A49CA5C22EA0002CA54FFF784F810BD03F00303012B17D04BB1022B3BD1214B9B7813F0FF0F38D1FFF7E7FD10BD1D4B9B7856
:4066C000DBB2012B32D11D4A137843F002031370FFF768F810BD174B1B79DBB2012B27D8144B98781B79DBB21349CA5C22EA0002CA54FFF757F810BD002010BD002010BD36
:40670000002010BD002010BD002010BD002010BD002010BD002010BD002010BD002010BD002010BD002010BD002010BD002010BD002010BD006000403483FF1F4983FF1FF1
:4067400008B50B4B1B7813F0800F0CD0084B5B78DBB2012B09D1074B074A5A6012781A80FFF762F908BD002008BD002008BD00BF006000403C83FF1FD4B90000024B187845
:40678000C0F38010704700BF8F450040084A137843F0040313701032137843F00403137002F66532137843F001031370704700BFA3430040014B1880704700BF1C4F004073
:4067C000014B1880704700BF1E4F0040014B1870704700BF1B4F004008B5194A137843F0020313700232137803F08F0343F010031370144B1A7802F0CF021A701A7842F029
:4068000030021A701A7802F0F0021A701A7842F00F021A707820FFF7CDFF0120FFF7D0FF0020FFF7D3FF084A137843F00403137002F67632137843F00103137008BD00BF12
:40684000184F0040234F0040A343004008B5054B1B7823B9FFF7C0FF0122024B1A70FFF795FF08BD3682FF1F054A137843F0080313701032137843F008031370704700BFAA
:40688000A243004008B50222054B1A6005490120FEF740FB07210120FEF750FB08BD00BF80E100E08169000010B50224064B1C6000F0A0F8A0F5004000B2044B1B68044A4A
:4068C0001460184410BD00BF80E100E03882FF1F00E100E038B505460224054B1C604FF4004000F081F8034B1D60034B1C6038BD80E100E03882FF1F00E100E0024B18780B
:4069000000F00F00704700BF6964004040F00700014B1870704700BF8964004008B50F20FFF7F4FFFFF7EAFF00F006FE054A137843F01003137000F003FE0222024B1A6000
:4069400008BD00BF9964004000E100E008B500F0A3F84FF4004000F047F80022064B1A60064B1B7823B9FFF78DFF0122034B1A70FFF7D4FF08BD00BF3882FF1F3782FF1F75
:406980000D4B1B78DBB213F0010F06D00B490A6802F5FF427F320A6007E013F0020F04D006490A68A2F500420A6013F0040F02D00022024B1A607047696400403882FF1F1D
:4069C000024A137843F080031370704779650040014B1870704700BF87650040014B1878704700BF67650040014B1880704700BF0A6A0040024B1B78024B188880B270471A
:406A0000056500408A6A0040014B188880B270478A6A0040014B1880704700BF4A6A0040014B1880704700BF6A6A004008B501E0FFF7EAFFFFF7D2FF10F0400FF8D108BD92
:406A400008B5134B1A7802F0F8021A701A7802F0FC021A70FFF7EAFF4FF40040FFF7DAFF4FF40040FFF7C0FF0020FFF7B1FFFFF7B5FF4FF40040FFF7D3FF00F05DFD054A2A
:406A8000137843F01003137000F05AFD08BD00BF796500409765004008B5054B1B7823B9FFF7CEFF0122024B1A70FFF789FF08BD3C82FF1F08B50D490520FEF72BFA07218B
:406AC0000520FEF73BFA0023094A13707221094A11702021013A11700621593A117047211032117002F5A872137008BD956B00003D82FF1F8264004010B500F01DFD04460F
:406B00000B4A137843F020031370013A137843F0100313702022074B1A60074A137843F01003137000F082F8204600F009FD10BD9264004000E100E09865004008B5054B86
:406B40005B7823B9FFF7B6FF0122024B5A70FFF7D3FF08BD3D82FF1F034B1B7813F0040FFAD1024B18707047686500404865004038B5074B5B782BB938BDFFF7EDFF0134CD
:406B8000A4B201E005460024285D0028F5D138BD3D82FF1F1D4B1B78DBB213F01E0F05D01B4803F01E0201780A43027003F0200303F0FF0233B3174B1978C9B2164B1B785D
:406BC000DBB21648C154164B1B7813F0FF0F02D00121144B197010490B780133DBB20B700B78DBB23F2B02D900210B4B19700A4B1978C9B20C4B1B78DBB2994202D101219F
:406C0000074B1970002AC5D1704700BF616400403D82FF1F456400404082FF1FC483FF1F4182FF1F4282FF1F3F82FF1F054A137843F0100313701032137843F01003137058
:406C4000704700BFA2430040044A137803F0FB03800000F00400184310707047F0510040044A137803F0BF03800100F0400018431070704720510040044A137803F0EF03E8
:406C8000000100F0100018431070704720510040044A137803F0F703C00000F008001843107070472051004008B50122054B1A6005490020FEF72EF902210020FEF73EF92C
:406CC00008BD00BF80E100E0A56D000010B50124064B1C6000F068FAA0F5004000B2044B1B68044A1460184410BD00BF80E100E04882FF1F00E100E038B505460124054B1A
:406D00001C604FF4004000F049FA034B1D60034B1C6038BD80E100E04882FF1F00E100E0024B187800F00F00704700BF6664004040F00700014B1870704700BF86640040A6
:406D400008B50F20FFF7F4FFFFF7EAFF00F0F4FB054A137843F01003137000F0F1FB0122024B1A6008BD00BF9664004000E100E008B500F06BFA4FF4004000F00FFA0022E8
:406D8000064B1A60064B1B7823B9FFF78DFF0122034B1A70FFF7D4FF08BD00BF4882FF1F4482FF1F0D4B1B78DBB213F0010F06D00B490A6802F5FF427F320A6007E013F04E
:406DC000020F04D006490A68A2F500420A6013F0040F02D00022024B1A607047666400404882FF1F084A137843F0020313701032137843F00203137002F65932137843F0CF
:406E000001031370704700BFA3430040014B1880704700BF104F0040014B1880704700BF124F0040014B1870704700BF0F4F004008B5194A137843F002031370023213782E
:406E400003F08F0343F010031370144B1A7802F0CF021A701A7842F030021A701A7802F0F0021A701A7842F00F021A7046F2A810FFF7CCFF0120FFF7CFFF0020FFF7D2FF2A
:406E8000074A137843F00203137002F66A32137843F00103137008BD0C4F0040174F0040A343004008B5054B1B7823B9FFF7C0FF0122024B1A70FFF795FF08BD4C82FF1FD0
:406EC00008B50422054B1A6005490220FEF722F807210220FEF732F808BD00BF80E100E0BD6F000010B50424064B1C6000F0D6F9A0F5004000B2044B1B68044A146018441C
:406F000010BD00BF80E100E05082FF1F00E100E038B505460424054B1C604FF4004000F0B7F9034B1D60034B1C6038BD80E100E05082FF1F00E100E0024B187800F00F002C
:406F4000704700BF6E64004040F00700014B1870704700BF8E64004008B50F20FFF7F4FFFFF7EAFF00F0E8FA054A137843F01003137000F0E5FA0422024B1A6008BD00BF6D
:406F80009E64004000E100E008B500F0D9F94FF4004000F07DF90022064B1A60064B1B7823B9FFF78DFF0122034B1A70FFF7D4FF08BD00BF5082FF1F4D82FF1F0D4B1B7827
:406FC000DBB213F0010F06D00B490A6802F5FF427F320A6007E013F0020F04D006490A68A2F500420A6013F0040F02D00022024B1A6070476E6400405082FF1F084A1378C8
:4070000043F0010313701032137843F00103137002F64D32137843F001031370704700BFA3430040014B1880704700BF044F0040014B1880704700BF064F0040014B187007
:40704000704700BF034F004008B5194A137843F0020313700232137803F08F0343F010031370144B1A7802F0CF021A701A7842F030021A701A7802F0F0021A701A7842F013
:407080000F021A707820FFF7CDFF0120FFF7D0FF0020FFF7D3FF084A137843F00103137002F65E32137843F00103137008BD00BF004F00400B4F0040A343004008B5054BC9
:4070C0001B7823B9FFF7C0FF0122024B1A70FFF795FF08BD5482FF1F044A137803F07F03C001C0B218431070704700BF20510040014B1870704700BF75650040044A13786F
:4071000003F0FB03800000F0040018431070704750510040044A137803F0F703C00000F0080018431070704750510040044A137803F0EF03000100F0100018431070704735
:4071400050510040044A137803F0DF03400100F0200018431070704750510040044A137803F0BF03800100F0400018431070704750510040024A137843F080031370704743
:4071800076640040014B1870704700BF84650040014B1878704700BF64650040014B1880704700BF0C680040024B1B78024B188880B27047066400408C680040014B188859
:4071C00080B270478C680040014B1880704700BF4C680040014B1880704700BF6C68004008B501E0FFF7EAFFFFF7D2FF10F0400FF8D108BD08B5134B1A7802F0F8021A7072
:407200001A7802F0FC021A70FFF7EAFF4FF40040FFF7DAFF4FF40040FFF7C0FF0020FFF7B1FFFFF7B5FF4FF40040FFF7D3FF00F083F9054A137843F01003137000F080F9A6
