:400000000080002011000000D14A0000D14A000008B5044B1A6803F53F5302331A6004F077FD00BFFA46004010B5054C237833B9044B13B10448AFF300800123237010BDC9
:40004000A081FF1F00000000ECA00000084B10B51BB108490848AFF300800848036803B910BD074B002BFBD0BDE81040184700BF00000000A481FF1FECA00000C880FF1F3A
:400080000000000000B583B062B607F055FAFF2007F0D6F8FF2006F097FE00F029F9002006F042FC002007F077F8002006F080FE06F0F8FD374800F093F900F051FB00F0DA
:4000C00057F904F003FF002000F05CFD642004F0CBFF012000F056FD642004F0C5FF022000F050FD642004F0BFFF032000F04AFD642004F0B9FF042000F044FD642004F083
:40010000B3FF642004F09AFF642004F097FF642004F094FF002007F0C9F8642004F08EFFFF2007F0C3F8042141F6380001F0C2FA002006F083FC002006F09EFF002007F095
:400140007FF8002006F040FE0A2004F077FF0A2300930E23C4221E21012004F065F800F0F3FB05F0DBFA88B10B4805F0E3FA0B4B188001280AD90A4800F032F9FF2006F016
:4001800023FE02F09DFC002006F01EFE642004F06BFFE4E7F0A000006C82FF1FAC82FF1F10A10000074A138801339BB2138042F6F822934204D1034B01229A7000221A80E8
:4001C000704700BFBC81FF1F064A138801339BB21380312B04D913460122DA7000221A80704700BFBC81FF1F08B506F023FE404209F026F94FF07A5109F076F908F0CAFC05
:400200000BA3D3E9002308F019FD08F0C7FF0A4B58605A689B689A4206DD074901220A73064A126813448B6008BD00BFAFF300809A99999999994940BC81FF1FD080FF1F49
:4002400008B506F0E5FB4042064B18611A695B699A4206DD03490122CA70034A127913444B6108BDBC81FF1FD080FF1F08B506F0CFFB4042064B18611A695B699A4206DABB
:40028000034A0121D170034909795B1A536108BDBC81FF1FD080FF1F08B506F0D7FE4042064B98619A695B699A4206DD03490122CA70034A127913444B6108BDBC81FF1F8B
:4002C000D080FF1F08B506F0C1FE4042064B98619A695B699A4206DA034A0121D170034909795B1A536108BDBC81FF1FD080FF1F08B506F05FFB114B188906F015FB06F094
:4003000091FF022006F048FF06F080FE40F6C41006F036FEC82004F091FE002006F030FEC82004F08BFE40F6C41006F029FEC82004F084FE002006F023FE08BDD080FF1F23
:4003400010B50024034BDC6106F08AFD204606F083FF10BDBC81FF1F10B50124034BDC6106F07EFD204606F077FF10BDBC81FF1F10B5094B00241C619C615C601C6206F0BF
:40038000ABFD06F0B5FE06F095FB2046FFF7E4FF2046FFF7D5FF10BDBC81FF1F10B50F4BDB6933B906F046FD40420C4B18625A6A5A600A4BDB69012B06D1084CA36A2362F4
:4003C00006F038FD4042606006F022FB4042034C206106F03BFE4042A06110BDBC81FF1F0C4B93F82C309BB110B504460A220146094809F053FA50B1204606F06DFC0120C7
:4004000004F032FE0A222146034809F05CFA10BD704700BFBC81FF1FDC80FF1F08B540F6C41006F0ADFDC82004F008FE002006F0A7FDC82004F002FE40F6C41006F0A0FDD7
:40044000C82004F0FBFD002006F09AFD0248FFF7C7FF002008BD00BF34A100000000000038B50446FFF79AFF54B9744B1A68744B1A70120A5A7000229A70FA22DA70E6E0E1
:400480006E4B1B686E4A13701B0A5370013C202C00F2DD80DFE804F011171D23292F353B41474D53595F656B71777D83898F959BA1A7ADB3B9BFC5CBD600614B01229A70DB
:4004C000FA22DA70C3E05E4B02229A70FA22DA70BDE05B4B17229A70FA22DA70B7E0584B07229A70FA22DA70B1E0554B11229A70FA22DA70ABE0524B1D229A70FA22DA704C
:40050000A5E04F4B25229A70FA22DA709FE04C4B03229A70FA22DA7099E0494B04229A70FA22DA7093E0464B18229A70FA22DA708DE0434B08229A70FA22DA7087E0404B62
:4005400012229A70FA22DA7081E03D4B1E229A70FA22DA707BE03A4B26229A70FA22DA7075E0374B05229A70FA22DA706FE0344B06229A70FA22DA7069E0314B19229A70C8
:40058000FA22DA7063E02E4B09229A70FA22DA705DE02B4B13229A70FA22DA7057E0284B1F229A70FA22DA7051E0254B27229A70FA22DA704BE0224B2B229A70FA22DA701C
:4005C00045E01F4B2C229A70FA22DA703FE01C4B2D229A70FA22DA7039E0194B2E229A70FA22DA7033E0164B2A229A70FA22DA702DE0134B2F229A70FA22DA7027E0104B6E
:4006000028229A70FA22DA7021E00D4B22229A70FA22DA701BE00A4B23229A70FA22DA7015E0074B24229A70FA22DA700FE0044B29229A70FA22DA7009E000BFEC82FF1FC4
:40064000B082FF1F424B30229A70FA22DA70414D2B699B002B61AB699B00AB616B689B006B60286A08F084FA37A3D3E9002308F0E5FA08F093FD28622B69354C23712B69B7
:400680001B1263712B691B14A3712B691B16E371AB692372AB691B126372AB691B14A372AB691B16E3726B6823736B681B1263736B681B14A3736B681B16E3732B6A2374BB
:4006C0002B6A1B1263742B6A1B14A3742B6A1B16E374214A936823751B1263750023A375E37523766376A376E376D1692177090A6177116AA177090AE177526A84F82020BC
:40070000120A84F8212084F8223084F8233084F8243084F8253084F826304C2284F8272084F8283084F8293084F82A3084F82B3084F82C3084F82D300848FFF751FE2E21B4
:40074000204604F0C3FF38BD9A99999999990940B082FF1FBC81FF1FD080FF1F58A1000008B50121002004F0F5FD05E00848FFF737FE012004F078FC04F030FE0028F5D099
:4007800004F058FF0348FFF72BFE04F0E3FE08BD7CA10000A0A100000A4B93F82C307BB100B587B00246084901A809F053F801A806F092FA012004F057FC07B05DF804FB14
:4007C000704700BFBC81FF1FB4A100000000000010B5154BD8789B7803EB0020134C206308F0C6F90EA3D3E9002308F027FA00220F4B08F04DFB08F0F9FC80B206F0CCFC62
:400800000C48FFF7EDFD206BFFF7C6FF0A48FFF7E7FD0A48FFF7E4FD002010BDAFF30080333333333333E33F6C82FF1FBC81FF1F00002440BCA1000014A30000DCA100002A
:4008400010B5154BD8789B7803EB0020134CA06008F08EF90EA3D3E9002308F0EFF900220F4B08F015FB08F0C1FC80B206F05CF80C48FFF7B5FDA068FFF78EFF0A48FFF710
:40088000AFFD0A48FFF7ACFD002010BDAFF30080333333333333E33F6C82FF1FD080FF1F0000244004A2000014A300001CA2000008B50548FFF794FD0448FFF791FD044892
:4008C000FFF78EFD08BD00BF14A300003CA2000098A2000010B5184B93F8344054B99B6B43B90C22144B9A631448FFF779FDFFF7DFFF1EE0104B93F83C4054B99B6B43B959
:4009000006220D4B9A630E48FFF76AFDFFF7D0FF0FE0094B93F83D405CB99B6B43B91222054B9A630748FFF75BFDFFF7C1FF00E00124204610BD00BFBC81FF1F70A2000028
:400940009CA20000C4A2000008B504F04DFDB0B1FFF764FD04F042FD88B1094B93F83E304BB10848FFF73CFDFFF7A2FF012004F065FB04F05BFB0122014B83F83E2008BD89
:40098000BC81FF1FECA2000008B504F09DF90A2004F06AFB012008BD10B54B1EDBB2FD2B3DD90C46042836D8DFE800F0030D17212B000A2004F058FB204604F003F90A20FE
:4009C00004F052FB10BD0A2004F04EFB204604F005F90A2004F048FB10BD0A2004F044FB204604F007F90A2004F03EFB10BD0A2004F03AFB204606F0FFF90A2004F034FB2D
:400A000010BD0A2004F030FB204606F0E9F90A2004F02AFB10BD0448FFF7E2FC10BD0348FFF7DEFC10BD00BF18A3000058A30000F8B506460D46174600212846FFF7ACFF2F
:400A400006F07F063046FFF79FFF0020FFF79CFF0020FFF799FF0020FFF796FF0020FFF793FFFF212846FFF797FF012004F0E6FA00212846FFF790FF3046FFF785FF04F038
:400A80008DF938700020FFF77FFF04F087F904060020FFF779FF04F081F944EA00440020FFF772FF04F07AF944EA00240020FFF76BFF04F073F90443FF212846FFF76CFF32
:400AC000012004F0BBFA00212846FFF765FF3046FFF75AFF04F062F938700020FFF754FF04F05CF944EA00640020FFF74DFF04F055F944EA00440020FFF746FF04F04EF997
:400B000044EA00240020FFF73FFF04F047F90443FF212846FFF740FF2046F8BD70B506460C46154600211046FFF736FF46F08000FFF72AFF200EFFF727FFC4F30740FFF7E3
:400B400023FFC4F30720FFF71FFFE0B2FFF71CFFFF212846FFF720FF70BD00BF38B505460C460A4600212020FFF7D8FF224629460520FFF7D3FF224629462D20FFF7CEFF7C
:400B800038BD00BF10B50446024605210120FFF7C5FF224608210020FFF7C0FF224600210320FFF7BBFF224600210520FFF7B6FF224600210620FFF7B1FF22460F210820F9
:400BC000FFF7ACFF224682490920FFF7A7FF224680490A20FFF7A2FF022C0AD1224600210B20FFF79BFF22467B491020FFF796FF2FE054B922465A210B20FFF78FFF224620
:400C000076491020FFF78AFF23E0012C0AD122467F210B20FFF782FF224670491020FFF77DFF16E0042C0AD12246D2210B20FFF775FF22466A491020FFF770FF09E02246DC
:400C400000210B20FFF76AFF224666491020FFF765FF22460A211120FFF760FF224600211320FFF75BFF224600211420FFF756FF224600211520FFF751FF2246002121202D
:400C8000FFF74CFF224600212320FFF747FF224600212C20FFF742FF224600213320FFF73DFF224640F2AF213420FFF737FF224600213820FFF732FF224600213920FFF707
:400CC0002DFF22464FF480313A20FFF727FF224600213D20FFF722FF224643496020FFF71DFF224641496120FFF718FF224640496220FFF713FF224608216320FFF70EFF61
:400D000022466FF080616420FFF708FF224639496520FFF703FF224637496620FFF7FEFE224636496720FFF7F9FE224634496820FFF7F4FE22464FF477016920FFF7EEFE85
:400D4000224630496C20FFF7E9FE224600216D20FFF7E4FE224600216E20FFF7DFFE224629497020FFF7DAFE224600212120FFF7D5FE22464FF6FF712420FFF7CFFE2246FA
:400D80004FF6FF712520FFF7C9FE22464FF6FF712620FFF7C3FE224600212720FFF7BEFE22464FF6FF712820FFF7B8FE22464FF6FF712A20FFF7B2FE224665212B20FFF793
:400DC000ADFE224600212020FFF7A8FE10BD00BF06060100000408000103070001010700000107000105070054B5AAAAAA54954A292949247D77BBB55655294922424000F7
:400E00005680FFFF530141001E000CC430B583B0044602AD002305F8013D4FF4FA7004F023F92A4621460420FFF702FE642004F01BF92A4621460420FFF7FAFD09E00DF1E3
:400E4000070221462120FFF7F3FD4FF4FA7004F00BF99DF8073013F0200FF0D0002003B030BD00BF000000002DE9F041074608F0E7FA574B996A08F0EBFB08F085FC064644
:400E8000FFF78CFA5348FFF7ABFA534B1869FFF783FC5248FFF7A4FA00243FE05048FFF79FFA2046FFF778FC4C48FFF799FAFFF775FA494B1D69751BB5F5FA6F03DB022045
:400EC0009863BDE8F081284608F0BAFA404B996A08F00AFB08F058FC804685EAE573A3EBE573042B18DD3F48FFF77AFA2846FFF753FC3A48FFF774FA002107EB0800FFF7BE
:400F00002DFE0020FFF782FF322004F0ADF8002239462120FFF702FE0134E4B2052CBDD9FFF73CFA2C4B1B69F61A052C46D986EAE673A3EBE673072B1BDD06F2CF7140F6CB
:400F40009E72914215D82848FFF74AFA3046FFF723FC2648FFF744FA1F4C2069FFF71CFC1E48FFF73DFAFF2006F06AF90123A36324E0B3F5FA6F06DD1D48FFF731FA0222F1
:400F8000154B9A631AE01B48FFF72AFA124D0024AC63FFF703FA286907F0EAFD0AA3D3E9002307F04BFE08F0F9F8224601462120FFF7B4FD4FF4FA7004F056F8064B986BDA
:400FC000BDE8F081AFF300809A99999999992940D080FF1FB0A30000BC81FF1F98A20000D0A30000E0A30000FCA300002CA4000040A4000070A4000070B50446FFF76AFC3B
:4010000028B3012215491020FFF788FD022214491020FFF783FD002212491020FFF77EFD114E0025B563FFF7B9F929462046FFF795FD2846FFF7EAFE322004F015F80B48D1
:40104000FFF7CEF92046FFF70FFFB06B70BD0848FFF7C6F92020044B986370BD030107000201070005030700BC81FF1F98A1000084A40000000000002DE9F041074607F0DA
:4010800077FD51A3D3E9002307F002FF08F086F80646FFF783F94E48FFF7A2F94D4B9869FFF77AFB4C48FFF79BF9002443E04B48FFF796F92046FFF76FFB4948FFF790F93F
:4010C000FFF76CF9434B9D69751B284607F050FD3DA3D3E9002307F0B1FD08F05FF88046B5F57A6F03DB09223A4B9A6325E085EAE573A3EBE573032B1BDD3A48FFF770F96F
:401100002846FFF749FB3648FFF76AF9012107EB0800FFF723FD0120FFF778FE322003F0A3FF012239462120FFF7F8FCC82003F09BFF0134E4B2052CB9D9FFF72FF9254B2C
:401140009B69F61A032C39D986EAE673A3EBE673052B1BDD06F2CF7140F69E72914215D82148FFF73DF93046FFF716FB1F48FFF737F9184CA069FFF70FFB1948FFF730F978
:40118000FF2006F05DF80823A36317E0B3F5FA6F06DD1748FFF724F909220E4B9A630DE01448FFF71DF900220A4B9A63012239462120FFF7B3FCC82003F056FF054B986BE2
:4011C000BDE8F081AFF300809A9999999999294094A40000BC81FF1FB4A40000B8A4000098A20000C8A40000E4A400002CA4000014A5000044A5000038B50446FFF76AFB3E
:4012000010B3002214491020FFF788FC022213491020FFF783FC012211491020FFF77EFC104D0023AB63FFF7B9F801212046FFF795FC0120FFF7EAFD322003F015FF20467F
:40124000FFF71AFFA86B38BD0748FFF7C9F82020044B986338BD00BF030107000201070005030700BC81FF1F84A40000000000002DE9F041074607F07BFC4FA3D3E9002399
:4012800007F006FE07F08AFF0646FFF787F84C48FFF7A6F84B4B5868FFF77EFA4A48FFF79FF8002540E04948FFF79AF82846FFF773FA4548FFF794F8FFF770F8414B5C68FB
:4012C000341B204607F054FC3BA3D3E9002307F0B5FC07F063FF8046B4F57A6F03DB1022384B9A6322E084EAE473A3EBE473012B18DD3748FFF774F82046FFF74DFA324881
:40130000FFF76EF8022107EB0800FFF727FC0220FFF77CFD322003F0A7FE022239462120FFF7FCFB0135EDB2052DBCD9FFF736F8244B5B68F61A032D39D986EAE673A3EB34
:40134000E673072B1BDD06F69F7141F63E72914215D82048FFF744F83046FFF71DFA1E48FFF73EF8174C6068FFF716FA1648FFF737F8FF2005F028FD0F23A36317E0B3F5C4
:401380007A6F06DD1548FFF72BF810220D4B9A630DE01348FFF724F800220A4B9A63022239462120FFF7BAFBC82003F05DFE054B986BBDE8F08100BF9A99999999992940A9
:4013C00058A50000BC81FF1F98A2000078A50000C8A4000088A500002CA40000B8A50000E8A5000038B505461B4C012221461020FFF794FB002221461020FFF78FFB0222B0
:4014000016491020FFF78AFB154B586A4042FEF7A3FFFFF75FFAB8B1114C0023A363FEF7BDFF02212846FFF799FB0220FFF7EEFC322003F019FE2846FFF71AFFFEF7AEFFE0
:4014400063686362A06B38BD0648FEF7C9FF2020034B986338BD00BF0301070002020700BC81FF1F84A40000F8B5074607F080FB33A3D3E9002307F00BFD07F08FFE06460B
:4014800000252BE0FEF78AFF2F4B1C6A341B204607F06EFB2AA3D3E9002307F0CFFB07F07DFEB4F57A6F03DB1722274B9A6317E0002CB8BF6442042C0EDD03213844FFF781
:4014C0004DFB0320FFF7A2FC322003F0CDFD032239462120FFF722FB0135EDB2032DD1D9FEF75CFF184B186A301A032D22D980EAE073A3EBE073092B0CDD00F69F7041F696
:401500003E72904206D81148FEF76AFF16220E4B9A630FE0B3F57A6F06DD0D48FEF760FF1722094B9A6305E00A48FEF759FF0022054B9A63044B986BF8BD00BFAFF3008095
:401540009A99999999990940BC81FF1FFCA5000018A6000048A6000038B50446002005F0A5FE4FF47A7003F07FFD1B4B986A4042FEF7E6FEFFF7AEF918B3174D0023AB6398
:40158000FEF70CFF1548FEF72BFF03212046FFF7E5FA0320FFF73AFC322003F065FD2046FFF7FAF80E48FEF71BFF2046FFF75CFFFEF7F4FE2B6AAB62642003F055FDA86B8B
:4015C00038BD0848FEF70CFF034C2023A363642003F04AFDA06B38BDBC81FF1F5CA6000098A1000084A40000F8B506460D461446FEF7D4FE2B4F012239461020FFF78EFA5B
:40160000002239461020FFF789FA022226491020FFF784FAC82003F027FD2448FEF7E0FE002E03DB00213046FFF798FA002D03DB01212846FFF792FA002C08DB1C4B586A6B
:401640004042FEF789FE02212046FFF787FA002E02DB0020FFF7DAFB002D02DB0120FFF7D5FB002C02DB0220FFF7D0FB002E02DB3046FFF7F9FB002D02DB2846FFF7FCFCC8
:40168000002C07DB2046FFF7F3FDFEF787FE084B5A685A62FEF782FE322003F0E5FC0020F8BD00BF020307000202070078A60000BC81FF1F08B50A4601462720FFF72EFA0D
:4016C000002008BD2DE9F041044600226B491020FFF724FA21464FF49620FFF7EBFF224602212020FFF71AFAC82003F0BDFC644D2A4621460420FFF79BF94FF4FA7003F0DB
:40170000B3FC2A4621460420FFF792F95D48FEF767FE2DE005F044FF5B4805F06DFF584A21460420FFF784F9642003F09DFC574B9B78EBB1554D0420A863FEF791FE05F0EB
:40174000D5FE224600212020FFF7E8F9224600212120FFF7E3F9224600212D20FFF7DEF90023AB70AB634A48FEF73AFEBDE8F081434B1B7813F0400FCCD005F0B7FE434D4D
:401780000026AE704348FEF72BFE224631462120FFF7C4F90A2003F067FC224631462120FFF7BCF9304605F049F9012785F83C7085F8347085F83D7085F83F70642003F032
:4017C00053FC4FF44840FFF717FC3348FEF708FEA86BFEF7E1FF3148FEF702FE95F8403085F83C3095F8413085F8343095F8423085F83D3095F8433085F83F30642003F0E9
:4018000033FC224631462120FFF788F9224631462D20FFF783F921462148FFF74BFF224696210B20FFF77AF9DFF88080224641461020FFF773F9AE63304605F0FFF885F839
:401840003C7085F840701748FEF7CAFD164C3A4621461020FFF762F9022241461020FFF75DF9324621461020FFF758F9032221461020FFF753F9BDE8F08100BF030507004B
:40188000CF80FF1F94A60000A5010000BC81FF1FB4A60000ECA6000008A7000098A20000FAD0050030A7000003010700010107002DE9F041044601226B491020FFF72EF93C
:4018C00021464FF49620FFF7F5FE224602212020FFF724F9322003F0C7FB644D2A4621460420FFF7A5F84FF4FA7003F0BDFB2A4621460420FFF79CF85D48FEF771FD2DE089
:4019000005F04EFE5B4805F077FE584A21460420FFF78EF8584B9B78EBB1574D0B20A863FEF79EFD05F0E2FD224600212020FFF7F5F8224600212120FFF7F0F82246002143
:401940002D20FFF7EBF80023AB70AB634B48FEF747FDBDE8F081642003F086FB434B1B7813F0400FCCD005F0C1FD434D0026AE704348FEF735FD224631462120FFF7CEF8F7
:401980000A2003F071FB224631462120FFF7C6F8304605F071FB012785F83C7085F8347085F83D7085F83F70642003F05DFB4FF49640FFF721FC3348FEF712FDA86BFEF7A9
:4019C000EBFE3148FEF70CFD95F8403085F83C3095F8413085F8343095F8423085F83D3095F8433085F83F30642003F03DFB224631462120FFF792F8224631462D20FFF77C
:401A00008DF821462148FFF755FE224631460B20FFF784F8DFF88080224641461020FFF77DF8AE63304605F027FB2E6185F8347085F841701648FEF7D3FC164C3A46214644
:401A40001020FFF76BF8022241461020FFF766F8324621461020FFF761F8032221461020FFF75CF8BDE8F08103020700CE80FF1F44A70000A5010000BC81FF1F64A70000C5
:401A80009CA70000B8A7000098A20000FAD00500E0A700000301070001010700F8B50446022269491020FFF739F821466748FFF701FE674B586A4042FEF74EFC22460221F1
:401AC0002020FFF72BF8322003F0CEFA614D2A4621460420FEF7ACFF4FF4FA7003F0C4FA2A4621460420FEF7A3FF5B48FEF778FC2BE005F055FD594805F07EFD554A2146D2
:401B00000420FEF795FF524B9B78DBB1504D1220A863FEF7A5FC05F0E9FC224600212020FEF7FCFF224600212120FEF7F7FF224600212D20FEF7F2FF0023AB704848FEF785
:401B40004FFCF8BD642003F08FFA424B1B7813F0400FCED005F0CAFC3D4D0026AE704148FEF73EFC224631462120FEF7D7FF3046FEF7F2FB6E620A2003F076FA2246314695
:401B80002120FEF7CBFF3046FEF7E6FB6E62012785F83C7085F8347085F83D7085F83F70642003F061FA4FF44840FFF71BFC2E48FEF716FCA86BFEF7EFFD2C48FEF710FCB1
:401BC000AE6395F8403085F83C3095F8413085F8343095F8423085F83D3095F8433085F83F30642003F040FA224631462120FEF795FF224631462D20FEF790FF214613486E
:401C0000FFF758FD3046FEF7A7FB6E6285F83D7085F842701648FEF7E3FB164C3A4621461020FEF77BFF022213491020FEF776FF324621461020FEF771FF032221461020C0
:401C4000FEF76CFFF8BD00BF030207006EA30100BC81FF1FCD80FF1FF4A70000A501000014A800004CA8000068A8000098A2000090A800000301070001010700F8B504462E
:401C8000002005F013FB4FF47A7003F0EDF921464FF44850FFF70EFD514B986A4042FEF74FFB224602212020FEF738FF322003F0DBF94C4D2A4621460420FEF7B9FE4FF4C6
:401CC000FA7003F0D1F92A4621460420FEF7B0FE29E005F065FC444805F08EFC414A21460420FEF7A5FE3E4B9B78CBB13C4D1620A863FEF7B5FB05F0F9FB224600212020CE
:401D0000FEF70CFF224600212120FEF707FF224600212D20FEF702FF0023AB70AB63F8BD642003F0A1F92F4B1B7813F0400FD0D005F0DCFB2A4D0026AE702246314621205A
:401D4000FEF7ECFE0A2003F08FF9224631462120FEF7E4FE3046FEF7F3FAAE62012785F83C7085F8347085F83D7085F83F70642003F07AF940F6D860FFF7EEFB95F8403084
:401D800085F83C3095F8413085F8343095F8423085F83D3095F8433085F83F30642003F063F9224631462120FEF7B8FE224631462D20FEF7B3FE21464FF44850FFF77AFC68
:401DC0003046FEF7BDFAAE6285F83F7085F843700648FEF705FB642003F046F9F8BD00BFBC81FF1FCD80FF1FA5010000A4A8000038B505460C46042200212020FEF78EFE9E
:401E0000042200212120FEF789FE04214DF2B710FFF750FC002005F055FA0F2003F00EF9012C03D8012003F009F900E00024012C00F29D80002C4DD104212846FEF78EFEE8
:401E4000564C224604210846FEF7F2FD4FF4FA7003F00AF9224604210846FEF7E9FD2EE005F09EFB4E4805F0C7FB4C4A04210846FEF7DEFD4B4B9B78F3B14FF61D20FEF722
:401E8000EFFA05F033FB042200212020FEF746FE042200212120FEF741FE042200212D20FEF73CFE3F4C0023A3702123A363FF2005F008FAA06B38BD642003F0D5F8374BF0
:401EC0001B7813F0200FCBD005F010FB0022354B9A704CE004216842FEF740FE2F4C224604210846FEF7A4FD4FF4FA7003F0BCF8224604210846FEF79BFD2EE005F050FBB2
:401F0000274805F079FB254A04210846FEF790FD244B9B78F3B14FF61D20FEF7A1FA05F0E5FA042200212020FEF7F8FD042200212120FEF7F3FD042200212D20FEF7EEFD07
:401F4000184C0023A3702123A363FF2005F0BAF9A06B38BD642003F087F8104B1B7813F0200FCBD005F0C2FA00220E4B9A7004210020FFF79FFB042200212120FEF7CEFDB2
:401F8000042200212020FEF7C9FD052003F056F8FF2005F097F9002038BD00BFCF80FF1FA5010000BC81FF1F70B506460D461446042200212020FEF7B1FD042200212120C3
:401FC000FEF7ACFD04212846FFF774FB002005F079F90A2003F032F8012C0FD83CB904213046FEF7BBFD0420FEF710FF06E004217042FEF7B3FD0420FEF708FF042100203D
:40200000FFF758FB042200212120FEF787FD042201212020FEF782FD052003F00FF8FF2005F050F9002070BDF8B506460C4617461D464FF0FF31FFF7D7FA00210698FFF79B
:4020400039FB02210798FFF735FB304606F090FD21A3D3E9002306F01BFF0022204B06F03BFC07F09BF81F4B586105F099FA1E4805F0C2FA00212046FEF770FD0221284618
:40208000FEF76CFD2E461DE0164BDB785BB10024144BDC70FF2005F0EDFA462002F0E4FF204605F0E7FA05F0D5FA58B9AE4202D0BE4203D101E03E4600E02E460221304693
:4020C000FEF74CFD05F0CEFA0028DDD105F00EFA0022044BDA70F8BD9A9999999999294000005240BC81FF1F41020000000000002DE9F04F83B005460E46144699460D9F66
:40210000FF2005F09DF8904B586A4042FEF724F904EBD474641004EB07083A1B4FF0FF312846FFF761FA00214846FFF7C3FA02210C98FFF7BFFAB54218DD284606F018FD5C
:402140007FA3D3E9002306F0A3FE82468B467F4B187906F00DFD02460B465046594606F0B9FB07F01BF8784B586115E0284606F0FFFC73A3D3E9002306F08AFE82468B4675
:40218000724B187906F0F4FC52465B4606F0A4FB07F004F86C4B586105F002FAB54203DD6B4805F029FA02E06A4805F025FA00213046FEF7D3FC02214046FEF7CFFC4FF07C
:4021C0000109A3E0604BDB7883B10A2002F04CFF4FF0000A5C4B83F803A0FF2005F04AFA3C2002F041FF504605F044FA05F032FA002840F08B800E9807F022F9824638467A
:4022000007F01EF90146504607F064F88246304607F016F98346284607F012F90146584607F058F80146504607F012FA834604F0EFFB4042DFF810A1CAF81000434B187935
:4022400000EB4000DAF81030184406F091FC3CA3D3E9002306F0F2FCCDE90001284606F087FC02460B46DDE9000106F033FBCDE90001584606F08EFCDDE9002306F0DEFCF0
:40228000CDE90001384606F073FCDDE9002306F023FB06F0CBFF834604F0CCFD404206F067FC27A3D3E9002306F0C8FCCDE90001404606F05DFCDDE9002306F00BFB06F09C
:4022C0006DFFCAF80400484606F052FC02460B460020214905F020FACDE90001204606F047FCDDE9002306F0A9FCCDE90001584606F050FCDDE9002306F0EEFA06F04EFF2D
:4023000080460221FEF72AFC09F1010905F0AAF900287FF457AF05F0E9F80B4C0025E570FF2004F08DFF04F085FD4042606063686362284604F084FF03B0BDE8F08F00BF53
:402340009A99999999992940BC81FF1FD080FF1F6D020000410200000000F0BF000000002DE9F04F83B005460F4614469946DDF83480FF2004F064FF914B586A4042FDF7BF
:40238000EBFF04EBD474641004EB0806C4EB080229464FF0FF30FFF727F901214846FFF789F902210C98FFF785F9BD4218DD284606F0DEFB80A3D3E9002306F069FD824625
:4023C0008B46804B187906F0D3FB02460B465046594606F07FFA06F0E1FE794B586115E0284606F0C5FB74A3D3E9002306F050FD82468B46734B187906F0BAFB52465B463F
:4024000006F06AFA06F0CAFE6D4B586105F0C8F8BD4203DD6C4805F0EFF802E06B4805F0EBF801213846FEF799FB02213046FEF795FB4FF0010AA5E0614BDB7883B10A200F
:4024400002F012FE4FF000095D4B83F80390FF2005F010F93C2002F007FE484605F00AF905F0F8F8002840F08D800E9806F0E8FF8146404606F0E4FF0146484606F02AFF7F
:402480008146384606F0DCFF8346284606F0D8FF0146584606F01EFF0146484607F0D8F8834604F0D3FD4042DFF81491C9F81800444B1879D9F8183003EB400006F058FB5A
:4024C0003DA3D3E9002306F0B9FBCDE90001284606F04EFB02460B46DDE9000106F0FAF9CDE90001584606F055FBDDE9002306F0A5FBCDE90001404606F03AFBDDE900235B
:4025000006F0EAF906F092FE834604F093FC404206F02EFB28A3D3E9002306F08FFBCDE90001304606F024FBDDE9002306F0D2F906F034FEC9F80400504606F019FB024664
:402540000B460020224905F0E7F8CDE90001204606F00EFBDDE9002306F070FBCDE90001584606F017FBDDE9002306F0B5F906F015FED9F80460064402213046FEF7EEFA5D
:402580000AF1010A05F05EF800287FF455AF04F0ADFF0B4C0025E570FF2004F051FE04F049FC4042606063686362284604F048FE03B0BDE8F08F00BF9A999999999929400F
:4025C000BC81FF1FD080FF1FC5020000990200000000F0BF000000002DE9F04F89B00446884692461D46129E169FFF2004F028FEA34B586A4042FDF7AFFE04EB0800504424
:40260000401900D50330801006F01AFF0190139BF018149B1844159BC01800D50330801006F00EFF8346204606F00AFF019906F051FE8146304606F003FFCDF808B05946C7
:4026400006F048FE0146484606F04EFF8346404606F0F6FE019906F03DFE8046139806F0EFFE029906F036FE0146404606F03CFF0146584606F030FE8346504606F0E0FEAF
:40268000019906F027FE8246149806F0D9FE029906F020FE0146CDF80CA0504606F024FF0146584606F018FE8246284606F0C8FE019906F00FFE8346159806F0C1FE0299C8
:4026C00006F008FE0146CDF810B0584606F00CFF0146504606F000FE05904FF0000A4FF0804B484606F056FA52465B4605F014F8CDE90601404606F04DFA52465B4605F0FE
:402700000BF802460B46DDE9060106F0E5F880468946039806F03EFA52465B4604F0FCFF02460B464046494606F0D6F880468946049806F02FFA52465B4604F0EDFF0246B4
:402740000B464046494606F0C7F806F06FFD0146059806F07DFF83460146019806F0C4FE0146029806F0B6FD824607EBD7725210B718B21A21464FF0FF30FEF735FF01217B
:402780001798FEF797FF02211898FEF793FF204606F0EEF938A3D3E9002306F079FB0022384B06F099F806F0F9FC354B586104F0F7FE354804F020FF01212846FEF7CEF909
:4027C00002213846FEF7CAF93DE02D4BDB785BB100242B4BDC70FF2004F04CFF462002F043FC204604F046FF04F034FF58BB04F021FB4042224C60606368FF1A04F026FC1E
:402800004042A061A06906F0B3F91BA3D3E9002306F014FA04460D46584606F0BBF922462B4606F00BFA04460D46504606F0B2F922462B4606F050F806F0B0FC0744022115
:402840003846FEF78BF904F0FDFE0028BDD104F04DFE0B4C0025E570FF2004F0F1FC04F0E9FA4042606063686362284604F0E8FC09B0BDE8F08F00BF9A9999999999094041
:40288000BC81FF1F0000524099020000000000002DE9F04F85B0064603908A4614461D46FF2004F0CDFC824B586A4042FDF754FD04EBD474631002930F9A9F180121284639
:4028C000FEF7F8FE02210E98FEF7F4FE304606F04FF9CDE9000172A3D3E9002306F0D8FA06F05CFC064604F05BFE724804F084FE02213846FEF732F94FF0010BA6E06C4BB6
:40290000DB7883B10A2002F0AFFB4FF00008684B83F80380FF2004F0ADFE3C2002F0A4FB404604F0A7FE04F095FE002840F08E80109806F085FD80460F9806F081FD014653
:40294000404606F0C7FC8046504606F079FD8146039806F075FD0146484606F0BBFC0146404606F075FE80464FA3D3E900232046294606F08DFA04460D46DFF8409199F80F
:40298000040000EB400006F0F3F822462B4605F0A3FF45A3D3E9002306F050F9DDE9002305F098FF04460D46404606F0F3F822462B4606F043F904460D460F9806F0D8F803
:4029C00022462B4605F088FF06F030FC804604F031FA404206F0CCF833A3D3E9002306F02DF904460D46384606F0C2F822462B4605F070FF06F0D2FB2D4F7860584606F0BB
:402A0000B7F802460B4600202B4904F085FE04460D46029806F0ACF822462B4606F00EF904460D46404606F0B5F822462B4605F053FF06F0B3FB7F68074402213846FEF74A
:402A40008DF80BF1010B99F804301E44304606F08FF804460D46504606F08AF810A3D3E9002306F015FA02460B462046294606F075FB00287FF443AF04F038FD0C4C002566
:402A8000E570FF2004F0DCFB04F0D4F94042606063686362284604F0D3FB05B0BDE8F08F9A999999999909409A99999999992940BC81FF1FC90100000000F0BFD080FF1F19
:402AC0002DE9F04F9BB00022D34B9A63D34A5178137803EB0123D24A13607A2B52D1D148FDF77EFCFF2004F0D5FB4FF4FA7002F0BBFAFF2004F0C2FB4FF4FA7002F0B4FA44
:402B0000002004F0AFFB4FF4FA7002F0ADFA0021C548FEF7CFFD012002F090FABE4D00246C642046FEF768FAC04E012231461020FDF7F4FF022231461020FDF7EFFF224675
:402B4000BB491020FDF7EAFF2046FEF7BBFD2246B8491020FDF7E2FF322002F06FFA204604F098FB322002F069FA204604F086FB4FF4FA7002F078FAAC64A86BFDF770FC13
:402B800001F0EBBA7B2B50D1AB48FDF729FCFF2004F080FB4FF4FA7002F066FAFF2004F061FB4FF4FA7002F05FFA002004F066FB4FF4FA7002F058FA01219B48FEF77AFDE1
:402BC000012002F03BFA0020FEF716FB01229B491020FDF7A3FF022294491020FDF79EFF944C002221461020FDF798FF0120FEF75FFE012221461020FDF790FF322002F0C0
:402C00001DFA002004F046FB322002F017FA002004F028FB322002F011FA7F4B0022DA64986BFDF71DFC01F098BA7C2B4AD18448FDF7D6FBFF2004F021FB4FF4FA7002F0AF
:402C400013FAFF2004F00EFB4FF4FA7002F00CFA002004F01FFB4FF4FA7002F005FA02217848FEF727FD012002F0E8F90020FEF7B9FB01226D491020FDF750FF02227249D6
:402C80001020FDF74BFF00226A491020FDF746FF0220FEF703FF322002F0D0F9002004F0EDFA322002F0CAF9002004F0DBFA322002F0C4F9584B00221A65986BFDF7D0FB50
:402CC00001F04BBA7D2B4FD1FF2004F0E3FA4FF4FA7002F0C9F9FF2004F0D0FA4FF4FA7002F0C2F9FF2004F0BDFA4FF4FA7002F0BBF9032255491020FDF710FF4FF4FA70CE
:402D000002F0B2F9002004F0D1FA0A2002F096F90020FEF721FC0320FEF7B0FF4FF47A7002F0A2F9FF2004F0C1FA4FF47A7002F09BF9002004F0AEFA4FF47A7002F094F9D0
:402D4000002004F09BFA4FF47A7002F08DF9002004F088FA4FF47A7002F086F92E4B986BFDF77EFB01F0F9B9B3F5F46F78D13848FDF736FB294A517913791B0403EB016312
:402D8000D17803EB012392781344234C63653148FDF726FB606DFDF7FFFC2F48FDF720FBA26C636D9A422BD0A3641846002B00DAD81C194C801005F0DBFE15A3D3E90023E3
:402DC00005F03CFF06F0EAF96065FEF715F9A0630A2002F033F9214C012221461020FDF79DFE022221461020FDF798FE002221461020FDF793FE032221461020FDF78EFE42
:402E0000054B986BFDF72CFB01F0A7B9AFF300809A99999999992940BC81FF1F6C82FF1FEC82FF1FB8A80000FAD00500010107000704070001030700D0A8000003020700E5
:402E4000E8A800006EA30100030307000105070000A9000018A9000098A2000002010700B3F5F66F4ED18E48FDF7BAFA8D4A517913791B0403EB0163D17803EB012392783B
:402E80001344894CA3658948FDF7AAFAA06DFDF783FC8748FDF7A4FAE26CA36D9A422BD0E3641846002B00DAD81C7F4C801005F05FFE77A3D3E9002305F0C0FE06F06EF90B
:402EC000A065FEF799F9A0630A2002F0B7F8794C012221461020FDF721FE022221461020FDF71CFE002221461020FDF717FE032221461020FDF712FE6B4B986BFDF7B0FA44
:402F000001F02BB9B3F5FA6F3BD16B48FDF768FA02216A48FEF7CEFB624A517913791B0403EB0163D17803EB0123927813445E4CE3655E48FDF754FAE06DFDF72DFC5C48EC
:402F4000FDF74EFA226DE36D9A4214D023651846002B01DA03F10F00534C001105F008FE4DA3D3E9002305F069FE06F017F9E065FEF738FAA0634C4B986BFDF771FA01F052
:402F8000ECB8B3F5FC6F5BD14D48FDF729FAFF2004F080F94FF4FA7002F066F8FF2004F06DF94FF4FA7002F05FF8FF2004F05AF94FF4FA7002F058F8032242491020FDF761
:402FC000ADFD4FF4FA7002F04FF8002004F06EF90A2002F033F8334A517913791B0403EB0163D07803EB0023907818442E4C2066FEF7B2FAA0634FF47A7002F035F8FF206F
:4030000004F054F94FF47A7002F02EF8002004F041F94FF47A7002F027F8002004F02EF94FF47A7002F020F8002004F01BF94FF47A7002F019F8A06BFDF712FA01F08DB873
:403040007E2B43D12048FDF7CBF9164A517913791B0403EB0163D17803EB012394781C449379012B03D80A2001F0FEFF02E000220C4B9A710B4B99792046FEF7B9FE0A4B25
:40308000986BFDF7EDF901F068B800BFAFF300809A999999999929409A9999999999494030A900006C82FF1FBC81FF1F18A9000098A200000201070048A900006EA30100D9
:4030C00060A900000105070078A90000B3F5F86F40F0A4800221A848FEF7ECFAA748FDF77FF9A74B59791A79120402EB0162D97802EB012298781044A24C6065597A1A7A51
:40310000120402EB0162D97902EB012299791144A1655D7B1A7B120402EB0562DD7A02EB05229B7A1344E365A26C904202D14FF0FF306065934AD26C914203D14FF0FF314D
:40314000904A91658F4A126D934203D14FF0FF328C4BDA658B4B5B6D002B10DB894A9364184600DAD81C801005F002FD7EA3D3E9002305F063FD06F011F8824B5865814B20
:403180009B6D002B10DB7F4AD364184600DAD81C801005F0EDFC74A3D3E9002305F04EFD05F0FCFF774B9865764BDB6D002B11DB744A1365184601DA03F10F00001105F0DA
:4031C000D7FC6BA3D3E9002305F038FD05F0E6FF6C4BD8656B4CE26DA16D606DFEF704FAA0630A2001F02AFF674D012229461020FDF794FC022229461020FDF78FFC00229E
:4032000029461020FDF78AFC032229461020FDF785FCA06BFDF724F900F09FBFB3F5F44F0DD15A48FDF7DCF8FDF70AFB642001F005FF544B986BFDF713F900F08EBFB3F5A6
:40324000FE4F0DD15248FDF7CBF8FDF7C1FA642001F0F4FE4B4B986BFDF702F900F07DBFB3F5FC4F15D14B48FDF7BAF8444B9C7834B1012C03D04848FDF7B2F800E0FF243D
:40328000204603F095FD3F4B986BFDF7E9F800F064BFFF2B14D14148FDF7A2F84048FDF79FF84FF4FA7001F0C9FE0020FDF7D8F84FF4FA7001F0C2FE01F0B8FE00F04DBF2B
:4032C000B3F5F64F76D12E4B59791A79120402EB0162D97802EB012299780A44314CE261597A1A7A120402EB0162D97902EB012299790A442262597B1A7B120402EB0162F4
:40330000D97A02EB01229B7A1A4462622648FDF767F80021E069FEF7CDF90121206AFEF7C9F90221606AFEF7C5F92048FDF758F8E069FDF731FA1E4D2846FDF751F8206A56
:40334000FDF72AFA2846FDF74BF8606AFDF724FA2846FDF745F80B4B986BFDF781F800F0FCBE00BFAFF300809A999999999929409A999999999949406EA3010094A9000055
:403380006C82FF1FBC81FF1F03010700B0A90000D0A90000F0A9000010AA000038AA000014A30000D080FF1F58AA000080AA0000A8AA000040F2D172934240F08D80BA4C64
:4033C00000232380B948FDF70BF8208805F0D0FB0022B74B05F032FC05F0E0FEFDF7DCF9B448FCF7FDFFB44B59791A79120402EB0162D97802EB012299780A44E265597A35
:403400001A7A120402EB0162D87902EB002298791044AA4B58620221FEF74CF9E06D236DC31A002BB8BF5B42B3F5FA7F13DB206506F006F805F0AEFB0022A14B05F0FEFBA6
:4034400097A3D3E9002305F0F9FB05F0A7FEE065FDF7C8FF38E0944C206505F0F1FF05F099FB0022964B05F0E9FB8DA3D3E9002305F0E4FB05F092FEE065904B1B68034497
:40348000A360904D012229461020FDF747FB002229461020FDF742FB02228B491020FDF73DFB606A4042FCF757FF0023A363FCF775FF0221E06DFDF751FB0220FDF7A6FC61
:4034C000FCF76CFF63686362774B00221A80986BFCF7C6FF00F041BE40F2DD72934240F0B880714C00232380734B59791A79120402EB0162D97802EB012299780A44E265E5
:40350000597A1A7A120402EB0162D97902EB01229D791544694E7562987A05F091FF05F039FB0022664B05F089FB5DA3D3E9002305F084FB05F032FE306002212846FEF7C5
:40354000B9F8E06D236DC31A002BB8BF5B42B3F5FA7F16DB206505F073FF05F01BFB0022574B05F06BFB4EA3D3E9002305F066FB05F014FEE06533680344A360FDF732FFFD
:403580005FE0494C206505F05BFF05F003FB00224B4B05F053FB42A3D3E9002305F04EFB05F0FCFDE065454B1B680344A360454D012229461020FDF7B1FA0022294610202F
:4035C000FDF7ACFA022240491020FDF7A7FA606A4042FCF7C1FE0023A363FCF7DFFE208805F0C6FA0022324B05F028FB05F0D6FDFDF7D2F82F48FCF7F3FE03F0D1FF334895
:4036000003F0FAFF0221E06DFDF7A8FA0EE0264B1B7B5BB1FF2004F02DF8462001F024FD002004F027F800221F4B1A7304F012F80028ECD103F05AFFFCF7B0FE1A4B5A68A4
:403640005A62194B00221A80986BFCF709FF00F084BD40F2D27293423AD1174B59791A79120402EB0162D97802EB0122987810440D4C6066597A1A7A120402EB0162D979B9
:4036800002EB012299791144A1669A7AE266FEF78BFC0020A063FCF7E3FE00F05EBD00BF9A99999999994940BC81FF1FACAA00000000044074A900006C82FF1FD080FF1F47
:4036C0000000B03F0101070002020700E901000040F2C172934240F09680834B59791A79120402EB0162D97802EB0122997811447E4D6965587A1A7A120402EB0062D87948
:4037000002EB002298790244AA65587B1A7B120402EB0062D87A02EB0022987A0244EA656964597C1A7C120402EB0162D97B02EB0122997B0A446E4CE261597D1A7D12045B
:4037400002EB0162D97C02EB0122997C0A442262597E1A7E120402EB0162D97D02EB01229B7D1A4462620A2001F07EFC0021E069FDF7A0FF0121206AFDF79CFF0221606A7E
:40378000FDF798FF686D002800DA0330574C801005F0EEF950A3D3E9002305F04FFA05F0FDFC6065A06D002800DA03304F4C801005F0DEF948A3D3E9002305F03FFA05F07C
:4037C000EDFCA065E06D002800DA0F30474C001105F0CEF942A3D3E9002305F02FFA05F0DDFCE065642001F03FFCE26DA16D606DFDF7FAFEA063642001F020FCA06BFCF7A0
:403800002FFE00F0AABCB3F5F84F04D10020FCF727FE00F0A2BCFE2B10D1FF2003F010FD3448FCF7DDFD0A2001F008FC0020FCF717FE002003F004FD00F08FBC43F27332D9
:40384000934259D1284BDA781592197916915C7917949D791895DE7900961E7A01965E7A02969E7A0396DE7A04961E7B05965A7B997BD87B1C7C5D7C9E7CDF7C93F814E05D
:4038800093F815C093F8168093F8179093F818A093F819B09B7E1393CDF848B0CDF844A0CDF84090CDF83C80CDF838C0CDF834E00C970B960A950994089007910692189BF2
:4038C000179A1699159800F041FE0020FCF7C8FD00F043BCAFF300809A999999999929409A999999999949406C82FF1FBC81FF1FD080FF1FB0AA000047F28332934240F061
:403900009280A94B59791A79120402EB0162D97802EB012299781144587A1A7A120402EB0062DC7902EB04229C791444587B1A7B120402EB0062DD7A02EB05229D7A1544A7
:40394000587C1A7C120402EB0062D87B02EB002293F80E8090440846002900DAC81C801005F006F98CA3D3E9002305F067F905F015FC06462046002C00DAE01C801005F0CE
:40398000F7F885A3D3E9002305F058F905F006FC04462846002D01DA05F10F00001105F0E7F87FA3D3E9002305F048F905F0F6FB07464046B8F1000F01DA08F10F0000118E
:4039C00005F0D6F876A3D3E9002305F037F905F0E5FB0546744B597D1A7D120402EB0162D97C02EB0122997C11447048C16193F819E01A7E120402EB0E6293F817E002EB8E
:403A00000E229B7D1A444262019200912B463A4621463046FEF708FB654B1D659C640020FCF71EFD99E348F28332934240F0C2805D4B59791A79120402EB0162D97802EB8F
:403A4000012299781144587A1A7A120402EB0062DE7902EB06229E791644587B1A7B120402EB0062DD7A02EB05229D7A1544587C1A7C120402EB0062DC7B02EB04229C7B1D
:403A800014444A4BDC610846002900DAC81C801005F06EF840A3D3E9002305F0CFF805F07DFB80463046002E00DAF01C801005F05FF839A3D3E9002305F0C0F805F06EFBDF
:403AC0000646284605F0BCFC4FF0765105F00CFD05F060F832A3D3E9002305F0AFF805F05DFB0746304B597D1A7D120402EB0162DD7C02EB05229D7C15442C494D62587EFD
:403B00001A7E120402EB0062D87D02EB002293F816E09644587F1A7F120402EB0062D87E02EB002293F81A9091449B7F0B717046BEF1000F01DA0EF10F00001105F018F87C
:403B400017A3D3E9002305F079F805F027FB82464846B9F1000F01DA09F10F00001105F007F80FA3D3E9002305F068F805F016FB81460290CDF804A0009523463A46314694
:403B80004046FEF7B5FA4F44094B1F659E640020FCF766FCE1E200BF9A999999999929409A999999999949406C82FF1FD080FF1FBC81FF1F47F27332934240F0C3805E4BB3
:403BC00059791A79120402EB0162D97802EB012299781144587A1A7A120402EB0062DE7902EB06229E791644587B1A7B120402EB0062DD7A02EB05229D7A1544587C1A7C79
:403C0000120402EB0062DC7B02EB04229C7B14444A4BDC610846002900DAC81C801004F0A7FF41A3D3E9002305F008F805F0B6FA80463046002E00DAF01C801004F098FF4D
:403C400039A3D3E9002304F0F9FF05F0A7FA0646284605F0F5FB4FF0765105F045FC04F099FF33A3D3E9002304F0E8FF05F096FA0746314B597D1A7D120402EB0162DD7C96
:403C800002EB05229D7C15442C494D62587E1A7E120402EB0062D87D02EB002293F816E09644587F1A7F120402EB0062D87E02EB002293F81A9091449B7F0B717046BEF189
:403CC000000F01DA0EF10F00001104F051FF18A3D3E9002304F0B2FF05F060FA82464846B9F1000F01DA09F10F00001104F040FF0FA3D3E9002304F0A1FF05F04FFA814688
:403D00000290CDF804A0009523463A4631464046FEF726FB4F440A4B1F659E640020FCF79FFB1AE2AFF300809A999999999929409A999999999949406C82FF1FD080FF1F24
:403D4000BC81FF1F49F29332934240F043819E4B59791A79120402EB0162D97802EB012299781144587A1A7A120402EB006293F8079002EB092293F806909144587B1A7B41
:403D8000120402EB006293F80B8002EB082293F80A809044587C1A7C120402EB0062DF7B02EB07229F7B1744587D1A7D120402EB0062DE7C02EB06229E7C1644587E1A7EB2
:403DC000120402EB0062DD7D02EB05229D7D1544587F1A7F120402EB0062DC7E02EB04229C7E144493F8210093F82020120402EB0062D87F02EB0022987F0244159293F8F8
:403E0000250093F82420120402EB006293F8230002EB002293F822000244169293F8290093F82820120402EB006293F827A002EB0A2293F826A092446448C0F81CA093F8A8
:403E40002DE093F82C20120402EB0E6293F82BB002EB0B2293F82AB09344C0F824B00846002900DAC81C801004F082FE52A3D3E9002304F0E3FE05F091F917904846B9F163
:403E8000000F01DA09F10300801004F071FE4AA3D3E9002304F0D2FE05F080F918904046B8F1000F01DA08F10300801004F060FE41A3D3E9002304F0C1FE05F06FF919900F
:403EC0003846002F00DAF81C801004F051FE3AA3D3E9002304F0B2FE05F060F907463046002E01DA06F10F00001104F041FE34A3D3E9002304F0A2FE05F050F9064628464E
:403F0000002D01DA05F10F00001104F031FE2CA3D3E9002304F092FE05F040F905462046002C01DA04F10F00001104F021FE24A3D3E9002304F082FE05F030F90446159BCE
:403F40001846002B00DA0F30001104F011FE1CA3D3E9002304F072FE05F020F98046169805F06EFA4FF0765105F0BEFA04F012FE13A3D3E9002304F061FE05F00FF9814647
:403F8000CDF818B0CDF814A00490CDF80C800294019500963B46199A18991798FEF71CFB08EB09030A4A136597640020FCF758FAD3E000BFAFF300809A99999999992940F5
:403FC0009A999999999949406C82FF1FD080FF1FBC81FF1F41F21002934240F0B380644B59791A79120402EB0162D97802EB012299781144587A1A7A120402EB0062DE79EC
:4040000002EB06229E791644587B1A7B120402EB0062DD7A02EB05229D7A1544587C1A7C120402EB0062DC7B02EB04229C7B1444504BDC610846002900DAC81C801004F019
:4040400097FD47A3D3E9002304F0F8FD05F0A6F880463046002E00DAF01C801004F088FD3FA3D3E9002304F0E9FD05F097F80646284605F0E5F94FF0765105F035FA04F044
:4040800089FD39A3D3E9002304F0D8FD05F086F80746374B597D1A7D120402EB0162DD7C02EB05229D7C154432494D62587E1A7E120402EB0062D87D02EB002293F816E020
:4040C0009644587F1A7F120402EB0062D87E02EB002293F81A9091449B7F0B717046BEF1000F01DA0EF10F00001104F041FD1EA3D3E9002304F0A2FD05F050F882464846A6
:40410000B9F1000F01DA09F10F00001104F030FD15A3D3E9002304F091FD05F03FF881460290CDF804A0009523463A4631464046FEF7AEFB4F44104B1F659E640020FCF709
:404140008FF90AE013240C4B9C630C48FCF748F9FCF7AEFB2046FCF783F91BB0BDE8F08F9A999999999929409A999999999949406C82FF1FD080FF1FBC81FF1FD0AA0000E9
:4041800010B440F0E000044C43EA0023238041EA0222628010BC70472C82FF1F38B50546082313E05C1E45FA04F000F0010003F031FA002003F03AFA012000F055FF012089
:4041C00003F034FA012000F04FFFE3B2002BE9D138BD00BF38B505469DF81000FFF7D0FF01220F4B1A7012E00E4C2088000AFFF7D5FF2078FFF7D2FF6088000AFFF7CEFF8C
:40420000A078FFF7CBFF064A137801331370044B1B78AB42E8D90022014B1A7038BD00BFF482FF1F2C82FF1F2DE9F04182B004460D4616461F469DF820800020FFF7AEFFA9
:404240000020FFF7ABFF0020FFF7A8FF0020FFF7A5FF0122BC4B1A700FE0E020FFF79EFF0020FFF79BFF0020FFF798FF0020FFF795FFB54A137801331370B34B1B782D2BA0
:40428000EBD9FF20FFF78AFFFF20FFF787FFFF20FFF784FFFF20FFF781FF072C00F25181DFE814F0080031005A008300AC00D500FE0027010020FFF771FF0020FFF76EFF4C
:4042C0000020FFF76BFF0020FFF768FF002400942346224621462D20FFF77CFFE02300932346224621462046FFF774FFFF20FFF755FFFF20FFF752FFFF20FFF74FFFFF2025
:40430000FFF74CFF1DE10020FFF748FF0020FFF745FF0020FFF742FF0020FFF73FFFCDF800803B46324629462D20FFF753FFE023009300231A4619461846FFF74BFFFF2065
:40434000FFF72CFFFF20FFF729FFFF20FFF726FFFF20FFF723FFF4E00020FFF71FFF0020FFF71CFF0020FFF719FF0020FFF716FFCDF800803B46324629460720FFF72AFFE9
:40438000E023009300231A4619461846FFF722FFFF20FFF703FFFF20FFF700FFFF20FFF7FDFEFF20FFF7FAFECBE00020FFF7F6FE0020FFF7F3FE0020FFF7F0FE0020FFF7F2
:4043C000EDFECDF800803B46324629460F20FFF701FFE023009300231A4619461846FFF7F9FEFF20FFF7DAFEFF20FFF7D7FEFF20FFF7D4FEFF20FFF7D1FEA2E00020FFF703
:40440000CDFE0020FFF7CAFE0020FFF7C7FE0020FFF7C4FECDF800803B46324629461720FFF7D8FEE023009300231A4619461846FFF7D0FEFF20FFF7B1FEFF20FFF7AEFE51
:40444000FF20FFF7ABFEFF20FFF7A8FE79E00020FFF7A4FE0020FFF7A1FE0020FFF79EFE0020FFF79BFECDF800803B46324629461E20FFF7AFFEE023009300231A46194696
:404480001846FFF7A7FEFF20FFF788FEFF20FFF785FEFF20FFF782FEFF20FFF77FFE50E00020FFF77BFE0020FFF778FE0020FFF775FE0020FFF772FECDF800803B46324611
:4044C00029462620FFF786FEE023009300231A4619461846FFF77EFEFF20FFF75FFEFF20FFF75CFEFF20FFF759FEFF20FFF756FE27E00020FFF752FE0020FFF74FFE00209F
:40450000FFF74CFE0020FFF749FECDF800803B46324629462D20FFF75DFEE023009300231A4619461846FFF755FEFF20FFF736FEFF20FFF733FEFF20FFF730FEFF20FFF78D
:404540002DFE02B0BDE8F081F482FF1F2DE9F04F93B00290039104921C469DF870509DF874609DF878709DF87C3005939DF8803006939DF8843007939DF8883008939DF8AC
:404580008C3009939DF890300A939DF894300B939DF898300C939DF89C300D939DF8A0300E939DF8A4300F939DF8A83010939DF8AC3011939DF8B0809DF8B4909DF8B8A0FC
:4045C0009DF8BCB00020FFF7E9FD0020FFF7E6FD0020FFF7E3FD0020FFF7E0FD0122814B1A700FE0E020FFF7D9FD0020FFF7D6FD0020FFF7D3FD0020FFF7D0FD794A1378A8
:4046000001331370774B1B782D2BEBD9FF20FFF7C5FDFF20FFF7C2FDFF20FFF7BFFDFF20FFF7BCFD0020FFF7B9FD0020FFF7B6FD0020FFF7B3FD0020FFF7B0FD049B039AAE
:4046400002992046FFF79CFD0122664B1A70AAE0072B0ED8644C2088000AFFF79FFD2078FFF79CFD6088000AFFF798FDA078FFF795FD5C4B1A78A2F10803DBB2072B16D8EE
:40468000082A05D13B46324629460598FFF778FD554C2088000AFFF781FD2078FFF77EFD6088000AFFF77AFDA078FFF777FD4D4B1A78A2F11003DBB2072B16D8102A05D144
:4046C000089B079A06990998FFF75AFD464C2088000AFFF763FD2078FFF760FD6088000AFFF75CFDA078FFF759FD3E4B1A78A2F11803DBB2062B16D8182A05D10C9B0B9AE6
:404700000A990D98FFF73CFD374C2088000AFFF745FD2078FFF742FD6088000AFFF73EFDA078FFF73BFD2F4B1A78A2F11F03DBB2072B16D81F2A05D1109B0F9A0E9911982E
:40474000FFF71EFD284C2088000AFFF727FD2078FFF724FD6088000AFFF720FDA078FFF71DFD204B1A78A2F12703DBB2062B16D8272A05D153464A4641465846FFF700FD3E
:40478000194C2088000AFFF709FD2078FFF706FD6088000AFFF702FDA078FFF7FFFC114A1378013313700F4B1B782D2B7FF650AF00200C4B1870E0230093034602460146A2
:4047C000FFF708FDFF20FFF7E9FCFF20FFF7E6FCFF20FFF7E3FCFF20FFF7E0FC13B0BDE8F08F00BFF482FF1F2C82FF1FFEE700BFF0B40022174611E050F82760F3B226F0A0
:40480000FF0608E001EB420511F812406D78A5550132013BDBB2002BF4D10137252FEBD9F0BC7047064B1B78DBB203F00701054A11701B09013213704422034B1A70704774
:40484000CF0100496E5800407658004008B50A46002104F0F6FF08BD08B504F0E7FF08BD08B504F0E3FF08BD38B501222C4B1A8018232C490B7002310A8002310B70023191
:404880000A80294A137017210232118002321370332102321180023213700622234B1A705222A3F580731A70214B1B78DBB2214A13704FF4E262204B1A8041F25122023B62
:4048C0001A80002419250CE01C4B1B7803F0010343EA440404F003044FF4F07002F0D8FE013D0DB1032CEFD115B90320FFF77EFF134A4FF480731380072313700023114965
:404900000B7048200231087013700532137002220D4B1A700D4A137843F01F03137038BD80400040824000408A400040004300400F010049A146004022420040254200409D
:40494000044000400640004001400040A243004038B572B64C4A137843F00403137000240CE04A4D630019194A0011462A44084691882858FFF76AFF0134E4B2062CF0D93D
:4049800000240BE04149A3001819420088188022016BC06AFFF760FF0134E4B2002CF1D03A4C04F1380104F6B860FFF721FF384A384B1A60A2F5802203F500631A6002F107
:4049C000004203F520731A60334A137843F0020313701032137843F0020313702F4D2B7843F040032B70A2F58632513A137843F0100313700A2204F575612948FFF72CFF3A
:404A00000A2204F65C712748FFF726FF0A2204F668712548FFF720FF082204F674712348FFF71AFF0A2204F67C712148FFF714FF0A2204F688711F48FFF70EFF082204F6C3
:404A400094711D48FFF708FF0A2204F69C711B48FFF702FF082204F6A8711948FFF7FCFE184A137843F008031370174C61232370FFF7FAFEC1232370FFF7D4FE0E222946C0
:404A80001248FFF7EDFE38BDE8460040F8AA000004040444580C014003500140A043004000510040C0510040F05100401251004020510040305100404251004050510040DE
:404AC000625100402243004000480040B043004008B504F07FFE03680C2B00D1FEE7FEE708B5094B1A681044084BC31A802B02DC054B186005E004F06DFE0C2303604FF07B
:404B0000FF32104608BD00BF0C81FF1F3884FF1F08B5104E104D16E029686B68AC68002204E051F8040B43F8040B0432A242F8D1E868002203E0002143F8041B04328242AA
:404B4000F9D11035013E002EE6D104F049FEFBF799FAFEE701000000CCBD000008B5104A104B1A60104A136843F40073136000230AE0032B03D80D4A52F8231000E00C49D6
:404B80000C4A42F8231001332F2BF2D90A4B1A780A4B1A70074A0A4B1A60FFF7D9FE08BD0004FA050CED00E014ED00E000000000D14A00000080FF1FBC760040C080FF1F1B
:404BC00008ED00E0044A137803F0FE0300F0010018431070704700BF20510040044A137803F0FD03400000F0020018431070704720510040044A137803F0FB03800000F0A5
:404C00000400184310707047205100401022014B1A60704700E100E00822014B1A60704700E100E008B502F03BFD0C4A137843F0200313700332137843F0100313700132F8
:404C4000137843F01003137002F02EFD01F0C0FEFFF7DCFFFFF7E0FF08BD00BF906400401022014B1A60704780E100E00822014B1A60704780E100E010B5FFF7F1FF064BE2
:404C80001C78064A137803F009031C4300231370FFF7BCFF204610BD636400400183FF1F10B5FFF7E3FF064B1B78064A147804F040041C4300231370FFF7AEFF204610BD84
:404CC000646400400F83FF1F10B504462B4B1A7802F0FF0312B1013BDBB200E00423284A1278D2B29342F1D0FFF7BAFF254B1978254A137803F009030B4313701F4B1A78D2
:404D0000D2B21F4B1B78DBB29A4207D11E4B1B7813F0040F02D01D4B1C702CE0184A13780133DBB213701378DBB2042B02D90022134B1A70124B1A78D2B2104B1B78DBB282
:404D40009A420ED10D4A13780133DBB213701378DBB2042B02D90022084B1A7001220C4B1A70074B1B78DBB20A4AD4540A4A137843F004031370FFF749FF10BD0B83FF1FEC
:404D80000D83FF1F636400400183FF1F436400400A83FF1FFC82FF1F8364004010B5FFF765FF134B1A78D2B2124B1B78DBB29A4214D0114B1B7813F0FF0F0CD10C4A1378B9
:404DC0000133DBB213701378DBB2052B06D90022074B1A7002E00022074B1A70044B1B78DBB2064AD45CE4B2FFF716FF204610BD0E83FF1F0C83FF1FF882FF1F0483FF1F0E
:404E000008B501E00A4B1B780A4B1B7813F0200FF8D102F045FC084B1A7842F001021A701A7802F0FE021A7002F03EFC08BD00BF53640040646400409364004010B50F2248
:404E4000174B1A70174C102323600621042000F029F91549042000F011F9082323600721032000F01FF91149032000F007F9FFF7C7FF00240E4B1C700E4B1C700E4B1C7057
:404E80000E4B1C700E4B1C700E4B1C70FFF7F4FEFFF706FF0C4B1C70202201331A7010BD8064004080E100E0E94E0000894F0000F882FF1F0E83FF1F0C83FF1F0A83FF1F9D
:404EC0000B83FF1F0D83FF1F8364004008B5054B1B7823B9FFF7B2FF0122024B1A70FFF7A1FE08BD3882FF1F28E01F4B19781F4A137803F009030B431370137813F0040F7A
:404F000024D01B4B1B7813F0FF0F0CD1194A13780133DBB213701378DBB2042B06D90022144B1A7002E00022114B1A70114B1B78DBB2114AD35CDBB2104A13700D4B1A78EF
:404F4000D2B20F4B1B78DBB29A42CED1094B1A78D2B20B4B1B78DBB29A4204D1094A137803F0FB0313707047636400400183FF1F0A83FF1F0B83FF1FFC82FF1F436400409B
:404F80000D83FF1F83640040204B1A7820490B7803F0400313430B7032E01E4B1A78D2B21D490B780133DBB20B700B78DBB2052B02D90021184B1970174B1978C9B2174B7E
:404FC0001B78DBB299420ED114490B780133DBB20B700B78DBB2052B02D900210F4B197001210F4B19700C4B1B78DBB20D49CA54064B1A7806490B7803F0400313430B70F0
:40500000034B1B7813F0200FC7D17047646400400F83FF1F536400400C83FF1F0E83FF1FF882FF1F0483FF1F01BE7047024A137843F0010313707047F646004010B504467D
:4050400005E0084B186802F023FBA4F50044B4F5004FF6D8034B586800FB04F002F018FB10BD00BF1081FF1F08B5034B1B7A00FB03F002F00DFB08BD1081FF1F70B504461D
:405080000E46074B1D681F2802D90020FFF7CCFF04F01F04103455F8240045F8246070BD08ED00E038B504460D46072902D90020FFF7BAFF1F2C02D90020FFF7B5FF04F0EB
:4050C0001F0000F1604000F564406D01EDB2057038BD00BF134B1B78DBB20360124A127843EA02230360114A127843EA024303600F4A127843EA026303600E4B1B78DBB2AA
:4051000043600D4A127843EA022343600B4A127843EA024343600A4A127843EA02634360704700BF0301004904010049EC460040020100490101004900010049050100493C
:4051400006010049F8B502F0ABFA0546404A137843F0010313701032137843F00103137001273C4B1F700226943B1E7002F5E2521B32137803F07F0313700020FFF774FFB3
:40518000354C237803F0F9032370344A137803F0DF03137023783B4323703846FFF764FF2820FFF761FF2E4B1A7802F07F021A701A7802F0BF021A702378334323703046DE
:4051C000FFF752FF237843F0040323700023254A137001321370284602F066FA07211720FFF760FF20491720FFF748FF07211820FFF758FF1D491820FFF740FF0721152007
:40520000FFF750FF1A491520FFF738FF07210620FFF748FF17490620FFF730FF07210846FFF740FF14490720FFF728FF07210820FFF738FF11490820FFF720FF07210C207A
:40524000FFF730FF0E490C20FFF718FFF8BD00BFA54300409D6000409443004012600040F851004084600040CD5C0000B55A0000C95C0000295C0000595C00008D5C0000AA
:40528000695F000010B5002304E00124244AD4542344DBB2012BF8D9224B18700023224A1370224A1370224A1370224A1370224A1370224A1370224A1370224B4FF400025B
:4052C0001A604FF080721A604FF400121A6040221A6080221A604FF480721A6011B1012906D00BE0184A137803F0FE0313700AE0154A137843F00103137004E0124A1378A9
:4053000043F0010313700322104B1A708022203B1A70012002F0BCF904220D4B1A7010BDC083FF1F3383FF1F2883FF1F3A83FF1F4083FF1F2983FF1F3483FF1F5183FF1F3A
:405340002A83FF1F00E100E009600040286000401260004038B504460D46064B1B7823B9FFF7F0FE0122034B1A7029462046FFF789FF38BD3982FF1F002304E001210E4AB3
:40538000D1540B44DBB2012BF8D900230B4A13700B4A13700B4A13700B4A13700B4A13700B4A13700B4A137003220B4B1A708022203B1A70704700BFC083FF1F2883FF1FB8
:4053C0003A83FF1F4083FF1F2983FF1F3483FF1F5183FF1F2A83FF1F28600040014B1878704700BF4083FF1F064B1B7813F0FF0F05D0044B1878C0B200221A7070470020FC
:40540000704700BF3A83FF1F00EB40008300024A13445878704700BF5483FF1F431EDBB2072B0BD8064B00011A18185C00F00F00537843EA0020023880B270470020704783
:40544000FC5F0040431EDBB2072B3CD8F0B4074600EB4004A3001C4C2344DB889BB2C3F500739A4208D900EB400293002344DA8892B2C2F5007292B200EB4004A300124CC9
:405480002344DB7843EA1223104D04012E192B55D3B2737039B909E0CE5C3D010C4C665501339BB200E000239A42F5D8420002449300054A134400225A705A79D2B20001B7
:4054C000044B1A54F0BC70475483FF1FFC5F004078600040FE5F0040431EDBB2072B0BD8420002449300054A134400225A705A79D2B20001024B1A54704700BF5483FF1F19
:40550000FE5F004070B5D9B1054614460E46C8B1082819D8FFF782FFA04203D22846FFF77DFF0446002305E02901094A525CF25401339BB2A342F7D32846FFF7CDFF04E077
:40554000002402E0002400E00024204670BD00BF786000404FF40012014B1A60704700BF00E100E010B4FF2400230EE0094AD25C02EB42029100084A11448A7AD2B2824213
:4055800001D11C4602230133DBB2012BEED9204610BC70471483FF1F5483FF1F10B5204C2079FFF7DFFF237813F0800F0ED06378DBB2212B2FD11B4B07221A80C0EBC0005A
:4055C000194A1044586000F0E3FA10BD144B5B78DBB2202B02D0222B10D01EE0114A07231380C0EBC00310490B4453600F4A135C43F00103135400F0F3FA10BD084B9B7844
:405600000B4A22F81030094A135C43F00203135400F07CF910BD002010BD002010BD00BF006000404483FF1F2081FF1F2483FF1F1083FF1F10B500241F4B1C701F4B1C7000
:405640005C700AE01E4B185DC0B2431EDBB2072B01D8FFF741FF0134E4B2012CF2D9194B1B7813F0FF0F1AD0154B1B7813F0FF0F17D0154B1B7813F0FF0F14D0114B1B787E
:40568000DBB2082B11D80E4B1B78DBB2082B0ED80D4B1B78DBB2082B0BD8002010BD012010BD012010BD012010BD012010BD012010BD012010BD00BF3A82FF1F2483FF1F42
:4056C0001C83FF1F2083FF1F1483FF1F70B506460D460F4B1B780F4AD45CE4B204EB440293000D4A13441B899BB28B4209D204EB44029300084A13441D89ADB20020FFF70C
:4057000093FC2A4631462046FFF79CFE70BD00BF3A82FF1F2083FF1F5483FF1F08B5034B1B78034AD05CFFF76FFE08BD3A82FF1F1C83FF1F08B5084B1B78084AD35CDBB2FA
:4057400003EB43018A0006490A44128992B201461846FFF7D7FE08BD3A82FF1F1C83FF1F5483FF1FC37803F0030390F9020000280FDA032B06D002F001030B48C15442F0CC
:4057800001020EE0C2F380030848C15442F0040207E0032B05D0C2F340030548C15442F002021046704700BF2083FF1F1483FF1F1C83FF1F1D4B19781D4A13889BB20B4413
:4057C0009BB2138000220FE01A494B681B78DBB2194883544B6801334B600132D2B20B889BB2013B9BB20B80124B1B889BB20BB1072AE9D90D4B1B78DBB2082B00D05AB18B
:405800000E490B7883F080030B700F210C4B197002210C4B197004E0022309490B7009490B70094B1A70014B1A7070472A83FF1F3E83FF1F4483FF1F006000403583FF1FF7
:405840003283FF1F2883FF1F5083FF1F0222074B1A708022064B1A700F22064B1A700023054A1370054A1370012070472883FF1F3583FF1F3283FF1F2A83FF1F5083FF1F45
:4058800008B5FFF797FF08BD10B4194B197801F00F010239C9B2174A13889BB20B449BB21380002011E0144A5468144B1B5CDBB223705368013353600130C0B20139C9B2D7
:4058C00013889BB2013B9BB213800B4B1B889BB20BB10029E7D10A4B19700A4A137883F0800313700B22084B1A7010BC704700BF296000403E83FF1F4483FF1F0060004012
:405900005083FF1F3583FF1F3283FF1F0623064A1370064A13708022054B1A700022054B1A700120704700BF2883FF1F3283FF1F3583FF1F5083FF1F064B9B6843B1054BF4
:405940009A6810709A6804490988518000229A60704700BF4483FF1F3E83FF1F08B5134B1A78D2B21A701B78DBB213F0800F02D00F4A137008BD0220FFF7DEFF0D4B1B78DE
:4059800003F06003202B05D0402B06D043B900F0DDFD06E001F08CFE03E000F085FF00E0002010B90322024B1A7008BD286000403283FF1F0060004008B5094B1978094AF8
:4059C00013889BB20B449BB213800022064B1A700120FFF7B1FF0322044B1A7008BD00BF2A83FF1F3E83FF1F2883FF1F3283FF1F08B50B4B1B78DBB2042B06D0062B07D0C4
:405A0000022B0BD1FFF7D8FF08BDFFF73DFF08BD0320FFF791FF0322024B1A7008BD00BF2883FF1F3283FF1F08B50022044B1A700120FFF781FF0322024B1A7008BD00BF40
:405A40002883FF1F3283FF1F08B50B4B1B7813F0FF0F07D0084A137843F0800307490B70002313700022064B1A700120FFF764FF0322044B1A7008BD3483FF1F0860004041
:405A80002883FF1F3283FF1F08B5094B1B78DBB2042B06D0062B07D0022B07D1FFF7F0FE08BDFFF7C1FF08BDFFF7CEFF08BD00BF2883FF1F08B5284B1B78DBB213F0100F61
:405AC00048D013F0800F0CD003F00F03012B16D1FFF744FF214B1B7813F0800F11D1012312E013F0400F03D0FFF7CEFF01230BE013F0200F07D0FFF77BFF012304E00023AB
:405B000002E0002300E0002323B3134B1B7813F0800F1FD1124B1B78124A12781343124A13701278D2B2934214D10C4B1B78DBB2094A127812F0800F07D1084B1B78DBB211
:405B4000054A1370137803F00F03044A1278D2B29342EAD108BD00BF286000403283FF1F3583FF1F5083FF1F296000400022064B1A80064B9B682BB1044A916800230B7006
:405B800092685380704700BF3E83FF1F4483FF1F08B50F4B1B889BB213B9FFF757FE15E002220C4B1A7000220B4B1A70FFF7DEFF0A4AD179937943EA0123054A128892B2C9
:405BC000934201D2024A1380FFF7F4FD012008BD4483FF1F2883FF1F3583FF1F0060004008B504220B4B1A7080220B4B1A70FFF7BDFF0A4AD179937943EA0123084A12884F
:405C000092B2934201D2064A13800B22054B1A70012008BD2883FF1F3583FF1F006000404483FF1F3283FF1F0122094B1A700F3B9B7C084B1B7B03F00303934204D0054A75
:405C4000D37B83F08003D3730122024B5A7370470B6000405483FF1F02220A4B1A700F3B93F82230084B1B7E03F00303012B04D0054AD37E83F08003D3760122024B5A76D8
:405C8000704700BF0B6000405483FF1F04220C4B1A700F3B93F832300A4B93F8243003F00303012B06D0074A92F8273083F0800382F827300122034B83F82520704700BFC1
:405CC0000B6000405483FF1F704700BF08B5FFF753FB08BD08B50C4B18780138C0B200F0CFF90A4B1B79DBB29A1C00EBC20042680749CB5C02EBC3035B68596A0B78054ABC
:405D00001380516008BD00BF4083FF1F006000403083FF1F4483FF1F08B50E4B18780138C0B200F0ADF90C4B1B79DBB29A1C00EBC20042680949CB5C02EBC3035B68DB69C5
:405D4000597813F8022B42EA012205490A804B6008BD00BF4083FF1F006000403083FF1F4483FF1F10B500221A4B1A801A4B18780138C0B200F084F91849CB78DAB20B79E6
:405D8000DBB2991C00EBC1004168012B20D81448C35C01EBC3014968531EDBB2022B17D802F10053013B01EBC3000C4A9278D2B211F833309A420BD8406802EB4202910088
:405DC00042185468034B5C60415A198092689A6010BD00BF4483FF1F4083FF1F006000403083FF1F08B55B4B1A79D2B21B7813F0800F4DD0574B5B78013B052B00F28E80FB
:405E0000DFE803F0212B3B8C8C03524BDB78DBB2212B09D1FFF75EFF4F4B1B889BB2002B7ED0FFF7B5FE08BD4A4BDB78DBB2222B78D1FFF771FF484B1B889BB2002B73D03D
:405E4000FFF7A6FE08BDFFF78DFF434B1B889BB2002B6BD0FFF79CFE08BD012A68D83D4B9B7813F0FF0F65D13B4901230B803B4B1A444A60FFF78CFE08BD012A5CD83649D7
:405E800001230B80364B1A444A60FFF781FE08BD304B5B78DBB20A2B0DD00B2B2FD0092B4CD1FFF75FFF2C4B1B889BB2002B47D0FFF796FE08BD012A44D8264B9B7813F0E3
:405EC000FF0F41D1234BDB78DBB224498B54895CC9B2244B9B5CDBB2994203D20021214B995409E01F4B9B5CDBB2012B04D91B4B9B5CDBB21B498B54FFF708FD08BD012A73
:405F000024D8144B9B78DBB2012B21D8114B9B78DBB213498B54FFF7F9FC08BD002008BD002008BD002008BD002008BD002008BD002008BD002008BD002008BD002008BD4D
:405F4000002008BD002008BD002008BD002008BD002008BD006000404483FF1FC483FF1FC083FF1FC883FF1F08B500F0BBFC08BD70B588B0054603AC174E0FCE0FC43368C4
:405F8000237035B322232B7003236B7001A8FFF7A1F8002402231AE008AA224412F81C2C08A901EB121111F8141CE954581C00212954981C02F00F0208AE324412F8142C2B
:405FC0002A54DA1CA9540134E4B20433DBB2212BE2D908B070BD00BF28BB000010B401233EE019461A010C242148845403EB4300820020480244527912F0FF0F13D003EB15
:40600000430082001B480244127912F0800F04D01801194A024494700AE01801164A02440820907004E01801134A0244802090704800084482000F480244D488E4B208017D
:406040000B4901448C71D088C0F30720C871D088C0B20871D288C2F307224A710133DBB2082BBED9FF22054B1A7010BC704700BF706000405483FF1FFC5F00400A600040D7
:40608000074B1A78074B03EBC2035B681A7C824204D9C0001030184440687047002070473383FF1F78BB0000F8B5404B1B7813F0FF0F79D03D4B18780138C0B2FFF7E0FFA7
:4060C000047AC2683A4B1878C0B200236AE01178884264D13749095CC9B25578A9425ED1917801F07F01D67806F00306DFF8C8E04D000D44AF000EEB07054FF0000C85F8D5
:4061000003C092F802C085F804C092F803C00EF807C097882F8192F90250002D0DDA012E01D1072700E00D274E000E44B500224E35446F7101266E700CE0012E01D10527B6
:4061400000E009274E000E44B5001B4E35446F7100266E70DFF868E00F010EEB07060125B57001FA05F529448D00134929440D89C5F307250EF807500D89EDB27570CE8875
:40618000F6B20E4D3D44AE71CE88C6F30726EE71CE88F6B22E71C988C1F30721697108320133DBB2A34292D3F8BD00BF4083FF1F2983FF1F3083FF1F5483FF1F70600040C3
:4061C000FC5F0040034B1A78034B03EBC2035868704700BF3383FF1F78BB000008B5084B18780138C0B2FFF74BFF30B142681279023200EBC203586808BD002008BD00BF38
:406200004083FF1F2DE9F047002310E0724D5900CA189600AC190022AA55A270E2702281A272627034462C4462710133DBB2082BECD940B90AE000226849CA546849CA54A1
:406240000133DBB200E00023012BF4D9654B1B7813F0FF0F00F0BD80624B18780138C0B2FFF70EFF80464368DB7913F0400F05D05D4A137843F00103137004E05A4A13780A
:4062800003F0FE03137098F808704FF0000A01266FE0D8F80C50002467E0AB7803F07F039E425FD1314606EB460083004A4803441B899BB2A888834206D206EB460E4FEA1B
:4062C0008E03454A134418812B784448C35CDBB26878834246D195F802C0DFF8FCE04B000B4498000EEB000383F804C0EB780EF80030EB7803F0030395F90200002813DAEE
:40630000012B02D14FF0070901E04FF00D09DFF8C8E04B0003EB010C4FEA8C00704480F805900121417012E0012B02D14FF0050901E04FF00909DFF8A0E04B0003EB010CAE
:406340004FEA8C00704480F8059000214170AB790A2B01D0022B05D1524631462846FFF701FA824608350134E4B2BC4295D30136F6B2082E8DD9D8F80C0000220CE0837894
:4063800003F07F0310F8084B03EB43039900124B19448C720132D2B2BA42F0D3FFF71EFF124B1860002301210FE00B4D4A00501884002C44E380228992B213449BB203F00F
:4063C000010213449BB20131C9B20829EDD9FFF705FEBDE8F08700BF5483FF1F3083FF1F3883FF1F4083FF1F5183FF1F2C83FF1F08B5154B1B7903F07F035A1ED2B2072AEC
:4064000020D8590019448A0010490A44917841F0010191700021D170517841F002015170127912F0800F05D01B01094A1A448D23937004E01B01064A1A4489239370FFF75C
:4064400065FA08BD002008BD006000405483FF1FFC5F0040274B1B7903F07F035A1ED2B2072A44D810B5590019448A0022490A44917801F0FE0191700021D1701F4C180181
:40648000215C01F07F012154517801F0FD015170127912F0800F13D003EB43018A0016490A445278D2B2012A04D1224602440C23937019E01B01114A1A440D23937013E076
:4064C00003EB43018A000C490A445278D2B2012A05D11B01094A1A440823937004E01B01064A1A4409239370FFF710FA10BD0020704700BF006000405483FF1FFC5F004083
:4065000010B50E4B1C79E4B20D4B18780138C0B2FFF7B6FD43681B799C4201D9022C0AD8084A135DDBB208490B55044B9B78DBB21355012010BD002010BD00BF006000403E
:406540004083FF1F3083FF1F3883FF1F10B5964B1B78DBB20021954A118013F0800F00F0B380914A5278D2B20A2A00F27981DFE812F06F00770177017701770177010B00A0
:40658000770198007701A000874BDB78DBB2012B09D1FFF717FE4268844B5A6012221A80FFF7F6FA10BD804BDB78DBB2022B13D17D4B9878FFF764FD002800F053814268BB
:4065C0007A4B5A605A68D1785A68927842EA01221A80FFF7DDFA10BD734BDB78DBB2032B05D032E00A7811440133DBB201E000236F496D4A9278D2B2934203D20A7812F048
:40660000FF0FEFD1684B9B78DBB2EE2B00D16949654B9B7813F0FF0F0BD0634B9B78DBB2654A127C934204D1644C2046FFF7A0FC21460B7813F0FF0F00F016810B785B4A67
:4066400013805160FFF7A4FA10BD01F031F810BD13F0030317D0022B40F0088153490B80514B1B7903F07F0303EB43039A00544B1A449278D2B2534B1A7000225A704B60D4
:40668000FFF786FA10BD494902230B804E4B1A78D2B24C4B1A7000225A704B60FFF778FA10BD424B01221A80484A5A60FFF770FA10BD3E4A012313803B4B1B7944490B44C1
:4066C0005360FFF765FA10BD374A5278013A0A2A00F2CE80DFE812F04C00CC009700CC000B00CC00CC00CC001300CC0030002E4B9B78DBB2374A1370FFF708F910BD2A4BB3
:406700009B7803F0FF041BB1601EC0B2FFF7B8FC04B110B9002C40F0AD802C4B1B78DBB29C4206D0294B1C7001202B4B1870FFF769FDFFF7EBF810BDFFF7E2FE002800F089
:406740009B80194A1379DBB21279D2B223490A70234AD25CD2B21E49CB5CDBB29A4204D001221D4B1A70FFF79FFCFFF7CFF810BD03F00303012B35D04BB1022B7ED10A4B7C
:406780009B7813F0FF0F7BD1FFF764FE10BD064B9B78DBB2012B75D10B4A137803F0FD031370FFF7B3F810BD006000404483FF1F18BC000064BB000044BD00000C84FF1FF6
:4067C0005483FF1F3C82FF1F5183FF1F4083FF1F3083FF1F3483FF1F3A83FF1F2983FF1F3883FF1F2D4B1B79DBB2012B4CD82B4B98781B79DBB22A49CA5C22EA0002CA547C
:40680000FFF784F810BD03F00303012B17D04BB1022B3BD1214B9B7813F0FF0F38D1FFF7E7FD10BD1D4B9B78DBB2012B32D11D4A137843F002031370FFF768F810BD174B2F
:406840001B79DBB2012B27D8144B98781B79DBB21349CA5C22EA0002CA54FFF757F810BD002010BD002010BD002010BD002010BD002010BD002010BD002010BD002010BD14
:40688000002010BD002010BD002010BD002010BD002010BD002010BD002010BD006000403C83FF1F5183FF1F08B50B4B1B7813F0800F0CD0084B5B78DBB2012B09D1074BCF
:4068C000074A5A6012781A80FFF762F908BD002008BD002008BD00BF006000404483FF1F3CBB0000024B1878C0F38010704700BF8F450040084A137843F0040313701032C8
:40690000137843F00403137002F66532137843F001031370704700BFA3430040014B1880704700BF1C4F0040014B1880704700BF1E4F0040014B1870704700BF1B4F00409F
:4069400008B5194A137843F0020313700232137803F08F0343F010031370144B1A7802F0CF021A701A7842F030021A701A7802F0F0021A701A7842F00F021A707820FFF7F9
:40698000CDFF0120FFF7D0FF0020FFF7D3FF084A137843F00403137002F67632137843F00103137008BD00BF184F0040234F0040A343004008B5054B1B7823B9FFF7C0FF8A
:4069C0000122024B1A70FFF795FF08BD3E82FF1F054A137843F0080313701032137843F008031370704700BFA243004008B50222054B1A6005490120FEF740FB0721012019
:406A0000FEF750FB08BD00BF80E100E0E96A000010B50224064B1C6000F0A0F8A0F5004000B2044B1B68044A1460184410BD00BF80E100E04082FF1F00E100E038B50546A1
:406A40000224054B1C604FF4004000F081F8034B1D60034B1C6038BD80E100E04082FF1F00E100E0024B187800F00F00704700BF6964004040F00700014B1870704700BFEC
:406A80008964004008B50F20FFF7F4FFFFF7EAFF00F006FE054A137843F01003137000F003FE0222024B1A6008BD00BF9964004000E100E008B500F0A3F84FF4004000F045
:406AC00047F80022064B1A60064B1B7823B9FFF78DFF0122034B1A70FFF7D4FF08BD00BF4082FF1F3F82FF1F0D4B1B78DBB213F0010F06D00B490A6802F5FF427F320A60A7
:406B000007E013F0020F04D006490A68A2F500420A6013F0040F02D00022024B1A607047696400404082FF1F024A137843F080031370704779650040014B1870704700BFDE
:406B400087650040014B1878704700BF67650040014B1880704700BF0A6A0040024B1B78024B188880B27047056500408A6A0040014B188880B270478A6A0040014B1880FC
:406B8000704700BF4A6A0040014B1880704700BF6A6A004008B501E0FFF7EAFFFFF7D2FF10F0400FF8D108BD08B5134B1A7802F0F8021A701A7802F0FC021A70FFF7EAFFCE
:406BC0004FF40040FFF7DAFF4FF40040FFF7C0FF0020FFF7B1FFFFF7B5FF4FF40040FFF7D3FF00F05DFD054A137843F01003137000F05AFD08BD00BF79650040976500403E
:406C000008B5054B1B7823B9FFF7CEFF0122024B1A70FFF789FF08BD4482FF1F08B50D490520FEF72BFA07210520FEF73BFA0023094A13707221094A11702021013A1170CE
:406C40000621593A117047211032117002F5A872137008BDFD6C00004582FF1F8264004010B500F01DFD04460B4A137843F020031370013A137843F0100313702022074BEC
:406C80001A60074A137843F01003137000F082F8204600F009FD10BD9264004000E100E09865004008B5054B5B7823B9FFF7B6FF0122024B5A70FFF7D3FF08BD4582FF1FDB
:406CC000034B1B7813F0040FFAD1024B18707047686500404865004038B5074B5B782BB938BDFFF7EDFF0134A4B201E005460024285D0028F5D138BD4582FF1F1D4B1B785C
:406D0000DBB213F01E0F05D01B4803F01E0201780A43027003F0200303F0FF0233B3174B1978C9B2164B1B78DBB21648C154164B1B7813F0FF0F02D00121144B1970104987
:406D40000B780133DBB20B700B78DBB23F2B02D900210B4B19700A4B1978C9B20C4B1B78DBB2994202D10121074B1970002AC5D1704700BF616400404582FF1F4564004073
:406D80004882FF1FCC83FF1F4982FF1F4A82FF1F4782FF1F054A137843F0100313701032137843F010031370704700BFA2430040044A137803F0FB03800000F00400184357
:406DC00010707047F0510040044A137803F0BF03800100F0400018431070704720510040044A137803F0EF03000100F0100018431070704720510040044A137803F0F70391
:406E0000C00000F008001843107070472051004008B50122054B1A6005490020FEF72EF902210020FEF73EF908BD00BF80E100E00D6F000010B50124064B1C6000F068FA6A
:406E4000A0F5004000B2044B1B68044A1460184410BD00BF80E100E05082FF1F00E100E038B505460124054B1C604FF4004000F049FA034B1D60034B1C6038BD80E100E073
:406E80005082FF1F00E100E0024B187800F00F00704700BF6664004040F00700014B1870704700BF8664004008B50F20FFF7F4FFFFF7EAFF00F0F4FB054A137843F0100367
:406EC000137000F0F1FB0122024B1A6008BD00BF9664004000E100E008B500F06BFA4FF4004000F00FFA0022064B1A60064B1B7823B9FFF78DFF0122034B1A70FFF7D4FF49
:406F000008BD00BF5082FF1F4C82FF1F0D4B1B78DBB213F0010F06D00B490A6802F5FF427F320A6007E013F0020F04D006490A68A2F500420A6013F0040F02D00022024B4D
:406F40001A607047666400405082FF1F084A137843F0020313701032137843F00203137002F65932137843F001031370704700BFA3430040014B1880704700BF104F004069
:406F8000014B1880704700BF124F0040014B1870704700BF0F4F004008B5194A137843F0020313700232137803F08F0343F010031370144B1A7802F0CF021A701A7842F079
:406FC00030021A701A7802F0F0021A701A7842F00F021A7046F2A810FFF7CCFF0120FFF7CFFF0020FFF7D2FF074A137843F00203137002F66A32137843F00103137008BDC4
:407000000C4F0040174F0040A343004008B5054B1B7823B9FFF7C0FF0122024B1A70FFF795FF08BD5482FF1F08B50422054B1A6005490220FEF722F807210220FEF732F8E6
:4070400008BD00BF80E100E02571000010B50424064B1C6000F0D6F9A0F5004000B2044B1B68044A1460184410BD00BF80E100E05882FF1F00E100E038B505460424054B8F
:407080001C604FF4004000F0B7F9034B1D60034B1C6038BD80E100E05882FF1F00E100E0024B187800F00F00704700BF6E64004040F00700014B1870704700BF8E64004096
:4070C00008B50F20FFF7F4FFFFF7EAFF00F0E8FA054A137843F01003137000F0E5FA0422024B1A6008BD00BF9E64004000E100E008B500F0D9F94FF4004000F07DF900229A
:40710000064B1A60064B1B7823B9FFF78DFF0122034B1A70FFF7D4FF08BD00BF5882FF1F5582FF1F0D4B1B78DBB213F0010F06D00B490A6802F5FF427F320A6007E013F0A9
:40714000020F04D006490A68A2F500420A6013F0040F02D00022024B1A6070476E6400405882FF1F084A137843F0010313701032137843F00103137002F64D32137843F041
:4071800001031370704700BFA3430040014B1880704700BF044F0040014B1880704700BF064F0040014B1870704700BF034F004008B5194A137843F00203137002321378CF
:4071C00003F08F0343F010031370144B1A7802F0CF021A701A7842F030021A701A7802F0F0021A701A7842F00F021A707820FFF7CDFF0120FFF7D0FF0020FFF7D3FF084AAA
:40720000137843F00103137002F65E32137843F00103137008BD00BF004F00400B4F0040A343004008B5054B1B7823B9FFF7C0FF0122024B1A70FFF795FF08BD5C82FF1FF3
