:400000000080002011000000ED5D0000ED5D000008B5044B1A6803F53F5302331A6005F005FF00BFFA46004010B5054C237833B9044B13B10448AFF300800123237010BDDA
:400040009081FF1F0000000030B40000084B10B51BB108490848AFF300800848036803B910BD074B002BFBD0BDE81040184700BF000000009481FF1F30B40000C880FF1FAA
:400080000000000008B562B608F0E6FBFF2008F067FAFF2008F028F800F0B4F804F0B8FA03F07EFF07F08EFF374800F023F900F0B1FA00F0E7F806F097F8002000F0BCFC6B
:4000C000642006F05FF9012000F0B6FC642006F059F9022000F0B0FC642006F053F9032000F0AAFC642006F04DF9042000F0A4FC642006F047F9002008F05CFA642006F04C
:400100002BF9002008F03EFA642006F025F9002008F044FA642006F01FF9042141F6380001F096F9002007F017FE002008F034F9002008F015FA002007F0D6FF022001F020
:4001400053FB012001F066FA002001F089F900F055FB06F071FC88B10C4806F079FC0C4B188001280AD90B4800F0C4F8FF2007F0BBFF02F091F9002007F0B6FF4FF4FA70D2
:4001800006F000F9E3E700BF38B400005C82FF1F9C82FF1F58B40000064A136801331360054A934204D1034B01221A7100221A60704700BFAC81FF1FE093040008B507F0A8
:4001C000B5FD4042054B98609A68DB689A4204DD024A012111744833D36008BDAC81FF1F08B508F0C3F84042054B58615A69DB689A4204DD024A012111744833D36008BDAC
:40020000AC81FF1F08B507F063FD114B188807F019FD08F097F9022008F04EF908F086F840F6C41008F03CF8C82006F095F8002008F036F8C82006F08FF840F6C41008F0A9
:400240002FF8C82006F088F8002008F029F808BDD080FF1F10B50024034B9C6107F090FF204608F089F910BDAC81FF1F10B50124034B9C6107F084FF204608F07DF910BD8B
:40028000AC81FF1F10B5094B00249C605C61DC611C6207F0B1FF08F0BBF807F099FD2046FFF7E4FF2046FFF7D5FF10BDAC81FF1F10B50F4B9B6933B907F04CFF40420C4BB2
:4002C00018625A6ADA610A4B9B69012B06D1084CA36A236207F03EFF4042E06107F026FD4042034CA06008F041F84042606110BDAC81FF1F08B5054B93F82C3023B107F016
:400300007BFE012006F03EF808BD00BFAC81FF1F08B540F6C41007F0C3FFC82006F01CF8002007F0BDFF0248FFF7E4FF002008BD6CB400000000000038B50446FFF7B8FFD7
:4003400054B9AF4B1A68AF4B1A70120A5A7000229A70FA22DA70DBE0013C202C00F2D880DFE804F011171D23292F353B41474D53595F656B71777D83898F959BA1A7ADB3F7
:40038000B9BFC5CBD1009F4B01229A70FA22DA70BEE09C4B02229A70FA22DA70B8E0994B17229A70FA22DA70B2E0964B07229A70FA22DA70ACE0934B11229A70FA22DA7090
:4003C000A6E0904B1D229A70FA22DA70A0E08D4B25229A70FA22DA709AE08A4B03229A70FA22DA7094E0874B04229A70FA22DA708EE0844B18229A70FA22DA7088E0814B03
:4004000008229A70FA22DA7082E07E4B12229A70FA22DA707CE07B4B1E229A70FA22DA7076E0784B26229A70FA22DA7070E0754B05229A70FA22DA706AE0724B06229A70D0
:40044000FA22DA7064E06F4B19229A70FA22DA705EE06C4B09229A70FA22DA7058E0694B13229A70FA22DA7052E0664B1F229A70FA22DA704CE0634B27229A70FA22DA7025
:4004800046E0604B2B229A70FA22DA7040E05D4B2C229A70FA22DA703AE05A4B2D229A70FA22DA7034E0574B2E229A70FA22DA702EE0544B2A229A70FA22DA7028E0514B27
:4004C0002F229A70FA22DA7022E04E4B28229A70FA22DA701CE04B4B22229A70FA22DA7016E0484B23229A70FA22DA7010E0454B24229A70FA22DA700AE0424B29229A7060
:40050000FA22DA7004E03F4B30229A70FA22DA703D4D286A09F01CFD37A3D3E9002309F07DFD0AF02BF82862AB68364C2371AB681B126371AB681B14A371AB681B16E371F9
:400540006B6923726B691B1263726B691B14A3726B691B16E372EB692373EB691B126373EB691B14A373EB691B16E3732B6A23742B6A1B1263742B6A1B14A3742B6A1B16AF
:40058000E374224A136823751B1263750023A375E37523766376A376E37651682177090A61779168A177090AE177D26884F82020120A84F8212084F8223084F8233084F849
:4005C000243084F8253084F826304C2284F8272084F8283084F8293084F82A3084F82B3084F82C3084F82D300948FFF783FE2E21204606F0F9F938BD9A9999999999094092
:40060000D082FF1FA082FF1FAC81FF1FD080FF1FA0B4000008B50121002006F029F805E00848FFF767FE012005F0ACFE06F064F80028F5D006F08CF90348FFF75BFE06F04D
:4006400017F908BDC4B40000E8B400000A4B93F82C307BB100B587B00246084901A80AF0C3FA01A807F0C8FC012005F08BFE07B05DF804FB704700BFAC81FF1FFCB40000C5
:4006800010B5154BD8789B7803EB0020134C206309F05EFC0EA3D3E9002309F0BFFC00220F4B09F0E5FD09F091FF80B207F004FF0C48FFF71FFE206BFFF7C8FF0A48FFF728
:4006C00019FE0A48FFF716FE002010BDAFF30080333333333333E33F5C82FF1FAC81FF1F0000244004B500005CB6000024B5000010B5154BD8789B7803EB0020134C206060
:4007000009F026FC0EA3D3E9002309F087FC00220F4B09F0ADFD09F059FF80B207F092FA0C48FFF7E7FD2068FFF790FF0A48FFF7E1FD0A48FFF7DEFD002010BDAFF30080DA
:40074000333333333333E33F5C82FF1FD080FF1F000024404CB500005CB6000064B5000008B50548FFF7C6FD0448FFF7C3FD0448FFF7C0FD08BD00BF5CB6000084B5000098
:4007800068B4000010B5184B1C7C5CB9174B5B6B43B90C22154B5A631548FFF7ABFDFFF7DFFF1EE0104B5C7C5CB9104B5B6B43B906220E4B5A630F48FFF79CFDFFF7D0FFBE
:4007C0000FE0094B9C7C64B9084B5B6B43B91222064B5A630848FFF78DFDFFF7C1FF00E00124204610BD00BFD080FF1FAC81FF1FB8B50000E4B500000CB6000008B505F07A
:4008000081FFB0B1FFF784FD05F076FF88B1094B93F838304BB10848FFF76CFDFFF7A0FF012005F099FD05F08FFD0122014B83F8382008BDAC81FF1F34B6000008B505F01B
:40084000D1FB0A2005F09EFD012008BD10B54B1EDBB2FD2B3DD90C46042836D8DFE800F0030D17212B000A2005F08CFD204605F037FB0A2005F086FD10BD0A2005F082FD1B
:40088000204605F039FB0A2005F07CFD10BD0A2005F078FD204605F03BFB0A2005F072FD10BD0A2005F06EFD204607F035FC0A2005F068FD10BD0A2005F064FD204607F07E
:4008C0001FFC0A2005F05EFD10BD0448FFF712FD10BD0348FFF70EFD10BD00BF60B60000A0B60000F8B506460D46174600212846FFF7ACFF06F07F063046FFF79FFF0020B6
:40090000FFF79CFF0020FFF799FF0020FFF796FF0020FFF793FFFF212846FFF797FF012005F01AFD00212846FFF790FF3046FFF785FF05F0C1FB38700020FFF77FFF05F0F8
:40094000BBFB04060020FFF779FF05F0B5FB44EA00440020FFF772FF05F0AEFB44EA00240020FFF76BFF05F0A7FB0443FF212846FFF76CFF012005F0EFFC00212846FFF7C8
:4009800065FF3046FFF75AFF05F096FB38700020FFF754FF05F090FB44EA00640020FFF74DFF05F089FB44EA00440020FFF746FF05F082FB44EA00240020FFF73FFF05F0B0
:4009C0007BFB0443FF212846FFF740FF2046F8BD70B506460C46154600211046FFF736FF46F08000FFF72AFF200EFFF727FFC4F30740FFF723FFC4F30720FFF71FFFE0B2E3
:400A0000FFF71CFFFF212846FFF720FF70BD00BF38B505460C460A4600212020FFF7D8FF224629460520FFF7D3FF224629462D20FFF7CEFF38BD00BF10B504460246052132
:400A40000120FFF7C5FF224608210020FFF7C0FF224600210320FFF7BBFF224600210520FFF7B6FF224600210620FFF7B1FF22460F210820FFF7ACFF224682490920FFF778
:400A8000A7FF224680490A20FFF7A2FF022C0AD1224600210B20FFF79BFF22467B491020FFF796FF2FE054B9224600210B20FFF78FFF224676491020FFF78AFF23E0012C10
:400AC0000AD1224600210B20FFF782FF224670491020FFF77DFF16E0042C0AD12246D2210B20FFF775FF22466A491020FFF770FF09E02246D2210B20FFF76AFF22466549A8
:400B00001020FFF765FF22460A211120FFF760FF224600211320FFF75BFF224600211420FFF756FF224600211520FFF751FF224600212120FFF74CFF224600212320FFF72D
:400B400047FF224600212C20FFF742FF224600213320FFF73DFF224640F2AF213420FFF737FF224600213820FFF732FF224600213920FFF72DFF22464FF480313A20FFF773
:400B800027FF224600213D20FFF722FF224642496020FFF71DFF224640496120FFF718FF22463F496220FFF713FF224608216320FFF70EFF22466FF080616420FFF708FF54
:400BC000224638496520FFF703FF224636496620FFF7FEFE224635496720FFF7F9FE224633496820FFF7F4FE22464FF477016920FFF7EEFE22462F496C20FFF7E9FE224643
:400C000000216D20FFF7E4FE224600216E20FFF7DFFE224628497020FFF7DAFE224600212120FFF7D5FE22464FF6FF712420FFF7CFFE22464FF6FF712520FFF7C9FE2246CF
:400C40004FF6FF712620FFF7C3FE224600212720FFF7BEFE22464FF6FF712820FFF7B8FE22464FF6FF712A20FFF7B2FE224665212B20FFF7ADFE224600212020FFF7A8FEE3
:400C800010BD00BF060601000004080003030700050407000001070054B5AAAAAA54954A292949247D77BBB556552949224240005680FFFF530141001E000CC430B583B0DD
:400CC000044602AD002305F8013D4FF4FA7005F059FB2A4621460420FFF704FE642005F051FB2A4621460420FFF7FCFD08E00DF1070221462120FFF7F5FD642005F042FBD0
:400D00009DF8073013F0200FF1D0002003B030BDF8B5074609F01CF937A3D3E9002309F0A7FA09F02BFC064600252AE0FFF7C0FA334B9C68341BB4F5FA6F02DB02205863F1
:400D4000F8BD204609F004F92BA3D3E9002309F065F909F013FC002CB8BF6442052C0EDD00213844FFF754FE0020FFF7A7FF322005F008FB002239462120FFF729FE0135D1
:400D8000EDB2052DD2D9FFF793FA1D4B9B68F61A052D2DD986EAE673A3EBE673072B0FDD06F2CF7640F69E72964209D81548FFF7A1FAFF2007F0D4FB0122114B5A6317E071
:400DC000B3F5FA6F06DD1048FFF794FA02220C4B5A630DE00D48FFF78DFA0022084B5A6339462120FFF7F4FD4FF4FA7005F0CAFA034B586BF8BD00BF9A9999999999094088
:400E0000AC81FF1FF8B6000014B7000044B7000070B50446FFF7B6FC60B31A4D012229461020FFF7D5FD022229461020FFF7D0FD002215491020FFF7CBFD144E0025756385
:400E4000FFF736FA1248FFF755FA29462046FFF7DFFD2846FFF732FF322005F093FA2046FFF7F4FB0B48FFF745FA2046FFF750FF706B70BD0848FFF73DFA2020034B586351
:400E800070BD00BF0301070005040700AC81FF1F58B70000E0B4000074B7000000000000F8B5074609F054F833A3D3E9002309F0DFF909F063FB064600252BE0FFF7F8F993
:400EC0002F4B5C69341B204609F042F82AA3D3E9002309F0A3F809F051FBB4F57A6F03DB0922274B5A6317E0002CB8BF6442052C0EDD01213844FFF78BFD0120FFF7DEFE11
:400F0000322005F03FFA012239462120FFF760FD0135EDB2032DD1D9FFF7CAF9184B5869301A032D25D980EAE073A3EBE073062B0FDD00F69F7041F63E72904209D8114844
:400F4000FFF7D8F9FF2007F00BFB08220C4B5A630FE0B3F57A6F06DD0B48FFF7CBF90922074B5A6305E00948FFF7C4F90022044B5A63034B586BF8BD9A99999999990940E9
:400F8000AC81FF1F84B70000A0B70000D0B7000038B50446FFF7F6FB60B31A4D002229461020FFF715FD022229461020FFF710FD012215491020FFF70BFD144D00236B63A5
:400FC000FFF776F91248FFF795F901212046FFF71FFD0120FFF772FE322005F0D3F92046FFF734FB0B48FFF785F92046FFF758FF686B38BD0848FFF77DF92020034B5863A8
:4010000038BD00BF0301070005020700AC81FF1F58B70000E0B4000074B7000000000000F8B5074608F094FF33A3D3E9002309F01FF909F0A3FA064600252BE0FFF738F946
:401040002F4BDC69341B204608F082FF2AA3D3E9002308F0E3FF09F091FAB4F57A6F03DB1022274B5A6317E0002CB8BF6442042C0EDD02213844FFF7CBFC0220FFF71EFEBD
:40108000322005F07FF9022239462120FFF7A0FC0135EDB2052DD1D9FFF70AF9184BD869301A032D25D980EAE073A3EBE073072B0FDD00F69F7041F63E72904209D8114881
:4010C000FFF718F9FF2007F00FF80F220C4B5A630FE0B3F57A6F06DD0B48FFF70BF91022074B5A6305E00948FFF704F90022044B5A63034B586BF8BD9A9999999999094099
:40110000AC81FF1FE4B7000000B8000030B8000038B505461F4C012221461020FFF758FC002221461020FFF753FC02221A491020FFF74EFC194B586A4042FFF797F8FFF76A
:4011400021FB00B3154C00236363FFF7B1F81448FFF7D0F802212846FFF75AFC0220FFF7ADFD322005F00EF92846FFF76FFA0D48FFF7C0F82846FFF753FFFFF799F8E36957
:401180006362606B38BD0848FFF7B4F82020034B586338BD0301070002020700AC81FF1F44B80000E0B4000074B7000000000000F8B5074608F0CCFE33A3D3E9002309F0F4
:4011C00057F809F0DBF9064600252BE0FFF770F82F4B1C6A341B204608F0BAFE2AA3D3E9002308F01BFF09F0C9F9B4F57A6F03DB1722274B5A6317E0002CB8BF6442042CD3
:401200000EDD03213844FFF703FC0320FFF756FD322005F0B7F8032239462120FFF7D8FB0135EDB2032DD1D9FFF742F8184B186A301A032D22D980EAE073A3EBE073042B18
:401240000CDD00F69F7041F63E72904206D81148FFF750F816220E4B5A630FE0B3F57A6F06DD0D48FFF746F81722094B5A6305E00A48FFF73FF80022054B5A63044B586B29
:40128000F8BD00BFAFF300809A99999999990940AC81FF1F60B800007CB80000ACB8000038B50546314C012221461020FFF790FB642005F067F8022221461020FFF788FBC1
:4012C000642005F05FF8002221461020FFF780FB642005F057F8032225491020FFF778FB0A2005F039F8002007F070F9642005F049F8204B986A4042FEF7ACFFFFF742FAB5
:4013000030B31C4C00236363FEF7D2FF1A48FEF7F1FF03212846FFF77BFB0320FFF7CEFC322005F02FF82846FFF790F91348FEF7E1FF2846FFF73CFFFEF7BAFF236AA36221
:40134000FF2007F043F9642005F01CF8606B38BD0B48FEF7CFFF074C20236363FF2007F035F9642005F00EF8606B38BD0101070001050700AC81FF1FC0B80000E0B400006C
:4013800074B70000F8B506460D461446FEF790FF2B4F012239461020FFF71AFB002239461020FFF715FB022226491020FFF710FBC82004F0E7FF2448FEF79CFF002E03DB1C
:4013C00000213046FFF724FB002D03DB01212846FFF71EFB002C08DB1C4B586A4042FEF745FF02212046FFF713FB002E02DB0020FFF764FC002D02DB0120FFF75FFC002CEE
:4014000002DB0220FFF75AFC002E02DB3046FFF77FFC002D02DB2846FFF742FD002C07DB2046FFF7FDFDFEF743FF084BDA695A62FEF73EFF322004F0A5FF0020F8BD00BF25
:40144000020307000202070058B70000AC81FF1F08B50A4601462720FFF7BAFA002008BD2DE9F843044601464FF49620FFF7F0FF224602212020FFF7ABFAC82004F082FF4E
:401480005D4D2A4621460420FFF72CFA4FF4FA7004F078FF2A4621460420FFF723FA2AE007F00EFA554807F037FA534A21460420FFF718FA642004F065FF514B1B79D3B1B7
:4014C0004F4D01206863FEF737FF07F09FF9224600212020FFF77CFA224600212120FFF777FA224600212D20FFF772FA00232B716B63BDE8F883404B1B7813F0400FCFD050
:4015000007F084F93E4F00253D71224629462120FFF75EFA0A2004F035FF224629462120FFF756FA284606F017FC364E4FF0010886F8118086F8108086F8128086F8138040
:40154000642004F01FFF4FF44840FFF761FC97F83930737497F83A30337497F83B30B37497F83C30F374642004F00CFF224629462120FFF72DFA224629462D20FFF728FAC1
:4015800021462148FFF764FF224696210B20FFF71FFADFF87C90224649461020FFF718FA284606F0D9FBBD6086F8118087F839801648FEF79FFE2A4649461020FFF708FAE4
:4015C000424649461020FFF703FA022249461020FFF7FEF93D644FF4FA7004F0D3FE284606F0DCFF4FF4FA7004F0CCFE284606F0E1FFBDE8F88300BFCF80FF1F99010000FA
:40160000AC81FF1FD080FF1FFAD00500DCB80000010107002DE9F8430446FF2006F0CAFF4FF4FA7004F0AEFEFF2006F0ABFF4FF4FA7004F0A7FE002006F0B0FF4FF4FA7048
:4016400004F0A0FE21464FF49620FFF701FF224602212020FFF7BCF9322004F093FE5B4D2A4621460420FFF73DF94FF4FA7004F089FE2A4621460420FFF734F92AE007F01F
:401680001FF9534807F048F9504A21460420FFF729F9504B1B79D3B14E4D08206863FEF74BFE07F0B3F8224600212020FFF790F9224600212120FFF78BF9224600212D207F
:4016C000FFF786F900232B716B63BDE8F883642004F058FE3D4B1B7813F0400FCFD007F095F8DFF8F080002588F80450224629462120FFF76DF90A2004F044FE224629467F
:401700002120FFF765F9284606F046FE324E012777743774B774F774642004F033FE4FF49640FFF735FC98F83930737498F83A30337498F83B30B37498F83C30F374642025
:4017400004F020FE224629462120FFF741F9224629462D20FFF73CF921462048FFF778FE224629460B20FFF733F9DFF87890224649461020FFF72CF9284606F00DFEC8F811
:401780000850377488F83A701548FEF7B3FD2A4649461020FFF71CF93A4649461020FFF717F9022249461020FFF712F94FF4FA7004F0E8FD284606F0E5FE4FF4FA7004F029
:4017C000E1FD284606F0F6FEBDE8F883CE80FF1F99010000AC81FF1FD080FF1FFAD00500F0B80000010107002DE9F0410446FF2006F0C8FE4FF4FA7004F0C4FDFF2006F071
:40180000CDFE4FF4FA7004F0BDFD002006F0D2FE4FF4FA7004F0B6FD21466148FFF718FE604B586A4042FEF721FD224602212020FFF7CEF8322004F0A5FD5B4D2A4621463C
:401840000420FFF74FF84FF4FA7004F09BFD2A4621460420FFF746F829E007F031F8534807F05AF8504A21460420FFF73BF84D4B1B79CBB14B4D0F206863FEF75DFD06F0C5
:40188000C5FF224600212020FFF7A2F8224600212120FFF79DF8224600212D20FFF798F800232B71BDE8F081642004F06BFD3E4B1B7813F0400FD0D006F0A8FF394E00254E
:4018C0003571224629462120FFF782F82846FEF7CDFC75620A2004F055FD224629462120FFF776F82846FEF7C1FC7562304F4FF0010887F8118087F8108087F8128087F85E
:401900001380642004F03EFD4FF44840FFF700FC96F839307B7496F83A303B7496F83B30BB7496F83C30FB74642004F02BFD224629462120FFF74CF8224629462D20FFF77A
:4019400047F821461648FFF783FD2846FEF78EFC756287F8128086F83B801648FEF7CAFC154C2A4621461020FFF732F8424621461020FFF72DF8022221461020FFF728F833
:401980004FF4FA7004F0FEFC284606F007FE4FF4FA7004F0F7FC284606F0F4FDBDE8F0816EA30100AC81FF1FCD80FF1F99010000D080FF1F04B90000010107002DE9F04147
:4019C0000446FF2006F0DEFD4FF4FA7004F0DAFCFF2006F0E3FD4FF4FA7004F0D3FCFF2006F0E8FD4FF4FA7004F0CCFC764D012229461020FEF7ECFF022229461020FEF751
:401A0000E7FF002229461020FEF7E2FF03226F491020FEF7DDFF642004F0B4FC002006F0D5FD0A2004F098FC21464FF44850FFF70FFD674B986A4042FEF70CFC2246022187
:401A40002020FEF7C5FF322004F09CFC614D2A4621460420FEF746FF4FF4FA7004F092FC2A4621460420FEF73DFF2AE006F028FF594806F051FF574A21460420FEF732FFF1
:401A8000534B1B79D3B1524D16206863FEF754FC06F0BCFE224600212020FEF799FF224600212120FEF794FF224600212D20FEF78FFF00232B716B63BDE8F081642004F0BF
:401AC00061FC444B1B7813F0400FCFD006F09EFE3F4F00253D71224629462120FEF778FF0A2004F04FFC224629462120FEF770FF2846FEF7AFFBBD62384E4FF0010886F8A2
:401B0000118086F8108086F8128086F81380642004F038FC40F6D860FFF7C2FB97F83930737497F83A30337497F83B30B37497F83C30F374642004F025FC22462946212065
:401B4000FEF746FF224629462D20FEF741FF21464FF44850FFF77CFC2846FEF77BFBBD6286F8138087F83C801D48FEF7C3FBFF2006F02CFD144C2A4621461020FEF728FF05
:401B8000424621461020FEF723FF022221461020FEF71EFF4FF4FA7004F0F4FB284606F0FDFC4FF4FA7004F0EDFB284606F0EAFC4FF4FA7004F0E6FB284606F0FBFC642001
:401BC00004F0E0FBBDE8F0810101070001050700AC81FF1FCD80FF1F99010000D080FF1F18B9000038B505460C46032200212020FEF7EEFE032200212120FEF7E9FE0321E3
:401C00004DF2B710FFF724FC002006F0DFFC0F2004F0A2FB012C03D8012004F09DFB00E00024012C0FD83CB903212846FEF7F0FE0320FFF743F806E003216842FEF7E8FEBD
:401C40000320FFF73BF803210020FFF701FC032200212120FEF7BCFE032200212020FEF7B7FE052004F078FBFF2006F0AFFC002038BD00BF70B506460D46144604220021F6
:401C80002020FEF7A5FE042200212120FEF7A0FE04212846FFF7DCFB002006F0A3FC0F2004F05AFB012C0FD83CB904213046FEF7AFFE0420FFF702F806E004217042FEF798
:401CC000A7FE0420FEF7FAFF04210020FFF7C0FB042200212120FEF77BFE042201212020FEF776FE052004F037FBFF2006F07AFC002070BD00000000F8B506460C46174685
:401D00001D464FF0FF31FFF73DFB00210698FFF79FFB02210798FFF79BFB304608F018F921A3D3E9002308F0A3FA0022204B07F0C3FF08F023FC1F4BD86006F0C1FD1E4836
:401D400006F0EAFD00212046FEF762FE02212846FEF75EFE2E461DE0164B1B7C5BB10024144B1C74FF2006F0FDFD462004F00AFB204606F0F7FD06F0EDFD58B9AE4202D0CF
:401D8000BE4203D101E03E4600E02E4602213046FEF73EFE06F0CEFD0028DDD106F036FD0022044B1A74F8BD9A9999999999094000005240AC81FF1FBD01000000000000DD
:401DC0002DE9F04FA1B006468A46144699462B9DFF2006F0C5FB784F786A4042FEF746FA7822002102A808F0F6FE04EBD474641004EB05082A1B4FF0FF313046FFF7C2FA17
:401E000000214846FFF724FB02212A98FFF720FB304608F09DF8CDE9000165A3D3E9002308F026FA0022654B07F046FF08F0A6FBF86006F045FD624806F06EFD0021504636
:401E4000FEF7E6FD02214046FEF7E2FD012777E0594B1B7C6BB14FF00008574B83F81080FF2006F07FFD462004F08CFA404606F079FD06F06FFD002862D12C9808F0D0FC9B
:401E80008046284608F0CCFC0146404608F012FC8046504608F0C4FC8146304608F0C0FC0146484608F006FC0146404608F0C0FD834605F03BFF40423F4B9860986808F011
:401EC00047F83BA3D3E9002308F0A8F8DDE9002307F0F0FE80468946584608F04BF842464B4608F09BF880468946284608F030F842464B4607F0E0FE08F088FB834638469B
:401F000008F026F802460B4600202E4906F0F4FD80468946204608F01BF842464B4608F07DF880468946584608F024F842464B4607F0C2FE08F022FB0221FEF769FD013706
:401F400006F0F8FC002883D106F060FC1A4D00242C74FF2006F004FB012385F82C3015E0194D2846FEF7C6F90020FEF76FFB1748FEF7C0F920AB03EB840353F8780CFEF760
:401F800065FB2846FEF7B6F90134E4B21C2CE7D9094C002584F82C5006F0DCF84042E061E3696362284606F0DBFA21B0BDE8F08F9A99999999990940AC81FF1F00005240E1
:401FC000BD0100000000F0BF68B400002CB900002DE9F04F83B006468A46144699460D9DFF2006F0BDFA684F786A4042FEF73EF904EBD474641004EB05082A1B31464FF037
:40200000FF30FFF7BFF901214846FFF721FA02210C98FFF71DFA304607F09AFFCDE9000157A3D3E9002308F023F90022574B07F043FE08F0A3FAF86006F042FC544806F0D5
:402040006BFC01215046FEF7E3FC02214046FEF7DFFC012777E04C4B1B7C6BB14FF00008494B83F81080FF2006F07CFC462004F089F9404606F076FC06F06CFC002862D135
:402080000E9808F0CDFB8046284608F0C9FB0146404608F00FFB8046504608F0C1FB8146304608F0BDFB0146484608F003FB0146404608F0BDFC834606F058F94042324BA6
:4020C0005861586907F044FF2DA3D3E9002307F0A5FFDDE9002307F0EDFD80468946584607F048FF42464B4607F098FF80468946284607F02DFF42464B4607F0DDFD08F0F8
:4021000085FA8346384607F023FF02460B460020204906F0F1FC80468946204607F018FF42464B4607F07AFF80468946584607F021FF42464B4607F0BFFD08F01FFA0221DF
:40214000FEF766FC013706F0FDFB002883D106F05DFB0D4C00252574FF2006F001FA84F82C5005F0F7FF4042E061E3696362284606F0F6F903B0BDE8F08F00BFAFF300802F
:402180009A99999999990940AC81FF1F00005240E10100000000F0BF2DE9F04F89B00446884692461D46129E169FFF2006F0D8F9A34B586A4042FEF759F804EB08005044A2
:4021C000401900D50330801008F02AFB0190139BF018149B1844159BC01800D50330801008F01EFB8346204608F01AFB019908F061FA8146304608F013FBCDF808B05946C6
:4022000008F058FA0146484608F05EFB8346404608F006FB019908F04DFA8046139808F0FFFA029908F046FA0146404608F04CFB0146584608F040FA8346504608F0F0FA74
:40224000019908F037FA8246149808F0E9FA029908F030FA0146CDF80CA0504608F034FB0146584608F028FA8246284608F0D8FA019908F01FFA8346159808F0D1FA02999C
:4022800008F018FA0146CDF810B0584608F01CFB0146504608F010FA05904FF0000A4FF0804B484607F066FE52465B4606F024FCCDE90601404607F05DFE52465B4606F0D8
:4022C0001BFC02460B46DDE9060107F0F5FC80468946039807F04EFE52465B4606F00CFC02460B464046494607F0E6FC80468946049807F03FFE52465B4606F0FDFB024674
:402300000B464046494607F0D7FC08F07FF90146059808F08DFB83460146019808F0D4FA0146029808F0C6F9824607EBD7725210B718B21A21464FF0FF30FFF723F801218A
:402340001798FFF785F802211898FFF781F8204607F0FEFD38A3D3E9002307F089FF0022384B07F0A9FC08F009F9354BD86006F0A7FA354806F0D0FA01212846FEF748FBD9
:4023800002213846FEF744FB3DE02D4B1B7C5BB100242B4B1C74FF2006F0E4FA462003F0F1FF204606F0DEFA06F0D4FA58BB05F0D1FE4042224CE061E369FF1A05F0D6FF7B
:4023C00040426061606907F0C3FD1BA3D3E9002307F024FE04460D46584607F0CBFD22462B4607F01BFE04460D46504607F0C2FD22462B4607F060FC08F0C0F8074402214E
:402400003846FEF705FB06F09DFA0028BDD106F0FDF90B4C00252574FF2006F0A1F805F099FE4042E061E3696362284606F098F809B0BDE8F08F00BF9A9999999999094067
:40244000AC81FF1F00005240E101000010B5642003F082FF002418E0462003F093FFFF2006F080FA462003F08DFF002006F07AFA002005F0E7FB032003F06EFF782005F0D4
:40248000E1FB022003F068FF0134B4F57A7FE3DB10BD00BF000000002DE9F04F8FB00022DB4B5A63DB4A5178137803EB0123DA4A13607A2B5BD1D94C00212046FEF7C8FFAF
:4024C000D748FDF717FF0022D6491020FEF780FAFF2006F06FF84FF4FA7003F053FFFF2006F05CF84FF4FA7003F04CFF002006F049F84FF4FA7003F045FF00212046FEF75A
:40250000A7FF012003F028FF0020FEF781FCC64C012221461020FEF75BFA022221461020FEF756FA0022C1491020FEF751FA0020FEF796FF0022BE491020FEF749FA3220E9
:4025400003F00AFF002006F035F8322003F004FF002006F023F8AE4C002323644FF4FA7003F010FF606BFDF7E7FE01F07BB97B2B55D1AA4C01212046FEF76AFFAD48FDF7F6
:40258000B9FEFF2006F016F84FF4FA7003F0FAFEFF2005F0F7FF4FF4FA7003F0F3FE002005F0FCFF4FF4FA7003F0ECFE01212046FEF74EFF012003F0CFFE0020FEF7E8FCD0
:4025C00001229D491020FEF703FA022296491020FEF7FEF9964C002221461020FEF7F8F90120FFF717F8012221461020FEF7F0F9322003F0B1FE002005F0DCFF322003F029
:40260000ABFE002005F0BEFF322003F0A5FE804B00225A64586BFDF78FFE01F023B97C2B47D18648FDF766FEFF2005F0B7FF4FF4FA7003F0A7FEFF2005F0A4FF4FF4FA7023
:4026400003F0A0FE002005F0B5FF4FF4FA7003F099FE02217A48FEF7FBFE012003F07CFE0020FEF755FD01226F491020FEF7B0F9022274491020FEF7ABF900226C491020A7
:40268000FEF7A6F90220FFF7AFF8322003F064FE002005F083FF322003F05EFE002005F071FF5B4B00229A64586BFDF745FE01F0D9B87D2B4FD1FF2005F07CFF4FF4FA701D
:4026C00003F060FEFF2005F069FF4FF4FA7003F059FEFF2005F056FF4FF4FA7003F052FE032259491020FEF773F94FF4FA7003F049FE002005F06AFF0A2003F02DFE002098
:40270000FEF7CEFD0320FFF759F94FF47A7003F039FEFF2005F05AFF4FF47A7003F032FE002005F047FF4FF47A7003F02BFE002005F034FF4FF47A7003F024FE002005F017
:4027400021FF4FF47A7003F01DFE314B586BFDF7F3FD01F087B8B3F5F46F7FD100212F48FEF776FE3948FDF7C5FD2A4A517913791B0403EB0163D17803EB01239278134421
:40278000234CE3643248FDF7B5FDE06CFDF75EFF3048FDF7AFFD226CE36C9A422BD023641846002B00DAD81C194C801007F0D0FB15A3D3E9002307F031FC07F0DFFEE06472
:4027C000FEF726FB60630A2003F0C6FD224C012221461020FEF7FCF8022221461020FEF7F7F8002221461020FEF7F2F8032221461020FEF7EDF8064B586BFDF79DFD01F0AF
:4028000031B800BFAFF300809A99999999992940AC81FF1F5C82FF1FD082FF1FFAD0050038B900000704070001010700070307000103070050B900000302070068B90000EA
:402840006EA30100030307000105070080B9000098B9000068B4000002010700B3F5F66F52D101219A48FEF7F3FD9A48FDF742FD994A517913791B0403EB0163D17803EB6D
:40288000012392781344954C23659548FDF732FD206DFDF7DBFE9348FDF72CFD626C236D9A422BD063641846002B00DAD81C8B4C801007F04DFB82A3D3E9002307F0AEFB3B
:4028C00007F05CFE2065FEF763FB60630A2003F043FD854C012221461020FEF779F8022221461020FEF774F8002221461020FEF76FF8032221461020FEF76AF8774B586BD5
:40290000FDF71AFD00F0AEBFB3F5FA6F3ED17748FDF7F0FC02217648FEF79AFDC82003F031FD6D4A517913791B0403EB0163D17803EB012392781344684C63656848FDF7A0
:40294000D9FC606DFDF782FE6648FDF7D3FCA26C636D9A4214D0A3641846002B01DA03F10F005E4C001107F0F3FA57A3D3E9002307F054FB07F002FE6065FEF7C9FB6063CE
:40298000564B586BFDF7D8FC00F06CBFB3F5FC6F5BD15848FDF7AEFCFF2005F00BFE4FF4FA7003F0EFFCFF2005F0F8FD4FF4FA7003F0E8FCFF2005F0E5FD4FF4FA7003F088
:4029C000E1FC03224C491020FEF702F84FF4FA7003F0D8FC002005F0F9FD0A2003F0BCFC3D4A517913791B0403EB0163D07803EB002390781844394CA065FEF751FC606333
:402A00004FF47A7003F0BEFCFF2005F0DFFD4FF47A7003F0B7FC002005F0CCFD4FF47A7003F0B0FC002005F0B9FD4FF47A7003F0A9FC002005F0A6FD4FF47A7003F0A2FC49
:402A4000606BFDF779FC00F00DBF7E2B5ED12B48FDF750FC2A48FDF74DFC1F4C627923791B0403EB0263E27803EB0223A5781D442846FDF7EBFD2348FDF73CFCA079FDF7FF
:402A8000E5FD1848FDF736FCA379012B03D80A2003F078FC02E000220F4B9A710E4B9C791948FDF727FC2046FDF7D0FD21462846FFF798F8094B586BFDF73EFC00F0D2BE64
:402AC0009A999999999929409A99999999994940FAD00500B0B900005C82FF1FAC81FF1F98B9000068B4000002010700C8B900006EA30100E0B9000001050700F8B90000D6
:402B00001CBA000024BA00003CBA0000B3F5F86F40F0AD8002219A48FEF79AFC994C00212046FEF795FC01212046FEF791FC9648FDF7E0FB954B59791A79120402EB01629B
:402B4000D97802EB012298781044914CE064597A1A7A120402EB0162D97902EB01229979114421655D7B1A7B120402EB0562DD7A02EB05229B7A13446365226C904202D1AA
:402B80004FF0FF30E064824A526C914203D14FF0FF317F4A11657E4A926C934203D14FF0FF327B4B5A657A4BDB6C002B10DB784A1364184600DAD81C801007F0C9F96CA341
:402BC000D3E9002307F02AFA07F0D8FC704BD8646F4B1B6D002B10DB6D4A5364184600DAD81C801007F0B4F961A3D3E9002307F015FA07F0C3FC664B1865654B5B6D002B83
:402C000011DB634A9364184601DA03F10F00001107F09EF958A3D3E9002307F0FFF907F0ADFC5B4B58655A4C626D216DE06CFEF7A9FB60630A2003F08FFB564D01222946D6
:402C40001020FDF7C5FE022229461020FDF7C0FE002229461020FDF7BBFE032229461020FDF7B6FE606BFDF767FB00F0FBBDB3F5F44F0AD1FDF73CFD642003F06DFB444BF4
:402C8000586BFDF759FB00F0EDBDB3F50A4F31D13E4B9B784BB93D4CA37A227AA1792079247B009400F01EFE1BE0012B09D1374CA37A227AA1792079247B009400F0B4FED3
:402CC0000FE0032B05D1314B9979187901F0ACFC07E013222E4B5A632F48FDF70BFBFDF73FFD642003F038FB294B586BFDF724FB00F0B8BDB3F5FE4F0AD1FDF7C1FC6420D8
:402D000003F02AFB224B586BFDF716FB00F0AABDB3F5FC4F12D11D4B9C7834B1012C03D01E48FDF7E7FA00E0FF24204605F0D0F9174B586BFDF700FB00F094BDFF2B33D1D3
:402D40001748FDF7D7FA1748FDF7D4FA4FF4FA7003F002FB0020FDF7EFFA4FF4FA7003F0FBFA03F0F1FA00F07DBD00BFAFF300809A999999999929409A99999999994940D6
:402D80006EA30100FAD0050050BA00005C82FF1FAC81FF1F030107006CBA000094BA0000BCBA00005CB60000B3F5F64F4DD1944B59791A79120402EB0162D97802EB0122C4
:402DC00099780A448F4C6260597A1A7A120402EB0162D97902EB012299790A44A260597B1A7B120402EB0162D97A02EB01229B7A1A44E2608448FDF77DFA00216068FEF74A
:402E000027FB0121A068FEF723FB0221E068FEF71FFB7E48FDF76EFA6068FDF717FC7C4D2846FDF767FAA068FDF710FC2846FDF761FAE068FDF70AFC2846FDF75BFA754BBE
:402E4000586BFDF779FA00F00DBD40F2D172934240F0A9806F4C00232360012384F82C306D48FDF747FA6D48FDF744FA644B59791A79120402EB0162D97802EB01229978B1
:402E80000A446265597A1A7A120402EB0162D97902EB0122987910445A4BD8600221FEF7D7FA626DA36CD31A002BB8BF5B42B3F5FA7F18DBA2641046002A01DA02F10F0022
:402EC000544C001107F044F84BA3D3E9002307F0A5F807F053FB60655048FDF70BFA606DFEF716F952E04B4B9A641046002A01DA02F10F00474C001107F02AF83EA3D3E9A4
:402F0000002307F08BF807F039FB6065444D012229461020FDF75CFD002229461020FDF757FD02223F491020FDF752FD606A4042FDF79CF900236363FDF7BAF9206807F058
:402F400007F80022384B07F069F807F017FBFDF77DFB324D2846FDF7CDF90221606DFDF757FD0220FDF7AAFE206806F0F1FF00222D4B07F053F807F001FBFDF767FB284642
:402F8000FDF7B8F9FDF794F9E36963622348FDF7B1F9204C00252560606BFDF7CDF984F82C5000F05FBC40F2D27293423ED1144B59791A79120402EB0162D97802EB01224E
:402FC00098781044134CE065597A1A7A120402EB0162D97902EB01229979114421669A7A6266FEF747FE00206063FDF7A5F900F039BC00BFAFF300809A999999999949403B
:403000005C82FF1FD080FF1FDCBA000004BB00002CBB0000AC81FF1F30BB0000F4B9000001010700020207000000044040F2C172934240F09480A64B59791A79120402EBD8
:403040000162D97802EB012299780A44A14DEA64597A1A7A120402EB0162D97902EB012299790A442A65597B1A7B120402EB0162D97A02EB0122997A0A446A65597C1A7C06
:40308000120402EB0162D97B02EB0122997B0A44914C6260597D1A7D120402EB0162D97C02EB0122997C0A44A260597E1A7E120402EB0162D97D02EB01229B7D1A44E260B5
:4030C0000A2003F05FF900216068FEF7C1F90121A068FEF7BDF90221E068FEF7B9F9E86C002800DA03307B4C801006F031FF74A3D3E9002306F092FF07F040FAE064206D57
:40310000002800DA0330734C801006F021FF6CA3D3E9002306F082FF07F030FA2065606D002800DA0F306B4C001106F011FF66A3D3E9002306F072FF07F020FA6065642065
:4031400003F020F9626D216DE06CFEF71BF96063642003F001F9606BFDF7EEF882E3B3F5F84F03D10020FDF7E7F87BE3FE2B0FD1FF2005F0F5F95948FDF7BCF80A2003F0CE
:40318000EBF80020FDF7D8F8002005F0E9F969E347F28332934240F0A3804D4B59791A79120402EB0162D97802EB012299781144587A1A7A120402EB0062DC7902EB042292
:4031C0009C791444587B1A7B120402EB0062DD7A02EB05229D7A1544587C1A7C120402EB0062D87B02EB002293F80E8090440846002900DAC81C801006F0AAFE30A3D3E9AA
:40320000002306F00BFF07F0B9F906462046002C00DAE01C801006F09BFE29A3D3E9002306F0FCFE07F0AAF904462846002D01DA05F10F00001106F08BFE23A3D3E90023C0
:4032400006F0ECFE07F09AF907464046B8F1000F01DA08F10F00001106F07AFE1AA3D3E9002306F0DBFE07F089F90546184B597D1A7D120402EB0162D97C02EB0122997C18
:4032800011441548416093F819E01A7E120402EB0E6293F817E002EB0E229B7D1A44C260019200912B463A4621463046FEF724FD084B9D641C640020FDF73EF8D2E200BF5C
:4032C0009A999999999929409A999999999949405C82FF1FAC81FF1FD080FF1F34BB000048F28332934240F0AF80B54B59791A79120402EB0162D97802EB01229978114455
:40330000587A1A7A120402EB0062DE7902EB06229E791644587B1A7B120402EB0062DD7A02EB05229D7A1544587C1A7C120402EB0062DC7B02EB04229C7B1444A14B5C60ED
:403340000846002900DAC81C801006F001FE98A3D3E9002306F062FE07F010F980463046002E00DAF01C801006F0F2FD90A3D3E9002306F053FE07F001F90646284607F063
:403380004FFA4FF0765107F09FFA06F0F3FD8AA3D3E9002306F042FE07F0F0F80746884B597D1A7D120402EB0162DD7C02EB05229D7C1544834AD560597E1A7E120402EBE1
:4033C0000162D97D02EB0122997D1144587F1A7F120402EB0062D87E02EB002293F81A9091440846002901DA01F10F00001106F0AFFD71A3D3E9002306F010FE07F0BEF8AB
:4034000082464846B9F1000F01DA09F10F00001106F09EFD68A3D3E9002306F0FFFD07F0ADF881460290CDF804A0009523463A4631464046FEF7C4FC4F44634B9F641E64C7
:403440000020FCF779FF0DE247F27332934240F0BD805B4B59791A79120402EB0162D97802EB012299781144587A1A7A120402EB0062DE7902EB06229E791644587B1A7B6A
:40348000120402EB0062DD7A02EB05229D7A1544587C1A7C120402EB0062DC7B02EB04229C7B1444474B5C600846002900DAC81C801006F04DFD3EA3D3E9002306F0AEFD70
:4034C00007F05CF880463046002E00DAF01C801006F03EFD36A3D3E9002306F09FFD07F04DF80646284607F09BF94FF0765107F0EBF906F03FFD30A3D3E9002306F08EFD5F
:4035000007F03CF807462E4B597D1A7D120402EB0162DD7C02EB05229D7C1544294AD560597E1A7E120402EB0162D97D02EB0122997D1144587F1A7F120402EB0062D87E6F
:4035400002EB002293F81A9091440846002901DA01F10F00001106F0FBFC17A3D3E9002306F05CFD07F00AF882464846B9F1000F01DA09F10F00001106F0EAFC0EA3D3E9B3
:40358000002306F04BFD06F0F9FF81460290CDF804A0009523463A4631464046FEF718FD4F44094B9F641E640020FCF7C5FE59E19A999999999929409A99999999994940D9
:4035C0005C82FF1FD080FF1FAC81FF1F49F29332934240F03281AA4B59791A79120402EB0162D97802EB012299781144587A1A7A120402EB006293F8079002EB092293F847
:4036000006909144587B1A7B120402EB006293F80B8002EB082293F80A809044587C1A7C120402EB0062DF7B02EB07229F7B1744587D1A7D120402EB0062DE7C02EB062248
:403640009E7C1644587E1A7E120402EB0062DD7D02EB05229D7D1544587F1A7F120402EB0062DC7E02EB04229C7E144493F8210093F82020120402EB0062D87F02EB00222C
:40368000987F0244099293F8250093F82420120402EB006293F8230002EB002293F8220002440A9293F8290093F82820120402EB006293F827A002EB0A2293F826A0924464
:4036C0007048C0F804A093F82DE093F82C20120402EB0E6293F82BB002EB0B2293F82AB09344C0F80CB00846002900DAC81C801006F02EFC5EA3D3E9002306F08FFC06F068
:403700003DFF0B904846B9F1000F01DA09F10300801006F01DFC56A3D3E9002306F07EFC06F02CFF0C904046B8F1000F01DA08F10300801006F00CFC4DA3D3E9002306F087
:403740006DFC06F01BFF0D903846002F00DAF81C801006F0FDFB46A3D3E9002306F05EFC06F00CFF07463046002E01DA06F10F00001106F0EDFB40A3D3E9002306F04EFC3E
:4037800006F0FCFE06462846002D01DA05F10F00001106F0DDFB38A3D3E9002306F03EFC06F0ECFE05462046002C01DA04F10F00001106F0CDFB30A3D3E9002306F02EFC4C
:4037C00006F0DCFE0446099B1846002B00DA0F30001106F0BDFB28A3D3E9002306F01EFC06F0CCFE80460A9807F01AF84FF0765107F06AF806F0BEFB1FA3D3E9002306F01A
:403800000DFC06F0BBFE8146CDF818B0CDF814A00490CDF80C800294019500963B460D9A0C990B98FEF7B8FC08EB0903164A936417640020FCF780FD14E041F210029342D4
:4038400005D1FEF703FE0020FCF776FD0AE013240D4B5C630D48FCF74DFDFCF781FF2046FCF76AFD0FB0BDE8F08F00BFAFF300809A999999999929409A9999999999494015
:403880005C82FF1FD080FF1FAC81FF1F6CBA000010B440F0E000044C43EA0023238041EA0222628010BC70471482FF1F38B50546082313E05C1E45FA04F000F0010005F0C5
:4038C0005DF8002005F066F8012002F05BFD012005F060F8012002F055FDE3B2002BE9D138BD00BFF8B505460C4616461F460020FFF7DCFF0020FFF7D9FF0020FFF7D6FFBF
:403900000020FFF7D3FF0122304B1A700FE0E020FFF7CCFF0020FFF7C9FF0020FFF7C6FF0020FFF7C3FF294A137801331370274B1B78122BEBD9FF20FFF7B8FFFF20FFF79A
:40394000B5FFFF20FFF7B2FFFF20FFF7AFFF3B46324621469DF81800FFF79AFF0020FFF7A5FF0020FFF7A2FF0020FFF79FFF0020FFF79CFF0122154B1A7012E0144C208891
:40398000000AFFF793FF2078FFF790FF6088000AFFF78CFFA078FFF789FF0C4A1378013313700A4B1B78AB42E8D9FF20FFF77EFFFF20FFF77BFFFF20FFF778FFFF20FFF75F
:4039C00075FF0022014B1A70F8BD00BFD882FF1F1482FF1F38B505469DF81000FFF758FF01220F4B1A7012E00E4C2088000AFFF75DFF2078FFF75AFF6088000AFFF756FF16
:403A0000A078FFF753FF064A137801331370044B1B78AB42E8D90022014B1A7038BD00BFD882FF1F1482FF1F2DE9F04182B004460D4616461F469DF820800020FFF736FFD5
:403A40000020FFF733FF0020FFF730FF0020FFF72DFF0122754B1A700FE0E020FFF726FF0020FFF723FF0020FFF720FF0020FFF71DFF6E4A1378013313706C4B1B78122BE0
:403A8000EBD9FF20FFF712FFFF20FFF70FFFFF20FFF70CFFFF20FFF709FF013C042C00F2C180DFE804F003244D769F000020FFF7FDFE0020FFF7FAFE0020FFF7F7FE00208E
:403AC000FFF7F4FEE023009300231A4619461220FFF780FFFF20FFF7E9FEFF20FFF7E6FEFF20FFF7E3FEFF20FFF7E0FE9AE00020FFF7DCFE0020FFF7D9FE0020FFF7D6FEA0
:403B00000020FFF7D3FEE023009300231A4619460D20FFF75FFFCDF800803B46324629460520FFF757FFFF20FFF7C0FEFF20FFF7BDFEFF20FFF7BAFEFF20FFF7B7FE71E0FC
:403B40000020FFF7B3FE0020FFF7B0FE0020FFF7ADFE0020FFF7AAFEE023009300231A4619460920FFF736FFCDF800803B46324629460920FFF72EFFFF20FFF797FEFF20AD
:403B8000FFF794FEFF20FFF791FEFF20FFF78EFE48E00020FFF78AFE0020FFF787FE0020FFF784FE0020FFF781FEE023009300231A4619460520FFF70DFFCDF800803B4645
:403BC000324629460D20FFF705FFFF20FFF76EFEFF20FFF76BFEFF20FFF768FEFF20FFF765FE1FE00020FFF761FE0020FFF75EFE0020FFF75BFE0020FFF758FECDF80080BF
:403C00003B46324629461220FFF7E4FEFF20FFF74DFEFF20FFF74AFEFF20FFF747FEFF20FFF744FE02B0BDE8F08100BFD882FF1F10B5102410E0002004F0B8FE002004F0DE
:403C4000C1FE012002F09EFB012004F0BBFE012002F098FB013CE4B2002CECD110BD00BF38B50546002004F0ADFE002004F0B6FE012002F087FBFFF7DBFF102313E05C1E59
:403C800045FA04F000F0010004F090FE002004F099FE012002F076FB012004F093FE012002F070FBE3B2002BE9D1FFF7C1FFFFF7BFFF002004F086FE012004F08FFE38BDF8
:403CC00008B50022044B1A7041EA402080B2034B1880FFF7C5FF08BDF580FF1F2082FF1F08B538B9074B0B2098700021D970FFF7E7FF08BD034B0B2098708021D970FFF7F8
:403D0000DFFF08BD2082FF1F08B518210120FFF7D7FF012004F06EFE00210A20FFF7D0FF0020FFF7DDFF01212020FFF7C9FF08BD38B50546002004F045FE002004F04EFEE6
:403D4000012002F01FFBFFF773FFFFF771FFFFF76FFF102313E05C1E45FA04F000F0010004F024FE002004F02DFE012002F00AFB012004F027FE012002F004FBE3B2002BA7
:403D8000E9D1002004F01EFE012004F027FE38BD08B50022044B1A7041EA402080B2034B1880FFF7C5FF08BDF580FF1F2082FF1F08B538B9074B0B2098700021D970FFF72A
:403DC000E7FF08BD034B0B2098708021D970FFF7DFFF08BD2082FF1F08B518210120FFF7D7FF012004F012FE00210A20FFF7D0FF0020FFF7DDFF01212020FFF7C9FF08BD65
:403E000038B50546002004F0DDFD002004F0E6FD012002F0B7FA102313E05C1E45FA04F000F0010004F0C2FD002004F0CBFD012002F0A8FA012004F0C5FD012002F0A2FA13
:403E4000E3B2002BE9D1FFF7F3FEFFF7F1FEFFF7EFFE002004F0B6FD012004F0BFFD38BD08B50022044B1A7041EA402080B2034B1880FFF7C5FF08BDF580FF1F2082FF1F5F
:403E800008B538B9074B0B2098700021D970FFF7E7FF08BD034B0B2098708021D970FFF7DFFF08BD2082FF1F08B518210120FFF7D7FF012004F0B6FD00210A20FFF7D0FF45
:403EC0000020FFF7DDFF01212020FFF7C9FF08BD38B50546002004F075FD002004F07EFD012002F04FFAFFF7A3FEFFF7A1FE102313E05C1E45FA04F000F0010004F056FD0B
:403F0000002004F05FFD012002F03CFA012004F059FD012002F036FAE3B2002BE9D1FFF787FE002004F04EFD012004F057FD38BD08B50022044B1A7041EA402080B2034BA5
:403F40001880FFF7C5FF08BDF580FF1F2082FF1F08B538B9074B0B2098700021D970FFF7E7FF08BD034B0B2098708021D970FFF7DFFF08BD2082FF1F08B518210120FFF7C8
:403F8000D7FF012004F05AFD00210A20FFF7D0FF0020FFF7DDFF01212020FFF7C9FF08BD08B5012004F01AFD012004F023FD0120FFF796FE00212020FFF782FE00212420D3
:403FC000FFF77EFE00212820FFF77AFE00212C20FFF776FE00213020FFF772FE00213420FFF76EFE00213820FFF76AFE00213C20FFF766FE00214020FFF762FE00214420E9
:40400000FFF75EFE00214820FFF75AFE00214C20FFF756FE00215020FFF752FE00215420FFF74EFE00215820FFF74AFE00215C20FFF746FE00216020FFF742FE00216420A8
:40404000FFF73EFE00216820FFF73AFE00216C20FFF736FE00217020FFF732FE00217420FFF72EFE00217820FFF72AFE00217C20FFF726FE00212120FFF722FE0021252026
:40408000FFF71EFE00212920FFF71AFE00212D20FFF716FE00213120FFF712FE00213520FFF70EFE00213920FFF70AFE00213D20FFF706FE00214120FFF702FE0021452020
:4040C000FFF7FEFD00214920FFF7FAFD00214D20FFF7F6FD00215120FFF7F2FD00215520FFF7EEFD00215920FFF7EAFD00215D20FFF7E6FD00216120FFF7E2FD00216520E8
:40410000FFF7DEFD00216920FFF7DAFD00216D20FFF7D6FD00217120FFF7D2FD00217520FFF7CEFD00217920FFF7CAFD00217D20FFF7C6FD012004F05DFC012004F066FCFF
:404140000120FFF735FE00212020FFF721FE00212420FFF71DFE00212820FFF719FE00212C20FFF715FE00213020FFF711FE00213420FFF70DFE00213820FFF709FE00219A
:404180003C20FFF705FE00214020FFF701FE00214420FFF7FDFD00214820FFF7F9FD00214C20FFF7F5FD00215020FFF7F1FD00215420FFF7EDFD00215820FFF7E9FD002155
:4041C0005C20FFF7E5FD00216020FFF7E1FD00216420FFF7DDFD00216820FFF7D9FD00216C20FFF7D5FD00217020FFF7D1FD00217420FFF7CDFD00217820FFF7C9FD002117
:404200007C20FFF7C5FD00212120FFF7C1FD00212520FFF7BDFD00212920FFF7B9FD00212D20FFF7B5FD00213120FFF7B1FD00213520FFF7ADFD00213920FFF7A9FD00216F
:404240003D20FFF7A5FD00214120FFF7A1FD00214520FFF79DFD00214920FFF799FD00214D20FFF795FD00215120FFF791FD00215520FFF78DFD00215920FFF789FD00218E
:404280005D20FFF785FD00216120FFF781FD00216520FFF77DFD00216920FFF779FD00216D20FFF775FD00217120FFF771FD00217520FFF76DFD00217920FFF769FD00214E
:4042C0007D20FFF765FD012004F0A0FB012004F0A9FB0120FFF7D4FD00212020FFF7C0FD00212420FFF7BCFD00212820FFF7B8FD00212C20FFF7B4FD00213020FFF7B0FD14
:4043000000213420FFF7ACFD00213820FFF7A8FD00213C20FFF7A4FD00214020FFF7A0FD00214420FFF79CFD00214820FFF798FD00214C20FFF794FD00215020FFF790FDDD
:4043400000215420FFF78CFD00215820FFF788FD00215C20FFF784FD00216020FFF780FD00216420FFF77CFD00216820FFF778FD00216C20FFF774FD00217020FFF770FD9D
:4043800000217420FFF76CFD00217820FFF768FD00217C20FFF764FD00212120FFF760FD00212520FFF75CFD00212920FFF758FD00212D20FFF754FD00213120FFF750FD38
:4043C00000213520FFF74CFD00213920FFF748FD00213D20FFF744FD00214120FFF740FD00214520FFF73CFD00214920FFF738FD00214D20FFF734FD00215120FFF730FD15
:4044000000215520FFF72CFD00215920FFF728FD00215D20FFF724FD00216120FFF720FD00216520FFF71CFD00216920FFF718FD00216D20FFF714FD00217120FFF710FDD4
:4044400000217520FFF70CFD00217920FFF708FD00217D20FFF704FD012004F0E3FA012004F0ECFA0120FFF773FD00212020FFF75FFD00212420FFF75BFD00212820FFF7E4
:4044800057FD00212C20FFF753FD00213020FFF74FFD00213420FFF74BFD00213820FFF747FD00213C20FFF743FD00214020FFF73FFD00214420FFF73BFD00214820FFF744
:4044C00037FD00214C20FFF733FD00215020FFF72FFD00215420FFF72BFD00215820FFF727FD00215C20FFF723FD00216020FFF71FFD00216420FFF71BFD00216820FFF704
:4045000017FD00216C20FFF713FD00217020FFF70FFD00217420FFF70BFD00217820FFF707FD00217C20FFF703FD00212120FFF7FFFC00212520FFF7FBFC00212920FFF7E2
:40454000F7FC00212D20FFF7F3FC00213120FFF7EFFC00213520FFF7EBFC00213920FFF7E7FC00213D20FFF7E3FC00214120FFF7DFFC00214520FFF7DBFC00214920FFF783
:40458000D7FC00214D20FFF7D3FC00215120FFF7CFFC00215520FFF7CBFC00215920FFF7C7FC00215D20FFF7C3FC00216120FFF7BFFC00216520FFF7BBFC00216920FFF743
:4045C000B7FC00216D20FFF7B3FC00217120FFF7AFFC00217520FFF7ABFC00217920FFF7A7FC00217D20FFF7A3FC002004F026FA08BD00BF08B5002004F02CFA012001F0A8
:40460000C1FE012004F026FA012001F0BBFE08BD08B5FFF7EFFFFFF777FBFFF7DDFBFFF743FCFFF7A9FC08BD38B505460C46FFF7EFFF012001F0A6FE012C40F0CA8001209E
:4046400004F0D8F90120FFF74BFB00212020FFF737FB00212420FFF733FB00212820FFF72FFB00212C20FFF72BFB00213020FFF727FB00213420FFF723FB00213820FFF773
:404680001FFB00213C20FFF71BFB00214020FFF717FB00214420FFF713FB01214820FFF70FFB00214C20FFF70BFB00215020FFF707FB00215420FFF703FB00215820FFF791
:4046C000FFFA00215C20FFF7FBFA00216020FFF7F7FA00216420FFF7F3FA00216820FFF7EFFA00216C20FFF7EBFA00217020FFF7E7FA00217420FFF7E3FA00217820FFF75A
:40470000DFFA00217C20FFF7DBFA00212120FFF7D7FA00212520FFF7D3FA00212920FFF7CFFA00212D20FFF7CBFA00213120FFF7C7FA00213520FFF7C3FA00213920FFF7B2
:40474000BFFA00213D20FFF7BBFA00214120FFF7B7FA00214520FFF7B3FA29464920FFF7AFFA00214D20FFF7ABFA00215120FFF7A7FA00215520FFF7A3FA00215920FFF783
:404780009FFA00215D20FFF79BFA00216120FFF797FA00216520FFF793FA00216920FFF78FFA00216D20FFF78BFA00217120FFF787FA00217520FFF783FA00217920FFF791
:4047C0007FFA00217D20FFF77BFA002004F012F938BD022C40F0CA80012004F00BF90120FFF77EFA00212020FFF76AFA00212420FFF766FA00212820FFF762FA00212C2015
:40480000FFF75EFA00213020FFF75AFA00213420FFF756FA01213820FFF752FA00213C20FFF74EFA00214020FFF74AFA01214420FFF746FA00214820FFF742FA00214C207E
:40484000FFF73EFA00215020FFF73AFA01215420FFF736FA00215820FFF732FA00215C20FFF72EFA00216020FFF72AFA00216420FFF726FA00216820FFF722FA00216C203F
:40488000FFF71EFA00217020FFF71AFA00217420FFF716FA00217820FFF712FA00217C20FFF70EFA00212120FFF70AFA00212520FFF706FA00212920FFF702FA00212D207C
:4048C000FFF7FEF900213120FFF7FAF900213520FFF7F6F929463920FFF7F2F900213D20FFF7EEF900214120FFF7EAF929464520FFF7E6F900214920FFF7E2F900214D2024
:40490000FFF7DEF900215120FFF7DAF929465520FFF7D6F900215920FFF7D2F900215D20FFF7CEF900216120FFF7CAF900216520FFF7C6F900216920FFF7C2F900216D2031
:40494000FFF7BEF900217120FFF7BAF900217520FFF7B6F900217920FFF7B2F900217D20FFF7AEF9002004F045F838BD032C40F0CA80012004F03EF80120FFF7B1F9002102
:404980002020FFF79DF900212420FFF799F900212820FFF795F900212C20FFF791F900213020FFF78DF900213420FFF789F900213820FFF785F901213C20FFF781F900218E
:4049C0004020FFF77DF900214420FFF779F900214820FFF775F901214C20FFF771F900215020FFF76DF900215420FFF769F901215820FFF765F900215C20FFF761F900214D
:404A00006020FFF75DF900216420FFF759F900216820FFF755F900216C20FFF751F900217020FFF74DF900217420FFF749F900217820FFF745F900217C20FFF741F900210E
:404A40002120FFF73DF900212520FFF739F900212920FFF735F900212D20FFF731F900213120FFF72DF900213520FFF729F900213920FFF725F929463D20FFF721F9002178
:404A80004120FFF71DF900214520FFF719F900214920FFF715F929464D20FFF711F900215120FFF70DF900215520FFF709F929465920FFF705F900215D20FFF701F90021EA
:404AC0006120FFF7FDF800216520FFF7F9F800216920FFF7F5F800216D20FFF7F1F800217120FFF7EDF800217520FFF7E9F800217920FFF7E5F800217D20FFF7E1F800204F
:404B000003F078FF38BD042C40F0CA80012003F071FF0120FFF7E4F800212020FFF7D0F800212420FFF7CCF800212820FFF7C8F800212C20FFF7C4F800213020FFF7C0F85A
:404B400000213420FFF7BCF801213820FFF7B8F801213C20FFF7B4F800214020FFF7B0F801214420FFF7ACF801214820FFF7A8F801214C20FFF7A4F800215020FFF7A0F838
:404B800001215420FFF79CF801215820FFF798F800215C20FFF794F800216020FFF790F800216420FFF78CF800216820FFF788F800216C20FFF784F800217020FFF780F8FB
:404BC00000217420FFF77CF800217820FFF778F800217C20FFF774F800212120FFF770F800212520FFF76CF800212920FFF768F800212D20FFF764F800213120FFF760F898
:404C000000213520FFF75CF829463920FFF758F829463D20FFF754F800214120FFF750F829464520FFF74CF829464920FFF748F829464D20FFF744F800215120FFF740F8EE
:404C400029465520FFF73CF829465920FFF738F800215D20FFF734F800216120FFF730F800216520FFF72CF800216920FFF728F800216D20FFF724F800217120FFF720F898
:404C800000217520FFF71CF800217920FFF718F800217D20FFF714F8002003F0ABFE38BD052C40F0CA80012003F0A4FE0120FFF717F800212020FFF703F801212420FEF7CF
:404CC000FFFF00212820FEF7FBFF01212C20FEF7F7FF00213020FEF7F3FF01213420FEF7EFFF00213820FEF7EBFF00213C20FEF7E7FF00214020FEF7E3FF00214420FEF7D2
:404D0000DFFF00214820FEF7DBFF00214C20FEF7D7FF01215020FEF7D3FF00215420FEF7CFFF00215820FEF7CBFF00215C20FEF7C7FF01216020FEF7C3FF00216420FEF791
:404D4000BFFF01216820FEF7BBFF00216C20FEF7B7FF00217020FEF7B3FF00217420FEF7AFFF00217820FEF7ABFF00217C20FEF7A7FF00212120FEF7A3FF29462520FEF7C2
:404D80009FFF00212920FEF79BFF29462D20FEF797FF00213120FEF793FF29463520FEF78FFF00213920FEF78BFF00213D20FEF787FF00214120FEF783FF00214520FEF76F
:404DC0007FFF00214920FEF77BFF00214D20FEF777FF29465120FEF773FF00215520FEF76FFF00215920FEF76BFF00215D20FEF767FF29466120FEF763FF00216520FEF72F
:404E00005FFF29466920FEF75BFF00216D20FEF757FF00217120FEF753FF00217520FEF74FFF00217920FEF74BFF00217D20FEF747FF002003F0DEFD38BD062C40F0CA8061
:404E4000012003F0D7FD0120FEF74AFF01212020FEF736FF00212420FEF732FF01212820FEF72EFF00212C20FEF72AFF01213020FEF726FF00213420FEF722FF002138202D
:404E8000FEF71EFF00213C20FEF71AFF01214020FEF716FF00214420FEF712FF00214820FEF70EFF00214C20FEF70AFF00215020FEF706FF00215420FEF702FF0021582079
:404EC000FEF7FEFE01215C20FEF7FAFE00216020FEF7F6FE01216420FEF7F2FE00216820FEF7EEFE00216C20FEF7EAFE00217020FEF7E6FE00217420FEF7E2FE0021782040
:404F0000FEF7DEFE00217C20FEF7DAFE29462120FEF7D6FE00212520FEF7D2FE29462920FEF7CEFE00212D20FEF7CAFE29463120FEF7C6FE00213520FEF7C2FE00213920B0
:404F4000FEF7BEFE00213D20FEF7BAFE29464120FEF7B6FE00214520FEF7B2FE00214920FEF7AEFE00214D20FEF7AAFE00215120FEF7A6FE00215520FEF7A2FE002159206B
:404F8000FEF79EFE29465D20FEF79AFE00216120FEF796FE29466520FEF792FE00216920FEF78EFE00216D20FEF78AFE00217120FEF786FE00217520FEF782FE00217920DD
:404FC000FEF77EFE00217D20FEF77AFE002003F011FD38BD072C40F0CA80012003F00AFD0120FEF77DFE01212020FEF769FE01212420FEF765FE01212820FEF761FE01214A
:405000002C20FEF75DFE01213020FEF759FE01213420FEF755FE00213820FEF751FE00213C20FEF74DFE01214020FEF749FE00214420FEF745FE00214820FEF741FE002185
:405040004C20FEF73DFE01215020FEF739FE00215420FEF735FE00215820FEF731FE01215C20FEF72DFE01216020FEF729FE01216420FEF725FE01216820FEF721FE002143
:405080006C20FEF71DFE00217020FEF719FE00217420FEF715FE00217820FEF711FE00217C20FEF70DFE29462120FEF709FE29462520FEF705FE29462920FEF701FE2946ED
:4050C0002D20FEF7FDFD29463120FEF7F9FD29463520FEF7F5FD00213920FEF7F1FD00213D20FEF7EDFD29464120FEF7E9FD00214520FEF7E5FD00214920FEF7E1FD0021DE
:405100004D20FEF7DDFD29465120FEF7D9FD00215520FEF7D5FD00215920FEF7D1FD29465D20FEF7CDFD29466120FEF7C9FD29466520FEF7C5FD29466920FEF7C1FD002101
:405140006D20FEF7BDFD00217120FEF7B9FD00217520FEF7B5FD00217920FEF7B1FD00217D20FEF7ADFD002003F044FC38BD082C40F0CA80012003F03DFC0120FEF7B0FD79
:4051800001212020FEF79CFD01212420FEF798FD01212820FEF794FD01212C20FEF790FD01213020FEF78CFD01213420FEF788FD01213820FEF784FD01213C20FEF780FD6F
:4051C00001214020FEF77CFD01214420FEF778FD01214820FEF774FD01214C20FEF770FD01215020FEF76CFD01215420FEF768FD01215820FEF764FD01215C20FEF760FD2F
:4052000001216020FEF75CFD01216420FEF758FD01216820FEF754FD01216C20FEF750FD01217020FEF74CFD01217420FEF748FD01217820FEF744FD01217C20FEF740FDEE
:4052400029462120FEF73CFD29462520FEF738FD29462920FEF734FD29462D20FEF730FD29463120FEF72CFD29463520FEF728FD29463920FEF724FD29463D20FEF720FD3E
:4052800029464120FEF71CFD29464520FEF718FD29464920FEF714FD29464D20FEF710FD29465120FEF70CFD29465520FEF708FD29465920FEF704FD29465D20FEF700FDFE
:4052C00029466120FEF7FCFC29466520FEF7F8FC29466920FEF7F4FC29466D20FEF7F0FC29467120FEF7ECFC29467520FEF7E8FC29467920FEF7E4FC29467D20FEF7E0FCC6
:40530000002003F077FB38BD092C40F0CA80012003F094FB0120FEF71BFE01212020FEF707FE00212420FEF703FE01212820FEF7FFFD00212C20FEF7FBFD01213020FEF79F
:40534000F7FD00213420FEF7F3FD01213820FEF7EFFD00213C20FEF7EBFD01214020FEF7E7FD00214420FEF7E3FD01214820FEF7DFFD00214C20FEF7DBFD01215020FEF739
:40538000D7FD00215420FEF7D3FD01215820FEF7CFFD00215C20FEF7CBFD01216020FEF7C7FD00216420FEF7C3FD01216820FEF7BFFD00216C20FEF7BBFD01217020FEF7F9
:4053C000B7FD00217420FEF7B3FD01217820FEF7AFFD00217C20FEF7ABFD29462120FEF7A7FD00212520FEF7A3FD29462920FEF79FFD00212D20FEF79BFD29463120FEF7AD
:4054000097FD00213520FEF793FD29463920FEF78FFD00213D20FEF78BFD29464120FEF787FD00214520FEF783FD29464920FEF77FFD00214D20FEF77BFD29465120FEF73C
:4054400077FD00215520FEF773FD29465920FEF76FFD00215D20FEF76BFD29466120FEF767FD00216520FEF763FD29466920FEF75FFD00216D20FEF75BFD29467120FEF7FC
:4054800057FD00217520FEF753FD29467920FEF74FFD00217D20FEF74BFD002003F0CEFA38BD0A2C40F0CA80012003F0C7FA0120FEF74EFD00212020FEF73AFD01212420B0
:4054C000FEF736FD00212820FEF732FD01212C20FEF72EFD00213020FEF72AFD01213420FEF726FD00213820FEF722FD01213C20FEF71EFD00214020FEF71AFD0121442020
:40550000FEF716FD00214820FEF712FD01214C20FEF70EFD00215020FEF70AFD01215420FEF706FD00215820FEF702FD01215C20FEF7FEFC00216020FEF7FAFC01216420E1
:40554000FEF7F6FC00216820FEF7F2FC01216C20FEF7EEFC00217020FEF7EAFC01217420FEF7E6FC00217820FEF7E2FC01217C20FEF7DEFC00212120FEF7DAFC2946252018
:40558000FEF7D6FC00212920FEF7D2FC29462D20FEF7CEFC00213120FEF7CAFC29463520FEF7C6FC00213920FEF7C2FC29463D20FEF7BEFC00214120FEF7BAFC294645202B
:4055C000FEF7B6FC00214920FEF7B2FC29464D20FEF7AEFC00215120FEF7AAFC29465520FEF7A6FC00215920FEF7A2FC29465D20FEF79EFC00216120FEF79AFC29466520EB
:40560000FEF796FC00216920FEF792FC29466D20FEF78EFC00217120FEF78AFC29467520FEF786FC00217920FEF782FC29467D20FEF77EFC002003F001FA38BD0B2C40F081
:40564000CD80012003F0FAF90120FEF781FC01212020FEF76DFC01212420FEF769FC01212820FEF765FC01212C20FEF761FC01213020FEF75DFC01213420FEF759FC0121A1
:405680003820FEF755FC01213C20FEF751FC01214020FEF74DFC01214420FEF749FC01214820FEF745FC01214C20FEF741FC01215020FEF73DFC01215420FEF739FC0121EA
:4056C0005820FEF735FC01215C20FEF731FC01216020FEF72DFC01216420FEF729FC01216820FEF725FC01216C20FEF721FC01217020FEF71DFC01217420FEF719FC0121AA
:405700007820FEF715FC01217C20FEF711FC29462120FEF70DFC29462520FEF709FC29462920FEF705FC29462D20FEF701FC29463120FEF7FDFB29463520FEF7F9FB29468A
:405740003920FEF7F5FB29463D20FEF7F1FB29464120FEF7EDFB29464520FEF7E9FB29464920FEF7E5FB29464D20FEF7E1FB29465120FEF7DDFB29465520FEF7D9FB2946C1
:405780005920FEF7D5FB29465D20FEF7D1FB29466120FEF7CDFB29466520FEF7C9FB29466920FEF7C5FB29466D20FEF7C1FB29467120FEF7BDFB29467520FEF7B9FB294681
:4057C0007920FEF7B5FB29467D20FEF7B1FB642000F0C2FD002003F031F938BD0C2C40F09381012003F01EF90120FEF749FB01212020FEF735FB01212420FEF731FB012128
:405800002820FEF72DFB01212C20FEF729FB01213020FEF725FB01213420FEF721FB01213820FEF71DFB01213C20FEF719FB01214020FEF715FB01214420FEF711FB012130
:405840004820FEF70DFB01214C20FEF709FB01215020FEF705FB01215420FEF701FB01215820FEF7FDFA00215C20FEF7F9FA00216020FEF7F5FA00216420FEF7F1FA0021F8
:405880006820FEF7EDFA00216C20FEF7E9FA00217020FEF7E5FA00217420FEF7E1FA00217820FEF7DDFA00217C20FEF7D9FA29462120FEF7D5FA29462520FEF7D1FA294694
:4058C0002920FEF7CDFA29462D20FEF7C9FA29463120FEF7C5FA29463520FEF7C1FA29463920FEF7BDFA29463D20FEF7B9FA29464120FEF7B5FA29464520FEF7B1FA294608
:405900004920FEF7ADFA29464D20FEF7A9FA29465120FEF7A5FA29465520FEF7A1FA29465920FEF79DFA00215D20FEF799FA00216120FEF795FA00216520FEF791FA0021FF
:405940006920FEF78DFA00216D20FEF789FA00217120FEF785FA00217520FEF781FA00217920FEF77DFA00217D20FEF779FA002003F058F8012003F049F80120FEF718FA84
:4059800001212020FEF704FA01212420FEF700FA01212820FEF7FCF901212C20FEF7F8F901213020FEF7F4F901213420FEF7F0F901213820FEF7ECF901213C20FEF7E8F945
:4059C00001214020FEF7E4F901214420FEF7E0F901214820FEF7DCF901214C20FEF7D8F901215020FEF7D4F901215420FEF7D0F901215820FEF7CCF900215C20FEF7C8F908
:405A000000216020FEF7C4F900216420FEF7C0F900216820FEF7BCF900216C20FEF7B8F900217020FEF7B4F900217420FEF7B0F900217820FEF7ACF900217C20FEF7A8F9CE
:405A400029462120FEF7A4F929462520FEF7A0F929462920FEF79CF929462D20FEF798F929463120FEF794F929463520FEF790F929463920FEF78CF929463D20FEF788F916
:405A800029464120FEF784F929464520FEF780F929464920FEF77CF929464D20FEF778F929465120FEF774F929465520FEF770F929465920FEF76CF900215D20FEF768F924
:405AC00000216120FEF764F900216520FEF760F900216920FEF75CF900216D20FEF758F900217120FEF754F900217520FEF750F900217920FEF74CF900217D20FEF748F906
:405B0000002002F083FF38BDFEF74AFA38BD00BFFEE700BFF0B40022174611E050F82760F3B226F0FF0608E001EB420511F812406D78A5550132013BDBB2002BF4D101372F
:405B4000272FEBD9F0BC7047064B1B78DBB203F00701054A11701B09013213704422034B1A707047CF0100496E5800407658004008B50A46002105F02EF808BD08B505F0B0
:405B80001FF808BD08B505F01BF808BD38B501222C4B1A8018232C490B7002310A8002310B7002310A80294A13701721023211800232137033210232118002321370062269
:405BC000234B1A705222A3F580731A70214B1B78DBB2214A13704FF4E262204B1A8041F25122023B1A80002419250CE01C4B1B7803F0010343EA440404F003044FF4F0704F
:405C000002F036FF013D0DB1032CEFD115B90320FFF77EFF134A4FF48073138007231370002311490B7048200231087013700532137002220D4B1A700D4A137843F01F0396
:405C4000137038BD80400040824000408A400040004300400F010049A14600402242004025420040044000400640004001400040A243004038B572B6494A137843F0040335
:405C8000137000240CE0474D630019194A0011462A44084691882858FFF76AFF0134E4B2062CF0D900240BE03E49A3001819420088188022016BC06AFFF760FF0134E4B269
:405CC000002CF1D0374C04F1380104F6EC60FFF721FF354A354B1A60354A03F508631A60344A137843F0020313701032137843F002031370304D2B7843F040032B70A2F5C1
:405D00008632513A137843F0100313700A2204F68C712A48FFF732FF0A2204F698712848FFF72CFF0A2204F6A4712648FFF726FF0A2204F57B612448FFF720FF0A2204F6E4
:405D4000BC712248FFF71AFF0A2204F6C8712048FFF714FF082204F6D4711E48FFF70EFF0A2204F6DC711C48FFF708FF082204F6E8711A48FFF702FF194A137843F0080305
:405D80001370184C61232370FFF700FFC1232370FFF7DAFE0E2229461348FFF7F3FE38BDE846004054BB00000404004458060140040404C403500140A04300400051004055
:405DC000C0510040F05100401051004020510040305100404251004050510040625100402243004000480040B043004008B504F0BBFE03680C2B00D1FEE7FEE708B5094BFF
:405E00001A681044084BC31A802B02DC054B186005E004F0A9FE0C2303604FF0FF32104608BD00BFF880FF1F1884FF1F08B5104E104D16E029686B68AC68002204E051F82A
:405E4000040B43F8040B0432A242F8D1E868002203E0002143F8041B04328242F9D11035013E002EE6D104F085FEFAF70BF9FEE70100000064CE000008B5104A104B1A6079
:405E8000104A136843F40073136000230AE0032B03D80D4A52F8231000E00C490C4A42F8231001332F2BF2D90A4B1A780A4B1A70074A0A4B1A60FFF7DDFE08BD0004FA0536
:405EC0000CED00E014ED00E000000000ED5D00000080FF1FBC760040C080FF1F08ED00E0044A137803F0FE0300F0010018431070704700BF20510040044A137803F0FD03CF
:405F0000400000F0020018431070704720510040044A137803F0FB03800000F00400184310707047205100401022014B1A60704700E100E00822014B1A60704700E100E093
:405F400008B502F09DFD0C4A137843F0200313700132137843F010031370043A137843F01003137002F090FD01F0C0FEFFF7DCFFFFF7E0FF08BD00BF9B6400401022014BF0
:405F80001A60704780E100E00822014B1A60704780E100E010B5FFF7F1FF064B1C78064A137803F009031C4300231370FFF7BCFF204610BD6C640040E582FF1F10B5FFF7E4
:405FC000E3FF064B1B78064A147804F040041C4300231370FFF7AEFF204610BD68640040F382FF1F10B504462B4B1A7802F0FF0312B1013BDBB200E00423284A1278D2B22F
:406000009342F1D0FFF7BAFF254B1978254A137803F009030B4313701F4B1A78D2B21F4B1B78DBB29A4207D11E4B1B7813F0040F02D01D4B1C702CE0184A13780133DBB200
:4060400013701378DBB2042B02D90022134B1A70124B1A78D2B2104B1B78DBB29A420ED10D4A13780133DBB213701378DBB2042B02D90022084B1A7001220C4B1A70074B2B
:406080001B78DBB20A4AD4540A4A137843F004031370FFF749FF10BDEF82FF1FF182FF1F6C640040E582FF1F4B640040EE82FF1FE082FF1F8C64004010B5FFF765FF134B3E
:4060C0001A78D2B2124B1B78DBB29A4214D0114B1B7813F0FF0F0CD10C4A13780133DBB213701378DBB2052B06D90022074B1A7002E00022074B1A70044B1B78DBB2064A87
:40610000D45CE4B2FFF716FF204610BDF282FF1FF082FF1FDC82FF1FE882FF1F08B501E00A4B1B780A4B1B7813F0200FF8D102F0A7FC084B1A7842F001021A701A7802F00F
:40614000FE021A7002F0A0FC08BD00BF5B640040686400409B64004010B50F22174B1A70174C102323600621042000F029F91549042000F011F9082323600721032000F07C
:406180001FF91149032000F007F9FFF7C7FF00240E4B1C700E4B1C700E4B1C700E4B1C700E4B1C700E4B1C70FFF7F4FEFFF706FF0C4B1C702022043B1A7010BD8B6400404F
:4061C00080E100E005620000A5620000DC82FF1FF282FF1FF082FF1FEE82FF1FEF82FF1FF182FF1F8C64004008B5054B1B7823B9FFF7B2FF0122024B1A70FFF7A1FE08BDFD
:406200002882FF1F28E01F4B19781F4A137803F009030B431370137813F0040F24D01B4B1B7813F0FF0F0CD1194A13780133DBB213701378DBB2042B06D90022144B1A70F0
:4062400002E00022114B1A70114B1B78DBB2114AD35CDBB2104A13700D4B1A78D2B20F4B1B78DBB29A42CED1094B1A78D2B20B4B1B78DBB29A4204D1094A137803F0FB0301
:40628000137070476C640040E582FF1FEE82FF1FEF82FF1FE082FF1F4B640040F182FF1F8C640040204B1A7820490B7803F0400313430B7032E01E4B1A78D2B21D490B7858
:4062C0000133DBB20B700B78DBB2052B02D90021184B1970174B1978C9B2174B1B78DBB299420ED114490B780133DBB20B700B78DBB2052B02D900210F4B197001210F4BD9
:4063000019700C4B1B78DBB20D49CA54064B1A7806490B7803F0400313430B70034B1B7813F0200FC7D1704768640040F382FF1F5B640040F082FF1FF282FF1FDC82FF1F8F
:40634000E882FF1F01BE7047024A137843F0010313707047F646004010B5044605E0084B186802F085FBA4F50044B4F5004FF6D8034B586800FB04F002F07AFB10BD00BF8F
:40638000FC80FF1F08B5034B1B7A00FB03F002F06FFB08BDFC80FF1F70B504460E46074B1D681F2802D90020FFF7CCFF04F01F04103455F8240045F8246070BD08ED00E0CE
:4063C00038B504460D46072902D90020FFF7BAFF1F2C02D90020FFF7B5FF04F01F0000F1604000F564406D01EDB2057038BD00BF134B1B78DBB20360124A127843EA0223BD
:406400000360114A127843EA024303600F4A127843EA026303600E4B1B78DBB243600D4A127843EA022343600B4A127843EA024343600A4A127843EA02634360704700BFF8
:406440000301004904010049EC4600400201004901010049000100490501004906010049F8B502F00DFB0546404A137843F0010313701032137843F00103137001273C4B98
:406480001F700226943B1E7002F5E2521B32137803F07F0313700020FFF774FF354C237803F0F9032370344A137803F0DF03137023783B4323703846FFF764FF2820FFF784
:4064C00061FF2E4B1A7802F07F021A701A7802F0BF021A702378334323703046FFF752FF237843F0040323700023254A137001321370284602F0C8FA07211720FFF760FFFB
:4065000020491720FFF748FF07211820FFF758FF1D491820FFF740FF07211520FFF750FF1A491520FFF738FF07210620FFF748FF17490620FFF730FF07210846FFF740FFB6
:4065400014490720FFF728FF07210820FFF738FF11490820FFF720FF07210C20FFF730FF0E490C20FFF718FFF8BD00BFA54300409D6000409443004012600040F851004032
:4065800084600040E96F0000D16D0000E56F0000456F0000756F0000A96F00008572000010B5002304E00124244AD4542344DBB2012BF8D9224B18700023224A1370224A3B
:4065C0001370224A1370224A1370224A1370224A1370224A1370224B4FF400021A604FF080721A604FF400121A6040221A6080221A604FF480721A6011B1012906D00BE073
:40660000184A137803F0FE0313700AE0154A137843F00103137004E0124A137843F0010313700322104B1A708022203B1A70012002F01EFA04220D4B1A7010BDA483FF1F0D
:406640001783FF1F0C83FF1F1E83FF1F2483FF1F0D83FF1F1883FF1F3583FF1F0E83FF1F00E100E009600040286000401260004038B504460D46064B1B7823B9FFF7F0FE33
:406680000122034B1A7029462046FFF789FF38BD2982FF1F002304E001210E4AD1540B44DBB2012BF8D900230B4A13700B4A13700B4A13700B4A13700B4A13700B4A13701C
:4066C0000B4A137003220B4B1A708022203B1A70704700BFA483FF1F0C83FF1F1E83FF1F2483FF1F0D83FF1F1883FF1F3583FF1F0E83FF1F28600040014B1878704700BF44
:406700002483FF1F064B1B7813F0FF0F05D0044B1878C0B200221A7070470020704700BF1E83FF1F00EB40008300024A13445878704700BF3883FF1F431EDBB2072B0BD84E
:40674000064B00011A18185C00F00F00537843EA0020023880B2704700207047FC5F0040431EDBB2072B3CD8F0B4074600EB4004A3001C4C2344DB889BB2C3F500739A42F8
:4067800008D900EB400293002344DA8892B2C2F5007292B200EB4004A300124C2344DB7843EA1223104D04012E192B55D3B2737039B909E0CE5C3D010C4C665501339BB20A
:4067C00000E000239A42F5D8420002449300054A134400225A705A79D2B20001044B1A54F0BC70473883FF1FFC5F004078600040FE5F0040431EDBB2072B0BD84200024414
:406800009300054A134400225A705A79D2B20001024B1A54704700BF3883FF1FFE5F004070B5D9B1054614460E46C8B1082819D8FFF782FFA04203D22846FFF77DFF04469A
:40684000002305E02901094A525CF25401339BB2A342F7D32846FFF7CDFF04E0002402E0002400E00024204670BD00BF786000404FF40012014B1A60704700BF00E100E071
:4068800010B4FF2400230EE0094AD25C02EB42029100084A11448A7AD2B2824201D11C4602230133DBB2012BEED9204610BC7047F882FF1F3883FF1F10B5204C2079FFF783
:4068C000DFFF237813F0800F0ED06378DBB2212B2FD11B4B07221A80C0EBC000194A1044586000F0E3FA10BD144B5B78DBB2202B02D0222B10D01EE0114A07231380C0EB94
:40690000C00310490B4453600F4A135C43F00103135400F0F3FA10BD084B9B780B4A22F81030094A135C43F00203135400F07CF910BD002010BD002010BD00BF0060004048
:406940002883FF1F0C81FF1F0883FF1FF482FF1F10B500241F4B1C701F4B1C705C700AE01E4B185DC0B2431EDBB2072B01D8FFF741FF0134E4B2012CF2D9194B1B7813F09F
:40698000FF0F1AD0154B1B7813F0FF0F17D0154B1B7813F0FF0F14D0114B1B78DBB2082B11D80E4B1B78DBB2082B0ED80D4B1B78DBB2082B0BD8002010BD012010BD012058
:4069C00010BD012010BD012010BD012010BD012010BD00BF2A82FF1F0883FF1F0083FF1F0483FF1FF882FF1F70B506460D460F4B1B780F4AD45CE4B204EB440293000D4A13
:406A000013441B899BB28B4209D204EB44029300084A13441D89ADB20020FFF793FC2A4631462046FFF79CFE70BD00BF2A82FF1F0483FF1F3883FF1F08B5034B1B78034A4F
:406A4000D05CFFF76FFE08BD2A82FF1F0083FF1F08B5084B1B78084AD35CDBB203EB43018A0006490A44128992B201461846FFF7D7FE08BD2A82FF1F0083FF1F3883FF1FF5
:406A8000C37803F0030390F9020000280FDA032B06D002F001030B48C15442F001020EE0C2F380030848C15442F0040207E0032B05D0C2F340030548C15442F002021046DC
:406AC000704700BF0483FF1FF882FF1F0083FF1F1D4B19781D4A13889BB20B449BB2138000220FE01A494B681B78DBB2194883544B6801334B600132D2B20B889BB2013BE7
:406B00009BB20B80124B1B889BB20BB1072AE9D90D4B1B78DBB2082B00D05AB10E490B7883F080030B700F210C4B197002210C4B197004E0022309490B7009490B70094BA6
:406B40001A70014B1A7070470E83FF1F2283FF1F2883FF1F006000401983FF1F1683FF1F0C83FF1F3483FF1F0222074B1A708022064B1A700F22064B1A700023054A1370B2
:406B8000054A1370012070470C83FF1F1983FF1F1683FF1F0E83FF1F3483FF1F08B5FFF797FF08BD10B4194B197801F00F010239C9B2174A13889BB20B449BB21380002073
:406BC00011E0144A5468144B1B5CDBB223705368013353600130C0B20139C9B213889BB2013B9BB213800B4B1B889BB20BB10029E7D10A4B19700A4A137883F0800313707D
:406C00000B22084B1A7010BC704700BF296000402283FF1F2883FF1F006000403483FF1F1983FF1F1683FF1F0623064A1370064A13708022054B1A700022054B1A70012065
:406C4000704700BF0C83FF1F1683FF1F1983FF1F3483FF1F064B9B6843B1054B9A6810709A6804490988518000229A60704700BF2883FF1F2283FF1F08B5134B1A78D2B291
:406C80001A701B78DBB213F0800F02D00F4A137008BD0220FFF7DEFF0D4B1B7803F06003202B05D0402B06D043B900F0DDFD06E001F0EEFE03E000F085FF00E0002010B9E5
:406CC0000322024B1A7008BD286000401683FF1F0060004008B5094B1978094A13889BB20B449BB213800022064B1A700120FFF7B1FF0322044B1A7008BD00BF0E83FF1FB3
:406D00002283FF1F0C83FF1F1683FF1F08B50B4B1B78DBB2042B06D0062B07D0022B0BD1FFF7D8FF08BDFFF73DFF08BD0320FFF791FF0322024B1A7008BD00BF0C83FF1F84
:406D40001683FF1F08B50022044B1A700120FFF781FF0322024B1A7008BD00BF0C83FF1F1683FF1F08B50B4B1B7813F0FF0F07D0084A137843F0800307490B700023137097
:406D80000022064B1A700120FFF764FF0322044B1A7008BD1883FF1F086000400C83FF1F1683FF1F08B5094B1B78DBB2042B06D0062B07D0022B07D1FFF7F0FE08BDFFF7F2
:406DC000C1FF08BDFFF7CEFF08BD00BF0C83FF1F08B5284B1B78DBB213F0100F48D013F0800F0CD003F00F03012B16D1FFF744FF214B1B7813F0800F11D1012312E013F045
:406E0000400F03D0FFF7CEFF01230BE013F0200F07D0FFF77BFF012304E0002302E0002300E0002323B3134B1B7813F0800F1FD1124B1B78124A12781343124A13701278D4
:406E4000D2B2934214D10C4B1B78DBB2094A127812F0800F07D1084B1B78DBB2054A1370137803F00F03044A1278D2B29342EAD108BD00BF286000401683FF1F1983FF1F99
:406E80003483FF1F296000400022064B1A80064B9B682BB1044A916800230B7092685380704700BF2283FF1F2883FF1F08B50F4B1B889BB213B9FFF757FE15E002220C4BB5
:406EC0001A7000220B4B1A70FFF7DEFF0A4AD179937943EA0123054A128892B2934201D2024A1380FFF7F4FD012008BD2883FF1F0C83FF1F1983FF1F0060004008B5042204
:406F00000B4B1A7080220B4B1A70FFF7BDFF0A4AD179937943EA0123084A128892B2934201D2064A13800B22054B1A70012008BD0C83FF1F1983FF1F006000402883FF1FCA
:406F40001683FF1F0122094B1A700F3B9B7C084B1B7B03F00303934204D0054AD37B83F08003D3730122024B5A7370470B6000403883FF1F02220A4B1A700F3B93F82230F2
:406F8000084B1B7E03F00303012B04D0054AD37E83F08003D3760122024B5A76704700BF0B6000403883FF1F04220C4B1A700F3B93F832300A4B93F8243003F00303012B3C
:406FC00006D0074A92F8273083F0800382F827300122034B83F82520704700BF0B6000403883FF1F704700BF08B5FFF753FB08BD08B50C4B18780138C0B200F0CFF90A4BFF
:407000001B79DBB29A1C00EBC20042680749CB5C02EBC3035B68596A0B78054A1380516008BD00BF2483FF1F006000401483FF1F2883FF1F08B50E4B18780138C0B200F0B4
:40704000ADF90C4B1B79DBB29A1C00EBC20042680949CB5C02EBC3035B68DB69597813F8022B42EA012205490A804B6008BD00BF2483FF1F006000401483FF1F2883FF1F70
:4070800010B500221A4B1A801A4B18780138C0B200F084F91849CB78DAB20B79DBB2991C00EBC1004168012B20D81448C35C01EBC3014968531EDBB2022B17D802F1005332
:4070C000013B01EBC3000C4A9278D2B211F833309A420BD8406802EB4202910042185468034B5C60415A198092689A6010BD00BF2883FF1F2483FF1F006000401483FF1F75
:4071000008B55B4B1A79D2B21B7813F0800F4DD0574B5B78013B052B00F28E80DFE803F0212B3B8C8C03524BDB78DBB2212B09D1FFF75EFF4F4B1B889BB2002B7ED0FFF767
:40714000B5FE08BD4A4BDB78DBB2222B78D1FFF771FF484B1B889BB2002B73D0FFF7A6FE08BDFFF78DFF434B1B889BB2002B6BD0FFF79CFE08BD012A68D83D4B9B7813F012
:40718000FF0F65D13B4901230B803B4B1A444A60FFF78CFE08BD012A5CD8364901230B80364B1A444A60FFF781FE08BD304B5B78DBB20A2B0DD00B2B2FD0092B4CD1FFF7CC
:4071C0005FFF2C4B1B889BB2002B47D0FFF796FE08BD012A44D8264B9B7813F0FF0F41D1234BDB78DBB224498B54895CC9B2244B9B5CDBB2994203D20021214B995409E04B
:407200001F4B9B5CDBB2012B04D91B4B9B5CDBB21B498B54FFF708FD08BD012A24D8144B9B78DBB2012B21D8114B9B78DBB213498B54FFF7F9FC08BD002008BD002008BD6E
