:400000000080002011000000096300000963000008B5044B1A6803F53F5302331A6006F093F900BFFA46004010B5054C237833B9044B13B10448AFF300800123237010BD0D
:400040009081FF1F0000000048B90000084B10B51BB108490848AFF300800848036803B910BD074B002BFBD0BDE81040184700BF000000009481FF1F48B90000C880FF1F70
:400080000000000008B562B608F072FEFF2008F0F3FCFF2008F0B4FA00F0FEF804F044FD04F00AFA08F01AFA374800F06DF900F0F9FA00F031F906F025FB002000F004FD20
:4000C000642006F0EDFB012000F0FEFC642006F0E7FB022000F0F8FC642006F0E1FB032000F0F2FC642006F0DBFB042000F0ECFC642006F0D5FB002008F0E8FC642006F0CE
:40010000B9FB002008F0CAFC642006F0B3FB002008F0D0FC642006F0ADFB042141F6380001F0DEF9002008F0A5F8002008F0C0FB002008F0A1FC002008F062FA022001F0DF
:400140009BFB012001F0AEFA002001F0D1F900F09DFB06F0FFFE88B10C4806F007FF0C4B188001280AD90B4800F00EF9FF2008F047FA02F055FB002008F042FA4FF4FA7070
:4001800006F08EFBE3E700BF50B900005882FF1F9882FF1F70B90000064A136801331360054A934204D1034B01221A7100221A60704700BFAC81FF1FE0930400054A1368D0
:4001C00001331360312B04DD134601225A7100221A607047AC81FF1F08B508F035F84042074B98609A68DB689A4207DD044A012151710449097803EB8103D36008BD00BF5A
:40020000AC81FF1FD080FF1F08B508F01DF84042074B98609A68DB689A4207DA044A0121517104490978A3EB8103D36008BD00BFAC81FF1FD080FF1F08B508F023FB404296
:40024000074B18611A69DB689A4207DD044A012151710449097803EB8103D36008BD00BFAC81FF1FD080FF1F08B508F00BFB4042074B18611A69DB689A4207DA044A012150
:40028000517104490978A3EB8103D36008BD00BFAC81FF1FD080FF1F08B507F0A7FF114B988807F05DFF08F0D9FB022008F090FB08F0C8FA40F6C41008F07EFAC82006F080
:4002C000D9FA002008F078FAC82006F0D3FA40F6C41008F071FAC82006F0CCFA002008F06BFA08BDD080FF1F10B50024034B5C6108F0D2F9204608F0CBFB10BDAC81FF1F42
:4003000010B50124034B5C6108F0C6F9204608F0BFFB10BDAC81FF1F10B5094B00249C601C619C61DC6108F0F3F908F0FDFA07F0DDFF2046FFF7E4FF2046FFF7D5FF10BD0F
:40034000AC81FF1F10B50F4B5B6933B908F08EF940420C4BD8611A6A9A610A4B5B69012B06D1084C636AE36108F080F94042A06107F06AFF4042034CA06008F083FA4042B6
:40038000206110BDAC81FF1F08B5054B93F8283023B108F0BDF8012006F082FA08BD00BFAC81FF1F08B540F6C41008F005FAC82006F060FA002008F0FFF90248FFF7E4FFA8
:4003C000002008BD84B9000038B50446FFF7BAFF54B9AF4B1A68AF4B1A70120A5A7000229A70FA22DA70DBE0013C202C00F2D880DFE804F011171D23292F353B41474D53CF
:40040000595F656B71777D83898F959BA1A7ADB3B9BFC5CBD1009F4B01229A70FA22DA70BEE09C4B02229A70FA22DA70B8E0994B17229A70FA22DA70B2E0964B07229A7022
:40044000FA22DA70ACE0934B11229A70FA22DA70A6E0904B1D229A70FA22DA70A0E08D4B25229A70FA22DA709AE08A4B03229A70FA22DA7094E0874B04229A70FA22DA702A
:400480008EE0844B18229A70FA22DA7088E0814B08229A70FA22DA7082E07E4B12229A70FA22DA707CE07B4B1E229A70FA22DA7076E0784B26229A70FA22DA7070E0754B05
:4004C00005229A70FA22DA706AE0724B06229A70FA22DA7064E06F4B19229A70FA22DA705EE06C4B09229A70FA22DA7058E0694B13229A70FA22DA7052E0664B1F229A70CE
:40050000FA22DA704CE0634B27229A70FA22DA7046E0604B2B229A70FA22DA7040E05D4B2C229A70FA22DA703AE05A4B2D229A70FA22DA7034E0574B2E229A70FA22DA70BA
:400540002EE0544B2A229A70FA22DA7028E0514B2F229A70FA22DA7022E04E4B28229A70FA22DA701CE04B4B22229A70FA22DA7016E0484B23229A70FA22DA7010E0454B54
:4005800024229A70FA22DA700AE0424B29229A70FA22DA7004E03F4B30229A70FA22DA703D4DE86909F060FF37A3D3E9002309F0C1FF0AF06FFAE861AB68364C2371AB6896
:4005C0001B126371AB681B14A371AB681B16E3712B6923722B691B1263722B691B14A3722B691B16E372AB692373AB691B126373AB691B14A373AB691B16E373EB692374BB
:40060000EB691B126374EB691B14A374EB691B16E374224A536823751B1263750023A375E37523766376A376E37691682177090A6177D168A177090AE177126984F8202042
:40064000120A84F8212084F8223084F8233084F8243084F8253084F826304C2284F8272084F8283084F8293084F82A3084F82B3084F82C3084F82D300948FFF785FE2E2140
:40068000204606F03FFC38BD9A99999999990940CC82FF1F9C82FF1FAC81FF1FD080FF1FB8B9000008B50121002006F06FFA05E00848FFF769FE012006F0F2F806F0AAFA71
:4006C0000028F5D006F0D2FB0348FFF75DFE06F05DFB08BDDCB9000000BA00000A4B93F828307BB100B587B00246084901A80AF007FD01A807F00CFF012006F0D1F807B07A
:400700005DF804FB704700BFAC81FF1F14BA000010B5154BD8789B7803EB0020134CE06209F0A2FE0EA3D3E9002309F003FF00220F4B0AF029F80AF0D5F980B208F048F9B1
:400740000C48FFF721FEE06AFFF7C8FF0A48FFF71BFE0A48FFF718FE002010BDAFF30080333333333333E33F5882FF1FAC81FF1F000024401CBA000074BB00003CBA000045
:4007800010B5154BD8789B7803EB0020134C606009F06AFE0EA3D3E9002309F0CBFE00220F4B09F0F1FF0AF09DF980B207F0D8FC0C48FFF7E9FD6068FFF790FF0A48FFF71A
:4007C000E3FD0A48FFF7E0FD002010BDAFF30080333333333333E33F5882FF1FD080FF1F0000244064BA000074BB00007CBA000008B50548FFF7C8FD0448FFF7C5FD04482F
:40080000FFF7C2FD08BD00BF74BB00009CBA000080B9000010B5184B1C7D5CB9174B1B6B43B90C22154B1A631548FFF7ADFDFFF7DFFF1EE0104B5C7D5CB9104B1B6B43B907
:4008400006220E4B1A630F48FFF79EFDFFF7D0FF0FE0094B9C7D64B9084B1B6B43B91222064B1A630848FFF78FFDFFF7C1FF00E00124204610BD00BFD080FF1FAC81FF1F45
:40088000D0BA0000FCBA000024BB000008B506F0C7F9B0B1FFF786FD06F0BCF988B1094B93F834304BB10848FFF76EFDFFF7A0FF012005F0DFFF05F0D5FF0122014B83F8BC
:4008C000342008BDAC81FF1F4CBB000008B505F017FE0A2005F0E4FF012008BD10B54B1EDBB2FD2B3DD90C46042836D8DFE800F0030D17212B000A2005F0D2FF204605F0E4
:400900007DFD0A2005F0CCFF10BD0A2005F0C8FF204605F07FFD0A2005F0C2FF10BD0A2005F0BEFF204605F081FD0A2005F0B8FF10BD0A2005F0B4FF204607F079FE0A20F4
:4009400005F0AEFF10BD0A2005F0AAFF204607F063FE0A2005F0A4FF10BD0448FFF714FD10BD0348FFF710FD10BD00BF78BB0000B8BB0000F8B506460D461746002128461B
:40098000FFF7ACFF06F07F063046FFF79FFF0020FFF79CFF0020FFF799FF0020FFF796FF0020FFF793FFFF212846FFF797FF012005F060FF00212846FFF790FF3046FFF750
:4009C00085FF05F007FE38700020FFF77FFF05F001FE04060020FFF779FF05F0FBFD44EA00440020FFF772FF05F0F4FD44EA00240020FFF76BFF05F0EDFD0443FF2128465F
:400A0000FFF76CFF012005F035FF00212846FFF765FF3046FFF75AFF05F0DCFD38700020FFF754FF05F0D6FD44EA00640020FFF74DFF05F0CFFD44EA00440020FFF746FF34
:400A400005F0C8FD44EA00240020FFF73FFF05F0C1FD0443FF212846FFF740FF2046F8BD70B506460C46154600211046FFF736FF46F08000FFF72AFF200EFFF727FFC4F3A8
:400A80000740FFF723FFC4F30720FFF71FFFE0B2FFF71CFFFF212846FFF720FF70BD00BF38B505460C460A4600212020FFF7D8FF224629460520FFF7D3FF224629462D20C3
:400AC000FFF7CEFF38BD00BF10B50446024605210120FFF7C5FF224608210020FFF7C0FF224600210320FFF7BBFF224600210520FFF7B6FF224600210620FFF7B1FF22464F
:400B00000F210820FFF7ACFF224682490920FFF7A7FF224680490A20FFF7A2FF022C0AD1224600210B20FFF79BFF22467B491020FFF796FF2FE054B9224600210B20FFF7D8
:400B40008FFF224676491020FFF78AFF23E0012C0AD1224600210B20FFF782FF224670491020FFF77DFF16E0042C0AD12246D2210B20FFF775FF22466A491020FFF770FF77
:400B800009E02246D2210B20FFF76AFF224665491020FFF765FF22460A211120FFF760FF224600211320FFF75BFF224600211420FFF756FF224600211520FFF751FF22462E
:400BC00000212120FFF74CFF224600212320FFF747FF224600212C20FFF742FF224600213320FFF73DFF224640F2AF213420FFF737FF224600213820FFF732FF22460021B5
:400C00003920FFF72DFF22464FF480313A20FFF727FF224600213D20FFF722FF224642496020FFF71DFF224640496120FFF718FF22463F496220FFF713FF224608216320D8
:400C4000FFF70EFF22466FF080616420FFF708FF224638496520FFF703FF224636496620FFF7FEFE224635496720FFF7F9FE224633496820FFF7F4FE22464FF47701692029
:400C8000FFF7EEFE22462F496C20FFF7E9FE224600216D20FFF7E4FE224600216E20FFF7DFFE224628497020FFF7DAFE224600212120FFF7D5FE22464FF6FF712420FFF710
:400CC000CFFE22464FF6FF712520FFF7C9FE22464FF6FF712620FFF7C3FE224600212720FFF7BEFE22464FF6FF712820FFF7B8FE22464FF6FF712A20FFF7B2FE2246652160
:400D00002B20FFF7ADFE224600212020FFF7A8FE10BD00BF060601000004080003030700050407000001070054B5AAAAAA54954A292949247D77BBB556552949224240007A
:400D40005680FFFF530141001E000CC430B583B0044602AD002305F8013D4FF4FA7005F09FFD2A4621460420FFF704FE642005F097FD2A4621460420FFF7FCFD08E00DF19F
:400D8000070221462120FFF7F5FD642005F088FD9DF8073013F0200FF1D0002003B030BDF8B5074609F060FB37A3D3E9002309F0EBFC09F06FFE064600252AE0FFF7C2FAA3
:400DC000334B9C68341BB4F5FA6F02DB02201863F8BD204609F048FB2BA3D3E9002309F0A9FB09F057FE002CB8BF6442052C0EDD00213844FFF754FE0020FFF7A7FF32204F
:400E000005F04EFD002239462120FFF729FE0135EDB2052DD2D9FFF795FA1D4B9B68F61A052D2DD986EAE673A3EBE673072B0FDD06F2CF7640F69E72964209D81548FFF72C
:400E4000A3FAFF2007F018FE0122114B1A6317E0B3F5FA6F06DD1048FFF796FA02220C4B1A630DE00D48FFF78FFA0022084B1A6339462120FFF7F4FD4FF4FA7005F010FDE3
:400E8000034B186BF8BD00BF9A99999999990940AC81FF1F10BC00002CBC00005CBC000070B50446FFF7B6FC60B31A4D012229461020FFF7D5FD022229461020FFF7D0FD55
:400EC000002215491020FFF7CBFD144E00253563FFF738FA1248FFF757FA29462046FFF7DFFD2846FFF732FF322005F0D9FC2046FFF7F4FB0B48FFF747FA2046FFF750FFC4
:400F0000306B70BD0848FFF73FFA2020034B186370BD00BF0301070005040700AC81FF1F70BC0000F8B900008CBC000000000000F8B5074609F098FA33A3D3E9002309F0B7
:400F400023FC09F0A7FD064600252BE0FFF7FAF92F4B1C69341B204609F086FA2AA3D3E9002309F0E7FA09F095FDB4F57A6F03DB0922274B1A6317E0002CB8BF6442052C17
:400F80000EDD01213844FFF78BFD0120FFF7DEFE322005F085FC012239462120FFF760FD0135EDB2032DD1D9FFF7CCF9184B1869301A032D25D980EAE073A3EBE073062BA4
:400FC0000FDD00F69F7041F63E72904209D81148FFF7DAF9FF2007F04FFD08220C4B1A630FE0B3F57A6F06DD0B48FFF7CDF90922074B1A6305E00948FFF7C6F90022044B1C
:401000001A63034B186BF8BD9A99999999990940AC81FF1F9CBC0000B8BC0000E8BC000038B50446FFF7F6FB60B31A4D002229461020FFF715FD022229461020FFF710FDEB
:40104000012215491020FFF70BFD144D00232B63FFF778F91248FFF797F901212046FFF71FFD0120FFF772FE322005F019FC2046FFF734FB0B48FFF787F92046FFF758FFE4
:40108000286B38BD0848FFF77FF92020034B186338BD00BF0301070005020700AC81FF1F70BC0000F8B900008CBC000000000000F8B5074609F0D8F933A3D3E9002309F032
:4010C00063FB09F0E7FC064600252BE0FFF73AF92F4B9C69341B204609F0C6F92AA3D3E9002309F027FA09F0D5FCB4F57A6F03DB1022274B1A6317E0002CB8BF6442042C94
:401100000EDD02213844FFF7CBFC0220FFF71EFE322005F0C5FB022239462120FFF7A0FC0135EDB2052DD1D9FFF70CF9184B9869301A032D25D980EAE073A3EBE073072B5F
:401140000FDD00F69F7041F63E72904209D81148FFF71AF9FF2007F053FA0F220C4B1A630FE0B3F57A6F06DD0B48FFF70DF91022074B1A6305E00948FFF706F90022044BCB
:401180001A63034B186BF8BD9A99999999990940AC81FF1FFCBC000018BD000048BD000038B505461F4C012221461020FFF758FC002221461020FFF753FC02221A49102013
:4011C000FFF74EFC194B186A4042FFF799F8FFF721FB00B3154C00232363FFF7B3F81448FFF7D2F802212846FFF75AFC0220FFF7ADFD322005F054FB2846FFF76FFA0D48DD
:40120000FFF7C2F82846FFF753FFFFF79BF8A3692362206B38BD0848FFF7B6F82020034B186338BD0301070002020700AC81FF1F5CBD0000F8B900008CBC00000000000049
:40124000F8B5074609F010F933A3D3E9002309F09BFA09F01FFC064600252BE0FFF772F82F4BDC69341B204609F0FEF82AA3D3E9002309F05FF909F00DFCB4F57A6F03DB6D
:401280001722274B1A6317E0002CB8BF6442042C0EDD03213844FFF703FC0320FFF756FD322005F0FDFA032239462120FFF7D8FB0135EDB2032DD1D9FFF744F8184BD86939
:4012C000301A032D22D980EAE073A3EBE073042B0CDD00F69F7041F63E72904206D81148FFF752F816220E4B1A630FE0B3F57A6F06DD0D48FFF748F81722094B1A6305E0A3
:401300000A48FFF741F80022054B1A63044B186BF8BD00BFAFF300809A99999999990940AC81FF1F78BD000094BD0000C4BD000038B50546314C012221461020FFF790FBB3
:40134000642005F0ADFA022221461020FFF788FB642005F0A5FA002221461020FFF780FB642005F09DFA032225491020FFF778FB0A2005F07FFA002007F0B4FB642005F0C4
:401380008FFA204B586A4042FEF7AEFFFFF742FA30B31C4C00232363FEF7D4FF1A48FEF7F3FF03212846FFF77BFB0320FFF7CEFC322005F075FA2846FFF790F91348FEF748
:4013C000E3FF2846FFF73CFFFEF7BCFFE3696362FF2007F087FB642005F062FA206B38BD0B48FEF7D1FF074C20232363FF2007F079FB642005F054FA206B38BD01010700B0
:4014000001050700AC81FF1FD8BD0000F8B900008CBC0000F8B506460D461446FEF792FF2B4F012239461020FFF71AFB002239461020FFF715FB022226491020FFF710FBA8
:40144000C82005F02DFA2448FEF79EFF002E03DB00213046FFF724FB002D03DB01212846FFF71EFB002C08DB1C4B186A4042FEF747FF02212046FFF713FB002E02DB00209B
:40148000FFF764FC002D02DB0120FFF75FFC002C02DB0220FFF75AFC002E02DB3046FFF77FFC002D02DB2846FFF742FD002C07DB2046FFF7FDFDFEF745FF084B9A691A62D5
:4014C000FEF740FF322005F0EBF90020F8BD00BF020307000202070070BC0000AC81FF1F08B50A4601462720FFF7BAFA002008BD2DE9F843044601464FF49620FFF7F0FF81
:40150000224602212020FFF7ABFAC82005F0C8F95D4D2A4621460420FFF72CFA4FF4FA7005F0BEF92A4621460420FFF723FA2AE007F052FC554807F07BFC534A21460420FD
:40154000FFF718FA642005F0ABF9514B1B79D3B14F4D01202863FEF737FF07F0E3FB224600212020FFF77CFA224600212120FFF777FA224600212D20FFF772FA00232B71ED
:401580002B63BDE8F883404B1B7813F0400FCFD007F0C8FB3E4F00253D71224629462120FFF75EFA0A2005F07BF9224629462120FFF756FA284606F05DFE364E4FF0010872
:4015C00086F8158086F8148086F8168086F81780642005F065F94FF44840FFF761FC97F83530737597F83630337597F83730B37597F83830F375642005F052F92246294617
:401600002120FFF72DFA224629462D20FFF728FA21462148FFF764FF224696210B20FFF71FFADFF87C90224649461020FFF718FA284606F01FFEBD6086F8158087F8358097
:401640001648FEF7A1FE2A4649461020FFF708FA424649461020FFF703FA022249461020FFF7FEF9FD634FF4FA7005F019F9284607F020FA4FF4FA7005F012F9284607F0A2
:4016800025FABDE8F88300BFCF80FF1F99010000AC81FF1FD080FF1FFAD00500F4BD0000010107002DE9F8430446FF2007F00EFA4FF4FA7005F0F4F8FF2007F0EFF94FF45B
:4016C000FA7005F0EDF8002007F0F4F94FF4FA7005F0E6F821464FF49620FFF701FF224602212020FFF7BCF9322005F0D9F85B4D2A4621460420FFF73DF94FF4FA7005F0CD
:40170000CFF82A4621460420FFF734F92AE007F063FB534807F08CFB504A21460420FFF729F9504B1B79D3B14E4D08202863FEF74BFE07F0F7FA224600212020FFF790F9A0
:40174000224600212120FFF78BF9224600212D20FFF786F900232B712B63BDE8F883642005F09EF83D4B1B7813F0400FCFD007F0D9FADFF8F080002588F804502246294671
:401780002120FFF76DF90A2005F08AF8224629462120FFF765F9284607F08AF8324E012777753775B775F775642005F079F84FF49640FFF735FC98F83530737598F83630C3
:4017C000337598F83730B37598F83830F375642005F066F8224629462120FFF741F9224629462D20FFF73CF921462048FFF778FE224629460B20FFF733F9DFF878902246AE
:4018000049461020FFF72CF9284607F051F8C8F80850377588F836701548FEF7B5FD2A4649461020FFF71CF93A4649461020FFF717F9022249461020FFF712F94FF4FA7022
:4018400005F02EF8284607F029F94FF4FA7005F027F8284607F03AF9BDE8F883CE80FF1F99010000AC81FF1FD080FF1FFAD0050008BE0000010107002DE9F0410446FF2040
:4018800007F00CF94FF4FA7005F00AF8FF2007F011F94FF4FA7005F003F8002007F016F94FF4FA7004F0FCFF21466148FFF718FE604B186A4042FEF723FD2246022120205E
:4018C000FFF7CEF8322004F0EBFF5B4D2A4621460420FFF74FF84FF4FA7004F0E1FF2A4621460420FFF746F829E007F075FA534807F09EFA504A21460420FFF73BF84D4BED
:401900001B79CBB14B4D0F202863FEF75DFD07F009FA224600212020FFF7A2F8224600212120FFF79DF8224600212D20FFF798F800232B71BDE8F081642004F0B1FF3E4B6C
:401940001B7813F0400FD0D007F0ECF9394E00253571224629462120FFF782F82846FEF7CFFC35620A2004F09BFF224629462120FFF776F82846FEF7C3FC3562304F4FF0BC
:40198000010887F8158087F8148087F8168087F81780642004F084FF4FF44840FFF700FC96F835307B7596F836303B7596F83730BB7596F83830FB75642004F071FF2246B2
:4019C00029462120FFF74CF8224629462D20FFF747F821461648FFF783FD2846FEF790FC356287F8168086F837801648FEF7CCFC154C2A4621461020FFF732F84246214607
:401A00001020FFF72DF8022221461020FFF728F84FF4FA7004F044FF284607F04BF84FF4FA7004F03DFF284607F038F8BDE8F0816EA30100AC81FF1FCD80FF1F9901000014
:401A4000D080FF1F1CBE0000010107002DE9F0410446FF2007F022F84FF4FA7004F020FFFF2007F027F84FF4FA7004F019FFFF2007F02CF84FF4FA7004F012FF764D0122D4
:401A800029461020FEF7ECFF022229461020FEF7E7FF002229461020FEF7E2FF03226F491020FEF7DDFF642004F0FAFE002007F019F80A2004F0DEFE21464FF44850FFF7CA
:401AC0000FFD674B586A4042FEF70EFC224602212020FEF7C5FF322004F0E2FE614D2A4621460420FEF746FF4FF4FA7004F0D8FE2A4621460420FEF73DFF2AE007F06CF94F
:401B0000594807F095F9574A21460420FEF732FF534B1B79D3B1524D16202863FEF754FC07F000F9224600212020FEF799FF224600212120FEF794FF224600212D20FEF76F
:401B40008FFF00232B712B63BDE8F081642004F0A7FE444B1B7813F0400FCFD007F0E2F83F4F00253D71224629462120FEF778FF0A2004F095FE224629462120FEF770FF61
:401B80002846FEF7B1FB7D62384E4FF0010886F8158086F8148086F8168086F81780642004F07EFE40F6D860FFF7C2FB97F83530737597F83630337597F83730B37597F8E0
:401BC0003830F375642004F06BFE224629462120FEF746FF224629462D20FEF741FF21464FF44850FFF77CFC2846FEF77DFB7D6286F8178087F838801D48FEF7C5FBFF209A
:401C000006F070FF144C2A4621461020FEF728FF424621461020FEF723FF022221461020FEF71EFF4FF4FA7004F03AFE284606F041FF4FF4FA7004F033FE284606F02EFFD9
:401C40004FF4FA7004F02CFE284606F03FFF642004F026FEBDE8F0810101070001050700AC81FF1FCD80FF1F99010000D080FF1F30BE000038B505460C4603220021202073
:401C8000FEF7EEFE032200212120FEF7E9FE03214DF2B710FFF724FC002006F023FF0F2004F0E8FD012C03D8012004F0E3FD00E00024012C0FD83CB903212846FEF7F0FEE1
:401CC0000320FFF743F806E003216842FEF7E8FE0320FFF73BF803210020FFF701FC032200212120FEF7BCFE032200212020FEF7B7FE052004F0BEFDFF2006F0F3FE00201E
:401D000038BD00BF70B506460D461446042200212020FEF7A5FE042200212120FEF7A0FE04212846FFF7DCFB002006F0E7FE0F2004F0A0FD012C0FD83CB904213046FEF7E3
:401D4000AFFE0420FFF702F806E004217042FEF7A7FE0420FEF7FAFF04210020FFF7C0FB042200212120FEF77BFE042201212020FEF776FE052004F07DFDFF2006F0BEFEF8
:401D8000002070BD00000000F8B506460C4617461D464FF0FF31FFF73DFB00210698FFF79FFB02210798FFF79BFB304608F05CFB21A3D3E9002308F0E7FC0022204B08F0C9
:401DC00007FA08F067FE1F4BD86007F005F81E4807F02EF800212046FEF762FE02212846FEF75EFE2E461DE0164B5B795BB10024144B5C71FF2007F041F8462004F050FDB6
:401E0000204607F03BF807F031F858B9AE4202D0BE4203D101E03E4600E02E4602213046FEF73EFE07F012F80028DDD106F07AFF0022044B5A71F8BD9A99999999990940B1
:401E400000005240AC81FF1FD9010000000000002DE9F04F83B005460E46144699460D9FFF2006F009FE904B186A4042FEF748FA04EBD474641004EB07083A1B4FF0FF3100
:401E80002846FFF7C7FA00214846FFF729FB02210C98FFF725FBB54219DD284608F0E4FA7FA3D3E9002308F06FFC82468B467F4B1878800008F0D8FA02460B4650465946B7
:401EC00008F084F908F0E6FD774BD86016E0284608F0CAFA72A3D3E9002308F055FC82468B46724B1878800008F0BEFA52465B4608F06EF908F0CEFD6B4BD86006F06CFF7B
:401F0000B54203DD6A4806F093FF02E0694806F08FFF00213046FEF7C3FD02214046FEF7BFFD4FF00109A2E05F4B5B7983B10A2004F0B6FC4FF0000A5B4B83F805A0FF2058
:401F400006F09CFF3C2004F0ABFC504606F096FF06F08CFF002840F08A800E9808F0ECFE8246384608F0E8FE0146504608F02EFE8246304608F0E0FE8346284608F0DCFE0B
:401F80000146584608F022FE0146504608F0DCFF834606F059F94042DFF80CA1CAF80800424B1878DAF8083003EBC00008F05CFA3BA3D3E9002308F0BDFACDE900012846DF
:401FC00008F052FA02460B46DDE9000108F0FEF8CDE90001584608F059FADDE9002308F0A9FACDE90001384608F03EFADDE9002308F0EEF808F096FD834606F037FB404201
:4020000008F032FA26A3D3E9002308F093FACDE90001404608F028FADDE9002308F0D6F808F038FDCAF81800484608F01DFA02460B460020204906F0EBFFCDE90001204686
:4020400008F012FADDE9002308F074FACDE90001584608F01BFADDE9002308F0B9F808F019FD80460221FEF71BFD09F1010906F0EDFE00287FF458AF06F054FE0A4C0025CB
:402080006571FF2006F0F8FC06F0F0FA4042A061A3692362284606F0EFFC03B0BDE8F08F9A99999999990940AC81FF1FD080FF1F09020000D90100000000F0BF00000000FA
:4020C0002DE9F04F83B005460F4614469946DDF83480FF2006F0D0FC934B186A4042FEF70FF904EBD474641004EB0806C4EB080229464FF0FF30FFF78DF901214846FFF7D6
:40210000EFF902210C98FFF7EBF9BD4219DD284608F0AAF982A3D3E9002308F035FB82468B46824B1878800008F09EF902460B465046594608F04AF808F0ACFC7A4BD86042
:4021400016E0284608F090F975A3D3E9002308F01BFB82468B46754B1878800008F084F952465B4608F034F808F094FC6E4BD86006F032FEBD4203DD6D4806F059FE02E0D8
:402180006C4806F055FE01213846FEF789FC02213046FEF785FC4FF0010AA5E0624B5B7983B10A2004F07CFB4FF000095E4B83F80590FF2006F062FE3C2004F071FB484620
:4021C00006F05CFE06F052FE002840F08D800E9808F0B2FD8146404608F0AEFD0146484608F0F4FC8146384608F0A6FD8346284608F0A2FD0146584608F0E8FC01464846A6
:4022000008F0A2FE834606F03DFB4042DFF81891C9F81000454B1878D9F8103003EBC00008F022F93EA3D3E9002308F083F9CDE90001284608F018F902460B46DDE9000188
:4022400007F0C4FFCDE90001584608F01FF9DDE9002308F06FF9CDE90001404608F004F9DDE9002307F0B4FF08F05CFC834606F0FDF9404208F0F8F829A3D3E9002308F01F
:4022800059F9CDE90001304608F0EEF8DDE9002307F09CFF08F0FEFBC9F81800504608F0E3F802460B460020234906F0B1FECDE90001204608F0D8F8DDE9002308F03AF950
:4022C000CDE90001584608F0E1F8DDE9002307F07FFF08F0DFFBD9F81860064402213046FEF7DEFB0AF1010A06F0B8FD00287FF455AF06F017FD0C4C00256571FF2006F0CC
:40230000BBFB06F0B3F94042A061A3692362284606F0B2FB03B0BDE8F08F00BFAFF300809A99999999990940AC81FF1FD080FF1F69020000390200000000F0BF000000007A
:402340002DE9F04F89B00446884692461D46129E169FFF2006F090FBA34B186A4042FDF7CFFF04EB08005044401900D50330801008F0E2FC0190139BF018149B1844159B6F
:40238000C01800D50330801008F0D6FC8346204608F0D2FC019908F019FC8146304608F0CBFCCDF808B0594608F010FC0146484608F016FD8346404608F0BEFC019908F0B8
:4023C00005FC8046139808F0B7FC029908F0FEFB0146404608F004FD0146584608F0F8FB8346504608F0A8FC019908F0EFFB8246149808F0A1FC029908F0E8FB0146CDF89C
:402400000CA0504608F0ECFC0146584608F0E0FB8246284608F090FC019908F0D7FB8346159808F089FC029908F0D0FB0146CDF810B0584608F0D4FC0146504608F0C8FB89
:4024400005904FF0000A4FF0804B484608F01EF852465B4606F0DCFDCDE90601404608F015F852465B4606F0D3FD02460B46DDE9060107F0ADFE80468946039808F006F85B
:4024800052465B4606F0C4FD02460B464046494607F09EFE80468946049807F0F7FF52465B4606F0B5FD02460B464046494607F08FFE08F037FB0146059808F045FD8346A9
:4024C0000146019808F08CFC0146029808F07EFB824607EBD7725210B718B21A21464FF0FF30FEF797FF01211798FEF7F9FF02211898FEF7F5FF204607F0B6FF38A3D3E9A7
:40250000002308F041F90022384B07F061FE08F0C1FA354BD86006F05FFC354806F088FC01212846FEF7BCFA02213846FEF7B8FA3DE02D4B5B795BB100242B4B5C71FF201A
:4025400006F09CFC462004F0ABF9204606F096FC06F08CFC58BB06F089F84042224CA061A369FF1A06F08EF940422061206907F07BFF1BA3D3E9002307F0DCFF04460D463D
:40258000584607F083FF22462B4607F0D3FF04460D46504607F07AFF22462B4607F018FE08F078FA074402213846FEF779FA06F055FC0028BDD106F0B5FB0B4C0025657126
:4025C000FF2006F059FA06F051F84042A061A3692362284606F050FA09B0BDE8F08F00BF9A99999999990940AC81FF1F0000524039020000000000002DE9F04F85B0064608
:4026000003908A4614461D46FF2006F035FA804B186A4042FDF774FE04EBD474631002930F9A9F1801212846FEF75AFF02210E98FEF756FF304607F017FFCDE9000172A322
:40264000D3E9002308F0A0F808F024FA064606F0C3FB704806F0ECFB02213846FEF720FA4FF0010BA6E06A4B5B7983B10A2004F017F94FF00008664B83F80580FF2006F0C7
:40268000FDFB3C2004F00CF9404606F0F7FB06F0EDFB002840F08E80109808F04DFB80460F9808F049FB0146404608F08FFA8046504608F041FB8146039808F03DFB0146D3
:4026C000484608F083FA0146404608F03DFC80464DA3D3E900232046294608F055F804460D46DFF8389199F80000C00007F0BCFE22462B4607F06CFD43A3D3E9002307F0F6
:4027000019FFDDE9002307F061FD04460D46404607F0BCFE22462B4607F00CFF04460D460F9807F0A1FE22462B4607F051FD08F0F9F9804605F09AFF404207F095FE32A37D
:40274000D3E9002307F0F6FE04460D46384607F08BFE22462B4607F039FD08F09BF92C4FB861584607F080FE02460B4600202A4906F04EFC04460D46029807F075FE224646
:402780002B4607F0D7FE04460D46404607F07EFE22462B4607F01CFD08F07CF9BF69074402213846FEF77CF90BF1010B99F8003006EB8306304607F057FE04460D4650463A
:4027C00007F052FE10A3D3E9002307F0DDFF02460B462046294608F03DF900287FF443AF06F0A0FA0A4C00256571FF2006F044F905F03CFF4042A061A3692362284606F029
:402800003BF905B0BDE8F08F9A99999999990940AC81FF1FBD0100000000F0BFD080FF1F2DE9F04F8FB00022DB4B1A63DB4A5178137803EB0123DA4A13607A2B5BD1D94C14
:4028400000212046FEF74CFED748FDF79DFD0022D6491020FEF704F9FF2006F037F94FF4FA7004F01DF8FF2006F024F94FF4FA7004F016F8002006F011F94FF4FA7004F0E5
:402880000FF800212046FEF72BFE012003F0F2FF0020FEF705FBC64C012221461020FEF7DFF8022221461020FEF7DAF80022C1491020FEF7D5F80020FEF71AFE0022BE49C4
:4028C0001020FEF7CDF8322003F0D4FF002006F0FDF8322003F0CEFF002006F0EBF8AE4C0023E3634FF4FA7003F0DAFF206BFDF76BFD01F046BA7B2B55D1AA4C01212046C2
:40290000FEF7EEFDAD48FDF73FFDFF2006F0DEF84FF4FA7003F0C4FFFF2006F0BFF84FF4FA7003F0BDFF002006F0C4F84FF4FA7003F0B6FF01212046FEF7D2FD012003F095
:4029400099FF0020FEF76CFB01229D491020FEF787F8022296491020FEF782F8964C002221461020FEF77CF80120FEF79BFE012221461020FEF774F8322003F07BFF002047
:4029800006F0A4F8322003F075FF002006F086F8322003F06FFF804B00221A64186BFDF713FD01F0EEB97C2B47D18648FDF7ECFCFF2006F07FF84FF4FA7003F071FFFF20D7
:4029C00006F06CF84FF4FA7003F06AFF002006F07DF84FF4FA7003F063FF02217A48FEF77FFD012003F046FF0020FEF7D9FB01226F491020FEF734F8022274491020FEF71D
:402A00002FF800226C491020FEF72AF80220FEF733FF322003F02EFF002006F04BF8322003F028FF002006F039F85B4B00225A64186BFDF7C9FC01F0A4B97D2B4FD1FF2093
:402A400006F044F84FF4FA7003F02AFFFF2006F031F84FF4FA7003F023FFFF2006F01EF84FF4FA7003F01CFF032259491020FDF7F7FF4FF4FA7003F013FF002006F032F8A2
:402A80000A2003F0F7FE0020FEF752FC0320FEF7DDFF4FF47A7003F003FFFF2006F022F84FF47A7003F0FCFE002006F00FF84FF47A7003F0F5FE002005F0FCFF4FF47A70D5
:402AC00003F0EEFE002005F0E9FF4FF47A7003F0E7FE314B186BFDF777FC01F052B9B3F5F46F7FD100212F48FEF7FAFC3948FDF74BFC2A4A517913791B0403EB0163D17875
:402B000003EB012392781344234CA3643248FDF73BFCA06CFDF7E2FD3048FDF735FCE26BA36C9A422BD0E3631846002B00DAD81C194C801007F098FC15A3D3E9002307F0AD
:402B4000F9FC07F0A7FFA064FEF7AAF920630A2003F090FE224C012221461020FDF780FF022221461020FDF77BFF002221461020FDF776FF032221461020FDF771FF064BA2
:402B8000186BFDF721FC01F0FCB800BFAFF300809A99999999992940AC81FF1F5882FF1FCC82FF1FFAD0050044BE0000070407000101070007030700010307005CBE00002A
:402BC0000302070074BE00006EA3010003030700010507008CBE0000A4BE000080B9000002010700B3F5F66F52D101219A48FEF777FC9A48FDF7C8FB994A517913791B04EF
:402C000003EB0163D17803EB012392781344954CE3649548FDF7B8FBE06CFDF75FFD9348FDF7B2FB226CE36C9A422BD023641846002B00DAD81C8B4C801007F015FC82A39C
:402C4000D3E9002307F076FC07F024FFE064FEF7E7F920630A2003F00DFE854C012221461020FDF7FDFE022221461020FDF7F8FE002221461020FDF7F3FE032221461020B5
:402C8000FDF7EEFE774B186BFDF79EFB01F079B8B3F5FA6F3ED17748FDF776FB02217648FEF71EFCC82003F0FBFD6D4A517913791B0403EB0163D17803EB012392781344FF
:402CC000684C23656848FDF75FFB206DFDF706FD6648FDF759FB626C236D9A4214D063641846002B01DA03F10F005E4C001107F0BBFB57A3D3E9002307F01CFC07F0CAFEC5
:402D00002065FEF74DFA2063564B186BFDF75CFB01F037B8B3F5FC6F5BD15848FDF734FBFF2005F0D3FE4FF4FA7003F0B9FDFF2005F0C0FE4FF4FA7003F0B2FDFF2005F08E
:402D4000ADFE4FF4FA7003F0ABFD03224C491020FDF786FE4FF4FA7003F0A2FD002005F0C1FE0A2003F086FD3D4A517913791B0403EB0163D07803EB002390781844394CBB
:402D80006065FEF7D5FA20634FF47A7003F088FDFF2005F0A7FE4FF47A7003F081FD002005F094FE4FF47A7003F07AFD002005F081FE4FF47A7003F073FD002005F06EFE28
:402DC0004FF47A7003F06CFD206BFDF7FDFA00F0D8BF7E2B5ED12B48FDF7D6FA2A48FDF7D3FA1F4C627923791B0403EB0263E27803EB0223A5781D442846FDF76FFC234894
:402E0000FDF7C2FAA079FDF769FC1848FDF7BCFAA379012B03D80A2003F042FD02E000220F4B9A710E4B9C791948FDF7ADFA2046FDF754FC21462846FEF71CFF094B186BAE
:402E4000FDF7C2FA00F09DBF9A999999999929409A99999999994940FAD00500BCBE00005882FF1FAC81FF1FA4BE000080B9000002010700D4BE00006EA30100ECBE0000B7
:402E80000105070004BF000028BF000030BF000048BF0000B3F5F86F40F0AD8002219A48FEF71EFB994C00212046FEF719FB01212046FEF715FB9648FDF766FA954B597900
:402EC0001A79120402EB0162D97802EB012298781044914CA064597A1A7A120402EB0162D97902EB012299791144E1645D7B1A7B120402EB0562DD7A02EB05229B7A1344AA
:402F00002365E26B904202D14FF0FF30A064824A126C914203D14FF0FF317F4AD1647E4A526C934203D14FF0FF327B4B1A657A4B9B6C002B10DB784AD363184600DAD81C5D
:402F4000801007F091FA6CA3D3E9002307F0F2FA07F0A0FD704B98646F4BDB6C002B10DB6D4A1364184600DAD81C801007F07CFA61A3D3E9002307F0DDFA07F08BFD664BD4
:402F8000D864654B1B6D002B11DB634A5364184601DA03F10F00001107F066FA58A3D3E9002307F0C7FA07F075FD5B4B18655A4C226DE16CA06CFEF72DFA20630A2003F016
:402FC00059FC564D012229461020FDF749FD022229461020FDF744FD002229461020FDF73FFD032229461020FDF73AFD206BFDF7EBF900F0C6BEB3F5F44F0AD1FDF7C0FBB9
:40300000642003F037FC444B186BFDF7DDF900F0B8BEB3F50A4F31D13E4B9B784BB93D4CA37A227AA1792079247B009400F0E6FE1BE0012B09D1374CA37A227AA179207915
:40304000247B009400F07CFF0FE0032B05D1314B9979187901F074FD07E013222E4B1A632F48FDF791F9FDF7C3FB642003F002FC294B186BFDF7A8F900F083BEB3F5FE4F5E
:403080000AD1FDF745FB642003F0F4FB224B186BFDF79AF900F075BEB3F5FC4F12D11D4B9C7834B1012C03D01E48FDF76DF900E0FF24204605F098FA174B186BFDF784F9C4
:4030C00000F05FBEFF2B33D11748FDF75DF91748FDF75AF94FF4FA7003F0CCFB0020FDF773F94FF4FA7003F0C5FB03F0BBFB00F048BE00BFAFF300809A999999999929407F
:403100009A999999999949406EA30100FAD005005CBF00005882FF1FAC81FF1F0301070078BF0000A0BF0000C8BF000074BB0000B3F5F64F4DD1944B59791A79120402EB87
:403140000162D97802EB012299780A448F4CA260597A1A7A120402EB0162D97902EB012299790A44E260597B1A7B120402EB0162D97A02EB01229B7A1A4422618448FDF796
:4031800003F90021A068FEF7ABF90121E068FEF7A7F902212069FEF7A3F97E48FDF7F4F8A068FDF79BFA7C4D2846FDF7EDF8E068FDF794FA2846FDF7E7F82069FDF78EFABE
:4031C0002846FDF7E1F8754B186BFDF7FDF800F0D8BD40F2D172934240F0A9806F4C00232360012384F828306D48FDF7CDF86D48FDF7CAF8644B59791A79120402EB016294
:40320000D97802EB012299780A442265597A1A7A120402EB0162D97902EB0122987910445A4B18610221FEF75BF9226D636CD31A002BB8BF5B42B3F5FA7F18DB626410466F
:40324000002A01DA02F10F00544C001107F00CF94BA3D3E9002307F06DF907F01BFC20655048FDF791F8206DFDF79AFF52E04B4B5A641046002A01DA02F10F00474C001127
:4032800007F0F2F83EA3D3E9002307F053F907F001FC2065444D012229461020FDF7E0FB002229461020FDF7DBFB02223F491020FDF7D6FB206A4042FDF722F800232363A0
:4032C000FDF740F8206807F0CFF80022384B07F031F907F0DFFBFDF701FA324D2846FDF753F80221206DFDF7DBFB0220FDF72EFD206807F0B9F800222D4B07F01BF907F023
:40330000C9FBFDF7EBF92846FDF73EF8FDF71AF8A36923622348FDF737F8204C00252560206BFDF751F884F8285000F02ABD40F2D27293423ED1144B59791A79120402EB6A
:403340000162D97802EB012298781044134CA065597A1A7A120402EB0162D97902EB012299791144E1659A7A2266FEF7CBFC00202063FDF729F800F004BD00BFAFF3008043
:403380009A999999999949405882FF1FD080FF1FE8BF000010C0000038C00000AC81FF1F3CC0000000BF000001010700020207000000044040F2C172934240F09580A84B48
:4033C00059791A79120402EB0162D97802EB012299780A44A34DAA64597A1A7A120402EB0162D97902EB012299790A44EA64597B1A7B120402EB0162D97A02EB0122997A22
:403400000A442A65597C1A7C120402EB0162D97B02EB0122997B0A44934CA260597D1A7D120402EB0162D97C02EB0122997C0A44E260597E1A7E120402EB0162D97D02EB42
:4034400001229B7D1A4422610A2003F029FA0021A068FEF745F80121E068FEF741F802212069FEF73DF8A86C002800DA03307D4C801006F0F9FF76A3D3E9002307F05AF856
:4034800007F008FBA064E06C002800DA0330754C801006F0E9FF6EA3D3E9002307F04AF807F0F8FAE064206D002800DA0F306D4C001106F0D9FF68A3D3E9002307F03AF88F
:4034C00007F0E8FA2065642003F0EAF9226DE16CA06CFDF79FFF2063642003F0CBF9206BFCF772FF00F04DBCB3F5F84F04D10020FCF76AFF00F045BCFE2B10D1FF2005F0A5
:40350000BBFA5A48FCF740FF0A2003F0B3F90020FCF75AFF002005F0AFFA00F032BC47F28332934240F0A4804D4B59791A79120402EB0162D97802EB012299781144587A1E
:403540001A7A120402EB0062DC7902EB04229C791444587B1A7B120402EB0062DD7A02EB05229D7A1544587C1A7C120402EB0062D87B02EB002293F80E8090440846002940
:4035800000DAC81C801006F06FFF31A3D3E9002306F0D0FF07F07EFA06462046002C00DAE01C801006F060FF29A3D3E9002306F0C1FF07F06FFA04462846002D01DA05F162
:4035C0000F00001106F050FF23A3D3E9002306F0B1FF07F05FFA07464046B8F1000F01DA08F10F00001106F03FFF1BA3D3E9002306F0A0FF07F04EFA0546194B597D1A7D8B
:40360000120402EB0162D97C02EB0122997C11441548816093F819E01A7E120402EB0E6293F817E002EB0E229B7D1A440261019200912B463A4621463046FEF7A5FB094B35
:403640005D64DC630020FCF7BFFE9AE3AFF300809A999999999929409A999999999949405882FF1FAC81FF1FD080FF1F40C0000048F28332934240F0B380B94B59791A797A
:40368000120402EB0162D97802EB012299781144587A1A7A120402EB0062DE7902EB06229E791644587B1A7B120402EB0062DD7A02EB05229D7A1544587C1A7C120402EB20
:4036C0000062DC7B02EB04229C7B1444A54B9C600846002900DAC81C801006F0C5FE9CA3D3E9002306F026FF07F0D4F980463046002E00DAF01C801006F0B6FE94A3D3E9AB
:40370000002306F017FF07F0C5F90646284607F013FB4FF0765107F063FB06F0B7FE8EA3D3E9002306F006FF07F0B4F907468C4B597D1A7D120402EB0162DD7C02EB0522CD
:403740009D7C154487490D61587E1A7E120402EB0062D87D02EB002293F816E09644587F1A7F120402EB0062D87E02EB002293F81A9091449B7F0B707046BEF1000F01DADF
:403780000EF10F00001106F06FFE73A3D3E9002306F0D0FE07F07EF982464846B9F1000F01DA09F10F00001106F05EFE6AA3D3E9002306F0BFFE07F06DF981460290CDF8F0
:4037C00004A0009523463A4631464046FEF740FB4F44654B5F64DE630020FCF7F5FDD0E247F27332934240F0C1805D4B59791A79120402EB0162D97802EB0122997811441E
:40380000587A1A7A120402EB0062DE7902EB06229E791644587B1A7B120402EB0062DD7A02EB05229D7A1544587C1A7C120402EB0062DC7B02EB04229C7B1444494B9C6000
:403840000846002900DAC81C801006F00DFE40A3D3E9002306F06EFE07F01CF980463046002E00DAF01C801006F0FEFD38A3D3E9002306F05FFE07F00DF90646284607F0C6
:403880005BFA4FF0765107F0ABFA06F0FFFD32A3D3E9002306F04EFE07F0FCF80746304B597D1A7D120402EB0162DD7C02EB05229D7C15442B490D61587E1A7E120402EB71
:4038C0000062D87D02EB002293F816E09644587F1A7F120402EB0062D87E02EB002293F81A9091449B7F0B707046BEF1000F01DA0EF10F00001106F0B7FD17A3D3E900231D
:4039000006F018FE07F0C6F882464846B9F1000F01DA09F10F00001106F0A6FD0EA3D3E9002306F007FE07F0B5F881460290CDF804A0009523463A4631464046FEF7C0FB0D
:403940004F44094B5F64DE630020FCF73DFD18E29A999999999929409A999999999949405882FF1FD080FF1FAC81FF1F49F29332934240F043819E4B59791A79120402EB2A
:403980000162D97802EB012299781144587A1A7A120402EB006293F8079002EB092293F806909144587B1A7B120402EB006293F80B8002EB082293F80A809044587C1A7C95
:4039C000120402EB0062DF7B02EB07229F7B1744587D1A7D120402EB0062DE7C02EB06229E7C1644587E1A7E120402EB0062DD7D02EB05229D7D1544587F1A7F120402EBA2
:403A00000062DC7E02EB04229C7E144493F8210093F82020120402EB0062D87F02EB0022987F0244099293F8250093F82420120402EB006293F8230002EB002293F82200BD
:403A400002440A9293F8290093F82820120402EB006293F827A002EB0A2293F826A092446448C0F808A093F82DE093F82C20120402EB0E6293F82BB002EB0B2293F82AB013
:403A80009344C0F810B00846002900DAC81C801006F0EAFC52A3D3E9002306F04BFD06F0F9FF0B904846B9F1000F01DA09F10300801006F0D9FC4AA3D3E9002306F03AFD08
:403AC00006F0E8FF0C904046B8F1000F01DA08F10300801006F0C8FC41A3D3E9002306F029FD06F0D7FF0D903846002F00DAF81C801006F0B9FC3AA3D3E9002306F01AFD07
:403B000006F0C8FF07463046002E01DA06F10F00001106F0A9FC34A3D3E9002306F00AFD06F0B8FF06462846002D01DA05F10F00001106F099FC2CA3D3E9002306F0FAFCED
:403B400006F0A8FF05462046002C01DA04F10F00001106F089FC24A3D3E9002306F0EAFC06F098FF0446099B1846002B00DA0F30001106F079FC1CA3D3E9002306F0DAFCDB
:403B800006F088FF80460A9807F0D6F84FF0765107F026F906F07AFC13A3D3E9002306F0C9FC06F077FF8146CDF818B0CDF814A00490CDF80C800294019500963B460D9A7B
:403BC0000C990B98FEF7BCFB08EB09030A4A5364D7630020FCF7F8FBD3E000BFAFF300809A999999999929409A999999999949405882FF1FD080FF1FAC81FF1F41F21002DD
:403C0000934240F0B380644B59791A79120402EB0162D97802EB012299781144587A1A7A120402EB0062DE7902EB06229E791644587B1A7B120402EB0062DD7A02EB05222B
:403C40009D7A1544587C1A7C120402EB0062DC7B02EB04229C7B1444504B9C600846002900DAC81C801006F0FFFB47A3D3E9002306F060FC06F00EFF80463046002E00DA7E
:403C8000F01C801006F0F0FB3FA3D3E9002306F051FC06F0FFFE0646284607F04DF84FF0765107F09DF806F0F1FB39A3D3E9002306F040FC06F0EEFE0746374B597D1A7D1B
:403CC000120402EB0162DD7C02EB05229D7C154432490D61587E1A7E120402EB0062D87D02EB002293F816E09644587F1A7F120402EB0062D87E02EB002293F81A909144C0
:403D00009B7F0B707046BEF1000F01DA0EF10F00001106F0A9FB1EA3D3E9002306F00AFC06F0B8FE82464846B9F1000F01DA09F10F00001106F098FB15A3D3E9002306F084
:403D4000F9FB06F0A7FE81460290CDF804A0009523463A4631464046FEF74EFC4F44104B5F64DE630020FCF72FFB0AE013240C4B1C630C48FCF708FBFCF73AFD2046FCF745
:403D800023FB0FB0BDE8F08F9A999999999929409A999999999949405882FF1FD080FF1FAC81FF1F78BF000010B440F0E000044C43EA0023238041EA0222628010BC70472F
:403DC0001082FF1F38B50546082313E05C1E45FA04F000F0010005F05DF8002005F066F8012002F05DFD012005F060F8012002F057FDE3B2002BE9D138BD00BFF8B50546FA
:403E00000C4616461F460020FFF7DCFF0020FFF7D9FF0020FFF7D6FF0020FFF7D3FF0122304B1A700FE0E020FFF7CCFF0020FFF7C9FF0020FFF7C6FF0020FFF7C3FF294AE1
:403E4000137801331370274B1B78122BEBD9FF20FFF7B8FFFF20FFF7B5FFFF20FFF7B2FFFF20FFF7AFFF3B46324621469DF81800FFF79AFF0020FFF7A5FF0020FFF7A2FFCF
:403E80000020FFF79FFF0020FFF79CFF0122154B1A7012E0144C2088000AFFF793FF2078FFF790FF6088000AFFF78CFFA078FFF789FF0C4A1378013313700A4B1B78AB4271
:403EC000E8D9FF20FFF77EFFFF20FFF77BFFFF20FFF778FFFF20FFF775FF0022014B1A70F8BD00BFD482FF1F1082FF1F38B505469DF81000FFF758FF01220F4B1A7012E018
:403F00000E4C2088000AFFF75DFF2078FFF75AFF6088000AFFF756FFA078FFF753FF064A137801331370044B1B78AB42E8D90022014B1A7038BD00BFD482FF1F1082FF1FAD
:403F40002DE9F04182B004460D4616461F469DF820800020FFF736FF0020FFF733FF0020FFF730FF0020FFF72DFF0122754B1A700FE0E020FFF726FF0020FFF723FF00204C
:403F8000FFF720FF0020FFF71DFF6E4A1378013313706C4B1B78122BEBD9FF20FFF712FFFF20FFF70FFFFF20FFF70CFFFF20FFF709FF013C042C00F2C180DFE804F003246D
:403FC0004D769F000020FFF7FDFE0020FFF7FAFE0020FFF7F7FE0020FFF7F4FEE023009300231A4619461220FFF780FFFF20FFF7E9FEFF20FFF7E6FEFF20FFF7E3FEFF2004
:40400000FFF7E0FE9AE00020FFF7DCFE0020FFF7D9FE0020FFF7D6FE0020FFF7D3FEE023009300231A4619460D20FFF75FFFCDF800803B46324629460520FFF757FFFF204E
:40404000FFF7C0FEFF20FFF7BDFEFF20FFF7BAFEFF20FFF7B7FE71E00020FFF7B3FE0020FFF7B0FE0020FFF7ADFE0020FFF7AAFEE023009300231A4619460920FFF736FFFE
:40408000CDF800803B46324629460920FFF72EFFFF20FFF797FEFF20FFF794FEFF20FFF791FEFF20FFF78EFE48E00020FFF78AFE0020FFF787FE0020FFF784FE0020FFF762
:4040C00081FEE023009300231A4619460520FFF70DFFCDF800803B46324629460D20FFF705FFFF20FFF76EFEFF20FFF76BFEFF20FFF768FEFF20FFF765FE1FE00020FFF7C7
:4041000061FE0020FFF75EFE0020FFF75BFE0020FFF758FECDF800803B46324629461220FFF7E4FEFF20FFF74DFEFF20FFF74AFEFF20FFF747FEFF20FFF744FE02B0BDE857
:40414000F08100BFD482FF1F10B5102410E0002004F0B8FE002004F0C1FE012002F0A0FB012004F0BBFE012002F09AFB013CE4B2002CECD110BD00BF38B50546002004F05D
:40418000ADFE002004F0B6FE012002F089FBFFF7DBFF102313E05C1E45FA04F000F0010004F090FE002004F099FE012002F078FB012004F093FE012002F072FBE3B2002BC8
:4041C000E9D1FFF7C1FFFFF7BFFF002004F086FE012004F08FFE38BD08B50022044B1A7041EA402080B2034B1880FFF7C5FF08BDF980FF1F1C82FF1F08B538B9074B0B2014
:4042000098700021D970FFF7E7FF08BD034B0B2098708021D970FFF7DFFF08BD1C82FF1F08B518210120FFF7D7FF012004F06EFE00210A20FFF7D0FF0020FFF7DDFF012123
:404240002020FFF7C9FF08BD38B50546002004F045FE002004F04EFE012002F021FBFFF773FFFFF771FFFFF76FFF102313E05C1E45FA04F000F0010004F024FE002004F03D
:404280002DFE012002F00CFB012004F027FE012002F006FBE3B2002BE9D1002004F01EFE012004F027FE38BD08B50022044B1A7041EA402080B2034B1880FFF7C5FF08BDB8
:4042C000F980FF1F1C82FF1F08B538B9074B0B2098700021D970FFF7E7FF08BD034B0B2098708021D970FFF7DFFF08BD1C82FF1F08B518210120FFF7D7FF012004F012FE65
:4043000000210A20FFF7D0FF0020FFF7DDFF01212020FFF7C9FF08BD38B50546002004F0DDFD002004F0E6FD012002F0B9FA102313E05C1E45FA04F000F0010004F0C2FD3C
:40434000002004F0CBFD012002F0AAFA012004F0C5FD012002F0A4FAE3B2002BE9D1FFF7F3FEFFF7F1FEFFF7EFFE002004F0B6FD012004F0BFFD38BD08B50022044B1A70B4
:4043800041EA402080B2034B1880FFF7C5FF08BDF980FF1F1C82FF1F08B538B9074B0B2098700021D970FFF7E7FF08BD034B0B2098708021D970FFF7DFFF08BD1C82FF1F8A
:4043C00008B518210120FFF7D7FF012004F0B6FD00210A20FFF7D0FF0020FFF7DDFF01212020FFF7C9FF08BD38B50546002004F075FD002004F07EFD012002F051FAFFF78A
:40440000A3FEFFF7A1FE102313E05C1E45FA04F000F0010004F056FD002004F05FFD012002F03EFA012004F059FD012002F038FAE3B2002BE9D1FFF787FE002004F04EFD7C
:40444000012004F057FD38BD08B50022044B1A7041EA402080B2034B1880FFF7C5FF08BDF980FF1F1C82FF1F08B538B9074B0B2098700021D970FFF7E7FF08BD034B0B20FA
:4044800098708021D970FFF7DFFF08BD1C82FF1F08B518210120FFF7D7FF012004F05AFD00210A20FFF7D0FF0020FFF7DDFF01212020FFF7C9FF08BD08B5012004F01AFD96
:4044C000012004F023FD0120FFF796FE00212020FFF782FE00212420FFF77EFE00212820FFF77AFE00212C20FFF776FE00213020FFF772FE00213420FFF76EFE0021382059
:40450000FFF76AFE00213C20FFF766FE00214020FFF762FE00214420FFF75EFE00214820FFF75AFE00214C20FFF756FE00215020FFF752FE00215420FFF74EFE00215820A3
:40454000FFF74AFE00215C20FFF746FE00216020FFF742FE00216420FFF73EFE00216820FFF73AFE00216C20FFF736FE00217020FFF732FE00217420FFF72EFE0021782063
:40458000FFF72AFE00217C20FFF726FE00212120FFF722FE00212520FFF71EFE00212920FFF71AFE00212D20FFF716FE00213120FFF712FE00213520FFF70EFE00213920BC
:4045C000FFF70AFE00213D20FFF706FE00214120FFF702FE00214520FFF7FEFD00214920FFF7FAFD00214D20FFF7F6FD00215120FFF7F2FD00215520FFF7EEFD00215920E0
:40460000FFF7EAFD00215D20FFF7E6FD00216120FFF7E2FD00216520FFF7DEFD00216920FFF7DAFD00216D20FFF7D6FD00217120FFF7D2FD00217520FFF7CEFD00217920A2
:40464000FFF7CAFD00217D20FFF7C6FD012004F05DFC012004F066FC0120FFF735FE00212020FFF721FE00212420FFF71DFE00212820FFF719FE00212C20FFF715FE0021DE
:404680003020FFF711FE00213420FFF70DFE00213820FFF709FE00213C20FFF705FE00214020FFF701FE00214420FFF7FDFD00214820FFF7F9FD00214C20FFF7F5FD00214D
:4046C0005020FFF7F1FD00215420FFF7EDFD00215820FFF7E9FD00215C20FFF7E5FD00216020FFF7E1FD00216420FFF7DDFD00216820FFF7D9FD00216C20FFF7D5FD002112
:404700007020FFF7D1FD00217420FFF7CDFD00217820FFF7C9FD00217C20FFF7C5FD00212120FFF7C1FD00212520FFF7BDFD00212920FFF7B9FD00212D20FFF7B5FD00214D
:404740003120FFF7B1FD00213520FFF7ADFD00213920FFF7A9FD00213D20FFF7A5FD00214120FFF7A1FD00214520FFF79DFD00214920FFF799FD00214D20FFF795FD002189
:404780005120FFF791FD00215520FFF78DFD00215920FFF789FD00215D20FFF785FD00216120FFF781FD00216520FFF77DFD00216920FFF779FD00216D20FFF775FD002149
:4047C0007120FFF771FD00217520FFF76DFD00217920FFF769FD00217D20FFF765FD012004F0A0FB012004F0A9FB0120FFF7D4FD00212020FFF7C0FD00212420FFF7BCFD09
:4048000000212820FFF7B8FD00212C20FFF7B4FD00213020FFF7B0FD00213420FFF7ACFD00213820FFF7A8FD00213C20FFF7A4FD00214020FFF7A0FD00214420FFF79CFDD8
:4048400000214820FFF798FD00214C20FFF794FD00215020FFF790FD00215420FFF78CFD00215820FFF788FD00215C20FFF784FD00216020FFF780FD00216420FFF77CFD98
:4048800000216820FFF778FD00216C20FFF774FD00217020FFF770FD00217420FFF76CFD00217820FFF768FD00217C20FFF764FD00212120FFF760FD00212520FFF75CFD16
:4048C00000212920FFF758FD00212D20FFF754FD00213120FFF750FD00213520FFF74CFD00213920FFF748FD00213D20FFF744FD00214120FFF740FD00214520FFF73CFD10
:4049000000214920FFF738FD00214D20FFF734FD00215120FFF730FD00215520FFF72CFD00215920FFF728FD00215D20FFF724FD00216120FFF720FD00216520FFF71CFDCF
:4049400000216920FFF718FD00216D20FFF714FD00217120FFF710FD00217520FFF70CFD00217920FFF708FD00217D20FFF704FD012004F0E3FA012004F0ECFA0120FFF7F5
:4049800073FD00212020FFF75FFD00212420FFF75BFD00212820FFF757FD00212C20FFF753FD00213020FFF74FFD00213420FFF74BFD00213820FFF747FD00213C20FFF72F
:4049C00043FD00214020FFF73FFD00214420FFF73BFD00214820FFF737FD00214C20FFF733FD00215020FFF72FFD00215420FFF72BFD00215820FFF727FD00215C20FFF7FF
:404A000023FD00216020FFF71FFD00216420FFF71BFD00216820FFF717FD00216C20FFF713FD00217020FFF70FFD00217420FFF70BFD00217820FFF707FD00217C20FFF7BE
:404A400003FD00212120FFF7FFFC00212520FFF7FBFC00212920FFF7F7FC00212D20FFF7F3FC00213120FFF7EFFC00213520FFF7EBFC00213920FFF7E7FC00213D20FFF77D
:404A8000E3FC00214120FFF7DFFC00214520FFF7DBFC00214920FFF7D7FC00214D20FFF7D3FC00215120FFF7CFFC00215520FFF7CBFC00215920FFF7C7FC00215D20FFF73E
:404AC000C3FC00216120FFF7BFFC00216520FFF7BBFC00216920FFF7B7FC00216D20FFF7B3FC00217120FFF7AFFC00217520FFF7ABFC00217920FFF7A7FC00217D20FFF7FE
:404B0000A3FC002004F026FA08BD00BF08B5002004F02CFA012001F0C3FE012004F026FA012001F0BDFE08BD08B5FFF7EFFFFFF777FBFFF7DDFBFFF743FCFFF7A9FC08BD21
:404B400038B505460C46FFF7EFFF012001F0A8FE012C40F0CA80012004F0D8F90120FFF74BFB00212020FFF737FB00212420FFF733FB00212820FFF72FFB00212C20FFF727
:404B80002BFB00213020FFF727FB00213420FFF723FB00213820FFF71FFB00213C20FFF71BFB00214020FFF717FB00214420FFF713FB01214820FFF70FFB00214C20FFF78C
:404BC0000BFB00215020FFF707FB00215420FFF703FB00215820FFF7FFFA00215C20FFF7FBFA00216020FFF7F7FA00216420FFF7F3FA00216820FFF7EFFA00216C20FFF752
:404C0000EBFA00217020FFF7E7FA00217420FFF7E3FA00217820FFF7DFFA00217C20FFF7DBFA00212120FFF7D7FA00212520FFF7D3FA00212920FFF7CFFA00212D20FFF790
:404C4000CBFA00213120FFF7C7FA00213520FFF7C3FA00213920FFF7BFFA00213D20FFF7BBFA00214120FFF7B7FA00214520FFF7B3FA29464920FFF7AFFA00214D20FFF77E
:404C8000ABFA00215120FFF7A7FA00215520FFF7A3FA00215920FFF79FFA00215D20FFF79BFA00216120FFF797FA00216520FFF793FA00216920FFF78FFA00216D20FFF78C
:404CC0008BFA00217120FFF787FA00217520FFF783FA00217920FFF77FFA00217D20FFF77BFA002004F012F938BD022C40F0CA80012004F00BF90120FFF77EFA00212020C6
:404D0000FFF76AFA00212420FFF766FA00212820FFF762FA00212C20FFF75EFA00213020FFF75AFA00213420FFF756FA01213820FFF752FA00213C20FFF74EFA002140207A
:404D4000FFF74AFA01214420FFF746FA00214820FFF742FA00214C20FFF73EFA00215020FFF73AFA01215420FFF736FA00215820FFF732FA00215C20FFF72EFA0021602039
:404D8000FFF72AFA00216420FFF726FA00216820FFF722FA00216C20FFF71EFA00217020FFF71AFA00217420FFF716FA00217820FFF712FA00217C20FFF70EFA002121205A
:404DC000FFF70AFA00212520FFF706FA00212920FFF702FA00212D20FFF7FEF900213120FFF7FAF900213520FFF7F6F929463920FFF7F2F900213D20FFF7EEF9002141206A
:404E0000FFF7EAF929464520FFF7E6F900214920FFF7E2F900214D20FFF7DEF900215120FFF7DAF929465520FFF7D6F900215920FFF7D2F900215D20FFF7CEF900216120DE
:404E4000FFF7CAF900216520FFF7C6F900216920FFF7C2F900216D20FFF7BEF900217120FFF7BAF900217520FFF7B6F900217920FFF7B2F900217D20FFF7AEF9002004F0E8
:404E800045F838BD032C40F0CA80012004F03EF80120FFF7B1F900212020FFF79DF900212420FFF799F900212820FFF795F900212C20FFF791F900213020FFF78DF9002149
:404EC0003420FFF789F900213820FFF785F901213C20FFF781F900214020FFF77DF900214420FFF779F900214820FFF775F901214C20FFF771F900215020FFF76DF9002148
:404F00005420FFF769F901215820FFF765F900215C20FFF761F900216020FFF75DF900216420FFF759F900216820FFF755F900216C20FFF751F900217020FFF74DF9002108
:404F40007420FFF749F900217820FFF745F900217C20FFF741F900212120FFF73DF900212520FFF739F900212920FFF735F900212D20FFF731F900213120FFF72DF90021A4
:404F80003520FFF729F900213920FFF725F929463D20FFF721F900214120FFF71DF900214520FFF719F900214920FFF715F929464D20FFF711F900215120FFF70DF90021E5
:404FC0005520FFF709F929465920FFF705F900215D20FFF701F900216120FFF7FDF800216520FFF7F9F800216920FFF7F5F800216D20FFF7F1F800217120FFF7EDF80021F8
:405000007520FFF7E9F800217920FFF7E5F800217D20FFF7E1F8002003F078FF38BD042C40F0CA80012003F071FF0120FFF7E4F800212020FFF7D0F800212420FFF7CCF80C
:4050400000212820FFF7C8F800212C20FFF7C4F800213020FFF7C0F800213420FFF7BCF801213820FFF7B8F801213C20FFF7B4F800214020FFF7B0F801214420FFF7ACF835
:4050800001214820FFF7A8F801214C20FFF7A4F800215020FFF7A0F801215420FFF79CF801215820FFF798F800215C20FFF794F800216020FFF790F800216420FFF78CF8F4
:4050C00000216820FFF788F800216C20FFF784F800217020FFF780F800217420FFF77CF800217820FFF778F800217C20FFF774F800212120FFF770F800212520FFF76CF876
:4051000000212920FFF768F800212D20FFF764F800213120FFF760F800213520FFF75CF829463920FFF758F829463D20FFF754F800214120FFF750F829464520FFF74CF885
:4051400029464920FFF748F829464D20FFF744F800215120FFF740F829465520FFF73CF829465920FFF738F800215D20FFF734F800216120FFF730F800216520FFF72CF8F7
:4051800000216920FFF728F800216D20FFF724F800217120FFF720F800217520FFF71CF800217920FFF718F800217D20FFF714F8002003F0ABFE38BD052C40F0CA800120F2
:4051C00003F0A4FE0120FFF717F800212020FFF703F801212420FEF7FFFF00212820FEF7FBFF01212C20FEF7F7FF00213020FEF7F3FF01213420FEF7EFFF00213820FEF779
:40520000EBFF00213C20FEF7E7FF00214020FEF7E3FF00214420FEF7DFFF00214820FEF7DBFF00214C20FEF7D7FF01215020FEF7D3FF00215420FEF7CFFF00215820FEF78D
:40524000CBFF00215C20FEF7C7FF01216020FEF7C3FF00216420FEF7BFFF01216820FEF7BBFF00216C20FEF7B7FF00217020FEF7B3FF00217420FEF7AFFF00217820FEF74C
:40528000ABFF00217C20FEF7A7FF00212120FEF7A3FF29462520FEF79FFF00212920FEF79BFF29462D20FEF797FF00213120FEF793FF29463520FEF78FFF00213920FEF7BD
:4052C0008BFF00213D20FEF787FF00214120FEF783FF00214520FEF77FFF00214920FEF77BFF00214D20FEF777FF29465120FEF773FF00215520FEF76FFF00215920FEF778
:405300006BFF00215D20FEF767FF29466120FEF763FF00216520FEF75FFF29466920FEF75BFF00216D20FEF757FF00217120FEF753FF00217520FEF74FFF00217920FEF7E9
:405340004BFF00217D20FEF747FF002003F0DEFD38BD062C40F0CA80012003F0D7FD0120FEF74AFF01212020FEF736FF00212420FEF732FF01212820FEF72EFF00212C2004
:40538000FEF72AFF01213020FEF726FF00213420FEF722FF00213820FEF71EFF00213C20FEF71AFF01214020FEF716FF00214420FEF712FF00214820FEF70EFF00214C2073
:4053C000FEF70AFF00215020FEF706FF00215420FEF702FF00215820FEF7FEFE01215C20FEF7FAFE00216020FEF7F6FE01216420FEF7F2FE00216820FEF7EEFE00216C2038
:40540000FEF7EAFE00217020FEF7E6FE00217420FEF7E2FE00217820FEF7DEFE00217C20FEF7DAFE29462120FEF7D6FE00212520FEF7D2FE29462920FEF7CEFE00212D20DC
:40544000FEF7CAFE29463120FEF7C6FE00213520FEF7C2FE00213920FEF7BEFE00213D20FEF7BAFE29464120FEF7B6FE00214520FEF7B2FE00214920FEF7AEFE00214D2018
:40548000FEF7AAFE00215120FEF7A6FE00215520FEF7A2FE00215920FEF79EFE29465D20FEF79AFE00216120FEF796FE29466520FEF792FE00216920FEF78EFE00216D20D8
:4054C000FEF78AFE00217120FEF786FE00217520FEF782FE00217920FEF77EFE00217D20FEF77AFE002003F011FD38BD072C40F0CA80012003F00AFD0120FEF77DFE0121F2
:405500002020FEF769FE01212420FEF765FE01212820FEF761FE01212C20FEF75DFE01213020FEF759FE01213420FEF755FE00213820FEF751FE00213C20FEF74DFE01217D
:405540004020FEF749FE00214420FEF745FE00214820FEF741FE00214C20FEF73DFE01215020FEF739FE00215420FEF735FE00215820FEF731FE01215C20FEF72DFE012140
:405580006020FEF729FE01216420FEF725FE01216820FEF721FE00216C20FEF71DFE00217020FEF719FE00217420FEF715FE00217820FEF711FE00217C20FEF70DFE2946B3
:4055C0002120FEF709FE29462520FEF705FE29462920FEF701FE29462D20FEF7FDFD29463120FEF7F9FD29463520FEF7F5FD00213920FEF7F1FD00213D20FEF7EDFD2946EC
:405600004120FEF7E9FD00214520FEF7E5FD00214920FEF7E1FD00214D20FEF7DDFD29465120FEF7D9FD00215520FEF7D5FD00215920FEF7D1FD29465D20FEF7CDFD294698
:405640006120FEF7C9FD29466520FEF7C5FD29466920FEF7C1FD00216D20FEF7BDFD00217120FEF7B9FD00217520FEF7B5FD00217920FEF7B1FD00217D20FEF7ADFD0020A7
:4056800003F044FC38BD082C40F0CA80012003F03DFC0120FEF7B0FD01212020FEF79CFD01212420FEF798FD01212820FEF794FD01212C20FEF790FD01213020FEF78CFD54
:4056C00001213420FEF788FD01213820FEF784FD01213C20FEF780FD01214020FEF77CFD01214420FEF778FD01214820FEF774FD01214C20FEF770FD01215020FEF76CFD2A
:4057000001215420FEF768FD01215820FEF764FD01215C20FEF760FD01216020FEF75CFD01216420FEF758FD01216820FEF754FD01216C20FEF750FD01217020FEF74CFDE9
:4057400001217420FEF748FD01217820FEF744FD01217C20FEF740FD29462120FEF73CFD29462520FEF738FD29462920FEF734FD29462D20FEF730FD29463120FEF72CFD03
:4057800029463520FEF728FD29463920FEF724FD29463D20FEF720FD29464120FEF71CFD29464520FEF718FD29464920FEF714FD29464D20FEF710FD29465120FEF70CFDF9
:4057C00029465520FEF708FD29465920FEF704FD29465D20FEF700FD29466120FEF7FCFC29466520FEF7F8FC29466920FEF7F4FC29466D20FEF7F0FC29467120FEF7ECFCBE
:4058000029467520FEF7E8FC29467920FEF7E4FC29467D20FEF7E0FC002003F077FB38BD092C40F0CA80012003F094FB0120FEF71BFE01212020FEF707FE00212420FEF720
:4058400003FE01212820FEF7FFFD00212C20FEF7FBFD01213020FEF7F7FD00213420FEF7F3FD01213820FEF7EFFD00213C20FEF7EBFD01214020FEF7E7FD00214420FEF733
:40588000E3FD01214820FEF7DFFD00214C20FEF7DBFD01215020FEF7D7FD00215420FEF7D3FD01215820FEF7CFFD00215C20FEF7CBFD01216020FEF7C7FD00216420FEF7F4
:4058C000C3FD01216820FEF7BFFD00216C20FEF7BBFD01217020FEF7B7FD00217420FEF7B3FD01217820FEF7AFFD00217C20FEF7ABFD29462120FEF7A7FD00212520FEF725
:40590000A3FD29462920FEF79FFD00212D20FEF79BFD29463120FEF797FD00213520FEF793FD29463920FEF78FFD00213D20FEF78BFD29464120FEF787FD00214520FEF737
:4059400083FD29464920FEF77FFD00214D20FEF77BFD29465120FEF777FD00215520FEF773FD29465920FEF76FFD00215D20FEF76BFD29466120FEF767FD00216520FEF7F7
:4059800063FD29466920FEF75FFD00216D20FEF75BFD29467120FEF757FD00217520FEF753FD29467920FEF74FFD00217D20FEF74BFD002003F0CEFA38BD0A2C40F0CA803B
:4059C000012003F0C7FA0120FEF74EFD00212020FEF73AFD01212420FEF736FD00212820FEF732FD01212C20FEF72EFD00213020FEF72AFD01213420FEF726FD00213820A7
:405A0000FEF722FD01213C20FEF71EFD00214020FEF71AFD01214420FEF716FD00214820FEF712FD01214C20FEF70EFD00215020FEF70AFD01215420FEF706FD00215820DA
:405A4000FEF702FD01215C20FEF7FEFC00216020FEF7FAFC01216420FEF7F6FC00216820FEF7F2FC01216C20FEF7EEFC00217020FEF7EAFC01217420FEF7E6FC00217820A1
:405A8000FEF7E2FC01217C20FEF7DEFC00212120FEF7DAFC29462520FEF7D6FC00212920FEF7D2FC29462D20FEF7CEFC00213120FEF7CAFC29463520FEF7C6FC0021392014
:405AC000FEF7C2FC29463D20FEF7BEFC00214120FEF7BAFC29464520FEF7B6FC00214920FEF7B2FC29464D20FEF7AEFC00215120FEF7AAFC29465520FEF7A6FC00215920E6
:405B0000FEF7A2FC29465D20FEF79EFC00216120FEF79AFC29466520FEF796FC00216920FEF792FC29466D20FEF78EFC00217120FEF78AFC29467520FEF786FC00217920A5
:405B4000FEF782FC29467D20FEF77EFC002003F001FA38BD0B2C40F0CD80012003F0FAF90120FEF781FC01212020FEF76DFC01212420FEF769FC01212820FEF765FC012184
:405B80002C20FEF761FC01213020FEF75DFC01213420FEF759FC01213820FEF755FC01213C20FEF751FC01214020FEF74DFC01214420FEF749FC01214820FEF745FC0121E5
:405BC0004C20FEF741FC01215020FEF73DFC01215420FEF739FC01215820FEF735FC01215C20FEF731FC01216020FEF72DFC01216420FEF729FC01216820FEF725FC0121A5
:405C00006C20FEF721FC01217020FEF71DFC01217420FEF719FC01217820FEF715FC01217C20FEF711FC29462120FEF70DFC29462520FEF709FC29462920FEF705FC29464D
:405C40002D20FEF701FC29463120FEF7FDFB29463520FEF7F9FB29463920FEF7F5FB29463D20FEF7F1FB29464120FEF7EDFB29464520FEF7E9FB29464920FEF7E5FB2946BB
:405C80004D20FEF7E1FB29465120FEF7DDFB29465520FEF7D9FB29465920FEF7D5FB29465D20FEF7D1FB29466120FEF7CDFB29466520FEF7C9FB29466920FEF7C5FB29467C
:405CC0006D20FEF7C1FB29467120FEF7BDFB29467520FEF7B9FB29467920FEF7B5FB29467D20FEF7B1FB642000F0C4FD002003F031F938BD0C2C40F09381012003F01EF9A4
:405D00000120FEF749FB01212020FEF735FB01212420FEF731FB01212820FEF72DFB01212C20FEF729FB01213020FEF725FB01213420FEF721FB01213820FEF71DFB012136
:405D40003C20FEF719FB01214020FEF715FB01214420FEF711FB01214820FEF70DFB01214C20FEF709FB01215020FEF705FB01215420FEF701FB01215820FEF7FDFA0021ED
:405D80005C20FEF7F9FA00216020FEF7F5FA00216420FEF7F1FA00216820FEF7EDFA00216C20FEF7E9FA00217020FEF7E5FA00217420FEF7E1FA00217820FEF7DDFA0021BB
:405DC0007C20FEF7D9FA29462120FEF7D5FA29462520FEF7D1FA29462920FEF7CDFA29462D20FEF7C9FA29463120FEF7C5FA29463520FEF7C1FA29463920FEF7BDFA2946A4
:405E00003D20FEF7B9FA29464120FEF7B5FA29464520FEF7B1FA29464920FEF7ADFA29464D20FEF7A9FA29465120FEF7A5FA29465520FEF7A1FA29465920FEF79DFA002110
:405E40005D20FEF799FA00216120FEF795FA00216520FEF791FA00216920FEF78DFA00216D20FEF789FA00217120FEF785FA00217520FEF781FA00217920FEF77DFA0021F2
:405E80007D20FEF779FA002003F058F8012003F049F80120FEF718FA01212020FEF704FA01212420FEF700FA01212820FEF7FCF901212C20FEF7F8F901213020FEF7F4F957
:405EC00001213420FEF7F0F901213820FEF7ECF901213C20FEF7E8F901214020FEF7E4F901214420FEF7E0F901214820FEF7DCF901214C20FEF7D8F901215020FEF7D4F902
:405F000001215420FEF7D0F901215820FEF7CCF900215C20FEF7C8F900216020FEF7C4F900216420FEF7C0F900216820FEF7BCF900216C20FEF7B8F900217020FEF7B4F9C7
:405F400000217420FEF7B0F900217820FEF7ACF900217C20FEF7A8F929462120FEF7A4F929462520FEF7A0F929462920FEF79CF929462D20FEF798F929463120FEF794F9DE
:405F800029463520FEF790F929463920FEF78CF929463D20FEF788F929464120FEF784F929464520FEF780F929464920FEF77CF929464D20FEF778F929465120FEF774F9D1
:405FC00029465520FEF770F929465920FEF76CF900215D20FEF768F900216120FEF764F900216520FEF760F900216920FEF75CF900216D20FEF758F900217120FEF754F965
:4060000000217520FEF750F900217920FEF74CF900217D20FEF748F9002002F083FF38BDFEF74AFA38BD00BFFEE700BFF0B40022174611E050F82760F3B226F0FF0608E0DF
:4060400001EB420511F812406D78A5550132013BDBB2002BF4D10137272FEBD9F0BC7047064B1B78DBB203F00701054A11701B09013213704422034B1A707047CF010049EE
:406080006E5800407658004008B50A46002105F02EF808BD08B505F01FF808BD08B505F01BF808BD38B501222C4B1A8018232C490B7002310A8002310B7002310A80294ABF
:4060C000137017210232118002321370332102321180023213700622234B1A705222A3F580731A70214B1B78DBB2214A13704FF4E262204B1A8041F25122023B1A80002449
:4061000019250CE01C4B1B7803F0010343EA440404F003044FF4F07002F036FF013D0DB1032CEFD115B90320FFF77EFF134A4FF48073138007231370002311490B70482088
:406140000231087013700532137002220D4B1A700D4A137843F01F03137038BD80400040824000408A400040004300400F010049A1460040224200402542004004400040A4
:406180000640004001400040A243004038B572B64A4A137843F00403137000240CE0484D630019194A0011462A44084691882858FFF76AFF0134E4B2072CF0D900240BE05D
:4061C0003F48A20011194B0003441A8F596B186BFFF760FF0134E4B2022CF1D9384C04F1500104F65470FFF721FF364A364B1A6002F1004203F500731A60344A137843F043
:40620000020313701032137843F002031370304D2B7843F040032B70A2F58632513A137843F0100313700A2204F6F4712948FFF731FF294C0A22A4F1F8012848FFF72AFF0F
:406240000A22A4F1EC012648FFF724FF0A22A4F1E0012448FFF71EFF0A22A4F1D4012248FFF718FF0A22A4F1C8012048FFF712FF0822A4F1BC011E48FFF70CFF0A22A4F11E
:40628000B4011C48FFF706FF0A22A4F1A8011A48FFF700FF194A137843F008031370184C61232370FFF7FEFEC1232370FFF7D8FE0E2229461348FFF7F1FE38BDE846004068
:4062C00060C0000004040444D814014003500140A04300400051004058D10000C0510040F05100401051004020510040305100404251004050510040605100402243004061
:4063000000480040B043004008B504F0B9FE03680C2B00D1FEE7FEE708B5094B1A681044084BC31A802B02DC054B186005E004F0A7FE0C2303604FF0FF32104608BD00BF3B
:40634000FC80FF1F1884FF1F08B5104E104D16E029686B68AC68002204E051F8040B43F8040B0432A242F8D1E868002203E0002143F8041B04328242F9D11035013E002E12
:40638000E6D104F083FEF9F77DFEFEE701000000F4D3000008B5104A104B1A60104A136843F40073136000230AE0032B03D80D4A52F8231000E00C490C4A42F823100133A5
:4063C0002F2BF2D90A4B1A780A4B1A70074A0A4B1A60FFF7DBFE08BD0004FA050CED00E014ED00E000000000096300000080FF1FBC760040C080FF1F08ED00E0044A1378B9
:4064000003F0FE0300F0010018431070704700BF20510040044A137803F0FD03400000F0020018431070704720510040044A137803F0FB03800000F0040018431070704764
:40644000205100401022014B1A60704700E100E00822014B1A60704700E100E008B502F09BFD0C4A137843F0200313700432137843F0100313700132137843F01003137081
:4064800002F08EFD01F0C0FEFFF7DCFFFFF7E0FF08BD00BF916400401022014B1A60704780E100E00822014B1A60704780E100E010B5FFF7F1FF064B1C78064A137803F01B
:4064C00009031C4300231370FFF7BCFF204610BD65640040E182FF1F10B5FFF7E3FF064B1B78064A147804F040041C4300231370FFF7AEFF204610BD66640040EF82FF1F14
:4065000010B504462B4B1A7802F0FF0312B1013BDBB200E00423284A1278D2B29342F1D0FFF7BAFF254B1978254A137803F009030B4313701F4B1A78D2B21F4B1B78DBB223
:406540009A4207D11E4B1B7813F0040F02D01D4B1C702CE0184A13780133DBB213701378DBB2042B02D90022134B1A70124B1A78D2B2104B1B78DBB29A420ED10D4A13789B
:406580000133DBB213701378DBB2042B02D90022084B1A7001220C4B1A70074B1B78DBB20A4AD4540A4A137843F004031370FFF749FF10BDEB82FF1FED82FF1F65640040BC
:4065C000E182FF1F45640040EA82FF1FDC82FF1F8564004010B5FFF765FF134B1A78D2B2124B1B78DBB29A4214D0114B1B7813F0FF0F0CD10C4A13780133DBB213701378A5
:40660000DBB2052B06D90022074B1A7002E00022074B1A70044B1B78DBB2064AD45CE4B2FFF716FF204610BDEE82FF1FEC82FF1FD882FF1FE482FF1F08B501E00A4B1B7881
:406640000A4B1B7813F0200FF8D102F0A5FC084B1A7842F001021A701A7802F0FE021A7002F09EFC08BD00BF55640040666400409564004010B50F22174B1A70174C10232E
:4066800023600621042000F029F91549042000F011F9082323600721032000F01FF91149032000F007F9FFF7C7FF00240E4B1C700E4B1C700E4B1C700E4B1C700E4B1C70B7
:4066C0000E4B1C70FFF7F4FEFFF706FF0C4B1C70202201331A7010BD8164004080E100E021670000C1670000D882FF1FEE82FF1FEC82FF1FEA82FF1FEB82FF1FED82FF1FD8
:406700008564004008B5054B1B7823B9FFF7B2FF0122024B1A70FFF7A1FE08BD2482FF1F28E01F4B19781F4A137803F009030B431370137813F0040F24D01B4B1B7813F09D
:40674000FF0F0CD1194A13780133DBB213701378DBB2042B06D90022144B1A7002E00022114B1A70114B1B78DBB2114AD35CDBB2104A13700D4B1A78D2B20F4B1B78DBB289
:406780009A42CED1094B1A78D2B20B4B1B78DBB29A4204D1094A137803F0FB031370704765640040E182FF1FEA82FF1FEB82FF1FDC82FF1F45640040ED82FF1F856400400A
:4067C000204B1A7820490B7803F0400313430B7032E01E4B1A78D2B21D490B780133DBB20B700B78DBB2052B02D90021184B1970174B1978C9B2174B1B78DBB299420ED121
:4068000014490B780133DBB20B700B78DBB2052B02D900210F4B197001210F4B19700C4B1B78DBB20D49CA54064B1A7806490B7803F0400313430B70034B1B7813F0200F5E
:40684000C7D1704766640040EF82FF1F55640040EC82FF1FEE82FF1FD882FF1FE482FF1F01BE7047024A137843F0010313707047F646004010B5044605E0084B186802F02E
:4068800083FBA4F50044B4F5004FF6D8034B586800FB04F002F078FB10BD00BF0081FF1F08B5034B1B7A00FB03F002F06DFB08BD0081FF1F70B504460E46074B1D681F28FD
:4068C00002D90020FFF7CCFF04F01F04103455F8240045F8246070BD08ED00E038B504460D46072902D90020FFF7BAFF1F2C02D90020FFF7B5FF04F01F0000F1604000F560
:4069000064406D01EDB2057038BD00BF134B1B78DBB20360124A127843EA02230360114A127843EA024303600F4A127843EA026303600E4B1B78DBB243600D4A127843EA45
:40694000022343600B4A127843EA024343600A4A127843EA02634360704700BF0301004904010049EC4600400201004901010049000100490501004906010049F8B502F0A6
:406980000BFB0546404A137843F0010313701032137843F00103137001273C4B1F700226943B1E7002F5E2521B32137803F07F0313700020FFF774FF354C237803F0F903DE
:4069C0002370344A137803F0DF03137023783B4323703846FFF764FF2820FFF761FF2E4B1A7802F07F021A701A7802F0BF021A702378334323703046FFF752FF237843F07C
:406A0000040323700023254A137001321370284602F0C6FA07211720FFF760FF20491720FFF748FF07211820FFF758FF1D491820FFF740FF07211520FFF750FF1A49152086
:406A4000FFF738FF07210620FFF748FF17490620FFF730FF07210846FFF740FF14490720FFF728FF07210820FFF738FF11490820FFF720FF07210C20FFF730FF0E490C2057
:406A8000FFF718FFF8BD00BFA54300409D6000409443004012600040F85100408460004005750000ED720000017500006174000091740000C5740000A177000010B5002318
:406AC00004E00124244AD4542344DBB2012BF8D9224B18700023224A1370224A1370224A1370224A1370224A1370224A1370224A1370224B4FF400021A604FF080721A608E
:406B00004FF400121A6040221A6080221A604FF480721A6011B1012906D00BE0184A137803F0FE0313700AE0154A137843F00103137004E0124A137843F001031370032296
:406B4000104B1A708022203B1A70012002F01CFA04220D4B1A7010BDA083FF1F1383FF1F0883FF1F1A83FF1F2083FF1F0983FF1F1483FF1F3183FF1F0A83FF1F00E100E0F4
:406B800009600040286000401260004038B504460D46064B1B7823B9FFF7F0FE0122034B1A7029462046FFF789FF38BD2582FF1F002304E001210E4AD1540B44DBB2012BCE
:406BC000F8D900230B4A13700B4A13700B4A13700B4A13700B4A13700B4A13700B4A137003220B4B1A708022203B1A70704700BFA083FF1F0883FF1F1A83FF1F2083FF1F51
:406C00000983FF1F1483FF1F3183FF1F0A83FF1F28600040014B1878704700BF2083FF1F064B1B7813F0FF0F05D0044B1878C0B200221A7070470020704700BF1A83FF1FCE
:406C400000EB40008300024A13445878704700BF3483FF1F431EDBB2072B0BD8064B00011A18185C00F00F00537843EA0020023880B2704700207047FC5F0040431EDBB213
:406C8000072B3CD8F0B4074600EB4004A3001C4C2344DB889BB2C3F500739A4208D900EB400293002344DA8892B2C2F5007292B200EB4004A300124C2344DB7843EA1223DE
:406CC000104D04012E192B55D3B2737039B909E0CE5C3D010C4C665501339BB200E000239A42F5D8420002449300054A134400225A705A79D2B20001044B1A54F0BC70475B
:406D00003483FF1FFC5F004078600040FE5F0040431EDBB2072B0BD8420002449300054A134400225A705A79D2B20001024B1A54704700BF3483FF1FFE5F004070B5D9B1D4
:406D4000054614460E46C8B1082819D8FFF782FFA04203D22846FFF77DFF0446002305E02901094A525CF25401339BB2A342F7D32846FFF7CDFF04E0002402E0002400E061
:406D80000024204670BD00BF786000404FF40012014B1A60704700BF00E100E010B4FF2400230EE0094AD25C02EB42029100084A11448A7AD2B2824201D11C460223013338
:406DC000DBB2012BEED9204610BC7047F482FF1F3483FF1F10B5204C2079FFF7DFFF237813F0800F0ED06378DBB2212B2FD11B4B07221A80C0EBC000194A1044586000F071
:406E0000E3FA10BD144B5B78DBB2202B02D0222B10D01EE0114A07231380C0EBC00310490B4453600F4A135C43F00103135400F0F3FA10BD084B9B780B4A22F81030094A48
:406E4000135C43F00203135400F07CF910BD002010BD002010BD00BF006000402483FF1F1081FF1F0483FF1FF082FF1F10B500241F4B1C701F4B1C705C700AE01E4B185D87
:406E8000C0B2431EDBB2072B01D8FFF741FF0134E4B2012CF2D9194B1B7813F0FF0F1AD0154B1B7813F0FF0F17D0154B1B7813F0FF0F14D0114B1B78DBB2082B11D80E4BB8
:406EC0001B78DBB2082B0ED80D4B1B78DBB2082B0BD8002010BD012010BD012010BD012010BD012010BD012010BD012010BD00BF2682FF1F0483FF1FFC82FF1F0083FF1FE3
:406F0000F482FF1F70B506460D460F4B1B780F4AD45CE4B204EB440293000D4A13441B899BB28B4209D204EB44029300084A13441D89ADB20020FFF793FC2A463146204676
:406F4000FFF79CFE70BD00BF2682FF1F0083FF1F3483FF1F08B5034B1B78034AD05CFFF76FFE08BD2682FF1FFC82FF1F08B5084B1B78084AD35CDBB203EB43018A000649FC
:406F80000A44128992B201461846FFF7D7FE08BD2682FF1FFC82FF1F3483FF1FC37803F0030390F9020000280FDA032B06D002F001030B48C15442F001020EE0C2F38003AB
:406FC0000848C15442F0040207E0032B05D0C2F340030548C15442F002021046704700BF0083FF1FF482FF1FFC82FF1F1D4B19781D4A13889BB20B449BB2138000220FE055
:407000001A494B681B78DBB2194883544B6801334B600132D2B20B889BB2013B9BB20B80124B1B889BB20BB1072AE9D90D4B1B78DBB2082B00D05AB10E490B7883F0800353
:407040000B700F210C4B197002210C4B197004E0022309490B7009490B70094B1A70014B1A7070470A83FF1F1E83FF1F2483FF1F006000401583FF1F1283FF1F0883FF1F93
:407080003083FF1F0222074B1A708022064B1A700F22064B1A700023054A1370054A1370012070470883FF1F1583FF1F1283FF1F0A83FF1F3083FF1F08B5FFF797FF08BD3B
:4070C00010B4194B197801F00F010239C9B2174A13889BB20B449BB21380002011E0144A5468144B1B5CDBB223705368013353600130C0B20139C9B213889BB2013B9BB21C
:4071000013800B4B1B889BB20BB10029E7D10A4B19700A4A137883F0800313700B22084B1A7010BC704700BF296000401E83FF1F2483FF1F006000403083FF1F1583FF1FE3
:407140001283FF1F0623064A1370064A13708022054B1A700022054B1A700120704700BF0883FF1F1283FF1F1583FF1F3083FF1F064B9B6843B1054B9A6810709A68044932
:407180000988518000229A60704700BF2483FF1F1E83FF1F08B5134B1A78D2B21A701B78DBB213F0800F02D00F4A137008BD0220FFF7DEFF0D4B1B7803F06003202B05D021
:4071C000402B06D043B900F0DDFD06E001F0ECFE03E000F085FF00E0002010B90322024B1A7008BD286000401283FF1F0060004008B5094B1978094A13889BB20B449BB252
:4072000013800022064B1A700120FFF7B1FF0322044B1A7008BD00BF0A83FF1F1E83FF1F0883FF1F1283FF1F08B50B4B1B78DBB2042B06D0062B07D0022B0BD1FFF7D8FF99
